{
  "_format": "hh-sol-artifact-1",
  "contractName": "AgentRolesUpgradeable",
  "sourceName": "contracts/erc3643/roles/permissioning/agent/AgentRolesUpgradeable.sol",
  "abi": [
    {
      "inputs": [],
      "name": "InvalidInitialization",
      "type": "error"
    },
    {
      "inputs": [],
      "name": "NotInitializing",
      "type": "error"
    },
    {
      "inputs": [
        {
          "internalType": "address",
          "name": "owner",
          "type": "address"
        }
      ],
      "name": "OwnableInvalidOwner",
      "type": "error"
    },
    {
      "inputs": [
        {
          "internalType": "address",
          "name": "account",
          "type": "address"
        }
      ],
      "name": "OwnableUnauthorizedAccount",
      "type": "error"
    },
    {
      "anonymous": false,
      "inputs": [
        {
          "indexed": false,
          "internalType": "uint64",
          "name": "version",
          "type": "uint64"
        }
      ],
      "name": "Initialized",
      "type": "event"
    },
    {
      "anonymous": false,
      "inputs": [
        {
          "indexed": true,
          "internalType": "address",
          "name": "previousOwner",
          "type": "address"
        },
        {
          "indexed": true,
          "internalType": "address",
          "name": "newOwner",
          "type": "address"
        }
      ],
      "name": "OwnershipTransferred",
      "type": "event"
    },
    {
      "anonymous": false,
      "inputs": [
        {
          "indexed": true,
          "internalType": "address",
          "name": "_agent",
          "type": "address"
        },
        {
          "indexed": false,
          "internalType": "string",
          "name": "_role",
          "type": "string"
        }
      ],
      "name": "RoleAdded",
      "type": "event"
    },
    {
      "anonymous": false,
      "inputs": [
        {
          "indexed": true,
          "internalType": "address",
          "name": "_agent",
          "type": "address"
        },
        {
          "indexed": false,
          "internalType": "string",
          "name": "_role",
          "type": "string"
        }
      ],
      "name": "RoleRemoved",
      "type": "event"
    },
    {
      "inputs": [
        {
          "internalType": "address",
          "name": "_agent",
          "type": "address"
        }
      ],
      "name": "addAgentAdmin",
      "outputs": [],
      "stateMutability": "nonpayable",
      "type": "function"
    },
    {
      "inputs": [
        {
          "internalType": "address",
          "name": "_agent",
          "type": "address"
        }
      ],
      "name": "addComplianceAgent",
      "outputs": [],
      "stateMutability": "nonpayable",
      "type": "function"
    },
    {
      "inputs": [
        {
          "internalType": "address",
          "name": "_agent",
          "type": "address"
        }
      ],
      "name": "addFreezer",
      "outputs": [],
      "stateMutability": "nonpayable",
      "type": "function"
    },
    {
      "inputs": [
        {
          "internalType": "address",
          "name": "_agent",
          "type": "address"
        }
      ],
      "name": "addRecoveryAgent",
      "outputs": [],
      "stateMutability": "nonpayable",
      "type": "function"
    },
    {
      "inputs": [
        {
          "internalType": "address",
          "name": "_agent",
          "type": "address"
        }
      ],
      "name": "addSupplyModifier",
      "outputs": [],
      "stateMutability": "nonpayable",
      "type": "function"
    },
    {
      "inputs": [
        {
          "internalType": "address",
          "name": "_agent",
          "type": "address"
        }
      ],
      "name": "addTransferManager",
      "outputs": [],
      "stateMutability": "nonpayable",
      "type": "function"
    },
    {
      "inputs": [
        {
          "internalType": "address",
          "name": "_agent",
          "type": "address"
        }
      ],
      "name": "addWhiteListManager",
      "outputs": [],
      "stateMutability": "nonpayable",
      "type": "function"
    },
    {
      "inputs": [
        {
          "internalType": "address",
          "name": "_agent",
          "type": "address"
        }
      ],
      "name": "isAgentAdmin",
      "outputs": [
        {
          "internalType": "bool",
          "name": "",
          "type": "bool"
        }
      ],
      "stateMutability": "view",
      "type": "function"
    },
    {
      "inputs": [
        {
          "internalType": "address",
          "name": "_agent",
          "type": "address"
        }
      ],
      "name": "isComplianceAgent",
      "outputs": [
        {
          "internalType": "bool",
          "name": "",
          "type": "bool"
        }
      ],
      "stateMutability": "view",
      "type": "function"
    },
    {
      "inputs": [
        {
          "internalType": "address",
          "name": "_agent",
          "type": "address"
        }
      ],
      "name": "isFreezer",
      "outputs": [
        {
          "internalType": "bool",
          "name": "",
          "type": "bool"
        }
      ],
      "stateMutability": "view",
      "type": "function"
    },
    {
      "inputs": [
        {
          "internalType": "address",
          "name": "_agent",
          "type": "address"
        }
      ],
      "name": "isRecoveryAgent",
      "outputs": [
        {
          "internalType": "bool",
          "name": "",
          "type": "bool"
        }
      ],
      "stateMutability": "view",
      "type": "function"
    },
    {
      "inputs": [
        {
          "internalType": "address",
          "name": "_agent",
          "type": "address"
        }
      ],
      "name": "isSupplyModifier",
      "outputs": [
        {
          "internalType": "bool",
          "name": "",
          "type": "bool"
        }
      ],
      "stateMutability": "view",
      "type": "function"
    },
    {
      "inputs": [
        {
          "internalType": "address",
          "name": "_agent",
          "type": "address"
        }
      ],
      "name": "isTransferManager",
      "outputs": [
        {
          "internalType": "bool",
          "name": "",
          "type": "bool"
        }
      ],
      "stateMutability": "view",
      "type": "function"
    },
    {
      "inputs": [
        {
          "internalType": "address",
          "name": "_agent",
          "type": "address"
        }
      ],
      "name": "isWhiteListManager",
      "outputs": [
        {
          "internalType": "bool",
          "name": "",
          "type": "bool"
        }
      ],
      "stateMutability": "view",
      "type": "function"
    },
    {
      "inputs": [],
      "name": "owner",
      "outputs": [
        {
          "internalType": "address",
          "name": "",
          "type": "address"
        }
      ],
      "stateMutability": "view",
      "type": "function"
    },
    {
      "inputs": [
        {
          "internalType": "address",
          "name": "_agent",
          "type": "address"
        }
      ],
      "name": "removeAgentAdmin",
      "outputs": [],
      "stateMutability": "nonpayable",
      "type": "function"
    },
    {
      "inputs": [
        {
          "internalType": "address",
          "name": "_agent",
          "type": "address"
        }
      ],
      "name": "removeComplianceAgent",
      "outputs": [],
      "stateMutability": "nonpayable",
      "type": "function"
    },
    {
      "inputs": [
        {
          "internalType": "address",
          "name": "_agent",
          "type": "address"
        }
      ],
      "name": "removeFreezer",
      "outputs": [],
      "stateMutability": "nonpayable",
      "type": "function"
    },
    {
      "inputs": [
        {
          "internalType": "address",
          "name": "_agent",
          "type": "address"
        }
      ],
      "name": "removeRecoveryAgent",
      "outputs": [],
      "stateMutability": "nonpayable",
      "type": "function"
    },
    {
      "inputs": [
        {
          "internalType": "address",
          "name": "_agent",
          "type": "address"
        }
      ],
      "name": "removeSupplyModifier",
      "outputs": [],
      "stateMutability": "nonpayable",
      "type": "function"
    },
    {
      "inputs": [
        {
          "internalType": "address",
          "name": "_agent",
          "type": "address"
        }
      ],
      "name": "removeTransferManager",
      "outputs": [],
      "stateMutability": "nonpayable",
      "type": "function"
    },
    {
      "inputs": [
        {
          "internalType": "address",
          "name": "_agent",
          "type": "address"
        }
      ],
      "name": "removeWhiteListManager",
      "outputs": [],
      "stateMutability": "nonpayable",
      "type": "function"
    },
    {
      "inputs": [],
      "name": "renounceOwnership",
      "outputs": [],
      "stateMutability": "nonpayable",
      "type": "function"
    },
    {
      "inputs": [
        {
          "internalType": "address",
          "name": "newOwner",
          "type": "address"
        }
      ],
      "name": "transferOwnership",
      "outputs": [],
      "stateMutability": "nonpayable",
      "type": "function"
    }
  ],
  "bytecode": "0x608060405234801561001057600080fd5b50610f99806100206000396000f3fe608060405234801561001057600080fd5b50600436106101585760003560e01c8063715018a6116100c3578063bd92fcfe1161007c578063bd92fcfe146102cc578063c6006c9a146102df578063c8777b50146102f2578063cdf1b69314610305578063e86c643114610318578063f2fde38b1461032b57600080fd5b8063715018a6146102585780637489453d146102605780637ad78a4614610273578063860a2bcf146102865780638da5cb5b14610299578063965e61ea146102b957600080fd5b80633cdf8000116101155780633cdf8000146101e65780634599fb7b146101f95780634aff432c1461020c578063526606c91461021f57806365d07b2e146102325780636c65fd6a1461024557600080fd5b8063042a36061461015d57806314f2d2761461018557806315d8ca621461019a5780632001c350146101ad5780632acd2000146101c05780633966904d146101d3575b600080fd5b61017061016b366004610e6d565b61033e565b60405190151581526020015b60405180910390f35b610198610193366004610e6d565b610350565b005b6101986101a8366004610e6d565b6103fb565b6101706101bb366004610e6d565b610490565b6101986101ce366004610e6d565b61049d565b6101986101e1366004610e6d565b61052b565b6101986101f4366004610e6d565b6105c2565b610170610207366004610e6d565b610658565b61019861021a366004610e6d565b610665565b61019861022d366004610e6d565b6106fc565b610198610240366004610e6d565b61078a565b610170610253366004610e6d565b61081b565b610198610828565b61019861026e366004610e6d565b61083c565b610170610281366004610e6d565b6108d0565b610198610294366004610e6d565b6108dd565b6102a1610972565b6040516001600160a01b03909116815260200161017c565b6101986102c7366004610e6d565b6109a0565b6101706102da366004610e6d565b610a36565b6101986102ed366004610e6d565b610a43565b610198610300366004610e6d565b610ad9565b610198610313366004610e6d565b610b6d565b610170610326366004610e6d565b610bfe565b610198610339366004610e6d565b610c0b565b600061034a8183610c49565b92915050565b33610359610972565b6001600160a01b03161480610372575061037233610658565b6103975760405162461bcd60e51b815260040161038e90610e9d565b60405180910390fd5b6103a2600282610ccc565b604080518082018252600f81526e2a3930b739b332b926b0b730b3b2b960891b602082015290516001600160a01b03831690600080516020610f44833981519152906103ef908490610ed4565b60405180910390a25050565b33610404610972565b6001600160a01b0316148061041d575061041d33610658565b6104395760405162461bcd60e51b815260040161038e90610e9d565b610444600082610ccc565b604080518082018252600e81526d29bab838363ca6b7b234b334b2b960911b602082015290516001600160a01b03831690600080516020610f44833981519152906103ef908490610ed4565b600061034a600483610c49565b336104a6610972565b6001600160a01b031614806104bf57506104bf33610658565b6104db5760405162461bcd60e51b815260040161038e90610e9d565b6104e6600182610d48565b6040805180820182526007815266233932b2bd32b960c91b602082015290516001600160a01b03831690600080516020610f24833981519152906103ef908490610ed4565b33610534610972565b6001600160a01b0316148061054d575061054d33610658565b6105695760405162461bcd60e51b815260040161038e90610e9d565b610574600582610ccc565b604080518082018252601081526f2bb434ba32a634b9ba26b0b730b3b2b960811b602082015290516001600160a01b03831690600080516020610f44833981519152906103ef908490610ed4565b336105cb610972565b6001600160a01b031614806105e457506105e433610658565b6106005760405162461bcd60e51b815260040161038e90610e9d565b61060b600482610ccc565b604080518082018252600f81526e10dbdb5c1b1a585b98d95059d95b9d608a1b602082015290516001600160a01b03831690600080516020610f44833981519152906103ef908490610ed4565b600061034a600683610c49565b3361066e610972565b6001600160a01b03161480610687575061068733610658565b6106a35760405162461bcd60e51b815260040161038e90610e9d565b6106ae600582610d48565b604080518082018252601081526f2bb434ba32a634b9ba26b0b730b3b2b960811b602082015290516001600160a01b03831690600080516020610f24833981519152906103ef908490610ed4565b33610705610972565b6001600160a01b0316148061071e575061071e33610658565b61073a5760405162461bcd60e51b815260040161038e90610e9d565b610745600182610ccc565b6040805180820182526007815266233932b2bd32b960c91b602082015290516001600160a01b03831690600080516020610f44833981519152906103ef908490610ed4565b33610793610972565b6001600160a01b031614806107ac57506107ac33610658565b6107c85760405162461bcd60e51b815260040161038e90610e9d565b6107d3600682610d48565b604080518082018252600a81526920b3b2b73a20b236b4b760b11b602082015290516001600160a01b03831690600080516020610f24833981519152906103ef908490610ed4565b600061034a600183610c49565b610830610dca565b61083a6000610dfc565b565b33610845610972565b6001600160a01b0316148061085e575061085e33610658565b61087a5760405162461bcd60e51b815260040161038e90610e9d565b610885600382610ccc565b604080518082018252600d81526c149958dbdd995c9e5059d95b9d609a1b602082015290516001600160a01b03831690600080516020610f44833981519152906103ef908490610ed4565b600061034a600383610c49565b336108e6610972565b6001600160a01b031614806108ff57506108ff33610658565b61091b5760405162461bcd60e51b815260040161038e90610e9d565b610926600082610d48565b604080518082018252600e81526d29bab838363ca6b7b234b334b2b960911b602082015290516001600160a01b03831690600080516020610f24833981519152906103ef908490610ed4565b7f9016d09d72d40fdae2fd8ceac6b6234c7706214fd39c1cd1e609a0528c199300546001600160a01b031690565b336109a9610972565b6001600160a01b031614806109c257506109c233610658565b6109de5760405162461bcd60e51b815260040161038e90610e9d565b6109e9600282610d48565b604080518082018252600f81526e2a3930b739b332b926b0b730b3b2b960891b602082015290516001600160a01b03831690600080516020610f24833981519152906103ef908490610ed4565b600061034a600583610c49565b33610a4c610972565b6001600160a01b03161480610a655750610a6533610658565b610a815760405162461bcd60e51b815260040161038e90610e9d565b610a8c600482610d48565b604080518082018252600f81526e10dbdb5c1b1a585b98d95059d95b9d608a1b602082015290516001600160a01b03831690600080516020610f24833981519152906103ef908490610ed4565b33610ae2610972565b6001600160a01b03161480610afb5750610afb33610658565b610b175760405162461bcd60e51b815260040161038e90610e9d565b610b22600382610d48565b604080518082018252600d81526c149958dbdd995c9e5059d95b9d609a1b602082015290516001600160a01b03831690600080516020610f24833981519152906103ef908490610ed4565b33610b76610972565b6001600160a01b03161480610b8f5750610b8f33610658565b610bab5760405162461bcd60e51b815260040161038e90610e9d565b610bb6600682610ccc565b604080518082018252600a81526920b3b2b73a20b236b4b760b11b602082015290516001600160a01b03831690600080516020610f44833981519152906103ef908490610ed4565b600061034a600283610c49565b610c13610dca565b6001600160a01b038116610c3d57604051631e4fbdf760e01b81526000600482015260240161038e565b610c4681610dfc565b50565b60006001600160a01b038216610cac5760405162461bcd60e51b815260206004820152602260248201527f526f6c65733a206163636f756e7420697320746865207a65726f206164647265604482015261737360f01b606482015260840161038e565b506001600160a01b03166000908152602091909152604090205460ff1690565b610cd68282610c49565b15610d235760405162461bcd60e51b815260206004820152601f60248201527f526f6c65733a206163636f756e7420616c72656164792068617320726f6c6500604482015260640161038e565b6001600160a01b0316600090815260209190915260409020805460ff19166001179055565b610d528282610c49565b610da85760405162461bcd60e51b815260206004820152602160248201527f526f6c65733a206163636f756e7420646f6573206e6f74206861766520726f6c6044820152606560f81b606482015260840161038e565b6001600160a01b0316600090815260209190915260409020805460ff19169055565b33610dd3610972565b6001600160a01b03161461083a5760405163118cdaa760e01b815233600482015260240161038e565b7f9016d09d72d40fdae2fd8ceac6b6234c7706214fd39c1cd1e609a0528c19930080546001600160a01b031981166001600160a01b03848116918217845560405192169182907f8be0079c531659141344cd1fd0a4f28419497f9722a3daafe3b4186f6b6457e090600090a3505050565b600060208284031215610e7f57600080fd5b81356001600160a01b0381168114610e9657600080fd5b9392505050565b60208082526019908201527f526f6c653a2053656e646572206973204e4f542041646d696e00000000000000604082015260600190565b60006020808352835180602085015260005b81811015610f0257858101830151858201604001528201610ee6565b506000604082860101526040601f19601f830116850101925050509291505056fed211483f91fc6eff862467f8de606587a30c8fc9981056f051b897a418df803abfec83d64eaa953f2708271a023ab9ee82057f8f3578d548c1a4ba0b5b700489a2646970667358221220798c18216bd56c96ea453f78099f666b8f30dac5b7172000ca37bef1fceaa2fa64736f6c63430008180033",
  "linkReferences": {},
  "deployedLinkReferences": {}
}