{
  "_format": "hh-sol-artifact-1",
  "contractName": "ConditionalTransferModule",
  "sourceName": "contracts/erc3643/compliance/modular/modules/ConditionalTransferModule.sol",
  "abi": [
    {
      "anonymous": false,
      "inputs": [
        {
          "indexed": false,
          "internalType": "address",
          "name": "_from",
          "type": "address"
        },
        {
          "indexed": false,
          "internalType": "address",
          "name": "_to",
          "type": "address"
        },
        {
          "indexed": false,
          "internalType": "uint256",
          "name": "_amount",
          "type": "uint256"
        },
        {
          "indexed": false,
          "internalType": "address",
          "name": "_token",
          "type": "address"
        }
      ],
      "name": "ApprovalRemoved",
      "type": "event"
    },
    {
      "anonymous": false,
      "inputs": [
        {
          "indexed": true,
          "internalType": "address",
          "name": "_compliance",
          "type": "address"
        }
      ],
      "name": "ComplianceBound",
      "type": "event"
    },
    {
      "anonymous": false,
      "inputs": [
        {
          "indexed": true,
          "internalType": "address",
          "name": "_compliance",
          "type": "address"
        }
      ],
      "name": "ComplianceUnbound",
      "type": "event"
    },
    {
      "anonymous": false,
      "inputs": [
        {
          "indexed": false,
          "internalType": "address",
          "name": "_from",
          "type": "address"
        },
        {
          "indexed": false,
          "internalType": "address",
          "name": "_to",
          "type": "address"
        },
        {
          "indexed": false,
          "internalType": "uint256",
          "name": "_amount",
          "type": "uint256"
        },
        {
          "indexed": false,
          "internalType": "address",
          "name": "_token",
          "type": "address"
        }
      ],
      "name": "TransferApproved",
      "type": "event"
    },
    {
      "inputs": [
        {
          "internalType": "address",
          "name": "_from",
          "type": "address"
        },
        {
          "internalType": "address",
          "name": "_to",
          "type": "address"
        },
        {
          "internalType": "uint256",
          "name": "_amount",
          "type": "uint256"
        }
      ],
      "name": "approveTransfer",
      "outputs": [],
      "stateMutability": "nonpayable",
      "type": "function"
    },
    {
      "inputs": [
        {
          "internalType": "address[]",
          "name": "_from",
          "type": "address[]"
        },
        {
          "internalType": "address[]",
          "name": "_to",
          "type": "address[]"
        },
        {
          "internalType": "uint256[]",
          "name": "_amount",
          "type": "uint256[]"
        }
      ],
      "name": "batchApproveTransfers",
      "outputs": [],
      "stateMutability": "nonpayable",
      "type": "function"
    },
    {
      "inputs": [
        {
          "internalType": "address[]",
          "name": "_from",
          "type": "address[]"
        },
        {
          "internalType": "address[]",
          "name": "_to",
          "type": "address[]"
        },
        {
          "internalType": "uint256[]",
          "name": "_amount",
          "type": "uint256[]"
        }
      ],
      "name": "batchUnApproveTransfers",
      "outputs": [],
      "stateMutability": "nonpayable",
      "type": "function"
    },
    {
      "inputs": [
        {
          "internalType": "address",
          "name": "_compliance",
          "type": "address"
        }
      ],
      "name": "bindCompliance",
      "outputs": [],
      "stateMutability": "nonpayable",
      "type": "function"
    },
    {
      "inputs": [
        {
          "internalType": "address",
          "name": "_from",
          "type": "address"
        },
        {
          "internalType": "address",
          "name": "_to",
          "type": "address"
        },
        {
          "internalType": "uint256",
          "name": "_amount",
          "type": "uint256"
        },
        {
          "internalType": "address",
          "name": "_token",
          "type": "address"
        }
      ],
      "name": "calculateTransferHash",
      "outputs": [
        {
          "internalType": "bytes32",
          "name": "",
          "type": "bytes32"
        }
      ],
      "stateMutability": "pure",
      "type": "function"
    },
    {
      "inputs": [
        {
          "internalType": "address",
          "name": "",
          "type": "address"
        }
      ],
      "name": "canComplianceBind",
      "outputs": [
        {
          "internalType": "bool",
          "name": "",
          "type": "bool"
        }
      ],
      "stateMutability": "view",
      "type": "function"
    },
    {
      "inputs": [
        {
          "internalType": "address",
          "name": "_compliance",
          "type": "address"
        },
        {
          "internalType": "bytes32",
          "name": "_transferHash",
          "type": "bytes32"
        }
      ],
      "name": "getTransferApprovals",
      "outputs": [
        {
          "internalType": "uint256",
          "name": "",
          "type": "uint256"
        }
      ],
      "stateMutability": "view",
      "type": "function"
    },
    {
      "inputs": [
        {
          "internalType": "address",
          "name": "_compliance",
          "type": "address"
        }
      ],
      "name": "isComplianceBound",
      "outputs": [
        {
          "internalType": "bool",
          "name": "",
          "type": "bool"
        }
      ],
      "stateMutability": "view",
      "type": "function"
    },
    {
      "inputs": [],
      "name": "isPlugAndPlay",
      "outputs": [
        {
          "internalType": "bool",
          "name": "",
          "type": "bool"
        }
      ],
      "stateMutability": "pure",
      "type": "function"
    },
    {
      "inputs": [
        {
          "internalType": "address",
          "name": "_compliance",
          "type": "address"
        },
        {
          "internalType": "bytes32",
          "name": "_transferHash",
          "type": "bytes32"
        }
      ],
      "name": "isTransferApproved",
      "outputs": [
        {
          "internalType": "bool",
          "name": "",
          "type": "bool"
        }
      ],
      "stateMutability": "view",
      "type": "function"
    },
    {
      "inputs": [
        {
          "internalType": "address",
          "name": "_from",
          "type": "address"
        },
        {
          "internalType": "uint256",
          "name": "_value",
          "type": "uint256"
        }
      ],
      "name": "moduleBurnAction",
      "outputs": [],
      "stateMutability": "nonpayable",
      "type": "function"
    },
    {
      "inputs": [
        {
          "internalType": "address",
          "name": "_from",
          "type": "address"
        },
        {
          "internalType": "address",
          "name": "_to",
          "type": "address"
        },
        {
          "internalType": "uint256",
          "name": "_value",
          "type": "uint256"
        },
        {
          "internalType": "address",
          "name": "_compliance",
          "type": "address"
        }
      ],
      "name": "moduleCheck",
      "outputs": [
        {
          "internalType": "bool",
          "name": "",
          "type": "bool"
        }
      ],
      "stateMutability": "view",
      "type": "function"
    },
    {
      "inputs": [
        {
          "internalType": "address",
          "name": "_to",
          "type": "address"
        },
        {
          "internalType": "uint256",
          "name": "_value",
          "type": "uint256"
        }
      ],
      "name": "moduleMintAction",
      "outputs": [],
      "stateMutability": "nonpayable",
      "type": "function"
    },
    {
      "inputs": [
        {
          "internalType": "address",
          "name": "_from",
          "type": "address"
        },
        {
          "internalType": "address",
          "name": "_to",
          "type": "address"
        },
        {
          "internalType": "uint256",
          "name": "_value",
          "type": "uint256"
        }
      ],
      "name": "moduleTransferAction",
      "outputs": [],
      "stateMutability": "nonpayable",
      "type": "function"
    },
    {
      "inputs": [],
      "name": "name",
      "outputs": [
        {
          "internalType": "string",
          "name": "_name",
          "type": "string"
        }
      ],
      "stateMutability": "pure",
      "type": "function"
    },
    {
      "inputs": [
        {
          "internalType": "address",
          "name": "_from",
          "type": "address"
        },
        {
          "internalType": "address",
          "name": "_to",
          "type": "address"
        },
        {
          "internalType": "uint256",
          "name": "_amount",
          "type": "uint256"
        }
      ],
      "name": "unApproveTransfer",
      "outputs": [],
      "stateMutability": "nonpayable",
      "type": "function"
    },
    {
      "inputs": [
        {
          "internalType": "address",
          "name": "_compliance",
          "type": "address"
        }
      ],
      "name": "unbindCompliance",
      "outputs": [],
      "stateMutability": "nonpayable",
      "type": "function"
    }
  ],
  "bytecode": "0x608060405234801561001057600080fd5b50610e6d806100206000396000f3fe608060405234801561001057600080fd5b506004361061010b5760003560e01c80634cf4d295116100a2578063bdf5a41511610071578063bdf5a415146102a6578063e2cb5c34146102dc578063e6f5e807146102ef578063f104a8c91461021a578063f3850dbf146102f657600080fd5b80634cf4d29514610240578063825808051461026c578063933865191461027f578063bcc210531461029257600080fd5b8063202a6376116100de578063202a63761461019f5780632cb7e1ec14610207578063372491a21461021a5780634a9325441461022d57600080fd5b8063013b7ce4146101105780630694a5fb1461013857806306fdde031461014d5780631c7a17931461018c575b600080fd5b61012361011e366004610b2d565b610309565b60405190151581526020015b60405180910390f35b61014b610146366004610b80565b61038a565b005b604080518082018252601981527f436f6e646974696f6e616c5472616e736665724d6f64756c65000000000000006020820152905161012f9190610ba4565b61014b61019a366004610bf3565b610489565b6101f96101ad366004610b2d565b604080516001600160a01b0395861660208083019190915294861681830152606081019390935293166080808301919091528351808303909101815260a0909101909252815191012090565b60405190815260200161012f565b61014b610215366004610bf3565b610640565b61014b610228366004610c34565b610704565b61014b61023b366004610b80565b610737565b61012361024e366004610b80565b6001600160a01b031660009081526020819052604090205460ff1690565b61014b61027a366004610bf3565b61086a565b61012361028d366004610c34565b61096f565b6101236102a0366004610b80565b50600190565b6101f96102b4366004610c34565b6001600160a01b03919091166000908152600160209081526040808320938352929052205490565b61014b6102ea366004610cac565b6109aa565b6001610123565b61014b610304366004610cac565b610a64565b600080610374868686866001600160a01b0316636a3edf286040518163ffffffff1660e01b8152600401602060405180830381865afa158015610350573d6000803e3d6000fd5b505050506040513d601f19601f820116820180604052508101906101ad9190610d46565b9050610380838261096f565b9695505050505050565b3360009081526020819052604090205460ff166103c25760405162461bcd60e51b81526004016103b990610d63565b60405180910390fd5b6001600160a01b0381166104185760405162461bcd60e51b815260206004820152601f60248201527f696e76616c696420617267756d656e74202d207a65726f20616464726573730060448201526064016103b9565b336001600160a01b038216146104405760405162461bcd60e51b81526004016103b990610d9a565b6001600160a01b038116600081815260208190526040808220805460ff19169055517f408b49d9be1c914c52a0227e18a077e5a892dddf32a26cfa94a5d9708fad77189190a250565b3360009081526020819052604090205460ff166104b85760405162461bcd60e51b81526004016103b990610d63565b60006104fe848484336001600160a01b0316636a3edf286040518163ffffffff1660e01b8152600401602060405180830381865afa158015610350573d6000803e3d6000fd5b3360009081526001602090815260408083208484529091529020549091506105575760405162461bcd60e51b815260206004820152600c60248201526b1b9bdd08185c1c1c9bdd995960a21b60448201526064016103b9565b336000908152600160209081526040808320848452909152812080549161057d83610df1565b91905055507f611476e33c1d844d9fa71ba7de6e7130e18b22971d28580fd76321e4af696356848484336001600160a01b0316636a3edf286040518163ffffffff1660e01b8152600401602060405180830381865afa1580156105e4573d6000803e3d6000fd5b505050506040513d601f19601f820116820180604052508101906106089190610d46565b604080516001600160a01b0395861681529385166020850152830191909152909116606082015260800160405180910390a150505050565b3360009081526020819052604090205460ff1661066f5760405162461bcd60e51b81526004016103b990610d63565b60006106b5848484336001600160a01b0316636a3edf286040518163ffffffff1660e01b8152600401602060405180830381865afa158015610350573d6000803e3d6000fd5b336000908152600160209081526040808320848452909152902054909150156106fe57336000908152600160209081526040808320848452909152812080549161057d83610df1565b50505050565b3360009081526020819052604090205460ff166107335760405162461bcd60e51b81526004016103b990610d63565b5050565b6001600160a01b03811661078d5760405162461bcd60e51b815260206004820152601f60248201527f696e76616c696420617267756d656e74202d207a65726f20616464726573730060448201526064016103b9565b6001600160a01b03811660009081526020819052604090205460ff16156107f65760405162461bcd60e51b815260206004820152601860248201527f636f6d706c69616e636520616c726561647920626f756e64000000000000000060448201526064016103b9565b336001600160a01b0382161461081e5760405162461bcd60e51b81526004016103b990610d9a565b6001600160a01b038116600081815260208190526040808220805460ff19166001179055517f1f7b76c58fb697eb53c6c7c1becb96911516a136e24d7ced386b2355358b75a39190a250565b3360009081526020819052604090205460ff166108995760405162461bcd60e51b81526004016103b990610d63565b60006108df848484336001600160a01b0316636a3edf286040518163ffffffff1660e01b8152600401602060405180830381865afa158015610350573d6000803e3d6000fd5b336000908152600160209081526040808320848452909152812080549293509061090883610e08565b91905055507f776c895685d60b5ac3aa2c3381ed2b021825c000fbb0d8ff1359636700aa1651848484336001600160a01b0316636a3edf286040518163ffffffff1660e01b8152600401602060405180830381865afa1580156105e4573d6000803e3d6000fd5b6001600160a01b0382166000908152600160209081526040808320848452909152812054156109a0575060016109a4565b5060005b92915050565b3360009081526020819052604090205460ff166109d95760405162461bcd60e51b81526004016103b990610d63565b60005b85811015610a5b57610a538787838181106109f9576109f9610e21565b9050602002016020810190610a0e9190610b80565b868684818110610a2057610a20610e21565b9050602002016020810190610a359190610b80565b858585818110610a4757610a47610e21565b90506020020135610489565b6001016109dc565b50505050505050565b3360009081526020819052604090205460ff16610a935760405162461bcd60e51b81526004016103b990610d63565b60005b85811015610a5b57610b0d878783818110610ab357610ab3610e21565b9050602002016020810190610ac89190610b80565b868684818110610ada57610ada610e21565b9050602002016020810190610aef9190610b80565b858585818110610b0157610b01610e21565b9050602002013561086a565b600101610a96565b6001600160a01b0381168114610b2a57600080fd5b50565b60008060008060808587031215610b4357600080fd5b8435610b4e81610b15565b93506020850135610b5e81610b15565b9250604085013591506060850135610b7581610b15565b939692955090935050565b600060208284031215610b9257600080fd5b8135610b9d81610b15565b9392505050565b60006020808352835180602085015260005b81811015610bd257858101830151858201604001528201610bb6565b506000604082860101526040601f19601f8301168501019250505092915050565b600080600060608486031215610c0857600080fd5b8335610c1381610b15565b92506020840135610c2381610b15565b929592945050506040919091013590565b60008060408385031215610c4757600080fd5b8235610c5281610b15565b946020939093013593505050565b60008083601f840112610c7257600080fd5b50813567ffffffffffffffff811115610c8a57600080fd5b6020830191508360208260051b8501011115610ca557600080fd5b9250929050565b60008060008060008060608789031215610cc557600080fd5b863567ffffffffffffffff80821115610cdd57600080fd5b610ce98a838b01610c60565b90985096506020890135915080821115610d0257600080fd5b610d0e8a838b01610c60565b90965094506040890135915080821115610d2757600080fd5b50610d3489828a01610c60565b979a9699509497509295939492505050565b600060208284031215610d5857600080fd5b8151610b9d81610b15565b6020808252601e908201527f6f6e6c7920626f756e6420636f6d706c69616e63652063616e2063616c6c0000604082015260600190565b60208082526021908201527f6f6e6c7920636f6d706c69616e636520636f6e74726163742063616e2063616c6040820152601b60fa1b606082015260800190565b634e487b7160e01b600052601160045260246000fd5b600081610e0057610e00610ddb565b506000190190565b600060018201610e1a57610e1a610ddb565b5060010190565b634e487b7160e01b600052603260045260246000fdfea2646970667358221220f9ff6e716785ec1c6458170e4e753eed86b0b4f48403375cf34bf0c8931076d364736f6c63430008180033",
  "linkReferences": {},
  "deployedLinkReferences": {}
}