{
  "_format": "hh-sol-artifact-1",
  "contractName": "CountryRestrictModule",
  "sourceName": "contracts/erc3643/compliance/modular/modules/CountryRestrictModule.sol",
  "abi": [
    {
      "anonymous": false,
      "inputs": [
        {
          "indexed": true,
          "internalType": "address",
          "name": "_compliance",
          "type": "address"
        },
        {
          "indexed": false,
          "internalType": "uint16",
          "name": "_country",
          "type": "uint16"
        }
      ],
      "name": "AddedRestrictedCountry",
      "type": "event"
    },
    {
      "anonymous": false,
      "inputs": [
        {
          "indexed": true,
          "internalType": "address",
          "name": "_compliance",
          "type": "address"
        }
      ],
      "name": "ComplianceBound",
      "type": "event"
    },
    {
      "anonymous": false,
      "inputs": [
        {
          "indexed": true,
          "internalType": "address",
          "name": "_compliance",
          "type": "address"
        }
      ],
      "name": "ComplianceUnbound",
      "type": "event"
    },
    {
      "anonymous": false,
      "inputs": [
        {
          "indexed": true,
          "internalType": "address",
          "name": "_compliance",
          "type": "address"
        },
        {
          "indexed": false,
          "internalType": "uint16",
          "name": "_country",
          "type": "uint16"
        }
      ],
      "name": "RemovedRestrictedCountry",
      "type": "event"
    },
    {
      "inputs": [
        {
          "internalType": "uint16",
          "name": "_country",
          "type": "uint16"
        }
      ],
      "name": "addCountryRestriction",
      "outputs": [],
      "stateMutability": "nonpayable",
      "type": "function"
    },
    {
      "inputs": [
        {
          "internalType": "uint16[]",
          "name": "_countries",
          "type": "uint16[]"
        }
      ],
      "name": "batchRestrictCountries",
      "outputs": [],
      "stateMutability": "nonpayable",
      "type": "function"
    },
    {
      "inputs": [
        {
          "internalType": "uint16[]",
          "name": "_countries",
          "type": "uint16[]"
        }
      ],
      "name": "batchUnrestrictCountries",
      "outputs": [],
      "stateMutability": "nonpayable",
      "type": "function"
    },
    {
      "inputs": [
        {
          "internalType": "address",
          "name": "_compliance",
          "type": "address"
        }
      ],
      "name": "bindCompliance",
      "outputs": [],
      "stateMutability": "nonpayable",
      "type": "function"
    },
    {
      "inputs": [
        {
          "internalType": "address",
          "name": "",
          "type": "address"
        }
      ],
      "name": "canComplianceBind",
      "outputs": [
        {
          "internalType": "bool",
          "name": "",
          "type": "bool"
        }
      ],
      "stateMutability": "view",
      "type": "function"
    },
    {
      "inputs": [
        {
          "internalType": "address",
          "name": "_compliance",
          "type": "address"
        }
      ],
      "name": "isComplianceBound",
      "outputs": [
        {
          "internalType": "bool",
          "name": "",
          "type": "bool"
        }
      ],
      "stateMutability": "view",
      "type": "function"
    },
    {
      "inputs": [
        {
          "internalType": "address",
          "name": "_compliance",
          "type": "address"
        },
        {
          "internalType": "uint16",
          "name": "_country",
          "type": "uint16"
        }
      ],
      "name": "isCountryRestricted",
      "outputs": [
        {
          "internalType": "bool",
          "name": "",
          "type": "bool"
        }
      ],
      "stateMutability": "view",
      "type": "function"
    },
    {
      "inputs": [],
      "name": "isPlugAndPlay",
      "outputs": [
        {
          "internalType": "bool",
          "name": "",
          "type": "bool"
        }
      ],
      "stateMutability": "pure",
      "type": "function"
    },
    {
      "inputs": [
        {
          "internalType": "address",
          "name": "_from",
          "type": "address"
        },
        {
          "internalType": "uint256",
          "name": "_value",
          "type": "uint256"
        }
      ],
      "name": "moduleBurnAction",
      "outputs": [],
      "stateMutability": "nonpayable",
      "type": "function"
    },
    {
      "inputs": [
        {
          "internalType": "address",
          "name": "",
          "type": "address"
        },
        {
          "internalType": "address",
          "name": "_to",
          "type": "address"
        },
        {
          "internalType": "uint256",
          "name": "",
          "type": "uint256"
        },
        {
          "internalType": "address",
          "name": "_compliance",
          "type": "address"
        }
      ],
      "name": "moduleCheck",
      "outputs": [
        {
          "internalType": "bool",
          "name": "",
          "type": "bool"
        }
      ],
      "stateMutability": "view",
      "type": "function"
    },
    {
      "inputs": [
        {
          "internalType": "address",
          "name": "_to",
          "type": "address"
        },
        {
          "internalType": "uint256",
          "name": "_value",
          "type": "uint256"
        }
      ],
      "name": "moduleMintAction",
      "outputs": [],
      "stateMutability": "nonpayable",
      "type": "function"
    },
    {
      "inputs": [
        {
          "internalType": "address",
          "name": "_from",
          "type": "address"
        },
        {
          "internalType": "address",
          "name": "_to",
          "type": "address"
        },
        {
          "internalType": "uint256",
          "name": "_value",
          "type": "uint256"
        }
      ],
      "name": "moduleTransferAction",
      "outputs": [],
      "stateMutability": "nonpayable",
      "type": "function"
    },
    {
      "inputs": [],
      "name": "name",
      "outputs": [
        {
          "internalType": "string",
          "name": "_name",
          "type": "string"
        }
      ],
      "stateMutability": "pure",
      "type": "function"
    },
    {
      "inputs": [
        {
          "internalType": "uint16",
          "name": "_country",
          "type": "uint16"
        }
      ],
      "name": "removeCountryRestriction",
      "outputs": [],
      "stateMutability": "nonpayable",
      "type": "function"
    },
    {
      "inputs": [
        {
          "internalType": "address",
          "name": "_compliance",
          "type": "address"
        }
      ],
      "name": "unbindCompliance",
      "outputs": [],
      "stateMutability": "nonpayable",
      "type": "function"
    }
  ],
  "bytecode": "0x608060405234801561001057600080fd5b50610fa3806100206000396000f3fe608060405234801561001057600080fd5b50600436106100f55760003560e01c8063372491a211610097578063bcc2105311610066578063bcc210531461024b578063bdf9a07e1461025f578063e6f5e80714610272578063f104a8c9146101e657600080fd5b8063372491a2146101e65780634a932544146101f95780634cf4d2951461020c5780636aae7b261461023857600080fd5b806306fdde03116100d357806306fdde031461014a578063249c981d146101815780632cb7e1ec1461019457806330236f4a146101a757600080fd5b8063013b7ce4146100fa5780630333ce24146101225780630694a5fb14610137575b600080fd5b61010d610108366004610c9e565b610279565b60405190151581526020015b60405180910390f35b610135610130366004610d01565b6102d1565b005b610135610145366004610d1e565b6103d9565b6040805180820182526015815274436f756e74727952657374726963744d6f64756c6560581b602082015290516101199190610d3b565b61013561018f366004610d8a565b6104cf565b6101356101a2366004610dff565b6106cd565b61010d6101b5366004610e40565b6001600160a01b038216600090815260016020908152604080832061ffff8516845290915290205460ff1692915050565b6101356101f4366004610e79565b6106fc565b610135610207366004610d1e565b61072f565b61010d61021a366004610d1e565b6001600160a01b031660009081526020819052604090205460ff1690565b610135610246366004610d01565b610862565b61010d610259366004610d1e565b50600190565b61013561026d366004610d8a565b610951565b600161010d565b6000806102868386610b4e565b6001600160a01b038416600090815260016020908152604080832061ffff8516845290915290205490915060ff16156102c35760009150506102c9565b60019150505b949350505050565b3360009081526020819052604090205460ff166103095760405162461bcd60e51b815260040161030090610ea5565b60405180910390fd5b33600090815260016020908152604080832061ffff8516845290915290205460ff16156103785760405162461bcd60e51b815260206004820152601a60248201527f636f756e74727920616c726561647920726573747269637465640000000000006044820152606401610300565b33600081815260016020818152604080842061ffff871680865290835293819020805460ff191690931790925590519182527f5e0addf626d7d7091ab7aebf34682c3203384648734760b24921e31ddcec0bb591015b60405180910390a250565b3360009081526020819052604090205460ff166104085760405162461bcd60e51b815260040161030090610ea5565b6001600160a01b03811661045e5760405162461bcd60e51b815260206004820152601f60248201527f696e76616c696420617267756d656e74202d207a65726f2061646472657373006044820152606401610300565b336001600160a01b038216146104865760405162461bcd60e51b815260040161030090610edc565b6001600160a01b038116600081815260208190526040808220805460ff19169055517f408b49d9be1c914c52a0227e18a077e5a892dddf32a26cfa94a5d9708fad77189190a250565b3360009081526020819052604090205460ff166104fe5760405162461bcd60e51b815260040161030090610ea5565b60c381106105635760405162461bcd60e51b815260206004820152602c60248201527f6d6178696d756d203139352063616e20626520756e726573747269637465642060448201526b0d2dc40dedcca40c4c2e8c6d60a31b6064820152608401610300565b60005b818110156106c8573360009081526001602052604081209084848481811061059057610590610f1d565b90506020020160208101906105a59190610d01565b61ffff16815260208101919091526040016000205460ff1615156001146106075760405162461bcd60e51b815260206004820152601660248201527518dbdd5b9d1c9e481b9bdd081c995cdd1c9a58dd195960521b6044820152606401610300565b3360009081526001602052604081208185858581811061062957610629610f1d565b905060200201602081019061063e9190610d01565b61ffff1681526020810191909152604001600020805460ff1916911515919091179055337ffb8bb575200aa114265a31c7d8ebeb4e395bd3cd9d0914c4bfa2a511d2011a7a84848481811061069557610695610f1d565b90506020020160208101906106aa9190610d01565b60405161ffff909116815260200160405180910390a2600101610566565b505050565b3360009081526020819052604090205460ff166106c85760405162461bcd60e51b815260040161030090610ea5565b3360009081526020819052604090205460ff1661072b5760405162461bcd60e51b815260040161030090610ea5565b5050565b6001600160a01b0381166107855760405162461bcd60e51b815260206004820152601f60248201527f696e76616c696420617267756d656e74202d207a65726f2061646472657373006044820152606401610300565b6001600160a01b03811660009081526020819052604090205460ff16156107ee5760405162461bcd60e51b815260206004820152601860248201527f636f6d706c69616e636520616c726561647920626f756e6400000000000000006044820152606401610300565b336001600160a01b038216146108165760405162461bcd60e51b815260040161030090610edc565b6001600160a01b038116600081815260208190526040808220805460ff19166001179055517f1f7b76c58fb697eb53c6c7c1becb96911516a136e24d7ced386b2355358b75a39190a250565b3360009081526020819052604090205460ff166108915760405162461bcd60e51b815260040161030090610ea5565b33600090815260016020818152604080842061ffff861685529091529091205460ff161515146108fc5760405162461bcd60e51b815260206004820152601660248201527518dbdd5b9d1c9e481b9bdd081c995cdd1c9a58dd195960521b6044820152606401610300565b33600081815260016020908152604080832061ffff861680855290835292819020805460ff19169055519182527ffb8bb575200aa114265a31c7d8ebeb4e395bd3cd9d0914c4bfa2a511d2011a7a91016103ce565b3360009081526020819052604090205460ff166109805760405162461bcd60e51b815260040161030090610ea5565b60c381106109e35760405162461bcd60e51b815260206004820152602a60248201527f6d6178696d756d203139352063616e206265207265737472696374656420696e604482015269040dedcca40c4c2e8c6d60b31b6064820152608401610300565b60005b818110156106c85733600090815260016020526040812090848484818110610a1057610a10610f1d565b9050602002016020810190610a259190610d01565b61ffff16815260208101919091526040016000205460ff1615610a8a5760405162461bcd60e51b815260206004820152601a60248201527f636f756e74727920616c726561647920726573747269637465640000000000006044820152606401610300565b33600090815260016020819052604082209091858585818110610aaf57610aaf610f1d565b9050602002016020810190610ac49190610d01565b61ffff1681526020810191909152604001600020805460ff1916911515919091179055337f5e0addf626d7d7091ab7aebf34682c3203384648734760b24921e31ddcec0bb5848484818110610b1b57610b1b610f1d565b9050602002016020810190610b309190610d01565b60405161ffff909116815260200160405180910390a26001016109e6565b6000826001600160a01b0316636a3edf286040518163ffffffff1660e01b8152600401602060405180830381865afa158015610b8e573d6000803e3d6000fd5b505050506040513d601f19601f82011682018060405250810190610bb29190610f33565b6001600160a01b031663134e18f46040518163ffffffff1660e01b8152600401602060405180830381865afa158015610bef573d6000803e3d6000fd5b505050506040513d601f19601f82011682018060405250810190610c139190610f33565b604051637e42683b60e01b81526001600160a01b0384811660048301529190911690637e42683b90602401602060405180830381865afa158015610c5b573d6000803e3d6000fd5b505050506040513d601f19601f82011682018060405250810190610c7f9190610f50565b9392505050565b6001600160a01b0381168114610c9b57600080fd5b50565b60008060008060808587031215610cb457600080fd5b8435610cbf81610c86565b93506020850135610ccf81610c86565b9250604085013591506060850135610ce681610c86565b939692955090935050565b61ffff81168114610c9b57600080fd5b600060208284031215610d1357600080fd5b8135610c7f81610cf1565b600060208284031215610d3057600080fd5b8135610c7f81610c86565b60006020808352835180602085015260005b81811015610d6957858101830151858201604001528201610d4d565b506000604082860101526040601f19601f8301168501019250505092915050565b60008060208385031215610d9d57600080fd5b823567ffffffffffffffff80821115610db557600080fd5b818501915085601f830112610dc957600080fd5b813581811115610dd857600080fd5b8660208260051b8501011115610ded57600080fd5b60209290920196919550909350505050565b600080600060608486031215610e1457600080fd5b8335610e1f81610c86565b92506020840135610e2f81610c86565b929592945050506040919091013590565b60008060408385031215610e5357600080fd5b8235610e5e81610c86565b91506020830135610e6e81610cf1565b809150509250929050565b60008060408385031215610e8c57600080fd5b8235610e9781610c86565b946020939093013593505050565b6020808252601e908201527f6f6e6c7920626f756e6420636f6d706c69616e63652063616e2063616c6c0000604082015260600190565b60208082526021908201527f6f6e6c7920636f6d706c69616e636520636f6e74726163742063616e2063616c6040820152601b60fa1b606082015260800190565b634e487b7160e01b600052603260045260246000fd5b600060208284031215610f4557600080fd5b8151610c7f81610c86565b600060208284031215610f6257600080fd5b8151610c7f81610cf156fea2646970667358221220e55a904fd0ffa13b942184590f30f1c66b6bc6fe2063179069af8dc16bf16c2a64736f6c63430008180033",
  "linkReferences": {},
  "deployedLinkReferences": {}
}