{
  "_format": "hh-sol-artifact-1",
  "contractName": "CountryWhitelistingTest",
  "sourceName": "contracts/erc3643/compliance/legacy/test/CountryWhitelistingTest.sol",
  "abi": [
    {
      "anonymous": false,
      "inputs": [
        {
          "indexed": true,
          "internalType": "address",
          "name": "_agent",
          "type": "address"
        }
      ],
      "name": "AgentAdded",
      "type": "event"
    },
    {
      "anonymous": false,
      "inputs": [
        {
          "indexed": true,
          "internalType": "address",
          "name": "_agent",
          "type": "address"
        }
      ],
      "name": "AgentRemoved",
      "type": "event"
    },
    {
      "anonymous": false,
      "inputs": [
        {
          "indexed": true,
          "internalType": "address",
          "name": "previousOwner",
          "type": "address"
        },
        {
          "indexed": true,
          "internalType": "address",
          "name": "newOwner",
          "type": "address"
        }
      ],
      "name": "OwnershipTransferred",
      "type": "event"
    },
    {
      "anonymous": false,
      "inputs": [
        {
          "indexed": false,
          "internalType": "address",
          "name": "_agentAddress",
          "type": "address"
        }
      ],
      "name": "TokenAgentAdded",
      "type": "event"
    },
    {
      "anonymous": false,
      "inputs": [
        {
          "indexed": false,
          "internalType": "address",
          "name": "_agentAddress",
          "type": "address"
        }
      ],
      "name": "TokenAgentRemoved",
      "type": "event"
    },
    {
      "anonymous": false,
      "inputs": [
        {
          "indexed": false,
          "internalType": "address",
          "name": "_token",
          "type": "address"
        }
      ],
      "name": "TokenBound",
      "type": "event"
    },
    {
      "anonymous": false,
      "inputs": [
        {
          "indexed": false,
          "internalType": "address",
          "name": "_token",
          "type": "address"
        }
      ],
      "name": "TokenUnbound",
      "type": "event"
    },
    {
      "anonymous": false,
      "inputs": [
        {
          "indexed": false,
          "internalType": "uint16",
          "name": "_country",
          "type": "uint16"
        }
      ],
      "name": "UnWhitelistedCountry",
      "type": "event"
    },
    {
      "anonymous": false,
      "inputs": [
        {
          "indexed": false,
          "internalType": "uint16",
          "name": "_country",
          "type": "uint16"
        }
      ],
      "name": "WhitelistedCountry",
      "type": "event"
    },
    {
      "inputs": [
        {
          "internalType": "address",
          "name": "_agent",
          "type": "address"
        }
      ],
      "name": "addAgent",
      "outputs": [],
      "stateMutability": "nonpayable",
      "type": "function"
    },
    {
      "inputs": [
        {
          "internalType": "address",
          "name": "_agentAddress",
          "type": "address"
        }
      ],
      "name": "addTokenAgent",
      "outputs": [],
      "stateMutability": "nonpayable",
      "type": "function"
    },
    {
      "inputs": [
        {
          "internalType": "uint16[]",
          "name": "_countries",
          "type": "uint16[]"
        }
      ],
      "name": "batchUnWhitelistCountries",
      "outputs": [],
      "stateMutability": "nonpayable",
      "type": "function"
    },
    {
      "inputs": [
        {
          "internalType": "uint16[]",
          "name": "_countries",
          "type": "uint16[]"
        }
      ],
      "name": "batchWhitelistCountries",
      "outputs": [],
      "stateMutability": "nonpayable",
      "type": "function"
    },
    {
      "inputs": [
        {
          "internalType": "address",
          "name": "_token",
          "type": "address"
        }
      ],
      "name": "bindToken",
      "outputs": [],
      "stateMutability": "nonpayable",
      "type": "function"
    },
    {
      "inputs": [
        {
          "internalType": "address",
          "name": "_from",
          "type": "address"
        },
        {
          "internalType": "address",
          "name": "_to",
          "type": "address"
        },
        {
          "internalType": "uint256",
          "name": "_value",
          "type": "uint256"
        }
      ],
      "name": "canTransfer",
      "outputs": [
        {
          "internalType": "bool",
          "name": "",
          "type": "bool"
        }
      ],
      "stateMutability": "view",
      "type": "function"
    },
    {
      "inputs": [
        {
          "internalType": "address",
          "name": "",
          "type": "address"
        },
        {
          "internalType": "address",
          "name": "_to",
          "type": "address"
        },
        {
          "internalType": "uint256",
          "name": "",
          "type": "uint256"
        }
      ],
      "name": "complianceCheckOnCountryWhitelisting",
      "outputs": [
        {
          "internalType": "bool",
          "name": "",
          "type": "bool"
        }
      ],
      "stateMutability": "view",
      "type": "function"
    },
    {
      "inputs": [
        {
          "internalType": "address",
          "name": "_to",
          "type": "address"
        },
        {
          "internalType": "uint256",
          "name": "_value",
          "type": "uint256"
        }
      ],
      "name": "created",
      "outputs": [],
      "stateMutability": "nonpayable",
      "type": "function"
    },
    {
      "inputs": [
        {
          "internalType": "address",
          "name": "_from",
          "type": "address"
        },
        {
          "internalType": "uint256",
          "name": "_value",
          "type": "uint256"
        }
      ],
      "name": "destroyed",
      "outputs": [],
      "stateMutability": "nonpayable",
      "type": "function"
    },
    {
      "inputs": [
        {
          "internalType": "address",
          "name": "_agent",
          "type": "address"
        }
      ],
      "name": "isAgent",
      "outputs": [
        {
          "internalType": "bool",
          "name": "",
          "type": "bool"
        }
      ],
      "stateMutability": "view",
      "type": "function"
    },
    {
      "inputs": [
        {
          "internalType": "uint16",
          "name": "_country",
          "type": "uint16"
        }
      ],
      "name": "isCountryWhitelisted",
      "outputs": [
        {
          "internalType": "bool",
          "name": "",
          "type": "bool"
        }
      ],
      "stateMutability": "view",
      "type": "function"
    },
    {
      "inputs": [
        {
          "internalType": "address",
          "name": "_agentAddress",
          "type": "address"
        }
      ],
      "name": "isTokenAgent",
      "outputs": [
        {
          "internalType": "bool",
          "name": "",
          "type": "bool"
        }
      ],
      "stateMutability": "view",
      "type": "function"
    },
    {
      "inputs": [
        {
          "internalType": "address",
          "name": "_token",
          "type": "address"
        }
      ],
      "name": "isTokenBound",
      "outputs": [
        {
          "internalType": "bool",
          "name": "",
          "type": "bool"
        }
      ],
      "stateMutability": "view",
      "type": "function"
    },
    {
      "inputs": [],
      "name": "owner",
      "outputs": [
        {
          "internalType": "address",
          "name": "",
          "type": "address"
        }
      ],
      "stateMutability": "view",
      "type": "function"
    },
    {
      "inputs": [
        {
          "internalType": "address",
          "name": "_agent",
          "type": "address"
        }
      ],
      "name": "removeAgent",
      "outputs": [],
      "stateMutability": "nonpayable",
      "type": "function"
    },
    {
      "inputs": [
        {
          "internalType": "address",
          "name": "_agentAddress",
          "type": "address"
        }
      ],
      "name": "removeTokenAgent",
      "outputs": [],
      "stateMutability": "nonpayable",
      "type": "function"
    },
    {
      "inputs": [],
      "name": "renounceOwnership",
      "outputs": [],
      "stateMutability": "nonpayable",
      "type": "function"
    },
    {
      "inputs": [],
      "name": "tokenBound",
      "outputs": [
        {
          "internalType": "contract IToken",
          "name": "",
          "type": "address"
        }
      ],
      "stateMutability": "view",
      "type": "function"
    },
    {
      "inputs": [
        {
          "internalType": "address",
          "name": "newOwner",
          "type": "address"
        }
      ],
      "name": "transferOwnership",
      "outputs": [],
      "stateMutability": "nonpayable",
      "type": "function"
    },
    {
      "inputs": [
        {
          "internalType": "address",
          "name": "_from",
          "type": "address"
        },
        {
          "internalType": "address",
          "name": "_to",
          "type": "address"
        },
        {
          "internalType": "uint256",
          "name": "_value",
          "type": "uint256"
        }
      ],
      "name": "transferred",
      "outputs": [],
      "stateMutability": "nonpayable",
      "type": "function"
    },
    {
      "inputs": [
        {
          "internalType": "uint16",
          "name": "_country",
          "type": "uint16"
        }
      ],
      "name": "unWhitelistCountry",
      "outputs": [],
      "stateMutability": "nonpayable",
      "type": "function"
    },
    {
      "inputs": [
        {
          "internalType": "address",
          "name": "_token",
          "type": "address"
        }
      ],
      "name": "unbindToken",
      "outputs": [],
      "stateMutability": "nonpayable",
      "type": "function"
    },
    {
      "inputs": [
        {
          "internalType": "uint16",
          "name": "_country",
          "type": "uint16"
        }
      ],
      "name": "whitelistCountry",
      "outputs": [],
      "stateMutability": "nonpayable",
      "type": "function"
    }
  ],
  "bytecode": "0x608060405234801561001057600080fd5b5061001a3361001f565b61006f565b600080546001600160a01b038381166001600160a01b0319831681178455604051919092169283917f8be0079c531659141344cd1fd0a4f28419497f9722a3daafe3b4186f6b6457e09190a35050565b6111d88061007e6000396000f3fe608060405234801561001057600080fd5b506004361061014d5760003560e01c80638da5cb5b116100c3578063aee250af1161007c578063aee250af146102b4578063cdde2932146102c7578063e46638e6146102da578063f2fde38b146102ed578063f393cbc214610300578063ff3e69541461031357600080fd5b80638da5cb5b1461021c57806393e62f071461024157806397a6278e1461025457806397eab82b14610267578063993e8b951461028e578063a1b01b4f146102a157600080fd5b806340db3b501161011557806340db3b50146101c85780635f8dead3146101db578063715018a6146101ee57806384e79842146101f65780638baf29b4146102095780638d2ea772146101db57600080fd5b806307e8e344146101525780631ffbb06414610167578063346531fa1461018f5780633b0b83c0146101a25780633ff5aa02146101b5575b600080fd5b610165610160366004610f45565b610326565b005b61017a61017536600461101f565b610360565b60405190151581526020015b60405180910390f35b61017a61019d36600461101f565b610373565b61017a6101b036600461103c565b61041c565b6101656101c336600461101f565b610463565b6101656101d636600461101f565b61054d565b6101656101e936600461107d565b61066f565b610165610693565b61016561020436600461101f565b6106a7565b61016561021736600461103c565b610747565b6000546001600160a01b03165b6040516001600160a01b039091168152602001610186565b600354610229906001600160a01b031681565b61016561026236600461101f565b610770565b61017a6102753660046110a9565b61ffff1660009081526004602052604090205460ff1690565b61017a61029c36600461101f565b610810565b6101656102af3660046110a9565b610830565b6101656102c2366004610f45565b6108e7565b6101656102d536600461101f565b61091d565b61017a6102e836600461103c565b6109de565b6101656102fb36600461101f565b610a01565b61016561030e3660046110a9565b610a7a565b61016561032136600461101f565b610b35565b60005b815181101561035c57610354828281518110610347576103476110c6565b6020026020010151610830565b600101610329565b5050565b600061036d600183610bfa565b92915050565b6001600160a01b03811660009081526002602052604081205460ff1615801561040757506003546040516307feec1960e21b81526001600160a01b03848116600483015290911690631ffbb06490602401602060405180830381865afa1580156103e1573d6000803e3d6000fd5b505050506040513d601f19601f8201168201806040525081019061040591906110dc565b155b1561041457506000919050565b506001919050565b60008061042884610c7d565b90506104478161ffff1660009081526004602052604090205460ff1690565b1561045657600191505061045c565b60009150505b9392505050565b336104766000546001600160a01b031690565b6001600160a01b031614806104a757506003546001600160a01b03161580156104a75750336001600160a01b038216145b6104f85760405162461bcd60e51b815260206004820152601c60248201527f6f6e6c79206f776e6572206f7220746f6b656e2063616e2063616c6c0000000060448201526064015b60405180910390fd5b600380546001600160a01b0319166001600160a01b0383169081179091556040519081527f2de35142b19ed5a07796cf30791959c592018f70b1d2d7c460eef8ffe713692b906020015b60405180910390a150565b336105606000546001600160a01b031690565b6001600160a01b0316148061057d5750336001600160a01b038216145b6105c95760405162461bcd60e51b815260206004820152601c60248201527f6f6e6c79206f776e6572206f7220746f6b656e2063616e2063616c6c0000000060448201526064016104ef565b6003546001600160a01b038281169116146106265760405162461bcd60e51b815260206004820152601760248201527f5468697320746f6b656e206973206e6f7420626f756e6400000000000000000060448201526064016104ef565b600380546001600160a01b03191690556040516001600160a01b03821681527f28a4ca7134a3b3f9aff286e79ad3daadb4a06d1b43d037a3a98bdc074edd9b7a90602001610542565b610677610d57565b61035c5760405162461bcd60e51b81526004016104ef906110fe565b61069b610d67565b6106a56000610dc1565b565b6106af610d67565b6001600160a01b0381166107055760405162461bcd60e51b815260206004820152601f60248201527f696e76616c696420617267756d656e74202d207a65726f20616464726573730060448201526064016104ef565b610710600182610e11565b6040516001600160a01b038216907ff68e73cec97f2d70aa641fb26e87a4383686e2efacb648f2165aeb02ac562ec590600090a250565b61074f610d57565b61076b5760405162461bcd60e51b81526004016104ef906110fe565b505050565b610778610d67565b6001600160a01b0381166107ce5760405162461bcd60e51b815260206004820152601f60248201527f696e76616c696420617267756d656e74202d207a65726f20616464726573730060448201526064016104ef565b6107d9600182610e8d565b6040516001600160a01b038216907fed9c8ad8d5a0a66898ea49d2956929c93ae2e8bd50281b2ed897c5d1a6737e0b90600090a250565b6003546000906001600160a01b0383811691161461041457506000919050565b610838610d67565b61ffff811660009081526004602052604090205460ff1661089b5760405162461bcd60e51b815260206004820152601760248201527f636f756e747279206e6f742077686974656c697374656400000000000000000060448201526064016104ef565b61ffff8116600081815260046020908152604091829020805460ff1916905590519182527f77bf94f96c0e8d724e02e1c5c7a219b0b078de66c992608a55e755a6384d1ee39101610542565b60005b815181101561035c57610915828281518110610908576109086110c6565b6020026020010151610a7a565b6001016108ea565b610925610d67565b6001600160a01b03811660009081526002602052604090205460ff1661098d5760405162461bcd60e51b815260206004820181905260248201527f54686973204167656e74206973206e6f7420726567697374657265642079657460448201526064016104ef565b6001600160a01b038116600081815260026020908152604091829020805460ff1916905590519182527f6a659bb87bb23efbdc295f8eed8ae8c4379bfb77660ced2ef0f3d7d26b05c6a69101610542565b60006109eb84848461041c565b6109f75750600061045c565b5060019392505050565b610a09610d67565b6001600160a01b038116610a6e5760405162461bcd60e51b815260206004820152602660248201527f4f776e61626c653a206e6577206f776e657220697320746865207a65726f206160448201526564647265737360d01b60648201526084016104ef565b610a7781610dc1565b50565b610a82610d67565b61ffff811660009081526004602052604090205460ff1615610ae65760405162461bcd60e51b815260206004820152601b60248201527f636f756e74727920616c72656164792077686974656c6973746564000000000060448201526064016104ef565b61ffff8116600081815260046020908152604091829020805460ff1916600117905590519182527fd20535bfd780673cc88887ad4af967343e4e8e088062aa936fea2de79d10de289101610542565b610b3d610d67565b6001600160a01b03811660009081526002602052604090205460ff1615610ba65760405162461bcd60e51b815260206004820181905260248201527f54686973204167656e7420697320616c7265616479207265676973746572656460448201526064016104ef565b6001600160a01b038116600081815260026020908152604091829020805460ff1916600117905590519182527fd62c45e13ac30396aceb3ad37c89bd1ba9048032fe61679000e92eb93dbfd67d9101610542565b60006001600160a01b038216610c5d5760405162461bcd60e51b815260206004820152602260248201527f526f6c65733a206163636f756e7420697320746865207a65726f206164647265604482015261737360f01b60648201526084016104ef565b506001600160a01b03166000908152602091909152604090205460ff1690565b600354604080516304d3863d60e21b815290516000926001600160a01b03169163134e18f49160048083019260209291908290030181865afa158015610cc7573d6000803e3d6000fd5b505050506040513d601f19601f82011682018060405250810190610ceb9190611168565b604051637e42683b60e01b81526001600160a01b0384811660048301529190911690637e42683b90602401602060405180830381865afa158015610d33573d6000803e3d6000fd5b505050506040513d601f19601f8201168201806040525081019061036d9190611185565b6000610d6233610810565b905090565b6000546001600160a01b031633146106a55760405162461bcd60e51b815260206004820181905260248201527f4f776e61626c653a2063616c6c6572206973206e6f7420746865206f776e657260448201526064016104ef565b600080546001600160a01b038381166001600160a01b0319831681178455604051919092169283917f8be0079c531659141344cd1fd0a4f28419497f9722a3daafe3b4186f6b6457e09190a35050565b610e1b8282610bfa565b15610e685760405162461bcd60e51b815260206004820152601f60248201527f526f6c65733a206163636f756e7420616c72656164792068617320726f6c650060448201526064016104ef565b6001600160a01b0316600090815260209190915260409020805460ff19166001179055565b610e978282610bfa565b610eed5760405162461bcd60e51b815260206004820152602160248201527f526f6c65733a206163636f756e7420646f6573206e6f74206861766520726f6c6044820152606560f81b60648201526084016104ef565b6001600160a01b0316600090815260209190915260409020805460ff19169055565b634e487b7160e01b600052604160045260246000fd5b61ffff81168114610a7757600080fd5b8035610f4081610f25565b919050565b60006020808385031215610f5857600080fd5b823567ffffffffffffffff80821115610f7057600080fd5b818501915085601f830112610f8457600080fd5b813581811115610f9657610f96610f0f565b8060051b604051601f19603f83011681018181108582111715610fbb57610fbb610f0f565b604052918252848201925083810185019188831115610fd957600080fd5b938501935b82851015610ffe57610fef85610f35565b84529385019392850192610fde565b98975050505050505050565b6001600160a01b0381168114610a7757600080fd5b60006020828403121561103157600080fd5b813561045c8161100a565b60008060006060848603121561105157600080fd5b833561105c8161100a565b9250602084013561106c8161100a565b929592945050506040919091013590565b6000806040838503121561109057600080fd5b823561109b8161100a565b946020939093013593505050565b6000602082840312156110bb57600080fd5b813561045c81610f25565b634e487b7160e01b600052603260045260246000fd5b6000602082840312156110ee57600080fd5b8151801515811461045c57600080fd5b60208082526044908201527f6572726f72203a20746869732061646472657373206973206e6f74206120746f60408201527f6b656e20626f756e6420746f2074686520636f6d706c69616e636520636f6e746060820152631c9858dd60e21b608082015260a00190565b60006020828403121561117a57600080fd5b815161045c8161100a565b60006020828403121561119757600080fd5b815161045c81610f2556fea264697066735822122037face0e57b4e52f44ed08e08dcba47282838876c300075633e7e28570e4c37364736f6c63430008180033",
  "linkReferences": {},
  "deployedLinkReferences": {}
}