{
  "_format": "hh-sol-artifact-1",
  "contractName": "ExchangeHTS",
  "sourceName": "contracts/orderbook/hts/ExchangeHTS.sol",
  "abi": [
    {
      "inputs": [
        {
          "internalType": "address",
          "name": "_tokenA",
          "type": "address"
        },
        {
          "internalType": "address",
          "name": "_tokenB",
          "type": "address"
        }
      ],
      "stateMutability": "nonpayable",
      "type": "constructor"
    },
    {
      "inputs": [],
      "name": "ReentrancyGuardReentrantCall",
      "type": "error"
    },
    {
      "anonymous": false,
      "inputs": [
        {
          "indexed": true,
          "internalType": "address",
          "name": "trader",
          "type": "address"
        },
        {
          "indexed": false,
          "internalType": "address",
          "name": "token",
          "type": "address"
        },
        {
          "indexed": false,
          "internalType": "int64",
          "name": "amount",
          "type": "int64"
        }
      ],
      "name": "Deposit",
      "type": "event"
    },
    {
      "anonymous": false,
      "inputs": [
        {
          "indexed": false,
          "internalType": "bool",
          "name": "isBuy",
          "type": "bool"
        },
        {
          "indexed": false,
          "internalType": "uint256",
          "name": "orderId",
          "type": "uint256"
        },
        {
          "indexed": false,
          "internalType": "address",
          "name": "trader",
          "type": "address"
        },
        {
          "indexed": false,
          "internalType": "int64",
          "name": "price",
          "type": "int64"
        },
        {
          "indexed": false,
          "internalType": "int64",
          "name": "volume",
          "type": "int64"
        }
      ],
      "name": "NewOrder",
      "type": "event"
    },
    {
      "anonymous": false,
      "inputs": [
        {
          "indexed": false,
          "internalType": "bool",
          "name": "isBuy",
          "type": "bool"
        },
        {
          "indexed": true,
          "internalType": "uint256",
          "name": "orderId",
          "type": "uint256"
        },
        {
          "indexed": true,
          "internalType": "address",
          "name": "trader",
          "type": "address"
        }
      ],
      "name": "OrderCanceled",
      "type": "event"
    },
    {
      "anonymous": false,
      "inputs": [
        {
          "indexed": false,
          "internalType": "int64",
          "name": "tradedVolume",
          "type": "int64"
        },
        {
          "indexed": false,
          "internalType": "int64",
          "name": "price",
          "type": "int64"
        },
        {
          "indexed": false,
          "internalType": "address",
          "name": "buyer",
          "type": "address"
        },
        {
          "indexed": false,
          "internalType": "address",
          "name": "seller",
          "type": "address"
        }
      ],
      "name": "Trade",
      "type": "event"
    },
    {
      "anonymous": false,
      "inputs": [
        {
          "indexed": false,
          "internalType": "address",
          "name": "trader",
          "type": "address"
        },
        {
          "indexed": false,
          "internalType": "address",
          "name": "token",
          "type": "address"
        },
        {
          "indexed": false,
          "internalType": "int64",
          "name": "amount",
          "type": "int64"
        }
      ],
      "name": "Withdraw",
      "type": "event"
    },
    {
      "inputs": [
        {
          "internalType": "address",
          "name": "",
          "type": "address"
        },
        {
          "internalType": "address",
          "name": "",
          "type": "address"
        }
      ],
      "name": "balanceOf",
      "outputs": [
        {
          "internalType": "int64",
          "name": "",
          "type": "int64"
        }
      ],
      "stateMutability": "view",
      "type": "function"
    },
    {
      "inputs": [
        {
          "internalType": "uint256",
          "name": "",
          "type": "uint256"
        }
      ],
      "name": "buyOrders",
      "outputs": [
        {
          "internalType": "uint256",
          "name": "id",
          "type": "uint256"
        },
        {
          "internalType": "int64",
          "name": "price",
          "type": "int64"
        },
        {
          "internalType": "int64",
          "name": "volume",
          "type": "int64"
        },
        {
          "internalType": "address",
          "name": "trader",
          "type": "address"
        },
        {
          "internalType": "uint256",
          "name": "next",
          "type": "uint256"
        }
      ],
      "stateMutability": "view",
      "type": "function"
    },
    {
      "inputs": [
        {
          "internalType": "uint256",
          "name": "orderId",
          "type": "uint256"
        },
        {
          "internalType": "bool",
          "name": "isBuyOrder",
          "type": "bool"
        }
      ],
      "name": "cancelOrder",
      "outputs": [],
      "stateMutability": "nonpayable",
      "type": "function"
    },
    {
      "inputs": [],
      "name": "currentOrderId",
      "outputs": [
        {
          "internalType": "uint256",
          "name": "",
          "type": "uint256"
        }
      ],
      "stateMutability": "view",
      "type": "function"
    },
    {
      "inputs": [
        {
          "internalType": "address",
          "name": "token",
          "type": "address"
        },
        {
          "internalType": "int64",
          "name": "amount",
          "type": "int64"
        }
      ],
      "name": "deposit",
      "outputs": [],
      "stateMutability": "nonpayable",
      "type": "function"
    },
    {
      "inputs": [],
      "name": "firstBuyOrderId",
      "outputs": [
        {
          "internalType": "uint256",
          "name": "",
          "type": "uint256"
        }
      ],
      "stateMutability": "view",
      "type": "function"
    },
    {
      "inputs": [],
      "name": "firstSellOrderId",
      "outputs": [
        {
          "internalType": "uint256",
          "name": "",
          "type": "uint256"
        }
      ],
      "stateMutability": "view",
      "type": "function"
    },
    {
      "inputs": [
        {
          "internalType": "int64",
          "name": "price",
          "type": "int64"
        },
        {
          "internalType": "int64",
          "name": "volume",
          "type": "int64"
        }
      ],
      "name": "placeBuyOrder",
      "outputs": [
        {
          "internalType": "uint256",
          "name": "",
          "type": "uint256"
        }
      ],
      "stateMutability": "nonpayable",
      "type": "function"
    },
    {
      "inputs": [
        {
          "internalType": "int64",
          "name": "price",
          "type": "int64"
        },
        {
          "internalType": "int64",
          "name": "volume",
          "type": "int64"
        }
      ],
      "name": "placeSellOrder",
      "outputs": [
        {
          "internalType": "uint256",
          "name": "",
          "type": "uint256"
        }
      ],
      "stateMutability": "nonpayable",
      "type": "function"
    },
    {
      "inputs": [
        {
          "internalType": "uint256",
          "name": "",
          "type": "uint256"
        }
      ],
      "name": "sellOrders",
      "outputs": [
        {
          "internalType": "uint256",
          "name": "id",
          "type": "uint256"
        },
        {
          "internalType": "int64",
          "name": "price",
          "type": "int64"
        },
        {
          "internalType": "int64",
          "name": "volume",
          "type": "int64"
        },
        {
          "internalType": "address",
          "name": "trader",
          "type": "address"
        },
        {
          "internalType": "uint256",
          "name": "next",
          "type": "uint256"
        }
      ],
      "stateMutability": "view",
      "type": "function"
    },
    {
      "inputs": [],
      "name": "tokenA",
      "outputs": [
        {
          "internalType": "address",
          "name": "",
          "type": "address"
        }
      ],
      "stateMutability": "view",
      "type": "function"
    },
    {
      "inputs": [],
      "name": "tokenB",
      "outputs": [
        {
          "internalType": "address",
          "name": "",
          "type": "address"
        }
      ],
      "stateMutability": "view",
      "type": "function"
    },
    {
      "inputs": [
        {
          "internalType": "address",
          "name": "token",
          "type": "address"
        },
        {
          "internalType": "int64",
          "name": "amount",
          "type": "int64"
        }
      ],
      "name": "withdraw",
      "outputs": [],
      "stateMutability": "nonpayable",
      "type": "function"
    }
  ],
  "bytecode": "0x60806040523480156200001157600080fd5b5060405162001d3638038062001d368339810160408190526200003491620001e1565b60016008819055600080546001600160a01b038086166001600160a01b03199283168117909355835490851691161790915562000072903062000092565b6001546200008a906001600160a01b03163062000092565b505062000276565b604080516001600160a01b038381166024830152841660448083019190915282518083039091018152606490910182526020810180516001600160e01b031663248a35ef60e11b17905290516000918291829161016791620000f5919062000219565b6000604051808303816000865af19150503d806000811462000134576040519150601f19603f3d011682016040523d82523d6000602084013e62000139565b606091505b5091509150816200014c57601562000162565b808060200190518101906200016291906200024a565b9250600383900b601614620001bd5760405162461bcd60e51b815260206004820152601f60248201527f536166652073696e676c65206173736f63696174696f6e206661696c65642100604482015260640160405180910390fd5b5050505050565b80516001600160a01b0381168114620001dc57600080fd5b919050565b60008060408385031215620001f557600080fd5b6200020083620001c4565b91506200021060208401620001c4565b90509250929050565b6000825160005b818110156200023c576020818601810151858301520162000220565b506000920191825250919050565b6000602082840312156200025d57600080fd5b81518060030b81146200026f57600080fd5b9392505050565b611ab080620002866000396000f3fe608060405234801561001057600080fd5b50600436106100cf5760003560e01c806372fb07771161008c578063bb110bf911610066578063bb110bf91461024d578063dd5813ee14610256578063f7888aec14610269578063f88d2047146102aa57600080fd5b806372fb077714610226578063925931fc1461022f57806392c029911461023857600080fd5b806303c4c2e1146100d45780630fc63d10146100fa5780632ec2add71461012557806335cea288146101385780634a8393f3146101c15780635f64b55b14610213575b600080fd5b6100e76100e2366004611816565b6102bd565b6040519081526020015b60405180910390f35b60005461010d906001600160a01b031681565b6040516001600160a01b0390911681526020016100f1565b6100e7610133366004611816565b6103ec565b61018a610146366004611849565b600260208190526000918252604090912080546001820154928201546003909201549092600781810b93600160401b909204900b916001600160a01b039091169085565b60408051958652600794850b60208701529290930b918401919091526001600160a01b03166060830152608082015260a0016100f1565b61018a6101cf366004611849565b600360208190526000918252604090912080546001820154600283015492909301549092600781810b93600160401b909204900b916001600160a01b039091169085565b60015461010d906001600160a01b031681565b6100e760065481565b6100e760075481565b61024b610246366004611879565b6104fd565b005b6100e760055481565b61024b610264366004611879565b610611565b610297610277366004611895565b600460209081526000928352604080842090915290825290205460070b81565b60405160079190910b81526020016100f1565b61024b6102b83660046118bf565b6106cd565b60006102c7610856565b60008360070b1361030f5760405162461bcd60e51b815260206004820152600d60248201526c496e76616c696420507269636560981b60448201526064015b60405180910390fd5b60008260070b136103535760405162461bcd60e51b815260206004820152600e60248201526d496e76616c696420566f6c756d6560901b6044820152606401610306565b6103616305f5e1008361190a565b61036b9084611957565b3360009081526004602090815260408083206001546001600160a01b03168452909152902054600791820b910b12156103b65760405162461bcd60e51b81526004016103069061197e565b60006103c3338585610880565b905060008160070b13156103dc576103dc338583610b83565b5050600160085560005b92915050565b60006103f6610856565b60008360070b136104395760405162461bcd60e51b815260206004820152600d60248201526c496e76616c696420507269636560981b6044820152606401610306565b60008260070b1361047d5760405162461bcd60e51b815260206004820152600e60248201526d496e76616c696420566f6c756d6560901b6044820152606401610306565b33600090815260046020908152604080832083546001600160a01b03168452909152902054600783810b91900b12156104c85760405162461bcd60e51b81526004016103069061197e565b60006104d5338585610d94565b905060008160070b13156104ee576104ee338583611071565b50506007546103e66001600855565b610505610856565b6000546001600160a01b038381169116148061052e57506001546001600160a01b038381169116145b61056a5760405162461bcd60e51b815260206004820152600d60248201526c24b73b30b634b2103a37b5b2b760991b6044820152606401610306565b60008160070b136105ae5760405162461bcd60e51b815260206004820152600e60248201526d125b9d985b1a5908185b5bdd5b9d60921b6044820152606401610306565b3360009081526004602090815260408083206001600160a01b0386168452909152902054600782810b91900b12156105f85760405162461bcd60e51b81526004016103069061197e565b610603338383611257565b61060d6001600855565b5050565b610619610856565b6000546001600160a01b038381169116148061064257506001546001600160a01b038381169116145b61067e5760405162461bcd60e51b815260206004820152600d60248201526c24b73b30b634b2103a37b5b2b760991b6044820152606401610306565b60008160070b136106c25760405162461bcd60e51b815260206004820152600e60248201526d125b9d985b1a5908185b5bdd5b9d60921b6044820152606401610306565b610603338383611316565b6106d5610856565b6000816106ef5760008381526003602052604090206106fe565b60008381526002602052604090205b60028101549091506001600160a01b03166107525760405162461bcd60e51b815260206004820152601460248201527313dc99195c88191bd95cc81b9bdd08195e1a5cdd60621b6044820152606401610306565b60028101546001600160a01b031633146107c35760405162461bcd60e51b815260206004820152602c60248201527f4f6e6c7920746865206f726465722063726561746f722063616e2063616e636560448201526b36103a3434b99037b93232b960a11b6064820152608401610306565b60018101546000600160401b90910460070b1361082e5760405162461bcd60e51b8152602060048201526024808201527f4f7264657220616c72656164792063616e63656c6c6564206f722066756c66696044820152631b1b195960e21b6064820152608401610306565b81156108425761083d816113e2565b61084b565b61084b81611565565b5061060d6001600855565b60026008540361087957604051633ee5aeb560e01b815260040160405180910390fd5b6002600855565b6006546000905b8015801590610899575060008360070b135b15610b795760008181526003602052604090206001810154600790810b9086900b12610b6d576001810154600090600786810b600160401b909204900b126108e157846108f1565b6001820154600160401b900460070b5b600183015490915060070b61090a6305f5e1008361190a565b6109149082611957565b6001600160a01b03808a1660009081526004602090815260408083206001549094168352929052908120805490919061095190849060070b6119aa565b82546001600160401b039182166101009390930a9283029190920219909116179055506001600160a01b0380891660009081526004602090815260408083208354909416835292905290812080548492906109b090849060070b6119d9565b92506101000a8154816001600160401b03021916908360070b6001600160401b031602179055506305f5e100826109e7919061190a565b6109f19082611957565b60028401546001600160a01b03908116600090815260046020908152604080832060015490941683529290529081208054909190610a3390849060070b6119d9565b92506101000a8154816001600160401b03021916908360070b6001600160401b031602179055508186610a6691906119aa565b6001840180549197508391600890610a89908490600160401b900460070b6119aa565b82546101009290920a6001600160401b03818102199093169190921691909102179055506001830154600284015460408051600786810b82529390930b60208401526001600160a01b038b8116848301529091166060830152517f3811c688c91a2195acbf84f4d5e7adc8d2f17ba048f1051955046e511411fd7d9181900360800190a16001830154600160401b900460070b600003610b665760038084015460009586526020829052604086208681556001810180546001600160801b03191690556002810180546001600160a01b0319169055909101949094555b5050610b73565b50610b79565b50610887565b6006555092915050565b60078054906000610b9383611a08565b909155505060055460005b8115801590610bc45750600082815260026020526040902060010154600785810b91900b135b15610be2575060008181526002602052604090206003015490610b9e565b6040805160a0810182526007805480835287820b60208085019182529288900b8486019081526001600160a01b03808c1660608701908152608087018a815260009586526002968790529790942095518655915160018601805492516001600160401b03908116600160401b026001600160801b031990941692169190911791909117905590519183018054929091166001600160a01b03199092169190911790559051600390910155610c9a6305f5e1008461190a565b610ca49085611957565b6001600160a01b03808716600090815260046020908152604080832060015490941683529290529081208054909190610ce190849060070b6119aa565b82546001600160401b039182166101009390930a92830291909202199091161790555060078054604080516001815260208101929092526001600160a01b0388169082015285820b60608201529084900b60808201527fddca83c332d5b33951e90d550eefc003b7a1efae1cdf8c4d684d4ccdf2cd8d599060a00160405180910390a180600003610d7757600754600555610d8d565b6007546000828152600260205260409020600301555b5050505050565b6005546000905b8015801590610dad575060008360070b135b156110675760008181526002602052604090206001810154600790810b9086900b1361105b576001810154600090600786810b600160401b909204900b12610df55784610e05565b6001820154600160401b900460070b5b905085610e166305f5e1008361190a565b610e209082611957565b6001600160a01b03808a16600090815260046020908152604080832060015490941683529290529081208054909190610e5d90849060070b6119d9565b82546001600160401b039182166101009390930a9283029190920219909116179055506001600160a01b038089166000908152600460209081526040808320835490941683529290529081208054849290610ebc90849060070b6119aa565b82546001600160401b039182166101009390930a92830291909202199091161790555060028301546001600160a01b039081166000908152600460209081526040808320835490941683529290529081208054849290610f2090849060070b6119d9565b92506101000a8154816001600160401b03021916908360070b6001600160401b031602179055508186610f5391906119aa565b6001840180549197508391600890610f76908490600160401b900460070b6119aa565b82546101009290920a6001600160401b03818102199093169190921691909102179055506001830154600284015460408051600786810b82529390930b60208401526001600160a01b038b8116848301529091166060830152517f3811c688c91a2195acbf84f4d5e7adc8d2f17ba048f1051955046e511411fd7d9181900360800190a16001830154600160401b900460070b60000361105457600380840154600095865260026020819052604087208781556001810180546001600160801b031916905590810180546001600160a01b0319169055909101949094555b5050611061565b50611067565b50610d9b565b6005555092915050565b6007805490600061108183611a08565b909155505060065460005b81158015906110b25750600082815260036020526040902060010154600785810b91900b125b156110d15750600081815260036020819052604090912001549061108c565b6040805160a0810182526007805480835287820b602080850191825288840b8587019081526001600160a01b03808d1660608801818152608089018c8152600097885260038087528b89209a518b55965160018b01805496516001600160401b03908116600160401b026001600160801b031990981692169190911795909517909455516002890180549184166001600160a01b0319909216919091179055915196909301959095559382526004845284822082549091168252909252918120805486939192916111a49185910b6119aa565b82546001600160401b039182166101009390930a92830291909202199091161790555060078054604080516000815260208101929092526001600160a01b0388169082015285820b60608201529084900b60808201527fddca83c332d5b33951e90d550eefc003b7a1efae1cdf8c4d684d4ccdf2cd8d599060a00160405180910390a18060000361123a57600754600655610d8d565b600754600082815260036020819052604090912001555050505050565b6001600160a01b0380841660009081526004602090815260408083209386168352929052908120805483929061129190849060070b6119aa565b92506101000a8154816001600160401b03021916908360070b6001600160401b031602179055506112c4823085846116c6565b604080516001600160a01b03858116825284166020820152600783900b8183015290517fd09be44e70d8a46d3b3b8da9701595dcaec29d75930065918923c7d9fd73eb589181900360600190a1505050565b611322828430846116c6565b6001600160a01b0380841660009081526004602090815260408083209386168352929052908120805483929061135c90849060070b6119d9565b92506101000a8154816001600160401b03021916908360070b6001600160401b03160217905550826001600160a01b03167f64e3b56a34ae45fe7d1f33e3d3da391a671e6043606ac9c811a6c1243023841d83836040516113d59291906001600160a01b0392909216825260070b602082015260400190565b60405180910390a2505050565b6005548154036113f957600381015460055561147e565b60055460009081526002602052604090205b815460038201541461147457806003015460000361145d5760405162461bcd60e51b815260206004820152600f60248201526e13dc99195c881b9bdd08199bdd5b99608a1b6044820152606401610306565b60030154600090815260026020526040902061140b565b6003808301549101555b600181015461149c906305f5e10090600160401b900460070b61190a565b60018201546114ae919060070b611957565b60028201546001600160a01b039081166000908152600460209081526040808320600154909416835292905290812080549091906114f090849060070b6119d9565b82546001600160401b039182166101009390930a9283029190920219909116179055506001818101805467ffffffffffffffff60401b19169055815460405191825233917fcfa919375acf04933787aa7f7b25d71adf2e92839529dad777b47ff2cd0827a4906020015b60405180910390a350565b60065481540361157c576003810154600655611604565b60065460009081526003602052604090205b81546003820154146115fa5780600301546000036115e05760405162461bcd60e51b815260206004820152600f60248201526e13dc99195c881b9bdd08199bdd5b99608a1b6044820152606401610306565b60039081015460009081526020919091526040902061158e565b6003808301549101555b600181015460028201546001600160a01b039081166000908152600460209081526040808320835490941683529290529081208054600160401b909304600790810b93919291611657918591900b6119d9565b82546001600160401b039182166101009390930a92830291909202199091161790555060018101805467ffffffffffffffff60401b191690558054604051600081523391907fcfa919375acf04933787aa7f7b25d71adf2e92839529dad777b47ff2cd0827a49060200161155a565b604080516001600160a01b038681166024830152858116604483015284166064820152600783900b6084808301919091528251808303909101815260a490910182526020810180516001600160e01b031663eca3691760e01b179052905160009182918291610167916117399190611a21565b6000604051808303816000865af19150503d8060008114611776576040519150601f19603f3d011682016040523d82523d6000602084013e61177b565b606091505b50915091508161178c5760156117a0565b808060200190518101906117a09190611a50565b9250600383900b6016146117f65760405162461bcd60e51b815260206004820152601b60248201527f5361666520746f6b656e207472616e73666572206661696c65642100000000006044820152606401610306565b50505050505050565b8035600781900b811461181157600080fd5b919050565b6000806040838503121561182957600080fd5b611832836117ff565b9150611840602084016117ff565b90509250929050565b60006020828403121561185b57600080fd5b5035919050565b80356001600160a01b038116811461181157600080fd5b6000806040838503121561188c57600080fd5b61183283611862565b600080604083850312156118a857600080fd5b6118b183611862565b915061184060208401611862565b600080604083850312156118d257600080fd5b82359150602083013580151581146118e957600080fd5b809150509250929050565b634e487b7160e01b600052601160045260246000fd5b60008160070b8360070b8061192f57634e487b7160e01b600052601260045260246000fd5b677fffffffffffffff1982146000198214161561194e5761194e6118f4565b90059392505050565b60008260070b8260070b028060070b9150808214611977576119776118f4565b5092915050565b6020808252601290820152714e6f7420656e6f7567682062616c616e636560701b604082015260600190565b600782810b9082900b03677fffffffffffffff198112677fffffffffffffff821317156103e6576103e66118f4565b600781810b9083900b01677fffffffffffffff8113677fffffffffffffff19821217156103e6576103e66118f4565b600060018201611a1a57611a1a6118f4565b5060010190565b6000825160005b81811015611a425760208186018101518583015201611a28565b506000920191825250919050565b600060208284031215611a6257600080fd5b81518060030b8114611a7357600080fd5b939250505056fea264697066735822122039cddb2ffbf3e0c16f10101b7d4c5da6a08ab02dc04d102283b79a6a6fce4e2f64736f6c63430008180033",
  "linkReferences": {},
  "deployedLinkReferences": {}
}