{
  "_format": "hh-sol-artifact-1",
  "contractName": "ExchangeFactoryHTS",
  "sourceName": "contracts/orderbook/hts/ExchangeFactoryHTS.sol",
  "abi": [
    {
      "anonymous": false,
      "inputs": [
        {
          "indexed": false,
          "internalType": "address",
          "name": "exchange",
          "type": "address"
        },
        {
          "indexed": false,
          "internalType": "address",
          "name": "tokenA",
          "type": "address"
        },
        {
          "indexed": false,
          "internalType": "address",
          "name": "tokenB",
          "type": "address"
        },
        {
          "indexed": false,
          "internalType": "address",
          "name": "deployer",
          "type": "address"
        }
      ],
      "name": "ExchangeDeployed",
      "type": "event"
    },
    {
      "inputs": [
        {
          "internalType": "address",
          "name": "exchange",
          "type": "address"
        }
      ],
      "name": "availableExchanges",
      "outputs": [
        {
          "internalType": "bool",
          "name": "",
          "type": "bool"
        }
      ],
      "stateMutability": "view",
      "type": "function"
    },
    {
      "inputs": [
        {
          "internalType": "address",
          "name": "tokenA",
          "type": "address"
        },
        {
          "internalType": "address",
          "name": "tokenB",
          "type": "address"
        }
      ],
      "name": "deployExchange",
      "outputs": [
        {
          "internalType": "address",
          "name": "exchange",
          "type": "address"
        }
      ],
      "stateMutability": "nonpayable",
      "type": "function"
    },
    {
      "inputs": [
        {
          "internalType": "bytes32",
          "name": "",
          "type": "bytes32"
        }
      ],
      "name": "exchangeDeployed",
      "outputs": [
        {
          "internalType": "address",
          "name": "",
          "type": "address"
        }
      ],
      "stateMutability": "view",
      "type": "function"
    },
    {
      "inputs": [
        {
          "internalType": "address",
          "name": "exchange",
          "type": "address"
        }
      ],
      "name": "isExchangeAvailable",
      "outputs": [
        {
          "internalType": "bool",
          "name": "",
          "type": "bool"
        }
      ],
      "stateMutability": "view",
      "type": "function"
    }
  ],
  "bytecode": "0x608060405234801561001057600080fd5b50612194806100206000396000f3fe608060405234801561001057600080fd5b506004361061004c5760003560e01c8063443bc94a146100515780636b35ea281461009757806378c39d5f146100aa578063a397c073146100e6575b600080fd5b61007a61005f366004610321565b6001602052600090815260409020546001600160a01b031681565b6040516001600160a01b0390911681526020015b60405180910390f35b61007a6100a5366004610356565b610109565b6100d66100b8366004610389565b6001600160a01b031660009081526020819052604090205460ff1690565b604051901515815260200161008e565b6100d66100f4366004610389565b60006020819052908152604090205460ff1681565b6040516bffffffffffffffffffffffff1933606090811b8216602084015284811b8216603484015283901b1660488201526000908190605c0160408051601f198184030181529181528151602092830120600081815260019093529120549091506001600160a01b0316156101c45760405162461bcd60e51b815260206004820152601960248201527f45786368616e676520616c7265616479206465706c6f79656400000000000000604482015260640160405180910390fd5b6101cf818585610266565b600082815260016020818152604080842080546001600160a01b0319166001600160a01b0387811691821790925580865285845294829020805460ff1916909417909355805193845288831691840191909152908616908201523360608201529092507fa5b803b77d28e977c1af94d97267f3615377386271d1d18976e7d87309e04b0d9060800160405180910390a15092915050565b6000806040518060200161027990610314565b601f1982820381018352601f9091011660408181526001600160a01b038781166020840152861681830152805180830382018152606083019091529192506000906102ca90849084906080016103d4565b60405160208183030381529060405290506102e587826102f0565b979650505050505050565b60008082602001835185818334f592505050803b61030d57600080fd5b9392505050565b611d6d806103f283390190565b60006020828403121561033357600080fd5b5035919050565b80356001600160a01b038116811461035157600080fd5b919050565b6000806040838503121561036957600080fd5b6103728361033a565b91506103806020840161033a565b90509250929050565b60006020828403121561039b57600080fd5b61030d8261033a565b6000815160005b818110156103c557602081850181015186830152016103ab565b50600093019283525090919050565b60006103e96103e383866103a4565b846103a4565b94935050505056fe60806040523480156200001157600080fd5b5060405162001d6d38038062001d6d8339810160408190526200003491620001e1565b60016008819055600080546001600160a01b038086166001600160a01b03199283168117909355835490851691161790915562000072903062000092565b6001546200008a906001600160a01b03163062000092565b505062000276565b604080516001600160a01b038381166024830152841660448083019190915282518083039091018152606490910182526020810180516001600160e01b031663248a35ef60e11b17905290516000918291829161016791620000f5919062000219565b6000604051808303816000865af19150503d806000811462000134576040519150601f19603f3d011682016040523d82523d6000602084013e62000139565b606091505b5091509150816200014c57601562000162565b808060200190518101906200016291906200024a565b9250600383900b601614620001bd5760405162461bcd60e51b815260206004820152601f60248201527f536166652073696e676c65206173736f63696174696f6e206661696c65642100604482015260640160405180910390fd5b5050505050565b80516001600160a01b0381168114620001dc57600080fd5b919050565b60008060408385031215620001f557600080fd5b6200020083620001c4565b91506200021060208401620001c4565b90509250929050565b6000825160005b818110156200023c576020818601810151858301520162000220565b506000920191825250919050565b6000602082840312156200025d57600080fd5b81518060030b81146200026f57600080fd5b9392505050565b611ae780620002866000396000f3fe608060405234801561001057600080fd5b50600436106100cf5760003560e01c806372fb07771161008c578063bb110bf911610066578063bb110bf91461024d578063dd5813ee14610256578063f7888aec14610269578063f88d2047146102aa57600080fd5b806372fb077714610226578063925931fc1461022f57806392c029911461023857600080fd5b806303c4c2e1146100d45780630fc63d10146100fa5780632ec2add71461012557806335cea288146101385780634a8393f3146101c15780635f64b55b14610213575b600080fd5b6100e76100e236600461184d565b6102bd565b6040519081526020015b60405180910390f35b60005461010d906001600160a01b031681565b6040516001600160a01b0390911681526020016100f1565b6100e761013336600461184d565b6103f1565b61018a610146366004611880565b600260208190526000918252604090912080546001820154928201546003909201549092600781810b93600160401b909204900b916001600160a01b039091169085565b60408051958652600794850b60208701529290930b918401919091526001600160a01b03166060830152608082015260a0016100f1565b61018a6101cf366004611880565b600360208190526000918252604090912080546001820154600283015492909301549092600781810b93600160401b909204900b916001600160a01b039091169085565b60015461010d906001600160a01b031681565b6100e760065481565b6100e760075481565b61024b6102463660046118b0565b6104f3565b005b6100e760055481565b61024b6102643660046118b0565b610607565b6102976102773660046118cc565b600460209081526000928352604080842090915290825290205460070b81565b60405160079190910b81526020016100f1565b61024b6102b83660046118f6565b6106c3565b60006102c761084c565b60008360070b1361030f5760405162461bcd60e51b815260206004820152600d60248201526c496e76616c696420507269636560981b60448201526064015b60405180910390fd5b60008260070b136103535760405162461bcd60e51b815260206004820152600e60248201526d496e76616c696420566f6c756d6560901b6044820152606401610306565b6103616305f5e10083611941565b61036b908461198e565b3360009081526004602090815260408083206001546001600160a01b03168452909152902054600791820b910b12156103b65760405162461bcd60e51b8152600401610306906119b5565b60006103c3338585610876565b905060008160070b13156103dc576103dc338583610b96565b50506007546103eb6001600855565b92915050565b60006103fb61084c565b60008360070b1361043e5760405162461bcd60e51b815260206004820152600d60248201526c496e76616c696420507269636560981b6044820152606401610306565b60008260070b136104825760405162461bcd60e51b815260206004820152600e60248201526d496e76616c696420566f6c756d6560901b6044820152606401610306565b33600090815260046020908152604080832083546001600160a01b03168452909152902054600783810b91900b12156104cd5760405162461bcd60e51b8152600401610306906119b5565b60006104da338585610da7565b905060008160070b13156103dc576103dc3385836110a1565b6104fb61084c565b6000546001600160a01b038381169116148061052457506001546001600160a01b038381169116145b6105605760405162461bcd60e51b815260206004820152600d60248201526c24b73b30b634b2103a37b5b2b760991b6044820152606401610306565b60008160070b136105a45760405162461bcd60e51b815260206004820152600e60248201526d125b9d985b1a5908185b5bdd5b9d60921b6044820152606401610306565b3360009081526004602090815260408083206001600160a01b0386168452909152902054600782810b91900b12156105ee5760405162461bcd60e51b8152600401610306906119b5565b6105f9338383611287565b6106036001600855565b5050565b61060f61084c565b6000546001600160a01b038381169116148061063857506001546001600160a01b038381169116145b6106745760405162461bcd60e51b815260206004820152600d60248201526c24b73b30b634b2103a37b5b2b760991b6044820152606401610306565b60008160070b136106b85760405162461bcd60e51b815260206004820152600e60248201526d125b9d985b1a5908185b5bdd5b9d60921b6044820152606401610306565b6105f933838361134b565b6106cb61084c565b6000816106e55760008381526003602052604090206106f4565b60008381526002602052604090205b60028101549091506001600160a01b03166107485760405162461bcd60e51b815260206004820152601460248201527313dc99195c88191bd95cc81b9bdd08195e1a5cdd60621b6044820152606401610306565b60028101546001600160a01b031633146107b95760405162461bcd60e51b815260206004820152602c60248201527f4f6e6c7920746865206f726465722063726561746f722063616e2063616e636560448201526b36103a3434b99037b93232b960a11b6064820152608401610306565b60018101546000600160401b90910460070b136108245760405162461bcd60e51b8152602060048201526024808201527f4f7264657220616c72656164792063616e63656c6c6564206f722066756c66696044820152631b1b195960e21b6064820152608401610306565b81156108385761083381611402565b610841565b61084181611591565b506106036001600855565b60026008540361086f57604051633ee5aeb560e01b815260040160405180910390fd5b6002600855565b600654600090600a825b8215801590610892575060008560070b135b801561089d57508181105b15610b8a5760008381526003602052604090206001810154600790810b9088900b12610b71576001810154600090600788810b600160401b909204900b126108e557866108f5565b6001820154600160401b900460070b5b600183015490915060070b61090e6305f5e10083611941565b610918908261198e565b6001600160a01b03808c1660009081526004602090815260408083206001549094168352929052908120805490919061095590849060070b6119e1565b82546001600160401b039182166101009390930a9283029190920219909116179055506001600160a01b03808b1660009081526004602090815260408083208354909416835292905290812080548492906109b490849060070b611a10565b92506101000a8154816001600160401b03021916908360070b6001600160401b031602179055506305f5e100826109eb9190611941565b6109f5908261198e565b60028401546001600160a01b03908116600090815260046020908152604080832060015490941683529290529081208054909190610a3790849060070b611a10565b92506101000a8154816001600160401b03021916908360070b6001600160401b031602179055508188610a6a91906119e1565b6001840180549199508391600890610a8d908490600160401b900460070b6119e1565b82546101009290920a6001600160401b03818102199093169190921691909102179055506001830154600284015460408051600786810b82529390930b60208401526001600160a01b038d8116848301529091166060830152517f3811c688c91a2195acbf84f4d5e7adc8d2f17ba048f1051955046e511411fd7d9181900360800190a16001830154600160401b900460070b600003610b6a5760038084015460009788526020829052604088208881556001810180546001600160801b03191690556002810180546001600160a01b0319169055909101969096555b5050610b77565b50610b8a565b81610b8181611a3f565b92505050610880565b50506006555092915050565b60078054906000610ba683611a3f565b909155505060055460005b8115801590610bd75750600082815260026020526040902060010154600785810b91900b135b15610bf5575060008181526002602052604090206003015490610bb1565b6040805160a0810182526007805480835287820b60208085019182529288900b8486019081526001600160a01b03808c1660608701908152608087018a815260009586526002968790529790942095518655915160018601805492516001600160401b03908116600160401b026001600160801b031990941692169190911791909117905590519183018054929091166001600160a01b03199092169190911790559051600390910155610cad6305f5e10084611941565b610cb7908561198e565b6001600160a01b03808716600090815260046020908152604080832060015490941683529290529081208054909190610cf490849060070b6119e1565b82546001600160401b039182166101009390930a92830291909202199091161790555060078054604080516001815260208101929092526001600160a01b0388169082015285820b60608201529084900b60808201527fddca83c332d5b33951e90d550eefc003b7a1efae1cdf8c4d684d4ccdf2cd8d599060a00160405180910390a180600003610d8a57600754600555610da0565b6007546000828152600260205260409020600301555b5050505050565b600554600090600a825b8215801590610dc3575060008560070b135b8015610dce57508181105b156110955760008381526002602052604090206001810154600790810b9088900b1361107c576001810154600090600788810b600160401b909204900b12610e165786610e26565b6001820154600160401b900460070b5b905087610e376305f5e10083611941565b610e41908261198e565b6001600160a01b03808c16600090815260046020908152604080832060015490941683529290529081208054909190610e7e90849060070b611a10565b82546001600160401b039182166101009390930a9283029190920219909116179055506001600160a01b03808b166000908152600460209081526040808320835490941683529290529081208054849290610edd90849060070b6119e1565b82546001600160401b039182166101009390930a92830291909202199091161790555060028301546001600160a01b039081166000908152600460209081526040808320835490941683529290529081208054849290610f4190849060070b611a10565b92506101000a8154816001600160401b03021916908360070b6001600160401b031602179055508188610f7491906119e1565b6001840180549199508391600890610f97908490600160401b900460070b6119e1565b82546101009290920a6001600160401b03818102199093169190921691909102179055506001830154600284015460408051600786810b82529390930b60208401526001600160a01b038d8116848301529091166060830152517f3811c688c91a2195acbf84f4d5e7adc8d2f17ba048f1051955046e511411fd7d9181900360800190a16001830154600160401b900460070b60000361107557600380840154600097885260026020819052604089208981556001810180546001600160801b031916905590810180546001600160a01b0319169055909101969096555b5050611082565b50611095565b8161108c81611a3f565b92505050610db1565b50506005555092915050565b600780549060006110b183611a3f565b909155505060065460005b81158015906110e25750600082815260036020526040902060010154600785810b91900b125b15611101575060008181526003602081905260409091200154906110bc565b6040805160a0810182526007805480835287820b602080850191825288840b8587019081526001600160a01b03808d1660608801818152608089018c8152600097885260038087528b89209a518b55965160018b01805496516001600160401b03908116600160401b026001600160801b031990981692169190911795909517909455516002890180549184166001600160a01b0319909216919091179055915196909301959095559382526004845284822082549091168252909252918120805486939192916111d49185910b6119e1565b82546001600160401b039182166101009390930a92830291909202199091161790555060078054604080516000815260208101929092526001600160a01b0388169082015285820b60608201529084900b60808201527fddca83c332d5b33951e90d550eefc003b7a1efae1cdf8c4d684d4ccdf2cd8d599060a00160405180910390a18060000361126a57600754600655610da0565b600754600082815260036020819052604090912001555050505050565b6001600160a01b038084166000908152600460209081526040808320938616835292905290812080548392906112c190849060070b6119e1565b92506101000a8154816001600160401b03021916908360070b6001600160401b031602179055506112f4823085846116fd565b604080516001600160a01b03808616825284166020820152600783900b918101919091527fd09be44e70d8a46d3b3b8da9701595dcaec29d75930065918923c7d9fd73eb58906060015b60405180910390a1505050565b611357828430846116fd565b6001600160a01b0380841660009081526004602090815260408083209386168352929052908120805483929061139190849060070b611a10565b82546001600160401b039182166101009390930a928302919092021990911617905550604080516001600160a01b03808616825284166020820152600783900b918101919091527f64e3b56a34ae45fe7d1f33e3d3da391a671e6043606ac9c811a6c1243023841d9060600161133e565b60055481540361141957600381015460055561149e565b60055460009081526002602052604090205b815460038201541461149457806003015460000361147d5760405162461bcd60e51b815260206004820152600f60248201526e13dc99195c881b9bdd08199bdd5b99608a1b6044820152606401610306565b60030154600090815260026020526040902061142b565b6003808301549101555b60018101546114bc906305f5e10090600160401b900460070b611941565b60018201546114ce919060070b61198e565b60028201546001600160a01b0390811660009081526004602090815260408083206001549094168352929052908120805490919061151090849060070b611a10565b82546001600160401b039182166101009390930a9283029190920219909116179055506001818101805467ffffffffffffffff60401b19169055815460408051928352602083019190915233908201527fcfa919375acf04933787aa7f7b25d71adf2e92839529dad777b47ff2cd0827a4906060015b60405180910390a150565b6006548154036115a8576003810154600655611630565b60065460009081526003602052604090205b815460038201541461162657806003015460000361160c5760405162461bcd60e51b815260206004820152600f60248201526e13dc99195c881b9bdd08199bdd5b99608a1b6044820152606401610306565b6003908101546000908152602091909152604090206115ba565b6003808301549101555b600181015460028201546001600160a01b039081166000908152600460209081526040808320835490941683529290529081208054600160401b909304600790810b93919291611683918591900b611a10565b82546001600160401b039182166101009390930a92830291909202199091161790555060018101805467ffffffffffffffff60401b1916905580546040805160008152602081019290925233908201527fcfa919375acf04933787aa7f7b25d71adf2e92839529dad777b47ff2cd0827a490606001611586565b604080516001600160a01b038681166024830152858116604483015284166064820152600783900b6084808301919091528251808303909101815260a490910182526020810180516001600160e01b031663eca3691760e01b179052905160009182918291610167916117709190611a58565b6000604051808303816000865af19150503d80600081146117ad576040519150601f19603f3d011682016040523d82523d6000602084013e6117b2565b606091505b5091509150816117c35760156117d7565b808060200190518101906117d79190611a87565b9250600383900b60161461182d5760405162461bcd60e51b815260206004820152601b60248201527f5361666520746f6b656e207472616e73666572206661696c65642100000000006044820152606401610306565b50505050505050565b8035600781900b811461184857600080fd5b919050565b6000806040838503121561186057600080fd5b61186983611836565b915061187760208401611836565b90509250929050565b60006020828403121561189257600080fd5b5035919050565b80356001600160a01b038116811461184857600080fd5b600080604083850312156118c357600080fd5b61186983611899565b600080604083850312156118df57600080fd5b6118e883611899565b915061187760208401611899565b6000806040838503121561190957600080fd5b823591506020830135801515811461192057600080fd5b809150509250929050565b634e487b7160e01b600052601160045260246000fd5b60008160070b8360070b8061196657634e487b7160e01b600052601260045260246000fd5b677fffffffffffffff198214600019821416156119855761198561192b565b90059392505050565b60008260070b8260070b028060070b91508082146119ae576119ae61192b565b5092915050565b6020808252601290820152714e6f7420656e6f7567682062616c616e636560701b604082015260600190565b600782810b9082900b03677fffffffffffffff198112677fffffffffffffff821317156103eb576103eb61192b565b600781810b9083900b01677fffffffffffffff8113677fffffffffffffff19821217156103eb576103eb61192b565b600060018201611a5157611a5161192b565b5060010190565b6000825160005b81811015611a795760208186018101518583015201611a5f565b506000920191825250919050565b600060208284031215611a9957600080fd5b81518060030b8114611aaa57600080fd5b939250505056fea26469706673582212205aa48bb78bfafd55a1384ef36fe88a0c230cf3807ce8924547abd90a0159119064736f6c63430008180033a2646970667358221220ee260359a878572e79fea58191e64d978b62ba0101ca875e8e46a04f026576ea64736f6c63430008180033",
  "linkReferences": {},
  "deployedLinkReferences": {}
}