{
  "_format": "hh-sol-artifact-1",
  "contractName": "HederaVault",
  "sourceName": "contracts/erc4626/Vault.sol",
  "abi": [
    {
      "inputs": [
        {
          "internalType": "contract ERC20",
          "name": "_underlying",
          "type": "address"
        },
        {
          "internalType": "string",
          "name": "_name",
          "type": "string"
        },
        {
          "internalType": "string",
          "name": "_symbol",
          "type": "string"
        }
      ],
      "stateMutability": "payable",
      "type": "constructor"
    },
    {
      "inputs": [
        {
          "internalType": "uint256",
          "name": "numberOfShares",
          "type": "uint256"
        }
      ],
      "name": "ZeroShares",
      "type": "error"
    },
    {
      "anonymous": false,
      "inputs": [
        {
          "indexed": true,
          "internalType": "address",
          "name": "owner",
          "type": "address"
        },
        {
          "indexed": true,
          "internalType": "address",
          "name": "spender",
          "type": "address"
        },
        {
          "indexed": false,
          "internalType": "uint256",
          "name": "amount",
          "type": "uint256"
        }
      ],
      "name": "Approval",
      "type": "event"
    },
    {
      "anonymous": false,
      "inputs": [
        {
          "indexed": true,
          "internalType": "address",
          "name": "createdToken",
          "type": "address"
        }
      ],
      "name": "CreatedToken",
      "type": "event"
    },
    {
      "anonymous": false,
      "inputs": [
        {
          "indexed": true,
          "internalType": "address",
          "name": "from",
          "type": "address"
        },
        {
          "indexed": true,
          "internalType": "address",
          "name": "to",
          "type": "address"
        },
        {
          "indexed": false,
          "internalType": "uint256",
          "name": "amount",
          "type": "uint256"
        },
        {
          "indexed": false,
          "internalType": "uint256",
          "name": "shares",
          "type": "uint256"
        }
      ],
      "name": "Deposit",
      "type": "event"
    },
    {
      "anonymous": false,
      "inputs": [
        {
          "indexed": true,
          "internalType": "address",
          "name": "from",
          "type": "address"
        },
        {
          "indexed": true,
          "internalType": "address",
          "name": "to",
          "type": "address"
        },
        {
          "indexed": false,
          "internalType": "uint256",
          "name": "amount",
          "type": "uint256"
        }
      ],
      "name": "Transfer",
      "type": "event"
    },
    {
      "anonymous": false,
      "inputs": [
        {
          "indexed": true,
          "internalType": "address",
          "name": "from",
          "type": "address"
        },
        {
          "indexed": true,
          "internalType": "address",
          "name": "to",
          "type": "address"
        },
        {
          "indexed": false,
          "internalType": "uint256",
          "name": "amount",
          "type": "uint256"
        },
        {
          "indexed": false,
          "internalType": "uint256",
          "name": "shares",
          "type": "uint256"
        }
      ],
      "name": "Withdraw",
      "type": "event"
    },
    {
      "inputs": [],
      "name": "DOMAIN_SEPARATOR",
      "outputs": [
        {
          "internalType": "bytes32",
          "name": "",
          "type": "bytes32"
        }
      ],
      "stateMutability": "view",
      "type": "function"
    },
    {
      "inputs": [
        {
          "internalType": "address",
          "name": "_token",
          "type": "address"
        },
        {
          "internalType": "uint256",
          "name": "_amount",
          "type": "uint256"
        }
      ],
      "name": "addReward",
      "outputs": [],
      "stateMutability": "payable",
      "type": "function"
    },
    {
      "inputs": [
        {
          "internalType": "address",
          "name": "",
          "type": "address"
        },
        {
          "internalType": "address",
          "name": "",
          "type": "address"
        }
      ],
      "name": "allowance",
      "outputs": [
        {
          "internalType": "uint256",
          "name": "",
          "type": "uint256"
        }
      ],
      "stateMutability": "view",
      "type": "function"
    },
    {
      "inputs": [
        {
          "internalType": "address",
          "name": "spender",
          "type": "address"
        },
        {
          "internalType": "uint256",
          "name": "amount",
          "type": "uint256"
        }
      ],
      "name": "approve",
      "outputs": [
        {
          "internalType": "bool",
          "name": "",
          "type": "bool"
        }
      ],
      "stateMutability": "nonpayable",
      "type": "function"
    },
    {
      "inputs": [],
      "name": "asset",
      "outputs": [
        {
          "internalType": "contract ERC20",
          "name": "",
          "type": "address"
        }
      ],
      "stateMutability": "view",
      "type": "function"
    },
    {
      "inputs": [
        {
          "internalType": "address",
          "name": "user",
          "type": "address"
        }
      ],
      "name": "assetsOf",
      "outputs": [
        {
          "internalType": "uint256",
          "name": "",
          "type": "uint256"
        }
      ],
      "stateMutability": "view",
      "type": "function"
    },
    {
      "inputs": [],
      "name": "assetsPerShare",
      "outputs": [
        {
          "internalType": "uint256",
          "name": "",
          "type": "uint256"
        }
      ],
      "stateMutability": "view",
      "type": "function"
    },
    {
      "inputs": [
        {
          "internalType": "address",
          "name": "",
          "type": "address"
        }
      ],
      "name": "balanceOf",
      "outputs": [
        {
          "internalType": "uint256",
          "name": "",
          "type": "uint256"
        }
      ],
      "stateMutability": "view",
      "type": "function"
    },
    {
      "inputs": [
        {
          "internalType": "uint256",
          "name": "_startPosition",
          "type": "uint256"
        }
      ],
      "name": "claimAllReward",
      "outputs": [
        {
          "internalType": "uint256",
          "name": "",
          "type": "uint256"
        },
        {
          "internalType": "uint256",
          "name": "",
          "type": "uint256"
        }
      ],
      "stateMutability": "nonpayable",
      "type": "function"
    },
    {
      "inputs": [],
      "name": "decimals",
      "outputs": [
        {
          "internalType": "uint8",
          "name": "",
          "type": "uint8"
        }
      ],
      "stateMutability": "view",
      "type": "function"
    },
    {
      "inputs": [
        {
          "internalType": "uint256",
          "name": "amount",
          "type": "uint256"
        },
        {
          "internalType": "address",
          "name": "to",
          "type": "address"
        }
      ],
      "name": "deposit",
      "outputs": [
        {
          "internalType": "uint256",
          "name": "shares",
          "type": "uint256"
        }
      ],
      "stateMutability": "nonpayable",
      "type": "function"
    },
    {
      "inputs": [
        {
          "internalType": "address",
          "name": "",
          "type": "address"
        }
      ],
      "name": "maxDeposit",
      "outputs": [
        {
          "internalType": "uint256",
          "name": "",
          "type": "uint256"
        }
      ],
      "stateMutability": "pure",
      "type": "function"
    },
    {
      "inputs": [
        {
          "internalType": "address",
          "name": "",
          "type": "address"
        }
      ],
      "name": "maxMint",
      "outputs": [
        {
          "internalType": "uint256",
          "name": "",
          "type": "uint256"
        }
      ],
      "stateMutability": "pure",
      "type": "function"
    },
    {
      "inputs": [
        {
          "internalType": "address",
          "name": "user",
          "type": "address"
        }
      ],
      "name": "maxRedeem",
      "outputs": [
        {
          "internalType": "uint256",
          "name": "",
          "type": "uint256"
        }
      ],
      "stateMutability": "view",
      "type": "function"
    },
    {
      "inputs": [
        {
          "internalType": "address",
          "name": "user",
          "type": "address"
        }
      ],
      "name": "maxWithdraw",
      "outputs": [
        {
          "internalType": "uint256",
          "name": "",
          "type": "uint256"
        }
      ],
      "stateMutability": "view",
      "type": "function"
    },
    {
      "inputs": [
        {
          "internalType": "uint256",
          "name": "shares",
          "type": "uint256"
        },
        {
          "internalType": "address",
          "name": "to",
          "type": "address"
        }
      ],
      "name": "mint",
      "outputs": [
        {
          "internalType": "uint256",
          "name": "amount",
          "type": "uint256"
        }
      ],
      "stateMutability": "nonpayable",
      "type": "function"
    },
    {
      "inputs": [],
      "name": "name",
      "outputs": [
        {
          "internalType": "string",
          "name": "",
          "type": "string"
        }
      ],
      "stateMutability": "view",
      "type": "function"
    },
    {
      "inputs": [],
      "name": "newTokenAddress",
      "outputs": [
        {
          "internalType": "address",
          "name": "",
          "type": "address"
        }
      ],
      "stateMutability": "view",
      "type": "function"
    },
    {
      "inputs": [
        {
          "internalType": "address",
          "name": "",
          "type": "address"
        }
      ],
      "name": "nonces",
      "outputs": [
        {
          "internalType": "uint256",
          "name": "",
          "type": "uint256"
        }
      ],
      "stateMutability": "view",
      "type": "function"
    },
    {
      "inputs": [],
      "name": "owner",
      "outputs": [
        {
          "internalType": "address",
          "name": "",
          "type": "address"
        }
      ],
      "stateMutability": "view",
      "type": "function"
    },
    {
      "inputs": [
        {
          "internalType": "address",
          "name": "owner",
          "type": "address"
        },
        {
          "internalType": "address",
          "name": "spender",
          "type": "address"
        },
        {
          "internalType": "uint256",
          "name": "value",
          "type": "uint256"
        },
        {
          "internalType": "uint256",
          "name": "deadline",
          "type": "uint256"
        },
        {
          "internalType": "uint8",
          "name": "v",
          "type": "uint8"
        },
        {
          "internalType": "bytes32",
          "name": "r",
          "type": "bytes32"
        },
        {
          "internalType": "bytes32",
          "name": "s",
          "type": "bytes32"
        }
      ],
      "name": "permit",
      "outputs": [],
      "stateMutability": "nonpayable",
      "type": "function"
    },
    {
      "inputs": [
        {
          "internalType": "uint256",
          "name": "amount",
          "type": "uint256"
        }
      ],
      "name": "previewDeposit",
      "outputs": [
        {
          "internalType": "uint256",
          "name": "shares",
          "type": "uint256"
        }
      ],
      "stateMutability": "view",
      "type": "function"
    },
    {
      "inputs": [
        {
          "internalType": "uint256",
          "name": "shares",
          "type": "uint256"
        }
      ],
      "name": "previewMint",
      "outputs": [
        {
          "internalType": "uint256",
          "name": "amount",
          "type": "uint256"
        }
      ],
      "stateMutability": "view",
      "type": "function"
    },
    {
      "inputs": [
        {
          "internalType": "uint256",
          "name": "shares",
          "type": "uint256"
        }
      ],
      "name": "previewRedeem",
      "outputs": [
        {
          "internalType": "uint256",
          "name": "amount",
          "type": "uint256"
        }
      ],
      "stateMutability": "view",
      "type": "function"
    },
    {
      "inputs": [
        {
          "internalType": "uint256",
          "name": "amount",
          "type": "uint256"
        }
      ],
      "name": "previewWithdraw",
      "outputs": [
        {
          "internalType": "uint256",
          "name": "shares",
          "type": "uint256"
        }
      ],
      "stateMutability": "view",
      "type": "function"
    },
    {
      "inputs": [
        {
          "internalType": "uint256",
          "name": "shares",
          "type": "uint256"
        },
        {
          "internalType": "address",
          "name": "to",
          "type": "address"
        },
        {
          "internalType": "address",
          "name": "from",
          "type": "address"
        }
      ],
      "name": "redeem",
      "outputs": [
        {
          "internalType": "uint256",
          "name": "amount",
          "type": "uint256"
        }
      ],
      "stateMutability": "nonpayable",
      "type": "function"
    },
    {
      "inputs": [
        {
          "internalType": "address",
          "name": "",
          "type": "address"
        }
      ],
      "name": "rewardsAddress",
      "outputs": [
        {
          "internalType": "uint256",
          "name": "amount",
          "type": "uint256"
        },
        {
          "internalType": "bool",
          "name": "exist",
          "type": "bool"
        }
      ],
      "stateMutability": "view",
      "type": "function"
    },
    {
      "inputs": [],
      "name": "symbol",
      "outputs": [
        {
          "internalType": "string",
          "name": "",
          "type": "string"
        }
      ],
      "stateMutability": "view",
      "type": "function"
    },
    {
      "inputs": [
        {
          "internalType": "uint256",
          "name": "",
          "type": "uint256"
        }
      ],
      "name": "tokenAddress",
      "outputs": [
        {
          "internalType": "address",
          "name": "",
          "type": "address"
        }
      ],
      "stateMutability": "view",
      "type": "function"
    },
    {
      "inputs": [],
      "name": "totalAssets",
      "outputs": [
        {
          "internalType": "uint256",
          "name": "",
          "type": "uint256"
        }
      ],
      "stateMutability": "view",
      "type": "function"
    },
    {
      "inputs": [],
      "name": "totalSupply",
      "outputs": [
        {
          "internalType": "uint256",
          "name": "",
          "type": "uint256"
        }
      ],
      "stateMutability": "view",
      "type": "function"
    },
    {
      "inputs": [],
      "name": "totalTokens",
      "outputs": [
        {
          "internalType": "uint256",
          "name": "",
          "type": "uint256"
        }
      ],
      "stateMutability": "view",
      "type": "function"
    },
    {
      "inputs": [
        {
          "internalType": "address",
          "name": "to",
          "type": "address"
        },
        {
          "internalType": "uint256",
          "name": "amount",
          "type": "uint256"
        }
      ],
      "name": "transfer",
      "outputs": [
        {
          "internalType": "bool",
          "name": "",
          "type": "bool"
        }
      ],
      "stateMutability": "nonpayable",
      "type": "function"
    },
    {
      "inputs": [
        {
          "internalType": "address",
          "name": "from",
          "type": "address"
        },
        {
          "internalType": "address",
          "name": "to",
          "type": "address"
        },
        {
          "internalType": "uint256",
          "name": "amount",
          "type": "uint256"
        }
      ],
      "name": "transferFrom",
      "outputs": [
        {
          "internalType": "bool",
          "name": "",
          "type": "bool"
        }
      ],
      "stateMutability": "nonpayable",
      "type": "function"
    },
    {
      "inputs": [
        {
          "internalType": "address",
          "name": "",
          "type": "address"
        }
      ],
      "name": "userContribution",
      "outputs": [
        {
          "internalType": "uint256",
          "name": "num_shares",
          "type": "uint256"
        },
        {
          "internalType": "bool",
          "name": "exist",
          "type": "bool"
        }
      ],
      "stateMutability": "view",
      "type": "function"
    },
    {
      "inputs": [
        {
          "internalType": "uint256",
          "name": "amount",
          "type": "uint256"
        },
        {
          "internalType": "address",
          "name": "to",
          "type": "address"
        },
        {
          "internalType": "address",
          "name": "from",
          "type": "address"
        }
      ],
      "name": "withdraw",
      "outputs": [
        {
          "internalType": "uint256",
          "name": "shares",
          "type": "uint256"
        }
      ],
      "stateMutability": "nonpayable",
      "type": "function"
    }
  ],
  "bytecode": "0x610100604052604051620033cb380380620033cb833981016040819052620000279162000850565b8181846001600160a01b031663313ce5676040518163ffffffff1660e01b8152600401602060405180830381865afa15801562000068573d6000803e3d6000fd5b505050506040513d601f19601f820116820180604052508101906200008e9190620008cf565b60006200009c84826200098c565b506001620000ab83826200098c565b5060ff81166080524660a052620000c1620003a9565b60c0525050600980546001600160a01b0319163317905550620000e5833062000445565b6040805160a08082018352600080835260208084018290526060848601819052808501819052306080808701829052875195860188528486528584018590528588018390528583018390528501528551600280825291810190965260109560019594939290919082015b620001596200070c565b8152602001906001900390816200014f579050509050604051806040016040528086815260200184815250816000815181106200019a576200019a62000a58565b602002602001018190525060405180604001604052808581526020018381525081600181518110620001d057620001d062000a58565b6020026020010181905250620002156040518060600160405280600063ffffffff16815260200160006001600160a01b03168152602001600063ffffffff1681525090565b306020820152627a120060408201526200028b60408051610120810182526060808252602080830182905260008385018190528284018390526080840181905260a0840181905260c0840181905260e0840183905284519283018552808352908201819052928101929092529061010082015290565b8881600001819052508781602001819052503081604001906001600160a01b031690816001600160a01b03168152505081816101000181905250828160e00181905250620003438160008c6001600160a01b031663313ce5676040518163ffffffff1660e01b8152600401602060405180830381865afa15801562000314573d6000803e3d6000fd5b505050506040513d601f19601f820116820180604052508101906200033a9190620008cf565b60ff1662000578565b600680546001600160a01b0319166001600160a01b039290921691821790556040517f7bb17726df1f3adee8aa00ba8e8bc5d6f182af3bbf77604639cb7f008dd3b4ed90600090a25050506001600160a01b0390961660e0525062000da8945050505050565b60007f8b73c3c69bb8fe3d512ecc4cf759cc79239f7b179b0ffacaa9a75d522b39400f6000604051620003dd919062000a6e565b6040805191829003822060208301939093528101919091527fc89efdaa54c0f20c7adf612882df0950f5a951637e0307cdcb4c672f298b8bc660608201524660808201523060a082015260c00160405160208183030381529060405280519060200120905090565b604080516001600160a01b038381166024830152841660448083019190915282518083039091018152606490910182526020810180516001600160e01b031663248a35ef60e11b17905290516000918291829161016791620004a8919062000aec565b6000604051808303816000865af19150503d8060008114620004e7576040519150601f19603f3d011682016040523d82523d6000602084013e620004ec565b606091505b509150915081620004ff57601562000515565b8080602001905181019062000515919062000b22565b9250600383900b601614620005715760405162461bcd60e51b815260206004820152601f60248201527f536166652073696e676c65206173736f63696174696f6e206661696c6564210060448201526064015b60405180910390fd5b5050505050565b61010083015151600090849063ffffffff16158015620005a557506101008101516040015163ffffffff16155b15620005bc576101008101516276a7006040909101525b60008060006101676001600160a01b031634637812a04b60e01b8a8a8a604051602401620005ed9392919062000c3f565b60408051601f198184030181529181526020820180516001600160e01b03166001600160e01b03199094169390931790925290516200062d919062000aec565b60006040518083038185875af1925050503d80600081146200066c576040519150601f19603f3d011682016040523d82523d6000602084013e62000671565b606091505b5091509150816200068657601560006200069c565b808060200190518101906200069c919062000d6c565b95509250600383900b601614620007015760405162461bcd60e51b815260206004820152602260248201527f53616665206372656174652066756e6769626c6520746f6b656e206661696c65604482015261642160f01b606482015260840162000568565b505050509392505050565b604051806040016040528060008152602001620007656040518060a0016040528060001515815260200160006001600160a01b03168152602001606081526020016060815260200160006001600160a01b031681525090565b905290565b6001600160a01b03811681146200078057600080fd5b50565b634e487b7160e01b600052604160045260246000fd5b60005b83811015620007b65781810151838201526020016200079c565b50506000910152565b600082601f830112620007d157600080fd5b81516001600160401b0380821115620007ee57620007ee62000783565b604051601f8301601f19908116603f0116810190828211818310171562000819576200081962000783565b816040528381528660208588010111156200083357600080fd5b6200084684602083016020890162000799565b9695505050505050565b6000806000606084860312156200086657600080fd5b835162000873816200076a565b60208501519093506001600160401b03808211156200089157600080fd5b6200089f87838801620007bf565b93506040860151915080821115620008b657600080fd5b50620008c586828701620007bf565b9150509250925092565b600060208284031215620008e257600080fd5b815160ff81168114620008f457600080fd5b9392505050565b600181811c908216806200091057607f821691505b6020821081036200093157634e487b7160e01b600052602260045260246000fd5b50919050565b601f82111562000987576000816000526020600020601f850160051c81016020861015620009625750805b601f850160051c820191505b8181101562000983578281556001016200096e565b5050505b505050565b81516001600160401b03811115620009a857620009a862000783565b620009c081620009b98454620008fb565b8462000937565b602080601f831160018114620009f85760008415620009df5750858301515b600019600386901b1c1916600185901b17855562000983565b600085815260208120601f198616915b8281101562000a295788860151825594840194600190910190840162000a08565b508582101562000a485787850151600019600388901b60f8161c191681555b5050505050600190811b01905550565b634e487b7160e01b600052603260045260246000fd5b600080835462000a7e81620008fb565b6001828116801562000a99576001811462000aaf5762000ae0565b60ff198416875282151583028701945062000ae0565b8760005260208060002060005b8581101562000ad75781548a82015290840190820162000abc565b50505082870194505b50929695505050505050565b6000825162000b0081846020870162000799565b9190910192915050565b8051600381900b811462000b1d57600080fd5b919050565b60006020828403121562000b3557600080fd5b620008f48262000b0a565b6000815180845262000b5a81602086016020860162000799565b601f01601f19169290920160200192915050565b600082825180855260208086019550808260051b84010181860160005b8481101562000c3257858303601f1901895281518051845284015160408585018190528151151581860152818601516001600160a01b039081166060808801919091529183015160a0608080890182905291939092909162000bf160e08a018662000b40565b92860151898403603f1901858b015292945062000c0f858462000b40565b9501511660c0979097019690965250509884019892509083019060010162000b8b565b5090979650505050505050565b606081526000845161016080606085015262000c606101c085018362000b40565b91506020870151605f198086850301608087015262000c80848362000b40565b93506040890151915062000c9f60a08701836001600160a01b03169052565b60608901519150808685030160c087015262000cbc848362000b40565b93506080890151915062000cd460e087018315159052565b60a0890151915061010062000cf08188018463ffffffff169052565b60c08a0151151561012088015260e08a01518786038301610140890152925062000d1b858462000b6e565b9450808a01519250505062000d5882860182805163ffffffff90811683526020808301516001600160a01b03169084015260409182015116910152565b505060208301949094525060400152919050565b6000806040838503121562000d8057600080fd5b62000d8b8362000b0a565b9150602083015162000d9d816200076a565b809150509250929050565b60805160a05160c05160e0516125b162000e1a6000396000818161040a0152818161075a015281816108ef01528181610b7101528181610d8601528181610e66015281816111f601526112ea01526000610aea01526000610aba0152600081816103620152610a9001526125b16000f3fe60806040526004361061020f5760003560e01c80637e1c0c0911610118578063b3d7f6b9116100a0578063ce96cb771161006f578063ce96cb7714610674578063d505accf14610694578063d905777e146106b4578063dd62ed3e146106ea578063ef8b30f71461072257600080fd5b8063b3d7f6b914610614578063b460af9414610634578063ba08765214610654578063c63d75b61461042c57600080fd5b8063952db31f116100e7578063952db31f1461057357806395d89b41146105aa5780639e6b26ba146105bf5780639feb8f50146105df578063a9059cbb146105f457600080fd5b80637e1c0c09146104f05780637ecebe00146105065780638da5cb5b1461053357806394bf804d1461055357600080fd5b806335d16e171161019b578063402d267d1161016a578063402d267d1461042c5780634cdad5061461044e5780636e553f651461046e57806370a082311461048e5780637a07bf3a146104bb57600080fd5b806335d16e17146103965780633644e515146103ab57806337689c8d146103c057806338d52e0f146103f857600080fd5b806316ad0672116101e257806316ad0672146102ae57806318160ddd146102fa57806323b872dd146103105780632c62fa1014610330578063313ce5671461035057600080fd5b806301e1d1141461021457806306fdde031461023c578063095ea7b31461025e5780630a28a4771461028e575b600080fd5b34801561022057600080fd5b50610229610742565b6040519081526020015b60405180910390f35b34801561024857600080fd5b506102516107d2565b6040516102339190611e8d565b34801561026a57600080fd5b5061027e610279366004611ebc565b610860565b6040519015158152602001610233565b34801561029a57600080fd5b506102296102a9366004611ee6565b6108cd565b3480156102ba57600080fd5b506102e56102c9366004611eff565b600a602052600090815260409020805460029091015460ff1682565b60408051928352901515602083015201610233565b34801561030657600080fd5b5061022960025481565b34801561031c57600080fd5b5061027e61032b366004611f1a565b610984565b34801561033c57600080fd5b5061022961034b366004611eff565b610a64565b34801561035c57600080fd5b506103847f000000000000000000000000000000000000000000000000000000000000000081565b60405160ff9091168152602001610233565b3480156103a257600080fd5b50610229610a86565b3480156103b757600080fd5b50610229610ab6565b3480156103cc57600080fd5b506006546103e0906001600160a01b031681565b6040516001600160a01b039091168152602001610233565b34801561040457600080fd5b506103e07f000000000000000000000000000000000000000000000000000000000000000081565b34801561043857600080fd5b50610229610447366004611eff565b5060001990565b34801561045a57600080fd5b50610229610469366004611ee6565b610b0c565b34801561047a57600080fd5b50610229610489366004611f56565b610b2e565b34801561049a57600080fd5b506102296104a9366004611eff565b60036020526000908152604090205481565b3480156104c757600080fd5b506104db6104d6366004611ee6565b610c5d565b60408051928352602083019190915201610233565b3480156104fc57600080fd5b5061022960075481565b34801561051257600080fd5b50610229610521366004611eff565b60056020526000908152604090205481565b34801561053f57600080fd5b506009546103e0906001600160a01b031681565b34801561055f57600080fd5b5061022961056e366004611f56565b610d53565b34801561057f57600080fd5b506102e561058e366004611eff565b600b602052600090815260409020805460019091015460ff1682565b3480156105b657600080fd5b50610251610e97565b3480156105cb57600080fd5b506103e06105da366004611ee6565b610ea4565b6105f26105ed366004611ebc565b610ece565b005b34801561060057600080fd5b5061027e61060f366004611ebc565b6110b6565b34801561062057600080fd5b5061022961062f366004611ee6565b61111c565b34801561064057600080fd5b5061022961064f366004611f82565b61113e565b34801561066057600080fd5b5061022961066f366004611f82565b61121d565b34801561068057600080fd5b5061022961068f366004611eff565b611311565b3480156106a057600080fd5b506105f26106af366004611fbe565b61131c565b3480156106c057600080fd5b506102296106cf366004611eff565b6001600160a01b031660009081526003602052604090205490565b3480156106f657600080fd5b50610229610705366004612031565b600460209081526000928352604080842090915290825290205481565b34801561072e57600080fd5b5061022961073d366004611ee6565b611560565b6040516370a0823160e01b81523060048201526000907f00000000000000000000000000000000000000000000000000000000000000006001600160a01b0316906370a0823190602401602060405180830381865afa1580156107a9573d6000803e3d6000fd5b505050506040513d601f19601f820116820180604052508101906107cd919061205b565b905090565b600080546107df90612074565b80601f016020809104026020016040519081016040528092919081815260200182805461080b90612074565b80156108585780601f1061082d57610100808354040283529160200191610858565b820191906000526020600020905b81548152906001019060200180831161083b57829003601f168201915b505050505081565b3360008181526004602090815260408083206001600160a01b038716808552925280832085905551919290917f8c5be1e5ebec7d5bd14f71427d1e84f3dd0314c0f7b2291e5b200ac8c7c3b925906108bb9086815260200190565b60405180910390a35060015b92915050565b6040516370a0823160e01b815230600482015260009081906001600160a01b037f000000000000000000000000000000000000000000000000000000000000000016906370a0823190602401602060405180830381865afa158015610936573d6000803e3d6000fd5b505050506040513d601f19601f8201168201806040525081019061095a919061205b565b9050801561097b576109768161096e610742565b859190611581565b61097d565b825b9392505050565b6001600160a01b038316600090815260046020908152604080832033845290915281205460001981146109e0576109bb83826120c4565b6001600160a01b03861660009081526004602090815260408083203384529091529020555b6001600160a01b03851660009081526003602052604081208054859290610a089084906120c4565b90915550506001600160a01b038085166000818152600360205260409081902080548701905551909187169060008051602061255c83398151915290610a519087815260200190565b60405180910390a3506001949350505050565b6001600160a01b0381166000908152600360205260408120546108c790610b0c565b60006107cd6104697f0000000000000000000000000000000000000000000000000000000000000000600a6121bb565b60007f00000000000000000000000000000000000000000000000000000000000000004614610ae7576107cd6115a7565b507f000000000000000000000000000000000000000000000000000000000000000090565b600254600090801561097b57610976610b23610742565b600254859190611641565b6000610b3983611560565b905080600003610b6457604051636e3699b760e11b8152600481018490526024015b60405180910390fd5b610b996001600160a01b037f00000000000000000000000000000000000000000000000000000000000000001633308661165f565b8260076000828254610bab91906121ca565b909155505060065460408051600080825260208201909252610bf4926001600160a01b031691869190610bee565b6060815260200190600190039081610bd95790505b506116e9565b5050600654610c0e906001600160a01b031630338661182c565b60408051848152602081018390526001600160a01b0384169133917fdcbc1c05240f31ff3ad067ef1ee35ce4997762752e3a095284754544f4c709d7910160405180910390a36108c783611965565b600080825b60085481108015610c7c5750610c7984600a6121ca565b81105b15610d485760008060088381548110610c9757610c976121f3565b6000918252602080832090910154338352600a8252604080842080546001600160a01b039093168086526001918201855282862054600b9095529190942054909450610cee9392610ce7916120c4565b9190611641565b6001600160a01b0382166000818152600b602090815260408083205433808552600a8452828520868652600101909352922091909155919350610d339130908561165f565b50508080610d4090612209565b915050610c62565b505060085491929050565b6000610d6a82610d628561111c565b925082611a81565b60405163095ea7b360e01b8152306004820152602481018290527f00000000000000000000000000000000000000000000000000000000000000006001600160a01b03169063095ea7b3906044016020604051808303816000875af1158015610dd7573d6000803e3d6000fd5b505050506040513d601f19601f82011682018060405250810190610dfb9190612222565b508060076000828254610e0e91906121ca565b909155505060408051828152602081018590526001600160a01b0384169133917fdcbc1c05240f31ff3ad067ef1ee35ce4997762752e3a095284754544f4c709d7910160405180910390a3610e8e6001600160a01b037f00000000000000000000000000000000000000000000000000000000000000001633308461165f565b6108c781611965565b600180546107df90612074565b60088181548110610eb457600080fd5b6000918252602090912001546001600160a01b0316905081565b80600003610f165760405162461bcd60e51b81526020600482015260156024820152741c1b19585cd9481c1c9bdd9a591948185b5bdd5b9d605a1b6044820152606401610b5b565b600754600003610f5e5760405162461bcd60e51b81526020600482015260136024820152721b9bc81d1bdad95b881cdd185ad959081e595d606a1b6044820152606401610b5b565b6009546001600160a01b03163314610fa55760405162461bcd60e51b815260206004820152600a60248201526927b7363c9037bbb732b960b11b6044820152606401610b5b565b6000610fbf6001600754846116419092919063ffffffff16565b6001600160a01b0384166000908152600b602052604090206001015490915060ff16611073576008805460018082019092557ff3f7a9fe364faab93b216da50a3214154f22a0a2b415b23a84c8169e8b636ee30180546001600160a01b0319166001600160a01b0386169081179091556000908152600b60205260409020808201805460ff19169092179091558190556110598330611adb565b61106e6001600160a01b03841633308561165f565b505050565b6001600160a01b0383166000908152600b60205260408120805483929061109b9084906121ca565b9091555061106e90506001600160a01b03841633308561165f565b336000908152600360205260408120805483919083906110d79084906120c4565b90915550506001600160a01b0383166000818152600360205260409081902080548501905551339060008051602061255c833981519152906108bb9086815260200190565b600254600090801561097b57610976611133610742565b600254859190611581565b600061114984611bf9565b600654611161906001600160a01b031633308761182c565b600654604080516000815260208101909152611188916001600160a01b0316908690611c31565b50836007600082825461119b91906120c4565b909155505060408051858152602081018390526001600160a01b0380861692908516917ff341246adaac6f497bc2a656f546ab9e182111d630394f0c57c710a59a2cb567910160405180910390a361097d6001600160a01b037f0000000000000000000000000000000000000000000000000000000000000000168486611d5d565b600061122884610b0c565b9050806000036112685760405162461bcd60e51b815260206004820152600b60248201526a5a45524f5f41535345545360a81b6044820152606401610b5b565b61127184610b0c565b905061127d8285611ddb565b806007600082825461128f91906120c4565b909155505060408051828152602081018690526001600160a01b0380861692908516917ff341246adaac6f497bc2a656f546ab9e182111d630394f0c57c710a59a2cb567910160405180910390a361097d6001600160a01b037f0000000000000000000000000000000000000000000000000000000000000000168483611d5d565b60006108c782610a64565b4284101561136c5760405162461bcd60e51b815260206004820152601760248201527f5045524d49545f444541444c494e455f455850495245440000000000000000006044820152606401610b5b565b60006001611378610ab6565b6001600160a01b038a811660008181526005602090815260409182902080546001810190915582517f6e71edae12b1b97f4d1f60370fef10105fa2faae0126114a169c64845d6126c98184015280840194909452938d166060840152608083018c905260a083019390935260c08083018b90528151808403909101815260e08301909152805192019190912061190160f01b6101008301526101028201929092526101228101919091526101420160408051601f198184030181528282528051602091820120600084529083018083525260ff871690820152606081018590526080810184905260a0016020604051602081039080840390855afa158015611484573d6000803e3d6000fd5b5050604051601f1901519150506001600160a01b038116158015906114ba5750876001600160a01b0316816001600160a01b0316145b6114f75760405162461bcd60e51b815260206004820152600e60248201526d24a72b20a624a22fa9a4a3a722a960911b6044820152606401610b5b565b6001600160a01b0390811660009081526004602090815260408083208a8516808552908352928190208990555188815291928a16917f8c5be1e5ebec7d5bd14f71427d1e84f3dd0314c0f7b2291e5b200ac8c7c3b925910160405180910390a350505050505050565b600254600090801561097b576109766001611579610742565b859190611641565b600082600019048411830215820261159857600080fd5b50910281810615159190040190565b60007f8b73c3c69bb8fe3d512ecc4cf759cc79239f7b179b0ffacaa9a75d522b39400f60006040516115d99190612244565b6040805191829003822060208301939093528101919091527fc89efdaa54c0f20c7adf612882df0950f5a951637e0307cdcb4c672f298b8bc660608201524660808201523060a082015260c00160405160208183030381529060405280519060200120905090565b600082600019048411830215820261165857600080fd5b5091020490565b60006040516323b872dd60e01b81528460048201528360248201528260448201526020600060648360008a5af13d15601f3d11600160005114161716915050806116e25760405162461bcd60e51b81526020600482015260146024820152731514905394d1915497d19493d357d1905253115160621b6044820152606401610b5b565b5050505050565b6000606060008060006101676001600160a01b031663278e0b8860e01b89898960405160240161171b939291906122e5565b60408051601f198184030181529181526020820180516001600160e01b03166001600160e01b0319909416939093179092529051611759919061236a565b6000604051808303816000865af19150503d8060008114611796576040519150601f19603f3d011682016040523d82523d6000602084013e61179b565b606091505b5091509150816117be5760408051600080825260208201909252601591906117d2565b808060200190518101906117d291906123c2565b90965094509250600383900b6016146118215760405162461bcd60e51b815260206004820152601160248201527053616665206d696e74206661696c65642160781b6044820152606401610b5b565b505050935093915050565b604080516001600160a01b038681166024830152858116604483015284166064820152600783900b6084808301919091528251808303909101815260a490910182526020810180516001600160e01b031663eca3691760e01b1790529051600091829182916101679161189f919061236a565b6000604051808303816000865af19150503d80600081146118dc576040519150601f19603f3d011682016040523d82523d6000602084013e6118e1565b606091505b5091509150816118f2576015611906565b8080602001905181019061190691906124aa565b9250600383900b60161461195c5760405162461bcd60e51b815260206004820152601b60248201527f5361666520746f6b656e207472616e73666572206661696c65642100000000006044820152606401610b5b565b50505050505050565b336000908152600a602052604090206002015460ff16611a345760005b6008548110156119f6576000600882815481106119a1576119a16121f3565b60009182526020808320909101546001600160a01b0316808352600b825260408084205433808652600a85528286208487526001019094529320929092559091506119ed908290611adb565b50600101611982565b50336000908152600a60205260408120828155600201805460ff1916600117905560078054839290611a299084906121ca565b90915550611a7e9050565b611a3e6000610c5d565b5050336000908152600a602052604081208054839290611a5f9084906121ca565b925050819055508060076000828254611a7891906121ca565b90915550505b50565b8060026000828254611a9391906121ca565b90915550506001600160a01b03821660008181526003602090815260408083208054860190555184815260008051602061255c83398151915291015b60405180910390a35050565b604080516001600160a01b038381166024830152841660448083019190915282518083039091018152606490910182526020810180516001600160e01b031663248a35ef60e11b17905290516000918291829161016791611b3c919061236a565b6000604051808303816000865af19150503d8060008114611b79576040519150601f19603f3d011682016040523d82523d6000602084013e611b7e565b606091505b509150915081611b8f576015611ba3565b80806020019051810190611ba391906124aa565b9250600383900b6016146116e25760405162461bcd60e51b815260206004820152601f60248201527f536166652073696e676c65206173736f63696174696f6e206661696c656421006044820152606401610b5b565b336000908152600a602052604081208054839290611c189084906120c4565b925050819055508060076000828254611a7891906120c4565b6000806000806101676001600160a01b031663acb9cff960e01b888888604051602401611c60939291906124c5565b60408051601f198184030181529181526020820180516001600160e01b03166001600160e01b0319909416939093179092529051611c9e919061236a565b6000604051808303816000865af19150503d8060008114611cdb576040519150601f19603f3d011682016040523d82523d6000602084013e611ce0565b606091505b509150915081611cf35760156000611d07565b80806020019051810190611d079190612531565b94509250600383900b601614611d535760405162461bcd60e51b815260206004820152601160248201527053616665206275726e206661696c65642160781b6044820152606401610b5b565b5050509392505050565b600060405163a9059cbb60e01b8152836004820152826024820152602060006044836000895af13d15601f3d1160016000511416171691505080611dd55760405162461bcd60e51b815260206004820152600f60248201526e1514905394d1915497d19052531151608a1b6044820152606401610b5b565b50505050565b6001600160a01b03821660009081526003602052604081208054839290611e039084906120c4565b90915550506002805482900390556040518181526000906001600160a01b0384169060008051602061255c83398151915290602001611acf565b60005b83811015611e58578181015183820152602001611e40565b50506000910152565b60008151808452611e79816020860160208601611e3d565b601f01601f19169290920160200192915050565b60208152600061097d6020830184611e61565b80356001600160a01b0381168114611eb757600080fd5b919050565b60008060408385031215611ecf57600080fd5b611ed883611ea0565b946020939093013593505050565b600060208284031215611ef857600080fd5b5035919050565b600060208284031215611f1157600080fd5b61097d82611ea0565b600080600060608486031215611f2f57600080fd5b611f3884611ea0565b9250611f4660208501611ea0565b9150604084013590509250925092565b60008060408385031215611f6957600080fd5b82359150611f7960208401611ea0565b90509250929050565b600080600060608486031215611f9757600080fd5b83359250611fa760208501611ea0565b9150611fb560408501611ea0565b90509250925092565b600080600080600080600060e0888a031215611fd957600080fd5b611fe288611ea0565b9650611ff060208901611ea0565b95506040880135945060608801359350608088013560ff8116811461201457600080fd5b9699959850939692959460a0840135945060c09093013592915050565b6000806040838503121561204457600080fd5b61204d83611ea0565b9150611f7960208401611ea0565b60006020828403121561206d57600080fd5b5051919050565b600181811c9082168061208857607f821691505b6020821081036120a857634e487b7160e01b600052602260045260246000fd5b50919050565b634e487b7160e01b600052601160045260246000fd5b818103818111156108c7576108c76120ae565b600181815b808511156121125781600019048211156120f8576120f86120ae565b8085161561210557918102915b93841c93908002906120dc565b509250929050565b600082612129575060016108c7565b81612136575060006108c7565b816001811461214c576002811461215657612172565b60019150506108c7565b60ff841115612167576121676120ae565b50506001821b6108c7565b5060208310610133831016604e8410600b8410161715612195575081810a6108c7565b61219f83836120d7565b80600019048211156121b3576121b36120ae565b029392505050565b600061097d60ff84168361211a565b808201808211156108c7576108c76120ae565b634e487b7160e01b600052604160045260246000fd5b634e487b7160e01b600052603260045260246000fd5b60006001820161221b5761221b6120ae565b5060010190565b60006020828403121561223457600080fd5b8151801515811461097d57600080fd5b60008083548160018260011c9150600183168061226257607f831692505b6020808410820361228157634e487b7160e01b86526022600452602486fd5b81801561229557600181146122aa576122d7565b60ff19861689528415158502890196506122d7565b60008a81526020902060005b868110156122cf5781548b8201529085019083016122b6565b505084890196505b509498975050505050505050565b60006060820160018060a01b0386168352602067ffffffffffffffff861660208501526060604085015281855180845260808601915060808160051b87010193506020870160005b8281101561235b57607f19888703018452612349868351611e61565b9550928401929084019060010161232d565b50939998505050505050505050565b6000825161237c818460208701611e3d565b9190910192915050565b8051600381900b8114611eb757600080fd5b805167ffffffffffffffff81168114611eb757600080fd5b8051600781900b8114611eb757600080fd5b6000806000606084860312156123d757600080fd5b6123e084612386565b925060206123ef818601612398565b9250604085015167ffffffffffffffff8082111561240c57600080fd5b818701915087601f83011261242057600080fd5b815181811115612432576124326121dd565b8060051b604051601f19603f83011681018181108582111715612457576124576121dd565b60405291825284820192508381018501918a83111561247557600080fd5b938501935b8285101561249a5761248b856123b0565b8452938501939285019261247a565b8096505050505050509250925092565b6000602082840312156124bc57600080fd5b61097d82612386565b6001600160a01b038416815267ffffffffffffffff83166020808301919091526060604083018190528351908301819052600091848101916080850190845b8181101561252357845160070b83529383019391830191600101612504565b509098975050505050505050565b6000806040838503121561254457600080fd5b61254d83612386565b9150611f796020840161239856feddf252ad1be2c89b69c2b068fc378daa952ba7f163c4a11628f55a4df523b3efa2646970667358221220ea23126cc34151b09d536479d12e22fed1bddcff6886ae407cacbbfde50f168964736f6c63430008180033",
  "linkReferences": {},
  "deployedLinkReferences": {}
}