{
  "_format": "hh-sol-artifact-1",
  "contractName": "HederaVault",
  "sourceName": "contracts/erc4626/Vault.sol",
  "abi": [
    {
      "inputs": [
        {
          "internalType": "contract ERC20",
          "name": "_underlying",
          "type": "address"
        },
        {
          "internalType": "string",
          "name": "_name",
          "type": "string"
        },
        {
          "internalType": "string",
          "name": "_symbol",
          "type": "string"
        }
      ],
      "stateMutability": "payable",
      "type": "constructor"
    },
    {
      "anonymous": false,
      "inputs": [
        {
          "indexed": true,
          "internalType": "address",
          "name": "owner",
          "type": "address"
        },
        {
          "indexed": true,
          "internalType": "address",
          "name": "spender",
          "type": "address"
        },
        {
          "indexed": false,
          "internalType": "uint256",
          "name": "amount",
          "type": "uint256"
        }
      ],
      "name": "Approval",
      "type": "event"
    },
    {
      "anonymous": false,
      "inputs": [
        {
          "indexed": true,
          "internalType": "address",
          "name": "from",
          "type": "address"
        },
        {
          "indexed": true,
          "internalType": "address",
          "name": "to",
          "type": "address"
        },
        {
          "indexed": false,
          "internalType": "uint256",
          "name": "amount",
          "type": "uint256"
        },
        {
          "indexed": false,
          "internalType": "uint256",
          "name": "shares",
          "type": "uint256"
        }
      ],
      "name": "Deposit",
      "type": "event"
    },
    {
      "anonymous": false,
      "inputs": [
        {
          "indexed": true,
          "internalType": "address",
          "name": "from",
          "type": "address"
        },
        {
          "indexed": true,
          "internalType": "address",
          "name": "to",
          "type": "address"
        },
        {
          "indexed": false,
          "internalType": "uint256",
          "name": "amount",
          "type": "uint256"
        }
      ],
      "name": "Transfer",
      "type": "event"
    },
    {
      "anonymous": false,
      "inputs": [
        {
          "indexed": true,
          "internalType": "address",
          "name": "from",
          "type": "address"
        },
        {
          "indexed": true,
          "internalType": "address",
          "name": "to",
          "type": "address"
        },
        {
          "indexed": false,
          "internalType": "uint256",
          "name": "amount",
          "type": "uint256"
        },
        {
          "indexed": false,
          "internalType": "uint256",
          "name": "shares",
          "type": "uint256"
        }
      ],
      "name": "Withdraw",
      "type": "event"
    },
    {
      "anonymous": false,
      "inputs": [
        {
          "indexed": true,
          "internalType": "address",
          "name": "createdTokenAddress",
          "type": "address"
        }
      ],
      "name": "createdToken",
      "type": "event"
    },
    {
      "inputs": [],
      "name": "DOMAIN_SEPARATOR",
      "outputs": [
        {
          "internalType": "bytes32",
          "name": "",
          "type": "bytes32"
        }
      ],
      "stateMutability": "view",
      "type": "function"
    },
    {
      "inputs": [
        {
          "internalType": "address",
          "name": "",
          "type": "address"
        },
        {
          "internalType": "address",
          "name": "",
          "type": "address"
        }
      ],
      "name": "allowance",
      "outputs": [
        {
          "internalType": "uint256",
          "name": "",
          "type": "uint256"
        }
      ],
      "stateMutability": "view",
      "type": "function"
    },
    {
      "inputs": [
        {
          "internalType": "address",
          "name": "spender",
          "type": "address"
        },
        {
          "internalType": "uint256",
          "name": "amount",
          "type": "uint256"
        }
      ],
      "name": "approve",
      "outputs": [
        {
          "internalType": "bool",
          "name": "",
          "type": "bool"
        }
      ],
      "stateMutability": "nonpayable",
      "type": "function"
    },
    {
      "inputs": [],
      "name": "asset",
      "outputs": [
        {
          "internalType": "contract ERC20",
          "name": "",
          "type": "address"
        }
      ],
      "stateMutability": "view",
      "type": "function"
    },
    {
      "inputs": [
        {
          "internalType": "address",
          "name": "user",
          "type": "address"
        }
      ],
      "name": "assetsOf",
      "outputs": [
        {
          "internalType": "uint256",
          "name": "",
          "type": "uint256"
        }
      ],
      "stateMutability": "view",
      "type": "function"
    },
    {
      "inputs": [],
      "name": "assetsPerShare",
      "outputs": [
        {
          "internalType": "uint256",
          "name": "",
          "type": "uint256"
        }
      ],
      "stateMutability": "view",
      "type": "function"
    },
    {
      "inputs": [
        {
          "internalType": "address",
          "name": "",
          "type": "address"
        }
      ],
      "name": "balanceOf",
      "outputs": [
        {
          "internalType": "uint256",
          "name": "",
          "type": "uint256"
        }
      ],
      "stateMutability": "view",
      "type": "function"
    },
    {
      "inputs": [
        {
          "internalType": "uint256",
          "name": "_startPosition",
          "type": "uint256"
        }
      ],
      "name": "claimAllReward",
      "outputs": [
        {
          "internalType": "uint256",
          "name": "",
          "type": "uint256"
        },
        {
          "internalType": "uint256",
          "name": "",
          "type": "uint256"
        }
      ],
      "stateMutability": "nonpayable",
      "type": "function"
    },
    {
      "inputs": [],
      "name": "decimals",
      "outputs": [
        {
          "internalType": "uint8",
          "name": "",
          "type": "uint8"
        }
      ],
      "stateMutability": "view",
      "type": "function"
    },
    {
      "inputs": [
        {
          "internalType": "uint256",
          "name": "amount",
          "type": "uint256"
        },
        {
          "internalType": "address",
          "name": "to",
          "type": "address"
        }
      ],
      "name": "deposit",
      "outputs": [
        {
          "internalType": "uint256",
          "name": "shares",
          "type": "uint256"
        }
      ],
      "stateMutability": "nonpayable",
      "type": "function"
    },
    {
      "inputs": [
        {
          "internalType": "address",
          "name": "",
          "type": "address"
        }
      ],
      "name": "maxDeposit",
      "outputs": [
        {
          "internalType": "uint256",
          "name": "",
          "type": "uint256"
        }
      ],
      "stateMutability": "pure",
      "type": "function"
    },
    {
      "inputs": [
        {
          "internalType": "address",
          "name": "",
          "type": "address"
        }
      ],
      "name": "maxMint",
      "outputs": [
        {
          "internalType": "uint256",
          "name": "",
          "type": "uint256"
        }
      ],
      "stateMutability": "pure",
      "type": "function"
    },
    {
      "inputs": [
        {
          "internalType": "address",
          "name": "user",
          "type": "address"
        }
      ],
      "name": "maxRedeem",
      "outputs": [
        {
          "internalType": "uint256",
          "name": "",
          "type": "uint256"
        }
      ],
      "stateMutability": "view",
      "type": "function"
    },
    {
      "inputs": [
        {
          "internalType": "address",
          "name": "user",
          "type": "address"
        }
      ],
      "name": "maxWithdraw",
      "outputs": [
        {
          "internalType": "uint256",
          "name": "",
          "type": "uint256"
        }
      ],
      "stateMutability": "view",
      "type": "function"
    },
    {
      "inputs": [
        {
          "internalType": "uint256",
          "name": "shares",
          "type": "uint256"
        },
        {
          "internalType": "address",
          "name": "to",
          "type": "address"
        }
      ],
      "name": "mint",
      "outputs": [
        {
          "internalType": "uint256",
          "name": "amount",
          "type": "uint256"
        }
      ],
      "stateMutability": "nonpayable",
      "type": "function"
    },
    {
      "inputs": [],
      "name": "name",
      "outputs": [
        {
          "internalType": "string",
          "name": "",
          "type": "string"
        }
      ],
      "stateMutability": "view",
      "type": "function"
    },
    {
      "inputs": [
        {
          "internalType": "address",
          "name": "",
          "type": "address"
        }
      ],
      "name": "nonces",
      "outputs": [
        {
          "internalType": "uint256",
          "name": "",
          "type": "uint256"
        }
      ],
      "stateMutability": "view",
      "type": "function"
    },
    {
      "inputs": [],
      "name": "owner",
      "outputs": [
        {
          "internalType": "address",
          "name": "",
          "type": "address"
        }
      ],
      "stateMutability": "view",
      "type": "function"
    },
    {
      "inputs": [
        {
          "internalType": "address",
          "name": "owner",
          "type": "address"
        },
        {
          "internalType": "address",
          "name": "spender",
          "type": "address"
        },
        {
          "internalType": "uint256",
          "name": "value",
          "type": "uint256"
        },
        {
          "internalType": "uint256",
          "name": "deadline",
          "type": "uint256"
        },
        {
          "internalType": "uint8",
          "name": "v",
          "type": "uint8"
        },
        {
          "internalType": "bytes32",
          "name": "r",
          "type": "bytes32"
        },
        {
          "internalType": "bytes32",
          "name": "s",
          "type": "bytes32"
        }
      ],
      "name": "permit",
      "outputs": [],
      "stateMutability": "nonpayable",
      "type": "function"
    },
    {
      "inputs": [
        {
          "internalType": "uint256",
          "name": "amount",
          "type": "uint256"
        }
      ],
      "name": "previewDeposit",
      "outputs": [
        {
          "internalType": "uint256",
          "name": "shares",
          "type": "uint256"
        }
      ],
      "stateMutability": "view",
      "type": "function"
    },
    {
      "inputs": [
        {
          "internalType": "uint256",
          "name": "shares",
          "type": "uint256"
        }
      ],
      "name": "previewMint",
      "outputs": [
        {
          "internalType": "uint256",
          "name": "amount",
          "type": "uint256"
        }
      ],
      "stateMutability": "view",
      "type": "function"
    },
    {
      "inputs": [
        {
          "internalType": "uint256",
          "name": "shares",
          "type": "uint256"
        }
      ],
      "name": "previewRedeem",
      "outputs": [
        {
          "internalType": "uint256",
          "name": "amount",
          "type": "uint256"
        }
      ],
      "stateMutability": "view",
      "type": "function"
    },
    {
      "inputs": [
        {
          "internalType": "uint256",
          "name": "amount",
          "type": "uint256"
        }
      ],
      "name": "previewWithdraw",
      "outputs": [
        {
          "internalType": "uint256",
          "name": "shares",
          "type": "uint256"
        }
      ],
      "stateMutability": "view",
      "type": "function"
    },
    {
      "inputs": [
        {
          "internalType": "uint256",
          "name": "shares",
          "type": "uint256"
        },
        {
          "internalType": "address",
          "name": "to",
          "type": "address"
        },
        {
          "internalType": "address",
          "name": "from",
          "type": "address"
        }
      ],
      "name": "redeem",
      "outputs": [
        {
          "internalType": "uint256",
          "name": "amount",
          "type": "uint256"
        }
      ],
      "stateMutability": "nonpayable",
      "type": "function"
    },
    {
      "inputs": [
        {
          "internalType": "address",
          "name": "",
          "type": "address"
        }
      ],
      "name": "rewardsAddress",
      "outputs": [
        {
          "internalType": "uint256",
          "name": "amount",
          "type": "uint256"
        },
        {
          "internalType": "bool",
          "name": "exist",
          "type": "bool"
        }
      ],
      "stateMutability": "view",
      "type": "function"
    },
    {
      "inputs": [],
      "name": "symbol",
      "outputs": [
        {
          "internalType": "string",
          "name": "",
          "type": "string"
        }
      ],
      "stateMutability": "view",
      "type": "function"
    },
    {
      "inputs": [],
      "name": "totalAssets",
      "outputs": [
        {
          "internalType": "uint256",
          "name": "",
          "type": "uint256"
        }
      ],
      "stateMutability": "view",
      "type": "function"
    },
    {
      "inputs": [],
      "name": "totalSupply",
      "outputs": [
        {
          "internalType": "uint256",
          "name": "",
          "type": "uint256"
        }
      ],
      "stateMutability": "view",
      "type": "function"
    },
    {
      "inputs": [],
      "name": "totalTokens",
      "outputs": [
        {
          "internalType": "uint256",
          "name": "",
          "type": "uint256"
        }
      ],
      "stateMutability": "view",
      "type": "function"
    },
    {
      "inputs": [
        {
          "internalType": "address",
          "name": "to",
          "type": "address"
        },
        {
          "internalType": "uint256",
          "name": "amount",
          "type": "uint256"
        }
      ],
      "name": "transfer",
      "outputs": [
        {
          "internalType": "bool",
          "name": "",
          "type": "bool"
        }
      ],
      "stateMutability": "nonpayable",
      "type": "function"
    },
    {
      "inputs": [
        {
          "internalType": "address",
          "name": "from",
          "type": "address"
        },
        {
          "internalType": "address",
          "name": "to",
          "type": "address"
        },
        {
          "internalType": "uint256",
          "name": "amount",
          "type": "uint256"
        }
      ],
      "name": "transferFrom",
      "outputs": [
        {
          "internalType": "bool",
          "name": "",
          "type": "bool"
        }
      ],
      "stateMutability": "nonpayable",
      "type": "function"
    },
    {
      "inputs": [
        {
          "internalType": "address",
          "name": "",
          "type": "address"
        }
      ],
      "name": "userContribution",
      "outputs": [
        {
          "internalType": "uint256",
          "name": "num_shares",
          "type": "uint256"
        },
        {
          "internalType": "bool",
          "name": "exist",
          "type": "bool"
        }
      ],
      "stateMutability": "view",
      "type": "function"
    },
    {
      "inputs": [
        {
          "internalType": "uint256",
          "name": "amount",
          "type": "uint256"
        },
        {
          "internalType": "address",
          "name": "to",
          "type": "address"
        },
        {
          "internalType": "address",
          "name": "from",
          "type": "address"
        }
      ],
      "name": "withdraw",
      "outputs": [
        {
          "internalType": "uint256",
          "name": "shares",
          "type": "uint256"
        }
      ],
      "stateMutability": "nonpayable",
      "type": "function"
    }
  ],
  "bytecode": "0x61010060405260405162002f2a38038062002f2a833981016040819052620000279162000840565b8181846001600160a01b031663313ce5676040518163ffffffff1660e01b8152600401602060405180830381865afa15801562000068573d6000803e3d6000fd5b505050506040513d601f19601f820116820180604052508101906200008e9190620008bf565b60006200009c84826200097c565b506001620000ab83826200097c565b5060ff81166080524660a052620000c162000399565b60c05250620000d591508490503062000435565b6040805160a08082018352600080835260208084018290526060848601819052808501819052306080808701829052875195860188528486528584018590528588018390528583018390528501528551600280825291810190965260109560019594939290919082015b62000149620006fc565b8152602001906001900390816200013f579050509050604051806040016040528086815260200184815250816000815181106200018a576200018a62000a48565b602002602001018190525060405180604001604052808581526020018381525081600181518110620001c057620001c062000a48565b6020026020010181905250620002056040518060600160405280600063ffffffff16815260200160006001600160a01b03168152602001600063ffffffff1681525090565b306020820152627a120060408201526200027b60408051610120810182526060808252602080830182905260008385018190528284018390526080840181905260a0840181905260c0840181905260e0840183905284519283018552808352908201819052928101929092529061010082015290565b8881600001819052508781602001819052503081604001906001600160a01b031690816001600160a01b03168152505081816101000181905250828160e00181905250620003338160008c6001600160a01b031663313ce5676040518163ffffffff1660e01b8152600401602060405180830381865afa15801562000304573d6000803e3d6000fd5b505050506040513d601f19601f820116820180604052508101906200032a9190620008bf565b60ff1662000568565b600680546001600160a01b0319166001600160a01b039290921691821790556040517fb0f62349afe9332ab01e757369c87d6428079f01d54548e21bfdefb268209b2290600090a25050506001600160a01b0390961660e0525062000d98945050505050565b60007f8b73c3c69bb8fe3d512ecc4cf759cc79239f7b179b0ffacaa9a75d522b39400f6000604051620003cd919062000a5e565b6040805191829003822060208301939093528101919091527fc89efdaa54c0f20c7adf612882df0950f5a951637e0307cdcb4c672f298b8bc660608201524660808201523060a082015260c00160405160208183030381529060405280519060200120905090565b604080516001600160a01b038381166024830152841660448083019190915282518083039091018152606490910182526020810180516001600160e01b031663248a35ef60e11b1790529051600091829182916101679162000498919062000adc565b6000604051808303816000865af19150503d8060008114620004d7576040519150601f19603f3d011682016040523d82523d6000602084013e620004dc565b606091505b509150915081620004ef57601562000505565b8080602001905181019062000505919062000b12565b9250600383900b601614620005615760405162461bcd60e51b815260206004820152601f60248201527f536166652073696e676c65206173736f63696174696f6e206661696c6564210060448201526064015b60405180910390fd5b5050505050565b61010083015151600090849063ffffffff161580156200059557506101008101516040015163ffffffff16155b15620005ac576101008101516276a7006040909101525b60008060006101676001600160a01b031634637812a04b60e01b8a8a8a604051602401620005dd9392919062000c2f565b60408051601f198184030181529181526020820180516001600160e01b03166001600160e01b03199094169390931790925290516200061d919062000adc565b60006040518083038185875af1925050503d80600081146200065c576040519150601f19603f3d011682016040523d82523d6000602084013e62000661565b606091505b5091509150816200067657601560006200068c565b808060200190518101906200068c919062000d5c565b95509250600383900b601614620006f15760405162461bcd60e51b815260206004820152602260248201527f53616665206372656174652066756e6769626c6520746f6b656e206661696c65604482015261642160f01b606482015260840162000558565b505050509392505050565b604051806040016040528060008152602001620007556040518060a0016040528060001515815260200160006001600160a01b03168152602001606081526020016060815260200160006001600160a01b031681525090565b905290565b6001600160a01b03811681146200077057600080fd5b50565b634e487b7160e01b600052604160045260246000fd5b60005b83811015620007a65781810151838201526020016200078c565b50506000910152565b600082601f830112620007c157600080fd5b81516001600160401b0380821115620007de57620007de62000773565b604051601f8301601f19908116603f0116810190828211818310171562000809576200080962000773565b816040528381528660208588010111156200082357600080fd5b6200083684602083016020890162000789565b9695505050505050565b6000806000606084860312156200085657600080fd5b835162000863816200075a565b60208501519093506001600160401b03808211156200088157600080fd5b6200088f87838801620007af565b93506040860151915080821115620008a657600080fd5b50620008b586828701620007af565b9150509250925092565b600060208284031215620008d257600080fd5b815160ff81168114620008e457600080fd5b9392505050565b600181811c908216806200090057607f821691505b6020821081036200092157634e487b7160e01b600052602260045260246000fd5b50919050565b601f82111562000977576000816000526020600020601f850160051c81016020861015620009525750805b601f850160051c820191505b8181101562000973578281556001016200095e565b5050505b505050565b81516001600160401b0381111562000998576200099862000773565b620009b081620009a98454620008eb565b8462000927565b602080601f831160018114620009e85760008415620009cf5750858301515b600019600386901b1c1916600185901b17855562000973565b600085815260208120601f198616915b8281101562000a1957888601518255948401946001909101908401620009f8565b508582101562000a385787850151600019600388901b60f8161c191681555b5050505050600190811b01905550565b634e487b7160e01b600052603260045260246000fd5b600080835462000a6e81620008eb565b6001828116801562000a89576001811462000a9f5762000ad0565b60ff198416875282151583028701945062000ad0565b8760005260208060002060005b8581101562000ac75781548a82015290840190820162000aac565b50505082870194505b50929695505050505050565b6000825162000af081846020870162000789565b9190910192915050565b8051600381900b811462000b0d57600080fd5b919050565b60006020828403121562000b2557600080fd5b620008e48262000afa565b6000815180845262000b4a81602086016020860162000789565b601f01601f19169290920160200192915050565b600082825180855260208086019550808260051b84010181860160005b8481101562000c2257858303601f1901895281518051845284015160408585018190528151151581860152818601516001600160a01b039081166060808801919091529183015160a0608080890182905291939092909162000be160e08a018662000b30565b92860151898403603f1901858b015292945062000bff858462000b30565b9501511660c0979097019690965250509884019892509083019060010162000b7b565b5090979650505050505050565b606081526000845161016080606085015262000c506101c085018362000b30565b91506020870151605f198086850301608087015262000c70848362000b30565b93506040890151915062000c8f60a08701836001600160a01b03169052565b60608901519150808685030160c087015262000cac848362000b30565b93506080890151915062000cc460e087018315159052565b60a0890151915061010062000ce08188018463ffffffff169052565b60c08a0151151561012088015260e08a01518786038301610140890152925062000d0b858462000b5e565b9450808a01519250505062000d4882860182805163ffffffff90811683526020808301516001600160a01b03169084015260409182015116910152565b505060208301949094525060400152919050565b6000806040838503121562000d7057600080fd5b62000d7b8362000afa565b9150602083015162000d8d816200075a565b809150509250929050565b60805160a05160c05160e05161211962000e116000396000818161032201528181610553015281816106e80152818161099301528181610a1601528181610c2b01528181610d0b01528181610e890152610f7d015260006108e3015260006108b30152600081816102d9015261088901526121196000f3fe608060405234801561001057600080fd5b50600436106101fb5760003560e01c80637a07bf3a1161011a578063b3d7f6b9116100ad578063ce96cb771161007c578063ce96cb77146104ac578063d505accf146104bf578063d905777e146104d4578063dd62ed3e146104fd578063ef8b30f71461052857600080fd5b8063b3d7f6b914610473578063b460af9414610486578063ba08765214610499578063c63d75b61461035c57600080fd5b806394bf804d116100e957806394bf804d1461041b578063952db31f1461042e57806395d89b4114610458578063a9059cbb1461046057600080fd5b80637a07bf3a146103b75780637e1c0c09146103df5780637ecebe00146103e85780638da5cb5b1461040857600080fd5b8063313ce56711610192578063402d267d11610161578063402d267d1461035c5780634cdad506146103715780636e553f651461038457806370a082311461039757600080fd5b8063313ce567146102d457806335d16e171461030d5780633644e5151461031557806338d52e0f1461031d57600080fd5b806316ad0672116101ce57806316ad06721461026657806318160ddd146102a557806323b872dd146102ae5780632c62fa10146102c157600080fd5b806301e1d1141461020057806306fdde031461021b578063095ea7b3146102305780630a28a47714610253575b600080fd5b61020861053b565b6040519081526020015b60405180910390f35b6102236105cb565b60405161021291906119f5565b61024361023e366004611a24565b610659565b6040519015158152602001610212565b610208610261366004611a4e565b6106c6565b610290610274366004611a67565b600a602052600090815260409020805460029091015460ff1682565b60408051928352901515602083015201610212565b61020860025481565b6102436102bc366004611a82565b61077d565b6102086102cf366004611a67565b61085d565b6102fb7f000000000000000000000000000000000000000000000000000000000000000081565b60405160ff9091168152602001610212565b61020861087f565b6102086108af565b6103447f000000000000000000000000000000000000000000000000000000000000000081565b6040516001600160a01b039091168152602001610212565b61020861036a366004611a67565b5060001990565b61020861037f366004611a4e565b610905565b610208610392366004611abe565b610927565b6102086103a5366004611a67565b60036020526000908152604090205481565b6103ca6103c5366004611a4e565b610b02565b60408051928352602083019190915201610212565b61020860075481565b6102086103f6366004611a67565b60056020526000908152604090205481565b600954610344906001600160a01b031681565b610208610429366004611abe565b610bf8565b61029061043c366004611a67565b600b602052600090815260409020805460019091015460ff1682565b610223610d3c565b61024361046e366004611a24565b610d49565b610208610481366004611a4e565b610daf565b610208610494366004611aea565b610dd1565b6102086104a7366004611aea565b610eb0565b6102086104ba366004611a67565b610fa4565b6104d26104cd366004611b26565b610faf565b005b6102086104e2366004611a67565b6001600160a01b031660009081526003602052604090205490565b61020861050b366004611b99565b600460209081526000928352604080842090915290825290205481565b610208610536366004611a4e565b6111f3565b6040516370a0823160e01b81523060048201526000907f00000000000000000000000000000000000000000000000000000000000000006001600160a01b0316906370a0823190602401602060405180830381865afa1580156105a2573d6000803e3d6000fd5b505050506040513d601f19601f820116820180604052508101906105c69190611bc3565b905090565b600080546105d890611bdc565b80601f016020809104026020016040519081016040528092919081815260200182805461060490611bdc565b80156106515780601f1061062657610100808354040283529160200191610651565b820191906000526020600020905b81548152906001019060200180831161063457829003601f168201915b505050505081565b3360008181526004602090815260408083206001600160a01b038716808552925280832085905551919290917f8c5be1e5ebec7d5bd14f71427d1e84f3dd0314c0f7b2291e5b200ac8c7c3b925906106b49086815260200190565b60405180910390a35060015b92915050565b6040516370a0823160e01b815230600482015260009081906001600160a01b037f000000000000000000000000000000000000000000000000000000000000000016906370a0823190602401602060405180830381865afa15801561072f573d6000803e3d6000fd5b505050506040513d601f19601f820116820180604052508101906107539190611bc3565b905080156107745761076f8161076761053b565b859190611214565b610776565b825b9392505050565b6001600160a01b038316600090815260046020908152604080832033845290915281205460001981146107d9576107b48382611c2c565b6001600160a01b03861660009081526004602090815260408083203384529091529020555b6001600160a01b03851660009081526003602052604081208054859290610801908490611c2c565b90915550506001600160a01b03808516600081815260036020526040908190208054870190555190918716906000805160206120c48339815191529061084a9087815260200190565b60405180910390a3506001949350505050565b6001600160a01b0381166000908152600360205260408120546106c090610905565b60006105c661037f7f0000000000000000000000000000000000000000000000000000000000000000600a611d23565b60007f000000000000000000000000000000000000000000000000000000000000000046146108e0576105c661123a565b507f000000000000000000000000000000000000000000000000000000000000000090565b60025460009080156107745761076f61091c61053b565b6002548591906112d4565b6000610932836111f3565b9050806000036109775760405162461bcd60e51b815260206004820152600b60248201526a5a45524f5f53484152455360a81b60448201526064015b60405180910390fd5b60405163095ea7b360e01b8152306004820152602481018490527f00000000000000000000000000000000000000000000000000000000000000006001600160a01b03169063095ea7b3906044016020604051808303816000875af11580156109e4573d6000803e3d6000fd5b505050506040513d601f19601f82011682018060405250810190610a089190611d32565b50610a3e6001600160a01b037f0000000000000000000000000000000000000000000000000000000000000000163330866112f2565b8260076000828254610a509190611d54565b909155505060065460408051600080825260208201909252610a99926001600160a01b031691869190610a93565b6060815260200190600190039081610a7e5790505b5061137c565b5050600654610ab3906001600160a01b03163033866114bf565b60408051848152602081018390526001600160a01b0384169133917fdcbc1c05240f31ff3ad067ef1ee35ce4997762752e3a095284754544f4c709d7910160405180910390a36106c0836115f8565b600080825b60085481108015610b215750610b1e84600a611d54565b81105b15610bed5760008060088381548110610b3c57610b3c611d7d565b6000918252602080832090910154338352600a8252604080842080546001600160a01b039093168086526001918201855282862054600b9095529190942054909450610b939392610b8c91611c2c565b91906112d4565b6001600160a01b0382166000818152600b602090815260408083205433808552600a8452828520868652600101909352922091909155919350610bd8913090856112f2565b50508080610be590611d93565b915050610b07565b505060085491929050565b6000610c0f82610c0785610daf565b925082611707565b60405163095ea7b360e01b8152306004820152602481018290527f00000000000000000000000000000000000000000000000000000000000000006001600160a01b03169063095ea7b3906044016020604051808303816000875af1158015610c7c573d6000803e3d6000fd5b505050506040513d601f19601f82011682018060405250810190610ca09190611d32565b508060076000828254610cb39190611d54565b909155505060408051828152602081018590526001600160a01b0384169133917fdcbc1c05240f31ff3ad067ef1ee35ce4997762752e3a095284754544f4c709d7910160405180910390a3610d336001600160a01b037f0000000000000000000000000000000000000000000000000000000000000000163330846112f2565b6106c0816115f8565b600180546105d890611bdc565b33600090815260036020526040812080548391908390610d6a908490611c2c565b90915550506001600160a01b038316600081815260036020526040908190208054850190555133906000805160206120c4833981519152906106b49086815260200190565b60025460009080156107745761076f610dc661053b565b600254859190611214565b6000610ddc84611761565b600654610df4906001600160a01b03163330876114bf565b600654604080516000815260208101909152610e1b916001600160a01b0316908690611799565b508360076000828254610e2e9190611c2c565b909155505060408051858152602081018390526001600160a01b0380861692908516917ff341246adaac6f497bc2a656f546ab9e182111d630394f0c57c710a59a2cb567910160405180910390a36107766001600160a01b037f00000000000000000000000000000000000000000000000000000000000000001684866118c5565b6000610ebb84610905565b905080600003610efb5760405162461bcd60e51b815260206004820152600b60248201526a5a45524f5f41535345545360a81b604482015260640161096e565b610f0484610905565b9050610f108285611943565b8060076000828254610f229190611c2c565b909155505060408051828152602081018690526001600160a01b0380861692908516917ff341246adaac6f497bc2a656f546ab9e182111d630394f0c57c710a59a2cb567910160405180910390a36107766001600160a01b037f00000000000000000000000000000000000000000000000000000000000000001684836118c5565b60006106c08261085d565b42841015610fff5760405162461bcd60e51b815260206004820152601760248201527f5045524d49545f444541444c494e455f45585049524544000000000000000000604482015260640161096e565b6000600161100b6108af565b6001600160a01b038a811660008181526005602090815260409182902080546001810190915582517f6e71edae12b1b97f4d1f60370fef10105fa2faae0126114a169c64845d6126c98184015280840194909452938d166060840152608083018c905260a083019390935260c08083018b90528151808403909101815260e08301909152805192019190912061190160f01b6101008301526101028201929092526101228101919091526101420160408051601f198184030181528282528051602091820120600084529083018083525260ff871690820152606081018590526080810184905260a0016020604051602081039080840390855afa158015611117573d6000803e3d6000fd5b5050604051601f1901519150506001600160a01b0381161580159061114d5750876001600160a01b0316816001600160a01b0316145b61118a5760405162461bcd60e51b815260206004820152600e60248201526d24a72b20a624a22fa9a4a3a722a960911b604482015260640161096e565b6001600160a01b0390811660009081526004602090815260408083208a8516808552908352928190208990555188815291928a16917f8c5be1e5ebec7d5bd14f71427d1e84f3dd0314c0f7b2291e5b200ac8c7c3b925910160405180910390a350505050505050565b60025460009080156107745761076f600161120c61053b565b8591906112d4565b600082600019048411830215820261122b57600080fd5b50910281810615159190040190565b60007f8b73c3c69bb8fe3d512ecc4cf759cc79239f7b179b0ffacaa9a75d522b39400f600060405161126c9190611dac565b6040805191829003822060208301939093528101919091527fc89efdaa54c0f20c7adf612882df0950f5a951637e0307cdcb4c672f298b8bc660608201524660808201523060a082015260c00160405160208183030381529060405280519060200120905090565b60008260001904841183021582026112eb57600080fd5b5091020490565b60006040516323b872dd60e01b81528460048201528360248201528260448201526020600060648360008a5af13d15601f3d11600160005114161716915050806113755760405162461bcd60e51b81526020600482015260146024820152731514905394d1915497d19493d357d1905253115160621b604482015260640161096e565b5050505050565b6000606060008060006101676001600160a01b031663278e0b8860e01b8989896040516024016113ae93929190611e4d565b60408051601f198184030181529181526020820180516001600160e01b03166001600160e01b03199094169390931790925290516113ec9190611ed2565b6000604051808303816000865af19150503d8060008114611429576040519150601f19603f3d011682016040523d82523d6000602084013e61142e565b606091505b509150915081611451576040805160008082526020820190925260159190611465565b808060200190518101906114659190611f2a565b90965094509250600383900b6016146114b45760405162461bcd60e51b815260206004820152601160248201527053616665206d696e74206661696c65642160781b604482015260640161096e565b505050935093915050565b604080516001600160a01b038681166024830152858116604483015284166064820152600783900b6084808301919091528251808303909101815260a490910182526020810180516001600160e01b031663eca3691760e01b179052905160009182918291610167916115329190611ed2565b6000604051808303816000865af19150503d806000811461156f576040519150601f19603f3d011682016040523d82523d6000602084013e611574565b606091505b509150915081611585576015611599565b808060200190518101906115999190612012565b9250600383900b6016146115ef5760405162461bcd60e51b815260206004820152601b60248201527f5361666520746f6b656e207472616e73666572206661696c6564210000000000604482015260640161096e565b50505050505050565b336000908152600a602052604090206002015460ff166116ba5760005b60085481101561167c5760006008828154811061163457611634611d7d565b60009182526020808320909101546001600160a01b0316808352600b8252604080842054338552600a8452818520928552600192830190935290922055919091019050611615565b50336000908152600a60205260408120828155600201805460ff19166001179055600780548392906116af908490611d54565b909155506117049050565b6116c46000610b02565b5050336000908152600a6020526040812080548392906116e5908490611d54565b9250508190555080600760008282546116fe9190611d54565b90915550505b50565b80600260008282546117199190611d54565b90915550506001600160a01b0382166000818152600360209081526040808320805486019055518481526000805160206120c483398151915291015b60405180910390a35050565b336000908152600a602052604081208054839290611780908490611c2c565b9250508190555080600760008282546116fe9190611c2c565b6000806000806101676001600160a01b031663acb9cff960e01b8888886040516024016117c89392919061202d565b60408051601f198184030181529181526020820180516001600160e01b03166001600160e01b03199094169390931790925290516118069190611ed2565b6000604051808303816000865af19150503d8060008114611843576040519150601f19603f3d011682016040523d82523d6000602084013e611848565b606091505b50915091508161185b576015600061186f565b8080602001905181019061186f9190612099565b94509250600383900b6016146118bb5760405162461bcd60e51b815260206004820152601160248201527053616665206275726e206661696c65642160781b604482015260640161096e565b5050509392505050565b600060405163a9059cbb60e01b8152836004820152826024820152602060006044836000895af13d15601f3d116001600051141617169150508061193d5760405162461bcd60e51b815260206004820152600f60248201526e1514905394d1915497d19052531151608a1b604482015260640161096e565b50505050565b6001600160a01b0382166000908152600360205260408120805483929061196b908490611c2c565b90915550506002805482900390556040518181526000906001600160a01b038416906000805160206120c483398151915290602001611755565b60005b838110156119c05781810151838201526020016119a8565b50506000910152565b600081518084526119e18160208601602086016119a5565b601f01601f19169290920160200192915050565b60208152600061077660208301846119c9565b80356001600160a01b0381168114611a1f57600080fd5b919050565b60008060408385031215611a3757600080fd5b611a4083611a08565b946020939093013593505050565b600060208284031215611a6057600080fd5b5035919050565b600060208284031215611a7957600080fd5b61077682611a08565b600080600060608486031215611a9757600080fd5b611aa084611a08565b9250611aae60208501611a08565b9150604084013590509250925092565b60008060408385031215611ad157600080fd5b82359150611ae160208401611a08565b90509250929050565b600080600060608486031215611aff57600080fd5b83359250611b0f60208501611a08565b9150611b1d60408501611a08565b90509250925092565b600080600080600080600060e0888a031215611b4157600080fd5b611b4a88611a08565b9650611b5860208901611a08565b95506040880135945060608801359350608088013560ff81168114611b7c57600080fd5b9699959850939692959460a0840135945060c09093013592915050565b60008060408385031215611bac57600080fd5b611bb583611a08565b9150611ae160208401611a08565b600060208284031215611bd557600080fd5b5051919050565b600181811c90821680611bf057607f821691505b602082108103611c1057634e487b7160e01b600052602260045260246000fd5b50919050565b634e487b7160e01b600052601160045260246000fd5b818103818111156106c0576106c0611c16565b600181815b80851115611c7a578160001904821115611c6057611c60611c16565b80851615611c6d57918102915b93841c9390800290611c44565b509250929050565b600082611c91575060016106c0565b81611c9e575060006106c0565b8160018114611cb45760028114611cbe57611cda565b60019150506106c0565b60ff841115611ccf57611ccf611c16565b50506001821b6106c0565b5060208310610133831016604e8410600b8410161715611cfd575081810a6106c0565b611d078383611c3f565b8060001904821115611d1b57611d1b611c16565b029392505050565b600061077660ff841683611c82565b600060208284031215611d4457600080fd5b8151801515811461077657600080fd5b808201808211156106c0576106c0611c16565b634e487b7160e01b600052604160045260246000fd5b634e487b7160e01b600052603260045260246000fd5b600060018201611da557611da5611c16565b5060010190565b60008083548160018260011c91506001831680611dca57607f831692505b60208084108203611de957634e487b7160e01b86526022600452602486fd5b818015611dfd5760018114611e1257611e3f565b60ff1986168952841515850289019650611e3f565b60008a81526020902060005b86811015611e375781548b820152908501908301611e1e565b505084890196505b509498975050505050505050565b60006060820160018060a01b0386168352602067ffffffffffffffff861660208501526060604085015281855180845260808601915060808160051b87010193506020870160005b82811015611ec357607f19888703018452611eb18683516119c9565b95509284019290840190600101611e95565b50939998505050505050505050565b60008251611ee48184602087016119a5565b9190910192915050565b8051600381900b8114611a1f57600080fd5b805167ffffffffffffffff81168114611a1f57600080fd5b8051600781900b8114611a1f57600080fd5b600080600060608486031215611f3f57600080fd5b611f4884611eee565b92506020611f57818601611f00565b9250604085015167ffffffffffffffff80821115611f7457600080fd5b818701915087601f830112611f8857600080fd5b815181811115611f9a57611f9a611d67565b8060051b604051601f19603f83011681018181108582111715611fbf57611fbf611d67565b60405291825284820192508381018501918a831115611fdd57600080fd5b938501935b8285101561200257611ff385611f18565b84529385019392850192611fe2565b8096505050505050509250925092565b60006020828403121561202457600080fd5b61077682611eee565b6001600160a01b038416815267ffffffffffffffff83166020808301919091526060604083018190528351908301819052600091848101916080850190845b8181101561208b57845160070b8352938301939183019160010161206c565b509098975050505050505050565b600080604083850312156120ac57600080fd5b6120b583611eee565b9150611ae160208401611f0056feddf252ad1be2c89b69c2b068fc378daa952ba7f163c4a11628f55a4df523b3efa26469706673582212208cff38ae1b0b2abfb53e621a40371ac772005e56e1e556a7ee549ea49e8bc68064736f6c63430008180033",
  "linkReferences": {},
  "deployedLinkReferences": {}
}