{
  "_format": "hh-sol-artifact-1",
  "contractName": "HederaVault",
  "sourceName": "contracts/erc4626/Vault.sol",
  "abi": [
    {
      "inputs": [
        {
          "internalType": "contract ERC20",
          "name": "_underlying",
          "type": "address"
        },
        {
          "internalType": "string",
          "name": "_name",
          "type": "string"
        },
        {
          "internalType": "string",
          "name": "_symbol",
          "type": "string"
        },
        {
          "components": [
            {
              "internalType": "address",
              "name": "receiver",
              "type": "address"
            },
            {
              "internalType": "address",
              "name": "token",
              "type": "address"
            },
            {
              "internalType": "uint256",
              "name": "feePercentage",
              "type": "uint256"
            }
          ],
          "internalType": "struct FeeConfiguration.FeeConfig",
          "name": "_feeConfig",
          "type": "tuple"
        },
        {
          "internalType": "address",
          "name": "_vaultRewardController",
          "type": "address"
        },
        {
          "internalType": "address",
          "name": "_feeConfigController",
          "type": "address"
        }
      ],
      "stateMutability": "payable",
      "type": "constructor"
    },
    {
      "inputs": [],
      "name": "AccessControlBadConfirmation",
      "type": "error"
    },
    {
      "inputs": [
        {
          "internalType": "address",
          "name": "account",
          "type": "address"
        },
        {
          "internalType": "bytes32",
          "name": "neededRole",
          "type": "bytes32"
        }
      ],
      "name": "AccessControlUnauthorizedAccount",
      "type": "error"
    },
    {
      "inputs": [
        {
          "internalType": "address",
          "name": "account",
          "type": "address"
        }
      ],
      "name": "AddressInsufficientBalance",
      "type": "error"
    },
    {
      "inputs": [],
      "name": "FailedInnerCall",
      "type": "error"
    },
    {
      "inputs": [],
      "name": "MaxRewardTokensAmount",
      "type": "error"
    },
    {
      "inputs": [],
      "name": "ReentrancyGuardReentrantCall",
      "type": "error"
    },
    {
      "inputs": [
        {
          "internalType": "uint256",
          "name": "numberOfShares",
          "type": "uint256"
        }
      ],
      "name": "ZeroShares",
      "type": "error"
    },
    {
      "anonymous": false,
      "inputs": [
        {
          "indexed": true,
          "internalType": "address",
          "name": "owner",
          "type": "address"
        },
        {
          "indexed": true,
          "internalType": "address",
          "name": "spender",
          "type": "address"
        },
        {
          "indexed": false,
          "internalType": "uint256",
          "name": "amount",
          "type": "uint256"
        }
      ],
      "name": "Approval",
      "type": "event"
    },
    {
      "anonymous": false,
      "inputs": [
        {
          "indexed": true,
          "internalType": "address",
          "name": "createdToken",
          "type": "address"
        }
      ],
      "name": "CreatedToken",
      "type": "event"
    },
    {
      "anonymous": false,
      "inputs": [
        {
          "indexed": true,
          "internalType": "address",
          "name": "sender",
          "type": "address"
        },
        {
          "indexed": true,
          "internalType": "address",
          "name": "receiver",
          "type": "address"
        },
        {
          "indexed": false,
          "internalType": "uint256",
          "name": "assets",
          "type": "uint256"
        },
        {
          "indexed": false,
          "internalType": "uint256",
          "name": "shares",
          "type": "uint256"
        }
      ],
      "name": "Deposit",
      "type": "event"
    },
    {
      "anonymous": false,
      "inputs": [
        {
          "components": [
            {
              "internalType": "address",
              "name": "receiver",
              "type": "address"
            },
            {
              "internalType": "address",
              "name": "token",
              "type": "address"
            },
            {
              "internalType": "uint256",
              "name": "feePercentage",
              "type": "uint256"
            }
          ],
          "indexed": false,
          "internalType": "struct FeeConfiguration.FeeConfig",
          "name": "feeConfig",
          "type": "tuple"
        }
      ],
      "name": "FeeConfigUpdated",
      "type": "event"
    },
    {
      "anonymous": false,
      "inputs": [
        {
          "indexed": true,
          "internalType": "address",
          "name": "rewardToken",
          "type": "address"
        },
        {
          "indexed": false,
          "internalType": "uint256",
          "name": "amount",
          "type": "uint256"
        }
      ],
      "name": "RewardAdded",
      "type": "event"
    },
    {
      "anonymous": false,
      "inputs": [
        {
          "indexed": true,
          "internalType": "bytes32",
          "name": "role",
          "type": "bytes32"
        },
        {
          "indexed": true,
          "internalType": "bytes32",
          "name": "previousAdminRole",
          "type": "bytes32"
        },
        {
          "indexed": true,
          "internalType": "bytes32",
          "name": "newAdminRole",
          "type": "bytes32"
        }
      ],
      "name": "RoleAdminChanged",
      "type": "event"
    },
    {
      "anonymous": false,
      "inputs": [
        {
          "indexed": true,
          "internalType": "bytes32",
          "name": "role",
          "type": "bytes32"
        },
        {
          "indexed": true,
          "internalType": "address",
          "name": "account",
          "type": "address"
        },
        {
          "indexed": true,
          "internalType": "address",
          "name": "sender",
          "type": "address"
        }
      ],
      "name": "RoleGranted",
      "type": "event"
    },
    {
      "anonymous": false,
      "inputs": [
        {
          "indexed": true,
          "internalType": "bytes32",
          "name": "role",
          "type": "bytes32"
        },
        {
          "indexed": true,
          "internalType": "address",
          "name": "account",
          "type": "address"
        },
        {
          "indexed": true,
          "internalType": "address",
          "name": "sender",
          "type": "address"
        }
      ],
      "name": "RoleRevoked",
      "type": "event"
    },
    {
      "anonymous": false,
      "inputs": [
        {
          "indexed": true,
          "internalType": "address",
          "name": "from",
          "type": "address"
        },
        {
          "indexed": true,
          "internalType": "address",
          "name": "to",
          "type": "address"
        },
        {
          "indexed": false,
          "internalType": "uint256",
          "name": "amount",
          "type": "uint256"
        }
      ],
      "name": "Transfer",
      "type": "event"
    },
    {
      "anonymous": false,
      "inputs": [
        {
          "indexed": true,
          "internalType": "address",
          "name": "sender",
          "type": "address"
        },
        {
          "indexed": true,
          "internalType": "address",
          "name": "receiver",
          "type": "address"
        },
        {
          "indexed": false,
          "internalType": "uint256",
          "name": "assets",
          "type": "uint256"
        },
        {
          "indexed": false,
          "internalType": "uint256",
          "name": "shares",
          "type": "uint256"
        }
      ],
      "name": "Withdraw",
      "type": "event"
    },
    {
      "inputs": [],
      "name": "DEFAULT_ADMIN_ROLE",
      "outputs": [
        {
          "internalType": "bytes32",
          "name": "",
          "type": "bytes32"
        }
      ],
      "stateMutability": "view",
      "type": "function"
    },
    {
      "inputs": [],
      "name": "DOMAIN_SEPARATOR",
      "outputs": [
        {
          "internalType": "bytes32",
          "name": "",
          "type": "bytes32"
        }
      ],
      "stateMutability": "view",
      "type": "function"
    },
    {
      "inputs": [],
      "name": "FEE_CONFIG_CONTROLLER_ROLE",
      "outputs": [
        {
          "internalType": "bytes32",
          "name": "",
          "type": "bytes32"
        }
      ],
      "stateMutability": "view",
      "type": "function"
    },
    {
      "inputs": [],
      "name": "VAULT_REWARD_CONTROLLER_ROLE",
      "outputs": [
        {
          "internalType": "bytes32",
          "name": "",
          "type": "bytes32"
        }
      ],
      "stateMutability": "view",
      "type": "function"
    },
    {
      "inputs": [
        {
          "internalType": "address",
          "name": "_token",
          "type": "address"
        },
        {
          "internalType": "uint256",
          "name": "_amount",
          "type": "uint256"
        }
      ],
      "name": "addReward",
      "outputs": [],
      "stateMutability": "payable",
      "type": "function"
    },
    {
      "inputs": [
        {
          "internalType": "address",
          "name": "",
          "type": "address"
        },
        {
          "internalType": "address",
          "name": "",
          "type": "address"
        }
      ],
      "name": "allowance",
      "outputs": [
        {
          "internalType": "uint256",
          "name": "",
          "type": "uint256"
        }
      ],
      "stateMutability": "view",
      "type": "function"
    },
    {
      "inputs": [
        {
          "internalType": "address",
          "name": "spender",
          "type": "address"
        },
        {
          "internalType": "uint256",
          "name": "amount",
          "type": "uint256"
        }
      ],
      "name": "approve",
      "outputs": [
        {
          "internalType": "bool",
          "name": "",
          "type": "bool"
        }
      ],
      "stateMutability": "nonpayable",
      "type": "function"
    },
    {
      "inputs": [],
      "name": "asset",
      "outputs": [
        {
          "internalType": "contract ERC20",
          "name": "",
          "type": "address"
        }
      ],
      "stateMutability": "view",
      "type": "function"
    },
    {
      "inputs": [],
      "name": "assetTotalSupply",
      "outputs": [
        {
          "internalType": "uint256",
          "name": "",
          "type": "uint256"
        }
      ],
      "stateMutability": "view",
      "type": "function"
    },
    {
      "inputs": [
        {
          "internalType": "address",
          "name": "user",
          "type": "address"
        }
      ],
      "name": "assetsOf",
      "outputs": [
        {
          "internalType": "uint256",
          "name": "",
          "type": "uint256"
        }
      ],
      "stateMutability": "view",
      "type": "function"
    },
    {
      "inputs": [],
      "name": "assetsPerShare",
      "outputs": [
        {
          "internalType": "uint256",
          "name": "",
          "type": "uint256"
        }
      ],
      "stateMutability": "view",
      "type": "function"
    },
    {
      "inputs": [
        {
          "internalType": "address",
          "name": "",
          "type": "address"
        }
      ],
      "name": "balanceOf",
      "outputs": [
        {
          "internalType": "uint256",
          "name": "",
          "type": "uint256"
        }
      ],
      "stateMutability": "view",
      "type": "function"
    },
    {
      "inputs": [
        {
          "internalType": "uint256",
          "name": "_id",
          "type": "uint256"
        }
      ],
      "name": "calculateReward",
      "outputs": [
        {
          "internalType": "uint256",
          "name": "reward",
          "type": "uint256"
        }
      ],
      "stateMutability": "view",
      "type": "function"
    },
    {
      "inputs": [
        {
          "internalType": "uint256",
          "name": "_startPosition",
          "type": "uint256"
        }
      ],
      "name": "claimAllReward",
      "outputs": [
        {
          "internalType": "uint256",
          "name": "",
          "type": "uint256"
        },
        {
          "internalType": "uint256",
          "name": "",
          "type": "uint256"
        }
      ],
      "stateMutability": "payable",
      "type": "function"
    },
    {
      "inputs": [],
      "name": "decimals",
      "outputs": [
        {
          "internalType": "uint8",
          "name": "",
          "type": "uint8"
        }
      ],
      "stateMutability": "view",
      "type": "function"
    },
    {
      "inputs": [
        {
          "internalType": "uint256",
          "name": "assets",
          "type": "uint256"
        },
        {
          "internalType": "address",
          "name": "receiver",
          "type": "address"
        }
      ],
      "name": "deposit",
      "outputs": [
        {
          "internalType": "uint256",
          "name": "shares",
          "type": "uint256"
        }
      ],
      "stateMutability": "nonpayable",
      "type": "function"
    },
    {
      "inputs": [],
      "name": "feeConfig",
      "outputs": [
        {
          "internalType": "address",
          "name": "receiver",
          "type": "address"
        },
        {
          "internalType": "address",
          "name": "token",
          "type": "address"
        },
        {
          "internalType": "uint256",
          "name": "feePercentage",
          "type": "uint256"
        }
      ],
      "stateMutability": "view",
      "type": "function"
    },
    {
      "inputs": [
        {
          "internalType": "bytes32",
          "name": "role",
          "type": "bytes32"
        }
      ],
      "name": "getRoleAdmin",
      "outputs": [
        {
          "internalType": "bytes32",
          "name": "",
          "type": "bytes32"
        }
      ],
      "stateMutability": "view",
      "type": "function"
    },
    {
      "inputs": [
        {
          "internalType": "bytes32",
          "name": "role",
          "type": "bytes32"
        },
        {
          "internalType": "address",
          "name": "account",
          "type": "address"
        }
      ],
      "name": "grantRole",
      "outputs": [],
      "stateMutability": "nonpayable",
      "type": "function"
    },
    {
      "inputs": [
        {
          "internalType": "bytes32",
          "name": "role",
          "type": "bytes32"
        },
        {
          "internalType": "address",
          "name": "account",
          "type": "address"
        }
      ],
      "name": "hasRole",
      "outputs": [
        {
          "internalType": "bool",
          "name": "",
          "type": "bool"
        }
      ],
      "stateMutability": "view",
      "type": "function"
    },
    {
      "inputs": [
        {
          "internalType": "address",
          "name": "",
          "type": "address"
        }
      ],
      "name": "maxDeposit",
      "outputs": [
        {
          "internalType": "uint256",
          "name": "",
          "type": "uint256"
        }
      ],
      "stateMutability": "pure",
      "type": "function"
    },
    {
      "inputs": [
        {
          "internalType": "address",
          "name": "",
          "type": "address"
        }
      ],
      "name": "maxMint",
      "outputs": [
        {
          "internalType": "uint256",
          "name": "",
          "type": "uint256"
        }
      ],
      "stateMutability": "pure",
      "type": "function"
    },
    {
      "inputs": [
        {
          "internalType": "address",
          "name": "user",
          "type": "address"
        }
      ],
      "name": "maxRedeem",
      "outputs": [
        {
          "internalType": "uint256",
          "name": "",
          "type": "uint256"
        }
      ],
      "stateMutability": "view",
      "type": "function"
    },
    {
      "inputs": [
        {
          "internalType": "address",
          "name": "user",
          "type": "address"
        }
      ],
      "name": "maxWithdraw",
      "outputs": [
        {
          "internalType": "uint256",
          "name": "",
          "type": "uint256"
        }
      ],
      "stateMutability": "view",
      "type": "function"
    },
    {
      "inputs": [
        {
          "internalType": "uint256",
          "name": "shares",
          "type": "uint256"
        },
        {
          "internalType": "address",
          "name": "to",
          "type": "address"
        }
      ],
      "name": "mint",
      "outputs": [
        {
          "internalType": "uint256",
          "name": "amount",
          "type": "uint256"
        }
      ],
      "stateMutability": "nonpayable",
      "type": "function"
    },
    {
      "inputs": [],
      "name": "name",
      "outputs": [
        {
          "internalType": "string",
          "name": "",
          "type": "string"
        }
      ],
      "stateMutability": "view",
      "type": "function"
    },
    {
      "inputs": [
        {
          "internalType": "address",
          "name": "",
          "type": "address"
        }
      ],
      "name": "nonces",
      "outputs": [
        {
          "internalType": "uint256",
          "name": "",
          "type": "uint256"
        }
      ],
      "stateMutability": "view",
      "type": "function"
    },
    {
      "inputs": [],
      "name": "owner",
      "outputs": [
        {
          "internalType": "address",
          "name": "",
          "type": "address"
        }
      ],
      "stateMutability": "view",
      "type": "function"
    },
    {
      "inputs": [
        {
          "internalType": "address",
          "name": "owner",
          "type": "address"
        },
        {
          "internalType": "address",
          "name": "spender",
          "type": "address"
        },
        {
          "internalType": "uint256",
          "name": "value",
          "type": "uint256"
        },
        {
          "internalType": "uint256",
          "name": "deadline",
          "type": "uint256"
        },
        {
          "internalType": "uint8",
          "name": "v",
          "type": "uint8"
        },
        {
          "internalType": "bytes32",
          "name": "r",
          "type": "bytes32"
        },
        {
          "internalType": "bytes32",
          "name": "s",
          "type": "bytes32"
        }
      ],
      "name": "permit",
      "outputs": [],
      "stateMutability": "nonpayable",
      "type": "function"
    },
    {
      "inputs": [
        {
          "internalType": "uint256",
          "name": "amount",
          "type": "uint256"
        }
      ],
      "name": "previewDeposit",
      "outputs": [
        {
          "internalType": "uint256",
          "name": "shares",
          "type": "uint256"
        }
      ],
      "stateMutability": "view",
      "type": "function"
    },
    {
      "inputs": [
        {
          "internalType": "uint256",
          "name": "shares",
          "type": "uint256"
        }
      ],
      "name": "previewMint",
      "outputs": [
        {
          "internalType": "uint256",
          "name": "amount",
          "type": "uint256"
        }
      ],
      "stateMutability": "view",
      "type": "function"
    },
    {
      "inputs": [
        {
          "internalType": "uint256",
          "name": "shares",
          "type": "uint256"
        }
      ],
      "name": "previewRedeem",
      "outputs": [
        {
          "internalType": "uint256",
          "name": "amount",
          "type": "uint256"
        }
      ],
      "stateMutability": "view",
      "type": "function"
    },
    {
      "inputs": [
        {
          "internalType": "uint256",
          "name": "amount",
          "type": "uint256"
        }
      ],
      "name": "previewWithdraw",
      "outputs": [
        {
          "internalType": "uint256",
          "name": "shares",
          "type": "uint256"
        }
      ],
      "stateMutability": "view",
      "type": "function"
    },
    {
      "inputs": [
        {
          "internalType": "uint256",
          "name": "shares",
          "type": "uint256"
        },
        {
          "internalType": "address",
          "name": "receiver",
          "type": "address"
        },
        {
          "internalType": "address",
          "name": "from",
          "type": "address"
        }
      ],
      "name": "redeem",
      "outputs": [
        {
          "internalType": "uint256",
          "name": "amount",
          "type": "uint256"
        }
      ],
      "stateMutability": "nonpayable",
      "type": "function"
    },
    {
      "inputs": [
        {
          "internalType": "bytes32",
          "name": "role",
          "type": "bytes32"
        },
        {
          "internalType": "address",
          "name": "callerConfirmation",
          "type": "address"
        }
      ],
      "name": "renounceRole",
      "outputs": [],
      "stateMutability": "nonpayable",
      "type": "function"
    },
    {
      "inputs": [
        {
          "internalType": "bytes32",
          "name": "role",
          "type": "bytes32"
        },
        {
          "internalType": "address",
          "name": "account",
          "type": "address"
        }
      ],
      "name": "revokeRole",
      "outputs": [],
      "stateMutability": "nonpayable",
      "type": "function"
    },
    {
      "inputs": [
        {
          "internalType": "uint256",
          "name": "",
          "type": "uint256"
        }
      ],
      "name": "rewardTokens",
      "outputs": [
        {
          "internalType": "address",
          "name": "",
          "type": "address"
        }
      ],
      "stateMutability": "view",
      "type": "function"
    },
    {
      "inputs": [],
      "name": "share",
      "outputs": [
        {
          "internalType": "address",
          "name": "",
          "type": "address"
        }
      ],
      "stateMutability": "view",
      "type": "function"
    },
    {
      "inputs": [
        {
          "internalType": "bytes4",
          "name": "interfaceId",
          "type": "bytes4"
        }
      ],
      "name": "supportsInterface",
      "outputs": [
        {
          "internalType": "bool",
          "name": "",
          "type": "bool"
        }
      ],
      "stateMutability": "view",
      "type": "function"
    },
    {
      "inputs": [],
      "name": "symbol",
      "outputs": [
        {
          "internalType": "string",
          "name": "",
          "type": "string"
        }
      ],
      "stateMutability": "view",
      "type": "function"
    },
    {
      "inputs": [
        {
          "internalType": "address",
          "name": "",
          "type": "address"
        }
      ],
      "name": "tokensRewardInfo",
      "outputs": [
        {
          "internalType": "uint256",
          "name": "amount",
          "type": "uint256"
        },
        {
          "internalType": "bool",
          "name": "exist",
          "type": "bool"
        }
      ],
      "stateMutability": "view",
      "type": "function"
    },
    {
      "inputs": [],
      "name": "totalAssets",
      "outputs": [
        {
          "internalType": "uint256",
          "name": "",
          "type": "uint256"
        }
      ],
      "stateMutability": "view",
      "type": "function"
    },
    {
      "inputs": [],
      "name": "totalSupply",
      "outputs": [
        {
          "internalType": "uint256",
          "name": "",
          "type": "uint256"
        }
      ],
      "stateMutability": "view",
      "type": "function"
    },
    {
      "inputs": [
        {
          "internalType": "address",
          "name": "to",
          "type": "address"
        },
        {
          "internalType": "uint256",
          "name": "amount",
          "type": "uint256"
        }
      ],
      "name": "transfer",
      "outputs": [
        {
          "internalType": "bool",
          "name": "",
          "type": "bool"
        }
      ],
      "stateMutability": "nonpayable",
      "type": "function"
    },
    {
      "inputs": [
        {
          "internalType": "address",
          "name": "from",
          "type": "address"
        },
        {
          "internalType": "address",
          "name": "to",
          "type": "address"
        },
        {
          "internalType": "uint256",
          "name": "amount",
          "type": "uint256"
        }
      ],
      "name": "transferFrom",
      "outputs": [
        {
          "internalType": "bool",
          "name": "",
          "type": "bool"
        }
      ],
      "stateMutability": "nonpayable",
      "type": "function"
    },
    {
      "inputs": [
        {
          "components": [
            {
              "internalType": "address",
              "name": "receiver",
              "type": "address"
            },
            {
              "internalType": "address",
              "name": "token",
              "type": "address"
            },
            {
              "internalType": "uint256",
              "name": "feePercentage",
              "type": "uint256"
            }
          ],
          "internalType": "struct FeeConfiguration.FeeConfig",
          "name": "_feeConfig",
          "type": "tuple"
        }
      ],
      "name": "updateFeeConfig",
      "outputs": [],
      "stateMutability": "nonpayable",
      "type": "function"
    },
    {
      "inputs": [
        {
          "internalType": "address",
          "name": "",
          "type": "address"
        }
      ],
      "name": "userContribution",
      "outputs": [
        {
          "internalType": "uint256",
          "name": "sharesAmount",
          "type": "uint256"
        },
        {
          "internalType": "bool",
          "name": "exist",
          "type": "bool"
        }
      ],
      "stateMutability": "view",
      "type": "function"
    },
    {
      "inputs": [
        {
          "internalType": "uint256",
          "name": "amount",
          "type": "uint256"
        },
        {
          "internalType": "address",
          "name": "receiver",
          "type": "address"
        },
        {
          "internalType": "address",
          "name": "from",
          "type": "address"
        }
      ],
      "name": "withdraw",
      "outputs": [
        {
          "internalType": "uint256",
          "name": "shares",
          "type": "uint256"
        }
      ],
      "stateMutability": "nonpayable",
      "type": "function"
    }
  ],
  "bytecode": "0x610100604052604051620041ca380380620041ca833981016040819052620000279162000b47565b8484876001600160a01b031663313ce5676040518163ffffffff1660e01b8152600401602060405180830381865afa15801562000068573d6000803e3d6000fd5b505050506040513d601f19601f820116820180604052508101906200008e919062000c40565b60006200009c848262000cfd565b506001620000ab838262000cfd565b5060ff81166080524660a052620000c1620003f4565b60c05250506001600a5550620000d983838362000490565b600e80546001600160a01b03191633179055620000f7863062000516565b6040805160a0810182526000808252602082018190526060928201839052828201929092526080810182905281906200013283600462000649565b306080808401919091526040805160a081018252600080825260208201819052606092820183905282820192909252918201529093506200017583600062000649565b3060808301526040805160028082526060820190925291945060009190816020015b620001a1620009c6565b8152602001906001900390816200019757905050905060405180604001604052808681526020018481525081600081518110620001e257620001e262000dc9565b60200260200101819052506040518060400160405280858152602001838152508160018151811062000218576200021862000dc9565b60200260200101819052506200025d6040518060600160405280600063ffffffff16815260200160006001600160a01b03168152602001600063ffffffff1681525090565b306020820152627a12006040820152620002d360408051610120810182526060808252602080830182905260008385018190528284018390526080840181905260a0840181905260c0840181905260e0840183905284519283018552808352908201819052928101929092529061010082015290565b8b81600001819052508a81602001819052503081604001906001600160a01b031690816001600160a01b03168152505081816101000181905250828160e001819052506200038b8160008f6001600160a01b031663313ce5676040518163ffffffff1660e01b8152600401602060405180830381865afa1580156200035c573d6000803e3d6000fd5b505050506040513d601f19601f8201168201806040525081019062000382919062000c40565b60ff1662000659565b600b80546001600160a01b0319166001600160a01b039290921691821790556040517f7bb17726df1f3adee8aa00ba8e8bc5d6f182af3bbf77604639cb7f008dd3b4ed90600090a25050506001600160a01b0390991660e0525062001114975050505050505050565b60007f8b73c3c69bb8fe3d512ecc4cf759cc79239f7b179b0ffacaa9a75d522b39400f600060405162000428919062000ddf565b6040805191829003822060208301939093528101919091527fc89efdaa54c0f20c7adf612882df0950f5a951637e0307cdcb4c672f298b8bc660608201524660808201523060a082015260c00160405160208183030381529060405280519060200120905090565b825160208401516040850151620004a9929190620007ed565b620004b660003362000914565b50620004e37f477fc23fb51bb5d5aa814872a393b0e4f35d0916c7503c0fd96584681070d4108362000914565b50620005107f74e458455daa935f28c556b43e0cc4ad001a8a090f5feee376681e97d4618f468262000914565b50505050565b604080516001600160a01b038381166024830152841660448083019190915282518083039091018152606490910182526020810180516001600160e01b031663248a35ef60e11b1790529051600091829182916101679162000579919062000e5d565b6000604051808303816000865af19150503d8060008114620005b8576040519150601f19603f3d011682016040523d82523d6000602084013e620005bd565b606091505b509150915081620005d0576015620005e6565b80806020019051810190620005e6919062000e8e565b9250600383900b601614620006425760405162461bcd60e51b815260206004820152601f60248201527f536166652073696e676c65206173736f63696174696f6e206661696c6564210060448201526064015b60405180910390fd5b5050505050565b600160ff82161b82175b92915050565b61010083015151600090849063ffffffff161580156200068657506101008101516040015163ffffffff16155b156200069d576101008101516276a7006040909101525b60008060006101676001600160a01b031634637812a04b60e01b8a8a8a604051602401620006ce9392919062000fab565b60408051601f198184030181529181526020820180516001600160e01b03166001600160e01b03199094169390931790925290516200070e919062000e5d565b60006040518083038185875af1925050503d80600081146200074d576040519150601f19603f3d011682016040523d82523d6000602084013e62000752565b606091505b5091509150816200076757601560006200077d565b808060200190518101906200077d9190620010d8565b95509250600383900b601614620007e25760405162461bcd60e51b815260206004820152602260248201527f53616665206372656174652066756e6769626c6520746f6b656e206661696c65604482015261642160f01b606482015260840162000639565b505050509392505050565b6000811180156200080657506001600160a01b03831615155b620008545760405162461bcd60e51b815260206004820152601b60248201527f46433a20496e76616c69642066656520636f6e66696720646174610000000000604482015260640162000639565b6127108110620008995760405162461bcd60e51b815260206004820152600f60248201526e46433a20496e76616c69642066656560881b604482015260640162000639565b600780546001600160a01b038581166001600160a01b0319928316811790935560088054918616919092168117909155600983905560408051928352602083019190915281018290527febd34b2df88ea5c9f67c04b13b08e5e63c2d17e269aab73b866fe47a8736a2649060600160405180910390a1505050565b60008281526006602090815260408083206001600160a01b038516845290915281205460ff16620009bd5760008381526006602090815260408083206001600160a01b03861684529091529020805460ff19166001179055620009743390565b6001600160a01b0316826001600160a01b0316847f2f8788117e7eff1d82e926ec794901d17c78024a50270940304540a733656f0d60405160405180910390a450600162000653565b50600062000653565b60405180604001604052806000815260200162000a1f6040518060a0016040528060001515815260200160006001600160a01b03168152602001606081526020016060815260200160006001600160a01b031681525090565b905290565b6001600160a01b038116811462000a3a57600080fd5b50565b634e487b7160e01b600052604160045260246000fd5b604051606081016001600160401b038111828210171562000a785762000a7862000a3d565b60405290565b60005b8381101562000a9b57818101518382015260200162000a81565b50506000910152565b600082601f83011262000ab657600080fd5b81516001600160401b038082111562000ad35762000ad362000a3d565b604051601f8301601f19908116603f0116810190828211818310171562000afe5762000afe62000a3d565b8160405283815286602085880101111562000b1857600080fd5b62000b2b84602083016020890162000a7e565b9695505050505050565b805162000b428162000a24565b919050565b60008060008060008086880361010081121562000b6357600080fd5b875162000b708162000a24565b60208901519097506001600160401b038082111562000b8e57600080fd5b62000b9c8b838c0162000aa4565b975060408a015191508082111562000bb357600080fd5b5062000bc28a828b0162000aa4565b9550506060605f198201121562000bd857600080fd5b5062000be362000a53565b606088015162000bf38162000a24565b8152608088015162000c058162000a24565b602082015260a08801516040820152925062000c2460c0880162000b35565b915062000c3460e0880162000b35565b90509295509295509295565b60006020828403121562000c5357600080fd5b815160ff8116811462000c6557600080fd5b9392505050565b600181811c9082168062000c8157607f821691505b60208210810362000ca257634e487b7160e01b600052602260045260246000fd5b50919050565b601f82111562000cf8576000816000526020600020601f850160051c8101602086101562000cd35750805b601f850160051c820191505b8181101562000cf45782815560010162000cdf565b5050505b505050565b81516001600160401b0381111562000d195762000d1962000a3d565b62000d318162000d2a845462000c6c565b8462000ca8565b602080601f83116001811462000d69576000841562000d505750858301515b600019600386901b1c1916600185901b17855562000cf4565b600085815260208120601f198616915b8281101562000d9a5788860151825594840194600190910190840162000d79565b508582101562000db95787850151600019600388901b60f8161c191681555b5050505050600190811b01905550565b634e487b7160e01b600052603260045260246000fd5b600080835462000def8162000c6c565b6001828116801562000e0a576001811462000e205762000e51565b60ff198416875282151583028701945062000e51565b8760005260208060002060005b8581101562000e485781548a82015290840190820162000e2d565b50505082870194505b50929695505050505050565b6000825162000e7181846020870162000a7e565b9190910192915050565b8051600381900b811462000b4257600080fd5b60006020828403121562000ea157600080fd5b62000c658262000e7b565b6000815180845262000ec681602086016020860162000a7e565b601f01601f19169290920160200192915050565b600082825180855260208086019550808260051b84010181860160005b8481101562000f9e57858303601f1901895281518051845284015160408585018190528151151581860152818601516001600160a01b039081166060808801919091529183015160a0608080890182905291939092909162000f5d60e08a018662000eac565b92860151898403603f1901858b015292945062000f7b858462000eac565b9501511660c0979097019690965250509884019892509083019060010162000ef7565b5090979650505050505050565b606081526000845161016080606085015262000fcc6101c085018362000eac565b91506020870151605f198086850301608087015262000fec848362000eac565b9350604089015191506200100b60a08701836001600160a01b03169052565b60608901519150808685030160c087015262001028848362000eac565b9350608089015191506200104060e087018315159052565b60a089015191506101006200105c8188018463ffffffff169052565b60c08a0151151561012088015260e08a01518786038301610140890152925062001087858462000eda565b9450808a015192505050620010c482860182805163ffffffff90811683526020808301516001600160a01b03169084015260409182015116910152565b505060208301949094525060400152919050565b60008060408385031215620010ec57600080fd5b620010f78362000e7b565b91506020830151620011098162000a24565b809150509250929050565b60805160a05160c05160e051613044620011866000396000818161056d015281816109af01528181610b7a01528181610e670152818161114f0152818161125b0152818161157f01526116db01526000610da001526000610d700152600081816104dd0152610d4601526130446000f3fe6080604052600436106102935760003560e01c80637ecebe001161015a578063b4f6d613116100c1578063d505accf1161007a578063d505accf146108a9578063d547741f146108c9578063d905777e146108e9578063dd62ed3e1461091f578063ef8b30f714610957578063efa6f4251461097757600080fd5b8063b4f6d613146107de578063ba08765214610812578063c63d75b6146105a7578063cd9cdfda14610832578063ce96cb7714610869578063d2d7231f1461088957600080fd5b80639feb8f50116101135780639feb8f5014610736578063a217fddf14610749578063a8d5fd651461075e578063a9059cbb1461077e578063b3d7f6b91461079e578063b460af94146107be57600080fd5b80637ecebe001461067e5780638da5cb5b146106ab5780638f12c2f4146106cb57806391d14854146106e157806394bf804d1461070157806395d89b411461072157600080fd5b80632f2ff15d116101fe578063402d267d116101b7578063402d267d146105a75780634cdad506146105c95780636e553f65146105e957806370a08231146106095780637a07bf3a146106365780637bb7bed11461065e57600080fd5b80632f2ff15d146104a9578063313ce567146104cb57806335d16e17146105115780633644e5151461052657806336568abe1461053b57806338d52e0f1461055b57600080fd5b806316ad06721161025057806316ad06721461038657806318160ddd146103d25780631e5eb1d0146103e857806323b872dd14610439578063248a9ca3146104595780632c62fa101461048957600080fd5b806301e1d1141461029857806301ffc9a7146102c057806305fb2a51146102f057806306fdde0314610324578063095ea7b3146103465780630a28a47714610366575b600080fd5b3480156102a457600080fd5b506102ad610997565b6040519081526020015b60405180910390f35b3480156102cc57600080fd5b506102e06102db366004612814565b610a27565b60405190151581526020016102b7565b3480156102fc57600080fd5b506102ad7f74e458455daa935f28c556b43e0cc4ad001a8a090f5feee376681e97d4618f4681565b34801561033057600080fd5b50610339610a5e565b6040516102b7919061288e565b34801561035257600080fd5b506102e06103613660046128bd565b610aec565b34801561037257600080fd5b506102ad6103813660046128e7565b610b58565b34801561039257600080fd5b506103bd6103a1366004612900565b600f602052600090815260409020805460029091015460ff1682565b604080519283529015156020830152016102b7565b3480156103de57600080fd5b506102ad60025481565b3480156103f457600080fd5b50600754600854600954610413926001600160a01b0390811692169083565b604080516001600160a01b039485168152939092166020840152908201526060016102b7565b34801561044557600080fd5b506102e061045436600461291b565b610c0f565b34801561046557600080fd5b506102ad6104743660046128e7565b60009081526006602052604090206001015490565b34801561049557600080fd5b506102ad6104a4366004612900565b610cef565b3480156104b557600080fd5b506104c96104c4366004612957565b610d11565b005b3480156104d757600080fd5b506104ff7f000000000000000000000000000000000000000000000000000000000000000081565b60405160ff90911681526020016102b7565b34801561051d57600080fd5b506102ad610d3c565b34801561053257600080fd5b506102ad610d6c565b34801561054757600080fd5b506104c9610556366004612957565b610dc2565b34801561056757600080fd5b5061058f7f000000000000000000000000000000000000000000000000000000000000000081565b6040516001600160a01b0390911681526020016102b7565b3480156105b357600080fd5b506102ad6105c2366004612900565b5060001990565b3480156105d557600080fd5b506102ad6105e43660046128e7565b610dfa565b3480156105f557600080fd5b506102ad610604366004612957565b610e1c565b34801561061557600080fd5b506102ad610624366004612900565b60036020526000908152604090205481565b6106496106443660046128e7565b610f5d565b604080519283526020830191909152016102b7565b34801561066a57600080fd5b5061058f6106793660046128e7565b611071565b34801561068a57600080fd5b506102ad610699366004612900565b60056020526000908152604090205481565b3480156106b757600080fd5b50600e5461058f906001600160a01b031681565b3480156106d757600080fd5b506102ad600c5481565b3480156106ed57600080fd5b506102e06106fc366004612957565b61109b565b34801561070d57600080fd5b506102ad61071c366004612957565b6110c6565b34801561072d57600080fd5b50610339611180565b6104c96107443660046128bd565b61118d565b34801561075557600080fd5b506102ad600081565b34801561076a57600080fd5b50600b5461058f906001600160a01b031681565b34801561078a57600080fd5b506102e06107993660046128bd565b611480565b3480156107aa57600080fd5b506102ad6107b93660046128e7565b6114e6565b3480156107ca57600080fd5b506102ad6107d9366004612983565b611508565b3480156107ea57600080fd5b506102ad7f477fc23fb51bb5d5aa814872a393b0e4f35d0916c7503c0fd96584681070d41081565b34801561081e57600080fd5b506102ad61082d366004612983565b611606565b34801561083e57600080fd5b506103bd61084d366004612900565b6010602052600090815260409020805460019091015460ff1682565b34801561087557600080fd5b506102ad610884366004612900565b61170c565b34801561089557600080fd5b506102ad6108a43660046128e7565b611717565b3480156108b557600080fd5b506104c96108c43660046129bf565b61177d565b3480156108d557600080fd5b506104c96108e4366004612957565b6119c1565b3480156108f557600080fd5b506102ad610904366004612900565b6001600160a01b031660009081526003602052604090205490565b34801561092b57600080fd5b506102ad61093a366004612a32565b600460209081526000928352604080842090915290825290205481565b34801561096357600080fd5b506102ad6109723660046128e7565b6119e6565b34801561098357600080fd5b506104c9610992366004612aa3565b611a07565b6040516370a0823160e01b81523060048201526000907f00000000000000000000000000000000000000000000000000000000000000006001600160a01b0316906370a0823190602401602060405180830381865afa1580156109fe573d6000803e3d6000fd5b505050506040513d601f19601f82011682018060405250810190610a229190612b0b565b905090565b60006001600160e01b03198216637965db0b60e01b1480610a5857506301ffc9a760e01b6001600160e01b03198316145b92915050565b60008054610a6b90612b24565b80601f0160208091040260200160405190810160405280929190818152602001828054610a9790612b24565b8015610ae45780601f10610ab957610100808354040283529160200191610ae4565b820191906000526020600020905b815481529060010190602001808311610ac757829003601f168201915b505050505081565b3360008181526004602090815260408083206001600160a01b038716808552925280832085905551919290917f8c5be1e5ebec7d5bd14f71427d1e84f3dd0314c0f7b2291e5b200ac8c7c3b92590610b479086815260200190565b60405180910390a350600192915050565b6040516370a0823160e01b815230600482015260009081906001600160a01b037f000000000000000000000000000000000000000000000000000000000000000016906370a0823190602401602060405180830381865afa158015610bc1573d6000803e3d6000fd5b505050506040513d601f19601f82011682018060405250810190610be59190612b0b565b90508015610c0657610c0181610bf9610997565b859190611a4c565b610c08565b825b9392505050565b6001600160a01b03831660009081526004602090815260408083203384529091528120546000198114610c6b57610c468382612b74565b6001600160a01b03861660009081526004602090815260408083203384529091529020555b6001600160a01b03851660009081526003602052604081208054859290610c93908490612b74565b90915550506001600160a01b0380851660008181526003602052604090819020805487019055519091871690600080516020612fef83398151915290610cdc9087815260200190565b60405180910390a3506001949350505050565b6001600160a01b038116600090815260036020526040812054610a5890610dfa565b600082815260066020526040902060010154610d2c81611a72565b610d368383611a7f565b50505050565b6000610a226105e47f0000000000000000000000000000000000000000000000000000000000000000600a612c6b565b60007f00000000000000000000000000000000000000000000000000000000000000004614610d9d57610a22611b13565b507f000000000000000000000000000000000000000000000000000000000000000090565b6001600160a01b0381163314610deb5760405163334bd91960e11b815260040160405180910390fd5b610df58282611bad565b505050565b6002546000908015610c0657610c01610e11610997565b600254859190611c1a565b6000610e26611c38565b610e2f836119e6565b905080600003610e5a57604051636e3699b760e11b8152600481018490526024015b60405180910390fd5b610e8f6001600160a01b037f000000000000000000000000000000000000000000000000000000000000000016333086611c62565b82600c6000828254610ea19190612c7a565b9091555050600b5460408051600080825260208201909252610eea926001600160a01b031691869190610ee4565b6060815260200190600190039081610ecf5790505b50611cec565b5050600b54610f04906001600160a01b0316303386611e2f565b60408051848152602081018390526001600160a01b0384169133917fdcbc1c05240f31ff3ad067ef1ee35ce4997762752e3a095284754544f4c709d7910160405180910390a3610f5383611f68565b610a586001600a55565b600080610f68611c38565b600d54835b8181108015610f855750610f8285600a612c7a565b81105b1561105c57600080600d8381548110610fa057610fa0612c8d565b6000918252602080832090910154338352600f8252604080842080546001600160a01b03909316808652600191820185528286205460109095529190942054909450610ff79392610ff091612b74565b9190611c1a565b6001600160a01b03821660008181526010602090815260408083205433808552600f845282852095855260019095019092529091205590925061103e908290309085611e2f565b61104782612085565b5050808061105490612ca3565b915050610f6d565b50839250905061106c6001600a55565b915091565b600d818154811061108157600080fd5b6000918252602090912001546001600160a01b0316905081565b60009182526006602090815260408084206001600160a01b0393909316845291905290205460ff1690565b60006110d0611c38565b6110e5826110dd856114e6565b9250826121ec565b80600c60008282546110f79190612c7a565b909155505060408051828152602081018590526001600160a01b0384169133917fdcbc1c05240f31ff3ad067ef1ee35ce4997762752e3a095284754544f4c709d7910160405180910390a36111776001600160a01b037f000000000000000000000000000000000000000000000000000000000000000016333084611c62565b610f5381611f68565b60018054610a6b90612b24565b7f477fc23fb51bb5d5aa814872a393b0e4f35d0916c7503c0fd96584681070d4106111b781611a72565b816000036112075760405162461bcd60e51b815260206004820152601b60248201527f5661756c743a20416d6f756e742063616e2774206265207a65726f00000000006044820152606401610e51565b600c546000036112595760405162461bcd60e51b815260206004820152601a60248201527f5661756c743a204e6f20746f6b656e207374616b6564207965740000000000006044820152606401610e51565b7f00000000000000000000000000000000000000000000000000000000000000006001600160a01b0316836001600160a01b0316141580156112a95750600b546001600160a01b03848116911614155b61130d5760405162461bcd60e51b815260206004820152602f60248201527f5661756c743a2052657761726420616e64205374616b696e6720746f6b656e7360448201526e2063616e6e6f742062652073616d6560881b6064820152608401610e51565b600d54600a0361133057604051637561e0ab60e01b815260040160405180910390fd5b600061134a6001600c5485611c1a9092919063ffffffff16565b6001600160a01b038516600090815260106020526040902060018101549192509060ff166113f357600d8054600180820183556000929092527fd7b6990105719101dabeb77144f2a3385c8033acd3af97e9423a695e81ad1eb50180546001600160a01b0319166001600160a01b038816179055818101805460ff191690911790558181556113d98530612246565b6113ee6001600160a01b038616333087611c62565b611436565b6001600160a01b0385166000908152601060205260408120805484929061141b908490612c7a565b9091555061143690506001600160a01b038616333087611c62565b846001600160a01b03167fac24935fd910bc682b5ccb1a07b718cadf8cf2f6d1404c4f3ddc3662dae40e298560405161147191815260200190565b60405180910390a25050505050565b336000908152600360205260408120805483919083906114a1908490612b74565b90915550506001600160a01b03831660008181526003602052604090819020805485019055513390600080516020612fef83398151915290610b479086815260200190565b6002546000908015610c0657610c016114fd610997565b600254859190611a4c565b6000611512611c38565b61151b84612364565b83600c600082825461152d9190612b74565b9091555050600b5461154a906001600160a01b0316333087611e2f565b600b54604080516000815260208101909152611571916001600160a01b031690869061239c565b506115a66001600160a01b037f00000000000000000000000000000000000000000000000000000000000000001684866124c8565b826001600160a01b0316826001600160a01b03167ff341246adaac6f497bc2a656f546ab9e182111d630394f0c57c710a59a2cb56786846040516115f4929190918252602082015260400190565b60405180910390a3610c086001600a55565b6000611610611c38565b61161984610dfa565b9050806000036116595760405162461bcd60e51b815260206004820152600b60248201526a5a45524f5f41535345545360a81b6044820152606401610e51565b61166284610dfa565b905061166e8285612540565b80600c60008282546116809190612b74565b909155505060408051828152602081018690526001600160a01b0380861692908516917ff341246adaac6f497bc2a656f546ab9e182111d630394f0c57c710a59a2cb567910160405180910390a36117026001600160a01b037f00000000000000000000000000000000000000000000000000000000000000001684836124c8565b610c086001600a55565b6000610a5882610cef565b600080600d838154811061172d5761172d612c8d565b6000918252602080832090910154338352600f8252604080842080546001600160a01b03909316808652600191820185528286205460109095529190942054909450610c089392610ff091612b74565b428410156117cd5760405162461bcd60e51b815260206004820152601760248201527f5045524d49545f444541444c494e455f455850495245440000000000000000006044820152606401610e51565b600060016117d9610d6c565b6001600160a01b038a811660008181526005602090815260409182902080546001810190915582517f6e71edae12b1b97f4d1f60370fef10105fa2faae0126114a169c64845d6126c98184015280840194909452938d166060840152608083018c905260a083019390935260c08083018b90528151808403909101815260e08301909152805192019190912061190160f01b6101008301526101028201929092526101228101919091526101420160408051601f198184030181528282528051602091820120600084529083018083525260ff871690820152606081018590526080810184905260a0016020604051602081039080840390855afa1580156118e5573d6000803e3d6000fd5b5050604051601f1901519150506001600160a01b0381161580159061191b5750876001600160a01b0316816001600160a01b0316145b6119585760405162461bcd60e51b815260206004820152600e60248201526d24a72b20a624a22fa9a4a3a722a960911b6044820152606401610e51565b6001600160a01b0390811660009081526004602090815260408083208a8516808552908352928190208990555188815291928a16917f8c5be1e5ebec7d5bd14f71427d1e84f3dd0314c0f7b2291e5b200ac8c7c3b925910160405180910390a350505050505050565b6000828152600660205260409020600101546119dc81611a72565b610d368383611bad565b6002546000908015610c0657610c0160016119ff610997565b859190611c1a565b7f74e458455daa935f28c556b43e0cc4ad001a8a090f5feee376681e97d4618f46611a3181611a72565b611a488260000151836020015184604001516125a2565b5050565b6000826000190484118302158202611a6357600080fd5b50910281810615159190040190565b611a7c81336126c4565b50565b6000611a8b838361109b565b611b0b5760008381526006602090815260408083206001600160a01b03861684529091529020805460ff19166001179055611ac33390565b6001600160a01b0316826001600160a01b0316847f2f8788117e7eff1d82e926ec794901d17c78024a50270940304540a733656f0d60405160405180910390a4506001610a58565b506000610a58565b60007f8b73c3c69bb8fe3d512ecc4cf759cc79239f7b179b0ffacaa9a75d522b39400f6000604051611b459190612cbc565b6040805191829003822060208301939093528101919091527fc89efdaa54c0f20c7adf612882df0950f5a951637e0307cdcb4c672f298b8bc660608201524660808201523060a082015260c00160405160208183030381529060405280519060200120905090565b6000611bb9838361109b565b15611b0b5760008381526006602090815260408083206001600160a01b0386168085529252808320805460ff1916905551339286917ff6391f5c32d9c69d2a47ea670b442974b53935d1edc7fd64eb21e047a839171b9190a4506001610a58565b6000826000190484118302158202611c3157600080fd5b5091020490565b6002600a5403611c5b57604051633ee5aeb560e01b815260040160405180910390fd5b6002600a55565b60006040516323b872dd60e01b81528460048201528360248201528260448201526020600060648360008a5af13d15601f3d1160016000511416171691505080611ce55760405162461bcd60e51b81526020600482015260146024820152731514905394d1915497d19493d357d1905253115160621b6044820152606401610e51565b5050505050565b6000606060008060006101676001600160a01b031663278e0b8860e01b898989604051602401611d1e93929190612d5d565b60408051601f198184030181529181526020820180516001600160e01b03166001600160e01b0319909416939093179092529051611d5c9190612de2565b6000604051808303816000865af19150503d8060008114611d99576040519150601f19603f3d011682016040523d82523d6000602084013e611d9e565b606091505b509150915081611dc1576040805160008082526020820190925260159190611dd5565b80806020019051810190611dd59190612e28565b90965094509250600383900b601614611e245760405162461bcd60e51b815260206004820152601160248201527053616665206d696e74206661696c65642160781b6044820152606401610e51565b505050935093915050565b604080516001600160a01b038681166024830152858116604483015284166064820152600783900b6084808301919091528251808303909101815260a490910182526020810180516001600160e01b031663eca3691760e01b17905290516000918291829161016791611ea29190612de2565b6000604051808303816000865af19150503d8060008114611edf576040519150601f19603f3d011682016040523d82523d6000602084013e611ee4565b606091505b509150915081611ef5576015611f09565b80806020019051810190611f099190612f04565b9250600383900b601614611f5f5760405162461bcd60e51b815260206004820152601b60248201527f5361666520746f6b656e207472616e73666572206661696c65642100000000006044820152606401610e51565b50505050505050565b336000908152600f602052604090206002015460ff1661203957600d5460005b81811015611ffa576000600d8281548110611fa557611fa5612c8d565b60009182526020808320909101546001600160a01b03168083526010825260408084205433808652600f8552828620848752600101909452932092909255909150611ff1908290612246565b50600101611f88565b50336000908152600f60205260408120838155600201805460ff19166001179055600c805484929061202d908490612c7a565b90915550611a7c915050565b6120436000610f5d565b5050336000908152600f602052604081208054839290612064908490612c7a565b9250508190555080600c600082825461207d9190612c7a565b909155505050565b6008546009546001600160a01b03909116906000906120a59084906126fd565b90506001600160a01b03821661211a578034146121045760405162461bcd60e51b815260206004820152601e60248201527f46433a204e6f7420656e6f756768204842415220746f207061792066656500006044820152606401610e51565b600754610df5906001600160a01b03168261277d565b6040516370a0823160e01b815233600482015281906001600160a01b038416906370a0823190602401602060405180830381865afa158015612160573d6000803e3d6000fd5b505050506040513d601f19601f820116820180604052508101906121849190612b0b565b10156121d25760405162461bcd60e51b815260206004820152601e60248201527f46433a20496e73756666696369656e7420746f6b656e2062616c616e636500006044820152606401610e51565b600754610df590839033906001600160a01b031684611e2f565b80600260008282546121fe9190612c7a565b90915550506001600160a01b038216600081815260036020908152604080832080548601905551848152600080516020612fef83398151915291015b60405180910390a35050565b604080516001600160a01b038381166024830152841660448083019190915282518083039091018152606490910182526020810180516001600160e01b031663248a35ef60e11b179052905160009182918291610167916122a79190612de2565b6000604051808303816000865af19150503d80600081146122e4576040519150601f19603f3d011682016040523d82523d6000602084013e6122e9565b606091505b5091509150816122fa57601561230e565b8080602001905181019061230e9190612f04565b9250600383900b601614611ce55760405162461bcd60e51b815260206004820152601f60248201527f536166652073696e676c65206173736f63696174696f6e206661696c656421006044820152606401610e51565b336000908152600f602052604081208054839290612383908490612b74565b9250508190555080600c600082825461207d9190612b74565b6000806000806101676001600160a01b031663acb9cff960e01b8888886040516024016123cb93929190612f1f565b60408051601f198184030181529181526020820180516001600160e01b03166001600160e01b03199094169390931790925290516124099190612de2565b6000604051808303816000865af19150503d8060008114612446576040519150601f19603f3d011682016040523d82523d6000602084013e61244b565b606091505b50915091508161245e5760156000612472565b808060200190518101906124729190612f8b565b94509250600383900b6016146124be5760405162461bcd60e51b815260206004820152601160248201527053616665206275726e206661696c65642160781b6044820152606401610e51565b5050509392505050565b600060405163a9059cbb60e01b8152836004820152826024820152602060006044836000895af13d15601f3d1160016000511416171691505080610d365760405162461bcd60e51b815260206004820152600f60248201526e1514905394d1915497d19052531151608a1b6044820152606401610e51565b6001600160a01b03821660009081526003602052604081208054839290612568908490612b74565b90915550506002805482900390556040518181526000906001600160a01b03841690600080516020612fef8339815191529060200161223a565b6000811180156125ba57506001600160a01b03831615155b6126065760405162461bcd60e51b815260206004820152601b60248201527f46433a20496e76616c69642066656520636f6e666967206461746100000000006044820152606401610e51565b61271081106126495760405162461bcd60e51b815260206004820152600f60248201526e46433a20496e76616c69642066656560881b6044820152606401610e51565b600780546001600160a01b038581166001600160a01b0319928316811790935560088054918616919092168117909155600983905560408051928352602083019190915281018290527febd34b2df88ea5c9f67c04b13b08e5e63c2d17e269aab73b866fe47a8736a2649060600160405180910390a1505050565b6126ce828261109b565b611a485760405163e2517d3f60e01b81526001600160a01b038216600482015260248101839052604401610e51565b600061271061270c8385612fb5565b10156127665760405162461bcd60e51b8152602060048201526024808201527f46433a20546f6f20736d616c6c20616d6f756e7420746f20636f6e73696465726044820152632066656560e01b6064820152608401610e51565b6127106127738385612fb5565b610c089190612fcc565b804710156127a05760405163cd78605960e01b8152306004820152602401610e51565b6000826001600160a01b03168260405160006040518083038185875af1925050503d80600081146127ed576040519150601f19603f3d011682016040523d82523d6000602084013e6127f2565b606091505b5050905080610df557604051630a12f52160e11b815260040160405180910390fd5b60006020828403121561282657600080fd5b81356001600160e01b031981168114610c0857600080fd5b60005b83811015612859578181015183820152602001612841565b50506000910152565b6000815180845261287a81602086016020860161283e565b601f01601f19169290920160200192915050565b602081526000610c086020830184612862565b80356001600160a01b03811681146128b857600080fd5b919050565b600080604083850312156128d057600080fd5b6128d9836128a1565b946020939093013593505050565b6000602082840312156128f957600080fd5b5035919050565b60006020828403121561291257600080fd5b610c08826128a1565b60008060006060848603121561293057600080fd5b612939846128a1565b9250612947602085016128a1565b9150604084013590509250925092565b6000806040838503121561296a57600080fd5b8235915061297a602084016128a1565b90509250929050565b60008060006060848603121561299857600080fd5b833592506129a8602085016128a1565b91506129b6604085016128a1565b90509250925092565b600080600080600080600060e0888a0312156129da57600080fd5b6129e3886128a1565b96506129f1602089016128a1565b95506040880135945060608801359350608088013560ff81168114612a1557600080fd5b9699959850939692959460a0840135945060c09093013592915050565b60008060408385031215612a4557600080fd5b612a4e836128a1565b915061297a602084016128a1565b634e487b7160e01b600052604160045260246000fd5b604051601f8201601f1916810167ffffffffffffffff81118282101715612a9b57612a9b612a5c565b604052919050565b600060608284031215612ab557600080fd5b6040516060810181811067ffffffffffffffff82111715612ad857612ad8612a5c565b604052612ae4836128a1565b8152612af2602084016128a1565b6020820152604083013560408201528091505092915050565b600060208284031215612b1d57600080fd5b5051919050565b600181811c90821680612b3857607f821691505b602082108103612b5857634e487b7160e01b600052602260045260246000fd5b50919050565b634e487b7160e01b600052601160045260246000fd5b81810381811115610a5857610a58612b5e565b600181815b80851115612bc2578160001904821115612ba857612ba8612b5e565b80851615612bb557918102915b93841c9390800290612b8c565b509250929050565b600082612bd957506001610a58565b81612be657506000610a58565b8160018114612bfc5760028114612c0657612c22565b6001915050610a58565b60ff841115612c1757612c17612b5e565b50506001821b610a58565b5060208310610133831016604e8410600b8410161715612c45575081810a610a58565b612c4f8383612b87565b8060001904821115612c6357612c63612b5e565b029392505050565b6000610c0860ff841683612bca565b80820180821115610a5857610a58612b5e565b634e487b7160e01b600052603260045260246000fd5b600060018201612cb557612cb5612b5e565b5060010190565b60008083548160018260011c91506001831680612cda57607f831692505b60208084108203612cf957634e487b7160e01b86526022600452602486fd5b818015612d0d5760018114612d2257612d4f565b60ff1986168952841515850289019650612d4f565b60008a81526020902060005b86811015612d475781548b820152908501908301612d2e565b505084890196505b509498975050505050505050565b60006060820160018060a01b0386168352602067ffffffffffffffff861660208501526060604085015281855180845260808601915060808160051b87010193506020870160005b82811015612dd357607f19888703018452612dc1868351612862565b95509284019290840190600101612da5565b50939998505050505050505050565b60008251612df481846020870161283e565b9190910192915050565b8051600381900b81146128b857600080fd5b805167ffffffffffffffff811681146128b857600080fd5b600080600060608486031215612e3d57600080fd5b612e4684612dfe565b92506020612e55818601612e10565b9250604085015167ffffffffffffffff80821115612e7257600080fd5b818701915087601f830112612e8657600080fd5b815181811115612e9857612e98612a5c565b8060051b9150612ea9848301612a72565b818152918301840191848101908a841115612ec357600080fd5b938501935b83851015612ef457845192508260070b8314612ee45760008081fd5b8282529385019390850190612ec8565b8096505050505050509250925092565b600060208284031215612f1657600080fd5b610c0882612dfe565b6001600160a01b038416815267ffffffffffffffff83166020808301919091526060604083018190528351908301819052600091848101916080850190845b81811015612f7d57845160070b83529383019391830191600101612f5e565b509098975050505050505050565b60008060408385031215612f9e57600080fd5b612fa783612dfe565b915061297a60208401612e10565b8082028115828204841417610a5857610a58612b5e565b600082612fe957634e487b7160e01b600052601260045260246000fd5b50049056feddf252ad1be2c89b69c2b068fc378daa952ba7f163c4a11628f55a4df523b3efa2646970667358221220c65967628237648b28a2cd247d816226755bc516faee82e88decc4e58470a76364736f6c63430008180033",
  "linkReferences": {},
  "deployedLinkReferences": {}
}