{
  "_format": "hh-sol-artifact-1",
  "contractName": "HederaVault",
  "sourceName": "contracts/erc4626/Vault.sol",
  "abi": [
    {
      "inputs": [
        {
          "internalType": "contract ERC20",
          "name": "_underlying",
          "type": "address"
        },
        {
          "internalType": "string",
          "name": "_name",
          "type": "string"
        },
        {
          "internalType": "string",
          "name": "_symbol",
          "type": "string"
        },
        {
          "components": [
            {
              "internalType": "address",
              "name": "receiver",
              "type": "address"
            },
            {
              "internalType": "address",
              "name": "token",
              "type": "address"
            },
            {
              "internalType": "uint256",
              "name": "feePercentage",
              "type": "uint256"
            }
          ],
          "internalType": "struct FeeConfiguration.FeeConfig",
          "name": "_feeConfig",
          "type": "tuple"
        },
        {
          "internalType": "address",
          "name": "_vaultRewardController",
          "type": "address"
        },
        {
          "internalType": "address",
          "name": "_feeConfigController",
          "type": "address"
        }
      ],
      "stateMutability": "payable",
      "type": "constructor"
    },
    {
      "inputs": [],
      "name": "AccessControlBadConfirmation",
      "type": "error"
    },
    {
      "inputs": [
        {
          "internalType": "address",
          "name": "account",
          "type": "address"
        },
        {
          "internalType": "bytes32",
          "name": "neededRole",
          "type": "bytes32"
        }
      ],
      "name": "AccessControlUnauthorizedAccount",
      "type": "error"
    },
    {
      "inputs": [
        {
          "internalType": "address",
          "name": "account",
          "type": "address"
        }
      ],
      "name": "AddressInsufficientBalance",
      "type": "error"
    },
    {
      "inputs": [],
      "name": "FailedInnerCall",
      "type": "error"
    },
    {
      "inputs": [],
      "name": "MaxRewardTokensAmount",
      "type": "error"
    },
    {
      "inputs": [
        {
          "internalType": "address",
          "name": "owner",
          "type": "address"
        }
      ],
      "name": "OwnableInvalidOwner",
      "type": "error"
    },
    {
      "inputs": [
        {
          "internalType": "address",
          "name": "account",
          "type": "address"
        }
      ],
      "name": "OwnableUnauthorizedAccount",
      "type": "error"
    },
    {
      "inputs": [],
      "name": "ReentrancyGuardReentrantCall",
      "type": "error"
    },
    {
      "inputs": [
        {
          "internalType": "uint256",
          "name": "numberOfShares",
          "type": "uint256"
        }
      ],
      "name": "ZeroShares",
      "type": "error"
    },
    {
      "anonymous": false,
      "inputs": [
        {
          "indexed": true,
          "internalType": "address",
          "name": "owner",
          "type": "address"
        },
        {
          "indexed": true,
          "internalType": "address",
          "name": "spender",
          "type": "address"
        },
        {
          "indexed": false,
          "internalType": "uint256",
          "name": "amount",
          "type": "uint256"
        }
      ],
      "name": "Approval",
      "type": "event"
    },
    {
      "anonymous": false,
      "inputs": [
        {
          "indexed": true,
          "internalType": "address",
          "name": "createdToken",
          "type": "address"
        }
      ],
      "name": "CreatedToken",
      "type": "event"
    },
    {
      "anonymous": false,
      "inputs": [
        {
          "indexed": true,
          "internalType": "address",
          "name": "sender",
          "type": "address"
        },
        {
          "indexed": true,
          "internalType": "address",
          "name": "receiver",
          "type": "address"
        },
        {
          "indexed": false,
          "internalType": "uint256",
          "name": "assets",
          "type": "uint256"
        },
        {
          "indexed": false,
          "internalType": "uint256",
          "name": "shares",
          "type": "uint256"
        }
      ],
      "name": "Deposit",
      "type": "event"
    },
    {
      "anonymous": false,
      "inputs": [
        {
          "components": [
            {
              "internalType": "address",
              "name": "receiver",
              "type": "address"
            },
            {
              "internalType": "address",
              "name": "token",
              "type": "address"
            },
            {
              "internalType": "uint256",
              "name": "feePercentage",
              "type": "uint256"
            }
          ],
          "indexed": false,
          "internalType": "struct FeeConfiguration.FeeConfig",
          "name": "feeConfig",
          "type": "tuple"
        }
      ],
      "name": "FeeConfigUpdated",
      "type": "event"
    },
    {
      "anonymous": false,
      "inputs": [
        {
          "indexed": true,
          "internalType": "address",
          "name": "previousOwner",
          "type": "address"
        },
        {
          "indexed": true,
          "internalType": "address",
          "name": "newOwner",
          "type": "address"
        }
      ],
      "name": "OwnershipTransferred",
      "type": "event"
    },
    {
      "anonymous": false,
      "inputs": [
        {
          "indexed": true,
          "internalType": "address",
          "name": "rewardToken",
          "type": "address"
        },
        {
          "indexed": false,
          "internalType": "uint256",
          "name": "amount",
          "type": "uint256"
        }
      ],
      "name": "RewardAdded",
      "type": "event"
    },
    {
      "anonymous": false,
      "inputs": [
        {
          "indexed": true,
          "internalType": "bytes32",
          "name": "role",
          "type": "bytes32"
        },
        {
          "indexed": true,
          "internalType": "bytes32",
          "name": "previousAdminRole",
          "type": "bytes32"
        },
        {
          "indexed": true,
          "internalType": "bytes32",
          "name": "newAdminRole",
          "type": "bytes32"
        }
      ],
      "name": "RoleAdminChanged",
      "type": "event"
    },
    {
      "anonymous": false,
      "inputs": [
        {
          "indexed": true,
          "internalType": "bytes32",
          "name": "role",
          "type": "bytes32"
        },
        {
          "indexed": true,
          "internalType": "address",
          "name": "account",
          "type": "address"
        },
        {
          "indexed": true,
          "internalType": "address",
          "name": "sender",
          "type": "address"
        }
      ],
      "name": "RoleGranted",
      "type": "event"
    },
    {
      "anonymous": false,
      "inputs": [
        {
          "indexed": true,
          "internalType": "bytes32",
          "name": "role",
          "type": "bytes32"
        },
        {
          "indexed": true,
          "internalType": "address",
          "name": "account",
          "type": "address"
        },
        {
          "indexed": true,
          "internalType": "address",
          "name": "sender",
          "type": "address"
        }
      ],
      "name": "RoleRevoked",
      "type": "event"
    },
    {
      "anonymous": false,
      "inputs": [
        {
          "indexed": true,
          "internalType": "address",
          "name": "from",
          "type": "address"
        },
        {
          "indexed": true,
          "internalType": "address",
          "name": "to",
          "type": "address"
        },
        {
          "indexed": false,
          "internalType": "uint256",
          "name": "amount",
          "type": "uint256"
        }
      ],
      "name": "Transfer",
      "type": "event"
    },
    {
      "anonymous": false,
      "inputs": [
        {
          "indexed": true,
          "internalType": "address",
          "name": "sender",
          "type": "address"
        },
        {
          "indexed": true,
          "internalType": "address",
          "name": "receiver",
          "type": "address"
        },
        {
          "indexed": false,
          "internalType": "uint256",
          "name": "assets",
          "type": "uint256"
        },
        {
          "indexed": false,
          "internalType": "uint256",
          "name": "shares",
          "type": "uint256"
        }
      ],
      "name": "Withdraw",
      "type": "event"
    },
    {
      "inputs": [],
      "name": "DEFAULT_ADMIN_ROLE",
      "outputs": [
        {
          "internalType": "bytes32",
          "name": "",
          "type": "bytes32"
        }
      ],
      "stateMutability": "view",
      "type": "function"
    },
    {
      "inputs": [],
      "name": "DOMAIN_SEPARATOR",
      "outputs": [
        {
          "internalType": "bytes32",
          "name": "",
          "type": "bytes32"
        }
      ],
      "stateMutability": "view",
      "type": "function"
    },
    {
      "inputs": [],
      "name": "FEE_CONFIG_CONTROLLER_ROLE",
      "outputs": [
        {
          "internalType": "bytes32",
          "name": "",
          "type": "bytes32"
        }
      ],
      "stateMutability": "view",
      "type": "function"
    },
    {
      "inputs": [],
      "name": "VAULT_REWARD_CONTROLLER_ROLE",
      "outputs": [
        {
          "internalType": "bytes32",
          "name": "",
          "type": "bytes32"
        }
      ],
      "stateMutability": "view",
      "type": "function"
    },
    {
      "inputs": [
        {
          "internalType": "address",
          "name": "_token",
          "type": "address"
        },
        {
          "internalType": "uint256",
          "name": "_amount",
          "type": "uint256"
        }
      ],
      "name": "addReward",
      "outputs": [],
      "stateMutability": "payable",
      "type": "function"
    },
    {
      "inputs": [
        {
          "internalType": "address",
          "name": "",
          "type": "address"
        },
        {
          "internalType": "address",
          "name": "",
          "type": "address"
        }
      ],
      "name": "allowance",
      "outputs": [
        {
          "internalType": "uint256",
          "name": "",
          "type": "uint256"
        }
      ],
      "stateMutability": "view",
      "type": "function"
    },
    {
      "inputs": [
        {
          "internalType": "address",
          "name": "spender",
          "type": "address"
        },
        {
          "internalType": "uint256",
          "name": "amount",
          "type": "uint256"
        }
      ],
      "name": "approve",
      "outputs": [
        {
          "internalType": "bool",
          "name": "",
          "type": "bool"
        }
      ],
      "stateMutability": "nonpayable",
      "type": "function"
    },
    {
      "inputs": [],
      "name": "asset",
      "outputs": [
        {
          "internalType": "contract ERC20",
          "name": "",
          "type": "address"
        }
      ],
      "stateMutability": "view",
      "type": "function"
    },
    {
      "inputs": [],
      "name": "assetTotalSupply",
      "outputs": [
        {
          "internalType": "uint256",
          "name": "",
          "type": "uint256"
        }
      ],
      "stateMutability": "view",
      "type": "function"
    },
    {
      "inputs": [
        {
          "internalType": "address",
          "name": "user",
          "type": "address"
        }
      ],
      "name": "assetsOf",
      "outputs": [
        {
          "internalType": "uint256",
          "name": "",
          "type": "uint256"
        }
      ],
      "stateMutability": "view",
      "type": "function"
    },
    {
      "inputs": [],
      "name": "assetsPerShare",
      "outputs": [
        {
          "internalType": "uint256",
          "name": "",
          "type": "uint256"
        }
      ],
      "stateMutability": "view",
      "type": "function"
    },
    {
      "inputs": [
        {
          "internalType": "address",
          "name": "",
          "type": "address"
        }
      ],
      "name": "balanceOf",
      "outputs": [
        {
          "internalType": "uint256",
          "name": "",
          "type": "uint256"
        }
      ],
      "stateMutability": "view",
      "type": "function"
    },
    {
      "inputs": [
        {
          "internalType": "uint256",
          "name": "_id",
          "type": "uint256"
        }
      ],
      "name": "calculateReward",
      "outputs": [
        {
          "internalType": "uint256",
          "name": "reward",
          "type": "uint256"
        }
      ],
      "stateMutability": "view",
      "type": "function"
    },
    {
      "inputs": [
        {
          "internalType": "uint256",
          "name": "_startPosition",
          "type": "uint256"
        }
      ],
      "name": "claimAllReward",
      "outputs": [
        {
          "internalType": "uint256",
          "name": "",
          "type": "uint256"
        },
        {
          "internalType": "uint256",
          "name": "",
          "type": "uint256"
        }
      ],
      "stateMutability": "payable",
      "type": "function"
    },
    {
      "inputs": [],
      "name": "decimals",
      "outputs": [
        {
          "internalType": "uint8",
          "name": "",
          "type": "uint8"
        }
      ],
      "stateMutability": "view",
      "type": "function"
    },
    {
      "inputs": [
        {
          "internalType": "uint256",
          "name": "assets",
          "type": "uint256"
        },
        {
          "internalType": "address",
          "name": "receiver",
          "type": "address"
        }
      ],
      "name": "deposit",
      "outputs": [
        {
          "internalType": "uint256",
          "name": "shares",
          "type": "uint256"
        }
      ],
      "stateMutability": "nonpayable",
      "type": "function"
    },
    {
      "inputs": [],
      "name": "feeConfig",
      "outputs": [
        {
          "internalType": "address",
          "name": "receiver",
          "type": "address"
        },
        {
          "internalType": "address",
          "name": "token",
          "type": "address"
        },
        {
          "internalType": "uint256",
          "name": "feePercentage",
          "type": "uint256"
        }
      ],
      "stateMutability": "view",
      "type": "function"
    },
    {
      "inputs": [],
      "name": "getRewardTokens",
      "outputs": [
        {
          "internalType": "address[]",
          "name": "",
          "type": "address[]"
        }
      ],
      "stateMutability": "view",
      "type": "function"
    },
    {
      "inputs": [
        {
          "internalType": "bytes32",
          "name": "role",
          "type": "bytes32"
        }
      ],
      "name": "getRoleAdmin",
      "outputs": [
        {
          "internalType": "bytes32",
          "name": "",
          "type": "bytes32"
        }
      ],
      "stateMutability": "view",
      "type": "function"
    },
    {
      "inputs": [
        {
          "internalType": "bytes32",
          "name": "role",
          "type": "bytes32"
        },
        {
          "internalType": "address",
          "name": "account",
          "type": "address"
        }
      ],
      "name": "grantRole",
      "outputs": [],
      "stateMutability": "nonpayable",
      "type": "function"
    },
    {
      "inputs": [
        {
          "internalType": "bytes32",
          "name": "role",
          "type": "bytes32"
        },
        {
          "internalType": "address",
          "name": "account",
          "type": "address"
        }
      ],
      "name": "hasRole",
      "outputs": [
        {
          "internalType": "bool",
          "name": "",
          "type": "bool"
        }
      ],
      "stateMutability": "view",
      "type": "function"
    },
    {
      "inputs": [
        {
          "internalType": "address",
          "name": "",
          "type": "address"
        }
      ],
      "name": "maxDeposit",
      "outputs": [
        {
          "internalType": "uint256",
          "name": "",
          "type": "uint256"
        }
      ],
      "stateMutability": "pure",
      "type": "function"
    },
    {
      "inputs": [
        {
          "internalType": "address",
          "name": "",
          "type": "address"
        }
      ],
      "name": "maxMint",
      "outputs": [
        {
          "internalType": "uint256",
          "name": "",
          "type": "uint256"
        }
      ],
      "stateMutability": "pure",
      "type": "function"
    },
    {
      "inputs": [
        {
          "internalType": "address",
          "name": "user",
          "type": "address"
        }
      ],
      "name": "maxRedeem",
      "outputs": [
        {
          "internalType": "uint256",
          "name": "",
          "type": "uint256"
        }
      ],
      "stateMutability": "view",
      "type": "function"
    },
    {
      "inputs": [
        {
          "internalType": "address",
          "name": "user",
          "type": "address"
        }
      ],
      "name": "maxWithdraw",
      "outputs": [
        {
          "internalType": "uint256",
          "name": "",
          "type": "uint256"
        }
      ],
      "stateMutability": "view",
      "type": "function"
    },
    {
      "inputs": [
        {
          "internalType": "uint256",
          "name": "shares",
          "type": "uint256"
        },
        {
          "internalType": "address",
          "name": "to",
          "type": "address"
        }
      ],
      "name": "mint",
      "outputs": [
        {
          "internalType": "uint256",
          "name": "amount",
          "type": "uint256"
        }
      ],
      "stateMutability": "nonpayable",
      "type": "function"
    },
    {
      "inputs": [],
      "name": "name",
      "outputs": [
        {
          "internalType": "string",
          "name": "",
          "type": "string"
        }
      ],
      "stateMutability": "view",
      "type": "function"
    },
    {
      "inputs": [
        {
          "internalType": "address",
          "name": "",
          "type": "address"
        }
      ],
      "name": "nonces",
      "outputs": [
        {
          "internalType": "uint256",
          "name": "",
          "type": "uint256"
        }
      ],
      "stateMutability": "view",
      "type": "function"
    },
    {
      "inputs": [],
      "name": "owner",
      "outputs": [
        {
          "internalType": "address",
          "name": "",
          "type": "address"
        }
      ],
      "stateMutability": "view",
      "type": "function"
    },
    {
      "inputs": [
        {
          "internalType": "address",
          "name": "owner",
          "type": "address"
        },
        {
          "internalType": "address",
          "name": "spender",
          "type": "address"
        },
        {
          "internalType": "uint256",
          "name": "value",
          "type": "uint256"
        },
        {
          "internalType": "uint256",
          "name": "deadline",
          "type": "uint256"
        },
        {
          "internalType": "uint8",
          "name": "v",
          "type": "uint8"
        },
        {
          "internalType": "bytes32",
          "name": "r",
          "type": "bytes32"
        },
        {
          "internalType": "bytes32",
          "name": "s",
          "type": "bytes32"
        }
      ],
      "name": "permit",
      "outputs": [],
      "stateMutability": "nonpayable",
      "type": "function"
    },
    {
      "inputs": [
        {
          "internalType": "uint256",
          "name": "amount",
          "type": "uint256"
        }
      ],
      "name": "previewDeposit",
      "outputs": [
        {
          "internalType": "uint256",
          "name": "shares",
          "type": "uint256"
        }
      ],
      "stateMutability": "view",
      "type": "function"
    },
    {
      "inputs": [
        {
          "internalType": "uint256",
          "name": "shares",
          "type": "uint256"
        }
      ],
      "name": "previewMint",
      "outputs": [
        {
          "internalType": "uint256",
          "name": "amount",
          "type": "uint256"
        }
      ],
      "stateMutability": "view",
      "type": "function"
    },
    {
      "inputs": [
        {
          "internalType": "uint256",
          "name": "shares",
          "type": "uint256"
        }
      ],
      "name": "previewRedeem",
      "outputs": [
        {
          "internalType": "uint256",
          "name": "amount",
          "type": "uint256"
        }
      ],
      "stateMutability": "view",
      "type": "function"
    },
    {
      "inputs": [
        {
          "internalType": "uint256",
          "name": "amount",
          "type": "uint256"
        }
      ],
      "name": "previewWithdraw",
      "outputs": [
        {
          "internalType": "uint256",
          "name": "shares",
          "type": "uint256"
        }
      ],
      "stateMutability": "view",
      "type": "function"
    },
    {
      "inputs": [
        {
          "internalType": "uint256",
          "name": "shares",
          "type": "uint256"
        },
        {
          "internalType": "address",
          "name": "receiver",
          "type": "address"
        },
        {
          "internalType": "address",
          "name": "from",
          "type": "address"
        }
      ],
      "name": "redeem",
      "outputs": [
        {
          "internalType": "uint256",
          "name": "amount",
          "type": "uint256"
        }
      ],
      "stateMutability": "nonpayable",
      "type": "function"
    },
    {
      "inputs": [],
      "name": "renounceOwnership",
      "outputs": [],
      "stateMutability": "nonpayable",
      "type": "function"
    },
    {
      "inputs": [
        {
          "internalType": "bytes32",
          "name": "role",
          "type": "bytes32"
        },
        {
          "internalType": "address",
          "name": "callerConfirmation",
          "type": "address"
        }
      ],
      "name": "renounceRole",
      "outputs": [],
      "stateMutability": "nonpayable",
      "type": "function"
    },
    {
      "inputs": [
        {
          "internalType": "bytes32",
          "name": "role",
          "type": "bytes32"
        },
        {
          "internalType": "address",
          "name": "account",
          "type": "address"
        }
      ],
      "name": "revokeRole",
      "outputs": [],
      "stateMutability": "nonpayable",
      "type": "function"
    },
    {
      "inputs": [
        {
          "internalType": "uint256",
          "name": "",
          "type": "uint256"
        }
      ],
      "name": "rewardTokens",
      "outputs": [
        {
          "internalType": "address",
          "name": "",
          "type": "address"
        }
      ],
      "stateMutability": "view",
      "type": "function"
    },
    {
      "inputs": [],
      "name": "share",
      "outputs": [
        {
          "internalType": "address",
          "name": "",
          "type": "address"
        }
      ],
      "stateMutability": "view",
      "type": "function"
    },
    {
      "inputs": [
        {
          "internalType": "bytes4",
          "name": "interfaceId",
          "type": "bytes4"
        }
      ],
      "name": "supportsInterface",
      "outputs": [
        {
          "internalType": "bool",
          "name": "",
          "type": "bool"
        }
      ],
      "stateMutability": "view",
      "type": "function"
    },
    {
      "inputs": [],
      "name": "symbol",
      "outputs": [
        {
          "internalType": "string",
          "name": "",
          "type": "string"
        }
      ],
      "stateMutability": "view",
      "type": "function"
    },
    {
      "inputs": [
        {
          "internalType": "address",
          "name": "",
          "type": "address"
        }
      ],
      "name": "tokensRewardInfo",
      "outputs": [
        {
          "internalType": "uint256",
          "name": "amount",
          "type": "uint256"
        },
        {
          "internalType": "bool",
          "name": "exist",
          "type": "bool"
        }
      ],
      "stateMutability": "view",
      "type": "function"
    },
    {
      "inputs": [],
      "name": "totalAssets",
      "outputs": [
        {
          "internalType": "uint256",
          "name": "",
          "type": "uint256"
        }
      ],
      "stateMutability": "view",
      "type": "function"
    },
    {
      "inputs": [],
      "name": "totalSupply",
      "outputs": [
        {
          "internalType": "uint256",
          "name": "",
          "type": "uint256"
        }
      ],
      "stateMutability": "view",
      "type": "function"
    },
    {
      "inputs": [
        {
          "internalType": "address",
          "name": "to",
          "type": "address"
        },
        {
          "internalType": "uint256",
          "name": "amount",
          "type": "uint256"
        }
      ],
      "name": "transfer",
      "outputs": [
        {
          "internalType": "bool",
          "name": "",
          "type": "bool"
        }
      ],
      "stateMutability": "nonpayable",
      "type": "function"
    },
    {
      "inputs": [
        {
          "internalType": "address",
          "name": "from",
          "type": "address"
        },
        {
          "internalType": "address",
          "name": "to",
          "type": "address"
        },
        {
          "internalType": "uint256",
          "name": "amount",
          "type": "uint256"
        }
      ],
      "name": "transferFrom",
      "outputs": [
        {
          "internalType": "bool",
          "name": "",
          "type": "bool"
        }
      ],
      "stateMutability": "nonpayable",
      "type": "function"
    },
    {
      "inputs": [
        {
          "internalType": "address",
          "name": "newOwner",
          "type": "address"
        }
      ],
      "name": "transferOwnership",
      "outputs": [],
      "stateMutability": "nonpayable",
      "type": "function"
    },
    {
      "inputs": [
        {
          "components": [
            {
              "internalType": "address",
              "name": "receiver",
              "type": "address"
            },
            {
              "internalType": "address",
              "name": "token",
              "type": "address"
            },
            {
              "internalType": "uint256",
              "name": "feePercentage",
              "type": "uint256"
            }
          ],
          "internalType": "struct FeeConfiguration.FeeConfig",
          "name": "_feeConfig",
          "type": "tuple"
        }
      ],
      "name": "updateFeeConfig",
      "outputs": [],
      "stateMutability": "nonpayable",
      "type": "function"
    },
    {
      "inputs": [
        {
          "internalType": "address",
          "name": "",
          "type": "address"
        }
      ],
      "name": "userContribution",
      "outputs": [
        {
          "internalType": "uint256",
          "name": "sharesAmount",
          "type": "uint256"
        },
        {
          "internalType": "bool",
          "name": "exist",
          "type": "bool"
        }
      ],
      "stateMutability": "view",
      "type": "function"
    },
    {
      "inputs": [
        {
          "internalType": "uint256",
          "name": "amount",
          "type": "uint256"
        },
        {
          "internalType": "address",
          "name": "receiver",
          "type": "address"
        },
        {
          "internalType": "address",
          "name": "from",
          "type": "address"
        }
      ],
      "name": "withdraw",
      "outputs": [
        {
          "internalType": "uint256",
          "name": "shares",
          "type": "uint256"
        }
      ],
      "stateMutability": "nonpayable",
      "type": "function"
    }
  ],
  "bytecode": "0x6101006040526040516200440438038062004404833981016040819052620000279162000b71565b338585886001600160a01b031663313ce5676040518163ffffffff1660e01b8152600401602060405180830381865afa15801562000069573d6000803e3d6000fd5b505050506040513d601f19601f820116820180604052508101906200008f919062000c6a565b60006200009d848262000d27565b506001620000ac838262000d27565b5060ff81166080524660a052620000c26200013c565b60c0525050506001600160a01b038116620000f857604051631e4fbdf760e01b8152600060048201526024015b60405180910390fd5b6200010381620001d8565b506001600b55620001168383836200022a565b6001600160a01b03861660e05262000130858588620002b0565b5050505050506200113e565b60007f8b73c3c69bb8fe3d512ecc4cf759cc79239f7b179b0ffacaa9a75d522b39400f600060405162000170919062000df3565b6040805191829003822060208301939093528101919091527fc89efdaa54c0f20c7adf612882df0950f5a951637e0307cdcb4c672f298b8bc660608201524660808201523060a082015260c00160405160208183030381529060405280519060200120905090565b600a80546001600160a01b038381166001600160a01b0319831681179093556040519116919082907f8be0079c531659141344cd1fd0a4f28419497f9722a3daafe3b4186f6b6457e090600090a35050565b8251602084015160408501516200024392919062000553565b620002506000336200067a565b506200027d7f477fc23fb51bb5d5aa814872a393b0e4f35d0916c7503c0fd96584681070d410836200067a565b50620002aa7f74e458455daa935f28c556b43e0cc4ad001a8a090f5feee376681e97d4618f46826200067a565b50505050565b620002bc81306200072d565b6040805160a08082018352600080835260208084018290526060848601819052808501819052306080808701829052875195860188528486528584018590528588018390528583018390528501528551600280825291810190965260109560019594939290919082015b62000330620009f0565b815260200190600190039081620003265790505090506040518060400160405280868152602001848152508160008151811062000371576200037162000e71565b602002602001018190525060405180604001604052808581526020018381525081600181518110620003a757620003a762000e71565b6020026020010181905250620003ec6040518060600160405280600063ffffffff16815260200160006001600160a01b03168152602001600063ffffffff1681525090565b306020820152627a120060408201526200046260408051610120810182526060808252602080830182905260008385018190528284018390526080840181905260a0840181905260c0840181905260e0840183905284519283018552808352908201819052928101929092529061010082015290565b89815260208082018a905230604080840191909152610100830184905260e08301859052805163313ce56760e01b81529051620004ff9284926000926001600160a01b038e169263313ce56792600480820193918290030181865afa158015620004d0573d6000803e3d6000fd5b505050506040513d601f19601f82011682018060405250810190620004f6919062000c6a565b60ff166200085c565b600c80546001600160a01b0319166001600160a01b039290921691821790556040517f7bb17726df1f3adee8aa00ba8e8bc5d6f182af3bbf77604639cb7f008dd3b4ed90600090a250505050505050505050565b6000811180156200056c57506001600160a01b03831615155b620005ba5760405162461bcd60e51b815260206004820152601b60248201527f46433a20496e76616c69642066656520636f6e666967206461746100000000006044820152606401620000ef565b6127108110620005ff5760405162461bcd60e51b815260206004820152600f60248201526e46433a20496e76616c69642066656560881b6044820152606401620000ef565b600780546001600160a01b038581166001600160a01b0319928316811790935560088054918616919092168117909155600983905560408051928352602083019190915281018290527febd34b2df88ea5c9f67c04b13b08e5e63c2d17e269aab73b866fe47a8736a2649060600160405180910390a1505050565b60008281526006602090815260408083206001600160a01b038516845290915281205460ff16620007235760008381526006602090815260408083206001600160a01b03861684529091529020805460ff19166001179055620006da3390565b6001600160a01b0316826001600160a01b0316847f2f8788117e7eff1d82e926ec794901d17c78024a50270940304540a733656f0d60405160405180910390a450600162000727565b5060005b92915050565b604080516001600160a01b038381166024830152841660448083019190915282518083039091018152606490910182526020810180516001600160e01b031663248a35ef60e11b1790529051600091829182916101679162000790919062000e87565b6000604051808303816000865af19150503d8060008114620007cf576040519150601f19603f3d011682016040523d82523d6000602084013e620007d4565b606091505b509150915081620007e7576015620007fd565b80806020019051810190620007fd919062000eb8565b9250600383900b601614620008555760405162461bcd60e51b815260206004820152601f60248201527f536166652073696e676c65206173736f63696174696f6e206661696c656421006044820152606401620000ef565b5050505050565b61010083015151600090849063ffffffff161580156200088957506101008101516040015163ffffffff16155b15620008a0576101008101516276a7006040909101525b60008060006101676001600160a01b031634637812a04b60e01b8a8a8a604051602401620008d19392919062000fd5565b60408051601f198184030181529181526020820180516001600160e01b03166001600160e01b031990941693909317909252905162000911919062000e87565b60006040518083038185875af1925050503d806000811462000950576040519150601f19603f3d011682016040523d82523d6000602084013e62000955565b606091505b5091509150816200096a576015600062000980565b8080602001905181019062000980919062001102565b95509250600383900b601614620009e55760405162461bcd60e51b815260206004820152602260248201527f53616665206372656174652066756e6769626c6520746f6b656e206661696c65604482015261642160f01b6064820152608401620000ef565b505050509392505050565b60405180604001604052806000815260200162000a496040518060a0016040528060001515815260200160006001600160a01b03168152602001606081526020016060815260200160006001600160a01b031681525090565b905290565b6001600160a01b038116811462000a6457600080fd5b50565b634e487b7160e01b600052604160045260246000fd5b604051606081016001600160401b038111828210171562000aa25762000aa262000a67565b60405290565b60005b8381101562000ac557818101518382015260200162000aab565b50506000910152565b600082601f83011262000ae057600080fd5b81516001600160401b038082111562000afd5762000afd62000a67565b604051601f8301601f19908116603f0116810190828211818310171562000b285762000b2862000a67565b8160405283815286602085880101111562000b4257600080fd5b62000b5584602083016020890162000aa8565b9695505050505050565b805162000b6c8162000a4e565b919050565b60008060008060008086880361010081121562000b8d57600080fd5b875162000b9a8162000a4e565b60208901519097506001600160401b038082111562000bb857600080fd5b62000bc68b838c0162000ace565b975060408a015191508082111562000bdd57600080fd5b5062000bec8a828b0162000ace565b9550506060605f198201121562000c0257600080fd5b5062000c0d62000a7d565b606088015162000c1d8162000a4e565b8152608088015162000c2f8162000a4e565b602082015260a08801516040820152925062000c4e60c0880162000b5f565b915062000c5e60e0880162000b5f565b90509295509295509295565b60006020828403121562000c7d57600080fd5b815160ff8116811462000c8f57600080fd5b9392505050565b600181811c9082168062000cab57607f821691505b60208210810362000ccc57634e487b7160e01b600052602260045260246000fd5b50919050565b601f82111562000d22576000816000526020600020601f850160051c8101602086101562000cfd5750805b601f850160051c820191505b8181101562000d1e5782815560010162000d09565b5050505b505050565b81516001600160401b0381111562000d435762000d4362000a67565b62000d5b8162000d54845462000c96565b8462000cd2565b602080601f83116001811462000d93576000841562000d7a5750858301515b600019600386901b1c1916600185901b17855562000d1e565b600085815260208120601f198616915b8281101562000dc45788860151825594840194600190910190840162000da3565b508582101562000de35787850151600019600388901b60f8161c191681555b5050505050600190811b01905550565b600080835462000e038162000c96565b6001828116801562000e1e576001811462000e345762000e65565b60ff198416875282151583028701945062000e65565b8760005260208060002060005b8581101562000e5c5781548a82015290840190820162000e41565b50505082870194505b50929695505050505050565b634e487b7160e01b600052603260045260246000fd5b6000825162000e9b81846020870162000aa8565b9190910192915050565b8051600381900b811462000b6c57600080fd5b60006020828403121562000ecb57600080fd5b62000c8f8262000ea5565b6000815180845262000ef081602086016020860162000aa8565b601f01601f19169290920160200192915050565b600082825180855260208086019550808260051b84010181860160005b8481101562000fc857858303601f1901895281518051845284015160408585018190528151151581860152818601516001600160a01b039081166060808801919091529183015160a0608080890182905291939092909162000f8760e08a018662000ed6565b92860151898403603f1901858b015292945062000fa5858462000ed6565b9501511660c0979097019690965250509884019892509083019060010162000f21565b5090979650505050505050565b606081526000845161016080606085015262000ff66101c085018362000ed6565b91506020870151605f198086850301608087015262001016848362000ed6565b9350604089015191506200103560a08701836001600160a01b03169052565b60608901519150808685030160c087015262001052848362000ed6565b9350608089015191506200106a60e087018315159052565b60a08901519150610100620010868188018463ffffffff169052565b60c08a0151151561012088015260e08a015187860383016101408901529250620010b1858462000f04565b9450808a015192505050620010ee82860182805163ffffffff90811683526020808301516001600160a01b03169084015260409182015116910152565b505060208301949094525060400152919050565b600080604083850312156200111657600080fd5b620011218362000ea5565b91506020830151620011338162000a4e565b809150509250929050565b60805160a05160c05160e051613254620011b0600039600081816105be01528181610a5501528181610c2001528181610f0d015281816111f60152818161130201528181611626015261178201526000610e4601526000610e1601526000818161052e0152610dec01526132546000f3fe6080604052600436106102e45760003560e01c80637ecebe0011610190578063ba087652116100dc578063d505accf11610095578063dd62ed3e1161006f578063dd62ed3e146109a5578063ef8b30f7146109dd578063efa6f425146109fd578063f2fde38b14610a1d57600080fd5b8063d505accf1461092f578063d547741f1461094f578063d905777e1461096f57600080fd5b8063ba08765214610876578063c4f59f9b14610896578063c63d75b6146105f8578063cd9cdfda146108b8578063ce96cb77146108ef578063d2d7231f1461090f57600080fd5b80639feb8f5011610149578063a9059cbb11610123578063a9059cbb146107e2578063b3d7f6b914610802578063b460af9414610822578063b4f6d6131461084257600080fd5b80639feb8f501461079a578063a217fddf146107ad578063a8d5fd65146107c257600080fd5b80637ecebe00146106e45780638da5cb5b146107115780638f12c2f41461072f57806391d148541461074557806394bf804d1461076557806395d89b411461078557600080fd5b80632f2ff15d1161024f578063402d267d1161020857806370a08231116101e257806370a082311461065a578063715018a6146106875780637a07bf3a1461069c5780637bb7bed1146106c457600080fd5b8063402d267d146105f85780634cdad5061461061a5780636e553f651461063a57600080fd5b80632f2ff15d146104fa578063313ce5671461051c57806335d16e17146105625780633644e5151461057757806336568abe1461058c57806338d52e0f146105ac57600080fd5b806316ad0672116102a157806316ad0672146103d757806318160ddd146104235780631e5eb1d01461043957806323b872dd1461048a578063248a9ca3146104aa5780632c62fa10146104da57600080fd5b806301e1d114146102e957806301ffc9a71461031157806305fb2a511461034157806306fdde0314610375578063095ea7b3146103975780630a28a477146103b7575b600080fd5b3480156102f557600080fd5b506102fe610a3d565b6040519081526020015b60405180910390f35b34801561031d57600080fd5b5061033161032c3660046129d7565b610acd565b6040519015158152602001610308565b34801561034d57600080fd5b506102fe7f74e458455daa935f28c556b43e0cc4ad001a8a090f5feee376681e97d4618f4681565b34801561038157600080fd5b5061038a610b04565b6040516103089190612a51565b3480156103a357600080fd5b506103316103b2366004612a80565b610b92565b3480156103c357600080fd5b506102fe6103d2366004612aaa565b610bfe565b3480156103e357600080fd5b5061040e6103f2366004612ac3565b600f602052600090815260409020805460029091015460ff1682565b60408051928352901515602083015201610308565b34801561042f57600080fd5b506102fe60025481565b34801561044557600080fd5b50600754600854600954610464926001600160a01b0390811692169083565b604080516001600160a01b03948516815293909216602084015290820152606001610308565b34801561049657600080fd5b506103316104a5366004612ade565b610cb5565b3480156104b657600080fd5b506102fe6104c5366004612aaa565b60009081526006602052604090206001015490565b3480156104e657600080fd5b506102fe6104f5366004612ac3565b610d95565b34801561050657600080fd5b5061051a610515366004612b1a565b610db7565b005b34801561052857600080fd5b506105507f000000000000000000000000000000000000000000000000000000000000000081565b60405160ff9091168152602001610308565b34801561056e57600080fd5b506102fe610de2565b34801561058357600080fd5b506102fe610e12565b34801561059857600080fd5b5061051a6105a7366004612b1a565b610e68565b3480156105b857600080fd5b506105e07f000000000000000000000000000000000000000000000000000000000000000081565b6040516001600160a01b039091168152602001610308565b34801561060457600080fd5b506102fe610613366004612ac3565b5060001990565b34801561062657600080fd5b506102fe610635366004612aaa565b610ea0565b34801561064657600080fd5b506102fe610655366004612b1a565b610ec2565b34801561066657600080fd5b506102fe610675366004612ac3565b60036020526000908152604090205481565b34801561069357600080fd5b5061051a611003565b6106af6106aa366004612aaa565b611017565b60408051928352602083019190915201610308565b3480156106d057600080fd5b506105e06106df366004612aaa565b611118565b3480156106f057600080fd5b506102fe6106ff366004612ac3565b60056020526000908152604090205481565b34801561071d57600080fd5b50600a546001600160a01b03166105e0565b34801561073b57600080fd5b506102fe600d5481565b34801561075157600080fd5b50610331610760366004612b1a565b611142565b34801561077157600080fd5b506102fe610780366004612b1a565b61116d565b34801561079157600080fd5b5061038a611227565b61051a6107a8366004612a80565b611234565b3480156107b957600080fd5b506102fe600081565b3480156107ce57600080fd5b50600c546105e0906001600160a01b031681565b3480156107ee57600080fd5b506103316107fd366004612a80565b611527565b34801561080e57600080fd5b506102fe61081d366004612aaa565b61158d565b34801561082e57600080fd5b506102fe61083d366004612b46565b6115af565b34801561084e57600080fd5b506102fe7f477fc23fb51bb5d5aa814872a393b0e4f35d0916c7503c0fd96584681070d41081565b34801561088257600080fd5b506102fe610891366004612b46565b6116ad565b3480156108a257600080fd5b506108ab6117b3565b6040516103089190612b82565b3480156108c457600080fd5b5061040e6108d3366004612ac3565b6010602052600090815260409020805460019091015460ff1682565b3480156108fb57600080fd5b506102fe61090a366004612ac3565b611815565b34801561091b57600080fd5b506102fe61092a366004612aaa565b611820565b34801561093b57600080fd5b5061051a61094a366004612bcf565b611886565b34801561095b57600080fd5b5061051a61096a366004612b1a565b611aca565b34801561097b57600080fd5b506102fe61098a366004612ac3565b6001600160a01b031660009081526003602052604090205490565b3480156109b157600080fd5b506102fe6109c0366004612c42565b600460209081526000928352604080842090915290825290205481565b3480156109e957600080fd5b506102fe6109f8366004612aaa565b611aef565b348015610a0957600080fd5b5061051a610a18366004612cb3565b611b10565b348015610a2957600080fd5b5061051a610a38366004612ac3565b611b55565b6040516370a0823160e01b81523060048201526000907f00000000000000000000000000000000000000000000000000000000000000006001600160a01b0316906370a0823190602401602060405180830381865afa158015610aa4573d6000803e3d6000fd5b505050506040513d601f19601f82011682018060405250810190610ac89190612d1b565b905090565b60006001600160e01b03198216637965db0b60e01b1480610afe57506301ffc9a760e01b6001600160e01b03198316145b92915050565b60008054610b1190612d34565b80601f0160208091040260200160405190810160405280929190818152602001828054610b3d90612d34565b8015610b8a5780601f10610b5f57610100808354040283529160200191610b8a565b820191906000526020600020905b815481529060010190602001808311610b6d57829003601f168201915b505050505081565b3360008181526004602090815260408083206001600160a01b038716808552925280832085905551919290917f8c5be1e5ebec7d5bd14f71427d1e84f3dd0314c0f7b2291e5b200ac8c7c3b92590610bed9086815260200190565b60405180910390a350600192915050565b6040516370a0823160e01b815230600482015260009081906001600160a01b037f000000000000000000000000000000000000000000000000000000000000000016906370a0823190602401602060405180830381865afa158015610c67573d6000803e3d6000fd5b505050506040513d601f19601f82011682018060405250810190610c8b9190612d1b565b90508015610cac57610ca781610c9f610a3d565b859190611b93565b610cae565b825b9392505050565b6001600160a01b03831660009081526004602090815260408083203384529091528120546000198114610d1157610cec8382612d84565b6001600160a01b03861660009081526004602090815260408083203384529091529020555b6001600160a01b03851660009081526003602052604081208054859290610d39908490612d84565b90915550506001600160a01b03808516600081815260036020526040908190208054870190555190918716906000805160206131ff83398151915290610d829087815260200190565b60405180910390a3506001949350505050565b6001600160a01b038116600090815260036020526040812054610afe90610ea0565b600082815260066020526040902060010154610dd281611bb9565b610ddc8383611bc3565b50505050565b6000610ac86106357f0000000000000000000000000000000000000000000000000000000000000000600a612e7b565b60007f00000000000000000000000000000000000000000000000000000000000000004614610e4357610ac8611c57565b507f000000000000000000000000000000000000000000000000000000000000000090565b6001600160a01b0381163314610e915760405163334bd91960e11b815260040160405180910390fd5b610e9b8282611cf1565b505050565b6002546000908015610cac57610ca7610eb7610a3d565b600254859190611d5e565b6000610ecc611d7c565b610ed583611aef565b905080600003610f0057604051636e3699b760e11b8152600481018490526024015b60405180910390fd5b610f356001600160a01b037f000000000000000000000000000000000000000000000000000000000000000016333086611da6565b82600d6000828254610f479190612e8a565b9091555050600c5460408051600080825260208201909252610f90926001600160a01b031691869190610f8a565b6060815260200190600190039081610f755790505b50611e30565b5050600c54610faa906001600160a01b0316303386611f73565b60408051848152602081018390526001600160a01b0384169133917fdcbc1c05240f31ff3ad067ef1ee35ce4997762752e3a095284754544f4c709d7910160405180910390a3610ff9836120ac565b610afe6001600b55565b61100b6121c9565b61101560006121f6565b565b600e546000908190835b8181108015611039575061103685600a612e8a565b81105b1561111057600080600e838154811061105457611054612e9d565b6000918252602080832090910154338352600f8252604080842080546001600160a01b039093168086526001918201855282862054601090955291909420549094506110ab93926110a491612d84565b9190611d5e565b6001600160a01b03821660008181526010602090815260408083205433808552600f84528285209585526001909501909252909120559092506110f2908290309085611f73565b6110fb82612248565b5050808061110890612eb3565b915050611021565b509293915050565b600e818154811061112857600080fd5b6000918252602090912001546001600160a01b0316905081565b60009182526006602090815260408084206001600160a01b0393909316845291905290205460ff1690565b6000611177611d7c565b61118c826111848561158d565b9250826123af565b80600d600082825461119e9190612e8a565b909155505060408051828152602081018590526001600160a01b0384169133917fdcbc1c05240f31ff3ad067ef1ee35ce4997762752e3a095284754544f4c709d7910160405180910390a361121e6001600160a01b037f000000000000000000000000000000000000000000000000000000000000000016333084611da6565b610ff9816120ac565b60018054610b1190612d34565b7f477fc23fb51bb5d5aa814872a393b0e4f35d0916c7503c0fd96584681070d41061125e81611bb9565b816000036112ae5760405162461bcd60e51b815260206004820152601b60248201527f5661756c743a20416d6f756e742063616e2774206265207a65726f00000000006044820152606401610ef7565b600d546000036113005760405162461bcd60e51b815260206004820152601a60248201527f5661756c743a204e6f20746f6b656e207374616b6564207965740000000000006044820152606401610ef7565b7f00000000000000000000000000000000000000000000000000000000000000006001600160a01b0316836001600160a01b0316141580156113505750600c546001600160a01b03848116911614155b6113b45760405162461bcd60e51b815260206004820152602f60248201527f5661756c743a2052657761726420616e64205374616b696e6720746f6b656e7360448201526e2063616e6e6f742062652073616d6560881b6064820152608401610ef7565b600e54600a036113d757604051637561e0ab60e01b815260040160405180910390fd5b60006113f16001600d5485611d5e9092919063ffffffff16565b6001600160a01b038516600090815260106020526040902060018101549192509060ff1661149a57600e8054600180820183556000929092527fbb7b4a454dc3493923482f07822329ed19e8244eff582cc204f8554c3620c3fd0180546001600160a01b0319166001600160a01b038816179055818101805460ff191690911790558181556114808530612409565b6114956001600160a01b038616333087611da6565b6114dd565b6001600160a01b038516600090815260106020526040812080548492906114c2908490612e8a565b909155506114dd90506001600160a01b038616333087611da6565b846001600160a01b03167fac24935fd910bc682b5ccb1a07b718cadf8cf2f6d1404c4f3ddc3662dae40e298560405161151891815260200190565b60405180910390a25050505050565b33600090815260036020526040812080548391908390611548908490612d84565b90915550506001600160a01b038316600081815260036020526040908190208054850190555133906000805160206131ff83398151915290610bed9086815260200190565b6002546000908015610cac57610ca76115a4610a3d565b600254859190611b93565b60006115b9611d7c565b6115c284612527565b83600d60008282546115d49190612d84565b9091555050600c546115f1906001600160a01b0316333087611f73565b600c54604080516000815260208101909152611618916001600160a01b031690869061255f565b5061164d6001600160a01b037f000000000000000000000000000000000000000000000000000000000000000016848661268b565b826001600160a01b0316826001600160a01b03167ff341246adaac6f497bc2a656f546ab9e182111d630394f0c57c710a59a2cb567868460405161169b929190918252602082015260400190565b60405180910390a3610cae6001600b55565b60006116b7611d7c565b6116c084610ea0565b9050806000036117005760405162461bcd60e51b815260206004820152600b60248201526a5a45524f5f41535345545360a81b6044820152606401610ef7565b61170984610ea0565b90506117158285612703565b80600d60008282546117279190612d84565b909155505060408051828152602081018690526001600160a01b0380861692908516917ff341246adaac6f497bc2a656f546ab9e182111d630394f0c57c710a59a2cb567910160405180910390a36117a96001600160a01b037f000000000000000000000000000000000000000000000000000000000000000016848361268b565b610cae6001600b55565b6060600e80548060200260200160405190810160405280929190818152602001828054801561180b57602002820191906000526020600020905b81546001600160a01b031681526001909101906020018083116117ed575b5050505050905090565b6000610afe82610d95565b600080600e838154811061183657611836612e9d565b6000918252602080832090910154338352600f8252604080842080546001600160a01b03909316808652600191820185528286205460109095529190942054909450610cae93926110a491612d84565b428410156118d65760405162461bcd60e51b815260206004820152601760248201527f5045524d49545f444541444c494e455f455850495245440000000000000000006044820152606401610ef7565b600060016118e2610e12565b6001600160a01b038a811660008181526005602090815260409182902080546001810190915582517f6e71edae12b1b97f4d1f60370fef10105fa2faae0126114a169c64845d6126c98184015280840194909452938d166060840152608083018c905260a083019390935260c08083018b90528151808403909101815260e08301909152805192019190912061190160f01b6101008301526101028201929092526101228101919091526101420160408051601f198184030181528282528051602091820120600084529083018083525260ff871690820152606081018590526080810184905260a0016020604051602081039080840390855afa1580156119ee573d6000803e3d6000fd5b5050604051601f1901519150506001600160a01b03811615801590611a245750876001600160a01b0316816001600160a01b0316145b611a615760405162461bcd60e51b815260206004820152600e60248201526d24a72b20a624a22fa9a4a3a722a960911b6044820152606401610ef7565b6001600160a01b0390811660009081526004602090815260408083208a8516808552908352928190208990555188815291928a16917f8c5be1e5ebec7d5bd14f71427d1e84f3dd0314c0f7b2291e5b200ac8c7c3b925910160405180910390a350505050505050565b600082815260066020526040902060010154611ae581611bb9565b610ddc8383611cf1565b6002546000908015610cac57610ca76001611b08610a3d565b859190611d5e565b7f74e458455daa935f28c556b43e0cc4ad001a8a090f5feee376681e97d4618f46611b3a81611bb9565b611b51826000015183602001518460400151612765565b5050565b611b5d6121c9565b6001600160a01b038116611b8757604051631e4fbdf760e01b815260006004820152602401610ef7565b611b90816121f6565b50565b6000826000190484118302158202611baa57600080fd5b50910281810615159190040190565b611b908133612887565b6000611bcf8383611142565b611c4f5760008381526006602090815260408083206001600160a01b03861684529091529020805460ff19166001179055611c073390565b6001600160a01b0316826001600160a01b0316847f2f8788117e7eff1d82e926ec794901d17c78024a50270940304540a733656f0d60405160405180910390a4506001610afe565b506000610afe565b60007f8b73c3c69bb8fe3d512ecc4cf759cc79239f7b179b0ffacaa9a75d522b39400f6000604051611c899190612ecc565b6040805191829003822060208301939093528101919091527fc89efdaa54c0f20c7adf612882df0950f5a951637e0307cdcb4c672f298b8bc660608201524660808201523060a082015260c00160405160208183030381529060405280519060200120905090565b6000611cfd8383611142565b15611c4f5760008381526006602090815260408083206001600160a01b0386168085529252808320805460ff1916905551339286917ff6391f5c32d9c69d2a47ea670b442974b53935d1edc7fd64eb21e047a839171b9190a4506001610afe565b6000826000190484118302158202611d7557600080fd5b5091020490565b6002600b5403611d9f57604051633ee5aeb560e01b815260040160405180910390fd5b6002600b55565b60006040516323b872dd60e01b81528460048201528360248201528260448201526020600060648360008a5af13d15601f3d1160016000511416171691505080611e295760405162461bcd60e51b81526020600482015260146024820152731514905394d1915497d19493d357d1905253115160621b6044820152606401610ef7565b5050505050565b6000606060008060006101676001600160a01b031663278e0b8860e01b898989604051602401611e6293929190612f6d565b60408051601f198184030181529181526020820180516001600160e01b03166001600160e01b0319909416939093179092529051611ea09190612ff2565b6000604051808303816000865af19150503d8060008114611edd576040519150601f19603f3d011682016040523d82523d6000602084013e611ee2565b606091505b509150915081611f05576040805160008082526020820190925260159190611f19565b80806020019051810190611f199190613038565b90965094509250600383900b601614611f685760405162461bcd60e51b815260206004820152601160248201527053616665206d696e74206661696c65642160781b6044820152606401610ef7565b505050935093915050565b604080516001600160a01b038681166024830152858116604483015284166064820152600783900b6084808301919091528251808303909101815260a490910182526020810180516001600160e01b031663eca3691760e01b17905290516000918291829161016791611fe69190612ff2565b6000604051808303816000865af19150503d8060008114612023576040519150601f19603f3d011682016040523d82523d6000602084013e612028565b606091505b50915091508161203957601561204d565b8080602001905181019061204d9190613114565b9250600383900b6016146120a35760405162461bcd60e51b815260206004820152601b60248201527f5361666520746f6b656e207472616e73666572206661696c65642100000000006044820152606401610ef7565b50505050505050565b336000908152600f602052604090206002015460ff1661217d57600e5460005b8181101561213e576000600e82815481106120e9576120e9612e9d565b60009182526020808320909101546001600160a01b03168083526010825260408084205433808652600f8552828620848752600101909452932092909255909150612135908290612409565b506001016120cc565b50336000908152600f60205260408120838155600201805460ff19166001179055600d8054849290612171908490612e8a565b90915550611b90915050565b6121876000611017565b5050336000908152600f6020526040812080548392906121a8908490612e8a565b9250508190555080600d60008282546121c19190612e8a565b909155505050565b600a546001600160a01b031633146110155760405163118cdaa760e01b8152336004820152602401610ef7565b600a80546001600160a01b038381166001600160a01b0319831681179093556040519116919082907f8be0079c531659141344cd1fd0a4f28419497f9722a3daafe3b4186f6b6457e090600090a35050565b6008546009546001600160a01b03909116906000906122689084906128c0565b90506001600160a01b0382166122dd578034146122c75760405162461bcd60e51b815260206004820152601e60248201527f46433a204e6f7420656e6f756768204842415220746f207061792066656500006044820152606401610ef7565b600754610e9b906001600160a01b031682612940565b6040516370a0823160e01b815233600482015281906001600160a01b038416906370a0823190602401602060405180830381865afa158015612323573d6000803e3d6000fd5b505050506040513d601f19601f820116820180604052508101906123479190612d1b565b10156123955760405162461bcd60e51b815260206004820152601e60248201527f46433a20496e73756666696369656e7420746f6b656e2062616c616e636500006044820152606401610ef7565b600754610e9b90839033906001600160a01b031684611f73565b80600260008282546123c19190612e8a565b90915550506001600160a01b0382166000818152600360209081526040808320805486019055518481526000805160206131ff83398151915291015b60405180910390a35050565b604080516001600160a01b038381166024830152841660448083019190915282518083039091018152606490910182526020810180516001600160e01b031663248a35ef60e11b1790529051600091829182916101679161246a9190612ff2565b6000604051808303816000865af19150503d80600081146124a7576040519150601f19603f3d011682016040523d82523d6000602084013e6124ac565b606091505b5091509150816124bd5760156124d1565b808060200190518101906124d19190613114565b9250600383900b601614611e295760405162461bcd60e51b815260206004820152601f60248201527f536166652073696e676c65206173736f63696174696f6e206661696c656421006044820152606401610ef7565b336000908152600f602052604081208054839290612546908490612d84565b9250508190555080600d60008282546121c19190612d84565b6000806000806101676001600160a01b031663acb9cff960e01b88888860405160240161258e9392919061312f565b60408051601f198184030181529181526020820180516001600160e01b03166001600160e01b03199094169390931790925290516125cc9190612ff2565b6000604051808303816000865af19150503d8060008114612609576040519150601f19603f3d011682016040523d82523d6000602084013e61260e565b606091505b5091509150816126215760156000612635565b80806020019051810190612635919061319b565b94509250600383900b6016146126815760405162461bcd60e51b815260206004820152601160248201527053616665206275726e206661696c65642160781b6044820152606401610ef7565b5050509392505050565b600060405163a9059cbb60e01b8152836004820152826024820152602060006044836000895af13d15601f3d1160016000511416171691505080610ddc5760405162461bcd60e51b815260206004820152600f60248201526e1514905394d1915497d19052531151608a1b6044820152606401610ef7565b6001600160a01b0382166000908152600360205260408120805483929061272b908490612d84565b90915550506002805482900390556040518181526000906001600160a01b038416906000805160206131ff833981519152906020016123fd565b60008111801561277d57506001600160a01b03831615155b6127c95760405162461bcd60e51b815260206004820152601b60248201527f46433a20496e76616c69642066656520636f6e666967206461746100000000006044820152606401610ef7565b612710811061280c5760405162461bcd60e51b815260206004820152600f60248201526e46433a20496e76616c69642066656560881b6044820152606401610ef7565b600780546001600160a01b038581166001600160a01b0319928316811790935560088054918616919092168117909155600983905560408051928352602083019190915281018290527febd34b2df88ea5c9f67c04b13b08e5e63c2d17e269aab73b866fe47a8736a2649060600160405180910390a1505050565b6128918282611142565b611b515760405163e2517d3f60e01b81526001600160a01b038216600482015260248101839052604401610ef7565b60006127106128cf83856131c5565b10156129295760405162461bcd60e51b8152602060048201526024808201527f46433a20546f6f20736d616c6c20616d6f756e7420746f20636f6e73696465726044820152632066656560e01b6064820152608401610ef7565b61271061293683856131c5565b610cae91906131dc565b804710156129635760405163cd78605960e01b8152306004820152602401610ef7565b6000826001600160a01b03168260405160006040518083038185875af1925050503d80600081146129b0576040519150601f19603f3d011682016040523d82523d6000602084013e6129b5565b606091505b5050905080610e9b57604051630a12f52160e11b815260040160405180910390fd5b6000602082840312156129e957600080fd5b81356001600160e01b031981168114610cae57600080fd5b60005b83811015612a1c578181015183820152602001612a04565b50506000910152565b60008151808452612a3d816020860160208601612a01565b601f01601f19169290920160200192915050565b602081526000610cae6020830184612a25565b80356001600160a01b0381168114612a7b57600080fd5b919050565b60008060408385031215612a9357600080fd5b612a9c83612a64565b946020939093013593505050565b600060208284031215612abc57600080fd5b5035919050565b600060208284031215612ad557600080fd5b610cae82612a64565b600080600060608486031215612af357600080fd5b612afc84612a64565b9250612b0a60208501612a64565b9150604084013590509250925092565b60008060408385031215612b2d57600080fd5b82359150612b3d60208401612a64565b90509250929050565b600080600060608486031215612b5b57600080fd5b83359250612b6b60208501612a64565b9150612b7960408501612a64565b90509250925092565b6020808252825182820181905260009190848201906040850190845b81811015612bc35783516001600160a01b031683529284019291840191600101612b9e565b50909695505050505050565b600080600080600080600060e0888a031215612bea57600080fd5b612bf388612a64565b9650612c0160208901612a64565b95506040880135945060608801359350608088013560ff81168114612c2557600080fd5b9699959850939692959460a0840135945060c09093013592915050565b60008060408385031215612c5557600080fd5b612c5e83612a64565b9150612b3d60208401612a64565b634e487b7160e01b600052604160045260246000fd5b604051601f8201601f1916810167ffffffffffffffff81118282101715612cab57612cab612c6c565b604052919050565b600060608284031215612cc557600080fd5b6040516060810181811067ffffffffffffffff82111715612ce857612ce8612c6c565b604052612cf483612a64565b8152612d0260208401612a64565b6020820152604083013560408201528091505092915050565b600060208284031215612d2d57600080fd5b5051919050565b600181811c90821680612d4857607f821691505b602082108103612d6857634e487b7160e01b600052602260045260246000fd5b50919050565b634e487b7160e01b600052601160045260246000fd5b81810381811115610afe57610afe612d6e565b600181815b80851115612dd2578160001904821115612db857612db8612d6e565b80851615612dc557918102915b93841c9390800290612d9c565b509250929050565b600082612de957506001610afe565b81612df657506000610afe565b8160018114612e0c5760028114612e1657612e32565b6001915050610afe565b60ff841115612e2757612e27612d6e565b50506001821b610afe565b5060208310610133831016604e8410600b8410161715612e55575081810a610afe565b612e5f8383612d97565b8060001904821115612e7357612e73612d6e565b029392505050565b6000610cae60ff841683612dda565b80820180821115610afe57610afe612d6e565b634e487b7160e01b600052603260045260246000fd5b600060018201612ec557612ec5612d6e565b5060010190565b60008083548160018260011c91506001831680612eea57607f831692505b60208084108203612f0957634e487b7160e01b86526022600452602486fd5b818015612f1d5760018114612f3257612f5f565b60ff1986168952841515850289019650612f5f565b60008a81526020902060005b86811015612f575781548b820152908501908301612f3e565b505084890196505b509498975050505050505050565b60006060820160018060a01b0386168352602067ffffffffffffffff861660208501526060604085015281855180845260808601915060808160051b87010193506020870160005b82811015612fe357607f19888703018452612fd1868351612a25565b95509284019290840190600101612fb5565b50939998505050505050505050565b60008251613004818460208701612a01565b9190910192915050565b8051600381900b8114612a7b57600080fd5b805167ffffffffffffffff81168114612a7b57600080fd5b60008060006060848603121561304d57600080fd5b6130568461300e565b92506020613065818601613020565b9250604085015167ffffffffffffffff8082111561308257600080fd5b818701915087601f83011261309657600080fd5b8151818111156130a8576130a8612c6c565b8060051b91506130b9848301612c82565b818152918301840191848101908a8411156130d357600080fd5b938501935b8385101561310457845192508260070b83146130f45760008081fd5b82825293850193908501906130d8565b8096505050505050509250925092565b60006020828403121561312657600080fd5b610cae8261300e565b6001600160a01b038416815267ffffffffffffffff83166020808301919091526060604083018190528351908301819052600091848101916080850190845b8181101561318d57845160070b8352938301939183019160010161316e565b509098975050505050505050565b600080604083850312156131ae57600080fd5b6131b78361300e565b9150612b3d60208401613020565b8082028115828204841417610afe57610afe612d6e565b6000826131f957634e487b7160e01b600052601260045260246000fd5b50049056feddf252ad1be2c89b69c2b068fc378daa952ba7f163c4a11628f55a4df523b3efa26469706673582212206e31e363698639e9bb25fff8ae5143da75dd42072aa92b37ddafc917e3e8187d64736f6c63430008180033",
  "linkReferences": {},
  "deployedLinkReferences": {}
}