{
  "_format": "hh-sol-artifact-1",
  "contractName": "HederaVault",
  "sourceName": "contracts/erc4626/Vault.sol",
  "abi": [
    {
      "inputs": [
        {
          "internalType": "contract ERC20",
          "name": "_underlying",
          "type": "address"
        },
        {
          "internalType": "string",
          "name": "_name",
          "type": "string"
        },
        {
          "internalType": "string",
          "name": "_symbol",
          "type": "string"
        }
      ],
      "stateMutability": "payable",
      "type": "constructor"
    },
    {
      "inputs": [
        {
          "internalType": "uint256",
          "name": "numberOfShares",
          "type": "uint256"
        }
      ],
      "name": "ZeroShares",
      "type": "error"
    },
    {
      "anonymous": false,
      "inputs": [
        {
          "indexed": true,
          "internalType": "address",
          "name": "owner",
          "type": "address"
        },
        {
          "indexed": true,
          "internalType": "address",
          "name": "spender",
          "type": "address"
        },
        {
          "indexed": false,
          "internalType": "uint256",
          "name": "amount",
          "type": "uint256"
        }
      ],
      "name": "Approval",
      "type": "event"
    },
    {
      "anonymous": false,
      "inputs": [
        {
          "indexed": true,
          "internalType": "address",
          "name": "createdToken",
          "type": "address"
        }
      ],
      "name": "CreatedToken",
      "type": "event"
    },
    {
      "anonymous": false,
      "inputs": [
        {
          "indexed": true,
          "internalType": "address",
          "name": "sender",
          "type": "address"
        },
        {
          "indexed": true,
          "internalType": "address",
          "name": "receiver",
          "type": "address"
        },
        {
          "indexed": false,
          "internalType": "uint256",
          "name": "assets",
          "type": "uint256"
        },
        {
          "indexed": false,
          "internalType": "uint256",
          "name": "shares",
          "type": "uint256"
        }
      ],
      "name": "Deposit",
      "type": "event"
    },
    {
      "anonymous": false,
      "inputs": [
        {
          "indexed": true,
          "internalType": "address",
          "name": "rewardToken",
          "type": "address"
        },
        {
          "indexed": false,
          "internalType": "uint256",
          "name": "amount",
          "type": "uint256"
        }
      ],
      "name": "RewardAdded",
      "type": "event"
    },
    {
      "anonymous": false,
      "inputs": [
        {
          "indexed": true,
          "internalType": "address",
          "name": "from",
          "type": "address"
        },
        {
          "indexed": true,
          "internalType": "address",
          "name": "to",
          "type": "address"
        },
        {
          "indexed": false,
          "internalType": "uint256",
          "name": "amount",
          "type": "uint256"
        }
      ],
      "name": "Transfer",
      "type": "event"
    },
    {
      "anonymous": false,
      "inputs": [
        {
          "indexed": true,
          "internalType": "address",
          "name": "sender",
          "type": "address"
        },
        {
          "indexed": true,
          "internalType": "address",
          "name": "receiver",
          "type": "address"
        },
        {
          "indexed": false,
          "internalType": "uint256",
          "name": "assets",
          "type": "uint256"
        },
        {
          "indexed": false,
          "internalType": "uint256",
          "name": "shares",
          "type": "uint256"
        }
      ],
      "name": "Withdraw",
      "type": "event"
    },
    {
      "inputs": [],
      "name": "DOMAIN_SEPARATOR",
      "outputs": [
        {
          "internalType": "bytes32",
          "name": "",
          "type": "bytes32"
        }
      ],
      "stateMutability": "view",
      "type": "function"
    },
    {
      "inputs": [
        {
          "internalType": "address",
          "name": "_token",
          "type": "address"
        },
        {
          "internalType": "uint256",
          "name": "_amount",
          "type": "uint256"
        }
      ],
      "name": "addReward",
      "outputs": [],
      "stateMutability": "payable",
      "type": "function"
    },
    {
      "inputs": [
        {
          "internalType": "address",
          "name": "",
          "type": "address"
        },
        {
          "internalType": "address",
          "name": "",
          "type": "address"
        }
      ],
      "name": "allowance",
      "outputs": [
        {
          "internalType": "uint256",
          "name": "",
          "type": "uint256"
        }
      ],
      "stateMutability": "view",
      "type": "function"
    },
    {
      "inputs": [
        {
          "internalType": "address",
          "name": "spender",
          "type": "address"
        },
        {
          "internalType": "uint256",
          "name": "amount",
          "type": "uint256"
        }
      ],
      "name": "approve",
      "outputs": [
        {
          "internalType": "bool",
          "name": "",
          "type": "bool"
        }
      ],
      "stateMutability": "nonpayable",
      "type": "function"
    },
    {
      "inputs": [],
      "name": "asset",
      "outputs": [
        {
          "internalType": "contract ERC20",
          "name": "",
          "type": "address"
        }
      ],
      "stateMutability": "view",
      "type": "function"
    },
    {
      "inputs": [],
      "name": "assetTotalSupply",
      "outputs": [
        {
          "internalType": "uint256",
          "name": "",
          "type": "uint256"
        }
      ],
      "stateMutability": "view",
      "type": "function"
    },
    {
      "inputs": [
        {
          "internalType": "address",
          "name": "user",
          "type": "address"
        }
      ],
      "name": "assetsOf",
      "outputs": [
        {
          "internalType": "uint256",
          "name": "",
          "type": "uint256"
        }
      ],
      "stateMutability": "view",
      "type": "function"
    },
    {
      "inputs": [],
      "name": "assetsPerShare",
      "outputs": [
        {
          "internalType": "uint256",
          "name": "",
          "type": "uint256"
        }
      ],
      "stateMutability": "view",
      "type": "function"
    },
    {
      "inputs": [
        {
          "internalType": "address",
          "name": "",
          "type": "address"
        }
      ],
      "name": "balanceOf",
      "outputs": [
        {
          "internalType": "uint256",
          "name": "",
          "type": "uint256"
        }
      ],
      "stateMutability": "view",
      "type": "function"
    },
    {
      "inputs": [
        {
          "internalType": "uint256",
          "name": "_startPosition",
          "type": "uint256"
        }
      ],
      "name": "claimAllReward",
      "outputs": [
        {
          "internalType": "uint256",
          "name": "",
          "type": "uint256"
        },
        {
          "internalType": "uint256",
          "name": "",
          "type": "uint256"
        }
      ],
      "stateMutability": "nonpayable",
      "type": "function"
    },
    {
      "inputs": [],
      "name": "decimals",
      "outputs": [
        {
          "internalType": "uint8",
          "name": "",
          "type": "uint8"
        }
      ],
      "stateMutability": "view",
      "type": "function"
    },
    {
      "inputs": [
        {
          "internalType": "uint256",
          "name": "assets",
          "type": "uint256"
        },
        {
          "internalType": "address",
          "name": "receiver",
          "type": "address"
        }
      ],
      "name": "deposit",
      "outputs": [
        {
          "internalType": "uint256",
          "name": "shares",
          "type": "uint256"
        }
      ],
      "stateMutability": "nonpayable",
      "type": "function"
    },
    {
      "inputs": [
        {
          "internalType": "address",
          "name": "",
          "type": "address"
        }
      ],
      "name": "maxDeposit",
      "outputs": [
        {
          "internalType": "uint256",
          "name": "",
          "type": "uint256"
        }
      ],
      "stateMutability": "pure",
      "type": "function"
    },
    {
      "inputs": [
        {
          "internalType": "address",
          "name": "",
          "type": "address"
        }
      ],
      "name": "maxMint",
      "outputs": [
        {
          "internalType": "uint256",
          "name": "",
          "type": "uint256"
        }
      ],
      "stateMutability": "pure",
      "type": "function"
    },
    {
      "inputs": [
        {
          "internalType": "address",
          "name": "user",
          "type": "address"
        }
      ],
      "name": "maxRedeem",
      "outputs": [
        {
          "internalType": "uint256",
          "name": "",
          "type": "uint256"
        }
      ],
      "stateMutability": "view",
      "type": "function"
    },
    {
      "inputs": [
        {
          "internalType": "address",
          "name": "user",
          "type": "address"
        }
      ],
      "name": "maxWithdraw",
      "outputs": [
        {
          "internalType": "uint256",
          "name": "",
          "type": "uint256"
        }
      ],
      "stateMutability": "view",
      "type": "function"
    },
    {
      "inputs": [
        {
          "internalType": "uint256",
          "name": "shares",
          "type": "uint256"
        },
        {
          "internalType": "address",
          "name": "to",
          "type": "address"
        }
      ],
      "name": "mint",
      "outputs": [
        {
          "internalType": "uint256",
          "name": "amount",
          "type": "uint256"
        }
      ],
      "stateMutability": "nonpayable",
      "type": "function"
    },
    {
      "inputs": [],
      "name": "name",
      "outputs": [
        {
          "internalType": "string",
          "name": "",
          "type": "string"
        }
      ],
      "stateMutability": "view",
      "type": "function"
    },
    {
      "inputs": [
        {
          "internalType": "address",
          "name": "",
          "type": "address"
        }
      ],
      "name": "nonces",
      "outputs": [
        {
          "internalType": "uint256",
          "name": "",
          "type": "uint256"
        }
      ],
      "stateMutability": "view",
      "type": "function"
    },
    {
      "inputs": [],
      "name": "owner",
      "outputs": [
        {
          "internalType": "address",
          "name": "",
          "type": "address"
        }
      ],
      "stateMutability": "view",
      "type": "function"
    },
    {
      "inputs": [
        {
          "internalType": "address",
          "name": "owner",
          "type": "address"
        },
        {
          "internalType": "address",
          "name": "spender",
          "type": "address"
        },
        {
          "internalType": "uint256",
          "name": "value",
          "type": "uint256"
        },
        {
          "internalType": "uint256",
          "name": "deadline",
          "type": "uint256"
        },
        {
          "internalType": "uint8",
          "name": "v",
          "type": "uint8"
        },
        {
          "internalType": "bytes32",
          "name": "r",
          "type": "bytes32"
        },
        {
          "internalType": "bytes32",
          "name": "s",
          "type": "bytes32"
        }
      ],
      "name": "permit",
      "outputs": [],
      "stateMutability": "nonpayable",
      "type": "function"
    },
    {
      "inputs": [
        {
          "internalType": "uint256",
          "name": "amount",
          "type": "uint256"
        }
      ],
      "name": "previewDeposit",
      "outputs": [
        {
          "internalType": "uint256",
          "name": "shares",
          "type": "uint256"
        }
      ],
      "stateMutability": "view",
      "type": "function"
    },
    {
      "inputs": [
        {
          "internalType": "uint256",
          "name": "shares",
          "type": "uint256"
        }
      ],
      "name": "previewMint",
      "outputs": [
        {
          "internalType": "uint256",
          "name": "amount",
          "type": "uint256"
        }
      ],
      "stateMutability": "view",
      "type": "function"
    },
    {
      "inputs": [
        {
          "internalType": "uint256",
          "name": "shares",
          "type": "uint256"
        }
      ],
      "name": "previewRedeem",
      "outputs": [
        {
          "internalType": "uint256",
          "name": "amount",
          "type": "uint256"
        }
      ],
      "stateMutability": "view",
      "type": "function"
    },
    {
      "inputs": [
        {
          "internalType": "uint256",
          "name": "amount",
          "type": "uint256"
        }
      ],
      "name": "previewWithdraw",
      "outputs": [
        {
          "internalType": "uint256",
          "name": "shares",
          "type": "uint256"
        }
      ],
      "stateMutability": "view",
      "type": "function"
    },
    {
      "inputs": [
        {
          "internalType": "uint256",
          "name": "shares",
          "type": "uint256"
        },
        {
          "internalType": "address",
          "name": "receiver",
          "type": "address"
        },
        {
          "internalType": "address",
          "name": "from",
          "type": "address"
        }
      ],
      "name": "redeem",
      "outputs": [
        {
          "internalType": "uint256",
          "name": "amount",
          "type": "uint256"
        }
      ],
      "stateMutability": "nonpayable",
      "type": "function"
    },
    {
      "inputs": [
        {
          "internalType": "uint256",
          "name": "",
          "type": "uint256"
        }
      ],
      "name": "rewardTokens",
      "outputs": [
        {
          "internalType": "address",
          "name": "",
          "type": "address"
        }
      ],
      "stateMutability": "view",
      "type": "function"
    },
    {
      "inputs": [],
      "name": "share",
      "outputs": [
        {
          "internalType": "address",
          "name": "",
          "type": "address"
        }
      ],
      "stateMutability": "view",
      "type": "function"
    },
    {
      "inputs": [],
      "name": "symbol",
      "outputs": [
        {
          "internalType": "string",
          "name": "",
          "type": "string"
        }
      ],
      "stateMutability": "view",
      "type": "function"
    },
    {
      "inputs": [
        {
          "internalType": "address",
          "name": "",
          "type": "address"
        }
      ],
      "name": "tokensRewardInfo",
      "outputs": [
        {
          "internalType": "uint256",
          "name": "amount",
          "type": "uint256"
        },
        {
          "internalType": "bool",
          "name": "exist",
          "type": "bool"
        }
      ],
      "stateMutability": "view",
      "type": "function"
    },
    {
      "inputs": [],
      "name": "totalAssets",
      "outputs": [
        {
          "internalType": "uint256",
          "name": "",
          "type": "uint256"
        }
      ],
      "stateMutability": "view",
      "type": "function"
    },
    {
      "inputs": [],
      "name": "totalSupply",
      "outputs": [
        {
          "internalType": "uint256",
          "name": "",
          "type": "uint256"
        }
      ],
      "stateMutability": "view",
      "type": "function"
    },
    {
      "inputs": [
        {
          "internalType": "address",
          "name": "to",
          "type": "address"
        },
        {
          "internalType": "uint256",
          "name": "amount",
          "type": "uint256"
        }
      ],
      "name": "transfer",
      "outputs": [
        {
          "internalType": "bool",
          "name": "",
          "type": "bool"
        }
      ],
      "stateMutability": "nonpayable",
      "type": "function"
    },
    {
      "inputs": [
        {
          "internalType": "address",
          "name": "from",
          "type": "address"
        },
        {
          "internalType": "address",
          "name": "to",
          "type": "address"
        },
        {
          "internalType": "uint256",
          "name": "amount",
          "type": "uint256"
        }
      ],
      "name": "transferFrom",
      "outputs": [
        {
          "internalType": "bool",
          "name": "",
          "type": "bool"
        }
      ],
      "stateMutability": "nonpayable",
      "type": "function"
    },
    {
      "inputs": [
        {
          "internalType": "address",
          "name": "",
          "type": "address"
        }
      ],
      "name": "userContribution",
      "outputs": [
        {
          "internalType": "uint256",
          "name": "sharesAmount",
          "type": "uint256"
        },
        {
          "internalType": "bool",
          "name": "exist",
          "type": "bool"
        }
      ],
      "stateMutability": "view",
      "type": "function"
    },
    {
      "inputs": [
        {
          "internalType": "uint256",
          "name": "amount",
          "type": "uint256"
        },
        {
          "internalType": "address",
          "name": "receiver",
          "type": "address"
        },
        {
          "internalType": "address",
          "name": "from",
          "type": "address"
        }
      ],
      "name": "withdraw",
      "outputs": [
        {
          "internalType": "uint256",
          "name": "shares",
          "type": "uint256"
        }
      ],
      "stateMutability": "nonpayable",
      "type": "function"
    }
  ],
  "bytecode": "0x6101006040526040516200345a3803806200345a833981016040819052620000279162000850565b8181846001600160a01b031663313ce5676040518163ffffffff1660e01b8152600401602060405180830381865afa15801562000068573d6000803e3d6000fd5b505050506040513d601f19601f820116820180604052508101906200008e9190620008cf565b60006200009c84826200098c565b506001620000ab83826200098c565b5060ff81166080524660a052620000c1620003a9565b60c0525050600980546001600160a01b0319163317905550620000e5833062000445565b6040805160a08082018352600080835260208084018290526060848601819052808501819052306080808701829052875195860188528486528584018590528588018390528583018390528501528551600280825291810190965260109560019594939290919082015b620001596200070c565b8152602001906001900390816200014f579050509050604051806040016040528086815260200184815250816000815181106200019a576200019a62000a58565b602002602001018190525060405180604001604052808581526020018381525081600181518110620001d057620001d062000a58565b6020026020010181905250620002156040518060600160405280600063ffffffff16815260200160006001600160a01b03168152602001600063ffffffff1681525090565b306020820152627a120060408201526200028b60408051610120810182526060808252602080830182905260008385018190528284018390526080840181905260a0840181905260c0840181905260e0840183905284519283018552808352908201819052928101929092529061010082015290565b8881600001819052508781602001819052503081604001906001600160a01b031690816001600160a01b03168152505081816101000181905250828160e00181905250620003438160008c6001600160a01b031663313ce5676040518163ffffffff1660e01b8152600401602060405180830381865afa15801562000314573d6000803e3d6000fd5b505050506040513d601f19601f820116820180604052508101906200033a9190620008cf565b60ff1662000578565b600680546001600160a01b0319166001600160a01b039290921691821790556040517f7bb17726df1f3adee8aa00ba8e8bc5d6f182af3bbf77604639cb7f008dd3b4ed90600090a25050506001600160a01b0390961660e0525062000da8945050505050565b60007f8b73c3c69bb8fe3d512ecc4cf759cc79239f7b179b0ffacaa9a75d522b39400f6000604051620003dd919062000a6e565b6040805191829003822060208301939093528101919091527fc89efdaa54c0f20c7adf612882df0950f5a951637e0307cdcb4c672f298b8bc660608201524660808201523060a082015260c00160405160208183030381529060405280519060200120905090565b604080516001600160a01b038381166024830152841660448083019190915282518083039091018152606490910182526020810180516001600160e01b031663248a35ef60e11b17905290516000918291829161016791620004a8919062000aec565b6000604051808303816000865af19150503d8060008114620004e7576040519150601f19603f3d011682016040523d82523d6000602084013e620004ec565b606091505b509150915081620004ff57601562000515565b8080602001905181019062000515919062000b22565b9250600383900b601614620005715760405162461bcd60e51b815260206004820152601f60248201527f536166652073696e676c65206173736f63696174696f6e206661696c6564210060448201526064015b60405180910390fd5b5050505050565b61010083015151600090849063ffffffff16158015620005a557506101008101516040015163ffffffff16155b15620005bc576101008101516276a7006040909101525b60008060006101676001600160a01b031634637812a04b60e01b8a8a8a604051602401620005ed9392919062000c3f565b60408051601f198184030181529181526020820180516001600160e01b03166001600160e01b03199094169390931790925290516200062d919062000aec565b60006040518083038185875af1925050503d80600081146200066c576040519150601f19603f3d011682016040523d82523d6000602084013e62000671565b606091505b5091509150816200068657601560006200069c565b808060200190518101906200069c919062000d6c565b95509250600383900b601614620007015760405162461bcd60e51b815260206004820152602260248201527f53616665206372656174652066756e6769626c6520746f6b656e206661696c65604482015261642160f01b606482015260840162000568565b505050509392505050565b604051806040016040528060008152602001620007656040518060a0016040528060001515815260200160006001600160a01b03168152602001606081526020016060815260200160006001600160a01b031681525090565b905290565b6001600160a01b03811681146200078057600080fd5b50565b634e487b7160e01b600052604160045260246000fd5b60005b83811015620007b65781810151838201526020016200079c565b50506000910152565b600082601f830112620007d157600080fd5b81516001600160401b0380821115620007ee57620007ee62000783565b604051601f8301601f19908116603f0116810190828211818310171562000819576200081962000783565b816040528381528660208588010111156200083357600080fd5b6200084684602083016020890162000799565b9695505050505050565b6000806000606084860312156200086657600080fd5b835162000873816200076a565b60208501519093506001600160401b03808211156200089157600080fd5b6200089f87838801620007bf565b93506040860151915080821115620008b657600080fd5b50620008c586828701620007bf565b9150509250925092565b600060208284031215620008e257600080fd5b815160ff81168114620008f457600080fd5b9392505050565b600181811c908216806200091057607f821691505b6020821081036200093157634e487b7160e01b600052602260045260246000fd5b50919050565b601f82111562000987576000816000526020600020601f850160051c81016020861015620009625750805b601f850160051c820191505b8181101562000983578281556001016200096e565b5050505b505050565b81516001600160401b03811115620009a857620009a862000783565b620009c081620009b98454620008fb565b8462000937565b602080601f831160018114620009f85760008415620009df5750858301515b600019600386901b1c1916600185901b17855562000983565b600085815260208120601f198616915b8281101562000a295788860151825594840194600190910190840162000a08565b508582101562000a485787850151600019600388901b60f8161c191681555b5050505050600190811b01905550565b634e487b7160e01b600052603260045260246000fd5b600080835462000a7e81620008fb565b6001828116801562000a99576001811462000aaf5762000ae0565b60ff198416875282151583028701945062000ae0565b8760005260208060002060005b8581101562000ad75781548a82015290840190820162000abc565b50505082870194505b50929695505050505050565b6000825162000b0081846020870162000799565b9190910192915050565b8051600381900b811462000b1d57600080fd5b919050565b60006020828403121562000b3557600080fd5b620008f48262000b0a565b6000815180845262000b5a81602086016020860162000799565b601f01601f19169290920160200192915050565b600082825180855260208086019550808260051b84010181860160005b8481101562000c3257858303601f1901895281518051845284015160408585018190528151151581860152818601516001600160a01b039081166060808801919091529183015160a0608080890182905291939092909162000bf160e08a018662000b40565b92860151898403603f1901858b015292945062000c0f858462000b40565b9501511660c0979097019690965250509884019892509083019060010162000b8b565b5090979650505050505050565b606081526000845161016080606085015262000c606101c085018362000b40565b91506020870151605f198086850301608087015262000c80848362000b40565b93506040890151915062000c9f60a08701836001600160a01b03169052565b60608901519150808685030160c087015262000cbc848362000b40565b93506080890151915062000cd460e087018315159052565b60a0890151915061010062000cf08188018463ffffffff169052565b60c08a0151151561012088015260e08a01518786038301610140890152925062000d1b858462000b6e565b9450808a01519250505062000d5882860182805163ffffffff90811683526020808301516001600160a01b03169084015260409182015116910152565b505060208301949094525060400152919050565b6000806040838503121562000d8057600080fd5b62000d8b8362000b0a565b9150602083015162000d9d816200076a565b809150509250929050565b60805160a05160c05160e05161263962000e21600039600081816103d20152818161075a015281816108ef01528181610b7101528181610db001528181610e9001528181610f5f0152818161127e015261137201526000610aea01526000610aba0152600081816103620152610a9001526126396000f3fe60806040526004361061020f5760003560e01c80637ecebe0011610118578063b460af94116100a0578063ce96cb771161006f578063ce96cb7714610674578063d505accf14610694578063d905777e146106b4578063dd62ed3e146106ea578063ef8b30f71461072257600080fd5b8063b460af94146105fd578063ba0876521461061d578063c63d75b61461040c578063cd9cdfda1461063d57600080fd5b806395d89b41116100e757806395d89b41146105735780639feb8f5014610588578063a8d5fd651461059d578063a9059cbb146105bd578063b3d7f6b9146105dd57600080fd5b80637ecebe00146104f05780638da5cb5b1461051d5780638f12c2f41461053d57806394bf804d1461055357600080fd5b806335d16e171161019b5780634cdad5061161016a5780634cdad5061461042e5780636e553f651461044e57806370a082311461046e5780637a07bf3a1461049b5780637bb7bed1146104d057600080fd5b806335d16e17146103965780633644e515146103ab57806338d52e0f146103c0578063402d267d1461040c57600080fd5b806316ad0672116101e257806316ad0672146102ae57806318160ddd146102fa57806323b872dd146103105780632c62fa1014610330578063313ce5671461035057600080fd5b806301e1d1141461021457806306fdde031461023c578063095ea7b31461025e5780630a28a4771461028e575b600080fd5b34801561022057600080fd5b50610229610742565b6040519081526020015b60405180910390f35b34801561024857600080fd5b506102516107d2565b6040516102339190611f15565b34801561026a57600080fd5b5061027e610279366004611f44565b610860565b6040519015158152602001610233565b34801561029a57600080fd5b506102296102a9366004611f6e565b6108cd565b3480156102ba57600080fd5b506102e56102c9366004611f87565b600a602052600090815260409020805460029091015460ff1682565b60408051928352901515602083015201610233565b34801561030657600080fd5b5061022960025481565b34801561031c57600080fd5b5061027e61032b366004611fa2565b610984565b34801561033c57600080fd5b5061022961034b366004611f87565b610a64565b34801561035c57600080fd5b506103847f000000000000000000000000000000000000000000000000000000000000000081565b60405160ff9091168152602001610233565b3480156103a257600080fd5b50610229610a86565b3480156103b757600080fd5b50610229610ab6565b3480156103cc57600080fd5b506103f47f000000000000000000000000000000000000000000000000000000000000000081565b6040516001600160a01b039091168152602001610233565b34801561041857600080fd5b50610229610427366004611f87565b5060001990565b34801561043a57600080fd5b50610229610449366004611f6e565b610b0c565b34801561045a57600080fd5b50610229610469366004611fde565b610b2e565b34801561047a57600080fd5b50610229610489366004611f87565b60036020526000908152604090205481565b3480156104a757600080fd5b506104bb6104b6366004611f6e565b610c5d565b60408051928352602083019190915201610233565b3480156104dc57600080fd5b506103f46104eb366004611f6e565b610d53565b3480156104fc57600080fd5b5061022961050b366004611f87565b60056020526000908152604090205481565b34801561052957600080fd5b506009546103f4906001600160a01b031681565b34801561054957600080fd5b5061022960075481565b34801561055f57600080fd5b5061022961056e366004611fde565b610d7d565b34801561057f57600080fd5b50610251610ec1565b61059b610596366004611f44565b610ece565b005b3480156105a957600080fd5b506006546103f4906001600160a01b031681565b3480156105c957600080fd5b5061027e6105d8366004611f44565b61113e565b3480156105e957600080fd5b506102296105f8366004611f6e565b6111a4565b34801561060957600080fd5b5061022961061836600461200a565b6111c6565b34801561062957600080fd5b5061022961063836600461200a565b6112a5565b34801561064957600080fd5b506102e5610658366004611f87565b600b602052600090815260409020805460019091015460ff1682565b34801561068057600080fd5b5061022961068f366004611f87565b611399565b3480156106a057600080fd5b5061059b6106af366004612046565b6113a4565b3480156106c057600080fd5b506102296106cf366004611f87565b6001600160a01b031660009081526003602052604090205490565b3480156106f657600080fd5b506102296107053660046120b9565b600460209081526000928352604080842090915290825290205481565b34801561072e57600080fd5b5061022961073d366004611f6e565b6115e8565b6040516370a0823160e01b81523060048201526000907f00000000000000000000000000000000000000000000000000000000000000006001600160a01b0316906370a0823190602401602060405180830381865afa1580156107a9573d6000803e3d6000fd5b505050506040513d601f19601f820116820180604052508101906107cd91906120e3565b905090565b600080546107df906120fc565b80601f016020809104026020016040519081016040528092919081815260200182805461080b906120fc565b80156108585780601f1061082d57610100808354040283529160200191610858565b820191906000526020600020905b81548152906001019060200180831161083b57829003601f168201915b505050505081565b3360008181526004602090815260408083206001600160a01b038716808552925280832085905551919290917f8c5be1e5ebec7d5bd14f71427d1e84f3dd0314c0f7b2291e5b200ac8c7c3b925906108bb9086815260200190565b60405180910390a35060015b92915050565b6040516370a0823160e01b815230600482015260009081906001600160a01b037f000000000000000000000000000000000000000000000000000000000000000016906370a0823190602401602060405180830381865afa158015610936573d6000803e3d6000fd5b505050506040513d601f19601f8201168201806040525081019061095a91906120e3565b9050801561097b576109768161096e610742565b859190611609565b61097d565b825b9392505050565b6001600160a01b038316600090815260046020908152604080832033845290915281205460001981146109e0576109bb838261214c565b6001600160a01b03861660009081526004602090815260408083203384529091529020555b6001600160a01b03851660009081526003602052604081208054859290610a0890849061214c565b90915550506001600160a01b03808516600081815260036020526040908190208054870190555190918716906000805160206125e483398151915290610a519087815260200190565b60405180910390a3506001949350505050565b6001600160a01b0381166000908152600360205260408120546108c790610b0c565b60006107cd6104497f0000000000000000000000000000000000000000000000000000000000000000600a612243565b60007f00000000000000000000000000000000000000000000000000000000000000004614610ae7576107cd61162f565b507f000000000000000000000000000000000000000000000000000000000000000090565b600254600090801561097b57610976610b23610742565b6002548591906116c9565b6000610b39836115e8565b905080600003610b6457604051636e3699b760e11b8152600481018490526024015b60405180910390fd5b610b996001600160a01b037f0000000000000000000000000000000000000000000000000000000000000000163330866116e7565b8260076000828254610bab9190612252565b909155505060065460408051600080825260208201909252610bf4926001600160a01b031691869190610bee565b6060815260200190600190039081610bd95790505b50611771565b5050600654610c0e906001600160a01b03163033866118b4565b60408051848152602081018390526001600160a01b0384169133917fdcbc1c05240f31ff3ad067ef1ee35ce4997762752e3a095284754544f4c709d7910160405180910390a36108c7836119ed565b600080825b60085481108015610c7c5750610c7984600a612252565b81105b15610d485760008060088381548110610c9757610c9761227b565b6000918252602080832090910154338352600a8252604080842080546001600160a01b039093168086526001918201855282862054600b9095529190942054909450610cee9392610ce79161214c565b91906116c9565b6001600160a01b0382166000818152600b602090815260408083205433808552600a8452828520868652600101909352922091909155919350610d33913090856116e7565b50508080610d4090612291565b915050610c62565b505060085491929050565b60088181548110610d6357600080fd5b6000918252602090912001546001600160a01b0316905081565b6000610d9482610d8c856111a4565b925082611b09565b60405163095ea7b360e01b8152306004820152602481018290527f00000000000000000000000000000000000000000000000000000000000000006001600160a01b03169063095ea7b3906044016020604051808303816000875af1158015610e01573d6000803e3d6000fd5b505050506040513d601f19601f82011682018060405250810190610e2591906122aa565b508060076000828254610e389190612252565b909155505060408051828152602081018590526001600160a01b0384169133917fdcbc1c05240f31ff3ad067ef1ee35ce4997762752e3a095284754544f4c709d7910160405180910390a3610eb86001600160a01b037f0000000000000000000000000000000000000000000000000000000000000000163330846116e7565b6108c7816119ed565b600180546107df906120fc565b80600003610f155760405162461bcd60e51b8152602060048201526014602482015273416d6f756e742063616e2774206265207a65726f60601b6044820152606401610b5b565b600754600003610f5d5760405162461bcd60e51b8152602060048201526013602482015272139bc81d1bdad95b881cdd185ad959081e595d606a1b6044820152606401610b5b565b7f00000000000000000000000000000000000000000000000000000000000000006001600160a01b0316826001600160a01b031603610fef5760405162461bcd60e51b815260206004820152602860248201527f52657761726420616e64205374616b696e6720746f6b656e732063616e6e6f746044820152672062652073616d6560c01b6064820152608401610b5b565b60006110096001600754846116c99092919063ffffffff16565b6001600160a01b0384166000908152600b6020526040902060018101549192509060ff166110b25760088054600180820183556000929092527ff3f7a9fe364faab93b216da50a3214154f22a0a2b415b23a84c8169e8b636ee30180546001600160a01b0319166001600160a01b038716179055818101805460ff191690911790558181556110988430611b63565b6110ad6001600160a01b0385163330866116e7565b6110f5565b6001600160a01b0384166000908152600b6020526040812080548492906110da908490612252565b909155506110f590506001600160a01b0385163330866116e7565b836001600160a01b03167fac24935fd910bc682b5ccb1a07b718cadf8cf2f6d1404c4f3ddc3662dae40e298460405161113091815260200190565b60405180910390a250505050565b3360009081526003602052604081208054839190839061115f90849061214c565b90915550506001600160a01b038316600081815260036020526040908190208054850190555133906000805160206125e4833981519152906108bb9086815260200190565b600254600090801561097b576109766111bb610742565b600254859190611609565b60006111d184611c81565b6006546111e9906001600160a01b03163330876118b4565b600654604080516000815260208101909152611210916001600160a01b0316908690611cb9565b508360076000828254611223919061214c565b909155505060408051858152602081018390526001600160a01b0380861692908516917ff341246adaac6f497bc2a656f546ab9e182111d630394f0c57c710a59a2cb567910160405180910390a361097d6001600160a01b037f0000000000000000000000000000000000000000000000000000000000000000168486611de5565b60006112b084610b0c565b9050806000036112f05760405162461bcd60e51b815260206004820152600b60248201526a5a45524f5f41535345545360a81b6044820152606401610b5b565b6112f984610b0c565b90506113058285611e63565b8060076000828254611317919061214c565b909155505060408051828152602081018690526001600160a01b0380861692908516917ff341246adaac6f497bc2a656f546ab9e182111d630394f0c57c710a59a2cb567910160405180910390a361097d6001600160a01b037f0000000000000000000000000000000000000000000000000000000000000000168483611de5565b60006108c782610a64565b428410156113f45760405162461bcd60e51b815260206004820152601760248201527f5045524d49545f444541444c494e455f455850495245440000000000000000006044820152606401610b5b565b60006001611400610ab6565b6001600160a01b038a811660008181526005602090815260409182902080546001810190915582517f6e71edae12b1b97f4d1f60370fef10105fa2faae0126114a169c64845d6126c98184015280840194909452938d166060840152608083018c905260a083019390935260c08083018b90528151808403909101815260e08301909152805192019190912061190160f01b6101008301526101028201929092526101228101919091526101420160408051601f198184030181528282528051602091820120600084529083018083525260ff871690820152606081018590526080810184905260a0016020604051602081039080840390855afa15801561150c573d6000803e3d6000fd5b5050604051601f1901519150506001600160a01b038116158015906115425750876001600160a01b0316816001600160a01b0316145b61157f5760405162461bcd60e51b815260206004820152600e60248201526d24a72b20a624a22fa9a4a3a722a960911b6044820152606401610b5b565b6001600160a01b0390811660009081526004602090815260408083208a8516808552908352928190208990555188815291928a16917f8c5be1e5ebec7d5bd14f71427d1e84f3dd0314c0f7b2291e5b200ac8c7c3b925910160405180910390a350505050505050565b600254600090801561097b576109766001611601610742565b8591906116c9565b600082600019048411830215820261162057600080fd5b50910281810615159190040190565b60007f8b73c3c69bb8fe3d512ecc4cf759cc79239f7b179b0ffacaa9a75d522b39400f600060405161166191906122cc565b6040805191829003822060208301939093528101919091527fc89efdaa54c0f20c7adf612882df0950f5a951637e0307cdcb4c672f298b8bc660608201524660808201523060a082015260c00160405160208183030381529060405280519060200120905090565b60008260001904841183021582026116e057600080fd5b5091020490565b60006040516323b872dd60e01b81528460048201528360248201528260448201526020600060648360008a5af13d15601f3d116001600051141617169150508061176a5760405162461bcd60e51b81526020600482015260146024820152731514905394d1915497d19493d357d1905253115160621b6044820152606401610b5b565b5050505050565b6000606060008060006101676001600160a01b031663278e0b8860e01b8989896040516024016117a39392919061236d565b60408051601f198184030181529181526020820180516001600160e01b03166001600160e01b03199094169390931790925290516117e191906123f2565b6000604051808303816000865af19150503d806000811461181e576040519150601f19603f3d011682016040523d82523d6000602084013e611823565b606091505b50915091508161184657604080516000808252602082019092526015919061185a565b8080602001905181019061185a919061244a565b90965094509250600383900b6016146118a95760405162461bcd60e51b815260206004820152601160248201527053616665206d696e74206661696c65642160781b6044820152606401610b5b565b505050935093915050565b604080516001600160a01b038681166024830152858116604483015284166064820152600783900b6084808301919091528251808303909101815260a490910182526020810180516001600160e01b031663eca3691760e01b1790529051600091829182916101679161192791906123f2565b6000604051808303816000865af19150503d8060008114611964576040519150601f19603f3d011682016040523d82523d6000602084013e611969565b606091505b50915091508161197a57601561198e565b8080602001905181019061198e9190612532565b9250600383900b6016146119e45760405162461bcd60e51b815260206004820152601b60248201527f5361666520746f6b656e207472616e73666572206661696c65642100000000006044820152606401610b5b565b50505050505050565b336000908152600a602052604090206002015460ff16611abc5760005b600854811015611a7e57600060088281548110611a2957611a2961227b565b60009182526020808320909101546001600160a01b0316808352600b825260408084205433808652600a8552828620848752600101909452932092909255909150611a75908290611b63565b50600101611a0a565b50336000908152600a60205260408120828155600201805460ff1916600117905560078054839290611ab1908490612252565b90915550611b069050565b611ac66000610c5d565b5050336000908152600a602052604081208054839290611ae7908490612252565b925050819055508060076000828254611b009190612252565b90915550505b50565b8060026000828254611b1b9190612252565b90915550506001600160a01b0382166000818152600360209081526040808320805486019055518481526000805160206125e483398151915291015b60405180910390a35050565b604080516001600160a01b038381166024830152841660448083019190915282518083039091018152606490910182526020810180516001600160e01b031663248a35ef60e11b17905290516000918291829161016791611bc491906123f2565b6000604051808303816000865af19150503d8060008114611c01576040519150601f19603f3d011682016040523d82523d6000602084013e611c06565b606091505b509150915081611c17576015611c2b565b80806020019051810190611c2b9190612532565b9250600383900b60161461176a5760405162461bcd60e51b815260206004820152601f60248201527f536166652073696e676c65206173736f63696174696f6e206661696c656421006044820152606401610b5b565b336000908152600a602052604081208054839290611ca090849061214c565b925050819055508060076000828254611b00919061214c565b6000806000806101676001600160a01b031663acb9cff960e01b888888604051602401611ce89392919061254d565b60408051601f198184030181529181526020820180516001600160e01b03166001600160e01b0319909416939093179092529051611d2691906123f2565b6000604051808303816000865af19150503d8060008114611d63576040519150601f19603f3d011682016040523d82523d6000602084013e611d68565b606091505b509150915081611d7b5760156000611d8f565b80806020019051810190611d8f91906125b9565b94509250600383900b601614611ddb5760405162461bcd60e51b815260206004820152601160248201527053616665206275726e206661696c65642160781b6044820152606401610b5b565b5050509392505050565b600060405163a9059cbb60e01b8152836004820152826024820152602060006044836000895af13d15601f3d1160016000511416171691505080611e5d5760405162461bcd60e51b815260206004820152600f60248201526e1514905394d1915497d19052531151608a1b6044820152606401610b5b565b50505050565b6001600160a01b03821660009081526003602052604081208054839290611e8b90849061214c565b90915550506002805482900390556040518181526000906001600160a01b038416906000805160206125e483398151915290602001611b57565b60005b83811015611ee0578181015183820152602001611ec8565b50506000910152565b60008151808452611f01816020860160208601611ec5565b601f01601f19169290920160200192915050565b60208152600061097d6020830184611ee9565b80356001600160a01b0381168114611f3f57600080fd5b919050565b60008060408385031215611f5757600080fd5b611f6083611f28565b946020939093013593505050565b600060208284031215611f8057600080fd5b5035919050565b600060208284031215611f9957600080fd5b61097d82611f28565b600080600060608486031215611fb757600080fd5b611fc084611f28565b9250611fce60208501611f28565b9150604084013590509250925092565b60008060408385031215611ff157600080fd5b8235915061200160208401611f28565b90509250929050565b60008060006060848603121561201f57600080fd5b8335925061202f60208501611f28565b915061203d60408501611f28565b90509250925092565b600080600080600080600060e0888a03121561206157600080fd5b61206a88611f28565b965061207860208901611f28565b95506040880135945060608801359350608088013560ff8116811461209c57600080fd5b9699959850939692959460a0840135945060c09093013592915050565b600080604083850312156120cc57600080fd5b6120d583611f28565b915061200160208401611f28565b6000602082840312156120f557600080fd5b5051919050565b600181811c9082168061211057607f821691505b60208210810361213057634e487b7160e01b600052602260045260246000fd5b50919050565b634e487b7160e01b600052601160045260246000fd5b818103818111156108c7576108c7612136565b600181815b8085111561219a57816000190482111561218057612180612136565b8085161561218d57918102915b93841c9390800290612164565b509250929050565b6000826121b1575060016108c7565b816121be575060006108c7565b81600181146121d457600281146121de576121fa565b60019150506108c7565b60ff8411156121ef576121ef612136565b50506001821b6108c7565b5060208310610133831016604e8410600b841016171561221d575081810a6108c7565b612227838361215f565b806000190482111561223b5761223b612136565b029392505050565b600061097d60ff8416836121a2565b808201808211156108c7576108c7612136565b634e487b7160e01b600052604160045260246000fd5b634e487b7160e01b600052603260045260246000fd5b6000600182016122a3576122a3612136565b5060010190565b6000602082840312156122bc57600080fd5b8151801515811461097d57600080fd5b60008083548160018260011c915060018316806122ea57607f831692505b6020808410820361230957634e487b7160e01b86526022600452602486fd5b81801561231d57600181146123325761235f565b60ff198616895284151585028901965061235f565b60008a81526020902060005b868110156123575781548b82015290850190830161233e565b505084890196505b509498975050505050505050565b60006060820160018060a01b0386168352602067ffffffffffffffff861660208501526060604085015281855180845260808601915060808160051b87010193506020870160005b828110156123e357607f198887030184526123d1868351611ee9565b955092840192908401906001016123b5565b50939998505050505050505050565b60008251612404818460208701611ec5565b9190910192915050565b8051600381900b8114611f3f57600080fd5b805167ffffffffffffffff81168114611f3f57600080fd5b8051600781900b8114611f3f57600080fd5b60008060006060848603121561245f57600080fd5b6124688461240e565b92506020612477818601612420565b9250604085015167ffffffffffffffff8082111561249457600080fd5b818701915087601f8301126124a857600080fd5b8151818111156124ba576124ba612265565b8060051b604051601f19603f830116810181811085821117156124df576124df612265565b60405291825284820192508381018501918a8311156124fd57600080fd5b938501935b828510156125225761251385612438565b84529385019392850192612502565b8096505050505050509250925092565b60006020828403121561254457600080fd5b61097d8261240e565b6001600160a01b038416815267ffffffffffffffff83166020808301919091526060604083018190528351908301819052600091848101916080850190845b818110156125ab57845160070b8352938301939183019160010161258c565b509098975050505050505050565b600080604083850312156125cc57600080fd5b6125d58361240e565b91506120016020840161242056feddf252ad1be2c89b69c2b068fc378daa952ba7f163c4a11628f55a4df523b3efa2646970667358221220e010643b2b7b8a363989309118974e1f2cc63f791dc39da627a77663bfa798c964736f6c63430008180033",
  "linkReferences": {},
  "deployedLinkReferences": {}
}