{
  "_format": "hh-sol-artifact-1",
  "contractName": "HederaNFT",
  "sourceName": "contracts/erc4626/HederaNFT.sol",
  "abi": [
    {
      "inputs": [
        {
          "internalType": "address",
          "name": "initialOwner",
          "type": "address"
        }
      ],
      "stateMutability": "nonpayable",
      "type": "constructor"
    },
    {
      "inputs": [
        {
          "internalType": "address",
          "name": "sender",
          "type": "address"
        },
        {
          "internalType": "uint256",
          "name": "tokenId",
          "type": "uint256"
        },
        {
          "internalType": "address",
          "name": "owner",
          "type": "address"
        }
      ],
      "name": "ERC721IncorrectOwner",
      "type": "error"
    },
    {
      "inputs": [
        {
          "internalType": "address",
          "name": "operator",
          "type": "address"
        },
        {
          "internalType": "uint256",
          "name": "tokenId",
          "type": "uint256"
        }
      ],
      "name": "ERC721InsufficientApproval",
      "type": "error"
    },
    {
      "inputs": [
        {
          "internalType": "address",
          "name": "approver",
          "type": "address"
        }
      ],
      "name": "ERC721InvalidApprover",
      "type": "error"
    },
    {
      "inputs": [
        {
          "internalType": "address",
          "name": "operator",
          "type": "address"
        }
      ],
      "name": "ERC721InvalidOperator",
      "type": "error"
    },
    {
      "inputs": [
        {
          "internalType": "address",
          "name": "owner",
          "type": "address"
        }
      ],
      "name": "ERC721InvalidOwner",
      "type": "error"
    },
    {
      "inputs": [
        {
          "internalType": "address",
          "name": "receiver",
          "type": "address"
        }
      ],
      "name": "ERC721InvalidReceiver",
      "type": "error"
    },
    {
      "inputs": [
        {
          "internalType": "address",
          "name": "sender",
          "type": "address"
        }
      ],
      "name": "ERC721InvalidSender",
      "type": "error"
    },
    {
      "inputs": [
        {
          "internalType": "uint256",
          "name": "tokenId",
          "type": "uint256"
        }
      ],
      "name": "ERC721NonexistentToken",
      "type": "error"
    },
    {
      "inputs": [
        {
          "internalType": "address",
          "name": "owner",
          "type": "address"
        }
      ],
      "name": "OwnableInvalidOwner",
      "type": "error"
    },
    {
      "inputs": [
        {
          "internalType": "address",
          "name": "account",
          "type": "address"
        }
      ],
      "name": "OwnableUnauthorizedAccount",
      "type": "error"
    },
    {
      "anonymous": false,
      "inputs": [
        {
          "indexed": true,
          "internalType": "address",
          "name": "owner",
          "type": "address"
        },
        {
          "indexed": true,
          "internalType": "address",
          "name": "approved",
          "type": "address"
        },
        {
          "indexed": true,
          "internalType": "uint256",
          "name": "tokenId",
          "type": "uint256"
        }
      ],
      "name": "Approval",
      "type": "event"
    },
    {
      "anonymous": false,
      "inputs": [
        {
          "indexed": true,
          "internalType": "address",
          "name": "owner",
          "type": "address"
        },
        {
          "indexed": true,
          "internalType": "address",
          "name": "operator",
          "type": "address"
        },
        {
          "indexed": false,
          "internalType": "bool",
          "name": "approved",
          "type": "bool"
        }
      ],
      "name": "ApprovalForAll",
      "type": "event"
    },
    {
      "anonymous": false,
      "inputs": [
        {
          "indexed": true,
          "internalType": "address",
          "name": "previousOwner",
          "type": "address"
        },
        {
          "indexed": true,
          "internalType": "address",
          "name": "newOwner",
          "type": "address"
        }
      ],
      "name": "OwnershipTransferred",
      "type": "event"
    },
    {
      "anonymous": false,
      "inputs": [
        {
          "indexed": true,
          "internalType": "address",
          "name": "from",
          "type": "address"
        },
        {
          "indexed": true,
          "internalType": "address",
          "name": "to",
          "type": "address"
        },
        {
          "indexed": true,
          "internalType": "uint256",
          "name": "tokenId",
          "type": "uint256"
        }
      ],
      "name": "Transfer",
      "type": "event"
    },
    {
      "inputs": [
        {
          "internalType": "address",
          "name": "to",
          "type": "address"
        },
        {
          "internalType": "uint256",
          "name": "tokenId",
          "type": "uint256"
        }
      ],
      "name": "approve",
      "outputs": [],
      "stateMutability": "nonpayable",
      "type": "function"
    },
    {
      "inputs": [
        {
          "internalType": "address",
          "name": "owner",
          "type": "address"
        }
      ],
      "name": "balanceOf",
      "outputs": [
        {
          "internalType": "uint256",
          "name": "",
          "type": "uint256"
        }
      ],
      "stateMutability": "view",
      "type": "function"
    },
    {
      "inputs": [
        {
          "internalType": "uint256",
          "name": "tokenId",
          "type": "uint256"
        }
      ],
      "name": "getApproved",
      "outputs": [
        {
          "internalType": "address",
          "name": "",
          "type": "address"
        }
      ],
      "stateMutability": "view",
      "type": "function"
    },
    {
      "inputs": [
        {
          "internalType": "address",
          "name": "owner",
          "type": "address"
        },
        {
          "internalType": "address",
          "name": "operator",
          "type": "address"
        }
      ],
      "name": "isApprovedForAll",
      "outputs": [
        {
          "internalType": "bool",
          "name": "",
          "type": "bool"
        }
      ],
      "stateMutability": "view",
      "type": "function"
    },
    {
      "inputs": [],
      "name": "name",
      "outputs": [
        {
          "internalType": "string",
          "name": "",
          "type": "string"
        }
      ],
      "stateMutability": "view",
      "type": "function"
    },
    {
      "inputs": [],
      "name": "owner",
      "outputs": [
        {
          "internalType": "address",
          "name": "",
          "type": "address"
        }
      ],
      "stateMutability": "view",
      "type": "function"
    },
    {
      "inputs": [
        {
          "internalType": "uint256",
          "name": "tokenId",
          "type": "uint256"
        }
      ],
      "name": "ownerOf",
      "outputs": [
        {
          "internalType": "address",
          "name": "",
          "type": "address"
        }
      ],
      "stateMutability": "view",
      "type": "function"
    },
    {
      "inputs": [],
      "name": "renounceOwnership",
      "outputs": [],
      "stateMutability": "nonpayable",
      "type": "function"
    },
    {
      "inputs": [
        {
          "internalType": "address",
          "name": "to",
          "type": "address"
        }
      ],
      "name": "safeMint",
      "outputs": [],
      "stateMutability": "nonpayable",
      "type": "function"
    },
    {
      "inputs": [
        {
          "internalType": "address",
          "name": "from",
          "type": "address"
        },
        {
          "internalType": "address",
          "name": "to",
          "type": "address"
        },
        {
          "internalType": "uint256",
          "name": "tokenId",
          "type": "uint256"
        }
      ],
      "name": "safeTransferFrom",
      "outputs": [],
      "stateMutability": "nonpayable",
      "type": "function"
    },
    {
      "inputs": [
        {
          "internalType": "address",
          "name": "from",
          "type": "address"
        },
        {
          "internalType": "address",
          "name": "to",
          "type": "address"
        },
        {
          "internalType": "uint256",
          "name": "tokenId",
          "type": "uint256"
        },
        {
          "internalType": "bytes",
          "name": "data",
          "type": "bytes"
        }
      ],
      "name": "safeTransferFrom",
      "outputs": [],
      "stateMutability": "nonpayable",
      "type": "function"
    },
    {
      "inputs": [
        {
          "internalType": "address",
          "name": "operator",
          "type": "address"
        },
        {
          "internalType": "bool",
          "name": "approved",
          "type": "bool"
        }
      ],
      "name": "setApprovalForAll",
      "outputs": [],
      "stateMutability": "nonpayable",
      "type": "function"
    },
    {
      "inputs": [
        {
          "internalType": "bytes4",
          "name": "interfaceId",
          "type": "bytes4"
        }
      ],
      "name": "supportsInterface",
      "outputs": [
        {
          "internalType": "bool",
          "name": "",
          "type": "bool"
        }
      ],
      "stateMutability": "view",
      "type": "function"
    },
    {
      "inputs": [],
      "name": "symbol",
      "outputs": [
        {
          "internalType": "string",
          "name": "",
          "type": "string"
        }
      ],
      "stateMutability": "view",
      "type": "function"
    },
    {
      "inputs": [
        {
          "internalType": "uint256",
          "name": "tokenId",
          "type": "uint256"
        }
      ],
      "name": "tokenURI",
      "outputs": [
        {
          "internalType": "string",
          "name": "",
          "type": "string"
        }
      ],
      "stateMutability": "view",
      "type": "function"
    },
    {
      "inputs": [
        {
          "internalType": "address",
          "name": "from",
          "type": "address"
        },
        {
          "internalType": "address",
          "name": "to",
          "type": "address"
        },
        {
          "internalType": "uint256",
          "name": "tokenId",
          "type": "uint256"
        }
      ],
      "name": "transferFrom",
      "outputs": [],
      "stateMutability": "nonpayable",
      "type": "function"
    },
    {
      "inputs": [
        {
          "internalType": "address",
          "name": "newOwner",
          "type": "address"
        }
      ],
      "name": "transferOwnership",
      "outputs": [],
      "stateMutability": "nonpayable",
      "type": "function"
    }
  ],
  "bytecode": "0x60806040523480156200001157600080fd5b50604051620013e6380380620013e6833981016040819052620000349162000128565b806040518060400160405280600781526020016612de58d5195cdd60ca1b8152506040518060400160405280600381526020016212d65560ea1b815250816000908162000082919062000201565b50600162000091828262000201565b5050506001600160a01b038116620000c357604051631e4fbdf760e01b81526000600482015260240160405180910390fd5b620000ce81620000d6565b5050620002cd565b600680546001600160a01b038381166001600160a01b0319831681179093556040519116919082907f8be0079c531659141344cd1fd0a4f28419497f9722a3daafe3b4186f6b6457e090600090a35050565b6000602082840312156200013b57600080fd5b81516001600160a01b03811681146200015357600080fd5b9392505050565b634e487b7160e01b600052604160045260246000fd5b600181811c908216806200018557607f821691505b602082108103620001a657634e487b7160e01b600052602260045260246000fd5b50919050565b601f821115620001fc576000816000526020600020601f850160051c81016020861015620001d75750805b601f850160051c820191505b81811015620001f857828155600101620001e3565b5050505b505050565b81516001600160401b038111156200021d576200021d6200015a565b62000235816200022e845462000170565b84620001ac565b602080601f8311600181146200026d5760008415620002545750858301515b600019600386901b1c1916600185901b178555620001f8565b600085815260208120601f198616915b828110156200029e578886015182559484019460019091019084016200027d565b5085821015620002bd5787850151600019600388901b60f8161c191681555b5050505050600190811b01905550565b61110980620002dd6000396000f3fe608060405234801561001057600080fd5b506004361061010b5760003560e01c806370a08231116100a2578063a22cb46511610071578063a22cb4651461021b578063b88d4fde1461022e578063c87b56dd14610241578063e985e9c514610254578063f2fde38b1461026757600080fd5b806370a08231146101d9578063715018a6146101fa5780638da5cb5b1461020257806395d89b411461021357600080fd5b806323b872dd116100de57806323b872dd1461018d57806340d097c3146101a057806342842e0e146101b35780636352211e146101c657600080fd5b806301ffc9a71461011057806306fdde0314610138578063081812fc1461014d578063095ea7b314610178575b600080fd5b61012361011e366004610d52565b61027a565b60405190151581526020015b60405180910390f35b6101406102cc565b60405161012f9190610dbf565b61016061015b366004610dd2565b61035e565b6040516001600160a01b03909116815260200161012f565b61018b610186366004610e07565b610387565b005b61018b61019b366004610e31565b610396565b61018b6101ae366004610e6d565b610426565b61018b6101c1366004610e31565b61044c565b6101606101d4366004610dd2565b61046c565b6101ec6101e7366004610e6d565b610477565b60405190815260200161012f565b61018b6104bf565b6006546001600160a01b0316610160565b6101406104d3565b61018b610229366004610e88565b6104e2565b61018b61023c366004610eda565b6104ed565b61014061024f366004610dd2565b610504565b610123610262366004610fb6565b610579565b61018b610275366004610e6d565b6105a7565b60006001600160e01b031982166380ac58cd60e01b14806102ab57506001600160e01b03198216635b5e139f60e01b145b806102c657506301ffc9a760e01b6001600160e01b03198316145b92915050565b6060600080546102db90610fe9565b80601f016020809104026020016040519081016040528092919081815260200182805461030790610fe9565b80156103545780601f1061032957610100808354040283529160200191610354565b820191906000526020600020905b81548152906001019060200180831161033757829003601f168201915b5050505050905090565b6000610369826105e5565b506000828152600460205260409020546001600160a01b03166102c6565b61039282823361061e565b5050565b6001600160a01b0382166103c557604051633250574960e11b8152600060048201526024015b60405180910390fd5b60006103d283833361062b565b9050836001600160a01b0316816001600160a01b031614610420576040516364283d7b60e01b81526001600160a01b03808616600483015260248201849052821660448201526064016103bc565b50505050565b6007546104338282610724565b6007805490600061044383611023565b91905055505050565b610467838383604051806020016040528060008152506104ed565b505050565b60006102c6826105e5565b60006001600160a01b0382166104a3576040516322718ad960e21b8152600060048201526024016103bc565b506001600160a01b031660009081526003602052604090205490565b6104c761073e565b6104d1600061076b565b565b6060600180546102db90610fe9565b6103923383836107bd565b6104f8848484610396565b6104208484848461085c565b606061050f826105e5565b50600061052760408051602081019091526000815290565b905060008151116105475760405180602001604052806000815250610572565b8061055184610985565b60405160200161056292919061104a565b6040516020818303038152906040525b9392505050565b6001600160a01b03918216600090815260056020908152604080832093909416825291909152205460ff1690565b6105af61073e565b6001600160a01b0381166105d957604051631e4fbdf760e01b8152600060048201526024016103bc565b6105e28161076b565b50565b6000818152600260205260408120546001600160a01b0316806102c657604051637e27328960e01b8152600481018490526024016103bc565b6104678383836001610a18565b6000828152600260205260408120546001600160a01b039081169083161561065857610658818486610b1e565b6001600160a01b0381161561069657610675600085600080610a18565b6001600160a01b038116600090815260036020526040902080546000190190555b6001600160a01b038516156106c5576001600160a01b0385166000908152600360205260409020805460010190555b60008481526002602052604080822080546001600160a01b0319166001600160a01b0389811691821790925591518793918516917fddf252ad1be2c89b69c2b068fc378daa952ba7f163c4a11628f55a4df523b3ef91a4949350505050565b610392828260405180602001604052806000815250610b82565b6006546001600160a01b031633146104d15760405163118cdaa760e01b81523360048201526024016103bc565b600680546001600160a01b038381166001600160a01b0319831681179093556040519116919082907f8be0079c531659141344cd1fd0a4f28419497f9722a3daafe3b4186f6b6457e090600090a35050565b6001600160a01b0382166107ef57604051630b61174360e31b81526001600160a01b03831660048201526024016103bc565b6001600160a01b03838116600081815260056020908152604080832094871680845294825291829020805460ff191686151590811790915591519182527f17307eab39ab6107e8899845ad3d59bd9653f200f220920489ca2b5937696c31910160405180910390a3505050565b6001600160a01b0383163b1561042057604051630a85bd0160e11b81526001600160a01b0384169063150b7a029061089e903390889087908790600401611079565b6020604051808303816000875af19250505080156108d9575060408051601f3d908101601f191682019092526108d6918101906110b6565b60015b610942573d808015610907576040519150601f19603f3d011682016040523d82523d6000602084013e61090c565b606091505b50805160000361093a57604051633250574960e11b81526001600160a01b03851660048201526024016103bc565b805181602001fd5b6001600160e01b03198116630a85bd0160e11b1461097e57604051633250574960e11b81526001600160a01b03851660048201526024016103bc565b5050505050565b6060600061099283610b99565b600101905060008167ffffffffffffffff8111156109b2576109b2610ec4565b6040519080825280601f01601f1916602001820160405280156109dc576020820181803683370190505b5090508181016020015b600019016f181899199a1a9b1b9c1cb0b131b232b360811b600a86061a8153600a85049450846109e657509392505050565b8080610a2c57506001600160a01b03821615155b15610aee576000610a3c846105e5565b90506001600160a01b03831615801590610a685750826001600160a01b0316816001600160a01b031614155b8015610a7b5750610a798184610579565b155b15610aa45760405163a9fbf51f60e01b81526001600160a01b03841660048201526024016103bc565b8115610aec5783856001600160a01b0316826001600160a01b03167f8c5be1e5ebec7d5bd14f71427d1e84f3dd0314c0f7b2291e5b200ac8c7c3b92560405160405180910390a45b505b5050600090815260046020526040902080546001600160a01b0319166001600160a01b0392909216919091179055565b610b29838383610c71565b610467576001600160a01b038316610b5757604051637e27328960e01b8152600481018290526024016103bc565b60405163177e802f60e01b81526001600160a01b0383166004820152602481018290526044016103bc565b610b8c8383610cd7565b610467600084848461085c565b60008072184f03e93ff9f4daa797ed6e38ed64bf6a1f0160401b8310610bd85772184f03e93ff9f4daa797ed6e38ed64bf6a1f0160401b830492506040015b6d04ee2d6d415b85acef81000000008310610c04576d04ee2d6d415b85acef8100000000830492506020015b662386f26fc100008310610c2257662386f26fc10000830492506010015b6305f5e1008310610c3a576305f5e100830492506008015b6127108310610c4e57612710830492506004015b60648310610c60576064830492506002015b600a83106102c65760010192915050565b60006001600160a01b03831615801590610ccf5750826001600160a01b0316846001600160a01b03161480610cab5750610cab8484610579565b80610ccf57506000828152600460205260409020546001600160a01b038481169116145b949350505050565b6001600160a01b038216610d0157604051633250574960e11b8152600060048201526024016103bc565b6000610d0f8383600061062b565b90506001600160a01b03811615610467576040516339e3563760e11b8152600060048201526024016103bc565b6001600160e01b0319811681146105e257600080fd5b600060208284031215610d6457600080fd5b813561057281610d3c565b60005b83811015610d8a578181015183820152602001610d72565b50506000910152565b60008151808452610dab816020860160208601610d6f565b601f01601f19169290920160200192915050565b6020815260006105726020830184610d93565b600060208284031215610de457600080fd5b5035919050565b80356001600160a01b0381168114610e0257600080fd5b919050565b60008060408385031215610e1a57600080fd5b610e2383610deb565b946020939093013593505050565b600080600060608486031215610e4657600080fd5b610e4f84610deb565b9250610e5d60208501610deb565b9150604084013590509250925092565b600060208284031215610e7f57600080fd5b61057282610deb565b60008060408385031215610e9b57600080fd5b610ea483610deb565b915060208301358015158114610eb957600080fd5b809150509250929050565b634e487b7160e01b600052604160045260246000fd5b60008060008060808587031215610ef057600080fd5b610ef985610deb565b9350610f0760208601610deb565b925060408501359150606085013567ffffffffffffffff80821115610f2b57600080fd5b818701915087601f830112610f3f57600080fd5b813581811115610f5157610f51610ec4565b604051601f8201601f19908116603f01168101908382118183101715610f7957610f79610ec4565b816040528281528a6020848701011115610f9257600080fd5b82602086016020830137600060208483010152809550505050505092959194509250565b60008060408385031215610fc957600080fd5b610fd283610deb565b9150610fe060208401610deb565b90509250929050565b600181811c90821680610ffd57607f821691505b60208210810361101d57634e487b7160e01b600052602260045260246000fd5b50919050565b60006001820161104357634e487b7160e01b600052601160045260246000fd5b5060010190565b6000835161105c818460208801610d6f565b835190830190611070818360208801610d6f565b01949350505050565b6001600160a01b03858116825284166020820152604081018390526080606082018190526000906110ac90830184610d93565b9695505050505050565b6000602082840312156110c857600080fd5b815161057281610d3c56fea26469706673582212205655d4957b329b594348cb7b7cb3df2d5b07cdd99dfea0d4264e5ac338ce45d764736f6c63430008180033",
  "linkReferences": {},
  "deployedLinkReferences": {}
}