{
  "_format": "hh-sol-artifact-1",
  "contractName": "HTSToken",
  "sourceName": "contracts/common/HTSTokenFactory.sol",
  "abi": [
    {
      "inputs": [
        {
          "internalType": "string",
          "name": "tokenName",
          "type": "string"
        },
        {
          "internalType": "string",
          "name": "tokenSymbol",
          "type": "string"
        },
        {
          "internalType": "int32",
          "name": "decimals",
          "type": "int32"
        }
      ],
      "stateMutability": "payable",
      "type": "constructor"
    },
    {
      "anonymous": false,
      "inputs": [
        {
          "indexed": false,
          "internalType": "address",
          "name": "tokenAddress",
          "type": "address"
        },
        {
          "indexed": false,
          "internalType": "address",
          "name": "userAddress",
          "type": "address"
        }
      ],
      "name": "AssociatedToken",
      "type": "event"
    },
    {
      "anonymous": false,
      "inputs": [
        {
          "indexed": false,
          "internalType": "address",
          "name": "tokenAddress",
          "type": "address"
        }
      ],
      "name": "CreatedToken",
      "type": "event"
    },
    {
      "anonymous": false,
      "inputs": [
        {
          "indexed": false,
          "internalType": "address",
          "name": "tokenAddress",
          "type": "address"
        },
        {
          "indexed": false,
          "internalType": "int64",
          "name": "amount",
          "type": "int64"
        },
        {
          "indexed": false,
          "internalType": "int64",
          "name": "newTotalSupply",
          "type": "int64"
        }
      ],
      "name": "MintedToken",
      "type": "event"
    },
    {
      "inputs": [],
      "name": "associate",
      "outputs": [
        {
          "internalType": "uint256",
          "name": "responseCode",
          "type": "uint256"
        }
      ],
      "stateMutability": "nonpayable",
      "type": "function"
    },
    {
      "inputs": [
        {
          "internalType": "int64",
          "name": "amount",
          "type": "int64"
        }
      ],
      "name": "mint",
      "outputs": [
        {
          "internalType": "int256",
          "name": "responseCode",
          "type": "int256"
        },
        {
          "internalType": "int64",
          "name": "newTotalSupply",
          "type": "int64"
        },
        {
          "internalType": "int64[]",
          "name": "serialNumbers",
          "type": "int64[]"
        }
      ],
      "stateMutability": "nonpayable",
      "type": "function"
    },
    {
      "inputs": [],
      "name": "tokenAddress",
      "outputs": [
        {
          "internalType": "address",
          "name": "",
          "type": "address"
        }
      ],
      "stateMutability": "view",
      "type": "function"
    }
  ],
  "bytecode": "0x60806040819052600380546001600160a01b0319166101671790556200119b3881900390819083398101604081905262000039916200083e565b600160208181527fa6eef7e35abe7026729641147f7915573c7e97b47efa546f5f6e3230263bcb499190915560027fcc69885fda6bcc1a4ace058b4a62bf5e179ea78fd58a1ccd71c22cc9b688792f5560047fd9d16d34ffb15ba3a3d852f0d403e2ce1d691fb54de27ac87cd2f993f3ec330f5560087f7dfe757ecd65cbd7922a9c0161e935dd7fdbcc0e999689c7d31633896b1fc60b5560107fedc95719e9a3b28dd8e80877cb5880a9be7de1a13fc8b05e7999683b6b567643557fe2689cd4a84e23ad2f564004f1c9013e9589d260bde6380aba3ca7e09e4df40c8190556006600090815260407f8f331abe73332f95a25873e8b430885974c0409691f89d643119a11623a7924a819055805180840182528281528151600580825260c0820190935230949193926127109284928392909182015b6200017a62000713565b81526020019060019003908162000170579050509050620001b660006006600060405180602001604052806000815250620004d560201b60201c565b81600081518110620001cc57620001cc620008d9565b6020026020010181905250620001fb60016000604051806020016040528060008152506200051860201b60201c565b81600181518110620002115762000211620008d9565b60200260200101819052506200024060026000604051806020016040528060008152506200051860201b60201c565b81600281518110620002565762000256620008d9565b60200260200101819052506200028560036000604051806020016040528060008152506200051860201b60201c565b816003815181106200029b576200029b620008d9565b6020026020010181905250620002ca60046000604051806020016040528060008152506200051860201b60201c565b81600481518110620002e057620002e0620008d9565b602002602001018190525060006040518060600160405280600060070b8152602001886001600160a01b03168152602001627a120060070b815250905060006040518061012001604052808c81526020018b8152602001896001600160a01b031681526020018881526020016001151581526020018660070b81526020018515158152602001848152602001838152509050600080600360009054906101000a90046001600160a01b03166001600160a01b0316630fb65bf334858b8f6040518563ffffffff1660e01b8152600401620003bd93929190620009ee565b604080518083038185885af1158015620003db573d6000803e3d6000fd5b50505050506040513d601f19601f8201168201806040525081019062000402919062000b28565b915060070b9150601660030b8214620004715760405162461bcd60e51b815260206004820152602760248201527f485453546f6b656e3a204572726f72206372656174696e672066756e6769626c60448201526632903a37b5b2b760c91b606482015260840160405180910390fd5b600280546001600160a01b0319166001600160a01b0383169081179091556040519081527f7bb17726df1f3adee8aa00ba8e8bc5d6f182af3bbf77604639cb7f008dd3b4ed9060200160405180910390a15050505050505050505050505062000b77565b620004df62000713565b6040518060400160405280620004fc87876200055960201b60201c565b81526020016200050d8585620005a3565b905295945050505050565b6200052262000713565b60405180604001604052806200053e86620006ce60201b60201c565b81526020016200054f8585620005a3565b9052949350505050565b600062000581836006811115620005745762000574620008c3565b600160ff9091161b821790565b90506200059c826006811115620005745762000574620008c3565b9392505050565b620005ea6040518060a0016040528060001515815260200160006001600160a01b03168152602001606081526020016060815260200160006001600160a01b031681525090565b6000836004811115620006015762000601620008c3565b03620006115760018152620006c8565b6001836004811115620006285762000628620008c3565b0362000645576000546001600160a01b03166020820152620006c8565b60028360048111156200065c576200065c620008c3565b036200066f5760408101829052620006c8565b6003836004811115620006865762000686620008c3565b03620006995760608101829052620006c8565b6004836004811115620006b057620006b0620008c3565b03620006c8576000546001600160a01b031660808201525b92915050565b600060016000836006811115620006e957620006e9620008c3565b6006811115620006fd57620006fd620008c3565b8152602001908152602001600020549050919050565b6040518060400160405280600081526020016200076c6040518060a0016040528060001515815260200160006001600160a01b03168152602001606081526020016060815260200160006001600160a01b031681525090565b905290565b634e487b7160e01b600052604160045260246000fd5b60005b83811015620007a45781810151838201526020016200078a565b50506000910152565b600082601f830112620007bf57600080fd5b81516001600160401b0380821115620007dc57620007dc62000771565b604051601f8301601f19908116603f0116810190828211818310171562000807576200080762000771565b816040528381528660208588010111156200082157600080fd5b6200083484602083016020890162000787565b9695505050505050565b6000806000606084860312156200085457600080fd5b83516001600160401b03808211156200086c57600080fd5b6200087a87838801620007ad565b945060208601519150808211156200089157600080fd5b50620008a086828701620007ad565b92505060408401518060030b8114620008b857600080fd5b809150509250925092565b634e487b7160e01b600052602160045260246000fd5b634e487b7160e01b600052603260045260246000fd5b600081518084526200090981602086016020860162000787565b601f01601f19169290920160200192915050565b600082825180855260208086019550808260051b84010181860160005b84811015620009e157858303601f1901895281518051845284015160408585018190528151151581860152818601516001600160a01b039081166060808801919091529183015160a06080808901829052919390929091620009a060e08a0186620008ef565b92860151898403603f1901858b0152929450620009be8584620008ef565b9501511660c097909701969096525050988401989250908301906001016200093a565b5090979650505050505050565b606081526000845161016080606085015262000a0f6101c0850183620008ef565b91506020870151605f198086850301608087015262000a2f8483620008ef565b93506040890151915062000a4e60a08701836001600160a01b03169052565b60608901519150808685030160c087015262000a6b8483620008ef565b93506080890151915062000a8360e087018315159052565b60a0890151915061010062000a9c8188018460070b9052565b60c08a0151151561012088015260e08a01518786038301610140890152925062000ac785846200091d565b9450808a01519250505062000b02828601828051600790810b83526020808301516001600160a01b031690840152604091820151900b910152565b5050600785900b6020840152905062000b20604083018460030b9052565b949350505050565b6000806040838503121562000b3c57600080fd5b82518060070b811462000b4e57600080fd5b60208401519092506001600160a01b038116811462000b6c57600080fd5b809150509250929050565b6106148062000b876000396000f3fe608060405234801561001057600080fd5b50600436106100415760003560e01c80630a754de6146100465780639d76ea5814610061578063fec156ff1461008c575b600080fd5b61004e6100ae565b6040519081526020015b60405180910390f35b600254610074906001600160a01b031681565b6040516001600160a01b039091168152602001610058565b61009f61009a366004610364565b610168565b60405161005893929190610388565b6002546040805163053aa6f360e11b815290516000926001600160a01b031691630a754de6916004808301926020929190829003018187875af11580156100f9573d6000803e3d6000fd5b505050506040513d601f19601f8201168201806040525081019061011d91906103e7565b600254604080516001600160a01b0390921682523360208301529192507f486bcb01e604496e2a4caa3ae8178d59ffedc37c140f1d4ad838b06cb1286547910160405180910390a190565b60035460025460408051600080825260208201909252909283926060926001600160a01b039283169263e0f4059a9216908790866101b6565b60608152602001906001900390816101a15790505b506040518463ffffffff1660e01b81526004016101d593929190610416565b6000604051808303816000875af11580156101f4573d6000803e3d6000fd5b505050506040513d6000823e601f3d908101601f1916820160405261021c91908101906104d2565b60079290920b945092509050601683146102725760405162461bcd60e51b815260206004820152601360248201527222b93937b91036b4b73a34b733903a37b5b2b760691b604482015260640160405180910390fd5b600254604080516001600160a01b039092168252600786810b602084015284900b82820152517f6c15495b81c1c2bd8a5a79faf952be7bdb9deceb303a554e2ec44d0736d6e0bf9181900360600190a160035460025460405163eca3691760e01b81526001600160a01b039182166004820152306024820152336044820152600787900b606482015291169063eca36917906084016020604051808303816000875af1158015610326573d6000803e3d6000fd5b505050506040513d601f19601f8201168201806040525081019061034a91906105c1565b509193909250565b8060070b811461036157600080fd5b50565b60006020828403121561037657600080fd5b813561038181610352565b9392505050565b600060608201858352602060078660070b60208601526060604086015282865180855260808701915060208801945060005b818110156103d8578551840b835294840194918401916001016103ba565b50909998505050505050505050565b6000602082840312156103f957600080fd5b5051919050565b634e487b7160e01b600052604160045260246000fd5b60006060820160018060a01b038616835260208560070b818501526060604085015281855180845260808601915060808160051b87010193508287016000805b838110156104b257888703607f1901855282518051808952835b8181101561048b578281018901518a82018a01528801610470565b508881018801849052601f01601f1916909701860196509385019391850191600101610456565b50949a9950505050505050505050565b80516104cd81610352565b919050565b6000806000606084860312156104e757600080fd5b83516104f281610352565b8093505060208085015161050581610352565b604086015190935067ffffffffffffffff8082111561052357600080fd5b818701915087601f83011261053757600080fd5b81518181111561054957610549610400565b8060051b604051601f19603f8301168101818110858211171561056e5761056e610400565b60405291825284820192508381018501918a83111561058c57600080fd5b938501935b828510156105b1576105a2856104c2565b84529385019392850192610591565b8096505050505050509250925092565b6000602082840312156105d357600080fd5b81516103818161035256fea2646970667358221220afa534ab8a64c7acb557763fe6378dfc21d9bd0e4bb95bb3a0a08244676e98d064736f6c63430008180033",
  "linkReferences": {},
  "deployedLinkReferences": {}
}