{
  "_format": "hh-sol-artifact-1",
  "contractName": "IdentityRegistry",
  "sourceName": "contracts/erc3643/registry/implementation/IdentityRegistry.sol",
  "abi": [
    {
      "anonymous": false,
      "inputs": [
        {
          "indexed": true,
          "internalType": "address",
          "name": "_agent",
          "type": "address"
        }
      ],
      "name": "AgentAdded",
      "type": "event"
    },
    {
      "anonymous": false,
      "inputs": [
        {
          "indexed": true,
          "internalType": "address",
          "name": "_agent",
          "type": "address"
        }
      ],
      "name": "AgentRemoved",
      "type": "event"
    },
    {
      "anonymous": false,
      "inputs": [
        {
          "indexed": true,
          "internalType": "address",
          "name": "claimTopicsRegistry",
          "type": "address"
        }
      ],
      "name": "ClaimTopicsRegistrySet",
      "type": "event"
    },
    {
      "anonymous": false,
      "inputs": [
        {
          "indexed": true,
          "internalType": "address",
          "name": "investorAddress",
          "type": "address"
        },
        {
          "indexed": true,
          "internalType": "uint16",
          "name": "country",
          "type": "uint16"
        }
      ],
      "name": "CountryUpdated",
      "type": "event"
    },
    {
      "anonymous": false,
      "inputs": [
        {
          "indexed": true,
          "internalType": "address",
          "name": "investorAddress",
          "type": "address"
        },
        {
          "indexed": true,
          "internalType": "contract IIdentity",
          "name": "identity",
          "type": "address"
        }
      ],
      "name": "IdentityRegistered",
      "type": "event"
    },
    {
      "anonymous": false,
      "inputs": [
        {
          "indexed": true,
          "internalType": "address",
          "name": "investorAddress",
          "type": "address"
        },
        {
          "indexed": true,
          "internalType": "contract IIdentity",
          "name": "identity",
          "type": "address"
        }
      ],
      "name": "IdentityRemoved",
      "type": "event"
    },
    {
      "anonymous": false,
      "inputs": [
        {
          "indexed": true,
          "internalType": "address",
          "name": "identityStorage",
          "type": "address"
        }
      ],
      "name": "IdentityStorageSet",
      "type": "event"
    },
    {
      "anonymous": false,
      "inputs": [
        {
          "indexed": true,
          "internalType": "contract IIdentity",
          "name": "oldIdentity",
          "type": "address"
        },
        {
          "indexed": true,
          "internalType": "contract IIdentity",
          "name": "newIdentity",
          "type": "address"
        }
      ],
      "name": "IdentityUpdated",
      "type": "event"
    },
    {
      "anonymous": false,
      "inputs": [
        {
          "indexed": false,
          "internalType": "uint8",
          "name": "version",
          "type": "uint8"
        }
      ],
      "name": "Initialized",
      "type": "event"
    },
    {
      "anonymous": false,
      "inputs": [
        {
          "indexed": true,
          "internalType": "address",
          "name": "previousOwner",
          "type": "address"
        },
        {
          "indexed": true,
          "internalType": "address",
          "name": "newOwner",
          "type": "address"
        }
      ],
      "name": "OwnershipTransferred",
      "type": "event"
    },
    {
      "anonymous": false,
      "inputs": [
        {
          "indexed": true,
          "internalType": "address",
          "name": "trustedIssuersRegistry",
          "type": "address"
        }
      ],
      "name": "TrustedIssuersRegistrySet",
      "type": "event"
    },
    {
      "inputs": [
        {
          "internalType": "address",
          "name": "_agent",
          "type": "address"
        }
      ],
      "name": "addAgent",
      "outputs": [],
      "stateMutability": "nonpayable",
      "type": "function"
    },
    {
      "inputs": [
        {
          "internalType": "address[]",
          "name": "_userAddresses",
          "type": "address[]"
        },
        {
          "internalType": "contract IIdentity[]",
          "name": "_identities",
          "type": "address[]"
        },
        {
          "internalType": "uint16[]",
          "name": "_countries",
          "type": "uint16[]"
        }
      ],
      "name": "batchRegisterIdentity",
      "outputs": [],
      "stateMutability": "nonpayable",
      "type": "function"
    },
    {
      "inputs": [
        {
          "internalType": "address",
          "name": "_userAddress",
          "type": "address"
        }
      ],
      "name": "contains",
      "outputs": [
        {
          "internalType": "bool",
          "name": "",
          "type": "bool"
        }
      ],
      "stateMutability": "view",
      "type": "function"
    },
    {
      "inputs": [
        {
          "internalType": "address",
          "name": "_userAddress",
          "type": "address"
        }
      ],
      "name": "deleteIdentity",
      "outputs": [],
      "stateMutability": "nonpayable",
      "type": "function"
    },
    {
      "inputs": [
        {
          "internalType": "address",
          "name": "_userAddress",
          "type": "address"
        }
      ],
      "name": "identity",
      "outputs": [
        {
          "internalType": "contract IIdentity",
          "name": "",
          "type": "address"
        }
      ],
      "stateMutability": "view",
      "type": "function"
    },
    {
      "inputs": [],
      "name": "identityStorage",
      "outputs": [
        {
          "internalType": "contract IIdentityRegistryStorage",
          "name": "",
          "type": "address"
        }
      ],
      "stateMutability": "view",
      "type": "function"
    },
    {
      "inputs": [
        {
          "internalType": "address",
          "name": "_trustedIssuersRegistry",
          "type": "address"
        },
        {
          "internalType": "address",
          "name": "_claimTopicsRegistry",
          "type": "address"
        },
        {
          "internalType": "address",
          "name": "_identityStorage",
          "type": "address"
        }
      ],
      "name": "init",
      "outputs": [],
      "stateMutability": "nonpayable",
      "type": "function"
    },
    {
      "inputs": [
        {
          "internalType": "address",
          "name": "_userAddress",
          "type": "address"
        }
      ],
      "name": "investorCountry",
      "outputs": [
        {
          "internalType": "uint16",
          "name": "",
          "type": "uint16"
        }
      ],
      "stateMutability": "view",
      "type": "function"
    },
    {
      "inputs": [
        {
          "internalType": "address",
          "name": "_agent",
          "type": "address"
        }
      ],
      "name": "isAgent",
      "outputs": [
        {
          "internalType": "bool",
          "name": "",
          "type": "bool"
        }
      ],
      "stateMutability": "view",
      "type": "function"
    },
    {
      "inputs": [
        {
          "internalType": "address",
          "name": "_userAddress",
          "type": "address"
        }
      ],
      "name": "isVerified",
      "outputs": [
        {
          "internalType": "bool",
          "name": "",
          "type": "bool"
        }
      ],
      "stateMutability": "view",
      "type": "function"
    },
    {
      "inputs": [],
      "name": "issuersRegistry",
      "outputs": [
        {
          "internalType": "contract ITrustedIssuersRegistry",
          "name": "",
          "type": "address"
        }
      ],
      "stateMutability": "view",
      "type": "function"
    },
    {
      "inputs": [],
      "name": "owner",
      "outputs": [
        {
          "internalType": "address",
          "name": "",
          "type": "address"
        }
      ],
      "stateMutability": "view",
      "type": "function"
    },
    {
      "inputs": [
        {
          "internalType": "address",
          "name": "_userAddress",
          "type": "address"
        },
        {
          "internalType": "contract IIdentity",
          "name": "_identity",
          "type": "address"
        },
        {
          "internalType": "uint16",
          "name": "_country",
          "type": "uint16"
        }
      ],
      "name": "registerIdentity",
      "outputs": [],
      "stateMutability": "nonpayable",
      "type": "function"
    },
    {
      "inputs": [
        {
          "internalType": "address",
          "name": "_agent",
          "type": "address"
        }
      ],
      "name": "removeAgent",
      "outputs": [],
      "stateMutability": "nonpayable",
      "type": "function"
    },
    {
      "inputs": [],
      "name": "renounceOwnership",
      "outputs": [],
      "stateMutability": "nonpayable",
      "type": "function"
    },
    {
      "inputs": [
        {
          "internalType": "address",
          "name": "_claimTopicsRegistry",
          "type": "address"
        }
      ],
      "name": "setClaimTopicsRegistry",
      "outputs": [],
      "stateMutability": "nonpayable",
      "type": "function"
    },
    {
      "inputs": [
        {
          "internalType": "address",
          "name": "_identityRegistryStorage",
          "type": "address"
        }
      ],
      "name": "setIdentityRegistryStorage",
      "outputs": [],
      "stateMutability": "nonpayable",
      "type": "function"
    },
    {
      "inputs": [
        {
          "internalType": "address",
          "name": "_trustedIssuersRegistry",
          "type": "address"
        }
      ],
      "name": "setTrustedIssuersRegistry",
      "outputs": [],
      "stateMutability": "nonpayable",
      "type": "function"
    },
    {
      "inputs": [],
      "name": "topicsRegistry",
      "outputs": [
        {
          "internalType": "contract IClaimTopicsRegistry",
          "name": "",
          "type": "address"
        }
      ],
      "stateMutability": "view",
      "type": "function"
    },
    {
      "inputs": [
        {
          "internalType": "address",
          "name": "newOwner",
          "type": "address"
        }
      ],
      "name": "transferOwnership",
      "outputs": [],
      "stateMutability": "nonpayable",
      "type": "function"
    },
    {
      "inputs": [
        {
          "internalType": "address",
          "name": "_userAddress",
          "type": "address"
        },
        {
          "internalType": "uint16",
          "name": "_country",
          "type": "uint16"
        }
      ],
      "name": "updateCountry",
      "outputs": [],
      "stateMutability": "nonpayable",
      "type": "function"
    },
    {
      "inputs": [
        {
          "internalType": "address",
          "name": "_userAddress",
          "type": "address"
        },
        {
          "internalType": "contract IIdentity",
          "name": "_identity",
          "type": "address"
        }
      ],
      "name": "updateIdentity",
      "outputs": [],
      "stateMutability": "nonpayable",
      "type": "function"
    }
  ],
  "bytecode": "0x608060405234801561001057600080fd5b50611adf806100206000396000f3fe608060405234801561001057600080fd5b50600436106101425760003560e01c806384e79842116100b8578063b4f3fcb71161007c578063b4f3fcb7146102a6578063b9209e33146102b7578063e744d789146102ca578063f0eb5e54146102dd578063f11abfd8146102f0578063f2fde38b1461030157600080fd5b806384e79842146102495780638da5cb5b1461025c5780638e098ca11461026d57806397a6278e14610280578063a8d29d1d1461029357600080fd5b8063454a03e01161010a578063454a03e0146101cf5780635dbe47e8146101e2578063653dc9f1146101f5578063670af6a914610208578063715018a61461021b5780637e42683b1461022357600080fd5b8063184b9559146101475780631ffbb0641461015c57806326d941ae146101845780633b239a7f146101975780633b3e12f4146101aa575b600080fd5b61015a6101553660046113b2565b610314565b005b61016f61016a3660046113fd565b610549565b60405190151581526020015b60405180910390f35b61015a6101923660046113fd565b61055c565b61015a6101a5366004611431565b6105ae565b6066546001600160a01b03165b6040516001600160a01b03909116815260200161017b565b61015a6101dd36600461146a565b61067a565b61016f6101f03660046113fd565b61074d565b61015a6102033660046114f6565b610777565b61015a6102163660046113fd565b61080b565b61015a61085d565b6102366102313660046113fd565b610871565b60405161ffff909116815260200161017b565b61015a6102573660046113fd565b6108e0565b6033546001600160a01b03166101b7565b61015a61027b366004611590565b610950565b61015a61028e3660046113fd565b610a26565b61015a6102a13660046113fd565b610a96565b6067546001600160a01b03166101b7565b61016f6102c53660046113fd565b610b63565b61015a6102d83660046113fd565b610fd7565b6101b76102eb3660046113fd565b611029565b6068546001600160a01b03166101b7565b61015a61030f3660046113fd565b611098565b600054610100900460ff16158080156103345750600054600160ff909116105b8061034e5750303b15801561034e575060005460ff166001145b6103b65760405162461bcd60e51b815260206004820152602e60248201527f496e697469616c697a61626c653a20636f6e747261637420697320616c72656160448201526d191e481a5b9a5d1a585b1a5e995960921b60648201526084015b60405180910390fd5b6000805460ff1916600117905580156103d9576000805461ff0019166101001790555b6001600160a01b038416158015906103f957506001600160a01b03831615155b801561040d57506001600160a01b03821615155b6104295760405162461bcd60e51b81526004016103ad906115be565b606680546001600160a01b038086166001600160a01b031992831681179093556067805488831690841617905560688054918616919092161790556040517f7170bf15b246e880b2369cd7c67d057760d8a35149e8c64dde91efa22bcc76d090600090a26040516001600160a01b038516907f1b98cb79e6f73020175fe87333f1b91ad6a881519c0afe30340c2599b2b4bde090600090a26040516001600160a01b038316907f2fa8b95c1db7afe99e3398f3792f008135cedc1fa26b0bb2ecd2352cd166d53c90600090a26104fd611111565b8015610543576000805461ff0019169055604051600181527f7f26b83ff96e1f2b6a682f133852f6798a09c465da95921460cefb38474024989060200160405180910390a15b50505050565b6000610556606583611140565b92915050565b6105646111c3565b606880546001600160a01b0319166001600160a01b0383169081179091556040517f2fa8b95c1db7afe99e3398f3792f008135cedc1fa26b0bb2ecd2352cd166d53c90600090a250565b6105b733610549565b6105d35760405162461bcd60e51b81526004016103ad906115f5565b606854604051639f3418d560e01b81526001600160a01b03848116600483015261ffff8416602483015290911690639f3418d590604401600060405180830381600087803b15801561062457600080fd5b505af1158015610638573d6000803e3d6000fd5b505060405161ffff841692506001600160a01b03851691507f04ed3b726495c2dca1ff1215d9ca54e1a4030abb5e82b0f6ce55702416cee85390600090a35050565b61068333610549565b61069f5760405162461bcd60e51b81526004016103ad906115f5565b60685460405163a53410dd60e01b81526001600160a01b038581166004830152848116602483015261ffff841660448301529091169063a53410dd90606401600060405180830381600087803b1580156106f857600080fd5b505af115801561070c573d6000803e3d6000fd5b50506040516001600160a01b038086169350861691507f6ae73635c50d24a45af6fbd5e016ac4bed179addbc8bf24e04ff0fcc6d33af1990600090a3505050565b60008061075983611029565b6001600160a01b03160361076f57506000919050565b506001919050565b60005b85811015610802576107fa87878381811061079757610797611643565b90506020020160208101906107ac91906113fd565b8686848181106107be576107be611643565b90506020020160208101906107d391906113fd565b8585858181106107e5576107e5611643565b90506020020160208101906101dd9190611659565b60010161077a565b50505050505050565b6108136111c3565b606680546001600160a01b0319166001600160a01b0383169081179091556040517f7170bf15b246e880b2369cd7c67d057760d8a35149e8c64dde91efa22bcc76d090600090a250565b6108656111c3565b61086f600061121d565b565b606854604051631c9f84ef60e21b81526001600160a01b038381166004830152600092169063727e13bc90602401602060405180830381865afa1580156108bc573d6000803e3d6000fd5b505050506040513d601f19601f820116820180604052508101906105569190611676565b6108e86111c3565b6001600160a01b03811661090e5760405162461bcd60e51b81526004016103ad906115be565b61091960658261126f565b6040516001600160a01b038216907ff68e73cec97f2d70aa641fb26e87a4383686e2efacb648f2165aeb02ac562ec590600090a250565b61095933610549565b6109755760405162461bcd60e51b81526004016103ad906115f5565b600061098083611029565b606854604051637402e7c360e11b81526001600160a01b038681166004830152858116602483015292935091169063e805cf8690604401600060405180830381600087803b1580156109d157600080fd5b505af11580156109e5573d6000803e3d6000fd5b50506040516001600160a01b038086169350841691507fe98082932c8056a0f514da9104e4a66bc2cbaef102ad59d90c4b24220ebf601090600090a3505050565b610a2e6111c3565b6001600160a01b038116610a545760405162461bcd60e51b81526004016103ad906115be565b610a5f6065826112eb565b6040516001600160a01b038216907fed9c8ad8d5a0a66898ea49d2956929c93ae2e8bd50281b2ed897c5d1a6737e0b90600090a250565b610a9f33610549565b610abb5760405162461bcd60e51b81526004016103ad906115f5565b6000610ac682611029565b60685460405163cf191bcd60e01b81526001600160a01b03858116600483015292935091169063cf191bcd90602401600060405180830381600087803b158015610b0f57600080fd5b505af1158015610b23573d6000803e3d6000fd5b50506040516001600160a01b038085169350851691507f59d6590e225b81befe259af056324092801080acbb7feab310eb34678871f32790600090a35050565b600080610b6f83611029565b6001600160a01b031603610b8557506000919050565b606654604080516337c2758160e21b815290516000926001600160a01b03169163df09d60491600480830192869291908290030181865afa158015610bce573d6000803e3d6000fd5b505050506040513d6000823e601f3d908101601f19168201604052610bf691908101906116fe565b90508051600003610c0a5750600192915050565b600080600060608060005b8651811015610fc85760675487516000916001600160a01b0316906352c111d1908a9085908110610c4857610c48611643565b60200260200101516040518263ffffffff1660e01b8152600401610c6e91815260200190565b600060405180830381865afa158015610c8b573d6000803e3d6000fd5b505050506040513d6000823e601f3d908101601f19168201604052610cb39190810190611794565b90508051600003610cce575060009998505050505050505050565b6000815167ffffffffffffffff811115610cea57610cea611693565b604051908082528060200260200182016040528015610d13578160200160208202803683370190505b50905060005b8251811015610db657828181518110610d3457610d34611643565b60200260200101518a8581518110610d4e57610d4e611643565b6020026020010151604051602001610d7b9291906001600160a01b03929092168252602082015260400190565b60405160208183030381529060405280519060200120828281518110610da357610da3611643565b6020908102919091010152600101610d19565b5060005b8151811015610fbd57610dcc8c611029565b6001600160a01b031663c9100bcb838381518110610dec57610dec611643565b60200260200101516040518263ffffffff1660e01b8152600401610e1291815260200190565b600060405180830381865afa158015610e2f573d6000803e3d6000fd5b505050506040513d6000823e601f3d908101601f19168201604052610e5791908101906118b6565b508e51949d50929b50909950975095508a9085908110610e7957610e79611643565b60200260200101518903610f8557866001600160a01b031663c0969a6e610e9f8e611029565b8c8781518110610eb157610eb1611643565b602002602001015189896040518563ffffffff1660e01b8152600401610eda94939291906119a4565b602060405180830381865afa925050508015610f13575060408051601f3d908101601f19168201909252610f10918101906119dd565b60015b610f425760018251610f259190611a15565b8103610f3d575060009b9a5050505050505050505050565b610fab565b8015610f4d57825191505b80158015610f67575060018351610f649190611a15565b82145b15610f7f575060009c9b505050505050505050505050565b50610fab565b60018251610f939190611a15565b8103610fab575060009b9a5050505050505050505050565b80610fb581611a28565b915050610dba565b505050600101610c15565b50600198975050505050505050565b610fdf6111c3565b606780546001600160a01b0319166001600160a01b0383169081179091556040517f1b98cb79e6f73020175fe87333f1b91ad6a881519c0afe30340c2599b2b4bde090600090a250565b606854604051637988d3a560e01b81526001600160a01b0383811660048301526000921690637988d3a590602401602060405180830381865afa158015611074573d6000803e3d6000fd5b505050506040513d601f19601f820116820180604052508101906105569190611a41565b6110a06111c3565b6001600160a01b0381166111055760405162461bcd60e51b815260206004820152602660248201527f4f776e61626c653a206e6577206f776e657220697320746865207a65726f206160448201526564647265737360d01b60648201526084016103ad565b61110e8161121d565b50565b600054610100900460ff166111385760405162461bcd60e51b81526004016103ad90611a5e565b61086f61136d565b60006001600160a01b0382166111a35760405162461bcd60e51b815260206004820152602260248201527f526f6c65733a206163636f756e7420697320746865207a65726f206164647265604482015261737360f01b60648201526084016103ad565b506001600160a01b03166000908152602091909152604090205460ff1690565b6033546001600160a01b0316331461086f5760405162461bcd60e51b815260206004820181905260248201527f4f776e61626c653a2063616c6c6572206973206e6f7420746865206f776e657260448201526064016103ad565b603380546001600160a01b038381166001600160a01b0319831681179093556040519116919082907f8be0079c531659141344cd1fd0a4f28419497f9722a3daafe3b4186f6b6457e090600090a35050565b6112798282611140565b156112c65760405162461bcd60e51b815260206004820152601f60248201527f526f6c65733a206163636f756e7420616c72656164792068617320726f6c650060448201526064016103ad565b6001600160a01b0316600090815260209190915260409020805460ff19166001179055565b6112f58282611140565b61134b5760405162461bcd60e51b815260206004820152602160248201527f526f6c65733a206163636f756e7420646f6573206e6f74206861766520726f6c6044820152606560f81b60648201526084016103ad565b6001600160a01b0316600090815260209190915260409020805460ff19169055565b600054610100900460ff166113945760405162461bcd60e51b81526004016103ad90611a5e565b61086f3361121d565b6001600160a01b038116811461110e57600080fd5b6000806000606084860312156113c757600080fd5b83356113d28161139d565b925060208401356113e28161139d565b915060408401356113f28161139d565b809150509250925092565b60006020828403121561140f57600080fd5b813561141a8161139d565b9392505050565b61ffff8116811461110e57600080fd5b6000806040838503121561144457600080fd5b823561144f8161139d565b9150602083013561145f81611421565b809150509250929050565b60008060006060848603121561147f57600080fd5b833561148a8161139d565b9250602084013561149a8161139d565b915060408401356113f281611421565b60008083601f8401126114bc57600080fd5b50813567ffffffffffffffff8111156114d457600080fd5b6020830191508360208260051b85010111156114ef57600080fd5b9250929050565b6000806000806000806060878903121561150f57600080fd5b863567ffffffffffffffff8082111561152757600080fd5b6115338a838b016114aa565b9098509650602089013591508082111561154c57600080fd5b6115588a838b016114aa565b9096509450604089013591508082111561157157600080fd5b5061157e89828a016114aa565b979a9699509497509295939492505050565b600080604083850312156115a357600080fd5b82356115ae8161139d565b9150602083013561145f8161139d565b6020808252601f908201527f696e76616c696420617267756d656e74202d207a65726f206164647265737300604082015260600190565b6020808252602e908201527f4167656e74526f6c653a2063616c6c657220646f6573206e6f7420686176652060408201526d746865204167656e7420726f6c6560901b606082015260800190565b634e487b7160e01b600052603260045260246000fd5b60006020828403121561166b57600080fd5b813561141a81611421565b60006020828403121561168857600080fd5b815161141a81611421565b634e487b7160e01b600052604160045260246000fd5b604051601f8201601f1916810167ffffffffffffffff811182821017156116d2576116d2611693565b604052919050565b600067ffffffffffffffff8211156116f4576116f4611693565b5060051b60200190565b6000602080838503121561171157600080fd5b825167ffffffffffffffff81111561172857600080fd5b8301601f8101851361173957600080fd5b805161174c611747826116da565b6116a9565b81815260059190911b8201830190838101908783111561176b57600080fd5b928401925b8284101561178957835182529284019290840190611770565b979650505050505050565b600060208083850312156117a757600080fd5b825167ffffffffffffffff8111156117be57600080fd5b8301601f810185136117cf57600080fd5b80516117dd611747826116da565b81815260059190911b820183019083810190878311156117fc57600080fd5b928401925b828410156117895783516118148161139d565b82529284019290840190611801565b60005b8381101561183e578181015183820152602001611826565b50506000910152565b600067ffffffffffffffff83111561186157611861611693565b611874601f8401601f19166020016116a9565b905082815283838301111561188857600080fd5b61141a836020830184611823565b600082601f8301126118a757600080fd5b61141a83835160208501611847565b60008060008060008060c087890312156118cf57600080fd5b865195506020870151945060408701516118e88161139d565b606088015190945067ffffffffffffffff8082111561190657600080fd5b6119128a838b01611896565b9450608089015191508082111561192857600080fd5b6119348a838b01611896565b935060a089015191508082111561194a57600080fd5b508701601f8101891361195c57600080fd5b61196b89825160208401611847565b9150509295509295509295565b60008151808452611990816020860160208601611823565b601f01601f19169290920160200192915050565b60018060a01b03851681528360208201526080604082015260006119cb6080830185611978565b82810360608401526117898185611978565b6000602082840312156119ef57600080fd5b8151801515811461141a57600080fd5b634e487b7160e01b600052601160045260246000fd5b81810381811115610556576105566119ff565b600060018201611a3a57611a3a6119ff565b5060010190565b600060208284031215611a5357600080fd5b815161141a8161139d565b6020808252602b908201527f496e697469616c697a61626c653a20636f6e7472616374206973206e6f74206960408201526a6e697469616c697a696e6760a81b60608201526080019056fea26469706673582212206803b9f224f10bc3ba5326707fe98ba5d2c7c5450b4c1a1249641989f8ac968564736f6c63430008180033",
  "linkReferences": {},
  "deployedLinkReferences": {}
}