{
  "_format": "hh-sol-artifact-1",
  "contractName": "IdentityGateway",
  "sourceName": "contracts/onchainid/gateway/Gateway.sol",
  "abi": [
    {
      "inputs": [
        {
          "internalType": "address",
          "name": "idFactoryAddress",
          "type": "address"
        },
        {
          "internalType": "address[]",
          "name": "signersToApprove",
          "type": "address[]"
        }
      ],
      "stateMutability": "nonpayable",
      "type": "constructor"
    },
    {
      "inputs": [],
      "name": "ECDSAInvalidSignature",
      "type": "error"
    },
    {
      "inputs": [
        {
          "internalType": "uint256",
          "name": "length",
          "type": "uint256"
        }
      ],
      "name": "ECDSAInvalidSignatureLength",
      "type": "error"
    },
    {
      "inputs": [
        {
          "internalType": "bytes32",
          "name": "s",
          "type": "bytes32"
        }
      ],
      "name": "ECDSAInvalidSignatureS",
      "type": "error"
    },
    {
      "inputs": [
        {
          "internalType": "bytes",
          "name": "signature",
          "type": "bytes"
        }
      ],
      "name": "ExpiredSignature",
      "type": "error"
    },
    {
      "inputs": [
        {
          "internalType": "address",
          "name": "owner",
          "type": "address"
        }
      ],
      "name": "OwnableInvalidOwner",
      "type": "error"
    },
    {
      "inputs": [
        {
          "internalType": "address",
          "name": "account",
          "type": "address"
        }
      ],
      "name": "OwnableUnauthorizedAccount",
      "type": "error"
    },
    {
      "inputs": [
        {
          "internalType": "bytes",
          "name": "signature",
          "type": "bytes"
        }
      ],
      "name": "RevokedSignature",
      "type": "error"
    },
    {
      "inputs": [
        {
          "internalType": "bytes",
          "name": "signature",
          "type": "bytes"
        }
      ],
      "name": "SignatureAlreadyRevoked",
      "type": "error"
    },
    {
      "inputs": [
        {
          "internalType": "bytes",
          "name": "signature",
          "type": "bytes"
        }
      ],
      "name": "SignatureNotRevoked",
      "type": "error"
    },
    {
      "inputs": [
        {
          "internalType": "address",
          "name": "signer",
          "type": "address"
        }
      ],
      "name": "SignerAlreadyApproved",
      "type": "error"
    },
    {
      "inputs": [
        {
          "internalType": "address",
          "name": "signer",
          "type": "address"
        }
      ],
      "name": "SignerAlreadyNotApproved",
      "type": "error"
    },
    {
      "inputs": [
        {
          "internalType": "uint256",
          "name": "value",
          "type": "uint256"
        },
        {
          "internalType": "uint256",
          "name": "length",
          "type": "uint256"
        }
      ],
      "name": "StringsInsufficientHexLength",
      "type": "error"
    },
    {
      "inputs": [],
      "name": "TooManySigners",
      "type": "error"
    },
    {
      "inputs": [
        {
          "internalType": "address",
          "name": "signer",
          "type": "address"
        }
      ],
      "name": "UnapprovedSigner",
      "type": "error"
    },
    {
      "inputs": [],
      "name": "ZeroAddress",
      "type": "error"
    },
    {
      "anonymous": false,
      "inputs": [
        {
          "indexed": true,
          "internalType": "address",
          "name": "previousOwner",
          "type": "address"
        },
        {
          "indexed": true,
          "internalType": "address",
          "name": "newOwner",
          "type": "address"
        }
      ],
      "name": "OwnershipTransferred",
      "type": "event"
    },
    {
      "anonymous": false,
      "inputs": [
        {
          "indexed": true,
          "internalType": "bytes",
          "name": "signature",
          "type": "bytes"
        }
      ],
      "name": "SignatureApproved",
      "type": "event"
    },
    {
      "anonymous": false,
      "inputs": [
        {
          "indexed": true,
          "internalType": "bytes",
          "name": "signature",
          "type": "bytes"
        }
      ],
      "name": "SignatureRevoked",
      "type": "event"
    },
    {
      "anonymous": false,
      "inputs": [
        {
          "indexed": true,
          "internalType": "address",
          "name": "signer",
          "type": "address"
        }
      ],
      "name": "SignerApproved",
      "type": "event"
    },
    {
      "anonymous": false,
      "inputs": [
        {
          "indexed": true,
          "internalType": "address",
          "name": "signer",
          "type": "address"
        }
      ],
      "name": "SignerRevoked",
      "type": "event"
    },
    {
      "inputs": [
        {
          "internalType": "bytes",
          "name": "signature",
          "type": "bytes"
        }
      ],
      "name": "approveSignature",
      "outputs": [],
      "stateMutability": "nonpayable",
      "type": "function"
    },
    {
      "inputs": [
        {
          "internalType": "address",
          "name": "signer",
          "type": "address"
        }
      ],
      "name": "approveSigner",
      "outputs": [],
      "stateMutability": "nonpayable",
      "type": "function"
    },
    {
      "inputs": [
        {
          "internalType": "address",
          "name": "",
          "type": "address"
        }
      ],
      "name": "approvedSigners",
      "outputs": [
        {
          "internalType": "bool",
          "name": "",
          "type": "bool"
        }
      ],
      "stateMutability": "view",
      "type": "function"
    },
    {
      "inputs": [
        {
          "internalType": "bytes",
          "name": "data",
          "type": "bytes"
        }
      ],
      "name": "callFactory",
      "outputs": [],
      "stateMutability": "nonpayable",
      "type": "function"
    },
    {
      "inputs": [
        {
          "internalType": "address",
          "name": "identityOwner",
          "type": "address"
        }
      ],
      "name": "deployIdentityForWallet",
      "outputs": [
        {
          "internalType": "address",
          "name": "",
          "type": "address"
        }
      ],
      "stateMutability": "nonpayable",
      "type": "function"
    },
    {
      "inputs": [
        {
          "internalType": "address",
          "name": "identityOwner",
          "type": "address"
        },
        {
          "internalType": "string",
          "name": "salt",
          "type": "string"
        },
        {
          "internalType": "uint256",
          "name": "signatureExpiry",
          "type": "uint256"
        },
        {
          "internalType": "bytes",
          "name": "signature",
          "type": "bytes"
        }
      ],
      "name": "deployIdentityWithSalt",
      "outputs": [
        {
          "internalType": "address",
          "name": "",
          "type": "address"
        }
      ],
      "stateMutability": "nonpayable",
      "type": "function"
    },
    {
      "inputs": [
        {
          "internalType": "address",
          "name": "identityOwner",
          "type": "address"
        },
        {
          "internalType": "string",
          "name": "salt",
          "type": "string"
        },
        {
          "internalType": "bytes32[]",
          "name": "managementKeys",
          "type": "bytes32[]"
        },
        {
          "internalType": "uint256",
          "name": "signatureExpiry",
          "type": "uint256"
        },
        {
          "internalType": "bytes",
          "name": "signature",
          "type": "bytes"
        }
      ],
      "name": "deployIdentityWithSaltAndManagementKeys",
      "outputs": [
        {
          "internalType": "address",
          "name": "",
          "type": "address"
        }
      ],
      "stateMutability": "nonpayable",
      "type": "function"
    },
    {
      "inputs": [],
      "name": "idFactory",
      "outputs": [
        {
          "internalType": "contract IdFactory",
          "name": "",
          "type": "address"
        }
      ],
      "stateMutability": "view",
      "type": "function"
    },
    {
      "inputs": [],
      "name": "owner",
      "outputs": [
        {
          "internalType": "address",
          "name": "",
          "type": "address"
        }
      ],
      "stateMutability": "view",
      "type": "function"
    },
    {
      "inputs": [],
      "name": "renounceOwnership",
      "outputs": [],
      "stateMutability": "nonpayable",
      "type": "function"
    },
    {
      "inputs": [
        {
          "internalType": "bytes",
          "name": "signature",
          "type": "bytes"
        }
      ],
      "name": "revokeSignature",
      "outputs": [],
      "stateMutability": "nonpayable",
      "type": "function"
    },
    {
      "inputs": [
        {
          "internalType": "address",
          "name": "signer",
          "type": "address"
        }
      ],
      "name": "revokeSigner",
      "outputs": [],
      "stateMutability": "nonpayable",
      "type": "function"
    },
    {
      "inputs": [
        {
          "internalType": "bytes",
          "name": "",
          "type": "bytes"
        }
      ],
      "name": "revokedSignatures",
      "outputs": [
        {
          "internalType": "bool",
          "name": "",
          "type": "bool"
        }
      ],
      "stateMutability": "view",
      "type": "function"
    },
    {
      "inputs": [
        {
          "internalType": "address",
          "name": "newOwner",
          "type": "address"
        }
      ],
      "name": "transferFactoryOwnership",
      "outputs": [],
      "stateMutability": "nonpayable",
      "type": "function"
    },
    {
      "inputs": [
        {
          "internalType": "address",
          "name": "newOwner",
          "type": "address"
        }
      ],
      "name": "transferOwnership",
      "outputs": [],
      "stateMutability": "nonpayable",
      "type": "function"
    }
  ],
  "bytecode": "0x60806040523480156200001157600080fd5b5060405162001823380380620018238339810160408190526200003491620001c1565b33806200005b57604051631e4fbdf760e01b81526000600482015260240160405180910390fd5b62000066816200013e565b506001600160a01b0382166200008f5760405163d92e233d60e01b815260040160405180910390fd5b600a81511115620000b357604051630dc92ed360e11b815260040160405180910390fd5b60005b81518110156200011657600160026000848481518110620000db57620000db620002aa565b6020908102919091018101516001600160a01b03168252810191909152604001600020805460ff1916911515919091179055600101620000b6565b5050600180546001600160a01b0319166001600160a01b0392909216919091179055620002c0565b600080546001600160a01b038381166001600160a01b0319831681178455604051919092169283917f8be0079c531659141344cd1fd0a4f28419497f9722a3daafe3b4186f6b6457e09190a35050565b80516001600160a01b0381168114620001a657600080fd5b919050565b634e487b7160e01b600052604160045260246000fd5b60008060408385031215620001d557600080fd5b620001e0836200018e565b602084810151919350906001600160401b03808211156200020057600080fd5b818601915086601f8301126200021557600080fd5b8151818111156200022a576200022a620001ab565b8060051b604051601f19603f83011681018181108582111715620002525762000252620001ab565b6040529182528482019250838101850191898311156200027157600080fd5b938501935b828510156200029a576200028a856200018e565b8452938501939285019262000276565b8096505050505050509250929050565b634e487b7160e01b600052603260045260246000fd5b61155380620002d06000396000f3fe608060405234801561001057600080fd5b50600436106100f55760003560e01c80638a87551211610097578063ccbfc6ed11610066578063ccbfc6ed14610218578063d70aa0ee1461022b578063e9ba23631461023e578063f2fde38b1461025157600080fd5b80638a875512146101be5780638da5cb5b146101e15780639c5c5ce7146101f2578063c34b44a01461020557600080fd5b80634e2984e4116100d35780634e2984e414610152578063715018a61461019057806378e751a6146101985780637d963e6f146101ab57600080fd5b806309f29c09146100fa57806317f67a151461010f5780633e8e6e8b1461013f575b600080fd5b61010d610108366004610fba565b610264565b005b61012261011d366004611088565b610326565b6040516001600160a01b0390911681526020015b60405180910390f35b61012261014d36600461110f565b61052f565b610180610160366004610fba565b805160208183018101805160038252928201919093012091525460ff1681565b6040519015158152602001610136565b61010d6105d9565b600154610122906001600160a01b031681565b61010d6101b936600461112c565b6105ed565b6101806101cc36600461110f565b60026020526000908152604090205460ff1681565b6000546001600160a01b0316610122565b61010d61020036600461110f565b6106a5565b61010d61021336600461110f565b61070f565b61010d61022636600461112c565b6107cb565b61010d61023936600461110f565b610890565b61012261024c36600461116e565b610950565b61010d61025f36600461110f565b610ade565b61026c610b1c565b6001546040516000916001600160a01b03169061028a908490611274565b6000604051808303816000865af19150503d80600081146102c7576040519150601f19603f3d011682016040523d82523d6000602084013e6102cc565b606091505b50509050806103225760405162461bcd60e51b815260206004820152601f60248201527f476174657761793a2063616c6c20746f20666163746f7279206661696c65640060448201526064015b60405180910390fd5b5050565b60006001600160a01b03861661034f5760405163d92e233d60e01b815260040160405180910390fd5b831580159061035d57504284105b1561037f57828260405163019fcfdb60e31b8152600401610319929190611290565b60006104216103e588888860405160200161039c939291906112eb565b604051602081830303815290604052805190602001207f19457468657265756d205369676e6564204d6573736167653a0a3332000000006000908152601c91909152603c902090565b85858080601f016020809104026020016040519081016040528093929190818152602001838380828437600092019190915250610b4992505050565b6001600160a01b03811660009081526002602052604090205490915060ff166104685760405163579e40b960e11b81526001600160a01b0382166004820152602401610319565b6003848460405161047a92919061135a565b9081526040519081900360200190205460ff16156104af5783836040516314dbff3f60e31b8152600401610319929190611290565b60015460405163474a95ff60e11b81526001600160a01b0390911690638e952bfe906104e1908a908a9060040161136a565b6020604051808303816000875af1158015610500573d6000803e3d6000fd5b505050506040513d601f19601f82011682018060405250810190610524919061138e565b979650505050505050565b60006001600160a01b0382166105585760405163d92e233d60e01b815260040160405180910390fd5b6001546001600160a01b0316638e952bfe8361057381610b73565b6040518363ffffffff1660e01b815260040161059092919061136a565b6020604051808303816000875af11580156105af573d6000803e3d6000fd5b505050506040513d601f19601f820116820180604052508101906105d3919061138e565b92915050565b6105e1610b1c565b6105eb6000610b89565b565b6105f5610b1c565b6003828260405161060792919061135a565b9081526040519081900360200190205460ff1661063b5781816040516337d70afd60e11b8152600401610319929190611290565b6003828260405161064d92919061135a565b908152604051908190036020018120805460ff19169055610671908390839061135a565b604051908190038120907fb54b0481f674d73e0a7e0805771909ebd61fadc85286160239121febb142fabf90600090a25050565b6106ad610b1c565b60015460405163f2fde38b60e01b81526001600160a01b0383811660048301529091169063f2fde38b90602401600060405180830381600087803b1580156106f457600080fd5b505af1158015610708573d6000803e3d6000fd5b5050505050565b610717610b1c565b6001600160a01b03811661073e5760405163d92e233d60e01b815260040160405180910390fd5b6001600160a01b03811660009081526002602052604090205460ff16610782576040516309d0bb2d60e21b81526001600160a01b0382166004820152602401610319565b6001600160a01b038116600081815260026020526040808220805460ff19169055517f99a705a3c2c3339d0051f56b36a60fef91e30142c93353002617999f27aec4af9190a250565b6107d3610b1c565b600382826040516107e592919061135a565b9081526040519081900360200190205460ff161561081a578181604051638bf3b1f160e01b8152600401610319929190611290565b60016003838360405161082e92919061135a565b908152604051908190036020018120805492151560ff199093169290921790915561085c908390839061135a565b604051908190038120907f2cb4d732f179a7333da89a4da3f3f9a9cbe3f6d7ac090ab062c69c303da32ff790600090a25050565b610898610b1c565b6001600160a01b0381166108bf5760405163d92e233d60e01b815260040160405180910390fd5b6001600160a01b03811660009081526002602052604090205460ff161561090457604051630912922160e11b81526001600160a01b0382166004820152602401610319565b6001600160a01b038116600081815260026020526040808220805460ff19166001179055517fc031114b6ddff79d71c2554dbce316b1327bb3dad01c60b76d8e8b23ff27ea289190a250565b60006001600160a01b0388166109795760405163d92e233d60e01b815260040160405180910390fd5b831580159061098757504284105b156109a957828260405163019fcfdb60e31b8152600401610319929190611290565b60006109ca6103e58a8a8a8a8a60405160200161039c9594939291906113dd565b6001600160a01b03811660009081526002602052604090205490915060ff16610a115760405163579e40b960e11b81526001600160a01b0382166004820152602401610319565b60038484604051610a2392919061135a565b9081526040519081900360200190205460ff1615610a585783836040516314dbff3f60e31b8152600401610319929190611290565b600154604051637f2e6acd60e11b81526001600160a01b039091169063fe5cd59a90610a8e908c908c908c908c90600401611463565b6020604051808303816000875af1158015610aad573d6000803e3d6000fd5b505050506040513d601f19601f82011682018060405250810190610ad1919061138e565b9998505050505050505050565b610ae6610b1c565b6001600160a01b038116610b1057604051631e4fbdf760e01b815260006004820152602401610319565b610b1981610b89565b50565b6000546001600160a01b031633146105eb5760405163118cdaa760e01b8152336004820152602401610319565b600080600080610b598686610bd9565b925092509250610b698282610c26565b5090949350505050565b60606105d36001600160a01b0383166014610cdf565b600080546001600160a01b038381166001600160a01b0319831681178455604051919092169283917f8be0079c531659141344cd1fd0a4f28419497f9722a3daafe3b4186f6b6457e09190a35050565b60008060008351604103610c135760208401516040850151606086015160001a610c0588828585610e5f565b955095509550505050610c1f565b50508151600091506002905b9250925092565b6000826003811115610c3a57610c3a61149a565b03610c43575050565b6001826003811115610c5757610c5761149a565b03610c755760405163f645eedf60e01b815260040160405180910390fd5b6002826003811115610c8957610c8961149a565b03610caa5760405163fce698f760e01b815260048101829052602401610319565b6003826003811115610cbe57610cbe61149a565b03610322576040516335e2f38360e21b815260048101829052602401610319565b6060826000610cef8460026114c6565b610cfa9060026114dd565b67ffffffffffffffff811115610d1257610d12610f2e565b6040519080825280601f01601f191660200182016040528015610d3c576020820181803683370190505b509050600360fc1b81600081518110610d5757610d576114f0565b60200101906001600160f81b031916908160001a905350600f60fb1b81600181518110610d8657610d866114f0565b60200101906001600160f81b031916908160001a9053506000610daa8560026114c6565b610db59060016114dd565b90505b6001811115610e2d576f181899199a1a9b1b9c1cb0b131b232b360811b83600f1660108110610de957610de96114f0565b1a60f81b828281518110610dff57610dff6114f0565b60200101906001600160f81b031916908160001a90535060049290921c91610e2681611506565b9050610db8565b508115610e575760405163e22e27eb60e01b81526004810186905260248101859052604401610319565b949350505050565b600080807f7fffffffffffffffffffffffffffffff5d576e7357a4501ddfe92f46681b20a0841115610e9a5750600091506003905082610f24565b604080516000808252602082018084528a905260ff891692820192909252606081018790526080810186905260019060a0016020604051602081039080840390855afa158015610eee573d6000803e3d6000fd5b5050604051601f1901519150506001600160a01b038116610f1a57506000925060019150829050610f24565b9250600091508190505b9450945094915050565b634e487b7160e01b600052604160045260246000fd5b600067ffffffffffffffff80841115610f5f57610f5f610f2e565b604051601f8501601f19908116603f01168101908282118183101715610f8757610f87610f2e565b81604052809350858152868686011115610fa057600080fd5b858560208301376000602087830101525050509392505050565b600060208284031215610fcc57600080fd5b813567ffffffffffffffff811115610fe357600080fd5b8201601f81018413610ff457600080fd5b610e5784823560208401610f44565b6001600160a01b0381168114610b1957600080fd5b600082601f83011261102957600080fd5b61103883833560208501610f44565b9392505050565b60008083601f84011261105157600080fd5b50813567ffffffffffffffff81111561106957600080fd5b60208301915083602082850101111561108157600080fd5b9250929050565b6000806000806000608086880312156110a057600080fd5b85356110ab81611003565b9450602086013567ffffffffffffffff808211156110c857600080fd5b6110d489838a01611018565b95506040880135945060608801359150808211156110f157600080fd5b506110fe8882890161103f565b969995985093965092949392505050565b60006020828403121561112157600080fd5b813561103881611003565b6000806020838503121561113f57600080fd5b823567ffffffffffffffff81111561115657600080fd5b6111628582860161103f565b90969095509350505050565b600080600080600080600060a0888a03121561118957600080fd5b873561119481611003565b9650602088013567ffffffffffffffff808211156111b157600080fd5b6111bd8b838c01611018565b975060408a01359150808211156111d357600080fd5b818a0191508a601f8301126111e757600080fd5b8135818111156111f657600080fd5b8b60208260051b850101111561120b57600080fd5b6020830197508096505060608a0135945060808a013591508082111561123057600080fd5b5061123d8a828b0161103f565b989b979a50959850939692959293505050565b60005b8381101561126b578181015183820152602001611253565b50506000910152565b60008251611286818460208701611250565b9190910192915050565b60208152816020820152818360408301376000818301604090810191909152601f909201601f19160101919050565b600081518084526112d7816020860160208601611250565b601f01601f19169290920160200192915050565b60808152600061132860808301601e81527f417574686f72697a65204f4e434841494e4944206465706c6f796d656e740000602082015260400190565b6001600160a01b0386166020840152828103604084015261134981866112bf565b915050826060830152949350505050565b8183823760009101908152919050565b6001600160a01b0383168152604060208201819052600090610e57908301846112bf565b6000602082840312156113a057600080fd5b815161103881611003565b81835260006001600160fb1b038311156113c457600080fd5b8260051b80836020870137939093016020019392505050565b60a08152600061141a60a08301601e81527f417574686f72697a65204f4e434841494e4944206465706c6f796d656e740000602082015260400190565b6001600160a01b0388166020840152828103604084015261143b81886112bf565b905082810360608401526114508186886113ab565b9150508260808301529695505050505050565b6001600160a01b0385168152606060208201819052600090611487908301866112bf565b82810360408401526105248185876113ab565b634e487b7160e01b600052602160045260246000fd5b634e487b7160e01b600052601160045260246000fd5b80820281158282048414176105d3576105d36114b0565b808201808211156105d3576105d36114b0565b634e487b7160e01b600052603260045260246000fd5b600081611515576115156114b0565b50600019019056fea264697066735822122006b1bfc74ed116eafe4ae1dff036ab1b7fa5dff2d68bc72b376765018059a27864736f6c63430008180033",
  "linkReferences": {},
  "deployedLinkReferences": {}
}