{
  "_format": "hh-sol-artifact-1",
  "contractName": "IdentityRegistryStorage",
  "sourceName": "contracts/erc3643/registry/implementation/IdentityRegistryStorage.sol",
  "abi": [
    {
      "anonymous": false,
      "inputs": [
        {
          "indexed": true,
          "internalType": "address",
          "name": "_agent",
          "type": "address"
        }
      ],
      "name": "AgentAdded",
      "type": "event"
    },
    {
      "anonymous": false,
      "inputs": [
        {
          "indexed": true,
          "internalType": "address",
          "name": "_agent",
          "type": "address"
        }
      ],
      "name": "AgentRemoved",
      "type": "event"
    },
    {
      "anonymous": false,
      "inputs": [
        {
          "indexed": true,
          "internalType": "address",
          "name": "investorAddress",
          "type": "address"
        },
        {
          "indexed": true,
          "internalType": "uint16",
          "name": "country",
          "type": "uint16"
        }
      ],
      "name": "CountryModified",
      "type": "event"
    },
    {
      "anonymous": false,
      "inputs": [
        {
          "indexed": true,
          "internalType": "contract IIdentity",
          "name": "oldIdentity",
          "type": "address"
        },
        {
          "indexed": true,
          "internalType": "contract IIdentity",
          "name": "newIdentity",
          "type": "address"
        }
      ],
      "name": "IdentityModified",
      "type": "event"
    },
    {
      "anonymous": false,
      "inputs": [
        {
          "indexed": true,
          "internalType": "address",
          "name": "identityRegistry",
          "type": "address"
        }
      ],
      "name": "IdentityRegistryBound",
      "type": "event"
    },
    {
      "anonymous": false,
      "inputs": [
        {
          "indexed": true,
          "internalType": "address",
          "name": "identityRegistry",
          "type": "address"
        }
      ],
      "name": "IdentityRegistryUnbound",
      "type": "event"
    },
    {
      "anonymous": false,
      "inputs": [
        {
          "indexed": true,
          "internalType": "address",
          "name": "investorAddress",
          "type": "address"
        },
        {
          "indexed": true,
          "internalType": "contract IIdentity",
          "name": "identity",
          "type": "address"
        }
      ],
      "name": "IdentityStored",
      "type": "event"
    },
    {
      "anonymous": false,
      "inputs": [
        {
          "indexed": true,
          "internalType": "address",
          "name": "investorAddress",
          "type": "address"
        },
        {
          "indexed": true,
          "internalType": "contract IIdentity",
          "name": "identity",
          "type": "address"
        }
      ],
      "name": "IdentityUnstored",
      "type": "event"
    },
    {
      "anonymous": false,
      "inputs": [
        {
          "indexed": false,
          "internalType": "uint8",
          "name": "version",
          "type": "uint8"
        }
      ],
      "name": "Initialized",
      "type": "event"
    },
    {
      "anonymous": false,
      "inputs": [
        {
          "indexed": true,
          "internalType": "address",
          "name": "previousOwner",
          "type": "address"
        },
        {
          "indexed": true,
          "internalType": "address",
          "name": "newOwner",
          "type": "address"
        }
      ],
      "name": "OwnershipTransferred",
      "type": "event"
    },
    {
      "inputs": [
        {
          "internalType": "address",
          "name": "_agent",
          "type": "address"
        }
      ],
      "name": "addAgent",
      "outputs": [],
      "stateMutability": "nonpayable",
      "type": "function"
    },
    {
      "inputs": [
        {
          "internalType": "address",
          "name": "_userAddress",
          "type": "address"
        },
        {
          "internalType": "contract IIdentity",
          "name": "_identity",
          "type": "address"
        },
        {
          "internalType": "uint16",
          "name": "_country",
          "type": "uint16"
        }
      ],
      "name": "addIdentityToStorage",
      "outputs": [],
      "stateMutability": "nonpayable",
      "type": "function"
    },
    {
      "inputs": [
        {
          "internalType": "address",
          "name": "_identityRegistry",
          "type": "address"
        }
      ],
      "name": "bindIdentityRegistry",
      "outputs": [],
      "stateMutability": "nonpayable",
      "type": "function"
    },
    {
      "inputs": [],
      "name": "init",
      "outputs": [],
      "stateMutability": "nonpayable",
      "type": "function"
    },
    {
      "inputs": [
        {
          "internalType": "address",
          "name": "_agent",
          "type": "address"
        }
      ],
      "name": "isAgent",
      "outputs": [
        {
          "internalType": "bool",
          "name": "",
          "type": "bool"
        }
      ],
      "stateMutability": "view",
      "type": "function"
    },
    {
      "inputs": [],
      "name": "linkedIdentityRegistries",
      "outputs": [
        {
          "internalType": "address[]",
          "name": "",
          "type": "address[]"
        }
      ],
      "stateMutability": "view",
      "type": "function"
    },
    {
      "inputs": [
        {
          "internalType": "address",
          "name": "_userAddress",
          "type": "address"
        },
        {
          "internalType": "contract IIdentity",
          "name": "_identity",
          "type": "address"
        }
      ],
      "name": "modifyStoredIdentity",
      "outputs": [],
      "stateMutability": "nonpayable",
      "type": "function"
    },
    {
      "inputs": [
        {
          "internalType": "address",
          "name": "_userAddress",
          "type": "address"
        },
        {
          "internalType": "uint16",
          "name": "_country",
          "type": "uint16"
        }
      ],
      "name": "modifyStoredInvestorCountry",
      "outputs": [],
      "stateMutability": "nonpayable",
      "type": "function"
    },
    {
      "inputs": [],
      "name": "owner",
      "outputs": [
        {
          "internalType": "address",
          "name": "",
          "type": "address"
        }
      ],
      "stateMutability": "view",
      "type": "function"
    },
    {
      "inputs": [
        {
          "internalType": "address",
          "name": "_agent",
          "type": "address"
        }
      ],
      "name": "removeAgent",
      "outputs": [],
      "stateMutability": "nonpayable",
      "type": "function"
    },
    {
      "inputs": [
        {
          "internalType": "address",
          "name": "_userAddress",
          "type": "address"
        }
      ],
      "name": "removeIdentityFromStorage",
      "outputs": [],
      "stateMutability": "nonpayable",
      "type": "function"
    },
    {
      "inputs": [],
      "name": "renounceOwnership",
      "outputs": [],
      "stateMutability": "nonpayable",
      "type": "function"
    },
    {
      "inputs": [
        {
          "internalType": "address",
          "name": "_userAddress",
          "type": "address"
        }
      ],
      "name": "storedIdentity",
      "outputs": [
        {
          "internalType": "contract IIdentity",
          "name": "",
          "type": "address"
        }
      ],
      "stateMutability": "view",
      "type": "function"
    },
    {
      "inputs": [
        {
          "internalType": "address",
          "name": "_userAddress",
          "type": "address"
        }
      ],
      "name": "storedInvestorCountry",
      "outputs": [
        {
          "internalType": "uint16",
          "name": "",
          "type": "uint16"
        }
      ],
      "stateMutability": "view",
      "type": "function"
    },
    {
      "inputs": [
        {
          "internalType": "address",
          "name": "newOwner",
          "type": "address"
        }
      ],
      "name": "transferOwnership",
      "outputs": [],
      "stateMutability": "nonpayable",
      "type": "function"
    },
    {
      "inputs": [
        {
          "internalType": "address",
          "name": "_identityRegistry",
          "type": "address"
        }
      ],
      "name": "unbindIdentityRegistry",
      "outputs": [],
      "stateMutability": "nonpayable",
      "type": "function"
    }
  ],
  "bytecode": "0x608060405234801561001057600080fd5b5061118b806100206000396000f3fe608060405234801561001057600080fd5b50600436106101005760003560e01c806397a6278e11610097578063cf191bcd11610066578063cf191bcd1461025a578063e1c7392a1461026d578063e805cf8614610275578063f2fde38b1461028857600080fd5b806397a6278e1461020c5780639f3418d51461021f578063a53410dd14610232578063bf9eb9591461024557600080fd5b80637988d3a5116100d35780637988d3a51461019157806384e79842146101d55780638da5cb5b146101e857806397a012f7146101f957600080fd5b80631ffbb06414610105578063690a49f91461012d578063715018a614610142578063727e13bc1461014a575b600080fd5b610118610113366004610ecb565b61029b565b60405190151581526020015b60405180910390f35b61014061013b366004610ecb565b6102ae565b005b6101406103bf565b61017e610158366004610ecb565b6001600160a01b0316600090815260666020526040902054600160a01b900461ffff1690565b60405161ffff9091168152602001610124565b6101bd61019f366004610ecb565b6001600160a01b039081166000908152606660205260409020541690565b6040516001600160a01b039091168152602001610124565b6101406101e3366004610ecb565b6103d3565b6033546001600160a01b03166101bd565b610140610207366004610ecb565b610443565b61014061021a366004610ecb565b6105f6565b61014061022d366004610f06565b610666565b610140610240366004610f3b565b61074b565b61024d610871565b6040516101249190610f82565b610140610268366004610ecb565b6108d3565b6101406109ae565b610140610283366004610fcf565b610abf565b610140610296366004610ecb565b610bb9565b60006102a8606583610c2f565b92915050565b6001600160a01b0381166102dd5760405162461bcd60e51b81526004016102d490611008565b60405180910390fd5b60675461012c1161033e5760405162461bcd60e51b815260206004820152602560248201527f63616e6e6f742062696e64206d6f7265207468616e2033303020495220746f20604482015264312049525360d81b60648201526084016102d4565b610347816103d3565b6067805460018101825560009182527f9787eeb91fe3101235e4a76063c7023ecb40f923f97916639c598592fa30d6ae0180546001600160a01b0319166001600160a01b03841690811790915560405190917f500c250171aa20e861b680f93502547b9d436eda7d4c537fc360db6e0c6eedfb91a250565b6103c7610cb2565b6103d16000610d0c565b565b6103db610cb2565b6001600160a01b0381166104015760405162461bcd60e51b81526004016102d490611008565b61040c606582610d5e565b6040516001600160a01b038216907ff68e73cec97f2d70aa641fb26e87a4383686e2efacb648f2165aeb02ac562ec590600090a250565b6001600160a01b0381166104695760405162461bcd60e51b81526004016102d490611008565b6067546104b85760405162461bcd60e51b815260206004820152601f60248201527f6964656e74697479207265676973747279206973206e6f742073746f7265640060448201526064016102d4565b60675460005b818110156105b457826001600160a01b0316606782815481106104e3576104e361103f565b6000918252602090912001546001600160a01b0316036105ac57606761050a600184611055565b8154811061051a5761051a61103f565b600091825260209091200154606780546001600160a01b0390921691839081106105465761054661103f565b9060005260206000200160006101000a8154816001600160a01b0302191690836001600160a01b03160217905550606780548061058557610585611076565b600082815260209020810160001990810180546001600160a01b03191690550190556105b4565b6001016104be565b506105be826105f6565b6040516001600160a01b038316907f51f353eb5801583fdf2706e43c045b62fdf6b1566820b349390616363ecf72c990600090a25050565b6105fe610cb2565b6001600160a01b0381166106245760405162461bcd60e51b81526004016102d490611008565b61062f606582610dda565b6040516001600160a01b038216907fed9c8ad8d5a0a66898ea49d2956929c93ae2e8bd50281b2ed897c5d1a6737e0b90600090a250565b61066f3361029b565b61068b5760405162461bcd60e51b81526004016102d49061108c565b6001600160a01b0382166106b15760405162461bcd60e51b81526004016102d490611008565b6001600160a01b03828116600090815260666020526040902054166106e85760405162461bcd60e51b81526004016102d4906110da565b6001600160a01b038216600081815260666020526040808220805461ffff60a01b1916600160a01b61ffff87169081029190911790915590519092917f20965fcdc6eed7ae398065b40ece4e732ba667992ca819fc54e80e9f2047c4cf91a35050565b6107543361029b565b6107705760405162461bcd60e51b81526004016102d49061108c565b6001600160a01b0383161580159061079057506001600160a01b03821615155b6107ac5760405162461bcd60e51b81526004016102d490611008565b6001600160a01b03838116600090815260666020526040902054161561080d5760405162461bcd60e51b8152602060048201526016602482015275616464726573732073746f72656420616c726561647960501b60448201526064016102d4565b6001600160a01b0383811660008181526066602052604080822080549487166001600160b01b03199095168517600160a01b61ffff881602179055517e30dea7e9c9afaa2e3c9810f2fc9b5181f1bad74ca5a8db85f746a33585e7479190a3505050565b606060678054806020026020016040519081016040528092919081815260200182805480156108c957602002820191906000526020600020905b81546001600160a01b031681526001909101906020018083116108ab575b5050505050905090565b6108dc3361029b565b6108f85760405162461bcd60e51b81526004016102d49061108c565b6001600160a01b03811661091e5760405162461bcd60e51b81526004016102d490611008565b6001600160a01b03818116600090815260666020526040902054166109555760405162461bcd60e51b81526004016102d4906110da565b6001600160a01b0380821660008181526066602052604080822080546001600160b01b0319811690915590519316928392917fca6a4c3370b859312246e7f086284076e557997e10d856b716c23ab67067790b91a35050565b600054610100900460ff16158080156109ce5750600054600160ff909116105b806109e85750303b1580156109e8575060005460ff166001145b610a4b5760405162461bcd60e51b815260206004820152602e60248201527f496e697469616c697a61626c653a20636f6e747261637420697320616c72656160448201526d191e481a5b9a5d1a585b1a5e995960921b60648201526084016102d4565b6000805460ff191660011790558015610a6e576000805461ff0019166101001790555b610a76610e5c565b8015610abc576000805461ff0019169055604051600181527f7f26b83ff96e1f2b6a682f133852f6798a09c465da95921460cefb38474024989060200160405180910390a15b50565b610ac83361029b565b610ae45760405162461bcd60e51b81526004016102d49061108c565b6001600160a01b03821615801590610b0457506001600160a01b03811615155b610b205760405162461bcd60e51b81526004016102d490611008565b6001600160a01b0382811660009081526066602052604090205416610b575760405162461bcd60e51b81526004016102d4906110da565b6001600160a01b0380831660009081526066602052604080822080548585166001600160a01b031982168117909255915191909316929183917f556ce885dfcea52155c773f1ed2e58781c51945c13030ab8f793c61f51d1b8089190a3505050565b610bc1610cb2565b6001600160a01b038116610c265760405162461bcd60e51b815260206004820152602660248201527f4f776e61626c653a206e6577206f776e657220697320746865207a65726f206160448201526564647265737360d01b60648201526084016102d4565b610abc81610d0c565b60006001600160a01b038216610c925760405162461bcd60e51b815260206004820152602260248201527f526f6c65733a206163636f756e7420697320746865207a65726f206164647265604482015261737360f01b60648201526084016102d4565b506001600160a01b03166000908152602091909152604090205460ff1690565b6033546001600160a01b031633146103d15760405162461bcd60e51b815260206004820181905260248201527f4f776e61626c653a2063616c6c6572206973206e6f7420746865206f776e657260448201526064016102d4565b603380546001600160a01b038381166001600160a01b0319831681179093556040519116919082907f8be0079c531659141344cd1fd0a4f28419497f9722a3daafe3b4186f6b6457e090600090a35050565b610d688282610c2f565b15610db55760405162461bcd60e51b815260206004820152601f60248201527f526f6c65733a206163636f756e7420616c72656164792068617320726f6c650060448201526064016102d4565b6001600160a01b0316600090815260209190915260409020805460ff19166001179055565b610de48282610c2f565b610e3a5760405162461bcd60e51b815260206004820152602160248201527f526f6c65733a206163636f756e7420646f6573206e6f74206861766520726f6c6044820152606560f81b60648201526084016102d4565b6001600160a01b0316600090815260209190915260409020805460ff19169055565b600054610100900460ff16610e835760405162461bcd60e51b81526004016102d49061110a565b6103d1600054610100900460ff16610ead5760405162461bcd60e51b81526004016102d49061110a565b6103d133610d0c565b6001600160a01b0381168114610abc57600080fd5b600060208284031215610edd57600080fd5b8135610ee881610eb6565b9392505050565b803561ffff81168114610f0157600080fd5b919050565b60008060408385031215610f1957600080fd5b8235610f2481610eb6565b9150610f3260208401610eef565b90509250929050565b600080600060608486031215610f5057600080fd5b8335610f5b81610eb6565b92506020840135610f6b81610eb6565b9150610f7960408501610eef565b90509250925092565b6020808252825182820181905260009190848201906040850190845b81811015610fc35783516001600160a01b031683529284019291840191600101610f9e565b50909695505050505050565b60008060408385031215610fe257600080fd5b8235610fed81610eb6565b91506020830135610ffd81610eb6565b809150509250929050565b6020808252601f908201527f696e76616c696420617267756d656e74202d207a65726f206164647265737300604082015260600190565b634e487b7160e01b600052603260045260246000fd5b818103818111156102a857634e487b7160e01b600052601160045260246000fd5b634e487b7160e01b600052603160045260246000fd5b6020808252602e908201527f4167656e74526f6c653a2063616c6c657220646f6573206e6f7420686176652060408201526d746865204167656e7420726f6c6560901b606082015260800190565b6020808252601690820152751859191c995cdcc81b9bdd081cdd1bdc9959081e595d60521b604082015260600190565b6020808252602b908201527f496e697469616c697a61626c653a20636f6e7472616374206973206e6f74206960408201526a6e697469616c697a696e6760a81b60608201526080019056fea2646970667358221220f297742288f6f6953343751d8aa2d14ba69e2333effadefe4d1e7f5d597c0ed164736f6c63430008180033",
  "linkReferences": {},
  "deployedLinkReferences": {}
}