{
  "_format": "hh-sol-artifact-1",
  "contractName": "IdentityRegistry",
  "sourceName": "contracts/erc3643/registry/implementation/IdentityRegistry.sol",
  "abi": [
    {
      "inputs": [],
      "name": "InvalidInitialization",
      "type": "error"
    },
    {
      "inputs": [],
      "name": "NotInitializing",
      "type": "error"
    },
    {
      "inputs": [
        {
          "internalType": "address",
          "name": "owner",
          "type": "address"
        }
      ],
      "name": "OwnableInvalidOwner",
      "type": "error"
    },
    {
      "inputs": [
        {
          "internalType": "address",
          "name": "account",
          "type": "address"
        }
      ],
      "name": "OwnableUnauthorizedAccount",
      "type": "error"
    },
    {
      "anonymous": false,
      "inputs": [
        {
          "indexed": true,
          "internalType": "address",
          "name": "_agent",
          "type": "address"
        }
      ],
      "name": "AgentAdded",
      "type": "event"
    },
    {
      "anonymous": false,
      "inputs": [
        {
          "indexed": true,
          "internalType": "address",
          "name": "_agent",
          "type": "address"
        }
      ],
      "name": "AgentRemoved",
      "type": "event"
    },
    {
      "anonymous": false,
      "inputs": [
        {
          "indexed": true,
          "internalType": "address",
          "name": "claimTopicsRegistry",
          "type": "address"
        }
      ],
      "name": "ClaimTopicsRegistrySet",
      "type": "event"
    },
    {
      "anonymous": false,
      "inputs": [
        {
          "indexed": true,
          "internalType": "address",
          "name": "investorAddress",
          "type": "address"
        },
        {
          "indexed": true,
          "internalType": "uint16",
          "name": "country",
          "type": "uint16"
        }
      ],
      "name": "CountryUpdated",
      "type": "event"
    },
    {
      "anonymous": false,
      "inputs": [
        {
          "indexed": true,
          "internalType": "address",
          "name": "investorAddress",
          "type": "address"
        },
        {
          "indexed": true,
          "internalType": "contract IIdentity",
          "name": "identity",
          "type": "address"
        }
      ],
      "name": "IdentityRegistered",
      "type": "event"
    },
    {
      "anonymous": false,
      "inputs": [
        {
          "indexed": true,
          "internalType": "address",
          "name": "investorAddress",
          "type": "address"
        },
        {
          "indexed": true,
          "internalType": "contract IIdentity",
          "name": "identity",
          "type": "address"
        }
      ],
      "name": "IdentityRemoved",
      "type": "event"
    },
    {
      "anonymous": false,
      "inputs": [
        {
          "indexed": true,
          "internalType": "address",
          "name": "identityStorage",
          "type": "address"
        }
      ],
      "name": "IdentityStorageSet",
      "type": "event"
    },
    {
      "anonymous": false,
      "inputs": [
        {
          "indexed": true,
          "internalType": "contract IIdentity",
          "name": "oldIdentity",
          "type": "address"
        },
        {
          "indexed": true,
          "internalType": "contract IIdentity",
          "name": "newIdentity",
          "type": "address"
        }
      ],
      "name": "IdentityUpdated",
      "type": "event"
    },
    {
      "anonymous": false,
      "inputs": [
        {
          "indexed": false,
          "internalType": "uint64",
          "name": "version",
          "type": "uint64"
        }
      ],
      "name": "Initialized",
      "type": "event"
    },
    {
      "anonymous": false,
      "inputs": [
        {
          "indexed": true,
          "internalType": "address",
          "name": "previousOwner",
          "type": "address"
        },
        {
          "indexed": true,
          "internalType": "address",
          "name": "newOwner",
          "type": "address"
        }
      ],
      "name": "OwnershipTransferred",
      "type": "event"
    },
    {
      "anonymous": false,
      "inputs": [
        {
          "indexed": true,
          "internalType": "address",
          "name": "trustedIssuersRegistry",
          "type": "address"
        }
      ],
      "name": "TrustedIssuersRegistrySet",
      "type": "event"
    },
    {
      "inputs": [
        {
          "internalType": "address",
          "name": "_agent",
          "type": "address"
        }
      ],
      "name": "addAgent",
      "outputs": [],
      "stateMutability": "nonpayable",
      "type": "function"
    },
    {
      "inputs": [
        {
          "internalType": "address[]",
          "name": "_userAddresses",
          "type": "address[]"
        },
        {
          "internalType": "contract IIdentity[]",
          "name": "_identities",
          "type": "address[]"
        },
        {
          "internalType": "uint16[]",
          "name": "_countries",
          "type": "uint16[]"
        }
      ],
      "name": "batchRegisterIdentity",
      "outputs": [],
      "stateMutability": "nonpayable",
      "type": "function"
    },
    {
      "inputs": [
        {
          "internalType": "address",
          "name": "_userAddress",
          "type": "address"
        }
      ],
      "name": "contains",
      "outputs": [
        {
          "internalType": "bool",
          "name": "",
          "type": "bool"
        }
      ],
      "stateMutability": "view",
      "type": "function"
    },
    {
      "inputs": [
        {
          "internalType": "address",
          "name": "_userAddress",
          "type": "address"
        }
      ],
      "name": "deleteIdentity",
      "outputs": [],
      "stateMutability": "nonpayable",
      "type": "function"
    },
    {
      "inputs": [
        {
          "internalType": "address",
          "name": "_userAddress",
          "type": "address"
        }
      ],
      "name": "identity",
      "outputs": [
        {
          "internalType": "contract IIdentity",
          "name": "",
          "type": "address"
        }
      ],
      "stateMutability": "view",
      "type": "function"
    },
    {
      "inputs": [],
      "name": "identityStorage",
      "outputs": [
        {
          "internalType": "contract IIdentityRegistryStorage",
          "name": "",
          "type": "address"
        }
      ],
      "stateMutability": "view",
      "type": "function"
    },
    {
      "inputs": [
        {
          "internalType": "address",
          "name": "_trustedIssuersRegistry",
          "type": "address"
        },
        {
          "internalType": "address",
          "name": "_claimTopicsRegistry",
          "type": "address"
        },
        {
          "internalType": "address",
          "name": "_identityStorage",
          "type": "address"
        }
      ],
      "name": "init",
      "outputs": [],
      "stateMutability": "nonpayable",
      "type": "function"
    },
    {
      "inputs": [
        {
          "internalType": "address",
          "name": "_userAddress",
          "type": "address"
        }
      ],
      "name": "investorCountry",
      "outputs": [
        {
          "internalType": "uint16",
          "name": "",
          "type": "uint16"
        }
      ],
      "stateMutability": "view",
      "type": "function"
    },
    {
      "inputs": [
        {
          "internalType": "address",
          "name": "_agent",
          "type": "address"
        }
      ],
      "name": "isAgent",
      "outputs": [
        {
          "internalType": "bool",
          "name": "",
          "type": "bool"
        }
      ],
      "stateMutability": "view",
      "type": "function"
    },
    {
      "inputs": [
        {
          "internalType": "address",
          "name": "_userAddress",
          "type": "address"
        }
      ],
      "name": "isVerified",
      "outputs": [
        {
          "internalType": "bool",
          "name": "",
          "type": "bool"
        }
      ],
      "stateMutability": "view",
      "type": "function"
    },
    {
      "inputs": [],
      "name": "issuersRegistry",
      "outputs": [
        {
          "internalType": "contract ITrustedIssuersRegistry",
          "name": "",
          "type": "address"
        }
      ],
      "stateMutability": "view",
      "type": "function"
    },
    {
      "inputs": [],
      "name": "owner",
      "outputs": [
        {
          "internalType": "address",
          "name": "",
          "type": "address"
        }
      ],
      "stateMutability": "view",
      "type": "function"
    },
    {
      "inputs": [
        {
          "internalType": "address",
          "name": "_userAddress",
          "type": "address"
        },
        {
          "internalType": "contract IIdentity",
          "name": "_identity",
          "type": "address"
        },
        {
          "internalType": "uint16",
          "name": "_country",
          "type": "uint16"
        }
      ],
      "name": "registerIdentity",
      "outputs": [],
      "stateMutability": "nonpayable",
      "type": "function"
    },
    {
      "inputs": [
        {
          "internalType": "address",
          "name": "_agent",
          "type": "address"
        }
      ],
      "name": "removeAgent",
      "outputs": [],
      "stateMutability": "nonpayable",
      "type": "function"
    },
    {
      "inputs": [],
      "name": "renounceOwnership",
      "outputs": [],
      "stateMutability": "nonpayable",
      "type": "function"
    },
    {
      "inputs": [
        {
          "internalType": "address",
          "name": "_claimTopicsRegistry",
          "type": "address"
        }
      ],
      "name": "setClaimTopicsRegistry",
      "outputs": [],
      "stateMutability": "nonpayable",
      "type": "function"
    },
    {
      "inputs": [
        {
          "internalType": "address",
          "name": "_identityRegistryStorage",
          "type": "address"
        }
      ],
      "name": "setIdentityRegistryStorage",
      "outputs": [],
      "stateMutability": "nonpayable",
      "type": "function"
    },
    {
      "inputs": [
        {
          "internalType": "address",
          "name": "_trustedIssuersRegistry",
          "type": "address"
        }
      ],
      "name": "setTrustedIssuersRegistry",
      "outputs": [],
      "stateMutability": "nonpayable",
      "type": "function"
    },
    {
      "inputs": [],
      "name": "topicsRegistry",
      "outputs": [
        {
          "internalType": "contract IClaimTopicsRegistry",
          "name": "",
          "type": "address"
        }
      ],
      "stateMutability": "view",
      "type": "function"
    },
    {
      "inputs": [
        {
          "internalType": "address",
          "name": "newOwner",
          "type": "address"
        }
      ],
      "name": "transferOwnership",
      "outputs": [],
      "stateMutability": "nonpayable",
      "type": "function"
    },
    {
      "inputs": [
        {
          "internalType": "address",
          "name": "_userAddress",
          "type": "address"
        },
        {
          "internalType": "uint16",
          "name": "_country",
          "type": "uint16"
        }
      ],
      "name": "updateCountry",
      "outputs": [],
      "stateMutability": "nonpayable",
      "type": "function"
    },
    {
      "inputs": [
        {
          "internalType": "address",
          "name": "_userAddress",
          "type": "address"
        },
        {
          "internalType": "contract IIdentity",
          "name": "_identity",
          "type": "address"
        }
      ],
      "name": "updateIdentity",
      "outputs": [],
      "stateMutability": "nonpayable",
      "type": "function"
    }
  ],
  "bytecode": "0x608060405234801561001057600080fd5b50611a9c806100206000396000f3fe608060405234801561001057600080fd5b50600436106101425760003560e01c806384e79842116100b8578063b4f3fcb71161007c578063b4f3fcb7146102c5578063b9209e33146102d6578063e744d789146102e9578063f0eb5e54146102fc578063f11abfd81461030f578063f2fde38b1461032057600080fd5b806384e79842146102495780638da5cb5b1461025c5780638e098ca11461028c57806397a6278e1461029f578063a8d29d1d146102b257600080fd5b8063454a03e01161010a578063454a03e0146101cf5780635dbe47e8146101e2578063653dc9f1146101f5578063670af6a914610208578063715018a61461021b5780637e42683b1461022357600080fd5b8063184b9559146101475780631ffbb0641461015c57806326d941ae146101845780633b239a7f146101975780633b3e12f4146101aa575b600080fd5b61015a6101553660046113ba565b610333565b005b61016f61016a366004611405565b61056a565b60405190151581526020015b60405180910390f35b61015a610192366004611405565b61057c565b61015a6101a5366004611439565b6105ce565b6001546001600160a01b03165b6040516001600160a01b03909116815260200161017b565b61015a6101dd366004611472565b61069a565b61016f6101f0366004611405565b61076d565b61015a6102033660046114fe565b610797565b61015a610216366004611405565b61082b565b61015a61087d565b610236610231366004611405565b610891565b60405161ffff909116815260200161017b565b61015a610257366004611405565b610900565b7f9016d09d72d40fdae2fd8ceac6b6234c7706214fd39c1cd1e609a0528c199300546001600160a01b03166101b7565b61015a61029a366004611598565b610970565b61015a6102ad366004611405565b610a46565b61015a6102c0366004611405565b610ab6565b6002546001600160a01b03166101b7565b61016f6102e4366004611405565b610b83565b61015a6102f7366004611405565b610ff7565b6101b761030a366004611405565b611049565b6003546001600160a01b03166101b7565b61015a61032e366004611405565b6110b8565b7ff0c57e16840df040f15088dc2f81fe391c3923bec73e23a9662efc9c229c6a008054600160401b810460ff16159067ffffffffffffffff166000811580156103795750825b905060008267ffffffffffffffff1660011480156103965750303b155b9050811580156103a4575080155b156103c25760405163f92ee8a960e01b815260040160405180910390fd5b845467ffffffffffffffff1916600117855583156103ec57845460ff60401b1916600160401b1785555b6001600160a01b0388161580159061040c57506001600160a01b03871615155b801561042057506001600160a01b03861615155b6104455760405162461bcd60e51b815260040161043c906115c6565b60405180910390fd5b600180546001600160a01b03808a166001600160a01b03199283168117909355600280548c831690841617905560038054918a16919092161790556040517f7170bf15b246e880b2369cd7c67d057760d8a35149e8c64dde91efa22bcc76d090600090a26040516001600160a01b038916907f1b98cb79e6f73020175fe87333f1b91ad6a881519c0afe30340c2599b2b4bde090600090a26040516001600160a01b038716907f2fa8b95c1db7afe99e3398f3792f008135cedc1fa26b0bb2ecd2352cd166d53c90600090a261051a336110f6565b831561056057845460ff60401b19168555604051600181527fc7f505b2f371ae2175ee4913f4499e1f2633a7b5936321eed1cdaeb6115181d29060200160405180910390a15b5050505050505050565b60006105768183611107565b92915050565b61058461118a565b600380546001600160a01b0319166001600160a01b0383169081179091556040517f2fa8b95c1db7afe99e3398f3792f008135cedc1fa26b0bb2ecd2352cd166d53c90600090a250565b6105d73361056a565b6105f35760405162461bcd60e51b815260040161043c906115fd565b600354604051639f3418d560e01b81526001600160a01b03848116600483015261ffff8416602483015290911690639f3418d590604401600060405180830381600087803b15801561064457600080fd5b505af1158015610658573d6000803e3d6000fd5b505060405161ffff841692506001600160a01b03851691507f04ed3b726495c2dca1ff1215d9ca54e1a4030abb5e82b0f6ce55702416cee85390600090a35050565b6106a33361056a565b6106bf5760405162461bcd60e51b815260040161043c906115fd565b60035460405163a53410dd60e01b81526001600160a01b038581166004830152848116602483015261ffff841660448301529091169063a53410dd90606401600060405180830381600087803b15801561071857600080fd5b505af115801561072c573d6000803e3d6000fd5b50506040516001600160a01b038086169350861691507f6ae73635c50d24a45af6fbd5e016ac4bed179addbc8bf24e04ff0fcc6d33af1990600090a3505050565b60008061077983611049565b6001600160a01b03160361078f57506000919050565b506001919050565b60005b858110156108225761081a8787838181106107b7576107b761164b565b90506020020160208101906107cc9190611405565b8686848181106107de576107de61164b565b90506020020160208101906107f39190611405565b8585858181106108055761080561164b565b90506020020160208101906101dd9190611661565b60010161079a565b50505050505050565b61083361118a565b600180546001600160a01b0319166001600160a01b0383169081179091556040517f7170bf15b246e880b2369cd7c67d057760d8a35149e8c64dde91efa22bcc76d090600090a250565b61088561118a565b61088f60006111e5565b565b600354604051631c9f84ef60e21b81526001600160a01b038381166004830152600092169063727e13bc90602401602060405180830381865afa1580156108dc573d6000803e3d6000fd5b505050506040513d601f19601f82011682018060405250810190610576919061167e565b61090861118a565b6001600160a01b03811661092e5760405162461bcd60e51b815260040161043c906115c6565b610939600082611256565b6040516001600160a01b038216907ff68e73cec97f2d70aa641fb26e87a4383686e2efacb648f2165aeb02ac562ec590600090a250565b6109793361056a565b6109955760405162461bcd60e51b815260040161043c906115fd565b60006109a083611049565b600354604051637402e7c360e11b81526001600160a01b038681166004830152858116602483015292935091169063e805cf8690604401600060405180830381600087803b1580156109f157600080fd5b505af1158015610a05573d6000803e3d6000fd5b50506040516001600160a01b038086169350841691507fe98082932c8056a0f514da9104e4a66bc2cbaef102ad59d90c4b24220ebf601090600090a3505050565b610a4e61118a565b6001600160a01b038116610a745760405162461bcd60e51b815260040161043c906115c6565b610a7f6000826112d2565b6040516001600160a01b038216907fed9c8ad8d5a0a66898ea49d2956929c93ae2e8bd50281b2ed897c5d1a6737e0b90600090a250565b610abf3361056a565b610adb5760405162461bcd60e51b815260040161043c906115fd565b6000610ae682611049565b60035460405163cf191bcd60e01b81526001600160a01b03858116600483015292935091169063cf191bcd90602401600060405180830381600087803b158015610b2f57600080fd5b505af1158015610b43573d6000803e3d6000fd5b50506040516001600160a01b038085169350851691507f59d6590e225b81befe259af056324092801080acbb7feab310eb34678871f32790600090a35050565b600080610b8f83611049565b6001600160a01b031603610ba557506000919050565b600154604080516337c2758160e21b815290516000926001600160a01b03169163df09d60491600480830192869291908290030181865afa158015610bee573d6000803e3d6000fd5b505050506040513d6000823e601f3d908101601f19168201604052610c169190810190611706565b90508051600003610c2a5750600192915050565b600080600060608060005b8651811015610fe85760025487516000916001600160a01b0316906352c111d1908a9085908110610c6857610c6861164b565b60200260200101516040518263ffffffff1660e01b8152600401610c8e91815260200190565b600060405180830381865afa158015610cab573d6000803e3d6000fd5b505050506040513d6000823e601f3d908101601f19168201604052610cd3919081019061179c565b90508051600003610cee575060009998505050505050505050565b6000815167ffffffffffffffff811115610d0a57610d0a61169b565b604051908082528060200260200182016040528015610d33578160200160208202803683370190505b50905060005b8251811015610dd657828181518110610d5457610d5461164b565b60200260200101518a8581518110610d6e57610d6e61164b565b6020026020010151604051602001610d9b9291906001600160a01b03929092168252602082015260400190565b60405160208183030381529060405280519060200120828281518110610dc357610dc361164b565b6020908102919091010152600101610d39565b5060005b8151811015610fdd57610dec8c611049565b6001600160a01b031663c9100bcb838381518110610e0c57610e0c61164b565b60200260200101516040518263ffffffff1660e01b8152600401610e3291815260200190565b600060405180830381865afa158015610e4f573d6000803e3d6000fd5b505050506040513d6000823e601f3d908101601f19168201604052610e7791908101906118be565b508e51949d50929b50909950975095508a9085908110610e9957610e9961164b565b60200260200101518903610fa557866001600160a01b031663c0969a6e610ebf8e611049565b8c8781518110610ed157610ed161164b565b602002602001015189896040518563ffffffff1660e01b8152600401610efa94939291906119ac565b602060405180830381865afa925050508015610f33575060408051601f3d908101601f19168201909252610f30918101906119e5565b60015b610f625760018251610f459190611a1d565b8103610f5d575060009b9a5050505050505050505050565b610fcb565b8015610f6d57825191505b80158015610f87575060018351610f849190611a1d565b82145b15610f9f575060009c9b505050505050505050505050565b50610fcb565b60018251610fb39190611a1d565b8103610fcb575060009b9a5050505050505050505050565b80610fd581611a30565b915050610dda565b505050600101610c35565b50600198975050505050505050565b610fff61118a565b600280546001600160a01b0319166001600160a01b0383169081179091556040517f1b98cb79e6f73020175fe87333f1b91ad6a881519c0afe30340c2599b2b4bde090600090a250565b600354604051637988d3a560e01b81526001600160a01b0383811660048301526000921690637988d3a590602401602060405180830381865afa158015611094573d6000803e3d6000fd5b505050506040513d601f19601f820116820180604052508101906105769190611a49565b6110c061118a565b6001600160a01b0381166110ea57604051631e4fbdf760e01b81526000600482015260240161043c565b6110f3816111e5565b50565b6110fe611354565b6110f38161139d565b60006001600160a01b03821661116a5760405162461bcd60e51b815260206004820152602260248201527f526f6c65733a206163636f756e7420697320746865207a65726f206164647265604482015261737360f01b606482015260840161043c565b506001600160a01b03166000908152602091909152604090205460ff1690565b336111bc7f9016d09d72d40fdae2fd8ceac6b6234c7706214fd39c1cd1e609a0528c199300546001600160a01b031690565b6001600160a01b03161461088f5760405163118cdaa760e01b815233600482015260240161043c565b7f9016d09d72d40fdae2fd8ceac6b6234c7706214fd39c1cd1e609a0528c19930080546001600160a01b031981166001600160a01b03848116918217845560405192169182907f8be0079c531659141344cd1fd0a4f28419497f9722a3daafe3b4186f6b6457e090600090a3505050565b6112608282611107565b156112ad5760405162461bcd60e51b815260206004820152601f60248201527f526f6c65733a206163636f756e7420616c72656164792068617320726f6c6500604482015260640161043c565b6001600160a01b0316600090815260209190915260409020805460ff19166001179055565b6112dc8282611107565b6113325760405162461bcd60e51b815260206004820152602160248201527f526f6c65733a206163636f756e7420646f6573206e6f74206861766520726f6c6044820152606560f81b606482015260840161043c565b6001600160a01b0316600090815260209190915260409020805460ff19169055565b7ff0c57e16840df040f15088dc2f81fe391c3923bec73e23a9662efc9c229c6a0054600160401b900460ff1661088f57604051631afcd79f60e31b815260040160405180910390fd5b6110c0611354565b6001600160a01b03811681146110f357600080fd5b6000806000606084860312156113cf57600080fd5b83356113da816113a5565b925060208401356113ea816113a5565b915060408401356113fa816113a5565b809150509250925092565b60006020828403121561141757600080fd5b8135611422816113a5565b9392505050565b61ffff811681146110f357600080fd5b6000806040838503121561144c57600080fd5b8235611457816113a5565b9150602083013561146781611429565b809150509250929050565b60008060006060848603121561148757600080fd5b8335611492816113a5565b925060208401356114a2816113a5565b915060408401356113fa81611429565b60008083601f8401126114c457600080fd5b50813567ffffffffffffffff8111156114dc57600080fd5b6020830191508360208260051b85010111156114f757600080fd5b9250929050565b6000806000806000806060878903121561151757600080fd5b863567ffffffffffffffff8082111561152f57600080fd5b61153b8a838b016114b2565b9098509650602089013591508082111561155457600080fd5b6115608a838b016114b2565b9096509450604089013591508082111561157957600080fd5b5061158689828a016114b2565b979a9699509497509295939492505050565b600080604083850312156115ab57600080fd5b82356115b6816113a5565b91506020830135611467816113a5565b6020808252601f908201527f696e76616c696420617267756d656e74202d207a65726f206164647265737300604082015260600190565b6020808252602e908201527f4167656e74526f6c653a2063616c6c657220646f6573206e6f7420686176652060408201526d746865204167656e7420726f6c6560901b606082015260800190565b634e487b7160e01b600052603260045260246000fd5b60006020828403121561167357600080fd5b813561142281611429565b60006020828403121561169057600080fd5b815161142281611429565b634e487b7160e01b600052604160045260246000fd5b604051601f8201601f1916810167ffffffffffffffff811182821017156116da576116da61169b565b604052919050565b600067ffffffffffffffff8211156116fc576116fc61169b565b5060051b60200190565b6000602080838503121561171957600080fd5b825167ffffffffffffffff81111561173057600080fd5b8301601f8101851361174157600080fd5b805161175461174f826116e2565b6116b1565b81815260059190911b8201830190838101908783111561177357600080fd5b928401925b8284101561179157835182529284019290840190611778565b979650505050505050565b600060208083850312156117af57600080fd5b825167ffffffffffffffff8111156117c657600080fd5b8301601f810185136117d757600080fd5b80516117e561174f826116e2565b81815260059190911b8201830190838101908783111561180457600080fd5b928401925b8284101561179157835161181c816113a5565b82529284019290840190611809565b60005b8381101561184657818101518382015260200161182e565b50506000910152565b600067ffffffffffffffff8311156118695761186961169b565b61187c601f8401601f19166020016116b1565b905082815283838301111561189057600080fd5b61142283602083018461182b565b600082601f8301126118af57600080fd5b6114228383516020850161184f565b60008060008060008060c087890312156118d757600080fd5b865195506020870151945060408701516118f0816113a5565b606088015190945067ffffffffffffffff8082111561190e57600080fd5b61191a8a838b0161189e565b9450608089015191508082111561193057600080fd5b61193c8a838b0161189e565b935060a089015191508082111561195257600080fd5b508701601f8101891361196457600080fd5b6119738982516020840161184f565b9150509295509295509295565b6000815180845261199881602086016020860161182b565b601f01601f19169290920160200192915050565b60018060a01b03851681528360208201526080604082015260006119d36080830185611980565b82810360608401526117918185611980565b6000602082840312156119f757600080fd5b8151801515811461142257600080fd5b634e487b7160e01b600052601160045260246000fd5b8181038181111561057657610576611a07565b600060018201611a4257611a42611a07565b5060010190565b600060208284031215611a5b57600080fd5b8151611422816113a556fea2646970667358221220dc3c972d13f277fd6800e80166b7b1651d41c6016c403c697ab3395c3f05f7e764736f6c63430008180033",
  "linkReferences": {},
  "deployedLinkReferences": {}
}