{
  "_format": "hh-sol-artifact-1",
  "contractName": "IdFactory",
  "sourceName": "contracts/onchainid/factory/IdFactory.sol",
  "abi": [
    {
      "inputs": [
        {
          "internalType": "address",
          "name": "implementationAuthority",
          "type": "address"
        }
      ],
      "stateMutability": "nonpayable",
      "type": "constructor"
    },
    {
      "anonymous": false,
      "inputs": [
        {
          "indexed": true,
          "internalType": "address",
          "name": "_addr",
          "type": "address"
        }
      ],
      "name": "Deployed",
      "type": "event"
    },
    {
      "anonymous": false,
      "inputs": [
        {
          "indexed": true,
          "internalType": "address",
          "name": "previousOwner",
          "type": "address"
        },
        {
          "indexed": true,
          "internalType": "address",
          "name": "newOwner",
          "type": "address"
        }
      ],
      "name": "OwnershipTransferred",
      "type": "event"
    },
    {
      "anonymous": false,
      "inputs": [
        {
          "indexed": true,
          "internalType": "address",
          "name": "factory",
          "type": "address"
        }
      ],
      "name": "TokenFactoryAdded",
      "type": "event"
    },
    {
      "anonymous": false,
      "inputs": [
        {
          "indexed": true,
          "internalType": "address",
          "name": "factory",
          "type": "address"
        }
      ],
      "name": "TokenFactoryRemoved",
      "type": "event"
    },
    {
      "anonymous": false,
      "inputs": [
        {
          "indexed": true,
          "internalType": "address",
          "name": "token",
          "type": "address"
        },
        {
          "indexed": true,
          "internalType": "address",
          "name": "identity",
          "type": "address"
        }
      ],
      "name": "TokenLinked",
      "type": "event"
    },
    {
      "anonymous": false,
      "inputs": [
        {
          "indexed": true,
          "internalType": "address",
          "name": "wallet",
          "type": "address"
        },
        {
          "indexed": true,
          "internalType": "address",
          "name": "identity",
          "type": "address"
        }
      ],
      "name": "WalletLinked",
      "type": "event"
    },
    {
      "anonymous": false,
      "inputs": [
        {
          "indexed": true,
          "internalType": "address",
          "name": "wallet",
          "type": "address"
        },
        {
          "indexed": true,
          "internalType": "address",
          "name": "identity",
          "type": "address"
        }
      ],
      "name": "WalletUnlinked",
      "type": "event"
    },
    {
      "inputs": [
        {
          "internalType": "address",
          "name": "_factory",
          "type": "address"
        }
      ],
      "name": "addTokenFactory",
      "outputs": [],
      "stateMutability": "nonpayable",
      "type": "function"
    },
    {
      "inputs": [
        {
          "internalType": "address",
          "name": "_wallet",
          "type": "address"
        },
        {
          "internalType": "string",
          "name": "_salt",
          "type": "string"
        }
      ],
      "name": "createIdentity",
      "outputs": [
        {
          "internalType": "address",
          "name": "",
          "type": "address"
        }
      ],
      "stateMutability": "nonpayable",
      "type": "function"
    },
    {
      "inputs": [
        {
          "internalType": "address",
          "name": "_wallet",
          "type": "address"
        },
        {
          "internalType": "string",
          "name": "_salt",
          "type": "string"
        },
        {
          "internalType": "bytes32[]",
          "name": "_managementKeys",
          "type": "bytes32[]"
        }
      ],
      "name": "createIdentityWithManagementKeys",
      "outputs": [
        {
          "internalType": "address",
          "name": "",
          "type": "address"
        }
      ],
      "stateMutability": "nonpayable",
      "type": "function"
    },
    {
      "inputs": [
        {
          "internalType": "address",
          "name": "_token",
          "type": "address"
        },
        {
          "internalType": "address",
          "name": "_tokenOwner",
          "type": "address"
        },
        {
          "internalType": "string",
          "name": "_salt",
          "type": "string"
        }
      ],
      "name": "createTokenIdentity",
      "outputs": [
        {
          "internalType": "address",
          "name": "",
          "type": "address"
        }
      ],
      "stateMutability": "nonpayable",
      "type": "function"
    },
    {
      "inputs": [
        {
          "internalType": "address",
          "name": "_wallet",
          "type": "address"
        }
      ],
      "name": "getIdentity",
      "outputs": [
        {
          "internalType": "address",
          "name": "",
          "type": "address"
        }
      ],
      "stateMutability": "view",
      "type": "function"
    },
    {
      "inputs": [
        {
          "internalType": "address",
          "name": "_identity",
          "type": "address"
        }
      ],
      "name": "getToken",
      "outputs": [
        {
          "internalType": "address",
          "name": "",
          "type": "address"
        }
      ],
      "stateMutability": "view",
      "type": "function"
    },
    {
      "inputs": [
        {
          "internalType": "address",
          "name": "_identity",
          "type": "address"
        }
      ],
      "name": "getWallets",
      "outputs": [
        {
          "internalType": "address[]",
          "name": "",
          "type": "address[]"
        }
      ],
      "stateMutability": "view",
      "type": "function"
    },
    {
      "inputs": [],
      "name": "implementationAuthority",
      "outputs": [
        {
          "internalType": "address",
          "name": "",
          "type": "address"
        }
      ],
      "stateMutability": "view",
      "type": "function"
    },
    {
      "inputs": [
        {
          "internalType": "string",
          "name": "_salt",
          "type": "string"
        }
      ],
      "name": "isSaltTaken",
      "outputs": [
        {
          "internalType": "bool",
          "name": "",
          "type": "bool"
        }
      ],
      "stateMutability": "view",
      "type": "function"
    },
    {
      "inputs": [
        {
          "internalType": "address",
          "name": "_factory",
          "type": "address"
        }
      ],
      "name": "isTokenFactory",
      "outputs": [
        {
          "internalType": "bool",
          "name": "",
          "type": "bool"
        }
      ],
      "stateMutability": "view",
      "type": "function"
    },
    {
      "inputs": [
        {
          "internalType": "address",
          "name": "_newWallet",
          "type": "address"
        }
      ],
      "name": "linkWallet",
      "outputs": [],
      "stateMutability": "nonpayable",
      "type": "function"
    },
    {
      "inputs": [],
      "name": "owner",
      "outputs": [
        {
          "internalType": "address",
          "name": "",
          "type": "address"
        }
      ],
      "stateMutability": "view",
      "type": "function"
    },
    {
      "inputs": [
        {
          "internalType": "address",
          "name": "_factory",
          "type": "address"
        }
      ],
      "name": "removeTokenFactory",
      "outputs": [],
      "stateMutability": "nonpayable",
      "type": "function"
    },
    {
      "inputs": [],
      "name": "renounceOwnership",
      "outputs": [],
      "stateMutability": "nonpayable",
      "type": "function"
    },
    {
      "inputs": [
        {
          "internalType": "address",
          "name": "newOwner",
          "type": "address"
        }
      ],
      "name": "transferOwnership",
      "outputs": [],
      "stateMutability": "nonpayable",
      "type": "function"
    },
    {
      "inputs": [
        {
          "internalType": "address",
          "name": "_oldWallet",
          "type": "address"
        }
      ],
      "name": "unlinkWallet",
      "outputs": [],
      "stateMutability": "nonpayable",
      "type": "function"
    }
  ],
  "bytecode": "0x60a06040523480156200001157600080fd5b506040516200234e3803806200234e8339810160408190526200003491620000fc565b6200003f33620000ac565b6001600160a01b0381166200009a5760405162461bcd60e51b815260206004820152601f60248201527f696e76616c696420617267756d656e74202d207a65726f206164647265737300604482015260640160405180910390fd5b6001600160a01b03166080526200012e565b600080546001600160a01b038381166001600160a01b0319831681178455604051919092169283917f8be0079c531659141344cd1fd0a4f28419497f9722a3daafe3b4186f6b6457e09190a35050565b6000602082840312156200010f57600080fd5b81516001600160a01b03811681146200012757600080fd5b9392505050565b6080516121ef6200015f6000396000818161011c015281816105bc01528181610b45015261129701526121ef6000f3fe60806040523480156200001157600080fd5b5060043610620001155760003560e01c8063715018a611620000a35780639ce19365116200006e5780639ce193651462000296578063b8bb812614620002ad578063f2fde38b14620002c4578063fe5cd59a14620002db57600080fd5b8063715018a6146200024c5780638da5cb5b14620002565780638e952bfe1462000268578063937529ef146200027f57600080fd5b80633e3bc3d711620000e45780633e3bc3d714620001af578063422c29a414620001de5780635027dbe2146200020457806359770438146200021d57600080fd5b80632307f882146200011a5780632fea7b8114620001595780633a50045114620001705780633d56ff661462000198575b600080fd5b7f00000000000000000000000000000000000000000000000000000000000000005b6040516001600160a01b0390911681526020015b60405180910390f35b6200013c6200016a36600462001775565b620002f2565b62000187620001813660046200179a565b62000358565b604051901515815260200162000150565b6200013c620001a9366004620018d2565b6200038a565b62000187620001c036600462001775565b6001600160a01b031660009081526001602052604090205460ff1690565b620001f5620001ef36600462001775565b6200068a565b60405162000150919062001938565b6200021b6200021536600462001775565b62000702565b005b6200013c6200022e36600462001775565b6001600160a01b039081166000908152600660205260409020541690565b6200021b620009ce565b6000546001600160a01b03166200013c565b6200013c6200027936600462001987565b620009e6565b6200021b6200029036600462001775565b62000c23565b6200021b620002a736600462001775565b62000cf9565b6200021b620002be36600462001775565b62000dda565b6200021b620002d536600462001775565b62001058565b6200013c620002ec366004620019db565b620010d7565b6001600160a01b03818116600090815260056020526040812054909116156200033457506001600160a01b039081166000908152600560205260409020541690565b506001600160a01b039081166000908152600360205260409020541690565b919050565b6000600283836040516200036e92919062001ac8565b9081526040519081900360200190205460ff1690505b92915050565b3360009081526001602052604081205460ff1680620003b357506000546001600160a01b031633145b620004055760405162461bcd60e51b815260206004820152601e60248201527f6f6e6c7920466163746f7279206f72206f776e65722063616e2063616c6c000060448201526064015b60405180910390fd5b6001600160a01b0384166200042e5760405162461bcd60e51b8152600401620003fc9062001ad8565b6001600160a01b038316620004575760405162461bcd60e51b8152600401620003fc9062001ad8565b6040516020016200047390602080825260009082015260400190565b60405160208183030381529060405280519060200120826040516020016200049c919062001b35565b6040516020818303038152906040528051906020012003620004d25760405162461bcd60e51b8152600401620003fc9062001b6a565b600082604051602001620004e7919062001ba1565b60405160208183030381529060405290506002816040516200050a919062001bd0565b9081526040519081900360200190205460ff16156200053d5760405162461bcd60e51b8152600401620003fc9062001bee565b6001600160a01b038581166000908152600560205260409020541615620005b35760405162461bcd60e51b815260206004820152602360248201527f746f6b656e20616c7265616479206c696e6b656420746f20616e206964656e7460448201526269747960e81b6064820152608401620003fc565b6000620005e2827f0000000000000000000000000000000000000000000000000000000000000000876200158b565b90506001600283604051620005f8919062001bd0565b9081526040805160209281900383018120805460ff1916941515949094179093556001600160a01b0389811660008181526005855283812080546001600160a01b0319908116948916948517909155838252600690955292832080549094168117909355927fa8261d398ddc63db24cc53cd0c63c9464cabad1bc478ede2107b32c1c4010b7a9190a395945050505050565b6001600160a01b038116600090815260046020908152604091829020805483518184028101840190945280845260609392830182828015620006f657602002820191906000526020600020905b81546001600160a01b03168152600190910190602001808311620006d7575b50505050509050919050565b6001600160a01b0381166200072b5760405162461bcd60e51b8152600401620003fc9062001ad8565b336001600160a01b03821603620007905760405162461bcd60e51b815260206004820152602260248201527f63616e6e6f742062652063616c6c6564206f6e2073656e646572206164647265604482015261737360f01b6064820152608401620003fc565b6001600160a01b03808216600090815260036020526040808220543383529120548216911614620008045760405162461bcd60e51b815260206004820152601f60248201527f6f6e6c792061206c696e6b65642077616c6c65742063616e20756e6c696e6b006044820152606401620003fc565b6001600160a01b03808216600090815260036020908152604080832080546001600160a01b03198116909155909316808352600490915291812054905b8181101562000988576001600160a01b038381166000908152600460205260409020805491861691839081106200087c576200087c62001c1a565b6000918252602090912001546001600160a01b0316036200097f576001600160a01b0383166000908152600460205260409020620008bc60018462001c30565b81548110620008cf57620008cf62001c1a565b60009182526020808320909101546001600160a01b038681168452600490925260409092208054919092169190839081106200090f576200090f62001c1a565b600091825260208083209190910180546001600160a01b0319166001600160a01b03948516179055918516815260049091526040902080548062000957576200095762001c52565b600082815260209020810160001990810180546001600160a01b031916905501905562000988565b60010162000841565b50816001600160a01b0316836001600160a01b03167f35e6fc363a4bf723d53b26c1a751674aca9c3ead425f0591f84f5540ede86f1260405160405180910390a3505050565b620009d86200161b565b620009e4600062001677565b565b6000620009f26200161b565b6001600160a01b03831662000a1b5760405162461bcd60e51b8152600401620003fc9062001ad8565b60405160200162000a3790602080825260009082015260400190565b604051602081830303815290604052805190602001208260405160200162000a60919062001b35565b604051602081830303815290604052805190602001200362000a965760405162461bcd60e51b8152600401620003fc9062001b6a565b60008260405160200162000aab919062001c68565b604051602081830303815290604052905060028160405162000ace919062001bd0565b9081526040519081900360200190205460ff161562000b015760405162461bcd60e51b8152600401620003fc9062001bee565b6001600160a01b03848116600090815260036020526040902054161562000b3c5760405162461bcd60e51b8152600401620003fc9062001c95565b600062000b6b827f0000000000000000000000000000000000000000000000000000000000000000876200158b565b9050600160028360405162000b81919062001bd0565b9081526040805160209281900383018120805460ff1916941515949094179093556001600160a01b0388811660008181526003855283812080546001600160a01b0319908116948916948517909155838252600486529381208054600181018255908252948120909401805490931681179092559290917f8e0c709111388f5480579514d86663489ab1f206fe6da1a0c4d03ac8c318b3c691a3949350505050565b62000c2d6200161b565b6001600160a01b03811662000c565760405162461bcd60e51b8152600401620003fc9062001ad8565b6001600160a01b03811660009081526001602052604090205460ff1662000cb05760405162461bcd60e51b815260206004820152600d60248201526c6e6f74206120666163746f727960981b6044820152606401620003fc565b6001600160a01b038116600081815260016020526040808220805460ff19169055517fd1fd5274f793d20291c0abfe42e1ef63213a11b34996d485f7afb8fe014248519190a250565b62000d036200161b565b6001600160a01b03811662000d2c5760405162461bcd60e51b8152600401620003fc9062001ad8565b6001600160a01b03811660009081526001602052604090205460ff161562000d8b5760405162461bcd60e51b8152602060048201526011602482015270616c7265616479206120666163746f727960781b6044820152606401620003fc565b6001600160a01b0381166000818152600160208190526040808320805460ff1916909217909155517f45eb8ac5344d2d3f306550fe6e969ca4190526313c512afed851d052bf2ab2fd9190a250565b6001600160a01b03811662000e035760405162461bcd60e51b8152600401620003fc9062001ad8565b336000908152600360205260409020546001600160a01b031662000e7c5760405162461bcd60e51b815260206004820152602960248201527f77616c6c6574206e6f74206c696e6b656420746f20616e206964656e746974796044820152680818dbdb9d1c9858dd60ba1b6064820152608401620003fc565b6001600160a01b03818116600090815260036020526040902054161562000ee65760405162461bcd60e51b815260206004820152601960248201527f6e65772077616c6c657420616c7265616479206c696e6b6564000000000000006044820152606401620003fc565b6001600160a01b03818116600090815260056020526040902054161562000f505760405162461bcd60e51b815260206004820181905260248201527f696e76616c696420617267756d656e74202d20746f6b656e20616464726573736044820152606401620003fc565b336000908152600360209081526040808320546001600160a01b031680845260049092529091205460651162000fd75760405162461bcd60e51b815260206004820152602560248201527f6d617820616d6f756e74206f662077616c6c6574732070657220494420657863604482015264195959195960da1b6064820152608401620003fc565b6001600160a01b03808316600081815260036020908152604080832080549587166001600160a01b031996871681179091558084526004835281842080546001810182559085529284209092018054909516841790945592517f8e0c709111388f5480579514d86663489ab1f206fe6da1a0c4d03ac8c318b3c69190a35050565b620010626200161b565b6001600160a01b038116620010c95760405162461bcd60e51b815260206004820152602660248201527f4f776e61626c653a206e6577206f776e657220697320746865207a65726f206160448201526564647265737360d01b6064820152608401620003fc565b620010d48162001677565b50565b6000620010e36200161b565b6001600160a01b0384166200110c5760405162461bcd60e51b8152600401620003fc9062001ad8565b6040516020016200112890602080825260009082015260400190565b604051602081830303815290604052805190602001208360405160200162001151919062001b35565b6040516020818303038152906040528051906020012003620011875760405162461bcd60e51b8152600401620003fc9062001b6a565b6000836040516020016200119c919062001c68565b6040516020818303038152906040529050600281604051620011bf919062001bd0565b9081526040519081900360200190205460ff1615620011f25760405162461bcd60e51b8152600401620003fc9062001bee565b6001600160a01b0385811660009081526003602052604090205416156200122d5760405162461bcd60e51b8152600401620003fc9062001c95565b60008351116200128e5760405162461bcd60e51b815260206004820152602560248201527f696e76616c696420617267756d656e74202d20656d707479206c697374206f66604482015264206b65797360d81b6064820152608401620003fc565b6000620012bd827f0000000000000000000000000000000000000000000000000000000000000000306200158b565b905060005b84518110156200143757604080516001600160a01b038916602082015201604051602081830303815290604052805190602001208582815181106200130b576200130b62001c1a565b602002602001015103620013885760405162461bcd60e51b815260206004820152603b60248201527f696e76616c696420617267756d656e74202d2077616c6c657420697320616c7360448201527f6f206c697374656420696e206d616e6167656d656e74206b65797300000000006064820152608401620003fc565b816001600160a01b0316631d381240868381518110620013ac57620013ac62001c1a565b60200260200101516001806040518463ffffffff1660e01b8152600401620013e7939291909283526020830191909152604082015260600190565b6020604051808303816000875af115801562001407573d6000803e3d6000fd5b505050506040513d601f19601f820116820180604052508101906200142d919062001cd9565b50600101620012c2565b50604080513060208201526001600160a01b038316916353d413c5910160408051601f198184030181529082905280516020909101206001600160e01b031960e084901b1682526004820152600160248201526044016020604051808303816000875af1158015620014ad573d6000803e3d6000fd5b505050506040513d601f19601f82011682018060405250810190620014d3919062001cd9565b506001600283604051620014e8919062001bd0565b9081526040805160209281900383018120805460ff1916941515949094179093556001600160a01b0389811660008181526003855283812080546001600160a01b0319908116948916948517909155838252600486529381208054600181018255908252948120909401805490931681179092559290917f8e0c709111388f5480579514d86663489ab1f206fe6da1a0c4d03ac8c318b3c691a395945050505050565b60008060405180602001620015a0906200174f565b601f1982820381018352601f9091011660408181526001600160a01b03878116602084015286168183015280518083038201815260608301909152919250600090620015f3908490849060800162001cfd565b6040516020818303038152906040529050620016108782620016c7565b979650505050505050565b6000546001600160a01b03163314620009e45760405162461bcd60e51b815260206004820181905260248201527f4f776e61626c653a2063616c6c6572206973206e6f7420746865206f776e65726044820152606401620003fc565b600080546001600160a01b038381166001600160a01b0319831681178455604051919092169283917f8be0079c531659141344cd1fd0a4f28419497f9722a3daafe3b4186f6b6457e09190a35050565b60008083604051602001620016dd919062001bd0565b60405160208183030381529060405280519060200120905060008360200184518381836000f592505050803b6200171357600080fd5b6040516001600160a01b038216907ff40fcec21964ffb566044d083b4073f29f7f7929110ea19e1b3ebe375d89055e90600090a2949350505050565b6104898062001d3183390190565b80356001600160a01b03811681146200035357600080fd5b6000602082840312156200178857600080fd5b62001793826200175d565b9392505050565b60008060208385031215620017ae57600080fd5b823567ffffffffffffffff80821115620017c757600080fd5b818501915085601f830112620017dc57600080fd5b813581811115620017ec57600080fd5b866020828501011115620017ff57600080fd5b60209290920196919550909350505050565b634e487b7160e01b600052604160045260246000fd5b604051601f8201601f1916810167ffffffffffffffff8111828210171562001853576200185362001811565b604052919050565b600082601f8301126200186d57600080fd5b813567ffffffffffffffff8111156200188a576200188a62001811565b6200189f601f8201601f191660200162001827565b818152846020838601011115620018b557600080fd5b816020850160208301376000918101602001919091529392505050565b600080600060608486031215620018e857600080fd5b620018f3846200175d565b925062001903602085016200175d565b9150604084013567ffffffffffffffff8111156200192057600080fd5b6200192e868287016200185b565b9150509250925092565b6020808252825182820181905260009190848201906040850190845b818110156200197b5783516001600160a01b03168352928401929184019160010162001954565b50909695505050505050565b600080604083850312156200199b57600080fd5b620019a6836200175d565b9150602083013567ffffffffffffffff811115620019c357600080fd5b620019d1858286016200185b565b9150509250929050565b600080600060608486031215620019f157600080fd5b620019fc846200175d565b925060208085013567ffffffffffffffff8082111562001a1b57600080fd5b62001a29888389016200185b565b9450604087013591508082111562001a4057600080fd5b818701915087601f83011262001a5557600080fd5b81358181111562001a6a5762001a6a62001811565b8060051b915062001a7d84830162001827565b818152918301840191848101908a84111562001a9857600080fd5b938501935b8385101562001ab85784358252938501939085019062001a9d565b8096505050505050509250925092565b8183823760009101908152919050565b6020808252601f908201527f696e76616c696420617267756d656e74202d207a65726f206164647265737300604082015260600190565b60005b8381101562001b2c57818101518382015260200162001b12565b50506000910152565b602081526000825180602084015262001b5681604085016020870162001b0f565b601f01601f19169190910160400192915050565b6020808252601f908201527f696e76616c696420617267756d656e74202d20656d70747920737472696e6700604082015260600190565b642a37b5b2b760d91b81526000825162001bc381600585016020870162001b0f565b9190910160050192915050565b6000825162001be481846020870162001b0f565b9190910192915050565b60208082526012908201527139b0b63a1030b63932b0b23c903a30b5b2b760711b604082015260600190565b634e487b7160e01b600052603260045260246000fd5b818103818111156200038457634e487b7160e01b600052601160045260246000fd5b634e487b7160e01b600052603160045260246000fd5b6213d25160ea1b81526000825162001c8881600385016020870162001b0f565b9190910160030192915050565b60208082526024908201527f77616c6c657420616c7265616479206c696e6b656420746f20616e206964656e6040820152637469747960e01b606082015260800190565b60006020828403121562001cec57600080fd5b815180151581146200179357600080fd5b6000835162001d1181846020880162001b0f565b83519083019062001d2781836020880162001b0f565b0194935050505056fe608060405234801561001057600080fd5b5060405161048938038061048983398101604081905261002f91610271565b6001600160a01b03821661008a5760405162461bcd60e51b815260206004820152601f60248201527f696e76616c696420617267756d656e74202d207a65726f20616464726573730060448201526064015b60405180910390fd5b6001600160a01b0381166100e05760405162461bcd60e51b815260206004820152601f60248201527f696e76616c696420617267756d656e74202d207a65726f2061646472657373006044820152606401610081565b817f821f3e4d3d679f19eacc940c87acf846ea6eae24a63058ea750304437a62aafc556000826001600160a01b031663aaf10f426040518163ffffffff1660e01b8152600401602060405180830381865afa158015610143573d6000803e3d6000fd5b505050506040513d601f19601f8201168201806040525081019061016791906102a4565b6040516001600160a01b03848116602483015291925060009183169060440160408051601f198184030181529181526020820180516001600160e01b031663189acdbd60e31b179052516101bb91906102c6565b600060405180830381855af49150503d80600081146101f6576040519150601f19603f3d011682016040523d82523d6000602084013e6101fb565b606091505b505090508061024c5760405162461bcd60e51b815260206004820152601660248201527f496e697469616c697a6174696f6e206661696c65642e000000000000000000006044820152606401610081565b505050506102f5565b80516001600160a01b038116811461026c57600080fd5b919050565b6000806040838503121561028457600080fd5b61028d83610255565b915061029b60208401610255565b90509250929050565b6000602082840312156102b657600080fd5b6102bf82610255565b9392505050565b6000825160005b818110156102e757602081860181015185830152016102cd565b506000920191825250919050565b610185806103046000396000f3fe60806040526004361061001e5760003560e01c80632307f882146100d4575b60006100487f821f3e4d3d679f19eacc940c87acf846ea6eae24a63058ea750304437a62aafc5490565b6001600160a01b031663aaf10f426040518163ffffffff1660e01b8152600401602060405180830381865afa158015610085573d6000803e3d6000fd5b505050506040513d601f19601f820116820180604052508101906100a9919061011f565b90503660008037600080366000846127105a03f43d806000803e8180156100cf57816000f35b816000fd5b3480156100e057600080fd5b507f821f3e4d3d679f19eacc940c87acf846ea6eae24a63058ea750304437a62aafc546040516001600160a01b03909116815260200160405180910390f35b60006020828403121561013157600080fd5b81516001600160a01b038116811461014857600080fd5b939250505056fea2646970667358221220d7e0c646c33413cbd805b7013c429a624a01a1e46d0872ee71f3a1ee75fcfcae64736f6c63430008180033a2646970667358221220de39d32212ed4719926c19a260af08de4cd3c1dae67850a0da4de6fbc13ac88864736f6c63430008180033",
  "linkReferences": {},
  "deployedLinkReferences": {}
}