{
  "_format": "hh-sol-artifact-1",
  "contractName": "ImplementationAuthority",
  "sourceName": "contracts/onchainid/proxy/ImplementationAuthority.sol",
  "abi": [
    {
      "inputs": [
        {
          "internalType": "address",
          "name": "implementation",
          "type": "address"
        }
      ],
      "stateMutability": "nonpayable",
      "type": "constructor"
    },
    {
      "inputs": [
        {
          "internalType": "address",
          "name": "owner",
          "type": "address"
        }
      ],
      "name": "OwnableInvalidOwner",
      "type": "error"
    },
    {
      "inputs": [
        {
          "internalType": "address",
          "name": "account",
          "type": "address"
        }
      ],
      "name": "OwnableUnauthorizedAccount",
      "type": "error"
    },
    {
      "anonymous": false,
      "inputs": [
        {
          "indexed": true,
          "internalType": "address",
          "name": "previousOwner",
          "type": "address"
        },
        {
          "indexed": true,
          "internalType": "address",
          "name": "newOwner",
          "type": "address"
        }
      ],
      "name": "OwnershipTransferred",
      "type": "event"
    },
    {
      "anonymous": false,
      "inputs": [
        {
          "indexed": false,
          "internalType": "address",
          "name": "newAddress",
          "type": "address"
        }
      ],
      "name": "UpdatedImplementation",
      "type": "event"
    },
    {
      "inputs": [],
      "name": "getImplementation",
      "outputs": [
        {
          "internalType": "address",
          "name": "",
          "type": "address"
        }
      ],
      "stateMutability": "view",
      "type": "function"
    },
    {
      "inputs": [],
      "name": "owner",
      "outputs": [
        {
          "internalType": "address",
          "name": "",
          "type": "address"
        }
      ],
      "stateMutability": "view",
      "type": "function"
    },
    {
      "inputs": [],
      "name": "renounceOwnership",
      "outputs": [],
      "stateMutability": "nonpayable",
      "type": "function"
    },
    {
      "inputs": [
        {
          "internalType": "address",
          "name": "newOwner",
          "type": "address"
        }
      ],
      "name": "transferOwnership",
      "outputs": [],
      "stateMutability": "nonpayable",
      "type": "function"
    },
    {
      "inputs": [
        {
          "internalType": "address",
          "name": "_newImplementation",
          "type": "address"
        }
      ],
      "name": "updateImplementation",
      "outputs": [],
      "stateMutability": "nonpayable",
      "type": "function"
    }
  ],
  "bytecode": "0x608060405234801561001057600080fd5b5060405161044e38038061044e83398101604081905261002f9161015d565b338061005657604051631e4fbdf760e01b8152600060048201526024015b60405180910390fd5b61005f8161010d565b506001600160a01b0381166100b65760405162461bcd60e51b815260206004820152601f60248201527f696e76616c696420617267756d656e74202d207a65726f206164647265737300604482015260640161004d565b600180546001600160a01b0319166001600160a01b0383169081179091556040519081527f87c4e67a766ffddda27f441d63853a36ae64fbb07775a7c59d395e064b204eeb9060200160405180910390a15061018d565b600080546001600160a01b038381166001600160a01b0319831681178455604051919092169283917f8be0079c531659141344cd1fd0a4f28419497f9722a3daafe3b4186f6b6457e09190a35050565b60006020828403121561016f57600080fd5b81516001600160a01b038116811461018657600080fd5b9392505050565b6102b28061019c6000396000f3fe608060405234801561001057600080fd5b50600436106100575760003560e01c8063025b22bc1461005c578063715018a6146100715780638da5cb5b14610079578063aaf10f42146100a2578063f2fde38b146100b3575b600080fd5b61006f61006a36600461024c565b6100c6565b005b61006f61017d565b6000546001600160a01b03165b6040516001600160a01b03909116815260200160405180910390f35b6001546001600160a01b0316610086565b61006f6100c136600461024c565b610191565b6100ce6101cf565b6001600160a01b0381166101295760405162461bcd60e51b815260206004820152601f60248201527f696e76616c696420617267756d656e74202d207a65726f20616464726573730060448201526064015b60405180910390fd5b600180546001600160a01b0319166001600160a01b0383169081179091556040519081527f87c4e67a766ffddda27f441d63853a36ae64fbb07775a7c59d395e064b204eeb9060200160405180910390a150565b6101856101cf565b61018f60006101fc565b565b6101996101cf565b6001600160a01b0381166101c357604051631e4fbdf760e01b815260006004820152602401610120565b6101cc816101fc565b50565b6000546001600160a01b0316331461018f5760405163118cdaa760e01b8152336004820152602401610120565b600080546001600160a01b038381166001600160a01b0319831681178455604051919092169283917f8be0079c531659141344cd1fd0a4f28419497f9722a3daafe3b4186f6b6457e09190a35050565b60006020828403121561025e57600080fd5b81356001600160a01b038116811461027557600080fd5b939250505056fea264697066735822122093863f3feb699fcfeaa14c9cb08c332751f27fcd063f3fee4cfc91ab7e56316164736f6c63430008180033",
  "linkReferences": {},
  "deployedLinkReferences": {}
}