{
  "_format": "hh-sol-artifact-1",
  "contractName": "LegacyToken_3_5_2",
  "sourceName": "contracts/erc3643/_testContracts/v_3_5_2/LegacyToken_3_5_2.sol",
  "abi": [
    {
      "anonymous": false,
      "inputs": [
        {
          "indexed": true,
          "internalType": "address",
          "name": "_userAddress",
          "type": "address"
        },
        {
          "indexed": true,
          "internalType": "bool",
          "name": "_isFrozen",
          "type": "bool"
        },
        {
          "indexed": true,
          "internalType": "address",
          "name": "_owner",
          "type": "address"
        }
      ],
      "name": "AddressFrozen",
      "type": "event"
    },
    {
      "anonymous": false,
      "inputs": [
        {
          "indexed": true,
          "internalType": "address",
          "name": "_agent",
          "type": "address"
        }
      ],
      "name": "AgentAdded",
      "type": "event"
    },
    {
      "anonymous": false,
      "inputs": [
        {
          "indexed": true,
          "internalType": "address",
          "name": "_agent",
          "type": "address"
        }
      ],
      "name": "AgentRemoved",
      "type": "event"
    },
    {
      "anonymous": false,
      "inputs": [
        {
          "indexed": true,
          "internalType": "address",
          "name": "owner",
          "type": "address"
        },
        {
          "indexed": true,
          "internalType": "address",
          "name": "spender",
          "type": "address"
        },
        {
          "indexed": false,
          "internalType": "uint256",
          "name": "value",
          "type": "uint256"
        }
      ],
      "name": "Approval",
      "type": "event"
    },
    {
      "anonymous": false,
      "inputs": [
        {
          "indexed": true,
          "internalType": "address",
          "name": "_compliance",
          "type": "address"
        }
      ],
      "name": "ComplianceAdded",
      "type": "event"
    },
    {
      "anonymous": false,
      "inputs": [
        {
          "indexed": true,
          "internalType": "address",
          "name": "_identityRegistry",
          "type": "address"
        }
      ],
      "name": "IdentityRegistryAdded",
      "type": "event"
    },
    {
      "anonymous": false,
      "inputs": [
        {
          "indexed": true,
          "internalType": "address",
          "name": "previousOwner",
          "type": "address"
        },
        {
          "indexed": true,
          "internalType": "address",
          "name": "newOwner",
          "type": "address"
        }
      ],
      "name": "OwnershipTransferred",
      "type": "event"
    },
    {
      "anonymous": false,
      "inputs": [
        {
          "indexed": false,
          "internalType": "address",
          "name": "_userAddress",
          "type": "address"
        }
      ],
      "name": "Paused",
      "type": "event"
    },
    {
      "anonymous": false,
      "inputs": [
        {
          "indexed": false,
          "internalType": "address",
          "name": "_lostWallet",
          "type": "address"
        },
        {
          "indexed": false,
          "internalType": "address",
          "name": "_newWallet",
          "type": "address"
        },
        {
          "indexed": false,
          "internalType": "address",
          "name": "_investorOnchainID",
          "type": "address"
        }
      ],
      "name": "RecoverySuccess",
      "type": "event"
    },
    {
      "anonymous": false,
      "inputs": [
        {
          "indexed": true,
          "internalType": "address",
          "name": "_userAddress",
          "type": "address"
        },
        {
          "indexed": false,
          "internalType": "uint256",
          "name": "_amount",
          "type": "uint256"
        }
      ],
      "name": "TokensFrozen",
      "type": "event"
    },
    {
      "anonymous": false,
      "inputs": [
        {
          "indexed": true,
          "internalType": "address",
          "name": "_userAddress",
          "type": "address"
        },
        {
          "indexed": false,
          "internalType": "uint256",
          "name": "_amount",
          "type": "uint256"
        }
      ],
      "name": "TokensUnfrozen",
      "type": "event"
    },
    {
      "anonymous": false,
      "inputs": [
        {
          "indexed": true,
          "internalType": "address",
          "name": "from",
          "type": "address"
        },
        {
          "indexed": true,
          "internalType": "address",
          "name": "to",
          "type": "address"
        },
        {
          "indexed": false,
          "internalType": "uint256",
          "name": "value",
          "type": "uint256"
        }
      ],
      "name": "Transfer",
      "type": "event"
    },
    {
      "anonymous": false,
      "inputs": [
        {
          "indexed": false,
          "internalType": "address",
          "name": "_userAddress",
          "type": "address"
        }
      ],
      "name": "Unpaused",
      "type": "event"
    },
    {
      "anonymous": false,
      "inputs": [
        {
          "indexed": false,
          "internalType": "string",
          "name": "_newName",
          "type": "string"
        },
        {
          "indexed": false,
          "internalType": "string",
          "name": "_newSymbol",
          "type": "string"
        },
        {
          "indexed": false,
          "internalType": "uint8",
          "name": "_newDecimals",
          "type": "uint8"
        },
        {
          "indexed": false,
          "internalType": "string",
          "name": "_newVersion",
          "type": "string"
        },
        {
          "indexed": false,
          "internalType": "address",
          "name": "_newOnchainID",
          "type": "address"
        }
      ],
      "name": "UpdatedTokenInformation",
      "type": "event"
    },
    {
      "inputs": [
        {
          "internalType": "address",
          "name": "_agent",
          "type": "address"
        }
      ],
      "name": "addAgent",
      "outputs": [],
      "stateMutability": "nonpayable",
      "type": "function"
    },
    {
      "inputs": [
        {
          "internalType": "address",
          "name": "_agent",
          "type": "address"
        }
      ],
      "name": "addAgentOnTokenContract",
      "outputs": [],
      "stateMutability": "nonpayable",
      "type": "function"
    },
    {
      "inputs": [
        {
          "internalType": "address",
          "name": "_owner",
          "type": "address"
        },
        {
          "internalType": "address",
          "name": "_spender",
          "type": "address"
        }
      ],
      "name": "allowance",
      "outputs": [
        {
          "internalType": "uint256",
          "name": "",
          "type": "uint256"
        }
      ],
      "stateMutability": "view",
      "type": "function"
    },
    {
      "inputs": [
        {
          "internalType": "address",
          "name": "_spender",
          "type": "address"
        },
        {
          "internalType": "uint256",
          "name": "_amount",
          "type": "uint256"
        }
      ],
      "name": "approve",
      "outputs": [
        {
          "internalType": "bool",
          "name": "",
          "type": "bool"
        }
      ],
      "stateMutability": "nonpayable",
      "type": "function"
    },
    {
      "inputs": [
        {
          "internalType": "address",
          "name": "_userAddress",
          "type": "address"
        }
      ],
      "name": "balanceOf",
      "outputs": [
        {
          "internalType": "uint256",
          "name": "",
          "type": "uint256"
        }
      ],
      "stateMutability": "view",
      "type": "function"
    },
    {
      "inputs": [
        {
          "internalType": "address[]",
          "name": "_userAddresses",
          "type": "address[]"
        },
        {
          "internalType": "uint256[]",
          "name": "_amounts",
          "type": "uint256[]"
        }
      ],
      "name": "batchBurn",
      "outputs": [],
      "stateMutability": "nonpayable",
      "type": "function"
    },
    {
      "inputs": [
        {
          "internalType": "address[]",
          "name": "_fromList",
          "type": "address[]"
        },
        {
          "internalType": "address[]",
          "name": "_toList",
          "type": "address[]"
        },
        {
          "internalType": "uint256[]",
          "name": "_amounts",
          "type": "uint256[]"
        }
      ],
      "name": "batchForcedTransfer",
      "outputs": [],
      "stateMutability": "nonpayable",
      "type": "function"
    },
    {
      "inputs": [
        {
          "internalType": "address[]",
          "name": "_userAddresses",
          "type": "address[]"
        },
        {
          "internalType": "uint256[]",
          "name": "_amounts",
          "type": "uint256[]"
        }
      ],
      "name": "batchFreezePartialTokens",
      "outputs": [],
      "stateMutability": "nonpayable",
      "type": "function"
    },
    {
      "inputs": [
        {
          "internalType": "address[]",
          "name": "_toList",
          "type": "address[]"
        },
        {
          "internalType": "uint256[]",
          "name": "_amounts",
          "type": "uint256[]"
        }
      ],
      "name": "batchMint",
      "outputs": [],
      "stateMutability": "nonpayable",
      "type": "function"
    },
    {
      "inputs": [
        {
          "internalType": "address[]",
          "name": "_userAddresses",
          "type": "address[]"
        },
        {
          "internalType": "bool[]",
          "name": "_freeze",
          "type": "bool[]"
        }
      ],
      "name": "batchSetAddressFrozen",
      "outputs": [],
      "stateMutability": "nonpayable",
      "type": "function"
    },
    {
      "inputs": [
        {
          "internalType": "address[]",
          "name": "_toList",
          "type": "address[]"
        },
        {
          "internalType": "uint256[]",
          "name": "_amounts",
          "type": "uint256[]"
        }
      ],
      "name": "batchTransfer",
      "outputs": [],
      "stateMutability": "nonpayable",
      "type": "function"
    },
    {
      "inputs": [
        {
          "internalType": "address[]",
          "name": "_userAddresses",
          "type": "address[]"
        },
        {
          "internalType": "uint256[]",
          "name": "_amounts",
          "type": "uint256[]"
        }
      ],
      "name": "batchUnfreezePartialTokens",
      "outputs": [],
      "stateMutability": "nonpayable",
      "type": "function"
    },
    {
      "inputs": [
        {
          "internalType": "address",
          "name": "_userAddress",
          "type": "address"
        },
        {
          "internalType": "uint256",
          "name": "_amount",
          "type": "uint256"
        }
      ],
      "name": "burn",
      "outputs": [],
      "stateMutability": "nonpayable",
      "type": "function"
    },
    {
      "inputs": [],
      "name": "compliance",
      "outputs": [
        {
          "internalType": "contract IComplianceLegacy",
          "name": "",
          "type": "address"
        }
      ],
      "stateMutability": "view",
      "type": "function"
    },
    {
      "inputs": [],
      "name": "decimals",
      "outputs": [
        {
          "internalType": "uint8",
          "name": "",
          "type": "uint8"
        }
      ],
      "stateMutability": "view",
      "type": "function"
    },
    {
      "inputs": [
        {
          "internalType": "address",
          "name": "_spender",
          "type": "address"
        },
        {
          "internalType": "uint256",
          "name": "_subtractedValue",
          "type": "uint256"
        }
      ],
      "name": "decreaseAllowance",
      "outputs": [
        {
          "internalType": "bool",
          "name": "",
          "type": "bool"
        }
      ],
      "stateMutability": "nonpayable",
      "type": "function"
    },
    {
      "inputs": [
        {
          "internalType": "address",
          "name": "_from",
          "type": "address"
        },
        {
          "internalType": "address",
          "name": "_to",
          "type": "address"
        },
        {
          "internalType": "uint256",
          "name": "_amount",
          "type": "uint256"
        }
      ],
      "name": "forcedTransfer",
      "outputs": [
        {
          "internalType": "bool",
          "name": "",
          "type": "bool"
        }
      ],
      "stateMutability": "nonpayable",
      "type": "function"
    },
    {
      "inputs": [
        {
          "internalType": "address",
          "name": "_userAddress",
          "type": "address"
        },
        {
          "internalType": "uint256",
          "name": "_amount",
          "type": "uint256"
        }
      ],
      "name": "freezePartialTokens",
      "outputs": [],
      "stateMutability": "nonpayable",
      "type": "function"
    },
    {
      "inputs": [
        {
          "internalType": "address",
          "name": "_userAddress",
          "type": "address"
        }
      ],
      "name": "getFrozenTokens",
      "outputs": [
        {
          "internalType": "uint256",
          "name": "",
          "type": "uint256"
        }
      ],
      "stateMutability": "view",
      "type": "function"
    },
    {
      "inputs": [],
      "name": "identityRegistry",
      "outputs": [
        {
          "internalType": "contract IIdentityRegistryLegacy",
          "name": "",
          "type": "address"
        }
      ],
      "stateMutability": "view",
      "type": "function"
    },
    {
      "inputs": [
        {
          "internalType": "address",
          "name": "_spender",
          "type": "address"
        },
        {
          "internalType": "uint256",
          "name": "_addedValue",
          "type": "uint256"
        }
      ],
      "name": "increaseAllowance",
      "outputs": [
        {
          "internalType": "bool",
          "name": "",
          "type": "bool"
        }
      ],
      "stateMutability": "nonpayable",
      "type": "function"
    },
    {
      "inputs": [
        {
          "internalType": "address",
          "name": "_identityRegistry",
          "type": "address"
        },
        {
          "internalType": "address",
          "name": "_compliance",
          "type": "address"
        },
        {
          "internalType": "string",
          "name": "_name",
          "type": "string"
        },
        {
          "internalType": "string",
          "name": "_symbol",
          "type": "string"
        },
        {
          "internalType": "uint8",
          "name": "_decimals",
          "type": "uint8"
        },
        {
          "internalType": "address",
          "name": "_onchainID",
          "type": "address"
        }
      ],
      "name": "init",
      "outputs": [],
      "stateMutability": "nonpayable",
      "type": "function"
    },
    {
      "inputs": [
        {
          "internalType": "address",
          "name": "_agent",
          "type": "address"
        }
      ],
      "name": "isAgent",
      "outputs": [
        {
          "internalType": "bool",
          "name": "",
          "type": "bool"
        }
      ],
      "stateMutability": "view",
      "type": "function"
    },
    {
      "inputs": [
        {
          "internalType": "address",
          "name": "_userAddress",
          "type": "address"
        }
      ],
      "name": "isFrozen",
      "outputs": [
        {
          "internalType": "bool",
          "name": "",
          "type": "bool"
        }
      ],
      "stateMutability": "view",
      "type": "function"
    },
    {
      "inputs": [
        {
          "internalType": "address",
          "name": "_to",
          "type": "address"
        },
        {
          "internalType": "uint256",
          "name": "_amount",
          "type": "uint256"
        }
      ],
      "name": "mint",
      "outputs": [],
      "stateMutability": "nonpayable",
      "type": "function"
    },
    {
      "inputs": [],
      "name": "name",
      "outputs": [
        {
          "internalType": "string",
          "name": "",
          "type": "string"
        }
      ],
      "stateMutability": "view",
      "type": "function"
    },
    {
      "inputs": [],
      "name": "onchainID",
      "outputs": [
        {
          "internalType": "address",
          "name": "",
          "type": "address"
        }
      ],
      "stateMutability": "view",
      "type": "function"
    },
    {
      "inputs": [],
      "name": "owner",
      "outputs": [
        {
          "internalType": "address",
          "name": "",
          "type": "address"
        }
      ],
      "stateMutability": "view",
      "type": "function"
    },
    {
      "inputs": [],
      "name": "pause",
      "outputs": [],
      "stateMutability": "nonpayable",
      "type": "function"
    },
    {
      "inputs": [],
      "name": "paused",
      "outputs": [
        {
          "internalType": "bool",
          "name": "",
          "type": "bool"
        }
      ],
      "stateMutability": "view",
      "type": "function"
    },
    {
      "inputs": [
        {
          "internalType": "address",
          "name": "_lostWallet",
          "type": "address"
        },
        {
          "internalType": "address",
          "name": "_newWallet",
          "type": "address"
        },
        {
          "internalType": "address",
          "name": "_investorOnchainID",
          "type": "address"
        }
      ],
      "name": "recoveryAddress",
      "outputs": [
        {
          "internalType": "bool",
          "name": "",
          "type": "bool"
        }
      ],
      "stateMutability": "nonpayable",
      "type": "function"
    },
    {
      "inputs": [
        {
          "internalType": "address",
          "name": "_agent",
          "type": "address"
        }
      ],
      "name": "removeAgent",
      "outputs": [],
      "stateMutability": "nonpayable",
      "type": "function"
    },
    {
      "inputs": [
        {
          "internalType": "address",
          "name": "_agent",
          "type": "address"
        }
      ],
      "name": "removeAgentOnTokenContract",
      "outputs": [],
      "stateMutability": "nonpayable",
      "type": "function"
    },
    {
      "inputs": [],
      "name": "renounceOwnership",
      "outputs": [],
      "stateMutability": "nonpayable",
      "type": "function"
    },
    {
      "inputs": [
        {
          "internalType": "address",
          "name": "_userAddress",
          "type": "address"
        },
        {
          "internalType": "bool",
          "name": "_freeze",
          "type": "bool"
        }
      ],
      "name": "setAddressFrozen",
      "outputs": [],
      "stateMutability": "nonpayable",
      "type": "function"
    },
    {
      "inputs": [
        {
          "internalType": "address",
          "name": "_compliance",
          "type": "address"
        }
      ],
      "name": "setCompliance",
      "outputs": [],
      "stateMutability": "nonpayable",
      "type": "function"
    },
    {
      "inputs": [
        {
          "internalType": "address",
          "name": "_identityRegistry",
          "type": "address"
        }
      ],
      "name": "setIdentityRegistry",
      "outputs": [],
      "stateMutability": "nonpayable",
      "type": "function"
    },
    {
      "inputs": [
        {
          "internalType": "string",
          "name": "_name",
          "type": "string"
        }
      ],
      "name": "setName",
      "outputs": [],
      "stateMutability": "nonpayable",
      "type": "function"
    },
    {
      "inputs": [
        {
          "internalType": "address",
          "name": "_onchainID",
          "type": "address"
        }
      ],
      "name": "setOnchainID",
      "outputs": [],
      "stateMutability": "nonpayable",
      "type": "function"
    },
    {
      "inputs": [
        {
          "internalType": "string",
          "name": "_symbol",
          "type": "string"
        }
      ],
      "name": "setSymbol",
      "outputs": [],
      "stateMutability": "nonpayable",
      "type": "function"
    },
    {
      "inputs": [],
      "name": "symbol",
      "outputs": [
        {
          "internalType": "string",
          "name": "",
          "type": "string"
        }
      ],
      "stateMutability": "view",
      "type": "function"
    },
    {
      "inputs": [],
      "name": "totalSupply",
      "outputs": [
        {
          "internalType": "uint256",
          "name": "",
          "type": "uint256"
        }
      ],
      "stateMutability": "view",
      "type": "function"
    },
    {
      "inputs": [
        {
          "internalType": "address",
          "name": "_to",
          "type": "address"
        },
        {
          "internalType": "uint256",
          "name": "_amount",
          "type": "uint256"
        }
      ],
      "name": "transfer",
      "outputs": [
        {
          "internalType": "bool",
          "name": "",
          "type": "bool"
        }
      ],
      "stateMutability": "nonpayable",
      "type": "function"
    },
    {
      "inputs": [
        {
          "internalType": "address",
          "name": "_from",
          "type": "address"
        },
        {
          "internalType": "address",
          "name": "_to",
          "type": "address"
        },
        {
          "internalType": "uint256",
          "name": "_amount",
          "type": "uint256"
        }
      ],
      "name": "transferFrom",
      "outputs": [
        {
          "internalType": "bool",
          "name": "",
          "type": "bool"
        }
      ],
      "stateMutability": "nonpayable",
      "type": "function"
    },
    {
      "inputs": [
        {
          "internalType": "address",
          "name": "newOwner",
          "type": "address"
        }
      ],
      "name": "transferOwnership",
      "outputs": [],
      "stateMutability": "nonpayable",
      "type": "function"
    },
    {
      "inputs": [
        {
          "internalType": "address",
          "name": "_newOwner",
          "type": "address"
        }
      ],
      "name": "transferOwnershipOnTokenContract",
      "outputs": [],
      "stateMutability": "nonpayable",
      "type": "function"
    },
    {
      "inputs": [
        {
          "internalType": "address",
          "name": "_userAddress",
          "type": "address"
        },
        {
          "internalType": "uint256",
          "name": "_amount",
          "type": "uint256"
        }
      ],
      "name": "unfreezePartialTokens",
      "outputs": [],
      "stateMutability": "nonpayable",
      "type": "function"
    },
    {
      "inputs": [],
      "name": "unpause",
      "outputs": [],
      "stateMutability": "nonpayable",
      "type": "function"
    },
    {
      "inputs": [],
      "name": "version",
      "outputs": [
        {
          "internalType": "string",
          "name": "",
          "type": "string"
        }
      ],
      "stateMutability": "view",
      "type": "function"
    }
  ],
  "bytecode": "0x6080604052606e805460ff1916905534801561001a57600080fd5b5061356d8061002a6000396000f3fe608060405234801561001057600080fd5b50600436106102bb5760003560e01c806370a0823111610182578063a9059cbb116100e9578063cbf3f861116100a2578063f2fde38b1161007c578063f2fde38b1461067e578063f898178914610691578063f91b619c146106a4578063fc7e5fa8146106b757600080fd5b8063cbf3f86114610606578063dd62ed3e14610619578063e58398361461065257600080fd5b8063a9059cbb14610591578063aba63705146105a4578063b422d830146105ba578063b84c8246146105cd578063c47f0027146105e0578063c69c09cf146105f357600080fd5b80639285948a1161013b5780639285948a1461052a57806395d89b411461053d57806397a6278e146105455780639dc29fac146105585780639fc1d0e71461056b578063a457c2d71461057e57600080fd5b806370a08231146104d0578063715018a6146104e35780638456cb59146104eb57806384e79842146104f357806388d695b2146105065780638da5cb5b1461051957600080fd5b80633d1ddc5b1161022657806351411b33116101df57806351411b331461045a57806354fd4d501461046d5780635c975abb1461048e5780635dc7a3cb146104995780636290865d146104ac57806368573107146104bd57600080fd5b80633d1ddc5b146103f35780633f4ba83a1461040657806340c10f191461040e57806342a47abc146104215780634710362d146104345780634a6cc6771461044757600080fd5b80631a7af379116102785780631a7af3791461037f5780631fe56f7d146103925780631ffbb064146103a557806323b872dd146103b8578063313ce567146103cb57806339509351146103e057600080fd5b806306fdde03146102c0578063095ea7b3146102de578063125c4a3314610301578063134e18f414610316578063158b1a571461034057806318160ddd14610377575b600080fd5b6102c86106ca565b6040516102d59190612bf0565b60405180910390f35b6102f16102ec366004612c1f565b61075c565b60405190151581526020016102d5565b61031461030f366004612c1f565b610773565b005b606e5461010090046001600160a01b03165b6040516001600160a01b0390911681526020016102d5565b61036961034e366004612c49565b6001600160a01b03166000908152606d602052604090205490565b6040519081526020016102d5565b606854610369565b61031461038d366004612cb0565b6108a2565b6103146103a0366004612c1f565b610917565b6102f16103b3366004612c49565b610a40565b6102f16103c6366004612d1c565b610a4d565b606b5460405160ff90911681526020016102d5565b6102f16103ee366004612c1f565b610d56565b610314610401366004612c49565b610d8d565b610314610e49565b61031461041c366004612c1f565b610ef7565b61031461042f366004612d58565b611111565b610314610442366004612cb0565b6111a7565b610314610455366004612cb0565b61120c565b610314610468366004612c49565b611271565b604080518082019091526005815264332e352e3160d81b60208201526102c8565b606e5460ff166102f1565b6103146104a7366004612c49565b6112a7565b606f546001600160a01b0316610328565b6103146104cb366004612cb0565b6112b0565b6103696104de366004612c49565b611315565b610314611330565b6103146113a4565b610314610501366004612c49565b611429565b610314610514366004612cb0565b611495565b6033546001600160a01b0316610328565b6102f1610538366004612df2565b6114fb565b6102c861186b565b610314610553366004612c49565b61187a565b610314610566366004612c1f565b6118e6565b6102f1610579366004612d1c565b611a39565b6102f161058c366004612c1f565b611c16565b6102f161059f366004612c1f565b611c4d565b606b5461010090046001600160a01b0316610328565b6103146105c8366004612c49565b611ec3565b6103146105db366004612e35565b611ecc565b6103146105ee366004612e35565b611f77565b610314610601366004612eb5565b611fae565b610314610614366004612c49565b612028565b610369610627366004612eec565b6001600160a01b03918216600090815260676020908152604080832093909416825291909152205490565b6102f1610660366004612c49565b6001600160a01b03166000908152606c602052604090205460ff1690565b61031461068c366004612c49565b6120a4565b61031461069f366004612c49565b61218f565b6103146106b2366004612fc2565b612203565b6103146106c5366004612cb0565b6123ab565b6060606980546106d99061306f565b80601f01602080910402602001604051908101604052809291908181526020018280546107059061306f565b80156107525780601f1061072757610100808354040283529160200191610752565b820191906000526020600020905b81548152906001019060200180831161073557829003601f168201915b5050505050905090565b6000610769338484612410565b5060015b92915050565b61077c33610a40565b6107a15760405162461bcd60e51b8152600401610798906130a9565b60405180910390fd5b60006107ac83611315565b6001600160a01b0384166000908152606d60205260409020549091506107d390839061310d565b8110156108225760405162461bcd60e51b815260206004820181905260248201527f416d6f756e74206578636565647320617661696c61626c652062616c616e63656044820152606401610798565b6001600160a01b0383166000908152606d602052604090205461084690839061310d565b6001600160a01b0384166000818152606d6020526040908190209290925590517fa065e63c631c86f1b9f66a4a2f63f2093bf1c2168d23290259dbd969e0222a45906108959085815260200190565b60405180910390a2505050565b60005b83811015610910576108fe8585838181106108c2576108c2613120565b90506020020160208101906108d79190612c49565b8484848181106108e9576108e9613120565b90506020020160208101906106019190613136565b8061090881613153565b9150506108a5565b5050505050565b61092033610a40565b61093c5760405162461bcd60e51b8152600401610798906130a9565b6001600160a01b0382166000908152606d60205260409020548111156109c15760405162461bcd60e51b815260206004820152603460248201527f416d6f756e742073686f756c64206265206c657373207468616e206f7220657160448201527375616c20746f2066726f7a656e20746f6b656e7360601b6064820152608401610798565b6001600160a01b0382166000908152606d60205260409020546109e590829061316c565b6001600160a01b0383166000818152606d6020526040908190209290925590517f9bed35cb62ad0dba04f9d5bfee4b5bc91443e77da8a65c4c84834c51bb08b0d690610a349084815260200190565b60405180910390a25050565b600061076d606583612535565b606e5460009060ff1615610a735760405162461bcd60e51b81526004016107989061317f565b6001600160a01b0383166000908152606c602052604090205460ff16158015610ab557506001600160a01b0384166000908152606c602052604090205460ff16155b610af45760405162461bcd60e51b815260206004820152601060248201526f3bb0b63632ba1034b990333937bd32b760811b6044820152606401610798565b6001600160a01b0384166000908152606d6020526040902054610b1685611315565b610b20919061316c565b821115610b665760405162461bcd60e51b8152602060048201526014602482015273496e73756666696369656e742042616c616e636560601b6044820152606401610798565b606e5460405163b9209e3360e01b81526001600160a01b0385811660048301526101009092049091169063b9209e3390602401602060405180830381865afa158015610bb6573d6000803e3d6000fd5b505050506040513d601f19601f82011682018060405250810190610bda91906131a9565b8015610c565750606f546040516372331c7360e11b81526001600160a01b039091169063e46638e690610c15908790879087906004016131c6565b602060405180830381865afa158015610c32573d6000803e3d6000fd5b505050506040513d601f19601f82011682018060405250810190610c5691906131a9565b15610d0f57606f546040516322ebca6d60e21b81526001600160a01b0390911690638baf29b490610c8f908790879087906004016131c6565b600060405180830381600087803b158015610ca957600080fd5b505af1158015610cbd573d6000803e3d6000fd5b50505050610ccc8484846125be565b6001600160a01b038416600090815260676020908152604080832033808552925290912054610d07918691610d0290869061316c565b612410565b506001610d4f565b60405162461bcd60e51b81526020600482015260156024820152745472616e73666572206e6f7420706f737369626c6560581b6044820152606401610798565b9392505050565b3360008181526067602090815260408083206001600160a01b03871684529091528120549091610769918590610d0290869061310d565b6033546001600160a01b03163314610db75760405162461bcd60e51b8152600401610798906131ea565b606b80546001600160a01b03808416610100908102610100600160a81b031984168117948590556040805180820182526005815264332e352e3160d81b602082015290517f6a1105ac8148a3c319adbc369f9072573e8a11d3a3d195e067e7c40767ec54d196610e3e96606996606a9660ff9687169690921695909517949104169061329c565b60405180910390a150565b610e5233610a40565b610e6e5760405162461bcd60e51b8152600401610798906130a9565b606e5460ff16610eb75760405162461bcd60e51b815260206004820152601460248201527314185d5cd8589b194e881b9bdd081c185d5cd95960621b6044820152606401610798565b606e805460ff191690556040513381527f5db9ee0a495bf2e6ff9c91a7834c1ba4fdd244a5e8aa4e537bd38aeae4b073aa906020015b60405180910390a1565b610f0033610a40565b610f1c5760405162461bcd60e51b8152600401610798906130a9565b606e5460405163b9209e3360e01b81526001600160a01b0384811660048301526101009092049091169063b9209e3390602401602060405180830381865afa158015610f6c573d6000803e3d6000fd5b505050506040513d601f19601f82011682018060405250810190610f9091906131a9565b610fdc5760405162461bcd60e51b815260206004820152601960248201527f4964656e74697479206973206e6f742076657269666965642e000000000000006044820152606401610798565b606f546040516372331c7360e11b81526001600160a01b039091169063e46638e690611010903390869086906004016131c6565b602060405180830381865afa15801561102d573d6000803e3d6000fd5b505050506040513d601f19601f8201168201806040525081019061105191906131a9565b61109d5760405162461bcd60e51b815260206004820152601760248201527f436f6d706c69616e6365206e6f7420666f6c6c6f7765640000000000000000006044820152606401610798565b6110a7828261272c565b606f54604051635f8dead360e01b81526001600160a01b0384811660048301526024820184905290911690635f8dead390604401600060405180830381600087803b1580156110f557600080fd5b505af1158015611109573d6000803e3d6000fd5b505050505050565b60005b8581101561119e5761118b87878381811061113157611131613120565b90506020020160208101906111469190612c49565b86868481811061115857611158613120565b905060200201602081019061116d9190612c49565b85858581811061117f5761117f613120565b90506020020135611a39565b508061119681613153565b915050611114565b50505050505050565b60005b83811015610910576111fa8585838181106111c7576111c7613120565b90506020020160208101906111dc9190612c49565b8484848181106111ee576111ee613120565b90506020020135610917565b8061120481613153565b9150506111aa565b60005b838110156109105761125f85858381811061122c5761122c613120565b90506020020160208101906112419190612c49565b84848481811061125357611253613120565b905060200201356118e6565b8061126981613153565b91505061120f565b6033546001600160a01b0316331461129b5760405162461bcd60e51b8152600401610798906131ea565b6112a4816120a4565b50565b6112a48161187a565b60005b83811015610910576113038585838181106112d0576112d0613120565b90506020020160208101906112e59190612c49565b8484848181106112f7576112f7613120565b90506020020135610ef7565b8061130d81613153565b9150506112b3565b6001600160a01b031660009081526066602052604090205490565b6033546001600160a01b0316331461135a5760405162461bcd60e51b8152600401610798906131ea565b6033546040516000916001600160a01b0316907f8be0079c531659141344cd1fd0a4f28419497f9722a3daafe3b4186f6b6457e0908390a3603380546001600160a01b0319169055565b6113ad33610a40565b6113c95760405162461bcd60e51b8152600401610798906130a9565b606e5460ff16156113ec5760405162461bcd60e51b81526004016107989061317f565b606e805460ff191660011790556040513381527f62e78cea01bee320cd4e420270b5ea74000d11b0c9f74754ebdbfc544b05a25890602001610eed565b6033546001600160a01b031633146114535760405162461bcd60e51b8152600401610798906131ea565b61145e606582612814565b6040516001600160a01b038216907ff68e73cec97f2d70aa641fb26e87a4383686e2efacb648f2165aeb02ac562ec590600090a250565b60005b83811015610910576114e88585838181106114b5576114b5613120565b90506020020160208101906114ca9190612c49565b8484848181106114dc576114dc613120565b90506020020135611c4d565b50806114f381613153565b915050611498565b600061150633610a40565b6115225760405162461bcd60e51b8152600401610798906130a9565b61152b84611315565b6000036115715760405162461bcd60e51b81526020600482015260146024820152733737903a37b5b2b739903a37903932b1b7bb32b960611b6044820152606401610798565b604080516001600160a01b038516602082015283916000910160408051808303601f1901815290829052805160209091012063d202158d60e01b8252600482018190526001602483015291506001600160a01b0383169063d202158d90604401602060405180830381865afa1580156115ee573d6000803e3d6000fd5b505050506040513d601f19601f8201168201806040525081019061161291906131a9565b1561182b57600061162287611315565b6001600160a01b038881166000818152606d60205260409081902054606e549151637e42683b60e01b8152600481019390935293945061010090049091169063454a03e090899087908490637e42683b90602401602060405180830381865afa158015611693573d6000803e3d6000fd5b505050506040513d601f19601f820116820180604052508101906116b791906132f9565b6040516001600160e01b031960e086901b1681526001600160a01b03938416600482015292909116602483015261ffff166044820152606401600060405180830381600087803b15801561170a57600080fd5b505af115801561171e573d6000803e3d6000fd5b5050606e5460405163a8d29d1d60e01b81526001600160a01b038c81166004830152610100909204909116925063a8d29d1d9150602401600060405180830381600087803b15801561176f57600080fd5b505af1158015611783573d6000803e3d6000fd5b50505050611792888884611a39565b5080156117a3576117a38782610773565b6001600160a01b0388166000908152606c602052604090205460ff1615156001036117d3576117d3876001611fae565b604080516001600160a01b038a81168252898116602083015288168183015290517ff0c9129a94f30f1caaceb63e44b9811d0a3edf1d6c23757f346093af5553fed09181900360600190a16001945050505050610d4f565b60405162461bcd60e51b81526020600482015260156024820152745265636f76657279206e6f7420706f737369626c6560581b6044820152606401610798565b6060606a80546106d99061306f565b6033546001600160a01b031633146118a45760405162461bcd60e51b8152600401610798906131ea565b6118af60658261289e565b6040516001600160a01b038216907fed9c8ad8d5a0a66898ea49d2956929c93ae2e8bd50281b2ed897c5d1a6737e0b90600090a250565b6118ef33610a40565b61190b5760405162461bcd60e51b8152600401610798906130a9565b6001600160a01b0382166000908152606d602052604081205461192d84611315565b611937919061316c565b9050808211156119cd57600061194d828461316c565b6001600160a01b0385166000908152606d602052604090205490915061197490829061316c565b6001600160a01b0385166000818152606d6020526040908190209290925590517f9bed35cb62ad0dba04f9d5bfee4b5bc91443e77da8a65c4c84834c51bb08b0d6906119c39084815260200190565b60405180910390a2505b6119d78383612926565b606f5460405163469753b960e11b81526001600160a01b0385811660048301526024820185905290911690638d2ea77290604401600060405180830381600087803b158015611a2557600080fd5b505af115801561119e573d6000803e3d6000fd5b6000611a4433610a40565b611a605760405162461bcd60e51b8152600401610798906130a9565b6001600160a01b0384166000908152606d6020526040812054611a8286611315565b611a8c919061316c565b905080831115611b22576000611aa2828561316c565b6001600160a01b0387166000908152606d6020526040902054909150611ac990829061316c565b6001600160a01b0387166000818152606d6020526040908190209290925590517f9bed35cb62ad0dba04f9d5bfee4b5bc91443e77da8a65c4c84834c51bb08b0d690611b189084815260200190565b60405180910390a2505b606e5460405163b9209e3360e01b81526001600160a01b0386811660048301526101009092049091169063b9209e3390602401602060405180830381865afa158015611b72573d6000803e3d6000fd5b505050506040513d601f19601f82011682018060405250810190611b9691906131a9565b15610d0f57606f546040516322ebca6d60e21b81526001600160a01b0390911690638baf29b490611bcf908890889088906004016131c6565b600060405180830381600087803b158015611be957600080fd5b505af1158015611bfd573d6000803e3d6000fd5b50505050611c0c8585856125be565b6001915050610d4f565b3360008181526067602090815260408083206001600160a01b03871684529091528120549091610769918590610d0290869061316c565b606e5460009060ff1615611c735760405162461bcd60e51b81526004016107989061317f565b6001600160a01b0383166000908152606c602052604090205460ff16158015611cac5750336000908152606c602052604090205460ff16155b611ceb5760405162461bcd60e51b815260206004820152601060248201526f3bb0b63632ba1034b990333937bd32b760811b6044820152606401610798565b336000818152606d602052604090205490611d0590611315565b611d0f919061316c565b821115611d555760405162461bcd60e51b8152602060048201526014602482015273496e73756666696369656e742042616c616e636560601b6044820152606401610798565b606e5460405163b9209e3360e01b81526001600160a01b0385811660048301526101009092049091169063b9209e3390602401602060405180830381865afa158015611da5573d6000803e3d6000fd5b505050506040513d601f19601f82011682018060405250810190611dc991906131a9565b8015611e455750606f546040516372331c7360e11b81526001600160a01b039091169063e46638e690611e04903390879087906004016131c6565b602060405180830381865afa158015611e21573d6000803e3d6000fd5b505050506040513d601f19601f82011682018060405250810190611e4591906131a9565b15610d0f57606f546040516322ebca6d60e21b81526001600160a01b0390911690638baf29b490611e7e903390879087906004016131c6565b600060405180830381600087803b158015611e9857600080fd5b505af1158015611eac573d6000803e3d6000fd5b50505050611ebb3384846125be565b50600161076d565b6112a481611429565b6033546001600160a01b03163314611ef65760405162461bcd60e51b8152600401610798906131ea565b606a611f03828483613363565b50606b546040805180820182526005815264332e352e3160d81b602082015290517f6a1105ac8148a3c319adbc369f9072573e8a11d3a3d195e067e7c40767ec54d192611f6b92606992606a9260ff811692916101009091046001600160a01b03169061329c565b60405180910390a15050565b6033546001600160a01b03163314611fa15760405162461bcd60e51b8152600401610798906131ea565b6069611f03828483613363565b611fb733610a40565b611fd35760405162461bcd60e51b8152600401610798906130a9565b6001600160a01b0382166000818152606c6020526040808220805460ff19168515159081179091559051339391927f7fa523c84ab8d7fc5b72f08b9e46dbbf10c39e119a075b3e317002d14bc9f43691a45050565b6033546001600160a01b031633146120525760405162461bcd60e51b8152600401610798906131ea565b606e8054610100600160a81b0319166101006001600160a01b038416908102919091179091556040517fd2be862d755bca7e0d39772b2cab3a5578da9c285f69199f4c063c2294a7f36c90600090a250565b6033546001600160a01b031633146120ce5760405162461bcd60e51b8152600401610798906131ea565b6001600160a01b0381166121335760405162461bcd60e51b815260206004820152602660248201527f4f776e61626c653a206e6577206f776e657220697320746865207a65726f206160448201526564647265737360d01b6064820152608401610798565b6033546040516001600160a01b038084169216907f8be0079c531659141344cd1fd0a4f28419497f9722a3daafe3b4186f6b6457e090600090a3603380546001600160a01b0319166001600160a01b0392909216919091179055565b6033546001600160a01b031633146121b95760405162461bcd60e51b8152600401610798906131ea565b606f80546001600160a01b0319166001600160a01b0383169081179091556040517f7f3a888862559648ec01d97deb7b5012bff86dc91e654a1de397170db40e35b690600090a250565b60006122176033546001600160a01b031690565b6001600160a01b0316146122635760405162461bcd60e51b8152602060048201526013602482015272185b1c9958591e481a5b9a5d1a585b1a5e9959606a1b6044820152606401610798565b606961226f8582613423565b50606a61227c8482613423565b50606b805460ff84166001600160a81b0319909116176101006001600160a01b03848116820292909217909255606e8054610100600160a81b0319169189169283029190911790556040517fd2be862d755bca7e0d39772b2cab3a5578da9c285f69199f4c063c2294a7f36c90600090a2606f80546001600160a01b0319166001600160a01b0387169081179091556040517f7f3a888862559648ec01d97deb7b5012bff86dc91e654a1de397170db40e35b690600090a2606b546040805180820182526005815264332e352e3160d81b602082015290517f6a1105ac8148a3c319adbc369f9072573e8a11d3a3d195e067e7c40767ec54d19261239b92606992606a9260ff811692916101009091046001600160a01b03169061329c565b60405180910390a1611109612a12565b60005b83811015610910576123fe8585838181106123cb576123cb613120565b90506020020160208101906123e09190612c49565b8484848181106123f2576123f2613120565b90506020020135610773565b8061240881613153565b9150506123ae565b6001600160a01b0383166124725760405162461bcd60e51b8152602060048201526024808201527f45524332303a20617070726f76652066726f6d20746865207a65726f206164646044820152637265737360e01b6064820152608401610798565b6001600160a01b0382166124d35760405162461bcd60e51b815260206004820152602260248201527f45524332303a20617070726f766520746f20746865207a65726f206164647265604482015261737360f01b6064820152608401610798565b6001600160a01b0383811660008181526067602090815260408083209487168084529482529182902085905590518481527f8c5be1e5ebec7d5bd14f71427d1e84f3dd0314c0f7b2291e5b200ac8c7c3b92591015b60405180910390a3505050565b60006001600160a01b03821661259e5760405162461bcd60e51b815260206004820152602860248201527f526f6c65734c65676163793a206163636f756e7420697320746865207a65726f604482015267206164647265737360c01b6064820152608401610798565b506001600160a01b03166000908152602091909152604090205460ff1690565b6001600160a01b0383166126225760405162461bcd60e51b815260206004820152602560248201527f45524332303a207472616e736665722066726f6d20746865207a65726f206164604482015264647265737360d81b6064820152608401610798565b6001600160a01b0382166126845760405162461bcd60e51b815260206004820152602360248201527f45524332303a207472616e7366657220746f20746865207a65726f206164647260448201526265737360e81b6064820152608401610798565b6001600160a01b0383166000908152606660205260409020546126a890829061316c565b6001600160a01b0380851660009081526066602052604080822093909355908416815220546126d890829061310d565b6001600160a01b0380841660008181526066602052604090819020939093559151908516907fddf252ad1be2c89b69c2b068fc378daa952ba7f163c4a11628f55a4df523b3ef906125289085815260200190565b6001600160a01b0382166127825760405162461bcd60e51b815260206004820152601f60248201527f45524332303a206d696e7420746f20746865207a65726f2061646472657373006044820152606401610798565b80606854612790919061310d565b6068556001600160a01b0382166000908152606660205260409020546127b790829061310d565b6001600160a01b0383166000818152606660205260408082209390935591519091907fddf252ad1be2c89b69c2b068fc378daa952ba7f163c4a11628f55a4df523b3ef906128089085815260200190565b60405180910390a35050565b61281e8282612535565b156128795760405162461bcd60e51b815260206004820152602560248201527f526f6c65734c65676163793a206163636f756e7420616c72656164792068617360448201526420726f6c6560d81b6064820152608401610798565b6001600160a01b0316600090815260209190915260409020805460ff19166001179055565b6128a88282612535565b6129045760405162461bcd60e51b815260206004820152602760248201527f526f6c65734c65676163793a206163636f756e7420646f6573206e6f74206861604482015266766520726f6c6560c81b6064820152608401610798565b6001600160a01b0316600090815260209190915260409020805460ff19169055565b6001600160a01b0382166129865760405162461bcd60e51b815260206004820152602160248201527f45524332303a206275726e2066726f6d20746865207a65726f206164647265736044820152607360f81b6064820152608401610798565b6001600160a01b0382166000908152606660205260409020546129aa90829061316c565b6001600160a01b0383166000908152606660205260409020556068546129d190829061316c565b6068556040518181526000906001600160a01b038416907fddf252ad1be2c89b69c2b068fc378daa952ba7f163c4a11628f55a4df523b3ef90602001612808565b600054610100900460ff1680612a2b575060005460ff16155b612a475760405162461bcd60e51b8152600401610798906134e3565b600054610100900460ff16158015612a69576000805461ffff19166101011790555b612a71612a92565b612a79612afc565b80156112a4576000805461ff001916905550565b505050565b600054610100900460ff1680612aab575060005460ff16155b612ac75760405162461bcd60e51b8152600401610798906134e3565b600054610100900460ff16158015612a79576000805461ffff191661010117905580156112a4576000805461ff001916905550565b600054610100900460ff1680612b15575060005460ff16155b612b315760405162461bcd60e51b8152600401610798906134e3565b600054610100900460ff16158015612b53576000805461ffff19166101011790555b603380546001600160a01b0319163390811790915560405181906000907f8be0079c531659141344cd1fd0a4f28419497f9722a3daafe3b4186f6b6457e0908290a35080156112a4576000805461ff001916905550565b6000815180845260005b81811015612bd057602081850181015186830182015201612bb4565b506000602082860101526020601f19601f83011685010191505092915050565b602081526000610d4f6020830184612baa565b80356001600160a01b0381168114612c1a57600080fd5b919050565b60008060408385031215612c3257600080fd5b612c3b83612c03565b946020939093013593505050565b600060208284031215612c5b57600080fd5b610d4f82612c03565b60008083601f840112612c7657600080fd5b50813567ffffffffffffffff811115612c8e57600080fd5b6020830191508360208260051b8501011115612ca957600080fd5b9250929050565b60008060008060408587031215612cc657600080fd5b843567ffffffffffffffff80821115612cde57600080fd5b612cea88838901612c64565b90965094506020870135915080821115612d0357600080fd5b50612d1087828801612c64565b95989497509550505050565b600080600060608486031215612d3157600080fd5b612d3a84612c03565b9250612d4860208501612c03565b9150604084013590509250925092565b60008060008060008060608789031215612d7157600080fd5b863567ffffffffffffffff80821115612d8957600080fd5b612d958a838b01612c64565b90985096506020890135915080821115612dae57600080fd5b612dba8a838b01612c64565b90965094506040890135915080821115612dd357600080fd5b50612de089828a01612c64565b979a9699509497509295939492505050565b600080600060608486031215612e0757600080fd5b612e1084612c03565b9250612e1e60208501612c03565b9150612e2c60408501612c03565b90509250925092565b60008060208385031215612e4857600080fd5b823567ffffffffffffffff80821115612e6057600080fd5b818501915085601f830112612e7457600080fd5b813581811115612e8357600080fd5b866020828501011115612e9557600080fd5b60209290920196919550909350505050565b80151581146112a457600080fd5b60008060408385031215612ec857600080fd5b612ed183612c03565b91506020830135612ee181612ea7565b809150509250929050565b60008060408385031215612eff57600080fd5b612f0883612c03565b9150612f1660208401612c03565b90509250929050565b634e487b7160e01b600052604160045260246000fd5b600082601f830112612f4657600080fd5b813567ffffffffffffffff80821115612f6157612f61612f1f565b604051601f8301601f19908116603f01168101908282118183101715612f8957612f89612f1f565b81604052838152866020858801011115612fa257600080fd5b836020870160208301376000602085830101528094505050505092915050565b60008060008060008060c08789031215612fdb57600080fd5b612fe487612c03565b9550612ff260208801612c03565b9450604087013567ffffffffffffffff8082111561300f57600080fd5b61301b8a838b01612f35565b9550606089013591508082111561303157600080fd5b5061303e89828a01612f35565b935050608087013560ff8116811461305557600080fd5b915061306360a08801612c03565b90509295509295509295565b600181811c9082168061308357607f821691505b6020821081036130a357634e487b7160e01b600052602260045260246000fd5b50919050565b6020808252602e908201527f4167656e74526f6c653a2063616c6c657220646f6573206e6f7420686176652060408201526d746865204167656e7420726f6c6560901b606082015260800190565b634e487b7160e01b600052601160045260246000fd5b8082018082111561076d5761076d6130f7565b634e487b7160e01b600052603260045260246000fd5b60006020828403121561314857600080fd5b8135610d4f81612ea7565b600060018201613165576131656130f7565b5060010190565b8181038181111561076d5761076d6130f7565b60208082526010908201526f14185d5cd8589b194e881c185d5cd95960821b604082015260600190565b6000602082840312156131bb57600080fd5b8151610d4f81612ea7565b6001600160a01b039384168152919092166020820152604081019190915260600190565b6020808252818101527f4f776e61626c653a2063616c6c6572206973206e6f7420746865206f776e6572604082015260600190565b6000815461322c8161306f565b808552602060018381168015613249576001811461326357613291565b60ff1985168884015283151560051b880183019550613291565b866000528260002060005b858110156132895781548a820186015290830190840161326e565b890184019650505b505050505092915050565b60a0815260006132af60a083018861321f565b82810360208401526132c1818861321f565b905060ff8616604084015282810360608401526132de8186612baa565b91505060018060a01b03831660808301529695505050505050565b60006020828403121561330b57600080fd5b815161ffff81168114610d4f57600080fd5b601f821115612a8d57600081815260208120601f850160051c810160208610156133445750805b601f850160051c820191505b8181101561110957828155600101613350565b67ffffffffffffffff83111561337b5761337b612f1f565b61338f83613389835461306f565b8361331d565b6000601f8411600181146133c357600085156133ab5750838201355b600019600387901b1c1916600186901b178355610910565b600083815260209020601f19861690835b828110156133f457868501358255602094850194600190920191016133d4565b50868210156134115760001960f88860031b161c19848701351681555b505060018560011b0183555050505050565b815167ffffffffffffffff81111561343d5761343d612f1f565b6134518161344b845461306f565b8461331d565b602080601f831160018114613486576000841561346e5750858301515b600019600386901b1c1916600185901b178555611109565b600085815260208120601f198616915b828110156134b557888601518255948401946001909101908401613496565b50858210156134d35787850151600019600388901b60f8161c191681555b5050505050600190811b01905550565b60208082526034908201527f496e697469616c697a61626c654c65676163793a20636f6e747261637420697360408201527308185b1c9958591e481a5b9a5d1a585b1a5e995960621b60608201526080019056fea26469706673582212207fd63fd6d1ff85015dfaadaef34a19190a65ed397b5022810e426d0ef0f2d84364736f6c63430008110033",
  "linkReferences": {},
  "deployedLinkReferences": {}
}