{
  "_format": "hh-sol-artifact-1",
  "contractName": "LegacyToken_3_5_2",
  "sourceName": "contracts/erc3643/_testContracts/v_3_5_2/LegacyToken_3_5_2.sol",
  "abi": [
    {
      "anonymous": false,
      "inputs": [
        {
          "indexed": true,
          "internalType": "address",
          "name": "_userAddress",
          "type": "address"
        },
        {
          "indexed": true,
          "internalType": "bool",
          "name": "_isFrozen",
          "type": "bool"
        },
        {
          "indexed": true,
          "internalType": "address",
          "name": "_owner",
          "type": "address"
        }
      ],
      "name": "AddressFrozen",
      "type": "event"
    },
    {
      "anonymous": false,
      "inputs": [
        {
          "indexed": true,
          "internalType": "address",
          "name": "_agent",
          "type": "address"
        }
      ],
      "name": "AgentAdded",
      "type": "event"
    },
    {
      "anonymous": false,
      "inputs": [
        {
          "indexed": true,
          "internalType": "address",
          "name": "_agent",
          "type": "address"
        }
      ],
      "name": "AgentRemoved",
      "type": "event"
    },
    {
      "anonymous": false,
      "inputs": [
        {
          "indexed": true,
          "internalType": "address",
          "name": "owner",
          "type": "address"
        },
        {
          "indexed": true,
          "internalType": "address",
          "name": "spender",
          "type": "address"
        },
        {
          "indexed": false,
          "internalType": "uint256",
          "name": "value",
          "type": "uint256"
        }
      ],
      "name": "Approval",
      "type": "event"
    },
    {
      "anonymous": false,
      "inputs": [
        {
          "indexed": true,
          "internalType": "address",
          "name": "_compliance",
          "type": "address"
        }
      ],
      "name": "ComplianceAdded",
      "type": "event"
    },
    {
      "anonymous": false,
      "inputs": [
        {
          "indexed": true,
          "internalType": "address",
          "name": "_identityRegistry",
          "type": "address"
        }
      ],
      "name": "IdentityRegistryAdded",
      "type": "event"
    },
    {
      "anonymous": false,
      "inputs": [
        {
          "indexed": true,
          "internalType": "address",
          "name": "previousOwner",
          "type": "address"
        },
        {
          "indexed": true,
          "internalType": "address",
          "name": "newOwner",
          "type": "address"
        }
      ],
      "name": "OwnershipTransferred",
      "type": "event"
    },
    {
      "anonymous": false,
      "inputs": [
        {
          "indexed": false,
          "internalType": "address",
          "name": "_userAddress",
          "type": "address"
        }
      ],
      "name": "Paused",
      "type": "event"
    },
    {
      "anonymous": false,
      "inputs": [
        {
          "indexed": false,
          "internalType": "address",
          "name": "_lostWallet",
          "type": "address"
        },
        {
          "indexed": false,
          "internalType": "address",
          "name": "_newWallet",
          "type": "address"
        },
        {
          "indexed": false,
          "internalType": "address",
          "name": "_investorOnchainID",
          "type": "address"
        }
      ],
      "name": "RecoverySuccess",
      "type": "event"
    },
    {
      "anonymous": false,
      "inputs": [
        {
          "indexed": true,
          "internalType": "address",
          "name": "_userAddress",
          "type": "address"
        },
        {
          "indexed": false,
          "internalType": "uint256",
          "name": "_amount",
          "type": "uint256"
        }
      ],
      "name": "TokensFrozen",
      "type": "event"
    },
    {
      "anonymous": false,
      "inputs": [
        {
          "indexed": true,
          "internalType": "address",
          "name": "_userAddress",
          "type": "address"
        },
        {
          "indexed": false,
          "internalType": "uint256",
          "name": "_amount",
          "type": "uint256"
        }
      ],
      "name": "TokensUnfrozen",
      "type": "event"
    },
    {
      "anonymous": false,
      "inputs": [
        {
          "indexed": true,
          "internalType": "address",
          "name": "from",
          "type": "address"
        },
        {
          "indexed": true,
          "internalType": "address",
          "name": "to",
          "type": "address"
        },
        {
          "indexed": false,
          "internalType": "uint256",
          "name": "value",
          "type": "uint256"
        }
      ],
      "name": "Transfer",
      "type": "event"
    },
    {
      "anonymous": false,
      "inputs": [
        {
          "indexed": false,
          "internalType": "address",
          "name": "_userAddress",
          "type": "address"
        }
      ],
      "name": "Unpaused",
      "type": "event"
    },
    {
      "anonymous": false,
      "inputs": [
        {
          "indexed": false,
          "internalType": "string",
          "name": "_newName",
          "type": "string"
        },
        {
          "indexed": false,
          "internalType": "string",
          "name": "_newSymbol",
          "type": "string"
        },
        {
          "indexed": false,
          "internalType": "uint8",
          "name": "_newDecimals",
          "type": "uint8"
        },
        {
          "indexed": false,
          "internalType": "string",
          "name": "_newVersion",
          "type": "string"
        },
        {
          "indexed": false,
          "internalType": "address",
          "name": "_newOnchainID",
          "type": "address"
        }
      ],
      "name": "UpdatedTokenInformation",
      "type": "event"
    },
    {
      "inputs": [
        {
          "internalType": "address",
          "name": "_agent",
          "type": "address"
        }
      ],
      "name": "addAgent",
      "outputs": [],
      "stateMutability": "nonpayable",
      "type": "function"
    },
    {
      "inputs": [
        {
          "internalType": "address",
          "name": "_agent",
          "type": "address"
        }
      ],
      "name": "addAgentOnTokenContract",
      "outputs": [],
      "stateMutability": "nonpayable",
      "type": "function"
    },
    {
      "inputs": [
        {
          "internalType": "address",
          "name": "_owner",
          "type": "address"
        },
        {
          "internalType": "address",
          "name": "_spender",
          "type": "address"
        }
      ],
      "name": "allowance",
      "outputs": [
        {
          "internalType": "uint256",
          "name": "",
          "type": "uint256"
        }
      ],
      "stateMutability": "view",
      "type": "function"
    },
    {
      "inputs": [
        {
          "internalType": "address",
          "name": "_spender",
          "type": "address"
        },
        {
          "internalType": "uint256",
          "name": "_amount",
          "type": "uint256"
        }
      ],
      "name": "approve",
      "outputs": [
        {
          "internalType": "bool",
          "name": "",
          "type": "bool"
        }
      ],
      "stateMutability": "nonpayable",
      "type": "function"
    },
    {
      "inputs": [
        {
          "internalType": "address",
          "name": "_userAddress",
          "type": "address"
        }
      ],
      "name": "balanceOf",
      "outputs": [
        {
          "internalType": "uint256",
          "name": "",
          "type": "uint256"
        }
      ],
      "stateMutability": "view",
      "type": "function"
    },
    {
      "inputs": [
        {
          "internalType": "address[]",
          "name": "_userAddresses",
          "type": "address[]"
        },
        {
          "internalType": "uint256[]",
          "name": "_amounts",
          "type": "uint256[]"
        }
      ],
      "name": "batchBurn",
      "outputs": [],
      "stateMutability": "nonpayable",
      "type": "function"
    },
    {
      "inputs": [
        {
          "internalType": "address[]",
          "name": "_fromList",
          "type": "address[]"
        },
        {
          "internalType": "address[]",
          "name": "_toList",
          "type": "address[]"
        },
        {
          "internalType": "uint256[]",
          "name": "_amounts",
          "type": "uint256[]"
        }
      ],
      "name": "batchForcedTransfer",
      "outputs": [],
      "stateMutability": "nonpayable",
      "type": "function"
    },
    {
      "inputs": [
        {
          "internalType": "address[]",
          "name": "_userAddresses",
          "type": "address[]"
        },
        {
          "internalType": "uint256[]",
          "name": "_amounts",
          "type": "uint256[]"
        }
      ],
      "name": "batchFreezePartialTokens",
      "outputs": [],
      "stateMutability": "nonpayable",
      "type": "function"
    },
    {
      "inputs": [
        {
          "internalType": "address[]",
          "name": "_toList",
          "type": "address[]"
        },
        {
          "internalType": "uint256[]",
          "name": "_amounts",
          "type": "uint256[]"
        }
      ],
      "name": "batchMint",
      "outputs": [],
      "stateMutability": "nonpayable",
      "type": "function"
    },
    {
      "inputs": [
        {
          "internalType": "address[]",
          "name": "_userAddresses",
          "type": "address[]"
        },
        {
          "internalType": "bool[]",
          "name": "_freeze",
          "type": "bool[]"
        }
      ],
      "name": "batchSetAddressFrozen",
      "outputs": [],
      "stateMutability": "nonpayable",
      "type": "function"
    },
    {
      "inputs": [
        {
          "internalType": "address[]",
          "name": "_toList",
          "type": "address[]"
        },
        {
          "internalType": "uint256[]",
          "name": "_amounts",
          "type": "uint256[]"
        }
      ],
      "name": "batchTransfer",
      "outputs": [],
      "stateMutability": "nonpayable",
      "type": "function"
    },
    {
      "inputs": [
        {
          "internalType": "address[]",
          "name": "_userAddresses",
          "type": "address[]"
        },
        {
          "internalType": "uint256[]",
          "name": "_amounts",
          "type": "uint256[]"
        }
      ],
      "name": "batchUnfreezePartialTokens",
      "outputs": [],
      "stateMutability": "nonpayable",
      "type": "function"
    },
    {
      "inputs": [
        {
          "internalType": "address",
          "name": "_userAddress",
          "type": "address"
        },
        {
          "internalType": "uint256",
          "name": "_amount",
          "type": "uint256"
        }
      ],
      "name": "burn",
      "outputs": [],
      "stateMutability": "nonpayable",
      "type": "function"
    },
    {
      "inputs": [],
      "name": "compliance",
      "outputs": [
        {
          "internalType": "contract IComplianceLegacy",
          "name": "",
          "type": "address"
        }
      ],
      "stateMutability": "view",
      "type": "function"
    },
    {
      "inputs": [],
      "name": "decimals",
      "outputs": [
        {
          "internalType": "uint8",
          "name": "",
          "type": "uint8"
        }
      ],
      "stateMutability": "view",
      "type": "function"
    },
    {
      "inputs": [
        {
          "internalType": "address",
          "name": "_spender",
          "type": "address"
        },
        {
          "internalType": "uint256",
          "name": "_subtractedValue",
          "type": "uint256"
        }
      ],
      "name": "decreaseAllowance",
      "outputs": [
        {
          "internalType": "bool",
          "name": "",
          "type": "bool"
        }
      ],
      "stateMutability": "nonpayable",
      "type": "function"
    },
    {
      "inputs": [
        {
          "internalType": "address",
          "name": "_from",
          "type": "address"
        },
        {
          "internalType": "address",
          "name": "_to",
          "type": "address"
        },
        {
          "internalType": "uint256",
          "name": "_amount",
          "type": "uint256"
        }
      ],
      "name": "forcedTransfer",
      "outputs": [
        {
          "internalType": "bool",
          "name": "",
          "type": "bool"
        }
      ],
      "stateMutability": "nonpayable",
      "type": "function"
    },
    {
      "inputs": [
        {
          "internalType": "address",
          "name": "_userAddress",
          "type": "address"
        },
        {
          "internalType": "uint256",
          "name": "_amount",
          "type": "uint256"
        }
      ],
      "name": "freezePartialTokens",
      "outputs": [],
      "stateMutability": "nonpayable",
      "type": "function"
    },
    {
      "inputs": [
        {
          "internalType": "address",
          "name": "_userAddress",
          "type": "address"
        }
      ],
      "name": "getFrozenTokens",
      "outputs": [
        {
          "internalType": "uint256",
          "name": "",
          "type": "uint256"
        }
      ],
      "stateMutability": "view",
      "type": "function"
    },
    {
      "inputs": [],
      "name": "identityRegistry",
      "outputs": [
        {
          "internalType": "contract IIdentityRegistryLegacy",
          "name": "",
          "type": "address"
        }
      ],
      "stateMutability": "view",
      "type": "function"
    },
    {
      "inputs": [
        {
          "internalType": "address",
          "name": "_spender",
          "type": "address"
        },
        {
          "internalType": "uint256",
          "name": "_addedValue",
          "type": "uint256"
        }
      ],
      "name": "increaseAllowance",
      "outputs": [
        {
          "internalType": "bool",
          "name": "",
          "type": "bool"
        }
      ],
      "stateMutability": "nonpayable",
      "type": "function"
    },
    {
      "inputs": [
        {
          "internalType": "address",
          "name": "_identityRegistry",
          "type": "address"
        },
        {
          "internalType": "address",
          "name": "_compliance",
          "type": "address"
        },
        {
          "internalType": "string",
          "name": "_name",
          "type": "string"
        },
        {
          "internalType": "string",
          "name": "_symbol",
          "type": "string"
        },
        {
          "internalType": "uint8",
          "name": "_decimals",
          "type": "uint8"
        },
        {
          "internalType": "address",
          "name": "_onchainID",
          "type": "address"
        }
      ],
      "name": "init",
      "outputs": [],
      "stateMutability": "nonpayable",
      "type": "function"
    },
    {
      "inputs": [
        {
          "internalType": "address",
          "name": "_agent",
          "type": "address"
        }
      ],
      "name": "isAgent",
      "outputs": [
        {
          "internalType": "bool",
          "name": "",
          "type": "bool"
        }
      ],
      "stateMutability": "view",
      "type": "function"
    },
    {
      "inputs": [
        {
          "internalType": "address",
          "name": "_userAddress",
          "type": "address"
        }
      ],
      "name": "isFrozen",
      "outputs": [
        {
          "internalType": "bool",
          "name": "",
          "type": "bool"
        }
      ],
      "stateMutability": "view",
      "type": "function"
    },
    {
      "inputs": [
        {
          "internalType": "address",
          "name": "_to",
          "type": "address"
        },
        {
          "internalType": "uint256",
          "name": "_amount",
          "type": "uint256"
        }
      ],
      "name": "mint",
      "outputs": [],
      "stateMutability": "nonpayable",
      "type": "function"
    },
    {
      "inputs": [],
      "name": "name",
      "outputs": [
        {
          "internalType": "string",
          "name": "",
          "type": "string"
        }
      ],
      "stateMutability": "view",
      "type": "function"
    },
    {
      "inputs": [],
      "name": "onchainID",
      "outputs": [
        {
          "internalType": "address",
          "name": "",
          "type": "address"
        }
      ],
      "stateMutability": "view",
      "type": "function"
    },
    {
      "inputs": [],
      "name": "owner",
      "outputs": [
        {
          "internalType": "address",
          "name": "",
          "type": "address"
        }
      ],
      "stateMutability": "view",
      "type": "function"
    },
    {
      "inputs": [],
      "name": "pause",
      "outputs": [],
      "stateMutability": "nonpayable",
      "type": "function"
    },
    {
      "inputs": [],
      "name": "paused",
      "outputs": [
        {
          "internalType": "bool",
          "name": "",
          "type": "bool"
        }
      ],
      "stateMutability": "view",
      "type": "function"
    },
    {
      "inputs": [
        {
          "internalType": "address",
          "name": "_lostWallet",
          "type": "address"
        },
        {
          "internalType": "address",
          "name": "_newWallet",
          "type": "address"
        },
        {
          "internalType": "address",
          "name": "_investorOnchainID",
          "type": "address"
        }
      ],
      "name": "recoveryAddress",
      "outputs": [
        {
          "internalType": "bool",
          "name": "",
          "type": "bool"
        }
      ],
      "stateMutability": "nonpayable",
      "type": "function"
    },
    {
      "inputs": [
        {
          "internalType": "address",
          "name": "_agent",
          "type": "address"
        }
      ],
      "name": "removeAgent",
      "outputs": [],
      "stateMutability": "nonpayable",
      "type": "function"
    },
    {
      "inputs": [
        {
          "internalType": "address",
          "name": "_agent",
          "type": "address"
        }
      ],
      "name": "removeAgentOnTokenContract",
      "outputs": [],
      "stateMutability": "nonpayable",
      "type": "function"
    },
    {
      "inputs": [],
      "name": "renounceOwnership",
      "outputs": [],
      "stateMutability": "nonpayable",
      "type": "function"
    },
    {
      "inputs": [
        {
          "internalType": "address",
          "name": "_userAddress",
          "type": "address"
        },
        {
          "internalType": "bool",
          "name": "_freeze",
          "type": "bool"
        }
      ],
      "name": "setAddressFrozen",
      "outputs": [],
      "stateMutability": "nonpayable",
      "type": "function"
    },
    {
      "inputs": [
        {
          "internalType": "address",
          "name": "_compliance",
          "type": "address"
        }
      ],
      "name": "setCompliance",
      "outputs": [],
      "stateMutability": "nonpayable",
      "type": "function"
    },
    {
      "inputs": [
        {
          "internalType": "address",
          "name": "_identityRegistry",
          "type": "address"
        }
      ],
      "name": "setIdentityRegistry",
      "outputs": [],
      "stateMutability": "nonpayable",
      "type": "function"
    },
    {
      "inputs": [
        {
          "internalType": "string",
          "name": "_name",
          "type": "string"
        }
      ],
      "name": "setName",
      "outputs": [],
      "stateMutability": "nonpayable",
      "type": "function"
    },
    {
      "inputs": [
        {
          "internalType": "address",
          "name": "_onchainID",
          "type": "address"
        }
      ],
      "name": "setOnchainID",
      "outputs": [],
      "stateMutability": "nonpayable",
      "type": "function"
    },
    {
      "inputs": [
        {
          "internalType": "string",
          "name": "_symbol",
          "type": "string"
        }
      ],
      "name": "setSymbol",
      "outputs": [],
      "stateMutability": "nonpayable",
      "type": "function"
    },
    {
      "inputs": [],
      "name": "symbol",
      "outputs": [
        {
          "internalType": "string",
          "name": "",
          "type": "string"
        }
      ],
      "stateMutability": "view",
      "type": "function"
    },
    {
      "inputs": [],
      "name": "totalSupply",
      "outputs": [
        {
          "internalType": "uint256",
          "name": "",
          "type": "uint256"
        }
      ],
      "stateMutability": "view",
      "type": "function"
    },
    {
      "inputs": [
        {
          "internalType": "address",
          "name": "_to",
          "type": "address"
        },
        {
          "internalType": "uint256",
          "name": "_amount",
          "type": "uint256"
        }
      ],
      "name": "transfer",
      "outputs": [
        {
          "internalType": "bool",
          "name": "",
          "type": "bool"
        }
      ],
      "stateMutability": "nonpayable",
      "type": "function"
    },
    {
      "inputs": [
        {
          "internalType": "address",
          "name": "_from",
          "type": "address"
        },
        {
          "internalType": "address",
          "name": "_to",
          "type": "address"
        },
        {
          "internalType": "uint256",
          "name": "_amount",
          "type": "uint256"
        }
      ],
      "name": "transferFrom",
      "outputs": [
        {
          "internalType": "bool",
          "name": "",
          "type": "bool"
        }
      ],
      "stateMutability": "nonpayable",
      "type": "function"
    },
    {
      "inputs": [
        {
          "internalType": "address",
          "name": "newOwner",
          "type": "address"
        }
      ],
      "name": "transferOwnership",
      "outputs": [],
      "stateMutability": "nonpayable",
      "type": "function"
    },
    {
      "inputs": [
        {
          "internalType": "address",
          "name": "_newOwner",
          "type": "address"
        }
      ],
      "name": "transferOwnershipOnTokenContract",
      "outputs": [],
      "stateMutability": "nonpayable",
      "type": "function"
    },
    {
      "inputs": [
        {
          "internalType": "address",
          "name": "_userAddress",
          "type": "address"
        },
        {
          "internalType": "uint256",
          "name": "_amount",
          "type": "uint256"
        }
      ],
      "name": "unfreezePartialTokens",
      "outputs": [],
      "stateMutability": "nonpayable",
      "type": "function"
    },
    {
      "inputs": [],
      "name": "unpause",
      "outputs": [],
      "stateMutability": "nonpayable",
      "type": "function"
    },
    {
      "inputs": [],
      "name": "version",
      "outputs": [
        {
          "internalType": "string",
          "name": "",
          "type": "string"
        }
      ],
      "stateMutability": "view",
      "type": "function"
    }
  ],
  "bytecode": "0x6080604052606e805460ff1916905534801561001a57600080fd5b506135108061002a6000396000f3fe608060405234801561001057600080fd5b50600436106102bb5760003560e01c806370a0823111610182578063a9059cbb116100e9578063cbf3f861116100a2578063f2fde38b1161007c578063f2fde38b1461067e578063f898178914610691578063f91b619c146106a4578063fc7e5fa8146106b757600080fd5b8063cbf3f86114610606578063dd62ed3e14610619578063e58398361461065257600080fd5b8063a9059cbb14610591578063aba63705146105a4578063b422d830146105ba578063b84c8246146105cd578063c47f0027146105e0578063c69c09cf146105f357600080fd5b80639285948a1161013b5780639285948a1461052a57806395d89b411461053d57806397a6278e146105455780639dc29fac146105585780639fc1d0e71461056b578063a457c2d71461057e57600080fd5b806370a08231146104d0578063715018a6146104e35780638456cb59146104eb57806384e79842146104f357806388d695b2146105065780638da5cb5b1461051957600080fd5b80633d1ddc5b1161022657806351411b33116101df57806351411b331461045a57806354fd4d501461046d5780635c975abb1461048e5780635dc7a3cb146104995780636290865d146104ac57806368573107146104bd57600080fd5b80633d1ddc5b146103f35780633f4ba83a1461040657806340c10f191461040e57806342a47abc146104215780634710362d146104345780634a6cc6771461044757600080fd5b80631a7af379116102785780631a7af3791461037f5780631fe56f7d146103925780631ffbb064146103a557806323b872dd146103b8578063313ce567146103cb57806339509351146103e057600080fd5b806306fdde03146102c0578063095ea7b3146102de578063125c4a3314610301578063134e18f414610316578063158b1a571461034057806318160ddd14610377575b600080fd5b6102c86106ca565b6040516102d59190612baa565b60405180910390f35b6102f16102ec366004612bd9565b61075c565b60405190151581526020016102d5565b61031461030f366004612bd9565b610773565b005b606e5461010090046001600160a01b03165b6040516001600160a01b0390911681526020016102d5565b61036961034e366004612c03565b6001600160a01b03166000908152606d602052604090205490565b6040519081526020016102d5565b606854610369565b61031461038d366004612c6a565b6108a2565b6103146103a0366004612bd9565b61090d565b6102f16103b3366004612c03565b610a36565b6102f16103c6366004612cd6565b610a43565b606b5460405160ff90911681526020016102d5565b6102f16103ee366004612bd9565b610d4c565b610314610401366004612c03565b610d83565b610314610e3f565b61031461041c366004612bd9565b610eed565b61031461042f366004612d12565b611107565b610314610442366004612c6a565b611193565b610314610455366004612c6a565b6111ee565b610314610468366004612c03565b611249565b604080518082019091526005815264332e352e3160d81b60208201526102c8565b606e5460ff166102f1565b6103146104a7366004612c03565b61127f565b606f546001600160a01b0316610328565b6103146104cb366004612c6a565b611288565b6103696104de366004612c03565b6112e3565b6103146112fe565b610314611372565b610314610501366004612c03565b6113f7565b610314610514366004612c6a565b611463565b6033546001600160a01b0316610328565b6102f1610538366004612dac565b6114bf565b6102c861182f565b610314610553366004612c03565b61183e565b610314610566366004612bd9565b6118aa565b6102f1610579366004612cd6565b6119fd565b6102f161058c366004612bd9565b611bda565b6102f161059f366004612bd9565b611c11565b606b5461010090046001600160a01b0316610328565b6103146105c8366004612c03565b611e87565b6103146105db366004612def565b611e90565b6103146105ee366004612def565b611f3b565b610314610601366004612e6f565b611f72565b610314610614366004612c03565b611fec565b610369610627366004612ea6565b6001600160a01b03918216600090815260676020908152604080832093909416825291909152205490565b6102f1610660366004612c03565b6001600160a01b03166000908152606c602052604090205460ff1690565b61031461068c366004612c03565b612068565b61031461069f366004612c03565b612153565b6103146106b2366004612f7c565b6121c7565b6103146106c5366004612c6a565b61236f565b6060606980546106d990613029565b80601f016020809104026020016040519081016040528092919081815260200182805461070590613029565b80156107525780601f1061072757610100808354040283529160200191610752565b820191906000526020600020905b81548152906001019060200180831161073557829003601f168201915b5050505050905090565b60006107693384846123ca565b5060015b92915050565b61077c33610a36565b6107a15760405162461bcd60e51b815260040161079890613063565b60405180910390fd5b60006107ac836112e3565b6001600160a01b0384166000908152606d60205260409020549091506107d39083906130c7565b8110156108225760405162461bcd60e51b815260206004820181905260248201527f416d6f756e74206578636565647320617661696c61626c652062616c616e63656044820152606401610798565b6001600160a01b0383166000908152606d60205260409020546108469083906130c7565b6001600160a01b0384166000818152606d6020526040908190209290925590517fa065e63c631c86f1b9f66a4a2f63f2093bf1c2168d23290259dbd969e0222a45906108959085815260200190565b60405180910390a2505050565b60005b83811015610906576108fe8585838181106108c2576108c26130da565b90506020020160208101906108d79190612c03565b8484848181106108e9576108e96130da565b905060200201602081019061060191906130f0565b6001016108a5565b5050505050565b61091633610a36565b6109325760405162461bcd60e51b815260040161079890613063565b6001600160a01b0382166000908152606d60205260409020548111156109b75760405162461bcd60e51b815260206004820152603460248201527f416d6f756e742073686f756c64206265206c657373207468616e206f7220657160448201527375616c20746f2066726f7a656e20746f6b656e7360601b6064820152608401610798565b6001600160a01b0382166000908152606d60205260409020546109db90829061310d565b6001600160a01b0383166000818152606d6020526040908190209290925590517f9bed35cb62ad0dba04f9d5bfee4b5bc91443e77da8a65c4c84834c51bb08b0d690610a2a9084815260200190565b60405180910390a25050565b600061076d6065836124ef565b606e5460009060ff1615610a695760405162461bcd60e51b815260040161079890613120565b6001600160a01b0383166000908152606c602052604090205460ff16158015610aab57506001600160a01b0384166000908152606c602052604090205460ff16155b610aea5760405162461bcd60e51b815260206004820152601060248201526f3bb0b63632ba1034b990333937bd32b760811b6044820152606401610798565b6001600160a01b0384166000908152606d6020526040902054610b0c856112e3565b610b16919061310d565b821115610b5c5760405162461bcd60e51b8152602060048201526014602482015273496e73756666696369656e742042616c616e636560601b6044820152606401610798565b606e5460405163b9209e3360e01b81526001600160a01b0385811660048301526101009092049091169063b9209e3390602401602060405180830381865afa158015610bac573d6000803e3d6000fd5b505050506040513d601f19601f82011682018060405250810190610bd0919061314a565b8015610c4c5750606f546040516372331c7360e11b81526001600160a01b039091169063e46638e690610c0b90879087908790600401613167565b602060405180830381865afa158015610c28573d6000803e3d6000fd5b505050506040513d601f19601f82011682018060405250810190610c4c919061314a565b15610d0557606f546040516322ebca6d60e21b81526001600160a01b0390911690638baf29b490610c8590879087908790600401613167565b600060405180830381600087803b158015610c9f57600080fd5b505af1158015610cb3573d6000803e3d6000fd5b50505050610cc2848484612578565b6001600160a01b038416600090815260676020908152604080832033808552925290912054610cfd918691610cf890869061310d565b6123ca565b506001610d45565b60405162461bcd60e51b81526020600482015260156024820152745472616e73666572206e6f7420706f737369626c6560581b6044820152606401610798565b9392505050565b3360008181526067602090815260408083206001600160a01b03871684529091528120549091610769918590610cf89086906130c7565b6033546001600160a01b03163314610dad5760405162461bcd60e51b81526004016107989061318b565b606b80546001600160a01b03808416610100908102610100600160a81b031984168117948590556040805180820182526005815264332e352e3160d81b602082015290517f6a1105ac8148a3c319adbc369f9072573e8a11d3a3d195e067e7c40767ec54d196610e3496606996606a9660ff9687169690921695909517949104169061323d565b60405180910390a150565b610e4833610a36565b610e645760405162461bcd60e51b815260040161079890613063565b606e5460ff16610ead5760405162461bcd60e51b815260206004820152601460248201527314185d5cd8589b194e881b9bdd081c185d5cd95960621b6044820152606401610798565b606e805460ff191690556040513381527f5db9ee0a495bf2e6ff9c91a7834c1ba4fdd244a5e8aa4e537bd38aeae4b073aa906020015b60405180910390a1565b610ef633610a36565b610f125760405162461bcd60e51b815260040161079890613063565b606e5460405163b9209e3360e01b81526001600160a01b0384811660048301526101009092049091169063b9209e3390602401602060405180830381865afa158015610f62573d6000803e3d6000fd5b505050506040513d601f19601f82011682018060405250810190610f86919061314a565b610fd25760405162461bcd60e51b815260206004820152601960248201527f4964656e74697479206973206e6f742076657269666965642e000000000000006044820152606401610798565b606f546040516372331c7360e11b81526001600160a01b039091169063e46638e69061100690339086908690600401613167565b602060405180830381865afa158015611023573d6000803e3d6000fd5b505050506040513d601f19601f82011682018060405250810190611047919061314a565b6110935760405162461bcd60e51b815260206004820152601760248201527f436f6d706c69616e6365206e6f7420666f6c6c6f7765640000000000000000006044820152606401610798565b61109d82826126e6565b606f54604051635f8dead360e01b81526001600160a01b0384811660048301526024820184905290911690635f8dead390604401600060405180830381600087803b1580156110eb57600080fd5b505af11580156110ff573d6000803e3d6000fd5b505050505050565b60005b8581101561118a57611181878783818110611127576111276130da565b905060200201602081019061113c9190612c03565b86868481811061114e5761114e6130da565b90506020020160208101906111639190612c03565b858585818110611175576111756130da565b905060200201356119fd565b5060010161110a565b50505050505050565b60005b83811015610906576111e68585838181106111b3576111b36130da565b90506020020160208101906111c89190612c03565b8484848181106111da576111da6130da565b9050602002013561090d565b600101611196565b60005b838110156109065761124185858381811061120e5761120e6130da565b90506020020160208101906112239190612c03565b848484818110611235576112356130da565b905060200201356118aa565b6001016111f1565b6033546001600160a01b031633146112735760405162461bcd60e51b81526004016107989061318b565b61127c81612068565b50565b61127c8161183e565b60005b83811015610906576112db8585838181106112a8576112a86130da565b90506020020160208101906112bd9190612c03565b8484848181106112cf576112cf6130da565b90506020020135610eed565b60010161128b565b6001600160a01b031660009081526066602052604090205490565b6033546001600160a01b031633146113285760405162461bcd60e51b81526004016107989061318b565b6033546040516000916001600160a01b0316907f8be0079c531659141344cd1fd0a4f28419497f9722a3daafe3b4186f6b6457e0908390a3603380546001600160a01b0319169055565b61137b33610a36565b6113975760405162461bcd60e51b815260040161079890613063565b606e5460ff16156113ba5760405162461bcd60e51b815260040161079890613120565b606e805460ff191660011790556040513381527f62e78cea01bee320cd4e420270b5ea74000d11b0c9f74754ebdbfc544b05a25890602001610ee3565b6033546001600160a01b031633146114215760405162461bcd60e51b81526004016107989061318b565b61142c6065826127ce565b6040516001600160a01b038216907ff68e73cec97f2d70aa641fb26e87a4383686e2efacb648f2165aeb02ac562ec590600090a250565b60005b83811015610906576114b6858583818110611483576114836130da565b90506020020160208101906114989190612c03565b8484848181106114aa576114aa6130da565b90506020020135611c11565b50600101611466565b60006114ca33610a36565b6114e65760405162461bcd60e51b815260040161079890613063565b6114ef846112e3565b6000036115355760405162461bcd60e51b81526020600482015260146024820152733737903a37b5b2b739903a37903932b1b7bb32b960611b6044820152606401610798565b604080516001600160a01b038516602082015283916000910160408051808303601f1901815290829052805160209091012063d202158d60e01b8252600482018190526001602483015291506001600160a01b0383169063d202158d90604401602060405180830381865afa1580156115b2573d6000803e3d6000fd5b505050506040513d601f19601f820116820180604052508101906115d6919061314a565b156117ef5760006115e6876112e3565b6001600160a01b038881166000818152606d60205260409081902054606e549151637e42683b60e01b8152600481019390935293945061010090049091169063454a03e090899087908490637e42683b90602401602060405180830381865afa158015611657573d6000803e3d6000fd5b505050506040513d601f19601f8201168201806040525081019061167b919061329a565b6040516001600160e01b031960e086901b1681526001600160a01b03938416600482015292909116602483015261ffff166044820152606401600060405180830381600087803b1580156116ce57600080fd5b505af11580156116e2573d6000803e3d6000fd5b5050606e5460405163a8d29d1d60e01b81526001600160a01b038c81166004830152610100909204909116925063a8d29d1d9150602401600060405180830381600087803b15801561173357600080fd5b505af1158015611747573d6000803e3d6000fd5b505050506117568888846119fd565b508015611767576117678782610773565b6001600160a01b0388166000908152606c602052604090205460ff16151560010361179757611797876001611f72565b604080516001600160a01b038a81168252898116602083015288168183015290517ff0c9129a94f30f1caaceb63e44b9811d0a3edf1d6c23757f346093af5553fed09181900360600190a16001945050505050610d45565b60405162461bcd60e51b81526020600482015260156024820152745265636f76657279206e6f7420706f737369626c6560581b6044820152606401610798565b6060606a80546106d990613029565b6033546001600160a01b031633146118685760405162461bcd60e51b81526004016107989061318b565b611873606582612858565b6040516001600160a01b038216907fed9c8ad8d5a0a66898ea49d2956929c93ae2e8bd50281b2ed897c5d1a6737e0b90600090a250565b6118b333610a36565b6118cf5760405162461bcd60e51b815260040161079890613063565b6001600160a01b0382166000908152606d60205260408120546118f1846112e3565b6118fb919061310d565b905080821115611991576000611911828461310d565b6001600160a01b0385166000908152606d602052604090205490915061193890829061310d565b6001600160a01b0385166000818152606d6020526040908190209290925590517f9bed35cb62ad0dba04f9d5bfee4b5bc91443e77da8a65c4c84834c51bb08b0d6906119879084815260200190565b60405180910390a2505b61199b83836128e0565b606f5460405163469753b960e11b81526001600160a01b0385811660048301526024820185905290911690638d2ea77290604401600060405180830381600087803b1580156119e957600080fd5b505af115801561118a573d6000803e3d6000fd5b6000611a0833610a36565b611a245760405162461bcd60e51b815260040161079890613063565b6001600160a01b0384166000908152606d6020526040812054611a46866112e3565b611a50919061310d565b905080831115611ae6576000611a66828561310d565b6001600160a01b0387166000908152606d6020526040902054909150611a8d90829061310d565b6001600160a01b0387166000818152606d6020526040908190209290925590517f9bed35cb62ad0dba04f9d5bfee4b5bc91443e77da8a65c4c84834c51bb08b0d690611adc9084815260200190565b60405180910390a2505b606e5460405163b9209e3360e01b81526001600160a01b0386811660048301526101009092049091169063b9209e3390602401602060405180830381865afa158015611b36573d6000803e3d6000fd5b505050506040513d601f19601f82011682018060405250810190611b5a919061314a565b15610d0557606f546040516322ebca6d60e21b81526001600160a01b0390911690638baf29b490611b9390889088908890600401613167565b600060405180830381600087803b158015611bad57600080fd5b505af1158015611bc1573d6000803e3d6000fd5b50505050611bd0858585612578565b6001915050610d45565b3360008181526067602090815260408083206001600160a01b03871684529091528120549091610769918590610cf890869061310d565b606e5460009060ff1615611c375760405162461bcd60e51b815260040161079890613120565b6001600160a01b0383166000908152606c602052604090205460ff16158015611c705750336000908152606c602052604090205460ff16155b611caf5760405162461bcd60e51b815260206004820152601060248201526f3bb0b63632ba1034b990333937bd32b760811b6044820152606401610798565b336000818152606d602052604090205490611cc9906112e3565b611cd3919061310d565b821115611d195760405162461bcd60e51b8152602060048201526014602482015273496e73756666696369656e742042616c616e636560601b6044820152606401610798565b606e5460405163b9209e3360e01b81526001600160a01b0385811660048301526101009092049091169063b9209e3390602401602060405180830381865afa158015611d69573d6000803e3d6000fd5b505050506040513d601f19601f82011682018060405250810190611d8d919061314a565b8015611e095750606f546040516372331c7360e11b81526001600160a01b039091169063e46638e690611dc890339087908790600401613167565b602060405180830381865afa158015611de5573d6000803e3d6000fd5b505050506040513d601f19601f82011682018060405250810190611e09919061314a565b15610d0557606f546040516322ebca6d60e21b81526001600160a01b0390911690638baf29b490611e4290339087908790600401613167565b600060405180830381600087803b158015611e5c57600080fd5b505af1158015611e70573d6000803e3d6000fd5b50505050611e7f338484612578565b50600161076d565b61127c816113f7565b6033546001600160a01b03163314611eba5760405162461bcd60e51b81526004016107989061318b565b606a611ec7828483613306565b50606b546040805180820182526005815264332e352e3160d81b602082015290517f6a1105ac8148a3c319adbc369f9072573e8a11d3a3d195e067e7c40767ec54d192611f2f92606992606a9260ff811692916101009091046001600160a01b03169061323d565b60405180910390a15050565b6033546001600160a01b03163314611f655760405162461bcd60e51b81526004016107989061318b565b6069611ec7828483613306565b611f7b33610a36565b611f975760405162461bcd60e51b815260040161079890613063565b6001600160a01b0382166000818152606c6020526040808220805460ff19168515159081179091559051339391927f7fa523c84ab8d7fc5b72f08b9e46dbbf10c39e119a075b3e317002d14bc9f43691a45050565b6033546001600160a01b031633146120165760405162461bcd60e51b81526004016107989061318b565b606e8054610100600160a81b0319166101006001600160a01b038416908102919091179091556040517fd2be862d755bca7e0d39772b2cab3a5578da9c285f69199f4c063c2294a7f36c90600090a250565b6033546001600160a01b031633146120925760405162461bcd60e51b81526004016107989061318b565b6001600160a01b0381166120f75760405162461bcd60e51b815260206004820152602660248201527f4f776e61626c653a206e6577206f776e657220697320746865207a65726f206160448201526564647265737360d01b6064820152608401610798565b6033546040516001600160a01b038084169216907f8be0079c531659141344cd1fd0a4f28419497f9722a3daafe3b4186f6b6457e090600090a3603380546001600160a01b0319166001600160a01b0392909216919091179055565b6033546001600160a01b0316331461217d5760405162461bcd60e51b81526004016107989061318b565b606f80546001600160a01b0319166001600160a01b0383169081179091556040517f7f3a888862559648ec01d97deb7b5012bff86dc91e654a1de397170db40e35b690600090a250565b60006121db6033546001600160a01b031690565b6001600160a01b0316146122275760405162461bcd60e51b8152602060048201526013602482015272185b1c9958591e481a5b9a5d1a585b1a5e9959606a1b6044820152606401610798565b606961223385826133c6565b50606a61224084826133c6565b50606b805460ff84166001600160a81b0319909116176101006001600160a01b03848116820292909217909255606e8054610100600160a81b0319169189169283029190911790556040517fd2be862d755bca7e0d39772b2cab3a5578da9c285f69199f4c063c2294a7f36c90600090a2606f80546001600160a01b0319166001600160a01b0387169081179091556040517f7f3a888862559648ec01d97deb7b5012bff86dc91e654a1de397170db40e35b690600090a2606b546040805180820182526005815264332e352e3160d81b602082015290517f6a1105ac8148a3c319adbc369f9072573e8a11d3a3d195e067e7c40767ec54d19261235f92606992606a9260ff811692916101009091046001600160a01b03169061323d565b60405180910390a16110ff6129cc565b60005b83811015610906576123c285858381811061238f5761238f6130da565b90506020020160208101906123a49190612c03565b8484848181106123b6576123b66130da565b90506020020135610773565b600101612372565b6001600160a01b03831661242c5760405162461bcd60e51b8152602060048201526024808201527f45524332303a20617070726f76652066726f6d20746865207a65726f206164646044820152637265737360e01b6064820152608401610798565b6001600160a01b03821661248d5760405162461bcd60e51b815260206004820152602260248201527f45524332303a20617070726f766520746f20746865207a65726f206164647265604482015261737360f01b6064820152608401610798565b6001600160a01b0383811660008181526067602090815260408083209487168084529482529182902085905590518481527f8c5be1e5ebec7d5bd14f71427d1e84f3dd0314c0f7b2291e5b200ac8c7c3b92591015b60405180910390a3505050565b60006001600160a01b0382166125585760405162461bcd60e51b815260206004820152602860248201527f526f6c65734c65676163793a206163636f756e7420697320746865207a65726f604482015267206164647265737360c01b6064820152608401610798565b506001600160a01b03166000908152602091909152604090205460ff1690565b6001600160a01b0383166125dc5760405162461bcd60e51b815260206004820152602560248201527f45524332303a207472616e736665722066726f6d20746865207a65726f206164604482015264647265737360d81b6064820152608401610798565b6001600160a01b03821661263e5760405162461bcd60e51b815260206004820152602360248201527f45524332303a207472616e7366657220746f20746865207a65726f206164647260448201526265737360e81b6064820152608401610798565b6001600160a01b03831660009081526066602052604090205461266290829061310d565b6001600160a01b0380851660009081526066602052604080822093909355908416815220546126929082906130c7565b6001600160a01b0380841660008181526066602052604090819020939093559151908516907fddf252ad1be2c89b69c2b068fc378daa952ba7f163c4a11628f55a4df523b3ef906124e29085815260200190565b6001600160a01b03821661273c5760405162461bcd60e51b815260206004820152601f60248201527f45524332303a206d696e7420746f20746865207a65726f2061646472657373006044820152606401610798565b8060685461274a91906130c7565b6068556001600160a01b0382166000908152606660205260409020546127719082906130c7565b6001600160a01b0383166000818152606660205260408082209390935591519091907fddf252ad1be2c89b69c2b068fc378daa952ba7f163c4a11628f55a4df523b3ef906127c29085815260200190565b60405180910390a35050565b6127d882826124ef565b156128335760405162461bcd60e51b815260206004820152602560248201527f526f6c65734c65676163793a206163636f756e7420616c72656164792068617360448201526420726f6c6560d81b6064820152608401610798565b6001600160a01b0316600090815260209190915260409020805460ff19166001179055565b61286282826124ef565b6128be5760405162461bcd60e51b815260206004820152602760248201527f526f6c65734c65676163793a206163636f756e7420646f6573206e6f74206861604482015266766520726f6c6560c81b6064820152608401610798565b6001600160a01b0316600090815260209190915260409020805460ff19169055565b6001600160a01b0382166129405760405162461bcd60e51b815260206004820152602160248201527f45524332303a206275726e2066726f6d20746865207a65726f206164647265736044820152607360f81b6064820152608401610798565b6001600160a01b03821660009081526066602052604090205461296490829061310d565b6001600160a01b03831660009081526066602052604090205560685461298b90829061310d565b6068556040518181526000906001600160a01b038416907fddf252ad1be2c89b69c2b068fc378daa952ba7f163c4a11628f55a4df523b3ef906020016127c2565b600054610100900460ff16806129e5575060005460ff16155b612a015760405162461bcd60e51b815260040161079890613486565b600054610100900460ff16158015612a23576000805461ffff19166101011790555b612a2b612a4c565b612a33612ab6565b801561127c576000805461ff001916905550565b505050565b600054610100900460ff1680612a65575060005460ff16155b612a815760405162461bcd60e51b815260040161079890613486565b600054610100900460ff16158015612a33576000805461ffff1916610101179055801561127c576000805461ff001916905550565b600054610100900460ff1680612acf575060005460ff16155b612aeb5760405162461bcd60e51b815260040161079890613486565b600054610100900460ff16158015612b0d576000805461ffff19166101011790555b603380546001600160a01b0319163390811790915560405181906000907f8be0079c531659141344cd1fd0a4f28419497f9722a3daafe3b4186f6b6457e0908290a350801561127c576000805461ff001916905550565b6000815180845260005b81811015612b8a57602081850181015186830182015201612b6e565b506000602082860101526020601f19601f83011685010191505092915050565b602081526000610d456020830184612b64565b80356001600160a01b0381168114612bd457600080fd5b919050565b60008060408385031215612bec57600080fd5b612bf583612bbd565b946020939093013593505050565b600060208284031215612c1557600080fd5b610d4582612bbd565b60008083601f840112612c3057600080fd5b50813567ffffffffffffffff811115612c4857600080fd5b6020830191508360208260051b8501011115612c6357600080fd5b9250929050565b60008060008060408587031215612c8057600080fd5b843567ffffffffffffffff80821115612c9857600080fd5b612ca488838901612c1e565b90965094506020870135915080821115612cbd57600080fd5b50612cca87828801612c1e565b95989497509550505050565b600080600060608486031215612ceb57600080fd5b612cf484612bbd565b9250612d0260208501612bbd565b9150604084013590509250925092565b60008060008060008060608789031215612d2b57600080fd5b863567ffffffffffffffff80821115612d4357600080fd5b612d4f8a838b01612c1e565b90985096506020890135915080821115612d6857600080fd5b612d748a838b01612c1e565b90965094506040890135915080821115612d8d57600080fd5b50612d9a89828a01612c1e565b979a9699509497509295939492505050565b600080600060608486031215612dc157600080fd5b612dca84612bbd565b9250612dd860208501612bbd565b9150612de660408501612bbd565b90509250925092565b60008060208385031215612e0257600080fd5b823567ffffffffffffffff80821115612e1a57600080fd5b818501915085601f830112612e2e57600080fd5b813581811115612e3d57600080fd5b866020828501011115612e4f57600080fd5b60209290920196919550909350505050565b801515811461127c57600080fd5b60008060408385031215612e8257600080fd5b612e8b83612bbd565b91506020830135612e9b81612e61565b809150509250929050565b60008060408385031215612eb957600080fd5b612ec283612bbd565b9150612ed060208401612bbd565b90509250929050565b634e487b7160e01b600052604160045260246000fd5b600082601f830112612f0057600080fd5b813567ffffffffffffffff80821115612f1b57612f1b612ed9565b604051601f8301601f19908116603f01168101908282118183101715612f4357612f43612ed9565b81604052838152866020858801011115612f5c57600080fd5b836020870160208301376000602085830101528094505050505092915050565b60008060008060008060c08789031215612f9557600080fd5b612f9e87612bbd565b9550612fac60208801612bbd565b9450604087013567ffffffffffffffff80821115612fc957600080fd5b612fd58a838b01612eef565b95506060890135915080821115612feb57600080fd5b50612ff889828a01612eef565b935050608087013560ff8116811461300f57600080fd5b915061301d60a08801612bbd565b90509295509295509295565b600181811c9082168061303d57607f821691505b60208210810361305d57634e487b7160e01b600052602260045260246000fd5b50919050565b6020808252602e908201527f4167656e74526f6c653a2063616c6c657220646f6573206e6f7420686176652060408201526d746865204167656e7420726f6c6560901b606082015260800190565b634e487b7160e01b600052601160045260246000fd5b8082018082111561076d5761076d6130b1565b634e487b7160e01b600052603260045260246000fd5b60006020828403121561310257600080fd5b8135610d4581612e61565b8181038181111561076d5761076d6130b1565b60208082526010908201526f14185d5cd8589b194e881c185d5cd95960821b604082015260600190565b60006020828403121561315c57600080fd5b8151610d4581612e61565b6001600160a01b039384168152919092166020820152604081019190915260600190565b6020808252818101527f4f776e61626c653a2063616c6c6572206973206e6f7420746865206f776e6572604082015260600190565b600081546131cd81613029565b8085526020600183811680156131ea576001811461320457613232565b60ff1985168884015283151560051b880183019550613232565b866000528260002060005b8581101561322a5781548a820186015290830190840161320f565b890184019650505b505050505092915050565b60a08152600061325060a08301886131c0565b828103602084015261326281886131c0565b905060ff86166040840152828103606084015261327f8186612b64565b91505060018060a01b03831660808301529695505050505050565b6000602082840312156132ac57600080fd5b815161ffff81168114610d4557600080fd5b601f821115612a47576000816000526020600020601f850160051c810160208610156132e75750805b601f850160051c820191505b818110156110ff578281556001016132f3565b67ffffffffffffffff83111561331e5761331e612ed9565b6133328361332c8354613029565b836132be565b6000601f841160018114613366576000851561334e5750838201355b600019600387901b1c1916600186901b178355610906565b600083815260209020601f19861690835b828110156133975786850135825560209485019460019092019101613377565b50868210156133b45760001960f88860031b161c19848701351681555b505060018560011b0183555050505050565b815167ffffffffffffffff8111156133e0576133e0612ed9565b6133f4816133ee8454613029565b846132be565b602080601f83116001811461342957600084156134115750858301515b600019600386901b1c1916600185901b1785556110ff565b600085815260208120601f198616915b8281101561345857888601518255948401946001909101908401613439565b50858210156134765787850151600019600388901b60f8161c191681555b5050505050600190811b01905550565b60208082526034908201527f496e697469616c697a61626c654c65676163793a20636f6e747261637420697360408201527308185b1c9958591e481a5b9a5d1a585b1a5e995960621b60608201526080019056fea26469706673582212204e946f5320cf0781e88c40e5af0084949fdc0598c327084aa1ba5cbcdcd8818d64736f6c63430008180033",
  "linkReferences": {},
  "deployedLinkReferences": {}
}