{
  "_format": "hh-sol-artifact-1",
  "contractName": "MaxOwnershipModule",
  "sourceName": "contracts/erc3643/compliance/modular/modules/MaxOwnershipModule.sol",
  "abi": [
    {
      "inputs": [
        {
          "internalType": "address",
          "name": "_compliance",
          "type": "address"
        },
        {
          "internalType": "address[]",
          "name": "_id",
          "type": "address[]"
        },
        {
          "internalType": "uint256[]",
          "name": "_balance",
          "type": "uint256[]"
        }
      ],
      "name": "InvalidPresetValues",
      "type": "error"
    },
    {
      "inputs": [],
      "name": "MathOverflowedMulDiv",
      "type": "error"
    },
    {
      "inputs": [
        {
          "internalType": "address",
          "name": "_compliance",
          "type": "address"
        },
        {
          "internalType": "uint256",
          "name": "_value",
          "type": "uint256"
        }
      ],
      "name": "MaxOwnershipExceeded",
      "type": "error"
    },
    {
      "inputs": [
        {
          "internalType": "address",
          "name": "_compliance",
          "type": "address"
        }
      ],
      "name": "OnlyComplianceOwnerCanCall",
      "type": "error"
    },
    {
      "inputs": [
        {
          "internalType": "address",
          "name": "_compliance",
          "type": "address"
        }
      ],
      "name": "TokenAlreadyBound",
      "type": "error"
    },
    {
      "anonymous": false,
      "inputs": [
        {
          "indexed": true,
          "internalType": "address",
          "name": "_compliance",
          "type": "address"
        }
      ],
      "name": "ComplianceBound",
      "type": "event"
    },
    {
      "anonymous": false,
      "inputs": [
        {
          "indexed": true,
          "internalType": "address",
          "name": "_compliance",
          "type": "address"
        }
      ],
      "name": "ComplianceUnbound",
      "type": "event"
    },
    {
      "anonymous": false,
      "inputs": [
        {
          "indexed": true,
          "internalType": "address",
          "name": "_compliance",
          "type": "address"
        },
        {
          "indexed": true,
          "internalType": "address",
          "name": "_id",
          "type": "address"
        },
        {
          "indexed": false,
          "internalType": "uint256",
          "name": "_balance",
          "type": "uint256"
        }
      ],
      "name": "IDBalancePreSet",
      "type": "event"
    },
    {
      "anonymous": false,
      "inputs": [
        {
          "indexed": true,
          "internalType": "address",
          "name": "_compliance",
          "type": "address"
        },
        {
          "indexed": true,
          "internalType": "uint256",
          "name": "_maxPercetage",
          "type": "uint256"
        }
      ],
      "name": "MaxPercentageSet",
      "type": "event"
    },
    {
      "inputs": [
        {
          "internalType": "address",
          "name": "_compliance",
          "type": "address"
        },
        {
          "internalType": "address[]",
          "name": "_id",
          "type": "address[]"
        },
        {
          "internalType": "uint256[]",
          "name": "_balance",
          "type": "uint256[]"
        }
      ],
      "name": "batchPreSetModuleState",
      "outputs": [],
      "stateMutability": "nonpayable",
      "type": "function"
    },
    {
      "inputs": [
        {
          "internalType": "address",
          "name": "_compliance",
          "type": "address"
        }
      ],
      "name": "bindCompliance",
      "outputs": [],
      "stateMutability": "nonpayable",
      "type": "function"
    },
    {
      "inputs": [
        {
          "internalType": "address",
          "name": "_compliance",
          "type": "address"
        }
      ],
      "name": "canComplianceBind",
      "outputs": [
        {
          "internalType": "bool",
          "name": "",
          "type": "bool"
        }
      ],
      "stateMutability": "view",
      "type": "function"
    },
    {
      "inputs": [
        {
          "internalType": "address",
          "name": "_compliance",
          "type": "address"
        },
        {
          "internalType": "address",
          "name": "_identity",
          "type": "address"
        }
      ],
      "name": "getIDBalance",
      "outputs": [
        {
          "internalType": "uint256",
          "name": "",
          "type": "uint256"
        }
      ],
      "stateMutability": "view",
      "type": "function"
    },
    {
      "inputs": [
        {
          "internalType": "address",
          "name": "_compliance",
          "type": "address"
        }
      ],
      "name": "isComplianceBound",
      "outputs": [
        {
          "internalType": "bool",
          "name": "",
          "type": "bool"
        }
      ],
      "stateMutability": "view",
      "type": "function"
    },
    {
      "inputs": [],
      "name": "isPlugAndPlay",
      "outputs": [
        {
          "internalType": "bool",
          "name": "",
          "type": "bool"
        }
      ],
      "stateMutability": "pure",
      "type": "function"
    },
    {
      "inputs": [
        {
          "internalType": "address",
          "name": "_from",
          "type": "address"
        },
        {
          "internalType": "uint256",
          "name": "_value",
          "type": "uint256"
        }
      ],
      "name": "moduleBurnAction",
      "outputs": [],
      "stateMutability": "nonpayable",
      "type": "function"
    },
    {
      "inputs": [
        {
          "internalType": "address",
          "name": "",
          "type": "address"
        },
        {
          "internalType": "address",
          "name": "_to",
          "type": "address"
        },
        {
          "internalType": "uint256",
          "name": "_value",
          "type": "uint256"
        },
        {
          "internalType": "address",
          "name": "_compliance",
          "type": "address"
        }
      ],
      "name": "moduleCheck",
      "outputs": [
        {
          "internalType": "bool",
          "name": "",
          "type": "bool"
        }
      ],
      "stateMutability": "view",
      "type": "function"
    },
    {
      "inputs": [
        {
          "internalType": "address",
          "name": "_to",
          "type": "address"
        },
        {
          "internalType": "uint256",
          "name": "_value",
          "type": "uint256"
        }
      ],
      "name": "moduleMintAction",
      "outputs": [],
      "stateMutability": "nonpayable",
      "type": "function"
    },
    {
      "inputs": [
        {
          "internalType": "address",
          "name": "_from",
          "type": "address"
        },
        {
          "internalType": "address",
          "name": "_to",
          "type": "address"
        },
        {
          "internalType": "uint256",
          "name": "_value",
          "type": "uint256"
        }
      ],
      "name": "moduleTransferAction",
      "outputs": [],
      "stateMutability": "nonpayable",
      "type": "function"
    },
    {
      "inputs": [],
      "name": "name",
      "outputs": [
        {
          "internalType": "string",
          "name": "_name",
          "type": "string"
        }
      ],
      "stateMutability": "pure",
      "type": "function"
    },
    {
      "inputs": [
        {
          "internalType": "address",
          "name": "_compliance",
          "type": "address"
        },
        {
          "internalType": "address",
          "name": "_id",
          "type": "address"
        },
        {
          "internalType": "uint256",
          "name": "_balance",
          "type": "uint256"
        }
      ],
      "name": "preSetModuleState",
      "outputs": [],
      "stateMutability": "nonpayable",
      "type": "function"
    },
    {
      "inputs": [
        {
          "internalType": "address",
          "name": "_compliance",
          "type": "address"
        }
      ],
      "name": "presetCompleted",
      "outputs": [],
      "stateMutability": "nonpayable",
      "type": "function"
    },
    {
      "inputs": [
        {
          "internalType": "uint256",
          "name": "_max",
          "type": "uint256"
        }
      ],
      "name": "setMaxPercentage",
      "outputs": [],
      "stateMutability": "nonpayable",
      "type": "function"
    },
    {
      "inputs": [
        {
          "internalType": "address",
          "name": "_compliance",
          "type": "address"
        }
      ],
      "name": "unbindCompliance",
      "outputs": [],
      "stateMutability": "nonpayable",
      "type": "function"
    }
  ],
  "bytecode": "0x608060405234801561001057600080fd5b5061175d806100206000396000f3fe608060405234801561001057600080fd5b50600436106100f55760003560e01c80638f27c0eb11610097578063dd50b74c11610066578063dd50b74c1461022a578063e6f5e8071461023d578063f104a8c914610244578063f7c4722c1461025757600080fd5b80638f27c0eb146101d057806394ab5382146101e3578063bcc21053146101f6578063cc203f751461020957600080fd5b80632cb7e1ec116100d35780632cb7e1ec1461016b578063372491a21461017e5780634a932544146101915780634cf4d295146101a457600080fd5b8063013b7ce4146100fa5780630694a5fb1461012257806306fdde0314610137575b600080fd5b61010d6101083660046111e9565b61026a565b60405190151581526020015b60405180910390f35b61013561013036600461123c565b61030f565b005b60408051808201825260128152714d61784f776e6572736869704d6f64756c6560701b602082015290516101199190611259565b6101356101793660046112a8565b61040e565b61013561018c3660046112e9565b610533565b61013561019f36600461123c565b6105b0565b61010d6101b236600461123c565b6001600160a01b031660009081526020819052604090205460ff1690565b6101356101de366004611361565b6106e3565b6101356101f13660046113e4565b6108d3565b61010d61020436600461123c565b61093f565b61021c6102173660046113fd565b610a50565b604051908152602001610119565b61013561023836600461123c565b610a7d565b600061010d565b6101356102523660046112e9565b610b42565b6101356102653660046112a8565b610c1f565b6001600160a01b03811660009081526002602052604081205461028d8385610d59565b111561029b57506000610307565b60006102a78386610f26565b6001600160a01b0380851660009081526002602090815260408083205460038352818420948616845293909152902054919250906102f19085906102ec90889061144c565b610d59565b1115610301576000915050610307565b60019150505b949350505050565b3360009081526020819052604090205460ff166103475760405162461bcd60e51b815260040161033e9061145f565b60405180910390fd5b6001600160a01b03811661039d5760405162461bcd60e51b815260206004820152601f60248201527f696e76616c696420617267756d656e74202d207a65726f206164647265737300604482015260640161033e565b336001600160a01b038216146103c55760405162461bcd60e51b815260040161033e90611496565b6001600160a01b038116600081815260208190526040808220805460ff19169055517f408b49d9be1c914c52a0227e18a077e5a892dddf32a26cfa94a5d9708fad77189190a250565b3360009081526020819052604090205460ff1661043d5760405162461bcd60e51b815260040161033e9061145f565b60006104493385610f26565b905060006104573385610f26565b3360009081526003602090815260408083206001600160a01b038516845290915281208054929350859290919061048f90849061144c565b90915550503360009081526003602090815260408083206001600160a01b0386168452909152812080548592906104c79084906114d7565b909155505033600081815260026020908152604080832054600383528184206001600160a01b038716855290925290912054909161050491610d59565b111561052c5760405163bc37982360e01b81523360048201526024810184905260440161033e565b5050505050565b3360009081526020819052604090205460ff166105625760405162461bcd60e51b815260040161033e9061145f565b600061056e3384610f26565b3360009081526003602090815260408083206001600160a01b03851684529091528120805492935084929091906105a69084906114d7565b9091555050505050565b6001600160a01b0381166106065760405162461bcd60e51b815260206004820152601f60248201527f696e76616c696420617267756d656e74202d207a65726f206164647265737300604482015260640161033e565b6001600160a01b03811660009081526020819052604090205460ff161561066f5760405162461bcd60e51b815260206004820152601860248201527f636f6d706c69616e636520616c726561647920626f756e640000000000000000604482015260640161033e565b336001600160a01b038216146106975760405162461bcd60e51b815260040161033e90611496565b6001600160a01b038116600081815260208190526040808220805460ff19166001179055517f1f7b76c58fb697eb53c6c7c1becb96911516a136e24d7ced386b2355358b75a39190a250565b828015806106f15750808214155b1561071957858585858560405163355c2bfd60e11b815260040161033e9594939291906114ea565b336001600160a01b0316866001600160a01b0316638da5cb5b6040518163ffffffff1660e01b8152600401602060405180830381865afa158015610761573d6000803e3d6000fd5b505050506040513d601f19601f820116820180604052508101906107859190611579565b6001600160a01b0316146107b75760405163e8649dab60e01b81526001600160a01b038716600482015260240161033e565b60405163a446d49f60e01b81523060048201526001600160a01b0387169063a446d49f90602401602060405180830381865afa1580156107fb573d6000803e3d6000fd5b505050506040513d601f19601f8201168201806040525081019061081f9190611596565b156108485760405163346a0c0160e21b81526001600160a01b038716600482015260240161033e565b60005b818110156108a45761089c87878784818110610869576108696115b8565b905060200201602081019061087e919061123c565b868685818110610890576108906115b8565b905060200201356110ac565b60010161084b565b5050506001600160a01b039093166000908152600160208190526040909120805460ff19169091179055505050565b3360009081526020819052604090205460ff166109025760405162461bcd60e51b815260040161033e9061145f565b33600081815260026020526040808220849055518392917f69d3f17a4d359a9ec124095039a7a29ced624e1c6cd5d4f6cbe7ddc0dc434beb91a350565b6001600160a01b03811660009081526001602052604081205460ff161561096857506001919050565b6000826001600160a01b0316636a3edf286040518163ffffffff1660e01b8152600401602060405180830381865afa1580156109a8573d6000803e3d6000fd5b505050506040513d601f19601f820116820180604052508101906109cc9190611579565b90506000816001600160a01b03166318160ddd6040518163ffffffff1660e01b8152600401602060405180830381865afa158015610a0e573d6000803e3d6000fd5b505050506040513d601f19601f82011682018060405250810190610a3291906115ce565b905080600003610a46575060019392505050565b5060009392505050565b6001600160a01b038083166000908152600360209081526040808320938516835292905220545b92915050565b336001600160a01b0316816001600160a01b0316638da5cb5b6040518163ffffffff1660e01b8152600401602060405180830381865afa158015610ac5573d6000803e3d6000fd5b505050506040513d601f19601f82011682018060405250810190610ae99190611579565b6001600160a01b031614610b1b5760405163e8649dab60e01b81526001600160a01b038216600482015260240161033e565b6001600160a01b03166000908152600160208190526040909120805460ff19169091179055565b3360009081526020819052604090205460ff16610b715760405162461bcd60e51b815260040161033e9061145f565b6000610b7d3384610f26565b3360009081526003602090815260408083206001600160a01b0385168452909152812080549293508492909190610bb590849061144c565b909155505033600081815260026020908152604080832054600383528184206001600160a01b0387168552909252909120549091610bf291610d59565b1115610c1a5760405163bc37982360e01b81523360048201526024810183905260440161033e565b505050565b336001600160a01b0316836001600160a01b0316638da5cb5b6040518163ffffffff1660e01b8152600401602060405180830381865afa158015610c67573d6000803e3d6000fd5b505050506040513d601f19601f82011682018060405250810190610c8b9190611579565b6001600160a01b031614610cbd5760405163e8649dab60e01b81526001600160a01b038416600482015260240161033e565b60405163a446d49f60e01b81523060048201526001600160a01b0384169063a446d49f90602401602060405180830381865afa158015610d01573d6000803e3d6000fd5b505050506040513d601f19601f82011682018060405250810190610d259190611596565b15610d4e5760405163346a0c0160e21b81526001600160a01b038416600482015260240161033e565b610c1a8383836110ac565b600080836001600160a01b0316636a3edf286040518163ffffffff1660e01b8152600401602060405180830381865afa158015610d9a573d6000803e3d6000fd5b505050506040513d601f19601f82011682018060405250810190610dbe9190611579565b90506000816001600160a01b03166318160ddd6040518163ffffffff1660e01b8152600401602060405180830381865afa158015610e00573d6000803e3d6000fd5b505050506040513d601f19601f82011682018060405250810190610e2491906115ce565b905060008111610e8d5760405162461bcd60e51b815260206004820152602e60248201527f4d61784f776e6572736869704d6f64756c653a20746f6b656e20746f74616c2060448201526d737570706c79206973207a65726f60901b606482015260840161033e565b6000826001600160a01b031663313ce5676040518163ffffffff1660e01b8152600401602060405180830381865afa158015610ecd573d6000803e3d6000fd5b505050506040513d601f19601f82011682018060405250810190610ef191906115e7565b60ff1690506000610f0382600a6116ee565b610f0e9060646116fa565b9050610f1b86828561110d565b979650505050505050565b600080836001600160a01b0316636a3edf286040518163ffffffff1660e01b8152600401602060405180830381865afa158015610f67573d6000803e3d6000fd5b505050506040513d601f19601f82011682018060405250810190610f8b9190611579565b6001600160a01b031663134e18f46040518163ffffffff1660e01b8152600401602060405180830381865afa158015610fc8573d6000803e3d6000fd5b505050506040513d601f19601f82011682018060405250810190610fec9190611579565b604051633c3ad79560e21b81526001600160a01b038581166004830152919091169063f0eb5e5490602401602060405180830381865afa158015611034573d6000803e3d6000fd5b505050506040513d601f19601f820116820180604052508101906110589190611579565b90506001600160a01b0381166110a55760405162461bcd60e51b81526020600482015260126024820152711a59195b9d1a5d1e481b9bdd08199bdd5b9960721b604482015260640161033e565b9392505050565b6001600160a01b0383811660008181526003602090815260408083209487168084529482529182902085905590518481527f0a777417e1c0a4b24c5f556b0c3dd522c37b99b2c3ca4bf9fea2fa1293c660c9910160405180910390a3505050565b60008383028160001985870982811083820303915050806000036111445783828161113a5761113a611711565b04925050506110a5565b8084116111645760405163227bc15360e01b815260040160405180910390fd5b6000848688096000868103871696879004966002600389028118808a02820302808a02820302808a02820302808a02820302808a02820302808a02909103029181900381900460010186841190950394909402919094039290920491909117919091029150509392505050565b6001600160a01b03811681146111e657600080fd5b50565b600080600080608085870312156111ff57600080fd5b843561120a816111d1565b9350602085013561121a816111d1565b9250604085013591506060850135611231816111d1565b939692955090935050565b60006020828403121561124e57600080fd5b81356110a5816111d1565b60006020808352835180602085015260005b818110156112875785810183015185820160400152820161126b565b506000604082860101526040601f19601f8301168501019250505092915050565b6000806000606084860312156112bd57600080fd5b83356112c8816111d1565b925060208401356112d8816111d1565b929592945050506040919091013590565b600080604083850312156112fc57600080fd5b8235611307816111d1565b946020939093013593505050565b60008083601f84011261132757600080fd5b50813567ffffffffffffffff81111561133f57600080fd5b6020830191508360208260051b850101111561135a57600080fd5b9250929050565b60008060008060006060868803121561137957600080fd5b8535611384816111d1565b9450602086013567ffffffffffffffff808211156113a157600080fd5b6113ad89838a01611315565b909650945060408801359150808211156113c657600080fd5b506113d388828901611315565b969995985093965092949392505050565b6000602082840312156113f657600080fd5b5035919050565b6000806040838503121561141057600080fd5b823561141b816111d1565b9150602083013561142b816111d1565b809150509250929050565b634e487b7160e01b600052601160045260246000fd5b80820180821115610a7757610a77611436565b6020808252601e908201527f6f6e6c7920626f756e6420636f6d706c69616e63652063616e2063616c6c0000604082015260600190565b60208082526021908201527f6f6e6c7920636f6d706c69616e636520636f6e74726163742063616e2063616c6040820152601b60fa1b606082015260800190565b81810381811115610a7757610a77611436565b6001600160a01b03868116825260606020808401829052908301869052600091879160808501845b89811015611539578435611525816111d1565b841682529382019390820190600101611512565b5085810360408701528681526001600160fb1b0387111561155957600080fd5b8660051b9350838860208301379092016020019998505050505050505050565b60006020828403121561158b57600080fd5b81516110a5816111d1565b6000602082840312156115a857600080fd5b815180151581146110a557600080fd5b634e487b7160e01b600052603260045260246000fd5b6000602082840312156115e057600080fd5b5051919050565b6000602082840312156115f957600080fd5b815160ff811681146110a557600080fd5b600181815b8085111561164557816000190482111561162b5761162b611436565b8085161561163857918102915b93841c939080029061160f565b509250929050565b60008261165c57506001610a77565b8161166957506000610a77565b816001811461167f5760028114611689576116a5565b6001915050610a77565b60ff84111561169a5761169a611436565b50506001821b610a77565b5060208310610133831016604e8410600b84101617156116c8575081810a610a77565b6116d2838361160a565b80600019048211156116e6576116e6611436565b029392505050565b60006110a5838361164d565b8082028115828204841417610a7757610a77611436565b634e487b7160e01b600052601260045260246000fdfea2646970667358221220a432243cebe9c59b15eb466a64b306f02622b46faa6c82e50f58c757ad91c9a064736f6c63430008180033",
  "linkReferences": {},
  "deployedLinkReferences": {}
}