{
  "_format": "hh-sol-artifact-1",
  "contractName": "MaxOwnershipByCountryModule",
  "sourceName": "contracts/erc3643/compliance/modular/modules/MaxOwnershipByCountryModule.sol",
  "abi": [
    {
      "inputs": [
        {
          "internalType": "address",
          "name": "_compliance",
          "type": "address"
        },
        {
          "internalType": "address[]",
          "name": "_id",
          "type": "address[]"
        },
        {
          "internalType": "uint256[]",
          "name": "_balance",
          "type": "uint256[]"
        }
      ],
      "name": "InvalidPresetValues",
      "type": "error"
    },
    {
      "inputs": [],
      "name": "MathOverflowedMulDiv",
      "type": "error"
    },
    {
      "inputs": [
        {
          "internalType": "address",
          "name": "_compliance",
          "type": "address"
        },
        {
          "internalType": "uint256",
          "name": "_value",
          "type": "uint256"
        }
      ],
      "name": "MaxOwnershipExceeded",
      "type": "error"
    },
    {
      "inputs": [
        {
          "internalType": "address",
          "name": "_compliance",
          "type": "address"
        }
      ],
      "name": "OnlyComplianceOwnerCanCall",
      "type": "error"
    },
    {
      "inputs": [
        {
          "internalType": "address",
          "name": "_compliance",
          "type": "address"
        }
      ],
      "name": "TokenAlreadyBound",
      "type": "error"
    },
    {
      "anonymous": false,
      "inputs": [
        {
          "indexed": true,
          "internalType": "address",
          "name": "_compliance",
          "type": "address"
        }
      ],
      "name": "ComplianceBound",
      "type": "event"
    },
    {
      "anonymous": false,
      "inputs": [
        {
          "indexed": true,
          "internalType": "address",
          "name": "_compliance",
          "type": "address"
        }
      ],
      "name": "ComplianceUnbound",
      "type": "event"
    },
    {
      "anonymous": false,
      "inputs": [
        {
          "indexed": true,
          "internalType": "address",
          "name": "_compliance",
          "type": "address"
        },
        {
          "indexed": true,
          "internalType": "address",
          "name": "_id",
          "type": "address"
        },
        {
          "indexed": false,
          "internalType": "uint256",
          "name": "_balance",
          "type": "uint256"
        }
      ],
      "name": "IDBalancePreSet",
      "type": "event"
    },
    {
      "anonymous": false,
      "inputs": [
        {
          "indexed": true,
          "internalType": "address",
          "name": "_compliance",
          "type": "address"
        },
        {
          "indexed": true,
          "internalType": "uint256",
          "name": "_maxPercetageLocal",
          "type": "uint256"
        },
        {
          "indexed": true,
          "internalType": "uint256",
          "name": "_maxPercetageNonlocal",
          "type": "uint256"
        }
      ],
      "name": "MaxPercentageSet",
      "type": "event"
    },
    {
      "inputs": [
        {
          "internalType": "address",
          "name": "_compliance",
          "type": "address"
        },
        {
          "internalType": "address[]",
          "name": "_id",
          "type": "address[]"
        },
        {
          "internalType": "uint256[]",
          "name": "_balance",
          "type": "uint256[]"
        }
      ],
      "name": "batchPreSetModuleState",
      "outputs": [],
      "stateMutability": "nonpayable",
      "type": "function"
    },
    {
      "inputs": [
        {
          "internalType": "address",
          "name": "_compliance",
          "type": "address"
        }
      ],
      "name": "bindCompliance",
      "outputs": [],
      "stateMutability": "nonpayable",
      "type": "function"
    },
    {
      "inputs": [
        {
          "internalType": "address",
          "name": "_compliance",
          "type": "address"
        }
      ],
      "name": "canComplianceBind",
      "outputs": [
        {
          "internalType": "bool",
          "name": "",
          "type": "bool"
        }
      ],
      "stateMutability": "view",
      "type": "function"
    },
    {
      "inputs": [
        {
          "internalType": "address",
          "name": "_compliance",
          "type": "address"
        },
        {
          "internalType": "address",
          "name": "_identity",
          "type": "address"
        }
      ],
      "name": "getIDBalance",
      "outputs": [
        {
          "internalType": "uint256",
          "name": "",
          "type": "uint256"
        }
      ],
      "stateMutability": "view",
      "type": "function"
    },
    {
      "inputs": [
        {
          "internalType": "address",
          "name": "_compliance",
          "type": "address"
        }
      ],
      "name": "isComplianceBound",
      "outputs": [
        {
          "internalType": "bool",
          "name": "",
          "type": "bool"
        }
      ],
      "stateMutability": "view",
      "type": "function"
    },
    {
      "inputs": [],
      "name": "isPlugAndPlay",
      "outputs": [
        {
          "internalType": "bool",
          "name": "",
          "type": "bool"
        }
      ],
      "stateMutability": "pure",
      "type": "function"
    },
    {
      "inputs": [
        {
          "internalType": "address",
          "name": "_from",
          "type": "address"
        },
        {
          "internalType": "uint256",
          "name": "_value",
          "type": "uint256"
        }
      ],
      "name": "moduleBurnAction",
      "outputs": [],
      "stateMutability": "nonpayable",
      "type": "function"
    },
    {
      "inputs": [
        {
          "internalType": "address",
          "name": "",
          "type": "address"
        },
        {
          "internalType": "address",
          "name": "_to",
          "type": "address"
        },
        {
          "internalType": "uint256",
          "name": "_value",
          "type": "uint256"
        },
        {
          "internalType": "address",
          "name": "_compliance",
          "type": "address"
        }
      ],
      "name": "moduleCheck",
      "outputs": [
        {
          "internalType": "bool",
          "name": "",
          "type": "bool"
        }
      ],
      "stateMutability": "view",
      "type": "function"
    },
    {
      "inputs": [
        {
          "internalType": "address",
          "name": "_to",
          "type": "address"
        },
        {
          "internalType": "uint256",
          "name": "_value",
          "type": "uint256"
        }
      ],
      "name": "moduleMintAction",
      "outputs": [],
      "stateMutability": "nonpayable",
      "type": "function"
    },
    {
      "inputs": [
        {
          "internalType": "address",
          "name": "_from",
          "type": "address"
        },
        {
          "internalType": "address",
          "name": "_to",
          "type": "address"
        },
        {
          "internalType": "uint256",
          "name": "_value",
          "type": "uint256"
        }
      ],
      "name": "moduleTransferAction",
      "outputs": [],
      "stateMutability": "nonpayable",
      "type": "function"
    },
    {
      "inputs": [],
      "name": "name",
      "outputs": [
        {
          "internalType": "string",
          "name": "_name",
          "type": "string"
        }
      ],
      "stateMutability": "pure",
      "type": "function"
    },
    {
      "inputs": [
        {
          "internalType": "address",
          "name": "_compliance",
          "type": "address"
        },
        {
          "internalType": "address",
          "name": "_id",
          "type": "address"
        },
        {
          "internalType": "uint256",
          "name": "_balance",
          "type": "uint256"
        }
      ],
      "name": "preSetModuleState",
      "outputs": [],
      "stateMutability": "nonpayable",
      "type": "function"
    },
    {
      "inputs": [
        {
          "internalType": "address",
          "name": "_compliance",
          "type": "address"
        }
      ],
      "name": "presetCompleted",
      "outputs": [],
      "stateMutability": "nonpayable",
      "type": "function"
    },
    {
      "inputs": [
        {
          "internalType": "uint16",
          "name": "_country",
          "type": "uint16"
        },
        {
          "internalType": "uint16",
          "name": "_maxLocal",
          "type": "uint16"
        },
        {
          "internalType": "uint16",
          "name": "_maxNonlocal",
          "type": "uint16"
        }
      ],
      "name": "setMaxPercentage",
      "outputs": [],
      "stateMutability": "nonpayable",
      "type": "function"
    },
    {
      "inputs": [
        {
          "internalType": "address",
          "name": "_compliance",
          "type": "address"
        }
      ],
      "name": "unbindCompliance",
      "outputs": [],
      "stateMutability": "nonpayable",
      "type": "function"
    }
  ],
  "bytecode": "0x608060405234801561001057600080fd5b5061195f806100206000396000f3fe608060405234801561001057600080fd5b50600436106100f55760003560e01c80638f27c0eb11610097578063dd50b74c11610066578063dd50b74c14610235578063e6f5e80714610248578063f104a8c91461024f578063f7c4722c1461026257600080fd5b80638f27c0eb146101db578063bcc21053146101ee578063cc203f7514610201578063d5be92ad1461022257600080fd5b80632cb7e1ec116100d35780632cb7e1ec14610176578063372491a2146101895780634a9325441461019c5780634cf4d295146101af57600080fd5b8063013b7ce4146100fa5780630694a5fb1461012257806306fdde0314610137575b600080fd5b61010d610108366004611493565b610275565b60405190151581526020015b60405180910390f35b6101356101303660046114e6565b61035b565b005b604080518082018252601b81527f4d61784f776e6572736869704279436f756e7472794d6f64756c650000000000602082015290516101199190611503565b610135610184366004611552565b61045a565b610135610197366004611593565b6105a4565b6101356101aa3660046114e6565b610621565b61010d6101bd3660046114e6565b6001600160a01b031660009081526020819052604090205460ff1690565b6101356101e936600461160b565b610754565b61010d6101fc3660046114e6565b610944565b61021461020f36600461168e565b610a55565b604051908152602001610119565b6101356102303660046116d7565b610a82565b6101356102433660046114e6565b610b37565b600061010d565b61013561025d366004611593565b610bfc565b610135610270366004611552565b610cfe565b6000806102828386610e3d565b905060006102908487610fc3565b6001600160a01b0385166000908152600360209081526040808320841515845290915290205490915061ffff166102c78587611191565b61ffff1611156102dc57600092505050610353565b6001600160a01b0380851660008181526003602090815260408083208615158452825280832054938352600482528083209487168352939052919091205461ffff90911690610337908690610332908990611738565b611191565b61ffff16111561034c57600092505050610353565b6001925050505b949350505050565b3360009081526020819052604090205460ff166103935760405162461bcd60e51b815260040161038a9061174b565b60405180910390fd5b6001600160a01b0381166103e95760405162461bcd60e51b815260206004820152601f60248201527f696e76616c696420617267756d656e74202d207a65726f206164647265737300604482015260640161038a565b336001600160a01b038216146104115760405162461bcd60e51b815260040161038a90611782565b6001600160a01b038116600081815260208190526040808220805460ff19169055517f408b49d9be1c914c52a0227e18a077e5a892dddf32a26cfa94a5d9708fad77189190a250565b3360009081526020819052604090205460ff166104895760405162461bcd60e51b815260040161038a9061174b565b60006104953385610e3d565b905060006104a33385610e3d565b905060006104b13386610fc3565b3360009081526004602090815260408083206001600160a01b03871684529091528120805492935086929091906104e9908490611738565b90915550503360009081526004602090815260408083206001600160a01b0387168452909152812080548692906105219084906117c3565b90915550503360008181526003602090815260408083208515158452825280832054848452600483528184206001600160a01b03881685529092529091205461ffff9091169161057091611191565b61ffff16111561059c5760405163bc37982360e01b81523360048201526024810185905260440161038a565b505050505050565b3360009081526020819052604090205460ff166105d35760405162461bcd60e51b815260040161038a9061174b565b60006105df3384610e3d565b3360009081526004602090815260408083206001600160a01b03851684529091528120805492935084929091906106179084906117c3565b9091555050505050565b6001600160a01b0381166106775760405162461bcd60e51b815260206004820152601f60248201527f696e76616c696420617267756d656e74202d207a65726f206164647265737300604482015260640161038a565b6001600160a01b03811660009081526020819052604090205460ff16156106e05760405162461bcd60e51b815260206004820152601860248201527f636f6d706c69616e636520616c726561647920626f756e640000000000000000604482015260640161038a565b336001600160a01b038216146107085760405162461bcd60e51b815260040161038a90611782565b6001600160a01b038116600081815260208190526040808220805460ff19166001179055517f1f7b76c58fb697eb53c6c7c1becb96911516a136e24d7ced386b2355358b75a39190a250565b828015806107625750808214155b1561078a57858585858560405163355c2bfd60e11b815260040161038a9594939291906117d6565b336001600160a01b0316866001600160a01b0316638da5cb5b6040518163ffffffff1660e01b8152600401602060405180830381865afa1580156107d2573d6000803e3d6000fd5b505050506040513d601f19601f820116820180604052508101906107f69190611865565b6001600160a01b0316146108285760405163e8649dab60e01b81526001600160a01b038716600482015260240161038a565b60405163a446d49f60e01b81523060048201526001600160a01b0387169063a446d49f90602401602060405180830381865afa15801561086c573d6000803e3d6000fd5b505050506040513d601f19601f820116820180604052508101906108909190611882565b156108b95760405163346a0c0160e21b81526001600160a01b038716600482015260240161038a565b60005b818110156109155761090d878787848181106108da576108da6118a4565b90506020020160208101906108ef91906114e6565b868685818110610901576109016118a4565b90506020020135611356565b6001016108bc565b5050506001600160a01b039093166000908152600160208190526040909120805460ff19169091179055505050565b6001600160a01b03811660009081526001602052604081205460ff161561096d57506001919050565b6000826001600160a01b0316636a3edf286040518163ffffffff1660e01b8152600401602060405180830381865afa1580156109ad573d6000803e3d6000fd5b505050506040513d601f19601f820116820180604052508101906109d19190611865565b90506000816001600160a01b03166318160ddd6040518163ffffffff1660e01b8152600401602060405180830381865afa158015610a13573d6000803e3d6000fd5b505050506040513d601f19601f82011682018060405250810190610a3791906118ba565b905080600003610a4b575060019392505050565b5060009392505050565b6001600160a01b038083166000908152600460209081526040808320938516835292905220545b92915050565b3360009081526020819052604090205460ff16610ab15760405162461bcd60e51b815260040161038a9061174b565b336000818152600260209081526040808320805461ffff808a1661ffff1992831617909255600384528285206001865280855283862080548a851690841681179091558680529452828520805492881692909116821790559051909391927f28cb11a33332bc47c32fb9d625d79476808e022f515e43da3916a3c8b6b5557691a4505050565b336001600160a01b0316816001600160a01b0316638da5cb5b6040518163ffffffff1660e01b8152600401602060405180830381865afa158015610b7f573d6000803e3d6000fd5b505050506040513d601f19601f82011682018060405250810190610ba39190611865565b6001600160a01b031614610bd55760405163e8649dab60e01b81526001600160a01b038216600482015260240161038a565b6001600160a01b03166000908152600160208190526040909120805460ff19169091179055565b3360009081526020819052604090205460ff16610c2b5760405162461bcd60e51b815260040161038a9061174b565b6000610c373384610e3d565b90506000610c453385610fc3565b3360009081526004602090815260408083206001600160a01b0387168452909152812080549293508592909190610c7d908490611738565b90915550503360008181526003602090815260408083208515158452825280832054848452600483528184206001600160a01b03881685529092529091205461ffff90911691610ccc91611191565b61ffff161115610cf85760405163bc37982360e01b81523360048201526024810184905260440161038a565b50505050565b336001600160a01b0316836001600160a01b0316638da5cb5b6040518163ffffffff1660e01b8152600401602060405180830381865afa158015610d46573d6000803e3d6000fd5b505050506040513d601f19601f82011682018060405250810190610d6a9190611865565b6001600160a01b031614610d9c5760405163e8649dab60e01b81526001600160a01b038416600482015260240161038a565b60405163a446d49f60e01b81523060048201526001600160a01b0384169063a446d49f90602401602060405180830381865afa158015610de0573d6000803e3d6000fd5b505050506040513d601f19601f82011682018060405250810190610e049190611882565b15610e2d5760405163346a0c0160e21b81526001600160a01b038416600482015260240161038a565b610e38838383611356565b505050565b600080836001600160a01b0316636a3edf286040518163ffffffff1660e01b8152600401602060405180830381865afa158015610e7e573d6000803e3d6000fd5b505050506040513d601f19601f82011682018060405250810190610ea29190611865565b6001600160a01b031663134e18f46040518163ffffffff1660e01b8152600401602060405180830381865afa158015610edf573d6000803e3d6000fd5b505050506040513d601f19601f82011682018060405250810190610f039190611865565b604051633c3ad79560e21b81526001600160a01b038581166004830152919091169063f0eb5e5490602401602060405180830381865afa158015610f4b573d6000803e3d6000fd5b505050506040513d601f19601f82011682018060405250810190610f6f9190611865565b90506001600160a01b038116610fbc5760405162461bcd60e51b81526020600482015260126024820152711a59195b9d1a5d1e481b9bdd08199bdd5b9960721b604482015260640161038a565b9392505050565b600080836001600160a01b0316636a3edf286040518163ffffffff1660e01b8152600401602060405180830381865afa158015611004573d6000803e3d6000fd5b505050506040513d601f19601f820116820180604052508101906110289190611865565b6001600160a01b031663134e18f46040518163ffffffff1660e01b8152600401602060405180830381865afa158015611065573d6000803e3d6000fd5b505050506040513d601f19601f820116820180604052508101906110899190611865565b604051637e42683b60e01b81526001600160a01b0385811660048301529190911690637e42683b90602401602060405180830381865afa1580156110d1573d6000803e3d6000fd5b505050506040513d601f19601f820116820180604052508101906110f591906118d3565b90508061ffff166000036111675760405162461bcd60e51b815260206004820152603360248201527f4d61784f776e6572736869704279436f756e7472794d6f64756c653a207573656044820152721c8818dbdd5b9d1c9e481b9bdd08199bdd5b99606a1b606482015260840161038a565b6001600160a01b03841660009081526002602052604090205461ffff918216911614905092915050565b600080836001600160a01b0316636a3edf286040518163ffffffff1660e01b8152600401602060405180830381865afa1580156111d2573d6000803e3d6000fd5b505050506040513d601f19601f820116820180604052508101906111f69190611865565b90506000816001600160a01b03166318160ddd6040518163ffffffff1660e01b8152600401602060405180830381865afa158015611238573d6000803e3d6000fd5b505050506040513d601f19601f8201168201806040525081019061125c91906118ba565b9050600081116112d45760405162461bcd60e51b815260206004820152603760248201527f4d61784f776e6572736869704279436f756e7472794d6f64756c653a20746f6b60448201527f656e20746f74616c20737570706c79206973207a65726f000000000000000000606482015260840161038a565b6000826001600160a01b031663313ce5676040518163ffffffff1660e01b8152600401602060405180830381865afa158015611314573d6000803e3d6000fd5b505050506040513d601f19601f8201168201806040525081019061133891906118f0565b60ff16905061271061134b8682856113b7565b979650505050505050565b6001600160a01b0383811660008181526004602090815260408083209487168084529482529182902085905590518481527f0a777417e1c0a4b24c5f556b0c3dd522c37b99b2c3ca4bf9fea2fa1293c660c9910160405180910390a3505050565b60008383028160001985870982811083820303915050806000036113ee578382816113e4576113e4611913565b0492505050610fbc565b80841161140e5760405163227bc15360e01b815260040160405180910390fd5b6000848688096000868103871696879004966002600389028118808a02820302808a02820302808a02820302808a02820302808a02820302808a02909103029181900381900460010186841190950394909402919094039290920491909117919091029150509392505050565b6001600160a01b038116811461149057600080fd5b50565b600080600080608085870312156114a957600080fd5b84356114b48161147b565b935060208501356114c48161147b565b92506040850135915060608501356114db8161147b565b939692955090935050565b6000602082840312156114f857600080fd5b8135610fbc8161147b565b60006020808352835180602085015260005b8181101561153157858101830151858201604001528201611515565b506000604082860101526040601f19601f8301168501019250505092915050565b60008060006060848603121561156757600080fd5b83356115728161147b565b925060208401356115828161147b565b929592945050506040919091013590565b600080604083850312156115a657600080fd5b82356115b18161147b565b946020939093013593505050565b60008083601f8401126115d157600080fd5b50813567ffffffffffffffff8111156115e957600080fd5b6020830191508360208260051b850101111561160457600080fd5b9250929050565b60008060008060006060868803121561162357600080fd5b853561162e8161147b565b9450602086013567ffffffffffffffff8082111561164b57600080fd5b61165789838a016115bf565b9096509450604088013591508082111561167057600080fd5b5061167d888289016115bf565b969995985093965092949392505050565b600080604083850312156116a157600080fd5b82356116ac8161147b565b915060208301356116bc8161147b565b809150509250929050565b61ffff8116811461149057600080fd5b6000806000606084860312156116ec57600080fd5b83356116f7816116c7565b92506020840135611707816116c7565b91506040840135611717816116c7565b809150509250925092565b634e487b7160e01b600052601160045260246000fd5b80820180821115610a7c57610a7c611722565b6020808252601e908201527f6f6e6c7920626f756e6420636f6d706c69616e63652063616e2063616c6c0000604082015260600190565b60208082526021908201527f6f6e6c7920636f6d706c69616e636520636f6e74726163742063616e2063616c6040820152601b60fa1b606082015260800190565b81810381811115610a7c57610a7c611722565b6001600160a01b03868116825260606020808401829052908301869052600091879160808501845b898110156118255784356118118161147b565b8416825293820193908201906001016117fe565b5085810360408701528681526001600160fb1b0387111561184557600080fd5b8660051b9350838860208301379092016020019998505050505050505050565b60006020828403121561187757600080fd5b8151610fbc8161147b565b60006020828403121561189457600080fd5b81518015158114610fbc57600080fd5b634e487b7160e01b600052603260045260246000fd5b6000602082840312156118cc57600080fd5b5051919050565b6000602082840312156118e557600080fd5b8151610fbc816116c7565b60006020828403121561190257600080fd5b815160ff81168114610fbc57600080fd5b634e487b7160e01b600052601260045260246000fdfea264697066735822122000e7898b99f7b5469680694b648d3c421ea4db622af4628b7a8d305488193d0564736f6c63430008180033",
  "linkReferences": {},
  "deployedLinkReferences": {}
}