{
  "_format": "hh-sol-artifact-1",
  "contractName": "OwnerRolesUpgradeable",
  "sourceName": "contracts/erc3643/roles/permissioning/owner/OwnerRolesUpgradeable.sol",
  "abi": [
    {
      "inputs": [],
      "name": "InvalidInitialization",
      "type": "error"
    },
    {
      "inputs": [],
      "name": "NotInitializing",
      "type": "error"
    },
    {
      "inputs": [
        {
          "internalType": "address",
          "name": "owner",
          "type": "address"
        }
      ],
      "name": "OwnableInvalidOwner",
      "type": "error"
    },
    {
      "inputs": [
        {
          "internalType": "address",
          "name": "account",
          "type": "address"
        }
      ],
      "name": "OwnableUnauthorizedAccount",
      "type": "error"
    },
    {
      "anonymous": false,
      "inputs": [
        {
          "indexed": false,
          "internalType": "uint64",
          "name": "version",
          "type": "uint64"
        }
      ],
      "name": "Initialized",
      "type": "event"
    },
    {
      "anonymous": false,
      "inputs": [
        {
          "indexed": true,
          "internalType": "address",
          "name": "previousOwner",
          "type": "address"
        },
        {
          "indexed": true,
          "internalType": "address",
          "name": "newOwner",
          "type": "address"
        }
      ],
      "name": "OwnershipTransferred",
      "type": "event"
    },
    {
      "anonymous": false,
      "inputs": [
        {
          "indexed": true,
          "internalType": "address",
          "name": "_owner",
          "type": "address"
        },
        {
          "indexed": false,
          "internalType": "string",
          "name": "_role",
          "type": "string"
        }
      ],
      "name": "RoleAdded",
      "type": "event"
    },
    {
      "anonymous": false,
      "inputs": [
        {
          "indexed": true,
          "internalType": "address",
          "name": "_owner",
          "type": "address"
        },
        {
          "indexed": false,
          "internalType": "string",
          "name": "_role",
          "type": "string"
        }
      ],
      "name": "RoleRemoved",
      "type": "event"
    },
    {
      "inputs": [
        {
          "internalType": "address",
          "name": "_owner",
          "type": "address"
        }
      ],
      "name": "addClaimRegistryManager",
      "outputs": [],
      "stateMutability": "nonpayable",
      "type": "function"
    },
    {
      "inputs": [
        {
          "internalType": "address",
          "name": "_owner",
          "type": "address"
        }
      ],
      "name": "addComplianceManager",
      "outputs": [],
      "stateMutability": "nonpayable",
      "type": "function"
    },
    {
      "inputs": [
        {
          "internalType": "address",
          "name": "_owner",
          "type": "address"
        }
      ],
      "name": "addComplianceSetter",
      "outputs": [],
      "stateMutability": "nonpayable",
      "type": "function"
    },
    {
      "inputs": [
        {
          "internalType": "address",
          "name": "_owner",
          "type": "address"
        }
      ],
      "name": "addIssuersRegistryManager",
      "outputs": [],
      "stateMutability": "nonpayable",
      "type": "function"
    },
    {
      "inputs": [
        {
          "internalType": "address",
          "name": "_owner",
          "type": "address"
        }
      ],
      "name": "addOwnerAdmin",
      "outputs": [],
      "stateMutability": "nonpayable",
      "type": "function"
    },
    {
      "inputs": [
        {
          "internalType": "address",
          "name": "_owner",
          "type": "address"
        }
      ],
      "name": "addRegistryAddressSetter",
      "outputs": [],
      "stateMutability": "nonpayable",
      "type": "function"
    },
    {
      "inputs": [
        {
          "internalType": "address",
          "name": "_owner",
          "type": "address"
        }
      ],
      "name": "addTokenInfoManager",
      "outputs": [],
      "stateMutability": "nonpayable",
      "type": "function"
    },
    {
      "inputs": [
        {
          "internalType": "address",
          "name": "_owner",
          "type": "address"
        }
      ],
      "name": "isClaimRegistryManager",
      "outputs": [
        {
          "internalType": "bool",
          "name": "",
          "type": "bool"
        }
      ],
      "stateMutability": "view",
      "type": "function"
    },
    {
      "inputs": [
        {
          "internalType": "address",
          "name": "_owner",
          "type": "address"
        }
      ],
      "name": "isComplianceManager",
      "outputs": [
        {
          "internalType": "bool",
          "name": "",
          "type": "bool"
        }
      ],
      "stateMutability": "view",
      "type": "function"
    },
    {
      "inputs": [
        {
          "internalType": "address",
          "name": "_owner",
          "type": "address"
        }
      ],
      "name": "isComplianceSetter",
      "outputs": [
        {
          "internalType": "bool",
          "name": "",
          "type": "bool"
        }
      ],
      "stateMutability": "view",
      "type": "function"
    },
    {
      "inputs": [
        {
          "internalType": "address",
          "name": "_owner",
          "type": "address"
        }
      ],
      "name": "isIssuersRegistryManager",
      "outputs": [
        {
          "internalType": "bool",
          "name": "",
          "type": "bool"
        }
      ],
      "stateMutability": "view",
      "type": "function"
    },
    {
      "inputs": [
        {
          "internalType": "address",
          "name": "_owner",
          "type": "address"
        }
      ],
      "name": "isOwnerAdmin",
      "outputs": [
        {
          "internalType": "bool",
          "name": "",
          "type": "bool"
        }
      ],
      "stateMutability": "view",
      "type": "function"
    },
    {
      "inputs": [
        {
          "internalType": "address",
          "name": "_owner",
          "type": "address"
        }
      ],
      "name": "isRegistryAddressSetter",
      "outputs": [
        {
          "internalType": "bool",
          "name": "",
          "type": "bool"
        }
      ],
      "stateMutability": "view",
      "type": "function"
    },
    {
      "inputs": [
        {
          "internalType": "address",
          "name": "_owner",
          "type": "address"
        }
      ],
      "name": "isTokenInfoManager",
      "outputs": [
        {
          "internalType": "bool",
          "name": "",
          "type": "bool"
        }
      ],
      "stateMutability": "view",
      "type": "function"
    },
    {
      "inputs": [],
      "name": "owner",
      "outputs": [
        {
          "internalType": "address",
          "name": "",
          "type": "address"
        }
      ],
      "stateMutability": "view",
      "type": "function"
    },
    {
      "inputs": [
        {
          "internalType": "address",
          "name": "_owner",
          "type": "address"
        }
      ],
      "name": "removeClaimRegistryManager",
      "outputs": [],
      "stateMutability": "nonpayable",
      "type": "function"
    },
    {
      "inputs": [
        {
          "internalType": "address",
          "name": "_owner",
          "type": "address"
        }
      ],
      "name": "removeComplianceManager",
      "outputs": [],
      "stateMutability": "nonpayable",
      "type": "function"
    },
    {
      "inputs": [
        {
          "internalType": "address",
          "name": "_owner",
          "type": "address"
        }
      ],
      "name": "removeComplianceSetter",
      "outputs": [],
      "stateMutability": "nonpayable",
      "type": "function"
    },
    {
      "inputs": [
        {
          "internalType": "address",
          "name": "_owner",
          "type": "address"
        }
      ],
      "name": "removeIssuersRegistryManager",
      "outputs": [],
      "stateMutability": "nonpayable",
      "type": "function"
    },
    {
      "inputs": [
        {
          "internalType": "address",
          "name": "_owner",
          "type": "address"
        }
      ],
      "name": "removeOwnerAdmin",
      "outputs": [],
      "stateMutability": "nonpayable",
      "type": "function"
    },
    {
      "inputs": [
        {
          "internalType": "address",
          "name": "_owner",
          "type": "address"
        }
      ],
      "name": "removeRegistryAddressSetter",
      "outputs": [],
      "stateMutability": "nonpayable",
      "type": "function"
    },
    {
      "inputs": [
        {
          "internalType": "address",
          "name": "_owner",
          "type": "address"
        }
      ],
      "name": "removeTokenInfoManager",
      "outputs": [],
      "stateMutability": "nonpayable",
      "type": "function"
    },
    {
      "inputs": [],
      "name": "renounceOwnership",
      "outputs": [],
      "stateMutability": "nonpayable",
      "type": "function"
    },
    {
      "inputs": [
        {
          "internalType": "address",
          "name": "newOwner",
          "type": "address"
        }
      ],
      "name": "transferOwnership",
      "outputs": [],
      "stateMutability": "nonpayable",
      "type": "function"
    }
  ],
  "bytecode": "0x608060405234801561001057600080fd5b50610fd9806100206000396000f3fe608060405234801561001057600080fd5b50600436106101585760003560e01c8063882fc6ca116100c3578063ae5aaa3b1161007c578063ae5aaa3b146102cc578063ce4bdac7146102df578063e110255b146102f2578063f2fde38b14610305578063faed696a14610318578063ff8063111461032b57600080fd5b8063882fc6ca1461024d5780638da5cb5b14610260578063934b2da41461028057806394e69f1b14610293578063a66bcc1c146102a6578063ac95fc91146102b957600080fd5b806346b686f81161011557806346b686f8146101e657806354b9797f146101f957806362cdd4821461020c5780636ff7bff71461021f578063715018a614610232578063828709371461023a57600080fd5b8063039ec2cd1461015d57806303ff5014146101725780632447e50b1461019a5780633ba7c75e146101ad5780633c734ce8146101c057806340522554146101d3575b600080fd5b61017061016b366004610ead565b61033e565b005b610185610180366004610ead565b6103ef565b60405190151581526020015b60405180910390f35b6101856101a8366004610ead565b610402565b6101856101bb366004610ead565b61040f565b6101856101ce366004610ead565b61041c565b6101706101e1366004610ead565b610429565b6101706101f4366004610ead565b6104c0565b610170610207366004610ead565b610558565b61018561021a366004610ead565b6105e9565b61017061022d366004610ead565b6105f5565b610170610692565b610185610248366004610ead565b6106a6565b61017061025b366004610ead565b6106b3565b61026861074a565b6040516001600160a01b039091168152602001610191565b61017061028e366004610ead565b610778565b6101706102a1366004610ead565b610809565b6101706102b4366004610ead565b6108a0565b6101706102c7366004610ead565b610938565b6101706102da366004610ead565b6109d5565b6101706102ed366004610ead565b610a71565b610170610300366004610ead565b610b08565b610170610313366004610ead565b610ba3565b610170610326366004610ead565b610be1565b610185610339366004610ead565b610c7c565b3361034761074a565b6001600160a01b031614806103605750610360336105e9565b6103855760405162461bcd60e51b815260040161037c90610edd565b60405180910390fd5b610390600182610c89565b60408051808201825260158152742932b3b4b9ba393ca0b2323932b9b9a9b2ba3a32b960591b602082015290516001600160a01b03831690600080516020610f64833981519152906103e3908490610f14565b60405180910390a25050565b60006103fc600383610d0b565b92915050565b60006103fc600683610d0b565b60006103fc600283610d0b565b60006103fc600483610d0b565b3361043261074a565b6001600160a01b0316148061044b575061044b336105e9565b6104675760405162461bcd60e51b815260040161037c90610edd565b610472600282610c89565b604080518082018252601081526f21b7b6b83634b0b731b2a9b2ba3a32b960811b602082015290516001600160a01b03831690600080516020610f64833981519152906103e3908490610f14565b336104c961074a565b6001600160a01b031614806104e257506104e2336105e9565b6104fe5760405162461bcd60e51b815260040161037c90610edd565b610509600382610c89565b604080518082018252601181527021b7b6b83634b0b731b2a6b0b730b3b2b960791b602082015290516001600160a01b03831690600080516020610f64833981519152906103e3908490610f14565b3361056161074a565b6001600160a01b0316148061057a575061057a336105e9565b6105965760405162461bcd60e51b815260040161037c90610edd565b6105a1600082610c89565b604080518082018252600a81526927bbb732b920b236b4b760b11b602082015290516001600160a01b03831690600080516020610f64833981519152906103e3908490610f14565b60006103fc8183610d0b565b336105fe61074a565b6001600160a01b031614806106175750610617336105e9565b6106335760405162461bcd60e51b815260040161037c90610edd565b61063e600582610c89565b604080518082018252601681527524b9b9bab2b939a932b3b4b9ba393ca6b0b730b3b2b960511b602082015290516001600160a01b03831690600080516020610f64833981519152906103e3908490610f14565b61069a610d8e565b6106a46000610dc0565b565b60006103fc600183610d0b565b336106bc61074a565b6001600160a01b031614806106d557506106d5336105e9565b6106f15760405162461bcd60e51b815260040161037c90610edd565b6106fc600682610c89565b604080518082018252601081526f2a37b5b2b724b73337a6b0b730b3b2b960811b602082015290516001600160a01b03831690600080516020610f64833981519152906103e3908490610f14565b7f9016d09d72d40fdae2fd8ceac6b6234c7706214fd39c1cd1e609a0528c199300546001600160a01b031690565b3361078161074a565b6001600160a01b0316148061079a575061079a336105e9565b6107b65760405162461bcd60e51b815260040161037c90610edd565b6107c1600082610e31565b604080518082018252600a81526927bbb732b920b236b4b760b11b602082015290516001600160a01b03831690600080516020610f84833981519152906103e3908490610f14565b3361081261074a565b6001600160a01b0316148061082b575061082b336105e9565b6108475760405162461bcd60e51b815260040161037c90610edd565b610852600682610e31565b604080518082018252601081526f2a37b5b2b724b73337a6b0b730b3b2b960811b602082015290516001600160a01b03831690600080516020610f84833981519152906103e3908490610f14565b336108a961074a565b6001600160a01b031614806108c257506108c2336105e9565b6108de5760405162461bcd60e51b815260040161037c90610edd565b6108e9600382610e31565b604080518082018252601181527021b7b6b83634b0b731b2a6b0b730b3b2b960791b602082015290516001600160a01b03831690600080516020610f84833981519152906103e3908490610f14565b3361094161074a565b6001600160a01b0316148061095a575061095a336105e9565b6109765760405162461bcd60e51b815260040161037c90610edd565b610981600582610e31565b604080518082018252601681527524b9b9bab2b939a932b3b4b9ba393ca6b0b730b3b2b960511b602082015290516001600160a01b03831690600080516020610f84833981519152906103e3908490610f14565b336109de61074a565b6001600160a01b031614806109f757506109f7336105e9565b610a135760405162461bcd60e51b815260040161037c90610edd565b610a1e600182610e31565b60408051808201825260158152742932b3b4b9ba393ca0b2323932b9b9a9b2ba3a32b960591b602082015290516001600160a01b03831690600080516020610f84833981519152906103e3908490610f14565b33610a7a61074a565b6001600160a01b03161480610a935750610a93336105e9565b610aaf5760405162461bcd60e51b815260040161037c90610edd565b610aba600282610e31565b604080518082018252601081526f21b7b6b83634b0b731b2a9b2ba3a32b960811b602082015290516001600160a01b03831690600080516020610f84833981519152906103e3908490610f14565b33610b1161074a565b6001600160a01b03161480610b2a5750610b2a336105e9565b610b465760405162461bcd60e51b815260040161037c90610edd565b610b51600482610c89565b604080518082018252601481527321b630b4b6a932b3b4b9ba393ca6b0b730b3b2b960611b602082015290516001600160a01b03831690600080516020610f64833981519152906103e3908490610f14565b610bab610d8e565b6001600160a01b038116610bd557604051631e4fbdf760e01b81526000600482015260240161037c565b610bde81610dc0565b50565b33610bea61074a565b6001600160a01b03161480610c035750610c03336105e9565b610c1f5760405162461bcd60e51b815260040161037c90610edd565b610c2a600482610e31565b604080518082018252601481527321b630b4b6a932b3b4b9ba393ca6b0b730b3b2b960611b602082015290516001600160a01b03831690600080516020610f84833981519152906103e3908490610f14565b60006103fc600583610d0b565b610c938282610d0b565b610ce95760405162461bcd60e51b815260206004820152602160248201527f526f6c65733a206163636f756e7420646f6573206e6f74206861766520726f6c6044820152606560f81b606482015260840161037c565b6001600160a01b0316600090815260209190915260409020805460ff19169055565b60006001600160a01b038216610d6e5760405162461bcd60e51b815260206004820152602260248201527f526f6c65733a206163636f756e7420697320746865207a65726f206164647265604482015261737360f01b606482015260840161037c565b506001600160a01b03166000908152602091909152604090205460ff1690565b33610d9761074a565b6001600160a01b0316146106a45760405163118cdaa760e01b815233600482015260240161037c565b7f9016d09d72d40fdae2fd8ceac6b6234c7706214fd39c1cd1e609a0528c19930080546001600160a01b031981166001600160a01b03848116918217845560405192169182907f8be0079c531659141344cd1fd0a4f28419497f9722a3daafe3b4186f6b6457e090600090a3505050565b610e3b8282610d0b565b15610e885760405162461bcd60e51b815260206004820152601f60248201527f526f6c65733a206163636f756e7420616c72656164792068617320726f6c6500604482015260640161037c565b6001600160a01b0316600090815260209190915260409020805460ff19166001179055565b600060208284031215610ebf57600080fd5b81356001600160a01b0381168114610ed657600080fd5b9392505050565b60208082526019908201527f526f6c653a2053656e646572206973204e4f542041646d696e00000000000000604082015260600190565b60006020808352835180602085015260005b81811015610f4257858101830151858201604001528201610f26565b506000604082860101526040601f19601f830116850101925050509291505056fed211483f91fc6eff862467f8de606587a30c8fc9981056f051b897a418df803abfec83d64eaa953f2708271a023ab9ee82057f8f3578d548c1a4ba0b5b700489a264697066735822122051abe2b55dec07937b31d72148ca55f85ecc4e2c021d031f0938b3e95dd61cde64736f6c63430008180033",
  "linkReferences": {},
  "deployedLinkReferences": {}
}