{
  "_format": "hh-sol-artifact-1",
  "contractName": "RequiresNFTModule",
  "sourceName": "contracts/erc3643/compliance/modular/modules/RequiresNFTModule.sol",
  "abi": [
    {
      "anonymous": false,
      "inputs": [
        {
          "indexed": true,
          "internalType": "address",
          "name": "_compliance",
          "type": "address"
        }
      ],
      "name": "ComplianceBound",
      "type": "event"
    },
    {
      "anonymous": false,
      "inputs": [
        {
          "indexed": true,
          "internalType": "address",
          "name": "_compliance",
          "type": "address"
        }
      ],
      "name": "ComplianceUnbound",
      "type": "event"
    },
    {
      "anonymous": false,
      "inputs": [
        {
          "indexed": false,
          "internalType": "address",
          "name": "_compliance",
          "type": "address"
        },
        {
          "indexed": false,
          "internalType": "address",
          "name": "_nftAddress",
          "type": "address"
        }
      ],
      "name": "NFTRequired",
      "type": "event"
    },
    {
      "anonymous": false,
      "inputs": [
        {
          "indexed": false,
          "internalType": "address",
          "name": "_compliance",
          "type": "address"
        }
      ],
      "name": "NFTUnrequired",
      "type": "event"
    },
    {
      "inputs": [
        {
          "internalType": "address",
          "name": "_compliance",
          "type": "address"
        }
      ],
      "name": "bindCompliance",
      "outputs": [],
      "stateMutability": "nonpayable",
      "type": "function"
    },
    {
      "inputs": [
        {
          "internalType": "address",
          "name": "",
          "type": "address"
        }
      ],
      "name": "canComplianceBind",
      "outputs": [
        {
          "internalType": "bool",
          "name": "",
          "type": "bool"
        }
      ],
      "stateMutability": "view",
      "type": "function"
    },
    {
      "inputs": [
        {
          "internalType": "address",
          "name": "_compliance",
          "type": "address"
        }
      ],
      "name": "isComplianceBound",
      "outputs": [
        {
          "internalType": "bool",
          "name": "",
          "type": "bool"
        }
      ],
      "stateMutability": "view",
      "type": "function"
    },
    {
      "inputs": [],
      "name": "isPlugAndPlay",
      "outputs": [
        {
          "internalType": "bool",
          "name": "",
          "type": "bool"
        }
      ],
      "stateMutability": "pure",
      "type": "function"
    },
    {
      "inputs": [
        {
          "internalType": "address",
          "name": "_from",
          "type": "address"
        },
        {
          "internalType": "uint256",
          "name": "_value",
          "type": "uint256"
        }
      ],
      "name": "moduleBurnAction",
      "outputs": [],
      "stateMutability": "nonpayable",
      "type": "function"
    },
    {
      "inputs": [
        {
          "internalType": "address",
          "name": "_from",
          "type": "address"
        },
        {
          "internalType": "address",
          "name": "_to",
          "type": "address"
        },
        {
          "internalType": "uint256",
          "name": "",
          "type": "uint256"
        },
        {
          "internalType": "address",
          "name": "_compliance",
          "type": "address"
        }
      ],
      "name": "moduleCheck",
      "outputs": [
        {
          "internalType": "bool",
          "name": "",
          "type": "bool"
        }
      ],
      "stateMutability": "view",
      "type": "function"
    },
    {
      "inputs": [
        {
          "internalType": "address",
          "name": "_to",
          "type": "address"
        },
        {
          "internalType": "uint256",
          "name": "_value",
          "type": "uint256"
        }
      ],
      "name": "moduleMintAction",
      "outputs": [],
      "stateMutability": "nonpayable",
      "type": "function"
    },
    {
      "inputs": [
        {
          "internalType": "address",
          "name": "_from",
          "type": "address"
        },
        {
          "internalType": "address",
          "name": "_to",
          "type": "address"
        },
        {
          "internalType": "uint256",
          "name": "_value",
          "type": "uint256"
        }
      ],
      "name": "moduleTransferAction",
      "outputs": [],
      "stateMutability": "nonpayable",
      "type": "function"
    },
    {
      "inputs": [],
      "name": "name",
      "outputs": [
        {
          "internalType": "string",
          "name": "_name",
          "type": "string"
        }
      ],
      "stateMutability": "pure",
      "type": "function"
    },
    {
      "inputs": [
        {
          "internalType": "address",
          "name": "_nftAddress",
          "type": "address"
        }
      ],
      "name": "requireNFT",
      "outputs": [],
      "stateMutability": "nonpayable",
      "type": "function"
    },
    {
      "inputs": [
        {
          "internalType": "address",
          "name": "_compliance",
          "type": "address"
        }
      ],
      "name": "unbindCompliance",
      "outputs": [],
      "stateMutability": "nonpayable",
      "type": "function"
    },
    {
      "inputs": [],
      "name": "unrequireNFT",
      "outputs": [],
      "stateMutability": "nonpayable",
      "type": "function"
    }
  ],
  "bytecode": "0x608060405234801561001057600080fd5b506108b8806100206000396000f3fe608060405234801561001057600080fd5b50600436106100b45760003560e01c80634a932544116100715780634a932544146101625780634cf4d29514610175578063792881d8146101a1578063bcc21053146101a9578063e6f5e807146101bd578063f104a8c91461014f57600080fd5b8063013b7ce4146100b95780630302e195146100e15780630694a5fb146100f657806306fdde03146101095780632cb7e1ec1461013c578063372491a21461014f575b600080fd5b6100cc6100c73660046106cd565b6101c4565b60405190151581526020015b60405180910390f35b6100f46100ef36600461071a565b6101d9565b005b6100f461010436600461071a565b6102d0565b604080518082018252601181527052657175697265734e46544d6f64756c6560781b602082015290516100d8919061073c565b6100f461014a36600461078b565b6103c6565b6100f461015d3660046107c7565b6103fa565b6100f461017036600461071a565b61042d565b6100cc61018336600461071a565b6001600160a01b031660009081526020819052604090205460ff1690565b6100f4610560565b6100cc6101b736600461071a565b50600190565b60016100cc565b60006101d082856105fa565b95945050505050565b3360009081526020819052604090205460ff166102115760405162461bcd60e51b8152600401610208906107f1565b60405180910390fd5b6001600160a01b0381166102595760405162461bcd60e51b815260206004820152600f60248201526e496e76616c6964204164647265737360881b6044820152606401610208565b60408051602080820183526001600160a01b0384811680845233600081815260018552869020945185546001600160a01b0319169316929092179093558351908152908101919091527f11c201b691eb8c7ea60f2f80bf729f8f95dd52a5989e529861fb9a61f5272707910160405180910390a150565b3360009081526020819052604090205460ff166102ff5760405162461bcd60e51b8152600401610208906107f1565b6001600160a01b0381166103555760405162461bcd60e51b815260206004820152601f60248201527f696e76616c696420617267756d656e74202d207a65726f2061646472657373006044820152606401610208565b336001600160a01b0382161461037d5760405162461bcd60e51b815260040161020890610828565b6001600160a01b038116600081815260208190526040808220805460ff19169055517f408b49d9be1c914c52a0227e18a077e5a892dddf32a26cfa94a5d9708fad77189190a250565b3360009081526020819052604090205460ff166103f55760405162461bcd60e51b8152600401610208906107f1565b505050565b3360009081526020819052604090205460ff166104295760405162461bcd60e51b8152600401610208906107f1565b5050565b6001600160a01b0381166104835760405162461bcd60e51b815260206004820152601f60248201527f696e76616c696420617267756d656e74202d207a65726f2061646472657373006044820152606401610208565b6001600160a01b03811660009081526020819052604090205460ff16156104ec5760405162461bcd60e51b815260206004820152601860248201527f636f6d706c69616e636520616c726561647920626f756e6400000000000000006044820152606401610208565b336001600160a01b038216146105145760405162461bcd60e51b815260040161020890610828565b6001600160a01b038116600081815260208190526040808220805460ff19166001179055517f1f7b76c58fb697eb53c6c7c1becb96911516a136e24d7ced386b2355358b75a39190a250565b3360009081526020819052604090205460ff1661058f5760405162461bcd60e51b8152600401610208906107f1565b60408051602080820183526000808352338082526001835290849020925183546001600160a01b0319166001600160a01b039091161790925591519081527f6cf63d5ed5dff63c0a0b3c552f0022b543906e2225e4b12553b6baf477d8d0b5910160405180910390a1565b6001600160a01b0380831660009081526001602090815260408083208151928301909152549092168083529091906106365760009150506106ab565b80516040516370a0823160e01b81526001600160a01b03858116600483015260009216906370a0823190602401602060405180830381865afa158015610680573d6000803e3d6000fd5b505050506040513d601f19601f820116820180604052508101906106a49190610869565b1515925050505b92915050565b80356001600160a01b03811681146106c857600080fd5b919050565b600080600080608085870312156106e357600080fd5b6106ec856106b1565b93506106fa602086016106b1565b92506040850135915061070f606086016106b1565b905092959194509250565b60006020828403121561072c57600080fd5b610735826106b1565b9392505050565b60006020808352835180602085015260005b8181101561076a5785810183015185820160400152820161074e565b506000604082860101526040601f19601f8301168501019250505092915050565b6000806000606084860312156107a057600080fd5b6107a9846106b1565b92506107b7602085016106b1565b9150604084013590509250925092565b600080604083850312156107da57600080fd5b6107e3836106b1565b946020939093013593505050565b6020808252601e908201527f6f6e6c7920626f756e6420636f6d706c69616e63652063616e2063616c6c0000604082015260600190565b60208082526021908201527f6f6e6c7920636f6d706c69616e636520636f6e74726163742063616e2063616c6040820152601b60fa1b606082015260800190565b60006020828403121561087b57600080fd5b505191905056fea26469706673582212200ebb608ca3bd41208caee9886392be531ba0e56873a56baca1cabe125a21403464736f6c63430008180033",
  "linkReferences": {},
  "deployedLinkReferences": {}
}