{
  "_format": "hh-sol-artifact-1",
  "contractName": "SupplyLimitModule",
  "sourceName": "contracts/erc3643/compliance/modular/modules/SupplyLimitModule.sol",
  "abi": [
    {
      "anonymous": false,
      "inputs": [
        {
          "indexed": true,
          "internalType": "address",
          "name": "_compliance",
          "type": "address"
        }
      ],
      "name": "ComplianceBound",
      "type": "event"
    },
    {
      "anonymous": false,
      "inputs": [
        {
          "indexed": true,
          "internalType": "address",
          "name": "_compliance",
          "type": "address"
        }
      ],
      "name": "ComplianceUnbound",
      "type": "event"
    },
    {
      "anonymous": false,
      "inputs": [
        {
          "indexed": false,
          "internalType": "address",
          "name": "_compliance",
          "type": "address"
        },
        {
          "indexed": false,
          "internalType": "uint256",
          "name": "_limit",
          "type": "uint256"
        }
      ],
      "name": "SupplyLimitSet",
      "type": "event"
    },
    {
      "inputs": [
        {
          "internalType": "address",
          "name": "_compliance",
          "type": "address"
        }
      ],
      "name": "bindCompliance",
      "outputs": [],
      "stateMutability": "nonpayable",
      "type": "function"
    },
    {
      "inputs": [
        {
          "internalType": "address",
          "name": "",
          "type": "address"
        }
      ],
      "name": "canComplianceBind",
      "outputs": [
        {
          "internalType": "bool",
          "name": "",
          "type": "bool"
        }
      ],
      "stateMutability": "view",
      "type": "function"
    },
    {
      "inputs": [
        {
          "internalType": "address",
          "name": "_compliance",
          "type": "address"
        }
      ],
      "name": "getSupplyLimit",
      "outputs": [
        {
          "internalType": "uint256",
          "name": "",
          "type": "uint256"
        }
      ],
      "stateMutability": "view",
      "type": "function"
    },
    {
      "inputs": [
        {
          "internalType": "address",
          "name": "_compliance",
          "type": "address"
        }
      ],
      "name": "isComplianceBound",
      "outputs": [
        {
          "internalType": "bool",
          "name": "",
          "type": "bool"
        }
      ],
      "stateMutability": "view",
      "type": "function"
    },
    {
      "inputs": [],
      "name": "isPlugAndPlay",
      "outputs": [
        {
          "internalType": "bool",
          "name": "",
          "type": "bool"
        }
      ],
      "stateMutability": "pure",
      "type": "function"
    },
    {
      "inputs": [
        {
          "internalType": "address",
          "name": "_from",
          "type": "address"
        },
        {
          "internalType": "uint256",
          "name": "_value",
          "type": "uint256"
        }
      ],
      "name": "moduleBurnAction",
      "outputs": [],
      "stateMutability": "nonpayable",
      "type": "function"
    },
    {
      "inputs": [
        {
          "internalType": "address",
          "name": "_from",
          "type": "address"
        },
        {
          "internalType": "address",
          "name": "",
          "type": "address"
        },
        {
          "internalType": "uint256",
          "name": "_value",
          "type": "uint256"
        },
        {
          "internalType": "address",
          "name": "_compliance",
          "type": "address"
        }
      ],
      "name": "moduleCheck",
      "outputs": [
        {
          "internalType": "bool",
          "name": "",
          "type": "bool"
        }
      ],
      "stateMutability": "view",
      "type": "function"
    },
    {
      "inputs": [
        {
          "internalType": "address",
          "name": "_to",
          "type": "address"
        },
        {
          "internalType": "uint256",
          "name": "_value",
          "type": "uint256"
        }
      ],
      "name": "moduleMintAction",
      "outputs": [],
      "stateMutability": "nonpayable",
      "type": "function"
    },
    {
      "inputs": [
        {
          "internalType": "address",
          "name": "_from",
          "type": "address"
        },
        {
          "internalType": "address",
          "name": "_to",
          "type": "address"
        },
        {
          "internalType": "uint256",
          "name": "_value",
          "type": "uint256"
        }
      ],
      "name": "moduleTransferAction",
      "outputs": [],
      "stateMutability": "nonpayable",
      "type": "function"
    },
    {
      "inputs": [],
      "name": "name",
      "outputs": [
        {
          "internalType": "string",
          "name": "_name",
          "type": "string"
        }
      ],
      "stateMutability": "pure",
      "type": "function"
    },
    {
      "inputs": [
        {
          "internalType": "uint256",
          "name": "_limit",
          "type": "uint256"
        }
      ],
      "name": "setSupplyLimit",
      "outputs": [],
      "stateMutability": "nonpayable",
      "type": "function"
    },
    {
      "inputs": [
        {
          "internalType": "address",
          "name": "_compliance",
          "type": "address"
        }
      ],
      "name": "unbindCompliance",
      "outputs": [],
      "stateMutability": "nonpayable",
      "type": "function"
    }
  ],
  "bytecode": "0x608060405234801561001057600080fd5b5061089b806100206000396000f3fe608060405234801561001057600080fd5b50600436106100b45760003560e01c80634a932544116100715780634a932544146101625780634ae65b5c146101755780634cf4d295146101ac578063bcc21053146101d8578063e6f5e807146101ec578063f104a8c91461014f57600080fd5b8063013b7ce4146100b95780630694a5fb146100e157806306fdde03146100f65780632cb7e1ec14610129578063361fab251461013c578063372491a21461014f575b600080fd5b6100cc6100c7366004610644565b6101f3565b60405190151581526020015b60405180910390f35b6100f46100ef366004610697565b610316565b005b6040805180820182526011815270537570706c794c696d69744d6f64756c6560781b602082015290516100d891906106bb565b6100f461013736600461070a565b610415565b6100f461014a36600461074b565b610449565b6100f461015d366004610764565b6104c6565b6100f4610170366004610697565b6104f9565b61019e610183366004610697565b6001600160a01b031660009081526001602052604090205490565b6040519081526020016100d8565b6100cc6101ba366004610697565b6001600160a01b031660009081526020819052604090205460ff1690565b6100cc6101e6366004610697565b50600190565b60016100cc565b60006001600160a01b0385161580156102fd575060016000836001600160a01b03166001600160a01b031681526020019081526020016000205483836001600160a01b0316636a3edf286040518163ffffffff1660e01b8152600401602060405180830381865afa15801561026c573d6000803e3d6000fd5b505050506040513d601f19601f820116820180604052508101906102909190610790565b6001600160a01b03166318160ddd6040518163ffffffff1660e01b8152600401602060405180830381865afa1580156102cd573d6000803e3d6000fd5b505050506040513d601f19601f820116820180604052508101906102f191906107ad565b6102fb91906107c6565b115b1561030a5750600061030e565b5060015b949350505050565b3360009081526020819052604090205460ff1661034e5760405162461bcd60e51b8152600401610345906107ed565b60405180910390fd5b6001600160a01b0381166103a45760405162461bcd60e51b815260206004820152601f60248201527f696e76616c696420617267756d656e74202d207a65726f2061646472657373006044820152606401610345565b336001600160a01b038216146103cc5760405162461bcd60e51b815260040161034590610824565b6001600160a01b038116600081815260208190526040808220805460ff19169055517f408b49d9be1c914c52a0227e18a077e5a892dddf32a26cfa94a5d9708fad77189190a250565b3360009081526020819052604090205460ff166104445760405162461bcd60e51b8152600401610345906107ed565b505050565b3360009081526020819052604090205460ff166104785760405162461bcd60e51b8152600401610345906107ed565b33600081815260016020908152604091829020849055815192835282018390527f2f1ac7412e0c36ff7b73f7c4f474022dfa5d3f1c09e3262f63c9eb4627a9f505910160405180910390a150565b3360009081526020819052604090205460ff166104f55760405162461bcd60e51b8152600401610345906107ed565b5050565b6001600160a01b03811661054f5760405162461bcd60e51b815260206004820152601f60248201527f696e76616c696420617267756d656e74202d207a65726f2061646472657373006044820152606401610345565b6001600160a01b03811660009081526020819052604090205460ff16156105b85760405162461bcd60e51b815260206004820152601860248201527f636f6d706c69616e636520616c726561647920626f756e6400000000000000006044820152606401610345565b336001600160a01b038216146105e05760405162461bcd60e51b815260040161034590610824565b6001600160a01b038116600081815260208190526040808220805460ff19166001179055517f1f7b76c58fb697eb53c6c7c1becb96911516a136e24d7ced386b2355358b75a39190a250565b6001600160a01b038116811461064157600080fd5b50565b6000806000806080858703121561065a57600080fd5b84356106658161062c565b935060208501356106758161062c565b925060408501359150606085013561068c8161062c565b939692955090935050565b6000602082840312156106a957600080fd5b81356106b48161062c565b9392505050565b60006020808352835180602085015260005b818110156106e9578581018301518582016040015282016106cd565b506000604082860101526040601f19601f8301168501019250505092915050565b60008060006060848603121561071f57600080fd5b833561072a8161062c565b9250602084013561073a8161062c565b929592945050506040919091013590565b60006020828403121561075d57600080fd5b5035919050565b6000806040838503121561077757600080fd5b82356107828161062c565b946020939093013593505050565b6000602082840312156107a257600080fd5b81516106b48161062c565b6000602082840312156107bf57600080fd5b5051919050565b808201808211156107e757634e487b7160e01b600052601160045260246000fd5b92915050565b6020808252601e908201527f6f6e6c7920626f756e6420636f6d706c69616e63652063616e2063616c6c0000604082015260600190565b60208082526021908201527f6f6e6c7920636f6d706c69616e636520636f6e74726163742063616e2063616c6040820152601b60fa1b60608201526080019056fea2646970667358221220a7d1c963844a0d4c10cf62d130e84d5b349de135420134059c085b9c746ff35b64736f6c63430008180033",
  "linkReferences": {},
  "deployedLinkReferences": {}
}