{
  "_format": "hh-sol-artifact-1",
  "contractName": "TestERC20",
  "sourceName": "contracts/erc3643/_testContracts/TestERC20.sol",
  "abi": [
    {
      "inputs": [
        {
          "internalType": "string",
          "name": "name",
          "type": "string"
        },
        {
          "internalType": "string",
          "name": "symbol",
          "type": "string"
        }
      ],
      "stateMutability": "nonpayable",
      "type": "constructor"
    },
    {
      "inputs": [
        {
          "internalType": "address",
          "name": "spender",
          "type": "address"
        },
        {
          "internalType": "uint256",
          "name": "allowance",
          "type": "uint256"
        },
        {
          "internalType": "uint256",
          "name": "needed",
          "type": "uint256"
        }
      ],
      "name": "ERC20InsufficientAllowance",
      "type": "error"
    },
    {
      "inputs": [
        {
          "internalType": "address",
          "name": "sender",
          "type": "address"
        },
        {
          "internalType": "uint256",
          "name": "balance",
          "type": "uint256"
        },
        {
          "internalType": "uint256",
          "name": "needed",
          "type": "uint256"
        }
      ],
      "name": "ERC20InsufficientBalance",
      "type": "error"
    },
    {
      "inputs": [
        {
          "internalType": "address",
          "name": "approver",
          "type": "address"
        }
      ],
      "name": "ERC20InvalidApprover",
      "type": "error"
    },
    {
      "inputs": [
        {
          "internalType": "address",
          "name": "receiver",
          "type": "address"
        }
      ],
      "name": "ERC20InvalidReceiver",
      "type": "error"
    },
    {
      "inputs": [
        {
          "internalType": "address",
          "name": "sender",
          "type": "address"
        }
      ],
      "name": "ERC20InvalidSender",
      "type": "error"
    },
    {
      "inputs": [
        {
          "internalType": "address",
          "name": "spender",
          "type": "address"
        }
      ],
      "name": "ERC20InvalidSpender",
      "type": "error"
    },
    {
      "inputs": [],
      "name": "EnforcedPause",
      "type": "error"
    },
    {
      "inputs": [],
      "name": "ExpectedPause",
      "type": "error"
    },
    {
      "inputs": [
        {
          "internalType": "address",
          "name": "owner",
          "type": "address"
        }
      ],
      "name": "OwnableInvalidOwner",
      "type": "error"
    },
    {
      "inputs": [
        {
          "internalType": "address",
          "name": "account",
          "type": "address"
        }
      ],
      "name": "OwnableUnauthorizedAccount",
      "type": "error"
    },
    {
      "anonymous": false,
      "inputs": [
        {
          "indexed": true,
          "internalType": "address",
          "name": "owner",
          "type": "address"
        },
        {
          "indexed": true,
          "internalType": "address",
          "name": "spender",
          "type": "address"
        },
        {
          "indexed": false,
          "internalType": "uint256",
          "name": "value",
          "type": "uint256"
        }
      ],
      "name": "Approval",
      "type": "event"
    },
    {
      "anonymous": false,
      "inputs": [
        {
          "indexed": true,
          "internalType": "address",
          "name": "previousOwner",
          "type": "address"
        },
        {
          "indexed": true,
          "internalType": "address",
          "name": "newOwner",
          "type": "address"
        }
      ],
      "name": "OwnershipTransferred",
      "type": "event"
    },
    {
      "anonymous": false,
      "inputs": [
        {
          "indexed": false,
          "internalType": "address",
          "name": "account",
          "type": "address"
        }
      ],
      "name": "Paused",
      "type": "event"
    },
    {
      "anonymous": false,
      "inputs": [
        {
          "indexed": true,
          "internalType": "address",
          "name": "from",
          "type": "address"
        },
        {
          "indexed": true,
          "internalType": "address",
          "name": "to",
          "type": "address"
        },
        {
          "indexed": false,
          "internalType": "uint256",
          "name": "value",
          "type": "uint256"
        }
      ],
      "name": "Transfer",
      "type": "event"
    },
    {
      "anonymous": false,
      "inputs": [
        {
          "indexed": false,
          "internalType": "address",
          "name": "account",
          "type": "address"
        }
      ],
      "name": "Unpaused",
      "type": "event"
    },
    {
      "inputs": [
        {
          "internalType": "address",
          "name": "owner",
          "type": "address"
        },
        {
          "internalType": "address",
          "name": "spender",
          "type": "address"
        }
      ],
      "name": "allowance",
      "outputs": [
        {
          "internalType": "uint256",
          "name": "",
          "type": "uint256"
        }
      ],
      "stateMutability": "view",
      "type": "function"
    },
    {
      "inputs": [
        {
          "internalType": "address",
          "name": "spender",
          "type": "address"
        },
        {
          "internalType": "uint256",
          "name": "value",
          "type": "uint256"
        }
      ],
      "name": "approve",
      "outputs": [
        {
          "internalType": "bool",
          "name": "",
          "type": "bool"
        }
      ],
      "stateMutability": "nonpayable",
      "type": "function"
    },
    {
      "inputs": [
        {
          "internalType": "address",
          "name": "account",
          "type": "address"
        }
      ],
      "name": "balanceOf",
      "outputs": [
        {
          "internalType": "uint256",
          "name": "",
          "type": "uint256"
        }
      ],
      "stateMutability": "view",
      "type": "function"
    },
    {
      "inputs": [],
      "name": "decimals",
      "outputs": [
        {
          "internalType": "uint8",
          "name": "",
          "type": "uint8"
        }
      ],
      "stateMutability": "view",
      "type": "function"
    },
    {
      "inputs": [
        {
          "internalType": "address",
          "name": "recipient",
          "type": "address"
        },
        {
          "internalType": "uint256",
          "name": "amount",
          "type": "uint256"
        }
      ],
      "name": "mint",
      "outputs": [],
      "stateMutability": "nonpayable",
      "type": "function"
    },
    {
      "inputs": [],
      "name": "name",
      "outputs": [
        {
          "internalType": "string",
          "name": "",
          "type": "string"
        }
      ],
      "stateMutability": "view",
      "type": "function"
    },
    {
      "inputs": [],
      "name": "owner",
      "outputs": [
        {
          "internalType": "address",
          "name": "",
          "type": "address"
        }
      ],
      "stateMutability": "view",
      "type": "function"
    },
    {
      "inputs": [],
      "name": "pause",
      "outputs": [],
      "stateMutability": "nonpayable",
      "type": "function"
    },
    {
      "inputs": [],
      "name": "paused",
      "outputs": [
        {
          "internalType": "bool",
          "name": "",
          "type": "bool"
        }
      ],
      "stateMutability": "view",
      "type": "function"
    },
    {
      "inputs": [],
      "name": "renounceOwnership",
      "outputs": [],
      "stateMutability": "nonpayable",
      "type": "function"
    },
    {
      "inputs": [],
      "name": "symbol",
      "outputs": [
        {
          "internalType": "string",
          "name": "",
          "type": "string"
        }
      ],
      "stateMutability": "view",
      "type": "function"
    },
    {
      "inputs": [],
      "name": "totalSupply",
      "outputs": [
        {
          "internalType": "uint256",
          "name": "",
          "type": "uint256"
        }
      ],
      "stateMutability": "view",
      "type": "function"
    },
    {
      "inputs": [
        {
          "internalType": "address",
          "name": "to",
          "type": "address"
        },
        {
          "internalType": "uint256",
          "name": "value",
          "type": "uint256"
        }
      ],
      "name": "transfer",
      "outputs": [
        {
          "internalType": "bool",
          "name": "",
          "type": "bool"
        }
      ],
      "stateMutability": "nonpayable",
      "type": "function"
    },
    {
      "inputs": [
        {
          "internalType": "address",
          "name": "from",
          "type": "address"
        },
        {
          "internalType": "address",
          "name": "to",
          "type": "address"
        },
        {
          "internalType": "uint256",
          "name": "value",
          "type": "uint256"
        }
      ],
      "name": "transferFrom",
      "outputs": [
        {
          "internalType": "bool",
          "name": "",
          "type": "bool"
        }
      ],
      "stateMutability": "nonpayable",
      "type": "function"
    },
    {
      "inputs": [
        {
          "internalType": "address",
          "name": "newOwner",
          "type": "address"
        }
      ],
      "name": "transferOwnership",
      "outputs": [],
      "stateMutability": "nonpayable",
      "type": "function"
    },
    {
      "inputs": [],
      "name": "unpause",
      "outputs": [],
      "stateMutability": "nonpayable",
      "type": "function"
    }
  ],
  "bytecode": "0x60806040523480156200001157600080fd5b5060405162000da338038062000da38339810160408190526200003491620001b4565b818133806200005d57604051631e4fbdf760e01b81526000600482015260240160405180910390fd5b62000068816200009c565b506004620000778382620002af565b506005620000868282620002af565b50506006805460ff19169055506200037b915050565b600080546001600160a01b038381166001600160a01b0319831681178455604051919092169283917f8be0079c531659141344cd1fd0a4f28419497f9722a3daafe3b4186f6b6457e09190a35050565b634e487b7160e01b600052604160045260246000fd5b600082601f8301126200011457600080fd5b81516001600160401b0380821115620001315762000131620000ec565b604051601f8301601f19908116603f011681019082821181831017156200015c576200015c620000ec565b81604052838152602092508660208588010111156200017a57600080fd5b600091505b838210156200019e57858201830151818301840152908201906200017f565b6000602085830101528094505050505092915050565b60008060408385031215620001c857600080fd5b82516001600160401b0380821115620001e057600080fd5b620001ee8683870162000102565b935060208501519150808211156200020557600080fd5b50620002148582860162000102565b9150509250929050565b600181811c908216806200023357607f821691505b6020821081036200025457634e487b7160e01b600052602260045260246000fd5b50919050565b601f821115620002aa576000816000526020600020601f850160051c81016020861015620002855750805b601f850160051c820191505b81811015620002a65782815560010162000291565b5050505b505050565b81516001600160401b03811115620002cb57620002cb620000ec565b620002e381620002dc84546200021e565b846200025a565b602080601f8311600181146200031b5760008415620003025750858301515b600019600386901b1c1916600185901b178555620002a6565b600085815260208120601f198616915b828110156200034c578886015182559484019460019091019084016200032b565b50858210156200036b5787850151600019600388901b60f8161c191681555b5050505050600190811b01905550565b610a18806200038b6000396000f3fe608060405234801561001057600080fd5b50600436106101005760003560e01c806370a082311161009757806395d89b411161006657806395d89b41146101f6578063a9059cbb146101fe578063dd62ed3e14610211578063f2fde38b1461024a57600080fd5b806370a08231146101a2578063715018a6146101cb5780638456cb59146101d35780638da5cb5b146101db57600080fd5b8063313ce567116100d3578063313ce5671461016b5780633f4ba83a1461017a57806340c10f19146101845780635c975abb1461019757600080fd5b806306fdde0314610105578063095ea7b31461012357806318160ddd1461014657806323b872dd14610158575b600080fd5b61010d61025d565b60405161011a9190610861565b60405180910390f35b6101366101313660046108cc565b6102ef565b604051901515815260200161011a565b6003545b60405190815260200161011a565b6101366101663660046108f6565b610309565b6040516012815260200161011a565b61018261032d565b005b6101826101923660046108cc565b61033f565b60065460ff16610136565b61014a6101b0366004610932565b6001600160a01b031660009081526001602052604090205490565b610182610355565b610182610367565b6000546040516001600160a01b03909116815260200161011a565b61010d610377565b61013661020c3660046108cc565b610386565b61014a61021f366004610954565b6001600160a01b03918216600090815260026020908152604080832093909416825291909152205490565b610182610258366004610932565b610394565b60606004805461026c90610987565b80601f016020809104026020016040519081016040528092919081815260200182805461029890610987565b80156102e55780601f106102ba576101008083540402835291602001916102e5565b820191906000526020600020905b8154815290600101906020018083116102c857829003601f168201915b5050505050905090565b6000336102fd8185856103d7565b60019150505b92915050565b6000336103178582856103e9565b610322858585610467565b506001949350505050565b6103356104c6565b61033d6104f3565b565b6103476104c6565b6103518282610545565b5050565b61035d6104c6565b61033d600061057b565b61036f6104c6565b61033d6105cb565b60606005805461026c90610987565b6000336102fd818585610467565b61039c6104c6565b6001600160a01b0381166103cb57604051631e4fbdf760e01b8152600060048201526024015b60405180910390fd5b6103d48161057b565b50565b6103e48383836001610608565b505050565b6001600160a01b038381166000908152600260209081526040808320938616835292905220546000198114610461578181101561045257604051637dc7a0d960e11b81526001600160a01b038416600482015260248101829052604481018390526064016103c2565b61046184848484036000610608565b50505050565b6001600160a01b03831661049157604051634b637e8f60e11b8152600060048201526024016103c2565b6001600160a01b0382166104bb5760405163ec442f0560e01b8152600060048201526024016103c2565b6103e48383836106dd565b6000546001600160a01b0316331461033d5760405163118cdaa760e01b81523360048201526024016103c2565b6104fb6106f0565b6006805460ff191690557f5db9ee0a495bf2e6ff9c91a7834c1ba4fdd244a5e8aa4e537bd38aeae4b073aa335b6040516001600160a01b03909116815260200160405180910390a1565b6001600160a01b03821661056f5760405163ec442f0560e01b8152600060048201526024016103c2565b610351600083836106dd565b600080546001600160a01b038381166001600160a01b0319831681178455604051919092169283917f8be0079c531659141344cd1fd0a4f28419497f9722a3daafe3b4186f6b6457e09190a35050565b6105d3610713565b6006805460ff191660011790557f62e78cea01bee320cd4e420270b5ea74000d11b0c9f74754ebdbfc544b05a2586105283390565b6001600160a01b0384166106325760405163e602df0560e01b8152600060048201526024016103c2565b6001600160a01b03831661065c57604051634a1406b160e11b8152600060048201526024016103c2565b6001600160a01b038085166000908152600260209081526040808320938716835292905220829055801561046157826001600160a01b0316846001600160a01b03167f8c5be1e5ebec7d5bd14f71427d1e84f3dd0314c0f7b2291e5b200ac8c7c3b925846040516106cf91815260200190565b60405180910390a350505050565b6106e5610713565b6103e4838383610737565b60065460ff1661033d57604051638dfc202b60e01b815260040160405180910390fd5b60065460ff161561033d5760405163d93c066560e01b815260040160405180910390fd5b6001600160a01b03831661076257806003600082825461075791906109c1565b909155506107d49050565b6001600160a01b038316600090815260016020526040902054818110156107b55760405163391434e360e21b81526001600160a01b038516600482015260248101829052604481018390526064016103c2565b6001600160a01b03841660009081526001602052604090209082900390555b6001600160a01b0382166107f05760038054829003905561080f565b6001600160a01b03821660009081526001602052604090208054820190555b816001600160a01b0316836001600160a01b03167fddf252ad1be2c89b69c2b068fc378daa952ba7f163c4a11628f55a4df523b3ef8360405161085491815260200190565b60405180910390a3505050565b60006020808352835180602085015260005b8181101561088f57858101830151858201604001528201610873565b506000604082860101526040601f19601f8301168501019250505092915050565b80356001600160a01b03811681146108c757600080fd5b919050565b600080604083850312156108df57600080fd5b6108e8836108b0565b946020939093013593505050565b60008060006060848603121561090b57600080fd5b610914846108b0565b9250610922602085016108b0565b9150604084013590509250925092565b60006020828403121561094457600080fd5b61094d826108b0565b9392505050565b6000806040838503121561096757600080fd5b610970836108b0565b915061097e602084016108b0565b90509250929050565b600181811c9082168061099b57607f821691505b6020821081036109bb57634e487b7160e01b600052602260045260246000fd5b50919050565b8082018082111561030357634e487b7160e01b600052601160045260246000fdfea2646970667358221220ea7f3ded3657eadb7c8ea74b61a7c2e2575d7a9133ea94621e476313be79cd9a64736f6c63430008180033",
  "linkReferences": {},
  "deployedLinkReferences": {}
}