{
  "_format": "hh-sol-artifact-1",
  "contractName": "TimeExchangeLimitsModule",
  "sourceName": "contracts/erc3643/compliance/modular/modules/TimeExchangeLimitsModule.sol",
  "abi": [
    {
      "inputs": [
        {
          "internalType": "address",
          "name": "compliance",
          "type": "address"
        },
        {
          "internalType": "uint256",
          "name": "arraySize",
          "type": "uint256"
        }
      ],
      "name": "LimitsArraySizeExceeded",
      "type": "error"
    },
    {
      "inputs": [
        {
          "internalType": "address",
          "name": "_exchangeID",
          "type": "address"
        }
      ],
      "name": "ONCHAINIDAlreadyTaggedAsExchange",
      "type": "error"
    },
    {
      "inputs": [
        {
          "internalType": "address",
          "name": "_exchangeID",
          "type": "address"
        }
      ],
      "name": "ONCHAINIDNotTaggedAsExchange",
      "type": "error"
    },
    {
      "anonymous": false,
      "inputs": [
        {
          "indexed": true,
          "internalType": "address",
          "name": "_compliance",
          "type": "address"
        }
      ],
      "name": "ComplianceBound",
      "type": "event"
    },
    {
      "anonymous": false,
      "inputs": [
        {
          "indexed": true,
          "internalType": "address",
          "name": "_compliance",
          "type": "address"
        }
      ],
      "name": "ComplianceUnbound",
      "type": "event"
    },
    {
      "anonymous": false,
      "inputs": [
        {
          "indexed": false,
          "internalType": "address",
          "name": "_newExchangeID",
          "type": "address"
        }
      ],
      "name": "ExchangeIDAdded",
      "type": "event"
    },
    {
      "anonymous": false,
      "inputs": [
        {
          "indexed": false,
          "internalType": "address",
          "name": "_exchangeID",
          "type": "address"
        }
      ],
      "name": "ExchangeIDRemoved",
      "type": "event"
    },
    {
      "anonymous": false,
      "inputs": [
        {
          "indexed": true,
          "internalType": "address",
          "name": "compliance",
          "type": "address"
        },
        {
          "indexed": false,
          "internalType": "address",
          "name": "_exchangeID",
          "type": "address"
        },
        {
          "indexed": false,
          "internalType": "uint256",
          "name": "_limitValue",
          "type": "uint256"
        },
        {
          "indexed": false,
          "internalType": "uint32",
          "name": "_limitTime",
          "type": "uint32"
        }
      ],
      "name": "ExchangeLimitUpdated",
      "type": "event"
    },
    {
      "anonymous": false,
      "inputs": [
        {
          "indexed": true,
          "internalType": "address",
          "name": "previousOwner",
          "type": "address"
        },
        {
          "indexed": true,
          "internalType": "address",
          "name": "newOwner",
          "type": "address"
        }
      ],
      "name": "OwnershipTransferred",
      "type": "event"
    },
    {
      "inputs": [
        {
          "internalType": "address",
          "name": "_exchangeID",
          "type": "address"
        }
      ],
      "name": "addExchangeID",
      "outputs": [],
      "stateMutability": "nonpayable",
      "type": "function"
    },
    {
      "inputs": [
        {
          "internalType": "address",
          "name": "_compliance",
          "type": "address"
        }
      ],
      "name": "bindCompliance",
      "outputs": [],
      "stateMutability": "nonpayable",
      "type": "function"
    },
    {
      "inputs": [
        {
          "internalType": "address",
          "name": "",
          "type": "address"
        }
      ],
      "name": "canComplianceBind",
      "outputs": [
        {
          "internalType": "bool",
          "name": "",
          "type": "bool"
        }
      ],
      "stateMutability": "view",
      "type": "function"
    },
    {
      "inputs": [
        {
          "internalType": "address",
          "name": "compliance",
          "type": "address"
        },
        {
          "internalType": "address",
          "name": "_exchangeID",
          "type": "address"
        },
        {
          "internalType": "address",
          "name": "_investorID",
          "type": "address"
        },
        {
          "internalType": "uint32",
          "name": "_limitTime",
          "type": "uint32"
        }
      ],
      "name": "getExchangeCounter",
      "outputs": [
        {
          "components": [
            {
              "internalType": "uint256",
              "name": "value",
              "type": "uint256"
            },
            {
              "internalType": "uint256",
              "name": "timer",
              "type": "uint256"
            }
          ],
          "internalType": "struct TimeExchangeLimitsModule.ExchangeTransferCounter",
          "name": "",
          "type": "tuple"
        }
      ],
      "stateMutability": "view",
      "type": "function"
    },
    {
      "inputs": [
        {
          "internalType": "address",
          "name": "compliance",
          "type": "address"
        },
        {
          "internalType": "address",
          "name": "_exchangeID",
          "type": "address"
        }
      ],
      "name": "getExchangeLimits",
      "outputs": [
        {
          "components": [
            {
              "internalType": "uint32",
              "name": "limitTime",
              "type": "uint32"
            },
            {
              "internalType": "uint256",
              "name": "limitValue",
              "type": "uint256"
            }
          ],
          "internalType": "struct TimeExchangeLimitsModule.Limit[]",
          "name": "",
          "type": "tuple[]"
        }
      ],
      "stateMutability": "view",
      "type": "function"
    },
    {
      "inputs": [
        {
          "internalType": "address",
          "name": "_compliance",
          "type": "address"
        }
      ],
      "name": "isComplianceBound",
      "outputs": [
        {
          "internalType": "bool",
          "name": "",
          "type": "bool"
        }
      ],
      "stateMutability": "view",
      "type": "function"
    },
    {
      "inputs": [
        {
          "internalType": "address",
          "name": "_exchangeID",
          "type": "address"
        }
      ],
      "name": "isExchangeID",
      "outputs": [
        {
          "internalType": "bool",
          "name": "",
          "type": "bool"
        }
      ],
      "stateMutability": "view",
      "type": "function"
    },
    {
      "inputs": [],
      "name": "isPlugAndPlay",
      "outputs": [
        {
          "internalType": "bool",
          "name": "",
          "type": "bool"
        }
      ],
      "stateMutability": "pure",
      "type": "function"
    },
    {
      "inputs": [
        {
          "internalType": "address",
          "name": "",
          "type": "address"
        },
        {
          "internalType": "uint256",
          "name": "",
          "type": "uint256"
        }
      ],
      "name": "moduleBurnAction",
      "outputs": [],
      "stateMutability": "nonpayable",
      "type": "function"
    },
    {
      "inputs": [
        {
          "internalType": "address",
          "name": "_from",
          "type": "address"
        },
        {
          "internalType": "address",
          "name": "_to",
          "type": "address"
        },
        {
          "internalType": "uint256",
          "name": "_value",
          "type": "uint256"
        },
        {
          "internalType": "address",
          "name": "_compliance",
          "type": "address"
        }
      ],
      "name": "moduleCheck",
      "outputs": [
        {
          "internalType": "bool",
          "name": "",
          "type": "bool"
        }
      ],
      "stateMutability": "view",
      "type": "function"
    },
    {
      "inputs": [
        {
          "internalType": "address",
          "name": "",
          "type": "address"
        },
        {
          "internalType": "uint256",
          "name": "",
          "type": "uint256"
        }
      ],
      "name": "moduleMintAction",
      "outputs": [],
      "stateMutability": "nonpayable",
      "type": "function"
    },
    {
      "inputs": [
        {
          "internalType": "address",
          "name": "_from",
          "type": "address"
        },
        {
          "internalType": "address",
          "name": "_to",
          "type": "address"
        },
        {
          "internalType": "uint256",
          "name": "_value",
          "type": "uint256"
        }
      ],
      "name": "moduleTransferAction",
      "outputs": [],
      "stateMutability": "nonpayable",
      "type": "function"
    },
    {
      "inputs": [],
      "name": "name",
      "outputs": [
        {
          "internalType": "string",
          "name": "_name",
          "type": "string"
        }
      ],
      "stateMutability": "pure",
      "type": "function"
    },
    {
      "inputs": [],
      "name": "owner",
      "outputs": [
        {
          "internalType": "address",
          "name": "",
          "type": "address"
        }
      ],
      "stateMutability": "view",
      "type": "function"
    },
    {
      "inputs": [
        {
          "internalType": "address",
          "name": "_exchangeID",
          "type": "address"
        }
      ],
      "name": "removeExchangeID",
      "outputs": [],
      "stateMutability": "nonpayable",
      "type": "function"
    },
    {
      "inputs": [],
      "name": "renounceOwnership",
      "outputs": [],
      "stateMutability": "nonpayable",
      "type": "function"
    },
    {
      "inputs": [
        {
          "internalType": "address",
          "name": "_exchangeID",
          "type": "address"
        },
        {
          "components": [
            {
              "internalType": "uint32",
              "name": "limitTime",
              "type": "uint32"
            },
            {
              "internalType": "uint256",
              "name": "limitValue",
              "type": "uint256"
            }
          ],
          "internalType": "struct TimeExchangeLimitsModule.Limit",
          "name": "_limit",
          "type": "tuple"
        }
      ],
      "name": "setExchangeLimit",
      "outputs": [],
      "stateMutability": "nonpayable",
      "type": "function"
    },
    {
      "inputs": [
        {
          "internalType": "address",
          "name": "newOwner",
          "type": "address"
        }
      ],
      "name": "transferOwnership",
      "outputs": [],
      "stateMutability": "nonpayable",
      "type": "function"
    },
    {
      "inputs": [
        {
          "internalType": "address",
          "name": "_compliance",
          "type": "address"
        }
      ],
      "name": "unbindCompliance",
      "outputs": [],
      "stateMutability": "nonpayable",
      "type": "function"
    }
  ],
  "bytecode": "0x608060405234801561001057600080fd5b5061001a3361001f565b610071565b600180546001600160a01b038381166001600160a01b0319831681179093556040519116919082907f8be0079c531659141344cd1fd0a4f28419497f9722a3daafe3b4186f6b6457e090600090a35050565b611586806100806000396000f3fe608060405234801561001057600080fd5b50600436106101215760003560e01c806374436d97116100ad578063c9d9769a11610071578063c9d9769a14610319578063d22579fb1461032c578063e6f5e8071461033f578063f104a8c9146101c8578063f2fde38b1461034657600080fd5b806374436d97146102225780638da5cb5b14610235578063ac0dde7014610250578063b19761a814610270578063bcc210531461030557600080fd5b80632cb7e1ec116100f45780632cb7e1ec146101b5578063372491a2146101c85780634a932544146101db5780634cf4d295146101ee578063715018a61461021a57600080fd5b8063013b7ce4146101265780630694a5fb1461014e57806306fdde03146101635780632bb5e721146101a2575b600080fd5b6101396101343660046111ac565b610359565b60405190151581526020015b60405180910390f35b61016161015c3660046111ff565b610581565b005b604080518082018252601881527f54696d6545786368616e67654c696d6974734d6f64756c65000000000000000060208201529051610145919061121c565b6101616101b03660046111ff565b610680565b6101616101c336600461126b565b610715565b6101616101d63660046112ac565b610794565b6101616101e93660046111ff565b6107c7565b6101396101fc3660046111ff565b6001600160a01b031660009081526020819052604090205460ff1690565b6101616108fa565b6101616102303660046111ff565b61090e565b6001546040516001600160a01b039091168152602001610145565b61026361025e3660046112d8565b610998565b6040516101459190611311565b6102ea61027e36600461137f565b604080518082018252600080825260209182018190526001600160a01b03968716815260048252828120958716815294815281852093909516845291845281832063ffffffff919091168352835290819020815180830190925280548252600101549181019190915290565b60408051825181526020928301519281019290925201610145565b6101396103133660046111ff565b50600190565b6101616103273660046113d9565b610a2e565b61013961033a3660046111ff565b610ca9565b6001610139565b6101616103543660046111ff565b610cc7565b60006001600160a01b038516158061037657506103768286610d40565b1561038357506001610579565b600061038f8387610e17565b905061039a81610ca9565b156103a9576001915050610579565b60006103b58487610e17565b90506103c081610ca9565b6103cf57600192505050610579565b60005b6001600160a01b03808616600090815260036020908152604080832093861683529290522054811015610571576001600160a01b03808616600090815260036020908152604080832093861683529290522080548290811061043657610436611462565b90600052602060002090600202016001015486111561045b5760009350505050610579565b6001600160a01b038086166000908152600360209081526040808320938616835292905290812080548390811061049457610494611462565b600091825260209091206002909102015463ffffffff1690506104b986848684610f48565b15801561055657506001600160a01b0380871660009081526003602090815260408083209387168352929052208054839081106104f8576104f8611462565b60009182526020808320600160029093020191909101546001600160a01b03808a16845260048352604080852088831686528452808520918916855290835280842063ffffffff86168552909252912054610554908990611478565b115b15610568576000945050505050610579565b506001016103d2565b506001925050505b949350505050565b3360009081526020819052604090205460ff166105b95760405162461bcd60e51b81526004016105b090611499565b60405180910390fd5b6001600160a01b03811661060f5760405162461bcd60e51b815260206004820152601f60248201527f696e76616c696420617267756d656e74202d207a65726f20616464726573730060448201526064016105b0565b336001600160a01b038216146106375760405162461bcd60e51b81526004016105b0906114d0565b6001600160a01b038116600081815260208190526040808220805460ff19169055517f408b49d9be1c914c52a0227e18a077e5a892dddf32a26cfa94a5d9708fad77189190a250565b610688610f94565b61069181610ca9565b156106ba576040516345d1498b60e01b81526001600160a01b03821660048201526024016105b0565b6001600160a01b038116600081815260056020908152604091829020805460ff1916600117905590519182527fca661533a567195376b79f20fcbcca20e62ceea1d43efacba5f8028329da8e6b91015b60405180910390a150565b3360009081526020819052604090205460ff166107445760405162461bcd60e51b81526004016105b090611499565b60006107503385610e17565b9050600061075e3385610e17565b905061076981610ca9565b801561077c575061077a3386610d40565b155b1561078d5761078d33828486610fee565b5050505050565b3360009081526020819052604090205460ff166107c35760405162461bcd60e51b81526004016105b090611499565b5050565b6001600160a01b03811661081d5760405162461bcd60e51b815260206004820152601f60248201527f696e76616c696420617267756d656e74202d207a65726f20616464726573730060448201526064016105b0565b6001600160a01b03811660009081526020819052604090205460ff16156108865760405162461bcd60e51b815260206004820152601860248201527f636f6d706c69616e636520616c726561647920626f756e64000000000000000060448201526064016105b0565b336001600160a01b038216146108ae5760405162461bcd60e51b81526004016105b0906114d0565b6001600160a01b038116600081815260208190526040808220805460ff19166001179055517f1f7b76c58fb697eb53c6c7c1becb96911516a136e24d7ced386b2355358b75a39190a250565b610902610f94565b61090c60006110d9565b565b610916610f94565b61091f81610ca9565b61094757604051630120783160e61b81526001600160a01b03821660048201526024016105b0565b6001600160a01b038116600081815260056020908152604091829020805460ff1916905590519182527fc59743ca46d36b7cf42c36211a2fbef12e10aec1bfc9d39eccf91b6976a260f5910161070a565b6001600160a01b0380831660009081526003602090815260408083209385168352928152828220805484518184028101840190955280855260609493919290919084015b82821015610a215760008481526020908190206040805180820190915260028502909101805463ffffffff1682526001908101548284015290835290920191016109dc565b5050505090505b92915050565b3360009081526020819052604090205460ff16610a5d5760405162461bcd60e51b81526004016105b090611499565b3360008181526002602090815260408083206001600160a01b038716808552908352818420865163ffffffff1685528352818420549484526003835281842090845290915290205460ff9091169081158015610abd575060048160ff1610155b15610ae6576040516382f520a960e01b815233600482015260ff821660248201526044016105b0565b81158015610af7575060048160ff16105b15610bb3573360008181526003602090815260408083206001600160a01b0389168085529083528184208054600180820183559186528486208a516002928302909101805463ffffffff191663ffffffff9283161781558b870151908401558451808601865292835260ff8981168488019081529888529186528487209387529285528386208a51909316865291909352922090518154935161ffff1990941690151561ff001916176101009390921692909202179055610c4b565b3360008181526003602090815260408083206001600160a01b038916808552908352818420948452600283528184209084528252808320875163ffffffff1684529091529020548154859291610100900460ff16908110610c1657610c16611462565b6000918252602091829020835160029290920201805463ffffffff191663ffffffff9092169190911781559101516001909101555b6020838101518451604080516001600160a01b03891681529384019290925263ffffffff169082015233907fbdaa98f5444de6f9849a851f2c112d373c67c253895b3ca2c57204c0f6e1b58c9060600160405180910390a250505050565b6001600160a01b031660009081526005602052604090205460ff1690565b610ccf610f94565b6001600160a01b038116610d345760405162461bcd60e51b815260206004820152602660248201527f4f776e61626c653a206e6577206f776e657220697320746865207a65726f206160448201526564647265737360d01b60648201526084016105b0565b610d3d816110d9565b50565b6000826001600160a01b0316636a3edf286040518163ffffffff1660e01b8152600401602060405180830381865afa158015610d80573d6000803e3d6000fd5b505050506040513d601f19601f82011682018060405250810190610da49190611511565b6040516307feec1960e21b81526001600160a01b0384811660048301529190911690631ffbb06490602401602060405180830381865afa158015610dec573d6000803e3d6000fd5b505050506040513d601f19601f82011682018060405250810190610e10919061152e565b9392505050565b6000826001600160a01b0316636a3edf286040518163ffffffff1660e01b8152600401602060405180830381865afa158015610e57573d6000803e3d6000fd5b505050506040513d601f19601f82011682018060405250810190610e7b9190611511565b6001600160a01b031663134e18f46040518163ffffffff1660e01b8152600401602060405180830381865afa158015610eb8573d6000803e3d6000fd5b505050506040513d601f19601f82011682018060405250810190610edc9190611511565b604051633c3ad79560e21b81526001600160a01b038481166004830152919091169063f0eb5e5490602401602060405180830381865afa158015610f24573d6000803e3d6000fd5b505050506040513d601f19601f82011682018060405250810190610e109190611511565b6001600160a01b03808516600090815260046020908152604080832087851684528252808320938616835292815282822063ffffffff8516835290522060010154421015949350505050565b6001546001600160a01b0316331461090c5760405162461bcd60e51b815260206004820181905260248201527f4f776e61626c653a2063616c6c6572206973206e6f7420746865206f776e657260448201526064016105b0565b60005b6001600160a01b0380861660009081526003602090815260408083209388168352929052205481101561078d576001600160a01b038086166000908152600360209081526040808320938816835292905290812080548390811061105757611057611462565b600091825260209091206002909102015463ffffffff16905061107c8686868461112b565b6001600160a01b03808716600090815260046020908152604080832089851684528252808320938816835292815282822063ffffffff85168352905290812080548592906110cb908490611478565b909155505050600101610ff1565b600180546001600160a01b038381166001600160a01b0319831681179093556040519116919082907f8be0079c531659141344cd1fd0a4f28419497f9722a3daafe3b4186f6b6457e090600090a35050565b61113784848484610f48565b15611191576001600160a01b03808516600090815260046020908152604080832087851684528252808320938616835292815282822063ffffffff85168084529152919020906111879042611478565b6001820155600090555b50505050565b6001600160a01b0381168114610d3d57600080fd5b600080600080608085870312156111c257600080fd5b84356111cd81611197565b935060208501356111dd81611197565b92506040850135915060608501356111f481611197565b939692955090935050565b60006020828403121561121157600080fd5b8135610e1081611197565b60006020808352835180602085015260005b8181101561124a5785810183015185820160400152820161122e565b506000604082860101526040601f19601f8301168501019250505092915050565b60008060006060848603121561128057600080fd5b833561128b81611197565b9250602084013561129b81611197565b929592945050506040919091013590565b600080604083850312156112bf57600080fd5b82356112ca81611197565b946020939093013593505050565b600080604083850312156112eb57600080fd5b82356112f681611197565b9150602083013561130681611197565b809150509250929050565b602080825282518282018190526000919060409081850190868401855b82811015611359578151805163ffffffff16855286015186850152928401929085019060010161132e565b5091979650505050505050565b803563ffffffff8116811461137a57600080fd5b919050565b6000806000806080858703121561139557600080fd5b84356113a081611197565b935060208501356113b081611197565b925060408501356113c081611197565b91506113ce60608601611366565b905092959194509250565b60008082840360608112156113ed57600080fd5b83356113f881611197565b92506040601f198201121561140c57600080fd5b506040516040810181811067ffffffffffffffff8211171561143e57634e487b7160e01b600052604160045260246000fd5b60405261144d60208501611366565b81526040939093013560208401525092909150565b634e487b7160e01b600052603260045260246000fd5b80820180821115610a2857634e487b7160e01b600052601160045260246000fd5b6020808252601e908201527f6f6e6c7920626f756e6420636f6d706c69616e63652063616e2063616c6c0000604082015260600190565b60208082526021908201527f6f6e6c7920636f6d706c69616e636520636f6e74726163742063616e2063616c6040820152601b60fa1b606082015260800190565b60006020828403121561152357600080fd5b8151610e1081611197565b60006020828403121561154057600080fd5b81518015158114610e1057600080fdfea264697066735822122074d798f23202644789a38cab2147245e02bebc29c2fd7cb87c912d3411bd76a864736f6c63430008180033",
  "linkReferences": {},
  "deployedLinkReferences": {}
}