{
  "_format": "hh-sol-artifact-1",
  "contractName": "Token",
  "sourceName": "contracts/erc3643/token/Token.sol",
  "abi": [
    {
      "anonymous": false,
      "inputs": [
        {
          "indexed": true,
          "internalType": "address",
          "name": "_userAddress",
          "type": "address"
        },
        {
          "indexed": true,
          "internalType": "bool",
          "name": "_isFrozen",
          "type": "bool"
        },
        {
          "indexed": true,
          "internalType": "address",
          "name": "_owner",
          "type": "address"
        }
      ],
      "name": "AddressFrozen",
      "type": "event"
    },
    {
      "anonymous": false,
      "inputs": [
        {
          "indexed": true,
          "internalType": "address",
          "name": "_agent",
          "type": "address"
        }
      ],
      "name": "AgentAdded",
      "type": "event"
    },
    {
      "anonymous": false,
      "inputs": [
        {
          "indexed": true,
          "internalType": "address",
          "name": "_agent",
          "type": "address"
        }
      ],
      "name": "AgentRemoved",
      "type": "event"
    },
    {
      "anonymous": false,
      "inputs": [
        {
          "indexed": true,
          "internalType": "address",
          "name": "owner",
          "type": "address"
        },
        {
          "indexed": true,
          "internalType": "address",
          "name": "spender",
          "type": "address"
        },
        {
          "indexed": false,
          "internalType": "uint256",
          "name": "value",
          "type": "uint256"
        }
      ],
      "name": "Approval",
      "type": "event"
    },
    {
      "anonymous": false,
      "inputs": [
        {
          "indexed": true,
          "internalType": "address",
          "name": "_compliance",
          "type": "address"
        }
      ],
      "name": "ComplianceAdded",
      "type": "event"
    },
    {
      "anonymous": false,
      "inputs": [
        {
          "indexed": true,
          "internalType": "address",
          "name": "_identityRegistry",
          "type": "address"
        }
      ],
      "name": "IdentityRegistryAdded",
      "type": "event"
    },
    {
      "anonymous": false,
      "inputs": [
        {
          "indexed": false,
          "internalType": "uint8",
          "name": "version",
          "type": "uint8"
        }
      ],
      "name": "Initialized",
      "type": "event"
    },
    {
      "anonymous": false,
      "inputs": [
        {
          "indexed": true,
          "internalType": "address",
          "name": "previousOwner",
          "type": "address"
        },
        {
          "indexed": true,
          "internalType": "address",
          "name": "newOwner",
          "type": "address"
        }
      ],
      "name": "OwnershipTransferred",
      "type": "event"
    },
    {
      "anonymous": false,
      "inputs": [
        {
          "indexed": false,
          "internalType": "address",
          "name": "_userAddress",
          "type": "address"
        }
      ],
      "name": "Paused",
      "type": "event"
    },
    {
      "anonymous": false,
      "inputs": [
        {
          "indexed": true,
          "internalType": "address",
          "name": "_lostWallet",
          "type": "address"
        },
        {
          "indexed": true,
          "internalType": "address",
          "name": "_newWallet",
          "type": "address"
        },
        {
          "indexed": true,
          "internalType": "address",
          "name": "_investorOnchainID",
          "type": "address"
        }
      ],
      "name": "RecoverySuccess",
      "type": "event"
    },
    {
      "anonymous": false,
      "inputs": [
        {
          "indexed": true,
          "internalType": "address",
          "name": "_userAddress",
          "type": "address"
        },
        {
          "indexed": false,
          "internalType": "uint256",
          "name": "_amount",
          "type": "uint256"
        }
      ],
      "name": "TokensFrozen",
      "type": "event"
    },
    {
      "anonymous": false,
      "inputs": [
        {
          "indexed": true,
          "internalType": "address",
          "name": "_userAddress",
          "type": "address"
        },
        {
          "indexed": false,
          "internalType": "uint256",
          "name": "_amount",
          "type": "uint256"
        }
      ],
      "name": "TokensUnfrozen",
      "type": "event"
    },
    {
      "anonymous": false,
      "inputs": [
        {
          "indexed": true,
          "internalType": "address",
          "name": "from",
          "type": "address"
        },
        {
          "indexed": true,
          "internalType": "address",
          "name": "to",
          "type": "address"
        },
        {
          "indexed": false,
          "internalType": "uint256",
          "name": "value",
          "type": "uint256"
        }
      ],
      "name": "Transfer",
      "type": "event"
    },
    {
      "anonymous": false,
      "inputs": [
        {
          "indexed": false,
          "internalType": "address",
          "name": "_userAddress",
          "type": "address"
        }
      ],
      "name": "Unpaused",
      "type": "event"
    },
    {
      "anonymous": false,
      "inputs": [
        {
          "indexed": true,
          "internalType": "string",
          "name": "_newName",
          "type": "string"
        },
        {
          "indexed": true,
          "internalType": "string",
          "name": "_newSymbol",
          "type": "string"
        },
        {
          "indexed": false,
          "internalType": "uint8",
          "name": "_newDecimals",
          "type": "uint8"
        },
        {
          "indexed": false,
          "internalType": "string",
          "name": "_newVersion",
          "type": "string"
        },
        {
          "indexed": true,
          "internalType": "address",
          "name": "_newOnchainID",
          "type": "address"
        }
      ],
      "name": "UpdatedTokenInformation",
      "type": "event"
    },
    {
      "inputs": [
        {
          "internalType": "address",
          "name": "_agent",
          "type": "address"
        }
      ],
      "name": "addAgent",
      "outputs": [],
      "stateMutability": "nonpayable",
      "type": "function"
    },
    {
      "inputs": [
        {
          "internalType": "address",
          "name": "_owner",
          "type": "address"
        },
        {
          "internalType": "address",
          "name": "_spender",
          "type": "address"
        }
      ],
      "name": "allowance",
      "outputs": [
        {
          "internalType": "uint256",
          "name": "",
          "type": "uint256"
        }
      ],
      "stateMutability": "view",
      "type": "function"
    },
    {
      "inputs": [
        {
          "internalType": "address",
          "name": "_spender",
          "type": "address"
        },
        {
          "internalType": "uint256",
          "name": "_amount",
          "type": "uint256"
        }
      ],
      "name": "approve",
      "outputs": [
        {
          "internalType": "bool",
          "name": "",
          "type": "bool"
        }
      ],
      "stateMutability": "nonpayable",
      "type": "function"
    },
    {
      "inputs": [
        {
          "internalType": "address",
          "name": "_userAddress",
          "type": "address"
        }
      ],
      "name": "balanceOf",
      "outputs": [
        {
          "internalType": "uint256",
          "name": "",
          "type": "uint256"
        }
      ],
      "stateMutability": "view",
      "type": "function"
    },
    {
      "inputs": [
        {
          "internalType": "address[]",
          "name": "_userAddresses",
          "type": "address[]"
        },
        {
          "internalType": "uint256[]",
          "name": "_amounts",
          "type": "uint256[]"
        }
      ],
      "name": "batchBurn",
      "outputs": [],
      "stateMutability": "nonpayable",
      "type": "function"
    },
    {
      "inputs": [
        {
          "internalType": "address[]",
          "name": "_fromList",
          "type": "address[]"
        },
        {
          "internalType": "address[]",
          "name": "_toList",
          "type": "address[]"
        },
        {
          "internalType": "uint256[]",
          "name": "_amounts",
          "type": "uint256[]"
        }
      ],
      "name": "batchForcedTransfer",
      "outputs": [],
      "stateMutability": "nonpayable",
      "type": "function"
    },
    {
      "inputs": [
        {
          "internalType": "address[]",
          "name": "_userAddresses",
          "type": "address[]"
        },
        {
          "internalType": "uint256[]",
          "name": "_amounts",
          "type": "uint256[]"
        }
      ],
      "name": "batchFreezePartialTokens",
      "outputs": [],
      "stateMutability": "nonpayable",
      "type": "function"
    },
    {
      "inputs": [
        {
          "internalType": "address[]",
          "name": "_toList",
          "type": "address[]"
        },
        {
          "internalType": "uint256[]",
          "name": "_amounts",
          "type": "uint256[]"
        }
      ],
      "name": "batchMint",
      "outputs": [],
      "stateMutability": "nonpayable",
      "type": "function"
    },
    {
      "inputs": [
        {
          "internalType": "address[]",
          "name": "_userAddresses",
          "type": "address[]"
        },
        {
          "internalType": "bool[]",
          "name": "_freeze",
          "type": "bool[]"
        }
      ],
      "name": "batchSetAddressFrozen",
      "outputs": [],
      "stateMutability": "nonpayable",
      "type": "function"
    },
    {
      "inputs": [
        {
          "internalType": "address[]",
          "name": "_toList",
          "type": "address[]"
        },
        {
          "internalType": "uint256[]",
          "name": "_amounts",
          "type": "uint256[]"
        }
      ],
      "name": "batchTransfer",
      "outputs": [],
      "stateMutability": "nonpayable",
      "type": "function"
    },
    {
      "inputs": [
        {
          "internalType": "address[]",
          "name": "_userAddresses",
          "type": "address[]"
        },
        {
          "internalType": "uint256[]",
          "name": "_amounts",
          "type": "uint256[]"
        }
      ],
      "name": "batchUnfreezePartialTokens",
      "outputs": [],
      "stateMutability": "nonpayable",
      "type": "function"
    },
    {
      "inputs": [
        {
          "internalType": "address",
          "name": "_userAddress",
          "type": "address"
        },
        {
          "internalType": "uint256",
          "name": "_amount",
          "type": "uint256"
        }
      ],
      "name": "burn",
      "outputs": [],
      "stateMutability": "nonpayable",
      "type": "function"
    },
    {
      "inputs": [],
      "name": "compliance",
      "outputs": [
        {
          "internalType": "contract IModularCompliance",
          "name": "",
          "type": "address"
        }
      ],
      "stateMutability": "view",
      "type": "function"
    },
    {
      "inputs": [],
      "name": "decimals",
      "outputs": [
        {
          "internalType": "uint8",
          "name": "",
          "type": "uint8"
        }
      ],
      "stateMutability": "view",
      "type": "function"
    },
    {
      "inputs": [
        {
          "internalType": "address",
          "name": "_spender",
          "type": "address"
        },
        {
          "internalType": "uint256",
          "name": "_subtractedValue",
          "type": "uint256"
        }
      ],
      "name": "decreaseAllowance",
      "outputs": [
        {
          "internalType": "bool",
          "name": "",
          "type": "bool"
        }
      ],
      "stateMutability": "nonpayable",
      "type": "function"
    },
    {
      "inputs": [
        {
          "internalType": "address",
          "name": "_from",
          "type": "address"
        },
        {
          "internalType": "address",
          "name": "_to",
          "type": "address"
        },
        {
          "internalType": "uint256",
          "name": "_amount",
          "type": "uint256"
        }
      ],
      "name": "forcedTransfer",
      "outputs": [
        {
          "internalType": "bool",
          "name": "",
          "type": "bool"
        }
      ],
      "stateMutability": "nonpayable",
      "type": "function"
    },
    {
      "inputs": [
        {
          "internalType": "address",
          "name": "_userAddress",
          "type": "address"
        },
        {
          "internalType": "uint256",
          "name": "_amount",
          "type": "uint256"
        }
      ],
      "name": "freezePartialTokens",
      "outputs": [],
      "stateMutability": "nonpayable",
      "type": "function"
    },
    {
      "inputs": [
        {
          "internalType": "address",
          "name": "_userAddress",
          "type": "address"
        }
      ],
      "name": "getFrozenTokens",
      "outputs": [
        {
          "internalType": "uint256",
          "name": "",
          "type": "uint256"
        }
      ],
      "stateMutability": "view",
      "type": "function"
    },
    {
      "inputs": [],
      "name": "identityRegistry",
      "outputs": [
        {
          "internalType": "contract IIdentityRegistry",
          "name": "",
          "type": "address"
        }
      ],
      "stateMutability": "view",
      "type": "function"
    },
    {
      "inputs": [
        {
          "internalType": "address",
          "name": "_spender",
          "type": "address"
        },
        {
          "internalType": "uint256",
          "name": "_addedValue",
          "type": "uint256"
        }
      ],
      "name": "increaseAllowance",
      "outputs": [
        {
          "internalType": "bool",
          "name": "",
          "type": "bool"
        }
      ],
      "stateMutability": "nonpayable",
      "type": "function"
    },
    {
      "inputs": [
        {
          "internalType": "address",
          "name": "_identityRegistry",
          "type": "address"
        },
        {
          "internalType": "address",
          "name": "_compliance",
          "type": "address"
        },
        {
          "internalType": "string",
          "name": "_name",
          "type": "string"
        },
        {
          "internalType": "string",
          "name": "_symbol",
          "type": "string"
        },
        {
          "internalType": "uint8",
          "name": "_decimals",
          "type": "uint8"
        },
        {
          "internalType": "address",
          "name": "_onchainID",
          "type": "address"
        }
      ],
      "name": "init",
      "outputs": [],
      "stateMutability": "nonpayable",
      "type": "function"
    },
    {
      "inputs": [
        {
          "internalType": "address",
          "name": "_agent",
          "type": "address"
        }
      ],
      "name": "isAgent",
      "outputs": [
        {
          "internalType": "bool",
          "name": "",
          "type": "bool"
        }
      ],
      "stateMutability": "view",
      "type": "function"
    },
    {
      "inputs": [
        {
          "internalType": "address",
          "name": "_userAddress",
          "type": "address"
        }
      ],
      "name": "isFrozen",
      "outputs": [
        {
          "internalType": "bool",
          "name": "",
          "type": "bool"
        }
      ],
      "stateMutability": "view",
      "type": "function"
    },
    {
      "inputs": [
        {
          "internalType": "address",
          "name": "_to",
          "type": "address"
        },
        {
          "internalType": "uint256",
          "name": "_amount",
          "type": "uint256"
        }
      ],
      "name": "mint",
      "outputs": [],
      "stateMutability": "nonpayable",
      "type": "function"
    },
    {
      "inputs": [],
      "name": "name",
      "outputs": [
        {
          "internalType": "string",
          "name": "",
          "type": "string"
        }
      ],
      "stateMutability": "view",
      "type": "function"
    },
    {
      "inputs": [],
      "name": "onchainID",
      "outputs": [
        {
          "internalType": "address",
          "name": "",
          "type": "address"
        }
      ],
      "stateMutability": "view",
      "type": "function"
    },
    {
      "inputs": [],
      "name": "owner",
      "outputs": [
        {
          "internalType": "address",
          "name": "",
          "type": "address"
        }
      ],
      "stateMutability": "view",
      "type": "function"
    },
    {
      "inputs": [],
      "name": "pause",
      "outputs": [],
      "stateMutability": "nonpayable",
      "type": "function"
    },
    {
      "inputs": [],
      "name": "paused",
      "outputs": [
        {
          "internalType": "bool",
          "name": "",
          "type": "bool"
        }
      ],
      "stateMutability": "view",
      "type": "function"
    },
    {
      "inputs": [
        {
          "internalType": "address",
          "name": "_lostWallet",
          "type": "address"
        },
        {
          "internalType": "address",
          "name": "_newWallet",
          "type": "address"
        },
        {
          "internalType": "address",
          "name": "_investorOnchainID",
          "type": "address"
        }
      ],
      "name": "recoveryAddress",
      "outputs": [
        {
          "internalType": "bool",
          "name": "",
          "type": "bool"
        }
      ],
      "stateMutability": "nonpayable",
      "type": "function"
    },
    {
      "inputs": [
        {
          "internalType": "address",
          "name": "_agent",
          "type": "address"
        }
      ],
      "name": "removeAgent",
      "outputs": [],
      "stateMutability": "nonpayable",
      "type": "function"
    },
    {
      "inputs": [],
      "name": "renounceOwnership",
      "outputs": [],
      "stateMutability": "nonpayable",
      "type": "function"
    },
    {
      "inputs": [
        {
          "internalType": "address",
          "name": "_userAddress",
          "type": "address"
        },
        {
          "internalType": "bool",
          "name": "_freeze",
          "type": "bool"
        }
      ],
      "name": "setAddressFrozen",
      "outputs": [],
      "stateMutability": "nonpayable",
      "type": "function"
    },
    {
      "inputs": [
        {
          "internalType": "address",
          "name": "_compliance",
          "type": "address"
        }
      ],
      "name": "setCompliance",
      "outputs": [],
      "stateMutability": "nonpayable",
      "type": "function"
    },
    {
      "inputs": [
        {
          "internalType": "address",
          "name": "_identityRegistry",
          "type": "address"
        }
      ],
      "name": "setIdentityRegistry",
      "outputs": [],
      "stateMutability": "nonpayable",
      "type": "function"
    },
    {
      "inputs": [
        {
          "internalType": "string",
          "name": "_name",
          "type": "string"
        }
      ],
      "name": "setName",
      "outputs": [],
      "stateMutability": "nonpayable",
      "type": "function"
    },
    {
      "inputs": [
        {
          "internalType": "address",
          "name": "_onchainID",
          "type": "address"
        }
      ],
      "name": "setOnchainID",
      "outputs": [],
      "stateMutability": "nonpayable",
      "type": "function"
    },
    {
      "inputs": [
        {
          "internalType": "string",
          "name": "_symbol",
          "type": "string"
        }
      ],
      "name": "setSymbol",
      "outputs": [],
      "stateMutability": "nonpayable",
      "type": "function"
    },
    {
      "inputs": [],
      "name": "symbol",
      "outputs": [
        {
          "internalType": "string",
          "name": "",
          "type": "string"
        }
      ],
      "stateMutability": "view",
      "type": "function"
    },
    {
      "inputs": [],
      "name": "totalSupply",
      "outputs": [
        {
          "internalType": "uint256",
          "name": "",
          "type": "uint256"
        }
      ],
      "stateMutability": "view",
      "type": "function"
    },
    {
      "inputs": [
        {
          "internalType": "address",
          "name": "_to",
          "type": "address"
        },
        {
          "internalType": "uint256",
          "name": "_amount",
          "type": "uint256"
        }
      ],
      "name": "transfer",
      "outputs": [
        {
          "internalType": "bool",
          "name": "",
          "type": "bool"
        }
      ],
      "stateMutability": "nonpayable",
      "type": "function"
    },
    {
      "inputs": [
        {
          "internalType": "address",
          "name": "_from",
          "type": "address"
        },
        {
          "internalType": "address",
          "name": "_to",
          "type": "address"
        },
        {
          "internalType": "uint256",
          "name": "_amount",
          "type": "uint256"
        }
      ],
      "name": "transferFrom",
      "outputs": [
        {
          "internalType": "bool",
          "name": "",
          "type": "bool"
        }
      ],
      "stateMutability": "nonpayable",
      "type": "function"
    },
    {
      "inputs": [
        {
          "internalType": "address",
          "name": "newOwner",
          "type": "address"
        }
      ],
      "name": "transferOwnership",
      "outputs": [],
      "stateMutability": "nonpayable",
      "type": "function"
    },
    {
      "inputs": [
        {
          "internalType": "address",
          "name": "_userAddress",
          "type": "address"
        },
        {
          "internalType": "uint256",
          "name": "_amount",
          "type": "uint256"
        }
      ],
      "name": "unfreezePartialTokens",
      "outputs": [],
      "stateMutability": "nonpayable",
      "type": "function"
    },
    {
      "inputs": [],
      "name": "unpause",
      "outputs": [],
      "stateMutability": "nonpayable",
      "type": "function"
    },
    {
      "inputs": [],
      "name": "version",
      "outputs": [
        {
          "internalType": "string",
          "name": "",
          "type": "string"
        }
      ],
      "stateMutability": "pure",
      "type": "function"
    }
  ],
  "bytecode": "0x6080604052606e805460ff1916905534801561001a57600080fd5b506137488061002a6000396000f3fe608060405234801561001057600080fd5b506004361061028a5760003560e01c8063715018a61161015c578063a9059cbb116100ce578063dd62ed3e11610087578063dd62ed3e146105af578063e5839836146105e8578063f2fde38b14610614578063f898178914610627578063f91b619c1461063a578063fc7e5fa81461064d57600080fd5b8063a9059cbb1461053a578063aba637051461054d578063b84c824614610563578063c47f002714610576578063c69c09cf14610589578063cbf3f8611461059c57600080fd5b80639285948a116101205780639285948a146104d357806395d89b41146104e657806397a6278e146104ee5780639dc29fac146105015780639fc1d0e714610514578063a457c2d71461052757600080fd5b8063715018a61461048c5780638456cb591461049457806384e798421461049c57806388d695b2146104af5780638da5cb5b146104c257600080fd5b806339509351116102005780634a6cc677116101b95780634a6cc6771461041657806354fd4d50146104295780635c975abb1461044a5780636290865d14610455578063685731071461046657806370a082311461047957600080fd5b806339509351146103af5780633d1ddc5b146103c25780633f4ba83a146103d557806340c10f19146103dd57806342a47abc146103f05780634710362d1461040357600080fd5b806318160ddd1161025257806318160ddd146103465780631a7af3791461034e5780631fe56f7d146103615780631ffbb0641461037457806323b872dd14610387578063313ce5671461039a57600080fd5b806306fdde031461028f578063095ea7b3146102ad578063125c4a33146102d0578063134e18f4146102e5578063158b1a571461030f575b600080fd5b610297610660565b6040516102a49190612dc3565b60405180910390f35b6102c06102bb366004612df2565b6106f2565b60405190151581526020016102a4565b6102e36102de366004612df2565b610709565b005b606e5461010090046001600160a01b03165b6040516001600160a01b0390911681526020016102a4565b61033861031d366004612e1c565b6001600160a01b03166000908152606d602052604090205490565b6040519081526020016102a4565b606854610338565b6102e361035c366004612e83565b610838565b6102e361036f366004612df2565b6108a3565b6102c0610382366004612e1c565b6109cc565b6102c0610395366004612eef565b6109d9565b606b5460405160ff90911681526020016102a4565b6102c06103bd366004612df2565b610ce3565b6102e36103d0366004612e1c565b610d1a565b6102e3610dd8565b6102e36103eb366004612df2565b610e86565b6102e36103fe366004612f2b565b6110a1565b6102e3610411366004612e83565b61112d565b6102e3610424366004612e83565b611188565b604080518082019091526005815264342e312e3360d81b6020820152610297565b606e5460ff166102c0565b606f546001600160a01b03166102f7565b6102e3610474366004612e83565b6111e3565b610338610487366004612e1c565b61123e565b6102e3611259565b6102e361126d565b6102e36104aa366004612e1c565b6112f2565b6102e36104bd366004612e83565b611362565b6033546001600160a01b03166102f7565b6102c06104e1366004612fc5565b6113be565b61029761172d565b6102e36104fc366004612e1c565b61173c565b6102e361050f366004612df2565b6117ac565b6102c0610522366004612eef565b611957565b6102c0610535366004612df2565b611b85565b6102c0610548366004612df2565b611bbc565b606b5461010090046001600160a01b03166102f7565b6102e3610571366004613008565b611e33565b6102e3610584366004613008565b611f5f565b6102e3610597366004613088565b611feb565b6102e36105aa366004612e1c565b612065565b6103386105bd3660046130bf565b6001600160a01b03918216600090815260676020908152604080832093909416825291909152205490565b6102c06105f6366004612e1c565b6001600160a01b03166000908152606c602052604090205460ff1690565b6102e3610622366004612e1c565b6120bf565b6102e3610635366004612e1c565b612138565b6102e3610648366004613195565b612252565b6102e361065b366004612e83565b61262a565b60606069805461066f90613242565b80601f016020809104026020016040519081016040528092919081815260200182805461069b90613242565b80156106e85780601f106106bd576101008083540402835291602001916106e8565b820191906000526020600020905b8154815290600101906020018083116106cb57829003601f168201915b5050505050905090565b60006106ff338484612685565b5060015b92915050565b610712336109cc565b6107375760405162461bcd60e51b815260040161072e9061327c565b60405180910390fd5b60006107428361123e565b6001600160a01b0384166000908152606d60205260409020549091506107699083906132e0565b8110156107b85760405162461bcd60e51b815260206004820181905260248201527f416d6f756e74206578636565647320617661696c61626c652062616c616e6365604482015260640161072e565b6001600160a01b0383166000908152606d60205260409020546107dc9083906132e0565b6001600160a01b0384166000818152606d6020526040908190209290925590517fa065e63c631c86f1b9f66a4a2f63f2093bf1c2168d23290259dbd969e0222a459061082b9085815260200190565b60405180910390a2505050565b60005b8381101561089c57610894858583818110610858576108586132f3565b905060200201602081019061086d9190612e1c565b84848481811061087f5761087f6132f3565b90506020020160208101906105979190613309565b60010161083b565b5050505050565b6108ac336109cc565b6108c85760405162461bcd60e51b815260040161072e9061327c565b6001600160a01b0382166000908152606d602052604090205481111561094d5760405162461bcd60e51b815260206004820152603460248201527f416d6f756e742073686f756c64206265206c657373207468616e206f7220657160448201527375616c20746f2066726f7a656e20746f6b656e7360601b606482015260840161072e565b6001600160a01b0382166000908152606d6020526040902054610971908290613326565b6001600160a01b0383166000818152606d6020526040908190209290925590517f9bed35cb62ad0dba04f9d5bfee4b5bc91443e77da8a65c4c84834c51bb08b0d6906109c09084815260200190565b60405180910390a25050565b60006107036065836127aa565b606e5460009060ff16156109ff5760405162461bcd60e51b815260040161072e90613339565b6001600160a01b0383166000908152606c602052604090205460ff16158015610a4157506001600160a01b0384166000908152606c602052604090205460ff16155b610a805760405162461bcd60e51b815260206004820152601060248201526f3bb0b63632ba1034b990333937bd32b760811b604482015260640161072e565b6001600160a01b0384166000908152606d6020526040902054610aa28561123e565b610aac9190613326565b821115610af25760405162461bcd60e51b8152602060048201526014602482015273496e73756666696369656e742042616c616e636560601b604482015260640161072e565b606e5460405163b9209e3360e01b81526001600160a01b0385811660048301526101009092049091169063b9209e3390602401602060405180830381865afa158015610b42573d6000803e3d6000fd5b505050506040513d601f19601f82011682018060405250810190610b669190613363565b8015610be25750606f546040516372331c7360e11b81526001600160a01b039091169063e46638e690610ba190879087908790600401613380565b602060405180830381865afa158015610bbe573d6000803e3d6000fd5b505050506040513d601f19601f82011682018060405250810190610be29190613363565b15610c9c576001600160a01b038416600090815260676020908152604080832033808552925290912054610c22918691610c1d908690613326565b612685565b610c2d84848461282d565b606f546040516322ebca6d60e21b81526001600160a01b0390911690638baf29b490610c6190879087908790600401613380565b600060405180830381600087803b158015610c7b57600080fd5b505af1158015610c8f573d6000803e3d6000fd5b5050505060019050610cdc565b60405162461bcd60e51b81526020600482015260156024820152745472616e73666572206e6f7420706f737369626c6560581b604482015260640161072e565b9392505050565b3360008181526067602090815260408083206001600160a01b038716845290915281205490916106ff918590610c1d9086906132e0565b610d2261299b565b606b8054610100600160a81b0319166101006001600160a01b038481168202929092179283905560405192041690610d5c90606a906133a4565b60405180910390206069604051610d7391906133a4565b60408051918290038220606b5483830183526005845264342e312e3360d81b6020850152915190927f6a1105ac8148a3c319adbc369f9072573e8a11d3a3d195e067e7c40767ec54d192610dcd9260ff909116919061341a565b60405180910390a450565b610de1336109cc565b610dfd5760405162461bcd60e51b815260040161072e9061327c565b606e5460ff16610e465760405162461bcd60e51b815260206004820152601460248201527314185d5cd8589b194e881b9bdd081c185d5cd95960621b604482015260640161072e565b606e805460ff191690556040513381527f5db9ee0a495bf2e6ff9c91a7834c1ba4fdd244a5e8aa4e537bd38aeae4b073aa906020015b60405180910390a1565b610e8f336109cc565b610eab5760405162461bcd60e51b815260040161072e9061327c565b606e5460405163b9209e3360e01b81526001600160a01b0384811660048301526101009092049091169063b9209e3390602401602060405180830381865afa158015610efb573d6000803e3d6000fd5b505050506040513d601f19601f82011682018060405250810190610f1f9190613363565b610f6b5760405162461bcd60e51b815260206004820152601960248201527f4964656e74697479206973206e6f742076657269666965642e00000000000000604482015260640161072e565b606f546040516372331c7360e11b81526001600160a01b039091169063e46638e690610fa09060009086908690600401613380565b602060405180830381865afa158015610fbd573d6000803e3d6000fd5b505050506040513d601f19601f82011682018060405250810190610fe19190613363565b61102d5760405162461bcd60e51b815260206004820152601760248201527f436f6d706c69616e6365206e6f7420666f6c6c6f776564000000000000000000604482015260640161072e565b61103782826129f5565b606f54604051635f8dead360e01b81526001600160a01b0384811660048301526024820184905290911690635f8dead390604401600060405180830381600087803b15801561108557600080fd5b505af1158015611099573d6000803e3d6000fd5b505050505050565b60005b858110156111245761111b8787838181106110c1576110c16132f3565b90506020020160208101906110d69190612e1c565b8686848181106110e8576110e86132f3565b90506020020160208101906110fd9190612e1c565b85858581811061110f5761110f6132f3565b90506020020135611957565b506001016110a4565b50505050505050565b60005b8381101561089c5761118085858381811061114d5761114d6132f3565b90506020020160208101906111629190612e1c565b848484818110611174576111746132f3565b905060200201356108a3565b600101611130565b60005b8381101561089c576111db8585838181106111a8576111a86132f3565b90506020020160208101906111bd9190612e1c565b8484848181106111cf576111cf6132f3565b905060200201356117ac565b60010161118b565b60005b8381101561089c57611236858583818110611203576112036132f3565b90506020020160208101906112189190612e1c565b84848481811061122a5761122a6132f3565b90506020020135610e86565b6001016111e6565b6001600160a01b031660009081526066602052604090205490565b61126161299b565b61126b6000612add565b565b611276336109cc565b6112925760405162461bcd60e51b815260040161072e9061327c565b606e5460ff16156112b55760405162461bcd60e51b815260040161072e90613339565b606e805460ff191660011790556040513381527f62e78cea01bee320cd4e420270b5ea74000d11b0c9f74754ebdbfc544b05a25890602001610e7c565b6112fa61299b565b6001600160a01b0381166113205760405162461bcd60e51b815260040161072e9061343e565b61132b606582612b2f565b6040516001600160a01b038216907ff68e73cec97f2d70aa641fb26e87a4383686e2efacb648f2165aeb02ac562ec590600090a250565b60005b8381101561089c576113b5858583818110611382576113826132f3565b90506020020160208101906113979190612e1c565b8484848181106113a9576113a96132f3565b90506020020135611bbc565b50600101611365565b60006113c9336109cc565b6113e55760405162461bcd60e51b815260040161072e9061327c565b6113ee8461123e565b6000036114345760405162461bcd60e51b81526020600482015260146024820152733737903a37b5b2b739903a37903932b1b7bb32b960611b604482015260640161072e565b604080516001600160a01b038516602082015283916000910160408051808303601f1901815290829052805160209091012063d202158d60e01b8252600482018190526001602483015291506001600160a01b0383169063d202158d90604401602060405180830381865afa1580156114b1573d6000803e3d6000fd5b505050506040513d601f19601f820116820180604052508101906114d59190613363565b156116ed5760006114e58761123e565b6001600160a01b038881166000818152606d60205260409081902054606e549151637e42683b60e01b8152600481019390935293945061010090049091169063454a03e090899087908490637e42683b90602401602060405180830381865afa158015611556573d6000803e3d6000fd5b505050506040513d601f19601f8201168201806040525081019061157a9190613475565b6040516001600160e01b031960e086901b1681526001600160a01b03938416600482015292909116602483015261ffff166044820152606401600060405180830381600087803b1580156115cd57600080fd5b505af11580156115e1573d6000803e3d6000fd5b505050506115f0888884611957565b508015611601576116018782610709565b6001600160a01b0388166000908152606c602052604090205460ff16151560010361163157611631876001611feb565b606e5460405163a8d29d1d60e01b81526001600160a01b038a811660048301526101009092049091169063a8d29d1d90602401600060405180830381600087803b15801561167e57600080fd5b505af1158015611692573d6000803e3d6000fd5b50505050856001600160a01b0316876001600160a01b0316896001600160a01b03167ff0c9129a94f30f1caaceb63e44b9811d0a3edf1d6c23757f346093af5553fed060405160405180910390a46001945050505050610cdc565b60405162461bcd60e51b81526020600482015260156024820152745265636f76657279206e6f7420706f737369626c6560581b604482015260640161072e565b6060606a805461066f90613242565b61174461299b565b6001600160a01b03811661176a5760405162461bcd60e51b815260040161072e9061343e565b611775606582612bab565b6040516001600160a01b038216907fed9c8ad8d5a0a66898ea49d2956929c93ae2e8bd50281b2ed897c5d1a6737e0b90600090a250565b6117b5336109cc565b6117d15760405162461bcd60e51b815260040161072e9061327c565b806117db8361123e565b10156118295760405162461bcd60e51b815260206004820152601d60248201527f63616e6e6f74206275726e206d6f7265207468616e2062616c616e6365000000604482015260640161072e565b6001600160a01b0382166000908152606d602052604081205461184b8461123e565b6118559190613326565b9050808211156118eb57600061186b8284613326565b6001600160a01b0385166000908152606d6020526040902054909150611892908290613326565b6001600160a01b0385166000818152606d6020526040908190209290925590517f9bed35cb62ad0dba04f9d5bfee4b5bc91443e77da8a65c4c84834c51bb08b0d6906118e19084815260200190565b60405180910390a2505b6118f58383612c2d565b606f5460405163469753b960e11b81526001600160a01b0385811660048301526024820185905290911690638d2ea77290604401600060405180830381600087803b15801561194357600080fd5b505af1158015611124573d6000803e3d6000fd5b6000611962336109cc565b61197e5760405162461bcd60e51b815260040161072e9061327c565b816119888561123e565b10156119cf5760405162461bcd60e51b815260206004820152601660248201527573656e6465722062616c616e636520746f6f206c6f7760501b604482015260640161072e565b6001600160a01b0384166000908152606d60205260408120546119f18661123e565b6119fb9190613326565b905080831115611a91576000611a118285613326565b6001600160a01b0387166000908152606d6020526040902054909150611a38908290613326565b6001600160a01b0387166000818152606d6020526040908190209290925590517f9bed35cb62ad0dba04f9d5bfee4b5bc91443e77da8a65c4c84834c51bb08b0d690611a879084815260200190565b60405180910390a2505b606e5460405163b9209e3360e01b81526001600160a01b0386811660048301526101009092049091169063b9209e3390602401602060405180830381865afa158015611ae1573d6000803e3d6000fd5b505050506040513d601f19601f82011682018060405250810190611b059190613363565b15610c9c57611b1585858561282d565b606f546040516322ebca6d60e21b81526001600160a01b0390911690638baf29b490611b4990889088908890600401613380565b600060405180830381600087803b158015611b6357600080fd5b505af1158015611b77573d6000803e3d6000fd5b505050506001915050610cdc565b3360008181526067602090815260408083206001600160a01b038716845290915281205490916106ff918590610c1d908690613326565b606e5460009060ff1615611be25760405162461bcd60e51b815260040161072e90613339565b6001600160a01b0383166000908152606c602052604090205460ff16158015611c1b5750336000908152606c602052604090205460ff16155b611c5a5760405162461bcd60e51b815260206004820152601060248201526f3bb0b63632ba1034b990333937bd32b760811b604482015260640161072e565b336000818152606d602052604090205490611c749061123e565b611c7e9190613326565b821115611cc45760405162461bcd60e51b8152602060048201526014602482015273496e73756666696369656e742042616c616e636560601b604482015260640161072e565b606e5460405163b9209e3360e01b81526001600160a01b0385811660048301526101009092049091169063b9209e3390602401602060405180830381865afa158015611d14573d6000803e3d6000fd5b505050506040513d601f19601f82011682018060405250810190611d389190613363565b8015611db45750606f546040516372331c7360e11b81526001600160a01b039091169063e46638e690611d7390339087908790600401613380565b602060405180830381865afa158015611d90573d6000803e3d6000fd5b505050506040513d601f19601f82011682018060405250810190611db49190613363565b15610c9c57611dc433848461282d565b606f546040516322ebca6d60e21b81526001600160a01b0390911690638baf29b490611df890339087908790600401613380565b600060405180830381600087803b158015611e1257600080fd5b505af1158015611e26573d6000803e3d6000fd5b5050505060019050610703565b611e3b61299b565b604051602001611e5690602080825260009082015260400190565b604051602081830303815290604052805190602001208282604051602001611e7f929190613499565b6040516020818303038152906040528051906020012003611eb25760405162461bcd60e51b815260040161072e906134c8565b606a611ebf828483613547565b50606b546040516101009091046001600160a01b031690611ee290606a906133a4565b60405180910390206069604051611ef991906133a4565b60408051918290038220606b5483830183526005845264342e312e3360d81b6020850152915190927f6a1105ac8148a3c319adbc369f9072573e8a11d3a3d195e067e7c40767ec54d192611f539260ff909116919061341a565b60405180910390a45050565b611f6761299b565b604051602001611f8290602080825260009082015260400190565b604051602081830303815290604052805190602001208282604051602001611fab929190613499565b6040516020818303038152906040528051906020012003611fde5760405162461bcd60e51b815260040161072e906134c8565b6069611ebf828483613547565b611ff4336109cc565b6120105760405162461bcd60e51b815260040161072e9061327c565b6001600160a01b0382166000818152606c6020526040808220805460ff19168515159081179091559051339391927f7fa523c84ab8d7fc5b72f08b9e46dbbf10c39e119a075b3e317002d14bc9f43691a45050565b61206d61299b565b606e8054610100600160a81b0319166101006001600160a01b038416908102919091179091556040517fd2be862d755bca7e0d39772b2cab3a5578da9c285f69199f4c063c2294a7f36c90600090a250565b6120c761299b565b6001600160a01b03811661212c5760405162461bcd60e51b815260206004820152602660248201527f4f776e61626c653a206e6577206f776e657220697320746865207a65726f206160448201526564647265737360d01b606482015260840161072e565b61213581612add565b50565b61214061299b565b606f546001600160a01b0316156121af57606f5460405163040db3b560e41b81523060048201526001600160a01b03909116906340db3b5090602401600060405180830381600087803b15801561219657600080fd5b505af11580156121aa573d6000803e3d6000fd5b505050505b606f80546001600160a01b0319166001600160a01b038316908117909155604051631ffad50160e11b8152306004820152633ff5aa0290602401600060405180830381600087803b15801561220357600080fd5b505af1158015612217573d6000803e3d6000fd5b50506040516001600160a01b03841692507f7f3a888862559648ec01d97deb7b5012bff86dc91e654a1de397170db40e35b69150600090a250565b600054610100900460ff16158080156122725750600054600160ff909116105b8061228c5750303b15801561228c575060005460ff166001145b6122ef5760405162461bcd60e51b815260206004820152602e60248201527f496e697469616c697a61626c653a20636f6e747261637420697320616c72656160448201526d191e481a5b9a5d1a585b1a5e995960921b606482015260840161072e565b6000805460ff191660011790558015612312576000805461ff0019166101001790555b60006123266033546001600160a01b031690565b6001600160a01b0316146123725760405162461bcd60e51b8152602060048201526013602482015272185b1c9958591e481a5b9a5d1a585b1a5e9959606a1b604482015260640161072e565b6001600160a01b0387161580159061239257506001600160a01b03861615155b6123ae5760405162461bcd60e51b815260040161072e9061343e565b6040516020016123c990602080825260009082015260400190565b60405160208183030381529060405280519060200120856040516020016123f09190612dc3565b604051602081830303815290604052805190602001201415801561246a575060405160200161242a90602080825260009082015260400190565b60405160208183030381529060405280519060200120846040516020016124519190612dc3565b6040516020818303038152906040528051906020012014155b6124865760405162461bcd60e51b815260040161072e906134c8565b60128360ff1611156124da5760405162461bcd60e51b815260206004820152601960248201527f646563696d616c73206265747765656e203020616e6420313800000000000000604482015260640161072e565b6124e2612d19565b60696124ee8682613607565b50606a6124fb8582613607565b50606b80546001600160a01b038416610100026001600160a81b031990911660ff861617179055606e805460ff1916600117905561253887612065565b61254186612138565b606b546040516101009091046001600160a01b03169061256390606a906133a4565b6040518091039020606960405161257a91906133a4565b60408051918290038220606b5483830183526005845264342e312e3360d81b6020850152915190927f6a1105ac8148a3c319adbc369f9072573e8a11d3a3d195e067e7c40767ec54d1926125d49260ff909116919061341a565b60405180910390a48015611124576000805461ff0019169055604051600181527f7f26b83ff96e1f2b6a682f133852f6798a09c465da95921460cefb38474024989060200160405180910390a150505050505050565b60005b8381101561089c5761267d85858381811061264a5761264a6132f3565b905060200201602081019061265f9190612e1c565b848484818110612671576126716132f3565b90506020020135610709565b60010161262d565b6001600160a01b0383166126e75760405162461bcd60e51b8152602060048201526024808201527f45524332303a20617070726f76652066726f6d20746865207a65726f206164646044820152637265737360e01b606482015260840161072e565b6001600160a01b0382166127485760405162461bcd60e51b815260206004820152602260248201527f45524332303a20617070726f766520746f20746865207a65726f206164647265604482015261737360f01b606482015260840161072e565b6001600160a01b0383811660008181526067602090815260408083209487168084529482529182902085905590518481527f8c5be1e5ebec7d5bd14f71427d1e84f3dd0314c0f7b2291e5b200ac8c7c3b92591015b60405180910390a3505050565b60006001600160a01b03821661280d5760405162461bcd60e51b815260206004820152602260248201527f526f6c65733a206163636f756e7420697320746865207a65726f206164647265604482015261737360f01b606482015260840161072e565b506001600160a01b03166000908152602091909152604090205460ff1690565b6001600160a01b0383166128915760405162461bcd60e51b815260206004820152602560248201527f45524332303a207472616e736665722066726f6d20746865207a65726f206164604482015264647265737360d81b606482015260840161072e565b6001600160a01b0382166128f35760405162461bcd60e51b815260206004820152602360248201527f45524332303a207472616e7366657220746f20746865207a65726f206164647260448201526265737360e81b606482015260840161072e565b6001600160a01b038316600090815260666020526040902054612917908290613326565b6001600160a01b0380851660009081526066602052604080822093909355908416815220546129479082906132e0565b6001600160a01b0380841660008181526066602052604090819020939093559151908516907fddf252ad1be2c89b69c2b068fc378daa952ba7f163c4a11628f55a4df523b3ef9061279d9085815260200190565b6033546001600160a01b0316331461126b5760405162461bcd60e51b815260206004820181905260248201527f4f776e61626c653a2063616c6c6572206973206e6f7420746865206f776e6572604482015260640161072e565b6001600160a01b038216612a4b5760405162461bcd60e51b815260206004820152601f60248201527f45524332303a206d696e7420746f20746865207a65726f206164647265737300604482015260640161072e565b80606854612a5991906132e0565b6068556001600160a01b038216600090815260666020526040902054612a809082906132e0565b6001600160a01b0383166000818152606660205260408082209390935591519091907fddf252ad1be2c89b69c2b068fc378daa952ba7f163c4a11628f55a4df523b3ef90612ad19085815260200190565b60405180910390a35050565b603380546001600160a01b038381166001600160a01b0319831681179093556040519116919082907f8be0079c531659141344cd1fd0a4f28419497f9722a3daafe3b4186f6b6457e090600090a35050565b612b3982826127aa565b15612b865760405162461bcd60e51b815260206004820152601f60248201527f526f6c65733a206163636f756e7420616c72656164792068617320726f6c6500604482015260640161072e565b6001600160a01b0316600090815260209190915260409020805460ff19166001179055565b612bb582826127aa565b612c0b5760405162461bcd60e51b815260206004820152602160248201527f526f6c65733a206163636f756e7420646f6573206e6f74206861766520726f6c6044820152606560f81b606482015260840161072e565b6001600160a01b0316600090815260209190915260409020805460ff19169055565b6001600160a01b038216612c8d5760405162461bcd60e51b815260206004820152602160248201527f45524332303a206275726e2066726f6d20746865207a65726f206164647265736044820152607360f81b606482015260840161072e565b6001600160a01b038216600090815260666020526040902054612cb1908290613326565b6001600160a01b038316600090815260666020526040902055606854612cd8908290613326565b6068556040518181526000906001600160a01b038416907fddf252ad1be2c89b69c2b068fc378daa952ba7f163c4a11628f55a4df523b3ef90602001612ad1565b600054610100900460ff16612d405760405162461bcd60e51b815260040161072e906136c7565b61126b612d4d565b505050565b600054610100900460ff16612d745760405162461bcd60e51b815260040161072e906136c7565b61126b33612add565b6000815180845260005b81811015612da357602081850181015186830182015201612d87565b506000602082860101526020601f19601f83011685010191505092915050565b602081526000610cdc6020830184612d7d565b80356001600160a01b0381168114612ded57600080fd5b919050565b60008060408385031215612e0557600080fd5b612e0e83612dd6565b946020939093013593505050565b600060208284031215612e2e57600080fd5b610cdc82612dd6565b60008083601f840112612e4957600080fd5b50813567ffffffffffffffff811115612e6157600080fd5b6020830191508360208260051b8501011115612e7c57600080fd5b9250929050565b60008060008060408587031215612e9957600080fd5b843567ffffffffffffffff80821115612eb157600080fd5b612ebd88838901612e37565b90965094506020870135915080821115612ed657600080fd5b50612ee387828801612e37565b95989497509550505050565b600080600060608486031215612f0457600080fd5b612f0d84612dd6565b9250612f1b60208501612dd6565b9150604084013590509250925092565b60008060008060008060608789031215612f4457600080fd5b863567ffffffffffffffff80821115612f5c57600080fd5b612f688a838b01612e37565b90985096506020890135915080821115612f8157600080fd5b612f8d8a838b01612e37565b90965094506040890135915080821115612fa657600080fd5b50612fb389828a01612e37565b979a9699509497509295939492505050565b600080600060608486031215612fda57600080fd5b612fe384612dd6565b9250612ff160208501612dd6565b9150612fff60408501612dd6565b90509250925092565b6000806020838503121561301b57600080fd5b823567ffffffffffffffff8082111561303357600080fd5b818501915085601f83011261304757600080fd5b81358181111561305657600080fd5b86602082850101111561306857600080fd5b60209290920196919550909350505050565b801515811461213557600080fd5b6000806040838503121561309b57600080fd5b6130a483612dd6565b915060208301356130b48161307a565b809150509250929050565b600080604083850312156130d257600080fd5b6130db83612dd6565b91506130e960208401612dd6565b90509250929050565b634e487b7160e01b600052604160045260246000fd5b600082601f83011261311957600080fd5b813567ffffffffffffffff80821115613134576131346130f2565b604051601f8301601f19908116603f0116810190828211818310171561315c5761315c6130f2565b8160405283815286602085880101111561317557600080fd5b836020870160208301376000602085830101528094505050505092915050565b60008060008060008060c087890312156131ae57600080fd5b6131b787612dd6565b95506131c560208801612dd6565b9450604087013567ffffffffffffffff808211156131e257600080fd5b6131ee8a838b01613108565b9550606089013591508082111561320457600080fd5b5061321189828a01613108565b935050608087013560ff8116811461322857600080fd5b915061323660a08801612dd6565b90509295509295509295565b600181811c9082168061325657607f821691505b60208210810361327657634e487b7160e01b600052602260045260246000fd5b50919050565b6020808252602e908201527f4167656e74526f6c653a2063616c6c657220646f6573206e6f7420686176652060408201526d746865204167656e7420726f6c6560901b606082015260800190565b634e487b7160e01b600052601160045260246000fd5b80820180821115610703576107036132ca565b634e487b7160e01b600052603260045260246000fd5b60006020828403121561331b57600080fd5b8135610cdc8161307a565b81810381811115610703576107036132ca565b60208082526010908201526f14185d5cd8589b194e881c185d5cd95960821b604082015260600190565b60006020828403121561337557600080fd5b8151610cdc8161307a565b6001600160a01b039384168152919092166020820152604081019190915260600190565b60008083546133b281613242565b600182811680156133ca57600181146133df5761340e565b60ff198416875282151583028701945061340e565b8760005260208060002060005b858110156134055781548a8201529084019082016133ec565b50505082870194505b50929695505050505050565b60ff831681526040602082015260006134366040830184612d7d565b949350505050565b6020808252601f908201527f696e76616c696420617267756d656e74202d207a65726f206164647265737300604082015260600190565b60006020828403121561348757600080fd5b815161ffff81168114610cdc57600080fd5b60208152816020820152818360408301376000818301604090810191909152601f909201601f19160101919050565b6020808252601f908201527f696e76616c696420617267756d656e74202d20656d70747920737472696e6700604082015260600190565b601f821115612d48576000816000526020600020601f850160051c810160208610156135285750805b601f850160051c820191505b8181101561109957828155600101613534565b67ffffffffffffffff83111561355f5761355f6130f2565b6135738361356d8354613242565b836134ff565b6000601f8411600181146135a7576000851561358f5750838201355b600019600387901b1c1916600186901b17835561089c565b600083815260209020601f19861690835b828110156135d857868501358255602094850194600190920191016135b8565b50868210156135f55760001960f88860031b161c19848701351681555b505060018560011b0183555050505050565b815167ffffffffffffffff811115613621576136216130f2565b6136358161362f8454613242565b846134ff565b602080601f83116001811461366a57600084156136525750858301515b600019600386901b1c1916600185901b178555611099565b600085815260208120601f198616915b828110156136995788860151825594840194600190910190840161367a565b50858210156136b75787850151600019600388901b60f8161c191681555b5050505050600190811b01905550565b6020808252602b908201527f496e697469616c697a61626c653a20636f6e7472616374206973206e6f74206960408201526a6e697469616c697a696e6760a81b60608201526080019056fea2646970667358221220c3903dde03023c7c697610e5c6b091fd87c4ff7c73e7b2c719b28980fca2cc3b64736f6c63430008180033",
  "linkReferences": {},
  "deployedLinkReferences": {}
}