{
  "_format": "hh-sol-artifact-1",
  "contractName": "Token",
  "sourceName": "contracts/erc3643/token/Token.sol",
  "abi": [
    {
      "inputs": [],
      "name": "InvalidInitialization",
      "type": "error"
    },
    {
      "inputs": [],
      "name": "NotInitializing",
      "type": "error"
    },
    {
      "inputs": [
        {
          "internalType": "address",
          "name": "owner",
          "type": "address"
        }
      ],
      "name": "OwnableInvalidOwner",
      "type": "error"
    },
    {
      "inputs": [
        {
          "internalType": "address",
          "name": "account",
          "type": "address"
        }
      ],
      "name": "OwnableUnauthorizedAccount",
      "type": "error"
    },
    {
      "anonymous": false,
      "inputs": [
        {
          "indexed": true,
          "internalType": "address",
          "name": "_userAddress",
          "type": "address"
        },
        {
          "indexed": true,
          "internalType": "bool",
          "name": "_isFrozen",
          "type": "bool"
        },
        {
          "indexed": true,
          "internalType": "address",
          "name": "_owner",
          "type": "address"
        }
      ],
      "name": "AddressFrozen",
      "type": "event"
    },
    {
      "anonymous": false,
      "inputs": [
        {
          "indexed": true,
          "internalType": "address",
          "name": "_agent",
          "type": "address"
        }
      ],
      "name": "AgentAdded",
      "type": "event"
    },
    {
      "anonymous": false,
      "inputs": [
        {
          "indexed": true,
          "internalType": "address",
          "name": "_agent",
          "type": "address"
        }
      ],
      "name": "AgentRemoved",
      "type": "event"
    },
    {
      "anonymous": false,
      "inputs": [
        {
          "indexed": true,
          "internalType": "address",
          "name": "owner",
          "type": "address"
        },
        {
          "indexed": true,
          "internalType": "address",
          "name": "spender",
          "type": "address"
        },
        {
          "indexed": false,
          "internalType": "uint256",
          "name": "value",
          "type": "uint256"
        }
      ],
      "name": "Approval",
      "type": "event"
    },
    {
      "anonymous": false,
      "inputs": [
        {
          "indexed": true,
          "internalType": "address",
          "name": "_compliance",
          "type": "address"
        }
      ],
      "name": "ComplianceAdded",
      "type": "event"
    },
    {
      "anonymous": false,
      "inputs": [
        {
          "indexed": true,
          "internalType": "address",
          "name": "_identityRegistry",
          "type": "address"
        }
      ],
      "name": "IdentityRegistryAdded",
      "type": "event"
    },
    {
      "anonymous": false,
      "inputs": [
        {
          "indexed": false,
          "internalType": "uint64",
          "name": "version",
          "type": "uint64"
        }
      ],
      "name": "Initialized",
      "type": "event"
    },
    {
      "anonymous": false,
      "inputs": [
        {
          "indexed": true,
          "internalType": "address",
          "name": "previousOwner",
          "type": "address"
        },
        {
          "indexed": true,
          "internalType": "address",
          "name": "newOwner",
          "type": "address"
        }
      ],
      "name": "OwnershipTransferred",
      "type": "event"
    },
    {
      "anonymous": false,
      "inputs": [
        {
          "indexed": false,
          "internalType": "address",
          "name": "_userAddress",
          "type": "address"
        }
      ],
      "name": "Paused",
      "type": "event"
    },
    {
      "anonymous": false,
      "inputs": [
        {
          "indexed": true,
          "internalType": "address",
          "name": "_lostWallet",
          "type": "address"
        },
        {
          "indexed": true,
          "internalType": "address",
          "name": "_newWallet",
          "type": "address"
        },
        {
          "indexed": true,
          "internalType": "address",
          "name": "_investorOnchainID",
          "type": "address"
        }
      ],
      "name": "RecoverySuccess",
      "type": "event"
    },
    {
      "anonymous": false,
      "inputs": [
        {
          "indexed": true,
          "internalType": "address",
          "name": "_userAddress",
          "type": "address"
        },
        {
          "indexed": false,
          "internalType": "uint256",
          "name": "_amount",
          "type": "uint256"
        }
      ],
      "name": "TokensFrozen",
      "type": "event"
    },
    {
      "anonymous": false,
      "inputs": [
        {
          "indexed": true,
          "internalType": "address",
          "name": "_userAddress",
          "type": "address"
        },
        {
          "indexed": false,
          "internalType": "uint256",
          "name": "_amount",
          "type": "uint256"
        }
      ],
      "name": "TokensUnfrozen",
      "type": "event"
    },
    {
      "anonymous": false,
      "inputs": [
        {
          "indexed": true,
          "internalType": "address",
          "name": "from",
          "type": "address"
        },
        {
          "indexed": true,
          "internalType": "address",
          "name": "to",
          "type": "address"
        },
        {
          "indexed": false,
          "internalType": "uint256",
          "name": "value",
          "type": "uint256"
        }
      ],
      "name": "Transfer",
      "type": "event"
    },
    {
      "anonymous": false,
      "inputs": [
        {
          "indexed": false,
          "internalType": "address",
          "name": "_userAddress",
          "type": "address"
        }
      ],
      "name": "Unpaused",
      "type": "event"
    },
    {
      "anonymous": false,
      "inputs": [
        {
          "indexed": true,
          "internalType": "string",
          "name": "_newName",
          "type": "string"
        },
        {
          "indexed": true,
          "internalType": "string",
          "name": "_newSymbol",
          "type": "string"
        },
        {
          "indexed": false,
          "internalType": "uint8",
          "name": "_newDecimals",
          "type": "uint8"
        },
        {
          "indexed": false,
          "internalType": "string",
          "name": "_newVersion",
          "type": "string"
        },
        {
          "indexed": true,
          "internalType": "address",
          "name": "_newOnchainID",
          "type": "address"
        }
      ],
      "name": "UpdatedTokenInformation",
      "type": "event"
    },
    {
      "inputs": [
        {
          "internalType": "address",
          "name": "_agent",
          "type": "address"
        }
      ],
      "name": "addAgent",
      "outputs": [],
      "stateMutability": "nonpayable",
      "type": "function"
    },
    {
      "inputs": [
        {
          "internalType": "address",
          "name": "_owner",
          "type": "address"
        },
        {
          "internalType": "address",
          "name": "_spender",
          "type": "address"
        }
      ],
      "name": "allowance",
      "outputs": [
        {
          "internalType": "uint256",
          "name": "",
          "type": "uint256"
        }
      ],
      "stateMutability": "view",
      "type": "function"
    },
    {
      "inputs": [
        {
          "internalType": "address",
          "name": "_spender",
          "type": "address"
        },
        {
          "internalType": "uint256",
          "name": "_amount",
          "type": "uint256"
        }
      ],
      "name": "approve",
      "outputs": [
        {
          "internalType": "bool",
          "name": "",
          "type": "bool"
        }
      ],
      "stateMutability": "nonpayable",
      "type": "function"
    },
    {
      "inputs": [
        {
          "internalType": "address",
          "name": "_userAddress",
          "type": "address"
        }
      ],
      "name": "balanceOf",
      "outputs": [
        {
          "internalType": "uint256",
          "name": "",
          "type": "uint256"
        }
      ],
      "stateMutability": "view",
      "type": "function"
    },
    {
      "inputs": [
        {
          "internalType": "address[]",
          "name": "_userAddresses",
          "type": "address[]"
        },
        {
          "internalType": "uint256[]",
          "name": "_amounts",
          "type": "uint256[]"
        }
      ],
      "name": "batchBurn",
      "outputs": [],
      "stateMutability": "nonpayable",
      "type": "function"
    },
    {
      "inputs": [
        {
          "internalType": "address[]",
          "name": "_fromList",
          "type": "address[]"
        },
        {
          "internalType": "address[]",
          "name": "_toList",
          "type": "address[]"
        },
        {
          "internalType": "uint256[]",
          "name": "_amounts",
          "type": "uint256[]"
        }
      ],
      "name": "batchForcedTransfer",
      "outputs": [],
      "stateMutability": "nonpayable",
      "type": "function"
    },
    {
      "inputs": [
        {
          "internalType": "address[]",
          "name": "_userAddresses",
          "type": "address[]"
        },
        {
          "internalType": "uint256[]",
          "name": "_amounts",
          "type": "uint256[]"
        }
      ],
      "name": "batchFreezePartialTokens",
      "outputs": [],
      "stateMutability": "nonpayable",
      "type": "function"
    },
    {
      "inputs": [
        {
          "internalType": "address[]",
          "name": "_toList",
          "type": "address[]"
        },
        {
          "internalType": "uint256[]",
          "name": "_amounts",
          "type": "uint256[]"
        }
      ],
      "name": "batchMint",
      "outputs": [],
      "stateMutability": "nonpayable",
      "type": "function"
    },
    {
      "inputs": [
        {
          "internalType": "address[]",
          "name": "_userAddresses",
          "type": "address[]"
        },
        {
          "internalType": "bool[]",
          "name": "_freeze",
          "type": "bool[]"
        }
      ],
      "name": "batchSetAddressFrozen",
      "outputs": [],
      "stateMutability": "nonpayable",
      "type": "function"
    },
    {
      "inputs": [
        {
          "internalType": "address[]",
          "name": "_toList",
          "type": "address[]"
        },
        {
          "internalType": "uint256[]",
          "name": "_amounts",
          "type": "uint256[]"
        }
      ],
      "name": "batchTransfer",
      "outputs": [],
      "stateMutability": "nonpayable",
      "type": "function"
    },
    {
      "inputs": [
        {
          "internalType": "address[]",
          "name": "_userAddresses",
          "type": "address[]"
        },
        {
          "internalType": "uint256[]",
          "name": "_amounts",
          "type": "uint256[]"
        }
      ],
      "name": "batchUnfreezePartialTokens",
      "outputs": [],
      "stateMutability": "nonpayable",
      "type": "function"
    },
    {
      "inputs": [
        {
          "internalType": "address",
          "name": "_userAddress",
          "type": "address"
        },
        {
          "internalType": "uint256",
          "name": "_amount",
          "type": "uint256"
        }
      ],
      "name": "burn",
      "outputs": [],
      "stateMutability": "nonpayable",
      "type": "function"
    },
    {
      "inputs": [],
      "name": "compliance",
      "outputs": [
        {
          "internalType": "contract IModularCompliance",
          "name": "",
          "type": "address"
        }
      ],
      "stateMutability": "view",
      "type": "function"
    },
    {
      "inputs": [],
      "name": "decimals",
      "outputs": [
        {
          "internalType": "uint8",
          "name": "",
          "type": "uint8"
        }
      ],
      "stateMutability": "view",
      "type": "function"
    },
    {
      "inputs": [
        {
          "internalType": "address",
          "name": "_spender",
          "type": "address"
        },
        {
          "internalType": "uint256",
          "name": "_subtractedValue",
          "type": "uint256"
        }
      ],
      "name": "decreaseAllowance",
      "outputs": [
        {
          "internalType": "bool",
          "name": "",
          "type": "bool"
        }
      ],
      "stateMutability": "nonpayable",
      "type": "function"
    },
    {
      "inputs": [
        {
          "internalType": "address",
          "name": "_from",
          "type": "address"
        },
        {
          "internalType": "address",
          "name": "_to",
          "type": "address"
        },
        {
          "internalType": "uint256",
          "name": "_amount",
          "type": "uint256"
        }
      ],
      "name": "forcedTransfer",
      "outputs": [
        {
          "internalType": "bool",
          "name": "",
          "type": "bool"
        }
      ],
      "stateMutability": "nonpayable",
      "type": "function"
    },
    {
      "inputs": [
        {
          "internalType": "address",
          "name": "_userAddress",
          "type": "address"
        },
        {
          "internalType": "uint256",
          "name": "_amount",
          "type": "uint256"
        }
      ],
      "name": "freezePartialTokens",
      "outputs": [],
      "stateMutability": "nonpayable",
      "type": "function"
    },
    {
      "inputs": [
        {
          "internalType": "address",
          "name": "_userAddress",
          "type": "address"
        }
      ],
      "name": "getFrozenTokens",
      "outputs": [
        {
          "internalType": "uint256",
          "name": "",
          "type": "uint256"
        }
      ],
      "stateMutability": "view",
      "type": "function"
    },
    {
      "inputs": [],
      "name": "identityRegistry",
      "outputs": [
        {
          "internalType": "contract IIdentityRegistry",
          "name": "",
          "type": "address"
        }
      ],
      "stateMutability": "view",
      "type": "function"
    },
    {
      "inputs": [
        {
          "internalType": "address",
          "name": "_spender",
          "type": "address"
        },
        {
          "internalType": "uint256",
          "name": "_addedValue",
          "type": "uint256"
        }
      ],
      "name": "increaseAllowance",
      "outputs": [
        {
          "internalType": "bool",
          "name": "",
          "type": "bool"
        }
      ],
      "stateMutability": "nonpayable",
      "type": "function"
    },
    {
      "inputs": [
        {
          "internalType": "address",
          "name": "_identityRegistry",
          "type": "address"
        },
        {
          "internalType": "address",
          "name": "_compliance",
          "type": "address"
        },
        {
          "internalType": "string",
          "name": "_name",
          "type": "string"
        },
        {
          "internalType": "string",
          "name": "_symbol",
          "type": "string"
        },
        {
          "internalType": "uint8",
          "name": "_decimals",
          "type": "uint8"
        },
        {
          "internalType": "address",
          "name": "_onchainID",
          "type": "address"
        }
      ],
      "name": "init",
      "outputs": [],
      "stateMutability": "nonpayable",
      "type": "function"
    },
    {
      "inputs": [
        {
          "internalType": "address",
          "name": "_agent",
          "type": "address"
        }
      ],
      "name": "isAgent",
      "outputs": [
        {
          "internalType": "bool",
          "name": "",
          "type": "bool"
        }
      ],
      "stateMutability": "view",
      "type": "function"
    },
    {
      "inputs": [
        {
          "internalType": "address",
          "name": "_userAddress",
          "type": "address"
        }
      ],
      "name": "isFrozen",
      "outputs": [
        {
          "internalType": "bool",
          "name": "",
          "type": "bool"
        }
      ],
      "stateMutability": "view",
      "type": "function"
    },
    {
      "inputs": [
        {
          "internalType": "address",
          "name": "_to",
          "type": "address"
        },
        {
          "internalType": "uint256",
          "name": "_amount",
          "type": "uint256"
        }
      ],
      "name": "mint",
      "outputs": [],
      "stateMutability": "nonpayable",
      "type": "function"
    },
    {
      "inputs": [],
      "name": "name",
      "outputs": [
        {
          "internalType": "string",
          "name": "",
          "type": "string"
        }
      ],
      "stateMutability": "view",
      "type": "function"
    },
    {
      "inputs": [],
      "name": "onchainID",
      "outputs": [
        {
          "internalType": "address",
          "name": "",
          "type": "address"
        }
      ],
      "stateMutability": "view",
      "type": "function"
    },
    {
      "inputs": [],
      "name": "owner",
      "outputs": [
        {
          "internalType": "address",
          "name": "",
          "type": "address"
        }
      ],
      "stateMutability": "view",
      "type": "function"
    },
    {
      "inputs": [],
      "name": "pause",
      "outputs": [],
      "stateMutability": "nonpayable",
      "type": "function"
    },
    {
      "inputs": [],
      "name": "paused",
      "outputs": [
        {
          "internalType": "bool",
          "name": "",
          "type": "bool"
        }
      ],
      "stateMutability": "view",
      "type": "function"
    },
    {
      "inputs": [
        {
          "internalType": "address",
          "name": "_lostWallet",
          "type": "address"
        },
        {
          "internalType": "address",
          "name": "_newWallet",
          "type": "address"
        },
        {
          "internalType": "address",
          "name": "_investorOnchainID",
          "type": "address"
        }
      ],
      "name": "recoveryAddress",
      "outputs": [
        {
          "internalType": "bool",
          "name": "",
          "type": "bool"
        }
      ],
      "stateMutability": "nonpayable",
      "type": "function"
    },
    {
      "inputs": [
        {
          "internalType": "address",
          "name": "_agent",
          "type": "address"
        }
      ],
      "name": "removeAgent",
      "outputs": [],
      "stateMutability": "nonpayable",
      "type": "function"
    },
    {
      "inputs": [],
      "name": "renounceOwnership",
      "outputs": [],
      "stateMutability": "nonpayable",
      "type": "function"
    },
    {
      "inputs": [
        {
          "internalType": "address",
          "name": "_userAddress",
          "type": "address"
        },
        {
          "internalType": "bool",
          "name": "_freeze",
          "type": "bool"
        }
      ],
      "name": "setAddressFrozen",
      "outputs": [],
      "stateMutability": "nonpayable",
      "type": "function"
    },
    {
      "inputs": [
        {
          "internalType": "address",
          "name": "_compliance",
          "type": "address"
        }
      ],
      "name": "setCompliance",
      "outputs": [],
      "stateMutability": "nonpayable",
      "type": "function"
    },
    {
      "inputs": [
        {
          "internalType": "address",
          "name": "_identityRegistry",
          "type": "address"
        }
      ],
      "name": "setIdentityRegistry",
      "outputs": [],
      "stateMutability": "nonpayable",
      "type": "function"
    },
    {
      "inputs": [
        {
          "internalType": "string",
          "name": "_name",
          "type": "string"
        }
      ],
      "name": "setName",
      "outputs": [],
      "stateMutability": "nonpayable",
      "type": "function"
    },
    {
      "inputs": [
        {
          "internalType": "address",
          "name": "_onchainID",
          "type": "address"
        }
      ],
      "name": "setOnchainID",
      "outputs": [],
      "stateMutability": "nonpayable",
      "type": "function"
    },
    {
      "inputs": [
        {
          "internalType": "string",
          "name": "_symbol",
          "type": "string"
        }
      ],
      "name": "setSymbol",
      "outputs": [],
      "stateMutability": "nonpayable",
      "type": "function"
    },
    {
      "inputs": [],
      "name": "symbol",
      "outputs": [
        {
          "internalType": "string",
          "name": "",
          "type": "string"
        }
      ],
      "stateMutability": "view",
      "type": "function"
    },
    {
      "inputs": [],
      "name": "totalSupply",
      "outputs": [
        {
          "internalType": "uint256",
          "name": "",
          "type": "uint256"
        }
      ],
      "stateMutability": "view",
      "type": "function"
    },
    {
      "inputs": [
        {
          "internalType": "address",
          "name": "_to",
          "type": "address"
        },
        {
          "internalType": "uint256",
          "name": "_amount",
          "type": "uint256"
        }
      ],
      "name": "transfer",
      "outputs": [
        {
          "internalType": "bool",
          "name": "",
          "type": "bool"
        }
      ],
      "stateMutability": "nonpayable",
      "type": "function"
    },
    {
      "inputs": [
        {
          "internalType": "address",
          "name": "_from",
          "type": "address"
        },
        {
          "internalType": "address",
          "name": "_to",
          "type": "address"
        },
        {
          "internalType": "uint256",
          "name": "_amount",
          "type": "uint256"
        }
      ],
      "name": "transferFrom",
      "outputs": [
        {
          "internalType": "bool",
          "name": "",
          "type": "bool"
        }
      ],
      "stateMutability": "nonpayable",
      "type": "function"
    },
    {
      "inputs": [
        {
          "internalType": "address",
          "name": "newOwner",
          "type": "address"
        }
      ],
      "name": "transferOwnership",
      "outputs": [],
      "stateMutability": "nonpayable",
      "type": "function"
    },
    {
      "inputs": [
        {
          "internalType": "address",
          "name": "_userAddress",
          "type": "address"
        },
        {
          "internalType": "uint256",
          "name": "_amount",
          "type": "uint256"
        }
      ],
      "name": "unfreezePartialTokens",
      "outputs": [],
      "stateMutability": "nonpayable",
      "type": "function"
    },
    {
      "inputs": [],
      "name": "unpause",
      "outputs": [],
      "stateMutability": "nonpayable",
      "type": "function"
    },
    {
      "inputs": [],
      "name": "version",
      "outputs": [
        {
          "internalType": "string",
          "name": "",
          "type": "string"
        }
      ],
      "stateMutability": "pure",
      "type": "function"
    }
  ],
  "bytecode": "0x60806040526009805460ff1916905534801561001a57600080fd5b506136d28061002a6000396000f3fe608060405234801561001057600080fd5b506004361061028a5760003560e01c8063715018a61161015c578063a9059cbb116100ce578063dd62ed3e11610087578063dd62ed3e146105a6578063e5839836146105df578063f2fde38b1461060b578063f89817891461061e578063f91b619c14610631578063fc7e5fa81461064457600080fd5b8063a9059cbb14610531578063aba6370514610544578063b84c82461461055a578063c47f00271461056d578063c69c09cf14610580578063cbf3f8611461059357600080fd5b80639285948a116101205780639285948a146104ca57806395d89b41146104dd57806397a6278e146104e55780639dc29fac146104f85780639fc1d0e71461050b578063a457c2d71461051e57600080fd5b8063715018a61461048c5780638456cb591461049457806384e798421461049c57806388d695b2146104af5780638da5cb5b146104c257600080fd5b806339509351116102005780634a6cc677116101b95780634a6cc6771461041657806354fd4d50146104295780635c975abb1461044a5780636290865d14610455578063685731071461046657806370a082311461047957600080fd5b806339509351146103af5780633d1ddc5b146103c25780633f4ba83a146103d557806340c10f19146103dd57806342a47abc146103f05780634710362d1461040357600080fd5b806318160ddd1161025257806318160ddd146103465780631a7af3791461034e5780631fe56f7d146103615780631ffbb0641461037457806323b872dd14610387578063313ce5671461039a57600080fd5b806306fdde031461028f578063095ea7b3146102ad578063125c4a33146102d0578063134e18f4146102e5578063158b1a571461030f575b600080fd5b610297610657565b6040516102a49190612d98565b60405180910390f35b6102c06102bb366004612dc7565b6106e9565b60405190151581526020016102a4565b6102e36102de366004612dc7565b610700565b005b60095461010090046001600160a01b03165b6040516001600160a01b0390911681526020016102a4565b61033861031d366004612df1565b6001600160a01b031660009081526008602052604090205490565b6040519081526020016102a4565b600354610338565b6102e361035c366004612e58565b61082f565b6102e361036f366004612dc7565b61089a565b6102c0610382366004612df1565b6109c3565b6102c0610395366004612ec4565b6109cf565b60065460405160ff90911681526020016102a4565b6102c06103bd366004612dc7565b610cd9565b6102e36103d0366004612df1565b610d10565b6102e3610dce565b6102e36103eb366004612dc7565b610e7c565b6102e36103fe366004612f00565b611097565b6102e3610411366004612e58565b611123565b6102e3610424366004612e58565b61117e565b604080518082019091526005815264342e312e3360d81b6020820152610297565b60095460ff166102c0565b600a546001600160a01b03166102f7565b6102e3610474366004612e58565b6111d9565b610338610487366004612df1565b611234565b6102e361124f565b6102e3611263565b6102e36104aa366004612df1565b6112e8565b6102e36104bd366004612e58565b611358565b6102f76113b4565b6102c06104d8366004612f9a565b6113e2565b610297611751565b6102e36104f3366004612df1565b611760565b6102e3610506366004612dc7565b6117d0565b6102c0610519366004612ec4565b61197b565b6102c061052c366004612dc7565b611ba9565b6102c061053f366004612dc7565b611be0565b60065461010090046001600160a01b03166102f7565b6102e3610568366004612fdd565b611e57565b6102e361057b366004612fdd565b611f83565b6102e361058e36600461305d565b61200f565b6102e36105a1366004612df1565b612089565b6103386105b4366004613094565b6001600160a01b03918216600090815260026020908152604080832093909416825291909152205490565b6102c06105ed366004612df1565b6001600160a01b031660009081526007602052604090205460ff1690565b6102e3610619366004612df1565b6120e3565b6102e361062c366004612df1565b612121565b6102e361063f36600461316a565b61223b565b6102e3610652366004612e58565b612605565b60606004805461066690613217565b80601f016020809104026020016040519081016040528092919081815260200182805461069290613217565b80156106df5780601f106106b4576101008083540402835291602001916106df565b820191906000526020600020905b8154815290600101906020018083116106c257829003601f168201915b5050505050905090565b60006106f6338484612660565b5060015b92915050565b610709336109c3565b61072e5760405162461bcd60e51b815260040161072590613251565b60405180910390fd5b600061073983611234565b6001600160a01b0384166000908152600860205260409020549091506107609083906132b5565b8110156107af5760405162461bcd60e51b815260206004820181905260248201527f416d6f756e74206578636565647320617661696c61626c652062616c616e63656044820152606401610725565b6001600160a01b0383166000908152600860205260409020546107d39083906132b5565b6001600160a01b038416600081815260086020526040908190209290925590517fa065e63c631c86f1b9f66a4a2f63f2093bf1c2168d23290259dbd969e0222a45906108229085815260200190565b60405180910390a2505050565b60005b838110156108935761088b85858381811061084f5761084f6132c8565b90506020020160208101906108649190612df1565b848484818110610876576108766132c8565b905060200201602081019061058e91906132de565b600101610832565b5050505050565b6108a3336109c3565b6108bf5760405162461bcd60e51b815260040161072590613251565b6001600160a01b0382166000908152600860205260409020548111156109445760405162461bcd60e51b815260206004820152603460248201527f416d6f756e742073686f756c64206265206c657373207468616e206f7220657160448201527375616c20746f2066726f7a656e20746f6b656e7360601b6064820152608401610725565b6001600160a01b0382166000908152600860205260409020546109689082906132fb565b6001600160a01b038316600081815260086020526040908190209290925590517f9bed35cb62ad0dba04f9d5bfee4b5bc91443e77da8a65c4c84834c51bb08b0d6906109b79084815260200190565b60405180910390a25050565b60006106fa8183612785565b60095460009060ff16156109f55760405162461bcd60e51b81526004016107259061330e565b6001600160a01b03831660009081526007602052604090205460ff16158015610a3757506001600160a01b03841660009081526007602052604090205460ff16155b610a765760405162461bcd60e51b815260206004820152601060248201526f3bb0b63632ba1034b990333937bd32b760811b6044820152606401610725565b6001600160a01b038416600090815260086020526040902054610a9885611234565b610aa291906132fb565b821115610ae85760405162461bcd60e51b8152602060048201526014602482015273496e73756666696369656e742042616c616e636560601b6044820152606401610725565b60095460405163b9209e3360e01b81526001600160a01b0385811660048301526101009092049091169063b9209e3390602401602060405180830381865afa158015610b38573d6000803e3d6000fd5b505050506040513d601f19601f82011682018060405250810190610b5c9190613338565b8015610bd85750600a546040516372331c7360e11b81526001600160a01b039091169063e46638e690610b9790879087908790600401613355565b602060405180830381865afa158015610bb4573d6000803e3d6000fd5b505050506040513d601f19601f82011682018060405250810190610bd89190613338565b15610c92576001600160a01b038416600090815260026020908152604080832033808552925290912054610c18918691610c139086906132fb565b612660565b610c23848484612808565b600a546040516322ebca6d60e21b81526001600160a01b0390911690638baf29b490610c5790879087908790600401613355565b600060405180830381600087803b158015610c7157600080fd5b505af1158015610c85573d6000803e3d6000fd5b5050505060019050610cd2565b60405162461bcd60e51b81526020600482015260156024820152745472616e73666572206e6f7420706f737369626c6560581b6044820152606401610725565b9392505050565b3360008181526002602090815260408083206001600160a01b038716845290915281205490916106f6918590610c139086906132b5565b610d18612976565b60068054610100600160a81b0319166101006001600160a01b038481168202929092179283905560405192041690610d5290600590613379565b60405180910390206004604051610d699190613379565b6040805191829003822060065483830183526005845264342e312e3360d81b6020850152915190927f6a1105ac8148a3c319adbc369f9072573e8a11d3a3d195e067e7c40767ec54d192610dc39260ff90911691906133ef565b60405180910390a450565b610dd7336109c3565b610df35760405162461bcd60e51b815260040161072590613251565b60095460ff16610e3c5760405162461bcd60e51b815260206004820152601460248201527314185d5cd8589b194e881b9bdd081c185d5cd95960621b6044820152606401610725565b6009805460ff191690556040513381527f5db9ee0a495bf2e6ff9c91a7834c1ba4fdd244a5e8aa4e537bd38aeae4b073aa906020015b60405180910390a1565b610e85336109c3565b610ea15760405162461bcd60e51b815260040161072590613251565b60095460405163b9209e3360e01b81526001600160a01b0384811660048301526101009092049091169063b9209e3390602401602060405180830381865afa158015610ef1573d6000803e3d6000fd5b505050506040513d601f19601f82011682018060405250810190610f159190613338565b610f615760405162461bcd60e51b815260206004820152601960248201527f4964656e74697479206973206e6f742076657269666965642e000000000000006044820152606401610725565b600a546040516372331c7360e11b81526001600160a01b039091169063e46638e690610f969060009086908690600401613355565b602060405180830381865afa158015610fb3573d6000803e3d6000fd5b505050506040513d601f19601f82011682018060405250810190610fd79190613338565b6110235760405162461bcd60e51b815260206004820152601760248201527f436f6d706c69616e6365206e6f7420666f6c6c6f7765640000000000000000006044820152606401610725565b61102d82826129a8565b600a54604051635f8dead360e01b81526001600160a01b0384811660048301526024820184905290911690635f8dead390604401600060405180830381600087803b15801561107b57600080fd5b505af115801561108f573d6000803e3d6000fd5b505050505050565b60005b8581101561111a576111118787838181106110b7576110b76132c8565b90506020020160208101906110cc9190612df1565b8686848181106110de576110de6132c8565b90506020020160208101906110f39190612df1565b858585818110611105576111056132c8565b9050602002013561197b565b5060010161109a565b50505050505050565b60005b8381101561089357611176858583818110611143576111436132c8565b90506020020160208101906111589190612df1565b84848481811061116a5761116a6132c8565b9050602002013561089a565b600101611126565b60005b83811015610893576111d185858381811061119e5761119e6132c8565b90506020020160208101906111b39190612df1565b8484848181106111c5576111c56132c8565b905060200201356117d0565b600101611181565b60005b838110156108935761122c8585838181106111f9576111f96132c8565b905060200201602081019061120e9190612df1565b848484818110611220576112206132c8565b90506020020135610e7c565b6001016111dc565b6001600160a01b031660009081526001602052604090205490565b611257612976565b6112616000612a90565b565b61126c336109c3565b6112885760405162461bcd60e51b815260040161072590613251565b60095460ff16156112ab5760405162461bcd60e51b81526004016107259061330e565b6009805460ff191660011790556040513381527f62e78cea01bee320cd4e420270b5ea74000d11b0c9f74754ebdbfc544b05a25890602001610e72565b6112f0612976565b6001600160a01b0381166113165760405162461bcd60e51b815260040161072590613413565b611321600082612b01565b6040516001600160a01b038216907ff68e73cec97f2d70aa641fb26e87a4383686e2efacb648f2165aeb02ac562ec590600090a250565b60005b83811015610893576113ab858583818110611378576113786132c8565b905060200201602081019061138d9190612df1565b84848481811061139f5761139f6132c8565b90506020020135611be0565b5060010161135b565b7f9016d09d72d40fdae2fd8ceac6b6234c7706214fd39c1cd1e609a0528c199300546001600160a01b031690565b60006113ed336109c3565b6114095760405162461bcd60e51b815260040161072590613251565b61141284611234565b6000036114585760405162461bcd60e51b81526020600482015260146024820152733737903a37b5b2b739903a37903932b1b7bb32b960611b6044820152606401610725565b604080516001600160a01b038516602082015283916000910160408051808303601f1901815290829052805160209091012063d202158d60e01b8252600482018190526001602483015291506001600160a01b0383169063d202158d90604401602060405180830381865afa1580156114d5573d6000803e3d6000fd5b505050506040513d601f19601f820116820180604052508101906114f99190613338565b1561171157600061150987611234565b6001600160a01b0388811660008181526008602052604090819020546009549151637e42683b60e01b8152600481019390935293945061010090049091169063454a03e090899087908490637e42683b90602401602060405180830381865afa15801561157a573d6000803e3d6000fd5b505050506040513d601f19601f8201168201806040525081019061159e919061344a565b6040516001600160e01b031960e086901b1681526001600160a01b03938416600482015292909116602483015261ffff166044820152606401600060405180830381600087803b1580156115f157600080fd5b505af1158015611605573d6000803e3d6000fd5b5050505061161488888461197b565b508015611625576116258782610700565b6001600160a01b03881660009081526007602052604090205460ff1615156001036116555761165587600161200f565b60095460405163a8d29d1d60e01b81526001600160a01b038a811660048301526101009092049091169063a8d29d1d90602401600060405180830381600087803b1580156116a257600080fd5b505af11580156116b6573d6000803e3d6000fd5b50505050856001600160a01b0316876001600160a01b0316896001600160a01b03167ff0c9129a94f30f1caaceb63e44b9811d0a3edf1d6c23757f346093af5553fed060405160405180910390a46001945050505050610cd2565b60405162461bcd60e51b81526020600482015260156024820152745265636f76657279206e6f7420706f737369626c6560581b6044820152606401610725565b60606005805461066690613217565b611768612976565b6001600160a01b03811661178e5760405162461bcd60e51b815260040161072590613413565b611799600082612b7d565b6040516001600160a01b038216907fed9c8ad8d5a0a66898ea49d2956929c93ae2e8bd50281b2ed897c5d1a6737e0b90600090a250565b6117d9336109c3565b6117f55760405162461bcd60e51b815260040161072590613251565b806117ff83611234565b101561184d5760405162461bcd60e51b815260206004820152601d60248201527f63616e6e6f74206275726e206d6f7265207468616e2062616c616e63650000006044820152606401610725565b6001600160a01b03821660009081526008602052604081205461186f84611234565b61187991906132fb565b90508082111561190f57600061188f82846132fb565b6001600160a01b0385166000908152600860205260409020549091506118b69082906132fb565b6001600160a01b038516600081815260086020526040908190209290925590517f9bed35cb62ad0dba04f9d5bfee4b5bc91443e77da8a65c4c84834c51bb08b0d6906119059084815260200190565b60405180910390a2505b6119198383612bff565b600a5460405163469753b960e11b81526001600160a01b0385811660048301526024820185905290911690638d2ea77290604401600060405180830381600087803b15801561196757600080fd5b505af115801561111a573d6000803e3d6000fd5b6000611986336109c3565b6119a25760405162461bcd60e51b815260040161072590613251565b816119ac85611234565b10156119f35760405162461bcd60e51b815260206004820152601660248201527573656e6465722062616c616e636520746f6f206c6f7760501b6044820152606401610725565b6001600160a01b038416600090815260086020526040812054611a1586611234565b611a1f91906132fb565b905080831115611ab5576000611a3582856132fb565b6001600160a01b038716600090815260086020526040902054909150611a5c9082906132fb565b6001600160a01b038716600081815260086020526040908190209290925590517f9bed35cb62ad0dba04f9d5bfee4b5bc91443e77da8a65c4c84834c51bb08b0d690611aab9084815260200190565b60405180910390a2505b60095460405163b9209e3360e01b81526001600160a01b0386811660048301526101009092049091169063b9209e3390602401602060405180830381865afa158015611b05573d6000803e3d6000fd5b505050506040513d601f19601f82011682018060405250810190611b299190613338565b15610c9257611b39858585612808565b600a546040516322ebca6d60e21b81526001600160a01b0390911690638baf29b490611b6d90889088908890600401613355565b600060405180830381600087803b158015611b8757600080fd5b505af1158015611b9b573d6000803e3d6000fd5b505050506001915050610cd2565b3360008181526002602090815260408083206001600160a01b038716845290915281205490916106f6918590610c139086906132fb565b60095460009060ff1615611c065760405162461bcd60e51b81526004016107259061330e565b6001600160a01b03831660009081526007602052604090205460ff16158015611c3f57503360009081526007602052604090205460ff16155b611c7e5760405162461bcd60e51b815260206004820152601060248201526f3bb0b63632ba1034b990333937bd32b760811b6044820152606401610725565b3360008181526008602052604090205490611c9890611234565b611ca291906132fb565b821115611ce85760405162461bcd60e51b8152602060048201526014602482015273496e73756666696369656e742042616c616e636560601b6044820152606401610725565b60095460405163b9209e3360e01b81526001600160a01b0385811660048301526101009092049091169063b9209e3390602401602060405180830381865afa158015611d38573d6000803e3d6000fd5b505050506040513d601f19601f82011682018060405250810190611d5c9190613338565b8015611dd85750600a546040516372331c7360e11b81526001600160a01b039091169063e46638e690611d9790339087908790600401613355565b602060405180830381865afa158015611db4573d6000803e3d6000fd5b505050506040513d601f19601f82011682018060405250810190611dd89190613338565b15610c9257611de8338484612808565b600a546040516322ebca6d60e21b81526001600160a01b0390911690638baf29b490611e1c90339087908790600401613355565b600060405180830381600087803b158015611e3657600080fd5b505af1158015611e4a573d6000803e3d6000fd5b50505050600190506106fa565b611e5f612976565b604051602001611e7a90602080825260009082015260400190565b604051602081830303815290604052805190602001208282604051602001611ea392919061346e565b6040516020818303038152906040528051906020012003611ed65760405162461bcd60e51b81526004016107259061349d565b6005611ee382848361351c565b506006546040516101009091046001600160a01b031690611f0690600590613379565b60405180910390206004604051611f1d9190613379565b6040805191829003822060065483830183526005845264342e312e3360d81b6020850152915190927f6a1105ac8148a3c319adbc369f9072573e8a11d3a3d195e067e7c40767ec54d192611f779260ff90911691906133ef565b60405180910390a45050565b611f8b612976565b604051602001611fa690602080825260009082015260400190565b604051602081830303815290604052805190602001208282604051602001611fcf92919061346e565b60405160208183030381529060405280519060200120036120025760405162461bcd60e51b81526004016107259061349d565b6004611ee382848361351c565b612018336109c3565b6120345760405162461bcd60e51b815260040161072590613251565b6001600160a01b038216600081815260076020526040808220805460ff19168515159081179091559051339391927f7fa523c84ab8d7fc5b72f08b9e46dbbf10c39e119a075b3e317002d14bc9f43691a45050565b612091612976565b60098054610100600160a81b0319166101006001600160a01b038416908102919091179091556040517fd2be862d755bca7e0d39772b2cab3a5578da9c285f69199f4c063c2294a7f36c90600090a250565b6120eb612976565b6001600160a01b03811661211557604051631e4fbdf760e01b815260006004820152602401610725565b61211e81612a90565b50565b612129612976565b600a546001600160a01b03161561219857600a5460405163040db3b560e41b81523060048201526001600160a01b03909116906340db3b5090602401600060405180830381600087803b15801561217f57600080fd5b505af1158015612193573d6000803e3d6000fd5b505050505b600a80546001600160a01b0319166001600160a01b038316908117909155604051631ffad50160e11b8152306004820152633ff5aa0290602401600060405180830381600087803b1580156121ec57600080fd5b505af1158015612200573d6000803e3d6000fd5b50506040516001600160a01b03841692507f7f3a888862559648ec01d97deb7b5012bff86dc91e654a1de397170db40e35b69150600090a250565b7ff0c57e16840df040f15088dc2f81fe391c3923bec73e23a9662efc9c229c6a008054600160401b810460ff16159067ffffffffffffffff166000811580156122815750825b905060008267ffffffffffffffff16600114801561229e5750303b155b9050811580156122ac575080155b156122ca5760405163f92ee8a960e01b815260040160405180910390fd5b845467ffffffffffffffff1916600117855583156122f457845460ff60401b1916600160401b1785555b60006122fe6113b4565b6001600160a01b03161461234a5760405162461bcd60e51b8152602060048201526013602482015272185b1c9958591e481a5b9a5d1a585b1a5e9959606a1b6044820152606401610725565b6001600160a01b038b161580159061236a57506001600160a01b038a1615155b6123865760405162461bcd60e51b815260040161072590613413565b6040516020016123a190602080825260009082015260400190565b60405160208183030381529060405280519060200120896040516020016123c89190612d98565b6040516020818303038152906040528051906020012014158015612442575060405160200161240290602080825260009082015260400190565b60405160208183030381529060405280519060200120886040516020016124299190612d98565b6040516020818303038152906040528051906020012014155b61245e5760405162461bcd60e51b81526004016107259061349d565b60128760ff1611156124b25760405162461bcd60e51b815260206004820152601960248201527f646563696d616c73206265747765656e203020616e64203138000000000000006044820152606401610725565b6124bb33612ceb565b60046124c78a826135dc565b5060056124d489826135dc565b50600680546001600160a01b038816610100026001600160a81b031990911660ff8a16171790556009805460ff1916905561250e8b612089565b6125178a612121565b6006546040516101009091046001600160a01b03169061253990600590613379565b604051809103902060046040516125509190613379565b6040805191829003822060065483830183526005845264342e312e3360d81b6020850152915190927f6a1105ac8148a3c319adbc369f9072573e8a11d3a3d195e067e7c40767ec54d1926125aa9260ff90911691906133ef565b60405180910390a483156125f857845460ff60401b19168555604051600181527fc7f505b2f371ae2175ee4913f4499e1f2633a7b5936321eed1cdaeb6115181d29060200160405180910390a15b5050505050505050505050565b60005b8381101561089357612658858583818110612625576126256132c8565b905060200201602081019061263a9190612df1565b84848481811061264c5761264c6132c8565b90506020020135610700565b600101612608565b6001600160a01b0383166126c25760405162461bcd60e51b8152602060048201526024808201527f45524332303a20617070726f76652066726f6d20746865207a65726f206164646044820152637265737360e01b6064820152608401610725565b6001600160a01b0382166127235760405162461bcd60e51b815260206004820152602260248201527f45524332303a20617070726f766520746f20746865207a65726f206164647265604482015261737360f01b6064820152608401610725565b6001600160a01b0383811660008181526002602090815260408083209487168084529482529182902085905590518481527f8c5be1e5ebec7d5bd14f71427d1e84f3dd0314c0f7b2291e5b200ac8c7c3b92591015b60405180910390a3505050565b60006001600160a01b0382166127e85760405162461bcd60e51b815260206004820152602260248201527f526f6c65733a206163636f756e7420697320746865207a65726f206164647265604482015261737360f01b6064820152608401610725565b506001600160a01b03166000908152602091909152604090205460ff1690565b6001600160a01b03831661286c5760405162461bcd60e51b815260206004820152602560248201527f45524332303a207472616e736665722066726f6d20746865207a65726f206164604482015264647265737360d81b6064820152608401610725565b6001600160a01b0382166128ce5760405162461bcd60e51b815260206004820152602360248201527f45524332303a207472616e7366657220746f20746865207a65726f206164647260448201526265737360e81b6064820152608401610725565b6001600160a01b0383166000908152600160205260409020546128f29082906132fb565b6001600160a01b0380851660009081526001602052604080822093909355908416815220546129229082906132b5565b6001600160a01b0380841660008181526001602052604090819020939093559151908516907fddf252ad1be2c89b69c2b068fc378daa952ba7f163c4a11628f55a4df523b3ef906127789085815260200190565b3361297f6113b4565b6001600160a01b0316146112615760405163118cdaa760e01b8152336004820152602401610725565b6001600160a01b0382166129fe5760405162461bcd60e51b815260206004820152601f60248201527f45524332303a206d696e7420746f20746865207a65726f2061646472657373006044820152606401610725565b80600354612a0c91906132b5565b6003556001600160a01b038216600090815260016020526040902054612a339082906132b5565b6001600160a01b0383166000818152600160205260408082209390935591519091907fddf252ad1be2c89b69c2b068fc378daa952ba7f163c4a11628f55a4df523b3ef90612a849085815260200190565b60405180910390a35050565b7f9016d09d72d40fdae2fd8ceac6b6234c7706214fd39c1cd1e609a0528c19930080546001600160a01b031981166001600160a01b03848116918217845560405192169182907f8be0079c531659141344cd1fd0a4f28419497f9722a3daafe3b4186f6b6457e090600090a3505050565b612b0b8282612785565b15612b585760405162461bcd60e51b815260206004820152601f60248201527f526f6c65733a206163636f756e7420616c72656164792068617320726f6c65006044820152606401610725565b6001600160a01b0316600090815260209190915260409020805460ff19166001179055565b612b878282612785565b612bdd5760405162461bcd60e51b815260206004820152602160248201527f526f6c65733a206163636f756e7420646f6573206e6f74206861766520726f6c6044820152606560f81b6064820152608401610725565b6001600160a01b0316600090815260209190915260409020805460ff19169055565b6001600160a01b038216612c5f5760405162461bcd60e51b815260206004820152602160248201527f45524332303a206275726e2066726f6d20746865207a65726f206164647265736044820152607360f81b6064820152608401610725565b6001600160a01b038216600090815260016020526040902054612c839082906132fb565b6001600160a01b038316600090815260016020526040902055600354612caa9082906132fb565b6003556040518181526000906001600160a01b038416907fddf252ad1be2c89b69c2b068fc378daa952ba7f163c4a11628f55a4df523b3ef90602001612a84565b612cf3612d01565b61211e81612d4a565b505050565b7ff0c57e16840df040f15088dc2f81fe391c3923bec73e23a9662efc9c229c6a0054600160401b900460ff1661126157604051631afcd79f60e31b815260040160405180910390fd5b6120eb612d01565b6000815180845260005b81811015612d7857602081850181015186830182015201612d5c565b506000602082860101526020601f19601f83011685010191505092915050565b602081526000610cd26020830184612d52565b80356001600160a01b0381168114612dc257600080fd5b919050565b60008060408385031215612dda57600080fd5b612de383612dab565b946020939093013593505050565b600060208284031215612e0357600080fd5b610cd282612dab565b60008083601f840112612e1e57600080fd5b50813567ffffffffffffffff811115612e3657600080fd5b6020830191508360208260051b8501011115612e5157600080fd5b9250929050565b60008060008060408587031215612e6e57600080fd5b843567ffffffffffffffff80821115612e8657600080fd5b612e9288838901612e0c565b90965094506020870135915080821115612eab57600080fd5b50612eb887828801612e0c565b95989497509550505050565b600080600060608486031215612ed957600080fd5b612ee284612dab565b9250612ef060208501612dab565b9150604084013590509250925092565b60008060008060008060608789031215612f1957600080fd5b863567ffffffffffffffff80821115612f3157600080fd5b612f3d8a838b01612e0c565b90985096506020890135915080821115612f5657600080fd5b612f628a838b01612e0c565b90965094506040890135915080821115612f7b57600080fd5b50612f8889828a01612e0c565b979a9699509497509295939492505050565b600080600060608486031215612faf57600080fd5b612fb884612dab565b9250612fc660208501612dab565b9150612fd460408501612dab565b90509250925092565b60008060208385031215612ff057600080fd5b823567ffffffffffffffff8082111561300857600080fd5b818501915085601f83011261301c57600080fd5b81358181111561302b57600080fd5b86602082850101111561303d57600080fd5b60209290920196919550909350505050565b801515811461211e57600080fd5b6000806040838503121561307057600080fd5b61307983612dab565b915060208301356130898161304f565b809150509250929050565b600080604083850312156130a757600080fd5b6130b083612dab565b91506130be60208401612dab565b90509250929050565b634e487b7160e01b600052604160045260246000fd5b600082601f8301126130ee57600080fd5b813567ffffffffffffffff80821115613109576131096130c7565b604051601f8301601f19908116603f01168101908282118183101715613131576131316130c7565b8160405283815286602085880101111561314a57600080fd5b836020870160208301376000602085830101528094505050505092915050565b60008060008060008060c0878903121561318357600080fd5b61318c87612dab565b955061319a60208801612dab565b9450604087013567ffffffffffffffff808211156131b757600080fd5b6131c38a838b016130dd565b955060608901359150808211156131d957600080fd5b506131e689828a016130dd565b935050608087013560ff811681146131fd57600080fd5b915061320b60a08801612dab565b90509295509295509295565b600181811c9082168061322b57607f821691505b60208210810361324b57634e487b7160e01b600052602260045260246000fd5b50919050565b6020808252602e908201527f4167656e74526f6c653a2063616c6c657220646f6573206e6f7420686176652060408201526d746865204167656e7420726f6c6560901b606082015260800190565b634e487b7160e01b600052601160045260246000fd5b808201808211156106fa576106fa61329f565b634e487b7160e01b600052603260045260246000fd5b6000602082840312156132f057600080fd5b8135610cd28161304f565b818103818111156106fa576106fa61329f565b60208082526010908201526f14185d5cd8589b194e881c185d5cd95960821b604082015260600190565b60006020828403121561334a57600080fd5b8151610cd28161304f565b6001600160a01b039384168152919092166020820152604081019190915260600190565b600080835461338781613217565b6001828116801561339f57600181146133b4576133e3565b60ff19841687528215158302870194506133e3565b8760005260208060002060005b858110156133da5781548a8201529084019082016133c1565b50505082870194505b50929695505050505050565b60ff8316815260406020820152600061340b6040830184612d52565b949350505050565b6020808252601f908201527f696e76616c696420617267756d656e74202d207a65726f206164647265737300604082015260600190565b60006020828403121561345c57600080fd5b815161ffff81168114610cd257600080fd5b60208152816020820152818360408301376000818301604090810191909152601f909201601f19160101919050565b6020808252601f908201527f696e76616c696420617267756d656e74202d20656d70747920737472696e6700604082015260600190565b601f821115612cfc576000816000526020600020601f850160051c810160208610156134fd5750805b601f850160051c820191505b8181101561108f57828155600101613509565b67ffffffffffffffff831115613534576135346130c7565b613548836135428354613217565b836134d4565b6000601f84116001811461357c57600085156135645750838201355b600019600387901b1c1916600186901b178355610893565b600083815260209020601f19861690835b828110156135ad578685013582556020948501946001909201910161358d565b50868210156135ca5760001960f88860031b161c19848701351681555b505060018560011b0183555050505050565b815167ffffffffffffffff8111156135f6576135f66130c7565b61360a816136048454613217565b846134d4565b602080601f83116001811461363f57600084156136275750858301515b600019600386901b1c1916600185901b17855561108f565b600085815260208120601f198616915b8281101561366e5788860151825594840194600190910190840161364f565b508582101561368c5787850151600019600388901b60f8161c191681555b5050505050600190811b0190555056fea264697066735822122004cc5f8a3b80d57c11b34161b3511d5a65f648e6a3aa1a3ce879599c6c986f5d64736f6c63430008180033",
  "linkReferences": {},
  "deployedLinkReferences": {}
}