{
  "_format": "hh-sol-artifact-1",
  "contractName": "TREXGateway",
  "sourceName": "contracts/erc3643/factory/TREXGateway.sol",
  "abi": [
    {
      "inputs": [
        {
          "internalType": "address",
          "name": "factory",
          "type": "address"
        },
        {
          "internalType": "bool",
          "name": "publicDeploymentStatus",
          "type": "bool"
        }
      ],
      "stateMutability": "nonpayable",
      "type": "constructor"
    },
    {
      "inputs": [
        {
          "internalType": "uint16",
          "name": "lengthLimit",
          "type": "uint16"
        }
      ],
      "name": "BatchMaxLengthExceeded",
      "type": "error"
    },
    {
      "inputs": [
        {
          "internalType": "address",
          "name": "deployer",
          "type": "address"
        }
      ],
      "name": "DeployerAlreadyExists",
      "type": "error"
    },
    {
      "inputs": [
        {
          "internalType": "address",
          "name": "deployer",
          "type": "address"
        }
      ],
      "name": "DeployerDoesNotExist",
      "type": "error"
    },
    {
      "inputs": [],
      "name": "DeploymentFeesAlreadyDisabled",
      "type": "error"
    },
    {
      "inputs": [],
      "name": "DeploymentFeesAlreadyEnabled",
      "type": "error"
    },
    {
      "inputs": [],
      "name": "DiscountOutOfRange",
      "type": "error"
    },
    {
      "inputs": [],
      "name": "OnlyAdminCall",
      "type": "error"
    },
    {
      "inputs": [],
      "name": "PublicCannotDeployOnBehalf",
      "type": "error"
    },
    {
      "inputs": [],
      "name": "PublicDeploymentAlreadyDisabled",
      "type": "error"
    },
    {
      "inputs": [],
      "name": "PublicDeploymentAlreadyEnabled",
      "type": "error"
    },
    {
      "inputs": [],
      "name": "PublicDeploymentsNotAllowed",
      "type": "error"
    },
    {
      "inputs": [],
      "name": "ZeroAddress",
      "type": "error"
    },
    {
      "anonymous": false,
      "inputs": [
        {
          "indexed": true,
          "internalType": "address",
          "name": "_agent",
          "type": "address"
        }
      ],
      "name": "AgentAdded",
      "type": "event"
    },
    {
      "anonymous": false,
      "inputs": [
        {
          "indexed": true,
          "internalType": "address",
          "name": "_agent",
          "type": "address"
        }
      ],
      "name": "AgentRemoved",
      "type": "event"
    },
    {
      "anonymous": false,
      "inputs": [
        {
          "indexed": true,
          "internalType": "address",
          "name": "deployer",
          "type": "address"
        }
      ],
      "name": "DeployerAdded",
      "type": "event"
    },
    {
      "anonymous": false,
      "inputs": [
        {
          "indexed": true,
          "internalType": "address",
          "name": "deployer",
          "type": "address"
        }
      ],
      "name": "DeployerRemoved",
      "type": "event"
    },
    {
      "anonymous": false,
      "inputs": [
        {
          "indexed": true,
          "internalType": "bool",
          "name": "isEnabled",
          "type": "bool"
        }
      ],
      "name": "DeploymentFeeEnabled",
      "type": "event"
    },
    {
      "anonymous": false,
      "inputs": [
        {
          "indexed": true,
          "internalType": "uint256",
          "name": "fee",
          "type": "uint256"
        },
        {
          "indexed": true,
          "internalType": "address",
          "name": "feeToken",
          "type": "address"
        },
        {
          "indexed": true,
          "internalType": "address",
          "name": "feeCollector",
          "type": "address"
        }
      ],
      "name": "DeploymentFeeSet",
      "type": "event"
    },
    {
      "anonymous": false,
      "inputs": [
        {
          "indexed": true,
          "internalType": "address",
          "name": "factory",
          "type": "address"
        }
      ],
      "name": "FactorySet",
      "type": "event"
    },
    {
      "anonymous": false,
      "inputs": [
        {
          "indexed": true,
          "internalType": "address",
          "name": "deployer",
          "type": "address"
        },
        {
          "indexed": false,
          "internalType": "uint16",
          "name": "discount",
          "type": "uint16"
        }
      ],
      "name": "FeeDiscountApplied",
      "type": "event"
    },
    {
      "anonymous": false,
      "inputs": [
        {
          "indexed": true,
          "internalType": "address",
          "name": "requester",
          "type": "address"
        },
        {
          "indexed": false,
          "internalType": "address",
          "name": "intendedOwner",
          "type": "address"
        },
        {
          "indexed": false,
          "internalType": "uint256",
          "name": "feeApplied",
          "type": "uint256"
        }
      ],
      "name": "GatewaySuiteDeploymentProcessed",
      "type": "event"
    },
    {
      "anonymous": false,
      "inputs": [
        {
          "indexed": true,
          "internalType": "address",
          "name": "previousOwner",
          "type": "address"
        },
        {
          "indexed": true,
          "internalType": "address",
          "name": "newOwner",
          "type": "address"
        }
      ],
      "name": "OwnershipTransferred",
      "type": "event"
    },
    {
      "anonymous": false,
      "inputs": [
        {
          "indexed": true,
          "internalType": "bool",
          "name": "publicDeploymentStatus",
          "type": "bool"
        }
      ],
      "name": "PublicDeploymentStatusSet",
      "type": "event"
    },
    {
      "inputs": [
        {
          "internalType": "address",
          "name": "_agent",
          "type": "address"
        }
      ],
      "name": "addAgent",
      "outputs": [],
      "stateMutability": "nonpayable",
      "type": "function"
    },
    {
      "inputs": [
        {
          "internalType": "address",
          "name": "deployer",
          "type": "address"
        }
      ],
      "name": "addDeployer",
      "outputs": [],
      "stateMutability": "nonpayable",
      "type": "function"
    },
    {
      "inputs": [
        {
          "internalType": "address",
          "name": "deployer",
          "type": "address"
        },
        {
          "internalType": "uint16",
          "name": "discount",
          "type": "uint16"
        }
      ],
      "name": "applyFeeDiscount",
      "outputs": [],
      "stateMutability": "nonpayable",
      "type": "function"
    },
    {
      "inputs": [
        {
          "internalType": "address[]",
          "name": "deployers",
          "type": "address[]"
        }
      ],
      "name": "batchAddDeployer",
      "outputs": [],
      "stateMutability": "nonpayable",
      "type": "function"
    },
    {
      "inputs": [
        {
          "internalType": "address[]",
          "name": "deployers",
          "type": "address[]"
        },
        {
          "internalType": "uint16[]",
          "name": "discounts",
          "type": "uint16[]"
        }
      ],
      "name": "batchApplyFeeDiscount",
      "outputs": [],
      "stateMutability": "nonpayable",
      "type": "function"
    },
    {
      "inputs": [
        {
          "components": [
            {
              "internalType": "address",
              "name": "owner",
              "type": "address"
            },
            {
              "internalType": "string",
              "name": "name",
              "type": "string"
            },
            {
              "internalType": "string",
              "name": "symbol",
              "type": "string"
            },
            {
              "internalType": "uint8",
              "name": "decimals",
              "type": "uint8"
            },
            {
              "internalType": "address",
              "name": "irs",
              "type": "address"
            },
            {
              "internalType": "address",
              "name": "ONCHAINID",
              "type": "address"
            },
            {
              "internalType": "address[]",
              "name": "irAgents",
              "type": "address[]"
            },
            {
              "internalType": "address[]",
              "name": "tokenAgents",
              "type": "address[]"
            },
            {
              "internalType": "address[]",
              "name": "complianceModules",
              "type": "address[]"
            },
            {
              "internalType": "bytes[]",
              "name": "complianceSettings",
              "type": "bytes[]"
            }
          ],
          "internalType": "struct ITREXFactory.TokenDetails[]",
          "name": "_tokenDetails",
          "type": "tuple[]"
        },
        {
          "components": [
            {
              "internalType": "uint256[]",
              "name": "claimTopics",
              "type": "uint256[]"
            },
            {
              "internalType": "address[]",
              "name": "issuers",
              "type": "address[]"
            },
            {
              "internalType": "uint256[][]",
              "name": "issuerClaims",
              "type": "uint256[][]"
            }
          ],
          "internalType": "struct ITREXFactory.ClaimDetails[]",
          "name": "_claimDetails",
          "type": "tuple[]"
        }
      ],
      "name": "batchDeployTREXSuite",
      "outputs": [],
      "stateMutability": "nonpayable",
      "type": "function"
    },
    {
      "inputs": [
        {
          "internalType": "address[]",
          "name": "deployers",
          "type": "address[]"
        }
      ],
      "name": "batchRemoveDeployer",
      "outputs": [],
      "stateMutability": "nonpayable",
      "type": "function"
    },
    {
      "inputs": [
        {
          "internalType": "address",
          "name": "deployer",
          "type": "address"
        }
      ],
      "name": "calculateFee",
      "outputs": [
        {
          "internalType": "uint256",
          "name": "",
          "type": "uint256"
        }
      ],
      "stateMutability": "view",
      "type": "function"
    },
    {
      "inputs": [
        {
          "components": [
            {
              "internalType": "address",
              "name": "owner",
              "type": "address"
            },
            {
              "internalType": "string",
              "name": "name",
              "type": "string"
            },
            {
              "internalType": "string",
              "name": "symbol",
              "type": "string"
            },
            {
              "internalType": "uint8",
              "name": "decimals",
              "type": "uint8"
            },
            {
              "internalType": "address",
              "name": "irs",
              "type": "address"
            },
            {
              "internalType": "address",
              "name": "ONCHAINID",
              "type": "address"
            },
            {
              "internalType": "address[]",
              "name": "irAgents",
              "type": "address[]"
            },
            {
              "internalType": "address[]",
              "name": "tokenAgents",
              "type": "address[]"
            },
            {
              "internalType": "address[]",
              "name": "complianceModules",
              "type": "address[]"
            },
            {
              "internalType": "bytes[]",
              "name": "complianceSettings",
              "type": "bytes[]"
            }
          ],
          "internalType": "struct ITREXFactory.TokenDetails",
          "name": "_tokenDetails",
          "type": "tuple"
        },
        {
          "components": [
            {
              "internalType": "uint256[]",
              "name": "claimTopics",
              "type": "uint256[]"
            },
            {
              "internalType": "address[]",
              "name": "issuers",
              "type": "address[]"
            },
            {
              "internalType": "uint256[][]",
              "name": "issuerClaims",
              "type": "uint256[][]"
            }
          ],
          "internalType": "struct ITREXFactory.ClaimDetails",
          "name": "_claimDetails",
          "type": "tuple"
        }
      ],
      "name": "deployTREXSuite",
      "outputs": [],
      "stateMutability": "nonpayable",
      "type": "function"
    },
    {
      "inputs": [
        {
          "internalType": "bool",
          "name": "_isEnabled",
          "type": "bool"
        }
      ],
      "name": "enableDeploymentFee",
      "outputs": [],
      "stateMutability": "nonpayable",
      "type": "function"
    },
    {
      "inputs": [],
      "name": "getDeploymentFee",
      "outputs": [
        {
          "components": [
            {
              "internalType": "uint256",
              "name": "fee",
              "type": "uint256"
            },
            {
              "internalType": "address",
              "name": "feeToken",
              "type": "address"
            },
            {
              "internalType": "address",
              "name": "feeCollector",
              "type": "address"
            }
          ],
          "internalType": "struct ITREXGateway.Fee",
          "name": "",
          "type": "tuple"
        }
      ],
      "stateMutability": "view",
      "type": "function"
    },
    {
      "inputs": [],
      "name": "getFactory",
      "outputs": [
        {
          "internalType": "address",
          "name": "",
          "type": "address"
        }
      ],
      "stateMutability": "view",
      "type": "function"
    },
    {
      "inputs": [],
      "name": "getPublicDeploymentStatus",
      "outputs": [
        {
          "internalType": "bool",
          "name": "",
          "type": "bool"
        }
      ],
      "stateMutability": "view",
      "type": "function"
    },
    {
      "inputs": [
        {
          "internalType": "address",
          "name": "_agent",
          "type": "address"
        }
      ],
      "name": "isAgent",
      "outputs": [
        {
          "internalType": "bool",
          "name": "",
          "type": "bool"
        }
      ],
      "stateMutability": "view",
      "type": "function"
    },
    {
      "inputs": [
        {
          "internalType": "address",
          "name": "deployer",
          "type": "address"
        }
      ],
      "name": "isDeployer",
      "outputs": [
        {
          "internalType": "bool",
          "name": "",
          "type": "bool"
        }
      ],
      "stateMutability": "view",
      "type": "function"
    },
    {
      "inputs": [],
      "name": "isDeploymentFeeEnabled",
      "outputs": [
        {
          "internalType": "bool",
          "name": "",
          "type": "bool"
        }
      ],
      "stateMutability": "view",
      "type": "function"
    },
    {
      "inputs": [],
      "name": "owner",
      "outputs": [
        {
          "internalType": "address",
          "name": "",
          "type": "address"
        }
      ],
      "stateMutability": "view",
      "type": "function"
    },
    {
      "inputs": [
        {
          "internalType": "address",
          "name": "_agent",
          "type": "address"
        }
      ],
      "name": "removeAgent",
      "outputs": [],
      "stateMutability": "nonpayable",
      "type": "function"
    },
    {
      "inputs": [
        {
          "internalType": "address",
          "name": "deployer",
          "type": "address"
        }
      ],
      "name": "removeDeployer",
      "outputs": [],
      "stateMutability": "nonpayable",
      "type": "function"
    },
    {
      "inputs": [],
      "name": "renounceOwnership",
      "outputs": [],
      "stateMutability": "nonpayable",
      "type": "function"
    },
    {
      "inputs": [
        {
          "internalType": "uint256",
          "name": "_fee",
          "type": "uint256"
        },
        {
          "internalType": "address",
          "name": "_feeToken",
          "type": "address"
        },
        {
          "internalType": "address",
          "name": "_feeCollector",
          "type": "address"
        }
      ],
      "name": "setDeploymentFee",
      "outputs": [],
      "stateMutability": "nonpayable",
      "type": "function"
    },
    {
      "inputs": [
        {
          "internalType": "address",
          "name": "factory",
          "type": "address"
        }
      ],
      "name": "setFactory",
      "outputs": [],
      "stateMutability": "nonpayable",
      "type": "function"
    },
    {
      "inputs": [
        {
          "internalType": "bool",
          "name": "_isEnabled",
          "type": "bool"
        }
      ],
      "name": "setPublicDeploymentStatus",
      "outputs": [],
      "stateMutability": "nonpayable",
      "type": "function"
    },
    {
      "inputs": [
        {
          "internalType": "address",
          "name": "_newOwner",
          "type": "address"
        }
      ],
      "name": "transferFactoryOwnership",
      "outputs": [],
      "stateMutability": "nonpayable",
      "type": "function"
    },
    {
      "inputs": [
        {
          "internalType": "address",
          "name": "newOwner",
          "type": "address"
        }
      ],
      "name": "transferOwnership",
      "outputs": [],
      "stateMutability": "nonpayable",
      "type": "function"
    }
  ],
  "bytecode": "0x60806040523480156200001157600080fd5b506040516200255e3803806200255e833981016040819052620000349162000116565b6200003f33620000c6565b600280546001600160a01b0384166001600160a81b03199091168117600160a01b84151502179091556040517f1edf3afd4ac789736e00d216cd88be164ddcef26a6eedcc30cdb0cb62f3741b190600090a2604051811515907ff8be33baa430c4b62d2c9d79ab319d10cc41755a1fb65f85e64ca0632c29d0a490600090a2505062000164565b600080546001600160a01b038381166001600160a01b0319831681178455604051919092169283917f8be0079c531659141344cd1fd0a4f28419497f9722a3daafe3b4186f6b6457e09190a35050565b600080604083850312156200012a57600080fd5b82516001600160a01b03811681146200014257600080fd5b602084015190925080151581146200015957600080fd5b809150509250929050565b6123ea80620001746000396000f3fe608060405234801561001057600080fd5b50600436106101725760003560e01c806384e79842116100de578063a264f2bd11610097578063e65811ff11610071578063e65811ff14610398578063eca465c4146103ab578063f2fde38b146103be578063f315df86146103d157600080fd5b8063a264f2bd14610360578063bfc2f10b14610373578063c8eebfcc1461038557600080fd5b806384e79842146102de578063880f4039146102f157806388cc58e4146103045780638da5cb5b1461032957806397a6278e1461033a5780639c5c5ce71461034d57600080fd5b806350c358a41161013057806350c358a4146102775780635bb478081461028a5780635d46c2831461029d578063715018a6146102b0578063730b86a9146102b857806375e14cff146102cb57600080fd5b806265939e146101775780631ffbb0641461018c5780632782035e146101b4578063465f5eb8146101c757806346c549cc146101e8578063477068511461026c575b600080fd5b61018a61018536600461178f565b6103e4565b005b61019f61019a3660046117ec565b610593565b60405190151581526020015b60405180910390f35b61018a6101c2366004611807565b6105a6565b6101da6101d53660046117ec565b61078a565b6040519081526020016101ab565b6102396040805160608101825260008082526020820181905291810191909152506040805160608101825260035481526004546001600160a01b039081166020830152600554169181019190915290565b60408051825181526020808401516001600160a01b039081169183019190915292820151909216908201526060016101ab565b60065460ff1661019f565b61019f6102853660046117ec565b6107d1565b61018a6102983660046117ec565b6107ef565b61018a6102ab366004611872565b610868565b61018a610911565b61018a6102c6366004611e16565b610925565b61018a6102d9366004611efb565b6109a5565b61018a6102ec3660046117ec565b610a6d565b61018a6102ff3660046117ec565b610b0d565b6002546001600160a01b03165b6040516001600160a01b0390911681526020016101ab565b6000546001600160a01b0316610311565b61018a6103483660046117ec565b610bca565b61018a61035b3660046117ec565b610c6a565b61018a61036e366004611f3c565b610ccd565b600254600160a01b900460ff1661019f565b61018a610393366004611f59565b610d7e565b61018a6103a636600461178f565b610fc9565b61018a6103b9366004611f3c565b611163565b61018a6103cc3660046117ec565b611234565b61018a6103df3660046117ec565b6112ad565b6103ed33610593565b15801561040557506000546001600160a01b03163314155b1561042357604051631859551f60e31b815260040160405180910390fd5b6101f481111561044f57604051632789f90560e11b81526101f460048201526024015b60405180910390fd5b60005b8181101561058e5761048483838381811061046f5761046f611fb2565b905060200201602081019061028591906117ec565b6104d45782828281811061049a5761049a611fb2565b90506020020160208101906104af91906117ec565b604051634e02340f60e01b81526001600160a01b039091166004820152602401610446565b600760008484848181106104ea576104ea611fb2565b90506020020160208101906104ff91906117ec565b6001600160a01b031681526020810191909152604001600020805460ff1916905582828281811061053257610532611fb2565b905060200201602081019061054791906117ec565b6001600160a01b03167ffdb22628e87f888d060acc53d048a6a8400a5024f81f9dcb0606e723f238864a60405160405180910390a28061058681611fde565b915050610452565b505050565b60006105a0600183611366565b92915050565b6105af33610593565b1580156105c757506000546001600160a01b03163314155b156105e557604051631859551f60e31b815260040160405180910390fd5b6101f483111561060c57604051632789f90560e11b81526101f46004820152602401610446565b60005b838110156107835761271083838381811061062c5761062c611fb2565b90506020020160208101906106419190611ff7565b61ffff1611156106645760405163eb2b61a560e01b815260040160405180910390fd5b82828281811061067657610676611fb2565b905060200201602081019061068b9190611ff7565b600860008787858181106106a1576106a1611fb2565b90506020020160208101906106b691906117ec565b6001600160a01b031681526020810191909152604001600020805461ffff191661ffff929092169190911790558484828181106106f5576106f5611fb2565b905060200201602081019061070a91906117ec565b6001600160a01b03167fd254de1c4bdaafc52898e46f43ed993ee35724d55a0df75ebcb55f9f6c470dab84848481811061074657610746611fb2565b905060200201602081019061075b9190611ff7565b60405161ffff909116815260200160405180910390a28061077b81611fde565b91505061060f565b5050505050565b6003546001600160a01b0382166000908152600860205260408120549091612710916107ba919061ffff16612012565b6107c49190612029565b6003546105a0919061204b565b6001600160a01b031660009081526007602052604090205460ff1690565b6107f76113e9565b6001600160a01b03811661081e5760405163d92e233d60e01b815260040160405180910390fd5b600280546001600160a01b0319166001600160a01b0383169081179091556040517f1edf3afd4ac789736e00d216cd88be164ddcef26a6eedcc30cdb0cb62f3741b190600090a250565b6108706113e9565b6001600160a01b038216158061088d57506001600160a01b038116155b156108ab5760405163d92e233d60e01b815260040160405180910390fd5b6003839055600480546001600160a01b03199081166001600160a01b038581169182179093556005805490921692841692831790915560405185907f62aa79f6e449920637ad5310ea6ef9c67a32aaa6a8b98cd6814452daf11213a390600090a4505050565b6109196113e9565b6109236000611443565b565b60058251111561094b57604051632789f90560e11b815260056004820152602401610446565b60005b825181101561058e5761099383828151811061096c5761096c611fb2565b602002602001015183838151811061098657610986611fb2565b6020026020010151610d7e565b8061099d81611fde565b91505061094e565b6109ae33610593565b1580156109c657506000546001600160a01b03163314155b156109e457604051631859551f60e31b815260040160405180910390fd5b6127108161ffff161115610a0b5760405163eb2b61a560e01b815260040160405180910390fd5b6001600160a01b038216600081815260086020908152604091829020805461ffff191661ffff861690811790915591519182527fd254de1c4bdaafc52898e46f43ed993ee35724d55a0df75ebcb55f9f6c470dab910160405180910390a25050565b610a756113e9565b6001600160a01b038116610acb5760405162461bcd60e51b815260206004820152601f60248201527f696e76616c696420617267756d656e74202d207a65726f2061646472657373006044820152606401610446565b610ad6600182611493565b6040516001600160a01b038216907ff68e73cec97f2d70aa641fb26e87a4383686e2efacb648f2165aeb02ac562ec590600090a250565b610b1633610593565b158015610b2e57506000546001600160a01b03163314155b15610b4c57604051631859551f60e31b815260040160405180910390fd5b610b55816107d1565b15610b7e576040516375c2ceb960e11b81526001600160a01b0382166004820152602401610446565b6001600160a01b038116600081815260076020526040808220805460ff19166001179055517f861a21548a3ee34d896ccac3668a9d65030aaf2cb7367a2ed13608014016a0329190a250565b610bd26113e9565b6001600160a01b038116610c285760405162461bcd60e51b815260206004820152601f60248201527f696e76616c696420617267756d656e74202d207a65726f2061646472657373006044820152606401610446565b610c3360018261150f565b6040516001600160a01b038216907fed9c8ad8d5a0a66898ea49d2956929c93ae2e8bd50281b2ed897c5d1a6737e0b90600090a250565b610c726113e9565b60025460405163f2fde38b60e01b81526001600160a01b0383811660048301529091169063f2fde38b90602401600060405180830381600087803b158015610cb957600080fd5b505af1158015610783573d6000803e3d6000fd5b610cd56113e9565b60065460ff161515811515148015610cef57506001811515145b15610d0d576040516360d38b9560e01b815260040160405180910390fd5b60065460ff161515811515148015610d23575080155b15610d41576040516398e8f30360e01b815260040160405180910390fd5b6006805460ff19168215159081179091556040517f576845931000b1b98d2173829911e0db5a788158585b3da38572ec01552217d590600090a250565b600254600160a01b900460ff16158015610d9e5750610d9c336107d1565b155b15610dbc57604051632deadb8b60e21b815260040160405180910390fd5b600254600160a01b900460ff1615156001148015610de4575081516001600160a01b03163314155b8015610df65750610df4336107d1565b155b15610e14576040516318f44adb60e01b815260040160405180910390fd5b60065460009060ff161515600103610ee45760035415801590610e4d57503360009081526008602052604090205461271061ffff909116105b15610ee457610e5b3361078a565b600480546005546040516323b872dd60e01b815233938101939093526001600160a01b0390811660248401526044830184905292935091909116906323b872dd906064016020604051808303816000875af1158015610ebe573d6000803e3d6000fd5b505050506040513d601f19601f82011682018060405250810190610ee2919061205e565b505b6000610ef38460000151611591565b602080860151604051610f0793920161209f565b60408051601f198184030181529082905260025463cf753d3760e01b83529092506001600160a01b03169063cf753d3790610f4a90849088908890600401612257565b600060405180830381600087803b158015610f6457600080fd5b505af1158015610f78573d6000803e3d6000fd5b50508551604080516001600160a01b039092168252602082018690523393507f3ddb07c2df247d32c71cd94e46f101dd4a4bcd5ce07afc925673aa63ba24960e92500160405180910390a250505050565b610fd233610593565b158015610fea57506000546001600160a01b03163314155b1561100857604051631859551f60e31b815260040160405180910390fd5b6101f481111561102f57604051632789f90560e11b81526101f46004820152602401610446565b60005b8181101561058e5761104f83838381811061046f5761046f611fb2565b156110a05782828281811061106657611066611fb2565b905060200201602081019061107b91906117ec565b6040516375c2ceb960e11b81526001600160a01b039091166004820152602401610446565b6001600760008585858181106110b8576110b8611fb2565b90506020020160208101906110cd91906117ec565b6001600160a01b031681526020810191909152604001600020805460ff191691151591909117905582828281811061110757611107611fb2565b905060200201602081019061111c91906117ec565b6001600160a01b03167f861a21548a3ee34d896ccac3668a9d65030aaf2cb7367a2ed13608014016a03260405160405180910390a28061115b81611fde565b915050611032565b61116b6113e9565b600260149054906101000a900460ff16151581151514801561118f57506001811515145b156111ad57604051634cc2b9b760e01b815260040160405180910390fd5b600260149054906101000a900460ff1615158115151480156111cd575080155b156111eb5760405163593cdd5360e11b815260040160405180910390fd5b6002805460ff60a01b1916600160a01b831515908102919091179091556040517ff8be33baa430c4b62d2c9d79ab319d10cc41755a1fb65f85e64ca0632c29d0a490600090a250565b61123c6113e9565b6001600160a01b0381166112a15760405162461bcd60e51b815260206004820152602660248201527f4f776e61626c653a206e6577206f776e657220697320746865207a65726f206160448201526564647265737360d01b6064820152608401610446565b6112aa81611443565b50565b6112b633610593565b1580156112ce57506000546001600160a01b03163314155b156112ec57604051631859551f60e31b815260040160405180910390fd5b6112f5816107d1565b61131d57604051634e02340f60e01b81526001600160a01b0382166004820152602401610446565b6001600160a01b038116600081815260076020526040808220805460ff19169055517ffdb22628e87f888d060acc53d048a6a8400a5024f81f9dcb0606e723f238864a9190a250565b60006001600160a01b0382166113c95760405162461bcd60e51b815260206004820152602260248201527f526f6c65733a206163636f756e7420697320746865207a65726f206164647265604482015261737360f01b6064820152608401610446565b506001600160a01b03166000908152602091909152604090205460ff1690565b6000546001600160a01b031633146109235760405162461bcd60e51b815260206004820181905260248201527f4f776e61626c653a2063616c6c6572206973206e6f7420746865206f776e65726044820152606401610446565b600080546001600160a01b038381166001600160a01b0319831681178455604051919092169283917f8be0079c531659141344cd1fd0a4f28419497f9722a3daafe3b4186f6b6457e09190a35050565b61149d8282611366565b156114ea5760405162461bcd60e51b815260206004820152601f60248201527f526f6c65733a206163636f756e7420616c72656164792068617320726f6c65006044820152606401610446565b6001600160a01b0316600090815260209190915260409020805460ff19166001179055565b6115198282611366565b61156f5760405162461bcd60e51b815260206004820152602160248201527f526f6c65733a206163636f756e7420646f6573206e6f74206861766520726f6c6044820152606560f81b6064820152608401610446565b6001600160a01b0316600090815260209190915260409020805460ff19169055565b60606105a06001600160a01b0383166014606060006115b1836002612012565b6115bc90600261238a565b6001600160401b038111156115d3576115d36118ae565b6040519080825280601f01601f1916602001820160405280156115fd576020820181803683370190505b509050600360fc1b8160008151811061161857611618611fb2565b60200101906001600160f81b031916908160001a905350600f60fb1b8160018151811061164757611647611fb2565b60200101906001600160f81b031916908160001a905350600061166b846002612012565b61167690600161238a565b90505b60018111156116ee576f181899199a1a9b1b9c1cb0b131b232b360811b85600f16601081106116aa576116aa611fb2565b1a60f81b8282815181106116c0576116c0611fb2565b60200101906001600160f81b031916908160001a90535060049490941c936116e78161239d565b9050611679565b50831561173d5760405162461bcd60e51b815260206004820181905260248201527f537472696e67733a20686578206c656e67746820696e73756666696369656e746044820152606401610446565b9392505050565b60008083601f84011261175657600080fd5b5081356001600160401b0381111561176d57600080fd5b6020830191508360208260051b850101111561178857600080fd5b9250929050565b600080602083850312156117a257600080fd5b82356001600160401b038111156117b857600080fd5b6117c485828601611744565b90969095509350505050565b80356001600160a01b03811681146117e757600080fd5b919050565b6000602082840312156117fe57600080fd5b61173d826117d0565b6000806000806040858703121561181d57600080fd5b84356001600160401b038082111561183457600080fd5b61184088838901611744565b9096509450602087013591508082111561185957600080fd5b5061186687828801611744565b95989497509550505050565b60008060006060848603121561188757600080fd5b83359250611897602085016117d0565b91506118a5604085016117d0565b90509250925092565b634e487b7160e01b600052604160045260246000fd5b60405161014081016001600160401b03811182821017156118e7576118e76118ae565b60405290565b604051606081016001600160401b03811182821017156118e7576118e76118ae565b604051601f8201601f191681016001600160401b0381118282101715611937576119376118ae565b604052919050565b60006001600160401b03821115611958576119586118ae565b5060051b60200190565b60006001600160401b0383111561197b5761197b6118ae565b61198e601f8401601f191660200161190f565b90508281528383830111156119a257600080fd5b828260208301376000602084830101529392505050565b600082601f8301126119ca57600080fd5b61173d83833560208501611962565b803560ff811681146117e757600080fd5b600082601f8301126119fb57600080fd5b81356020611a10611a0b8361193f565b61190f565b82815260059290921b84018101918181019086841115611a2f57600080fd5b8286015b84811015611a5157611a44816117d0565b8352918301918301611a33565b509695505050505050565b600082601f830112611a6d57600080fd5b81356020611a7d611a0b8361193f565b82815260059290921b84018101918181019086841115611a9c57600080fd5b8286015b84811015611a515780356001600160401b03811115611abf5760008081fd5b8701603f81018913611ad15760008081fd5b611ae2898683013560408401611962565b845250918301918301611aa0565b60006101408284031215611b0357600080fd5b611b0b6118c4565b9050611b16826117d0565b815260208201356001600160401b0380821115611b3257600080fd5b611b3e858386016119b9565b60208401526040840135915080821115611b5757600080fd5b611b63858386016119b9565b6040840152611b74606085016119d9565b6060840152611b85608085016117d0565b6080840152611b9660a085016117d0565b60a084015260c0840135915080821115611baf57600080fd5b611bbb858386016119ea565b60c084015260e0840135915080821115611bd457600080fd5b611be0858386016119ea565b60e084015261010091508184013581811115611bfb57600080fd5b611c07868287016119ea565b838501525061012091508184013581811115611c2257600080fd5b611c2e86828701611a5c565b8385015250505092915050565b600082601f830112611c4c57600080fd5b81356020611c5c611a0b8361193f565b82815260059290921b84018101918181019086841115611c7b57600080fd5b8286015b84811015611a515780358352918301918301611c7f565b600060608284031215611ca857600080fd5b611cb06118ed565b905081356001600160401b0380821115611cc957600080fd5b611cd585838601611c3b565b8352602091508184013581811115611cec57600080fd5b611cf8868287016119ea565b8385015250604084013581811115611d0f57600080fd5b8401601f81018613611d2057600080fd5b8035611d2e611a0b8261193f565b81815260059190911b82018401908481019088831115611d4d57600080fd5b8584015b83811015611d8557803586811115611d695760008081fd5b611d778b8983890101611c3b565b845250918601918601611d51565b50604087015250939695505050505050565b600082601f830112611da857600080fd5b81356020611db8611a0b8361193f565b82815260059290921b84018101918181019086841115611dd757600080fd5b8286015b84811015611a515780356001600160401b03811115611dfa5760008081fd5b611e088986838b0101611c96565b845250918301918301611ddb565b60008060408385031215611e2957600080fd5b82356001600160401b0380821115611e4057600080fd5b818501915085601f830112611e5457600080fd5b81356020611e64611a0b8361193f565b82815260059290921b84018101918181019089841115611e8357600080fd5b8286015b84811015611ebb57803586811115611e9f5760008081fd5b611ead8c86838b0101611af0565b845250918301918301611e87565b5096505086013592505080821115611ed257600080fd5b50611edf85828601611d97565b9150509250929050565b803561ffff811681146117e757600080fd5b60008060408385031215611f0e57600080fd5b611f17836117d0565b9150611f2560208401611ee9565b90509250929050565b80151581146112aa57600080fd5b600060208284031215611f4e57600080fd5b813561173d81611f2e565b60008060408385031215611f6c57600080fd5b82356001600160401b0380821115611f8357600080fd5b611f8f86838701611af0565b93506020850135915080821115611fa557600080fd5b50611edf85828601611c96565b634e487b7160e01b600052603260045260246000fd5b634e487b7160e01b600052601160045260246000fd5b600060018201611ff057611ff0611fc8565b5060010190565b60006020828403121561200957600080fd5b61173d82611ee9565b80820281158282048414176105a0576105a0611fc8565b60008261204657634e487b7160e01b600052601260045260246000fd5b500490565b818103818111156105a0576105a0611fc8565b60006020828403121561207057600080fd5b815161173d81611f2e565b60005b8381101561209657818101518382015260200161207e565b50506000910152565b600083516120b181846020880161207b565b8351908301906120c581836020880161207b565b01949350505050565b600081518084526120e681602086016020860161207b565b601f01601f19169290920160200192915050565b600081518084526020808501945080840160005b838110156121335781516001600160a01b03168752958201959082019060010161210e565b509495945050505050565b600081518084526020808501808196508360051b8101915082860160005b858110156121865782840389526121748483516120ce565b9885019893509084019060010161215c565b5091979650505050505050565b600081518084526020808501945080840160005b83811015612133578151875295820195908201906001016121a7565b60008151606084526121d86060850182612193565b9050602080840151858303828701526121f183826120fa565b925050604084015185830360408701528281518085528385019150838160051b860101848401935060005b8281101561224a57601f19878303018452612238828651612193565b9486019493860193915060010161221c565b5098975050505050505050565b60608152600061226a60608301866120ce565b828103602084015284516001600160a01b031681526101406020860151816020840152612299828401826120ce565b915050604086015182820360408401526122b382826120ce565b91505060608601516122ca606084018260ff169052565b5060808601516122e560808401826001600160a01b03169052565b5060a086015161230060a08401826001600160a01b03169052565b5060c086015182820360c084015261231882826120fa565b91505060e086015182820360e084015261233282826120fa565b915050610100808701518383038285015261234d83826120fa565b925050506101208087015183830382850152612369838261213e565b9350505050828103604084015261238081856121c3565b9695505050505050565b808201808211156105a0576105a0611fc8565b6000816123ac576123ac611fc8565b50600019019056fea2646970667358221220aa1124c529913ca34de22f2e89da76b31d978b6fd62a2a46af1c15927ff74ed164736f6c63430008110033",
  "linkReferences": {},
  "deployedLinkReferences": {}
}