{
  "_format": "hh-sol-artifact-1",
  "contractName": "TREXImplementationAuthority",
  "sourceName": "contracts/erc3643/proxy/authority/TREXImplementationAuthority.sol",
  "abi": [
    {
      "inputs": [
        {
          "internalType": "bool",
          "name": "referenceStatus",
          "type": "bool"
        },
        {
          "internalType": "address",
          "name": "trexFactory",
          "type": "address"
        },
        {
          "internalType": "address",
          "name": "iaFactory",
          "type": "address"
        }
      ],
      "stateMutability": "nonpayable",
      "type": "constructor"
    },
    {
      "inputs": [
        {
          "internalType": "address",
          "name": "owner",
          "type": "address"
        }
      ],
      "name": "OwnableInvalidOwner",
      "type": "error"
    },
    {
      "inputs": [
        {
          "internalType": "address",
          "name": "account",
          "type": "address"
        }
      ],
      "name": "OwnableUnauthorizedAccount",
      "type": "error"
    },
    {
      "anonymous": false,
      "inputs": [
        {
          "indexed": true,
          "internalType": "address",
          "name": "iaFactory",
          "type": "address"
        }
      ],
      "name": "IAFactorySet",
      "type": "event"
    },
    {
      "anonymous": false,
      "inputs": [
        {
          "indexed": true,
          "internalType": "address",
          "name": "_token",
          "type": "address"
        },
        {
          "indexed": true,
          "internalType": "address",
          "name": "_newImplementationAuthority",
          "type": "address"
        }
      ],
      "name": "ImplementationAuthorityChanged",
      "type": "event"
    },
    {
      "anonymous": false,
      "inputs": [
        {
          "indexed": false,
          "internalType": "bool",
          "name": "referenceStatus",
          "type": "bool"
        },
        {
          "indexed": false,
          "internalType": "address",
          "name": "trexFactory",
          "type": "address"
        }
      ],
      "name": "ImplementationAuthoritySet",
      "type": "event"
    },
    {
      "anonymous": false,
      "inputs": [
        {
          "indexed": true,
          "internalType": "address",
          "name": "previousOwner",
          "type": "address"
        },
        {
          "indexed": true,
          "internalType": "address",
          "name": "newOwner",
          "type": "address"
        }
      ],
      "name": "OwnershipTransferred",
      "type": "event"
    },
    {
      "anonymous": false,
      "inputs": [
        {
          "indexed": true,
          "internalType": "address",
          "name": "trexFactory",
          "type": "address"
        }
      ],
      "name": "TREXFactorySet",
      "type": "event"
    },
    {
      "anonymous": false,
      "inputs": [
        {
          "components": [
            {
              "internalType": "uint8",
              "name": "major",
              "type": "uint8"
            },
            {
              "internalType": "uint8",
              "name": "minor",
              "type": "uint8"
            },
            {
              "internalType": "uint8",
              "name": "patch",
              "type": "uint8"
            }
          ],
          "indexed": true,
          "internalType": "struct ITREXImplementationAuthority.Version",
          "name": "version",
          "type": "tuple"
        },
        {
          "components": [
            {
              "internalType": "address",
              "name": "tokenImplementation",
              "type": "address"
            },
            {
              "internalType": "address",
              "name": "ctrImplementation",
              "type": "address"
            },
            {
              "internalType": "address",
              "name": "irImplementation",
              "type": "address"
            },
            {
              "internalType": "address",
              "name": "irsImplementation",
              "type": "address"
            },
            {
              "internalType": "address",
              "name": "tirImplementation",
              "type": "address"
            },
            {
              "internalType": "address",
              "name": "mcImplementation",
              "type": "address"
            }
          ],
          "indexed": true,
          "internalType": "struct ITREXImplementationAuthority.TREXContracts",
          "name": "trex",
          "type": "tuple"
        }
      ],
      "name": "TREXVersionAdded",
      "type": "event"
    },
    {
      "anonymous": false,
      "inputs": [
        {
          "components": [
            {
              "internalType": "uint8",
              "name": "major",
              "type": "uint8"
            },
            {
              "internalType": "uint8",
              "name": "minor",
              "type": "uint8"
            },
            {
              "internalType": "uint8",
              "name": "patch",
              "type": "uint8"
            }
          ],
          "indexed": true,
          "internalType": "struct ITREXImplementationAuthority.Version",
          "name": "version",
          "type": "tuple"
        },
        {
          "components": [
            {
              "internalType": "address",
              "name": "tokenImplementation",
              "type": "address"
            },
            {
              "internalType": "address",
              "name": "ctrImplementation",
              "type": "address"
            },
            {
              "internalType": "address",
              "name": "irImplementation",
              "type": "address"
            },
            {
              "internalType": "address",
              "name": "irsImplementation",
              "type": "address"
            },
            {
              "internalType": "address",
              "name": "tirImplementation",
              "type": "address"
            },
            {
              "internalType": "address",
              "name": "mcImplementation",
              "type": "address"
            }
          ],
          "indexed": true,
          "internalType": "struct ITREXImplementationAuthority.TREXContracts",
          "name": "trex",
          "type": "tuple"
        }
      ],
      "name": "TREXVersionFetched",
      "type": "event"
    },
    {
      "anonymous": false,
      "inputs": [
        {
          "components": [
            {
              "internalType": "uint8",
              "name": "major",
              "type": "uint8"
            },
            {
              "internalType": "uint8",
              "name": "minor",
              "type": "uint8"
            },
            {
              "internalType": "uint8",
              "name": "patch",
              "type": "uint8"
            }
          ],
          "indexed": true,
          "internalType": "struct ITREXImplementationAuthority.Version",
          "name": "version",
          "type": "tuple"
        }
      ],
      "name": "VersionUpdated",
      "type": "event"
    },
    {
      "inputs": [
        {
          "components": [
            {
              "internalType": "uint8",
              "name": "major",
              "type": "uint8"
            },
            {
              "internalType": "uint8",
              "name": "minor",
              "type": "uint8"
            },
            {
              "internalType": "uint8",
              "name": "patch",
              "type": "uint8"
            }
          ],
          "internalType": "struct ITREXImplementationAuthority.Version",
          "name": "_version",
          "type": "tuple"
        },
        {
          "components": [
            {
              "internalType": "address",
              "name": "tokenImplementation",
              "type": "address"
            },
            {
              "internalType": "address",
              "name": "ctrImplementation",
              "type": "address"
            },
            {
              "internalType": "address",
              "name": "irImplementation",
              "type": "address"
            },
            {
              "internalType": "address",
              "name": "irsImplementation",
              "type": "address"
            },
            {
              "internalType": "address",
              "name": "tirImplementation",
              "type": "address"
            },
            {
              "internalType": "address",
              "name": "mcImplementation",
              "type": "address"
            }
          ],
          "internalType": "struct ITREXImplementationAuthority.TREXContracts",
          "name": "_trex",
          "type": "tuple"
        }
      ],
      "name": "addAndUseTREXVersion",
      "outputs": [],
      "stateMutability": "nonpayable",
      "type": "function"
    },
    {
      "inputs": [
        {
          "components": [
            {
              "internalType": "uint8",
              "name": "major",
              "type": "uint8"
            },
            {
              "internalType": "uint8",
              "name": "minor",
              "type": "uint8"
            },
            {
              "internalType": "uint8",
              "name": "patch",
              "type": "uint8"
            }
          ],
          "internalType": "struct ITREXImplementationAuthority.Version",
          "name": "_version",
          "type": "tuple"
        },
        {
          "components": [
            {
              "internalType": "address",
              "name": "tokenImplementation",
              "type": "address"
            },
            {
              "internalType": "address",
              "name": "ctrImplementation",
              "type": "address"
            },
            {
              "internalType": "address",
              "name": "irImplementation",
              "type": "address"
            },
            {
              "internalType": "address",
              "name": "irsImplementation",
              "type": "address"
            },
            {
              "internalType": "address",
              "name": "tirImplementation",
              "type": "address"
            },
            {
              "internalType": "address",
              "name": "mcImplementation",
              "type": "address"
            }
          ],
          "internalType": "struct ITREXImplementationAuthority.TREXContracts",
          "name": "_trex",
          "type": "tuple"
        }
      ],
      "name": "addTREXVersion",
      "outputs": [],
      "stateMutability": "nonpayable",
      "type": "function"
    },
    {
      "inputs": [
        {
          "internalType": "address",
          "name": "_token",
          "type": "address"
        },
        {
          "internalType": "address",
          "name": "_newImplementationAuthority",
          "type": "address"
        }
      ],
      "name": "changeImplementationAuthority",
      "outputs": [],
      "stateMutability": "nonpayable",
      "type": "function"
    },
    {
      "inputs": [
        {
          "components": [
            {
              "internalType": "uint8",
              "name": "major",
              "type": "uint8"
            },
            {
              "internalType": "uint8",
              "name": "minor",
              "type": "uint8"
            },
            {
              "internalType": "uint8",
              "name": "patch",
              "type": "uint8"
            }
          ],
          "internalType": "struct ITREXImplementationAuthority.Version",
          "name": "_version",
          "type": "tuple"
        }
      ],
      "name": "fetchVersion",
      "outputs": [],
      "stateMutability": "nonpayable",
      "type": "function"
    },
    {
      "inputs": [],
      "name": "getCTRImplementation",
      "outputs": [
        {
          "internalType": "address",
          "name": "",
          "type": "address"
        }
      ],
      "stateMutability": "view",
      "type": "function"
    },
    {
      "inputs": [
        {
          "components": [
            {
              "internalType": "uint8",
              "name": "major",
              "type": "uint8"
            },
            {
              "internalType": "uint8",
              "name": "minor",
              "type": "uint8"
            },
            {
              "internalType": "uint8",
              "name": "patch",
              "type": "uint8"
            }
          ],
          "internalType": "struct ITREXImplementationAuthority.Version",
          "name": "_version",
          "type": "tuple"
        }
      ],
      "name": "getContracts",
      "outputs": [
        {
          "components": [
            {
              "internalType": "address",
              "name": "tokenImplementation",
              "type": "address"
            },
            {
              "internalType": "address",
              "name": "ctrImplementation",
              "type": "address"
            },
            {
              "internalType": "address",
              "name": "irImplementation",
              "type": "address"
            },
            {
              "internalType": "address",
              "name": "irsImplementation",
              "type": "address"
            },
            {
              "internalType": "address",
              "name": "tirImplementation",
              "type": "address"
            },
            {
              "internalType": "address",
              "name": "mcImplementation",
              "type": "address"
            }
          ],
          "internalType": "struct ITREXImplementationAuthority.TREXContracts",
          "name": "",
          "type": "tuple"
        }
      ],
      "stateMutability": "view",
      "type": "function"
    },
    {
      "inputs": [],
      "name": "getCurrentVersion",
      "outputs": [
        {
          "components": [
            {
              "internalType": "uint8",
              "name": "major",
              "type": "uint8"
            },
            {
              "internalType": "uint8",
              "name": "minor",
              "type": "uint8"
            },
            {
              "internalType": "uint8",
              "name": "patch",
              "type": "uint8"
            }
          ],
          "internalType": "struct ITREXImplementationAuthority.Version",
          "name": "",
          "type": "tuple"
        }
      ],
      "stateMutability": "view",
      "type": "function"
    },
    {
      "inputs": [],
      "name": "getIRImplementation",
      "outputs": [
        {
          "internalType": "address",
          "name": "",
          "type": "address"
        }
      ],
      "stateMutability": "view",
      "type": "function"
    },
    {
      "inputs": [],
      "name": "getIRSImplementation",
      "outputs": [
        {
          "internalType": "address",
          "name": "",
          "type": "address"
        }
      ],
      "stateMutability": "view",
      "type": "function"
    },
    {
      "inputs": [],
      "name": "getMCImplementation",
      "outputs": [
        {
          "internalType": "address",
          "name": "",
          "type": "address"
        }
      ],
      "stateMutability": "view",
      "type": "function"
    },
    {
      "inputs": [],
      "name": "getReferenceContract",
      "outputs": [
        {
          "internalType": "address",
          "name": "",
          "type": "address"
        }
      ],
      "stateMutability": "view",
      "type": "function"
    },
    {
      "inputs": [],
      "name": "getTIRImplementation",
      "outputs": [
        {
          "internalType": "address",
          "name": "",
          "type": "address"
        }
      ],
      "stateMutability": "view",
      "type": "function"
    },
    {
      "inputs": [],
      "name": "getTREXFactory",
      "outputs": [
        {
          "internalType": "address",
          "name": "",
          "type": "address"
        }
      ],
      "stateMutability": "view",
      "type": "function"
    },
    {
      "inputs": [],
      "name": "getTokenImplementation",
      "outputs": [
        {
          "internalType": "address",
          "name": "",
          "type": "address"
        }
      ],
      "stateMutability": "view",
      "type": "function"
    },
    {
      "inputs": [],
      "name": "isReferenceContract",
      "outputs": [
        {
          "internalType": "bool",
          "name": "",
          "type": "bool"
        }
      ],
      "stateMutability": "view",
      "type": "function"
    },
    {
      "inputs": [],
      "name": "owner",
      "outputs": [
        {
          "internalType": "address",
          "name": "",
          "type": "address"
        }
      ],
      "stateMutability": "view",
      "type": "function"
    },
    {
      "inputs": [],
      "name": "renounceOwnership",
      "outputs": [],
      "stateMutability": "nonpayable",
      "type": "function"
    },
    {
      "inputs": [
        {
          "internalType": "address",
          "name": "iaFactory",
          "type": "address"
        }
      ],
      "name": "setIAFactory",
      "outputs": [],
      "stateMutability": "nonpayable",
      "type": "function"
    },
    {
      "inputs": [
        {
          "internalType": "address",
          "name": "trexFactory",
          "type": "address"
        }
      ],
      "name": "setTREXFactory",
      "outputs": [],
      "stateMutability": "nonpayable",
      "type": "function"
    },
    {
      "inputs": [
        {
          "internalType": "address",
          "name": "newOwner",
          "type": "address"
        }
      ],
      "name": "transferOwnership",
      "outputs": [],
      "stateMutability": "nonpayable",
      "type": "function"
    },
    {
      "inputs": [
        {
          "components": [
            {
              "internalType": "uint8",
              "name": "major",
              "type": "uint8"
            },
            {
              "internalType": "uint8",
              "name": "minor",
              "type": "uint8"
            },
            {
              "internalType": "uint8",
              "name": "patch",
              "type": "uint8"
            }
          ],
          "internalType": "struct ITREXImplementationAuthority.Version",
          "name": "_version",
          "type": "tuple"
        }
      ],
      "name": "useTREXVersion",
      "outputs": [],
      "stateMutability": "nonpayable",
      "type": "function"
    }
  ],
  "bytecode": "0x60806040523480156200001157600080fd5b50604051620024b6380380620024b683398101604081905262000034916200019b565b33806200005b57604051631e4fbdf760e01b81526000600482015260240160405180910390fd5b62000066816200012e565b50600380546001600160a81b031916841515610100600160a81b03198116919091176101006001600160a01b0386811691820292909217909355600480546001600160a01b0319169185169190911790556040805191825260208201929092527f2a6aba4ff896a38777fb29a590abf5d340a4ba64314bcadf68be9c3ee92b485a910160405180910390a16040516001600160a01b038216907f5fb25b36f93b3d8443f7502abdc1157f581f15db724459ffb2800fce6132a00890600090a2505050620001eb565b600080546001600160a01b038381166001600160a01b0319831681178455604051919092169283917f8be0079c531659141344cd1fd0a4f28419497f9722a3daafe3b4186f6b6457e09190a35050565b80516001600160a01b03811681146200019657600080fd5b919050565b600080600060608486031215620001b157600080fd5b83518015158114620001c257600080fd5b9250620001d2602085016200017e565b9150620001e2604085016200017e565b90509250925092565b6122bb80620001fb6000396000f3fe608060405234801561001057600080fd5b50600436106101375760003560e01c80637f82a5e7116100b8578063cd24be221161007c578063cd24be2214610295578063cf49020e1461029d578063f2fde38b146102b0578063f38d2491146102c3578063fabec44a146102d6578063fedcc0521461035557600080fd5b80637f82a5e7146101e85780638da5cb5b146101fb5780639585548a1461020c5780639e3e7bb91461021f578063afce4bea1461022757600080fd5b80636df23789116100ff5780636df23789146101aa5780636ff6e83f146101bd578063709bc7f3146101c5578063715018a6146101cd57806371673bd0146101d557600080fd5b80630f3ca8ca1461013c5780631320a65a146101515780631ee9ce8b1461016c5780632c5d4f8e1461018c57806361f89825146101a2575b600080fd5b61014f61014a366004611d86565b61035d565b005b60035460ff1660405190151581526020015b60405180910390f35b610174610634565b6040516001600160a01b039091168152602001610163565b60035461010090046001600160a01b0316610174565b610174610696565b61014f6101b8366004611dbe565b6106f8565b610174610822565b610174610884565b61014f6108e3565b61014f6101e3366004611ddb565b6108f7565b61014f6101f6366004611e1c565b61090e565b6000546001600160a01b0316610174565b61014f61021a366004611ddb565b61153f565b6101746117cb565b61023a610235366004611d86565b61182d565b604051610163919081516001600160a01b03908116825260208084015182169083015260408084015182169083015260608084015182169083015260808084015182169083015260a092830151169181019190915260c00190565b6101746118e5565b61014f6102ab366004611dbe565b611963565b61014f6102be366004611dbe565b611a8b565b61014f6102d1366004611d86565b611ac9565b6103296040805160608101825260008082526020820181905291810191909152506040805160608101825260015460ff808216835261010082048116602084015262010000909104169181019190915290565b60408051825160ff90811682526020808501518216908301529282015190921690820152606001610163565b610174611c3f565b60035460ff16156103bf5760405162461bcd60e51b815260206004820152602160248201527f63616e6e6f742063616c6c206f6e207265666572656e636520636f6e747261636044820152601d60fa1b60648201526084015b60405180910390fd5b60006002816103db6103d636869003860186611e9b565b611ca1565b81526020810191909152604001600020546001600160a01b0316146104425760405162461bcd60e51b815260206004820152601760248201527f76657273696f6e206665746368656420616c726561647900000000000000000060448201526064016103b6565b61044a6118e5565b6001600160a01b031663afce4bea826040518263ffffffff1660e01b81526004016104759190611eef565b60c060405180830381865afa158015610492573d6000803e3d6000fd5b505050506040513d601f19601f820116820180604052508101906104b69190611f37565b600260006104cc6103d636869003860186611e9b565b815260208082019290925260409081016000908120845181546001600160a01b03199081166001600160a01b039283161783559486015160018301805487169183169190911790559285015160028083018054871692861692909217909155606086015160038301805487169186169190911790556080860151600483018054871691861691909117905560a090950151600590910180549094169216919091179091556105826103d636859003850185611e9b565b81526020019081526020016000206040516105eb919081546001600160a01b03908116825260018301548116602083015260028301548116604083015260038301548116606083015260048301548116608083015260059092015490911660a082015260c00190565b6040518091039020816040516106019190611ff0565b604051908190038120907f5846080f2085e3dfad8cb250efdba145f8982d2e81ba7f74478da7fab659322b90600090a350565b6040805160608101825260015460ff8082168352610100820481166020840152620100009091041691810191909152600090600290829061067490611ca1565b81526020810191909152604001600020600201546001600160a01b0316919050565b6040805160608101825260015460ff808216835261010082048116602084015262010000909104169181019190915260009060029082906106d690611ca1565b81526020810191909152604001600020600501546001600160a01b0316919050565b610700611cf1565b60035460ff1680156107845750306001600160a01b0316816001600160a01b0316632d5f11876040518163ffffffff1660e01b8152600401602060405180830381865afa158015610755573d6000803e3d6000fd5b505050506040513d601f19601f820116820180604052508101906107799190612037565b6001600160a01b0316145b6107d05760405162461bcd60e51b815260206004820181905260248201527f6f6e6c79207265666572656e636520636f6e74726163742063616e2063616c6c60448201526064016103b6565b60038054610100600160a81b0319166101006001600160a01b038416908102919091179091556040517ff068c7797c3b666af662a0e2f018804080dc37610a1b82b55006872b06d30ef590600090a250565b6040805160608101825260015460ff8082168352610100820481166020840152620100009091041691810191909152600090600290829061086290611ca1565b81526020810191909152604001600020600101546001600160a01b0316919050565b6040805160608101825260015460ff808216835261010082048116602084015262010000909104169181019190915260009060029082906108c490611ca1565b81526020810191909152604001600020546001600160a01b0316919050565b6108eb611cf1565b6108f56000611d1e565b565b610901828261153f565b61090a82611ac9565b5050565b6001600160a01b0382166109645760405162461bcd60e51b815260206004820152601f60248201527f696e76616c696420617267756d656e74202d207a65726f20616464726573730060448201526064016103b6565b6001600160a01b03811615801561097e575060035460ff16155b156109de5760405162461bcd60e51b815260206004820152602a60248201527f6f6e6c79207265666572656e636520636f6e74726163742063616e206465706c6044820152696f79206e65772049417360b01b60648201526084016103b6565b6000826001600160a01b031663134e18f46040518163ffffffff1660e01b8152600401602060405180830381865afa158015610a1e573d6000803e3d6000fd5b505050506040513d601f19601f82011682018060405250810190610a429190612037565b90506000836001600160a01b0316636290865d6040518163ffffffff1660e01b8152600401602060405180830381865afa158015610a84573d6000803e3d6000fd5b505050506040513d601f19601f82011682018060405250810190610aa89190612037565b90506000826001600160a01b031663f11abfd86040518163ffffffff1660e01b8152600401602060405180830381865afa158015610aea573d6000803e3d6000fd5b505050506040513d601f19601f82011682018060405250810190610b0e9190612037565b90506000836001600160a01b0316633b3e12f46040518163ffffffff1660e01b8152600401602060405180830381865afa158015610b50573d6000803e3d6000fd5b505050506040513d601f19601f82011682018060405250810190610b749190612037565b90506000846001600160a01b031663b4f3fcb76040518163ffffffff1660e01b8152600401602060405180830381865afa158015610bb6573d6000803e3d6000fd5b505050506040513d601f19601f82011682018060405250810190610bda9190612037565b9050336001600160a01b0316876001600160a01b0316638da5cb5b6040518163ffffffff1660e01b8152600401602060405180830381865afa158015610c24573d6000803e3d6000fd5b505050506040513d601f19601f82011682018060405250810190610c489190612037565b6001600160a01b0316141580610cd15750336001600160a01b0316856001600160a01b0316638da5cb5b6040518163ffffffff1660e01b8152600401602060405180830381865afa158015610ca1573d6000803e3d6000fd5b505050506040513d601f19601f82011682018060405250810190610cc59190612037565b6001600160a01b031614155b80610d4f5750336001600160a01b0316846001600160a01b0316638da5cb5b6040518163ffffffff1660e01b8152600401602060405180830381865afa158015610d1f573d6000803e3d6000fd5b505050506040513d601f19601f82011682018060405250810190610d439190612037565b6001600160a01b031614155b80610dcd5750336001600160a01b0316836001600160a01b0316638da5cb5b6040518163ffffffff1660e01b8152600401602060405180830381865afa158015610d9d573d6000803e3d6000fd5b505050506040513d601f19601f82011682018060405250810190610dc19190612037565b6001600160a01b031614155b80610e4b5750336001600160a01b0316826001600160a01b0316638da5cb5b6040518163ffffffff1660e01b8152600401602060405180830381865afa158015610e1b573d6000803e3d6000fd5b505050506040513d601f19601f82011682018060405250810190610e3f9190612037565b6001600160a01b031614155b80610ec95750336001600160a01b0316816001600160a01b0316638da5cb5b6040518163ffffffff1660e01b8152600401602060405180830381865afa158015610e99573d6000803e3d6000fd5b505050506040513d601f19601f82011682018060405250810190610ebd9190612037565b6001600160a01b031614155b15610f295760405162461bcd60e51b815260206004820152602a60248201527f63616c6c6572204e4f54206f776e6572206f6620616c6c20636f6e74726163746044820152691cc81a5b5c1858dd195960b21b60648201526084016103b6565b6001600160a01b038616610fb057600480546040516352f1431b60e01b81526001600160a01b038a8116938201939093529116906352f1431b906024016020604051808303816000875af1158015610f85573d6000803e3d6000fd5b505050506040513d601f19601f82011682018060405250810190610fa99190612037565b9550611259565b6040805160608101825260015460ff8082168352610100820481166020840152620100009091041691810191909152610fe890611ca1565b61104d876001600160a01b031663fabec44a6040518163ffffffff1660e01b8152600401606060405180830381865afa158015611029573d6000803e3d6000fd5b505050506040513d601f19601f820116820180604052508101906103d69190612054565b146110b55760405162461bcd60e51b815260206004820152603260248201527f76657273696f6e206f66206e65772049412068617320746f206265207468652060448201527173616d652061732063757272656e7420494160701b60648201526084016103b6565b856001600160a01b0316631320a65a6040518163ffffffff1660e01b8152600401602060405180830381865afa1580156110f3573d6000803e3d6000fd5b505050506040513d601f19601f82011682018060405250810190611117919061209c565b801561113c57506111266118e5565b6001600160a01b0316866001600160a01b031614155b156111895760405162461bcd60e51b815260206004820181905260248201527f6e6577204941206973204e4f54207265666572656e636520636f6e747261637460448201526064016103b6565b6004805460405163de87aeeb60e01b81526001600160a01b038981169382019390935291169063de87aeeb90602401602060405180830381865afa1580156111d5573d6000803e3d6000fd5b505050506040513d601f19601f820116820180604052508101906111f9919061209c565b15801561121f57506112096118e5565b6001600160a01b0316866001600160a01b031614155b156112595760405162461bcd60e51b815260206004820152600a602482015269696e76616c696420494160b01b60448201526064016103b6565b6040516392dd9d6560e01b81526001600160a01b0387811660048301528816906392dd9d6590602401600060405180830381600087803b15801561129c57600080fd5b505af11580156112b0573d6000803e3d6000fd5b50506040516392dd9d6560e01b81526001600160a01b038981166004830152881692506392dd9d659150602401600060405180830381600087803b1580156112f757600080fd5b505af115801561130b573d6000803e3d6000fd5b50506040516392dd9d6560e01b81526001600160a01b038981166004830152871692506392dd9d659150602401600060405180830381600087803b15801561135257600080fd5b505af1158015611366573d6000803e3d6000fd5b50506040516392dd9d6560e01b81526001600160a01b038981166004830152851692506392dd9d659150602401600060405180830381600087803b1580156113ad57600080fd5b505af11580156113c1573d6000803e3d6000fd5b50506040516392dd9d6560e01b81526001600160a01b038981166004830152841692506392dd9d659150602401600060405180830381600087803b15801561140857600080fd5b505af115801561141c573d6000803e3d6000fd5b50505050306001600160a01b0316836001600160a01b0316632d5f11876040518163ffffffff1660e01b8152600401602060405180830381865afa158015611468573d6000803e3d6000fd5b505050506040513d601f19601f8201168201806040525081019061148c9190612037565b6001600160a01b0316036114f6576040516392dd9d6560e01b81526001600160a01b0387811660048301528416906392dd9d6590602401600060405180830381600087803b1580156114dd57600080fd5b505af11580156114f1573d6000803e3d6000fd5b505050505b856001600160a01b0316876001600160a01b03167ff79ab4f8584958d3168dac16d1d96119f728316536f50639339b4202837051c860405160405180910390a350505050505050565b611547611cf1565b60035460ff166115aa5760405162461bcd60e51b815260206004820152602860248201527f4f4e4c59207265666572656e636520636f6e74726163742063616e206164642060448201526776657273696f6e7360c01b60648201526084016103b6565b60006002816115c16103d636879003870187611e9b565b81526020810191909152604001600020546001600160a01b0316146116215760405162461bcd60e51b815260206004820152601660248201527576657273696f6e20616c72656164792065786973747360501b60448201526064016103b6565b60006116336040830160208401611dbe565b6001600160a01b031614158015611663575060006116576060830160408401611dbe565b6001600160a01b031614155b80156116885750600061167c6080830160608401611dbe565b6001600160a01b031614155b80156116ad575060006116a160c0830160a08401611dbe565b6001600160a01b031614155b80156116d2575060006116c660a0830160808401611dbe565b6001600160a01b031614155b80156116f4575060006116e86020830183611dbe565b6001600160a01b031614155b6117405760405162461bcd60e51b815260206004820152601f60248201527f696e76616c696420617267756d656e74202d207a65726f20616464726573730060448201526064016103b6565b80600260006117576103d636879003870187611e9b565b8152602001908152602001600020818161177191906120de565b5050604051611781908290612184565b6040518091039020826040516117979190611ff0565b604051908190038120907faecad55510e8cbc2b82b73c5c6d78c169403cb719460198f517d41cf7700b71b90600090a35050565b6040805160608101825260015460ff8082168352610100820481166020840152620100009091041691810191909152600090600290829061180b90611ca1565b81526020810191909152604001600020600301546001600160a01b0316919050565b6040805160c081018252600080825260208201819052918101829052606081018290526080810182905260a0810191909152600260006118756103d636869003860186611e9b565b81526020808201929092526040908101600020815160c08101835281546001600160a01b039081168252600183015481169482019490945260028201548416928101929092526003810154831660608301526004810154831660808301526005015490911660a082015292915050565b6000600360019054906101000a90046001600160a01b03166001600160a01b0316632d5f11876040518163ffffffff1660e01b8152600401602060405180830381865afa15801561193a573d6000803e3d6000fd5b505050506040513d601f19601f8201168201806040525081019061195e9190612037565b905090565b61196b611cf1565b60035460ff1680156119f5575060035460408051632d5f118760e01b81529051309261010090046001600160a01b031691632d5f11879160048083019260209291908290030181865afa1580156119c6573d6000803e3d6000fd5b505050506040513d601f19601f820116820180604052508101906119ea9190612037565b6001600160a01b0316145b611a415760405162461bcd60e51b815260206004820181905260248201527f6f6e6c79207265666572656e636520636f6e74726163742063616e2063616c6c60448201526064016103b6565b600480546001600160a01b0319166001600160a01b0383169081179091556040517f5fb25b36f93b3d8443f7502abdc1157f581f15db724459ffb2800fce6132a00890600090a250565b611a93611cf1565b6001600160a01b038116611abd57604051631e4fbdf760e01b8152600060048201526024016103b6565b611ac681611d1e565b50565b611ad1611cf1565b6040805160608101825260015460ff8082168352610100820481166020840152620100009091041691810191909152611b0990611ca1565b611b1b6103d636849003840184611e9b565b03611b615760405162461bcd60e51b815260206004820152601660248201527576657273696f6e20616c726561647920696e2075736560501b60448201526064016103b6565b6000600281611b786103d636869003860186611e9b565b81526020810191909152604001600020546001600160a01b031603611bef5760405162461bcd60e51b815260206004820152602760248201527f696e76616c696420617267756d656e74202d206e6f6e206578697374696e67206044820152663b32b939b4b7b760c91b60648201526084016103b6565b806001611bfc8282612218565b5050604051611c0c908290611ff0565b604051908190038120907f0a46bc1766225d5a82bc50155575dc428902e93470e34ceaf7e0faae128fe0ab90600090a250565b6040805160608101825260015460ff80821683526101008204811660208401526201000090910416918101919091526000906002908290611c7f90611ca1565b81526020810191909152604001600020600401546001600160a01b0316919050565b805160208083015160409384015184516001600160f81b031960f895861b81168286015292851b83166021820152931b166022830152825180830360030181526023909201909252805191012090565b6000546001600160a01b031633146108f55760405163118cdaa760e01b81523360048201526024016103b6565b600080546001600160a01b038381166001600160a01b0319831681178455604051919092169283917f8be0079c531659141344cd1fd0a4f28419497f9722a3daafe3b4186f6b6457e09190a35050565b600060608284031215611d8057600080fd5b50919050565b600060608284031215611d9857600080fd5b611da28383611d6e565b9392505050565b6001600160a01b0381168114611ac657600080fd5b600060208284031215611dd057600080fd5b8135611da281611da9565b600080828403610120811215611df057600080fd5b611dfa8585611d6e565b925060c0605f1982011215611e0e57600080fd5b506060830190509250929050565b60008060408385031215611e2f57600080fd5b8235611e3a81611da9565b91506020830135611e4a81611da9565b809150509250929050565b6040516060810167ffffffffffffffff81118282101715611e8657634e487b7160e01b600052604160045260246000fd5b60405290565b60ff81168114611ac657600080fd5b600060608284031215611ead57600080fd5b611eb5611e55565b8235611ec081611e8c565b81526020830135611ed081611e8c565b60208201526040830135611ee381611e8c565b60408201529392505050565b606081018235611efe81611e8c565b60ff1682526020830135611f1181611e8c565b60ff1660208301526040830135611f2781611e8c565b60ff811660408401525092915050565b600060c08284031215611f4957600080fd5b60405160c0810181811067ffffffffffffffff82111715611f7a57634e487b7160e01b600052604160045260246000fd5b6040528251611f8881611da9565b81526020830151611f9881611da9565b60208201526040830151611fab81611da9565b60408201526060830151611fbe81611da9565b60608201526080830151611fd181611da9565b608082015260a0830151611fe481611da9565b60a08201529392505050565b60008235611ffd81611e8c565b60ff168252602083013561201081611e8c565b60ff166020830152604083013561202681611e8c565b60ff16604083015250606001919050565b60006020828403121561204957600080fd5b8151611da281611da9565b60006060828403121561206657600080fd5b61206e611e55565b825161207981611e8c565b8152602083015161208981611e8c565b60208201526040830151611ee381611e8c565b6000602082840312156120ae57600080fd5b81518015158114611da257600080fd5b80546001600160a01b0319166001600160a01b0392909216919091179055565b81356120e981611da9565b6120f381836120be565b50602082013561210281611da9565b61210f81600184016120be565b50604082013561211e81611da9565b61212b81600284016120be565b50606082013561213a81611da9565b61214781600384016120be565b50608082013561215681611da9565b61216381600484016120be565b5060a082013561217281611da9565b61217f81600584016120be565b505050565b6000823561219181611da9565b6001600160a01b0390811683526020840135906121ad82611da9565b90811660208401526040840135906121c482611da9565b90811660408401526060840135906121db82611da9565b90811660608401526080840135906121f282611da9565b908116608084015260a08401359061220982611da9565b1660a08301525060c001919050565b813561222381611e8c565b60ff8116905081548160ff198216178355602084013561224281611e8c565b61ff008160081b169050808361ffff19841617178455604085013561226681611e8c565b62ff00008160101b168462ffffff19851617831717855550505050505056fea2646970667358221220feb0abf768f44afe9ee86371e832732d915b9b980ced4c7e11234ef3b02e143264736f6c63430008180033",
  "linkReferences": {},
  "deployedLinkReferences": {}
}