{
  "_format": "hh-sol-artifact-1",
  "contractName": "TREXGateway",
  "sourceName": "contracts/erc3643/factory/TREXGateway.sol",
  "abi": [
    {
      "inputs": [
        {
          "internalType": "address",
          "name": "factory",
          "type": "address"
        },
        {
          "internalType": "bool",
          "name": "publicDeploymentStatus",
          "type": "bool"
        }
      ],
      "stateMutability": "nonpayable",
      "type": "constructor"
    },
    {
      "inputs": [
        {
          "internalType": "uint16",
          "name": "lengthLimit",
          "type": "uint16"
        }
      ],
      "name": "BatchMaxLengthExceeded",
      "type": "error"
    },
    {
      "inputs": [
        {
          "internalType": "address",
          "name": "deployer",
          "type": "address"
        }
      ],
      "name": "DeployerAlreadyExists",
      "type": "error"
    },
    {
      "inputs": [
        {
          "internalType": "address",
          "name": "deployer",
          "type": "address"
        }
      ],
      "name": "DeployerDoesNotExist",
      "type": "error"
    },
    {
      "inputs": [],
      "name": "DeploymentFeesAlreadyDisabled",
      "type": "error"
    },
    {
      "inputs": [],
      "name": "DeploymentFeesAlreadyEnabled",
      "type": "error"
    },
    {
      "inputs": [],
      "name": "DiscountOutOfRange",
      "type": "error"
    },
    {
      "inputs": [],
      "name": "OnlyAdminCall",
      "type": "error"
    },
    {
      "inputs": [],
      "name": "PublicCannotDeployOnBehalf",
      "type": "error"
    },
    {
      "inputs": [],
      "name": "PublicDeploymentAlreadyDisabled",
      "type": "error"
    },
    {
      "inputs": [],
      "name": "PublicDeploymentAlreadyEnabled",
      "type": "error"
    },
    {
      "inputs": [],
      "name": "PublicDeploymentsNotAllowed",
      "type": "error"
    },
    {
      "inputs": [],
      "name": "ZeroAddress",
      "type": "error"
    },
    {
      "anonymous": false,
      "inputs": [
        {
          "indexed": true,
          "internalType": "address",
          "name": "_agent",
          "type": "address"
        }
      ],
      "name": "AgentAdded",
      "type": "event"
    },
    {
      "anonymous": false,
      "inputs": [
        {
          "indexed": true,
          "internalType": "address",
          "name": "_agent",
          "type": "address"
        }
      ],
      "name": "AgentRemoved",
      "type": "event"
    },
    {
      "anonymous": false,
      "inputs": [
        {
          "indexed": true,
          "internalType": "address",
          "name": "deployer",
          "type": "address"
        }
      ],
      "name": "DeployerAdded",
      "type": "event"
    },
    {
      "anonymous": false,
      "inputs": [
        {
          "indexed": true,
          "internalType": "address",
          "name": "deployer",
          "type": "address"
        }
      ],
      "name": "DeployerRemoved",
      "type": "event"
    },
    {
      "anonymous": false,
      "inputs": [
        {
          "indexed": true,
          "internalType": "bool",
          "name": "isEnabled",
          "type": "bool"
        }
      ],
      "name": "DeploymentFeeEnabled",
      "type": "event"
    },
    {
      "anonymous": false,
      "inputs": [
        {
          "indexed": true,
          "internalType": "uint256",
          "name": "fee",
          "type": "uint256"
        },
        {
          "indexed": true,
          "internalType": "address",
          "name": "feeToken",
          "type": "address"
        },
        {
          "indexed": true,
          "internalType": "address",
          "name": "feeCollector",
          "type": "address"
        }
      ],
      "name": "DeploymentFeeSet",
      "type": "event"
    },
    {
      "anonymous": false,
      "inputs": [
        {
          "indexed": true,
          "internalType": "address",
          "name": "factory",
          "type": "address"
        }
      ],
      "name": "FactorySet",
      "type": "event"
    },
    {
      "anonymous": false,
      "inputs": [
        {
          "indexed": true,
          "internalType": "address",
          "name": "deployer",
          "type": "address"
        },
        {
          "indexed": false,
          "internalType": "uint16",
          "name": "discount",
          "type": "uint16"
        }
      ],
      "name": "FeeDiscountApplied",
      "type": "event"
    },
    {
      "anonymous": false,
      "inputs": [
        {
          "indexed": true,
          "internalType": "address",
          "name": "requester",
          "type": "address"
        },
        {
          "indexed": false,
          "internalType": "address",
          "name": "intendedOwner",
          "type": "address"
        },
        {
          "indexed": false,
          "internalType": "uint256",
          "name": "feeApplied",
          "type": "uint256"
        }
      ],
      "name": "GatewaySuiteDeploymentProcessed",
      "type": "event"
    },
    {
      "anonymous": false,
      "inputs": [
        {
          "indexed": true,
          "internalType": "address",
          "name": "previousOwner",
          "type": "address"
        },
        {
          "indexed": true,
          "internalType": "address",
          "name": "newOwner",
          "type": "address"
        }
      ],
      "name": "OwnershipTransferred",
      "type": "event"
    },
    {
      "anonymous": false,
      "inputs": [
        {
          "indexed": true,
          "internalType": "bool",
          "name": "publicDeploymentStatus",
          "type": "bool"
        }
      ],
      "name": "PublicDeploymentStatusSet",
      "type": "event"
    },
    {
      "inputs": [
        {
          "internalType": "address",
          "name": "_agent",
          "type": "address"
        }
      ],
      "name": "addAgent",
      "outputs": [],
      "stateMutability": "nonpayable",
      "type": "function"
    },
    {
      "inputs": [
        {
          "internalType": "address",
          "name": "deployer",
          "type": "address"
        }
      ],
      "name": "addDeployer",
      "outputs": [],
      "stateMutability": "nonpayable",
      "type": "function"
    },
    {
      "inputs": [
        {
          "internalType": "address",
          "name": "deployer",
          "type": "address"
        },
        {
          "internalType": "uint16",
          "name": "discount",
          "type": "uint16"
        }
      ],
      "name": "applyFeeDiscount",
      "outputs": [],
      "stateMutability": "nonpayable",
      "type": "function"
    },
    {
      "inputs": [
        {
          "internalType": "address[]",
          "name": "deployers",
          "type": "address[]"
        }
      ],
      "name": "batchAddDeployer",
      "outputs": [],
      "stateMutability": "nonpayable",
      "type": "function"
    },
    {
      "inputs": [
        {
          "internalType": "address[]",
          "name": "deployers",
          "type": "address[]"
        },
        {
          "internalType": "uint16[]",
          "name": "discounts",
          "type": "uint16[]"
        }
      ],
      "name": "batchApplyFeeDiscount",
      "outputs": [],
      "stateMutability": "nonpayable",
      "type": "function"
    },
    {
      "inputs": [
        {
          "components": [
            {
              "internalType": "address",
              "name": "owner",
              "type": "address"
            },
            {
              "internalType": "string",
              "name": "name",
              "type": "string"
            },
            {
              "internalType": "string",
              "name": "symbol",
              "type": "string"
            },
            {
              "internalType": "uint8",
              "name": "decimals",
              "type": "uint8"
            },
            {
              "internalType": "address",
              "name": "irs",
              "type": "address"
            },
            {
              "internalType": "address",
              "name": "ONCHAINID",
              "type": "address"
            },
            {
              "internalType": "address[]",
              "name": "irAgents",
              "type": "address[]"
            },
            {
              "internalType": "address[]",
              "name": "tokenAgents",
              "type": "address[]"
            },
            {
              "internalType": "address[]",
              "name": "complianceModules",
              "type": "address[]"
            },
            {
              "internalType": "bytes[]",
              "name": "complianceSettings",
              "type": "bytes[]"
            }
          ],
          "internalType": "struct ITREXFactory.TokenDetails[]",
          "name": "_tokenDetails",
          "type": "tuple[]"
        },
        {
          "components": [
            {
              "internalType": "uint256[]",
              "name": "claimTopics",
              "type": "uint256[]"
            },
            {
              "internalType": "address[]",
              "name": "issuers",
              "type": "address[]"
            },
            {
              "internalType": "uint256[][]",
              "name": "issuerClaims",
              "type": "uint256[][]"
            }
          ],
          "internalType": "struct ITREXFactory.ClaimDetails[]",
          "name": "_claimDetails",
          "type": "tuple[]"
        }
      ],
      "name": "batchDeployTREXSuite",
      "outputs": [],
      "stateMutability": "nonpayable",
      "type": "function"
    },
    {
      "inputs": [
        {
          "internalType": "address[]",
          "name": "deployers",
          "type": "address[]"
        }
      ],
      "name": "batchRemoveDeployer",
      "outputs": [],
      "stateMutability": "nonpayable",
      "type": "function"
    },
    {
      "inputs": [
        {
          "internalType": "address",
          "name": "deployer",
          "type": "address"
        }
      ],
      "name": "calculateFee",
      "outputs": [
        {
          "internalType": "uint256",
          "name": "",
          "type": "uint256"
        }
      ],
      "stateMutability": "view",
      "type": "function"
    },
    {
      "inputs": [
        {
          "components": [
            {
              "internalType": "address",
              "name": "owner",
              "type": "address"
            },
            {
              "internalType": "string",
              "name": "name",
              "type": "string"
            },
            {
              "internalType": "string",
              "name": "symbol",
              "type": "string"
            },
            {
              "internalType": "uint8",
              "name": "decimals",
              "type": "uint8"
            },
            {
              "internalType": "address",
              "name": "irs",
              "type": "address"
            },
            {
              "internalType": "address",
              "name": "ONCHAINID",
              "type": "address"
            },
            {
              "internalType": "address[]",
              "name": "irAgents",
              "type": "address[]"
            },
            {
              "internalType": "address[]",
              "name": "tokenAgents",
              "type": "address[]"
            },
            {
              "internalType": "address[]",
              "name": "complianceModules",
              "type": "address[]"
            },
            {
              "internalType": "bytes[]",
              "name": "complianceSettings",
              "type": "bytes[]"
            }
          ],
          "internalType": "struct ITREXFactory.TokenDetails",
          "name": "_tokenDetails",
          "type": "tuple"
        },
        {
          "components": [
            {
              "internalType": "uint256[]",
              "name": "claimTopics",
              "type": "uint256[]"
            },
            {
              "internalType": "address[]",
              "name": "issuers",
              "type": "address[]"
            },
            {
              "internalType": "uint256[][]",
              "name": "issuerClaims",
              "type": "uint256[][]"
            }
          ],
          "internalType": "struct ITREXFactory.ClaimDetails",
          "name": "_claimDetails",
          "type": "tuple"
        }
      ],
      "name": "deployTREXSuite",
      "outputs": [],
      "stateMutability": "nonpayable",
      "type": "function"
    },
    {
      "inputs": [
        {
          "internalType": "bool",
          "name": "_isEnabled",
          "type": "bool"
        }
      ],
      "name": "enableDeploymentFee",
      "outputs": [],
      "stateMutability": "nonpayable",
      "type": "function"
    },
    {
      "inputs": [],
      "name": "getDeploymentFee",
      "outputs": [
        {
          "components": [
            {
              "internalType": "uint256",
              "name": "fee",
              "type": "uint256"
            },
            {
              "internalType": "address",
              "name": "feeToken",
              "type": "address"
            },
            {
              "internalType": "address",
              "name": "feeCollector",
              "type": "address"
            }
          ],
          "internalType": "struct ITREXGateway.Fee",
          "name": "",
          "type": "tuple"
        }
      ],
      "stateMutability": "view",
      "type": "function"
    },
    {
      "inputs": [],
      "name": "getFactory",
      "outputs": [
        {
          "internalType": "address",
          "name": "",
          "type": "address"
        }
      ],
      "stateMutability": "view",
      "type": "function"
    },
    {
      "inputs": [],
      "name": "getPublicDeploymentStatus",
      "outputs": [
        {
          "internalType": "bool",
          "name": "",
          "type": "bool"
        }
      ],
      "stateMutability": "view",
      "type": "function"
    },
    {
      "inputs": [
        {
          "internalType": "address",
          "name": "_agent",
          "type": "address"
        }
      ],
      "name": "isAgent",
      "outputs": [
        {
          "internalType": "bool",
          "name": "",
          "type": "bool"
        }
      ],
      "stateMutability": "view",
      "type": "function"
    },
    {
      "inputs": [
        {
          "internalType": "address",
          "name": "deployer",
          "type": "address"
        }
      ],
      "name": "isDeployer",
      "outputs": [
        {
          "internalType": "bool",
          "name": "",
          "type": "bool"
        }
      ],
      "stateMutability": "view",
      "type": "function"
    },
    {
      "inputs": [],
      "name": "isDeploymentFeeEnabled",
      "outputs": [
        {
          "internalType": "bool",
          "name": "",
          "type": "bool"
        }
      ],
      "stateMutability": "view",
      "type": "function"
    },
    {
      "inputs": [],
      "name": "owner",
      "outputs": [
        {
          "internalType": "address",
          "name": "",
          "type": "address"
        }
      ],
      "stateMutability": "view",
      "type": "function"
    },
    {
      "inputs": [
        {
          "internalType": "address",
          "name": "_agent",
          "type": "address"
        }
      ],
      "name": "removeAgent",
      "outputs": [],
      "stateMutability": "nonpayable",
      "type": "function"
    },
    {
      "inputs": [
        {
          "internalType": "address",
          "name": "deployer",
          "type": "address"
        }
      ],
      "name": "removeDeployer",
      "outputs": [],
      "stateMutability": "nonpayable",
      "type": "function"
    },
    {
      "inputs": [],
      "name": "renounceOwnership",
      "outputs": [],
      "stateMutability": "nonpayable",
      "type": "function"
    },
    {
      "inputs": [
        {
          "internalType": "uint256",
          "name": "_fee",
          "type": "uint256"
        },
        {
          "internalType": "address",
          "name": "_feeToken",
          "type": "address"
        },
        {
          "internalType": "address",
          "name": "_feeCollector",
          "type": "address"
        }
      ],
      "name": "setDeploymentFee",
      "outputs": [],
      "stateMutability": "nonpayable",
      "type": "function"
    },
    {
      "inputs": [
        {
          "internalType": "address",
          "name": "factory",
          "type": "address"
        }
      ],
      "name": "setFactory",
      "outputs": [],
      "stateMutability": "nonpayable",
      "type": "function"
    },
    {
      "inputs": [
        {
          "internalType": "bool",
          "name": "_isEnabled",
          "type": "bool"
        }
      ],
      "name": "setPublicDeploymentStatus",
      "outputs": [],
      "stateMutability": "nonpayable",
      "type": "function"
    },
    {
      "inputs": [
        {
          "internalType": "address",
          "name": "_newOwner",
          "type": "address"
        }
      ],
      "name": "transferFactoryOwnership",
      "outputs": [],
      "stateMutability": "nonpayable",
      "type": "function"
    },
    {
      "inputs": [
        {
          "internalType": "address",
          "name": "newOwner",
          "type": "address"
        }
      ],
      "name": "transferOwnership",
      "outputs": [],
      "stateMutability": "nonpayable",
      "type": "function"
    }
  ],
  "bytecode": "0x60806040523480156200001157600080fd5b506040516200252c3803806200252c833981016040819052620000349162000116565b6200003f33620000c6565b600280546001600160a01b0384166001600160a81b03199091168117600160a01b84151502179091556040517f1edf3afd4ac789736e00d216cd88be164ddcef26a6eedcc30cdb0cb62f3741b190600090a2604051811515907ff8be33baa430c4b62d2c9d79ab319d10cc41755a1fb65f85e64ca0632c29d0a490600090a2505062000164565b600080546001600160a01b038381166001600160a01b0319831681178455604051919092169283917f8be0079c531659141344cd1fd0a4f28419497f9722a3daafe3b4186f6b6457e09190a35050565b600080604083850312156200012a57600080fd5b82516001600160a01b03811681146200014257600080fd5b602084015190925080151581146200015957600080fd5b809150509250929050565b6123b880620001746000396000f3fe608060405234801561001057600080fd5b50600436106101725760003560e01c806384e79842116100de578063a264f2bd11610097578063e65811ff11610071578063e65811ff14610398578063eca465c4146103ab578063f2fde38b146103be578063f315df86146103d157600080fd5b8063a264f2bd14610360578063bfc2f10b14610373578063c8eebfcc1461038557600080fd5b806384e79842146102de578063880f4039146102f157806388cc58e4146103045780638da5cb5b1461032957806397a6278e1461033a5780639c5c5ce71461034d57600080fd5b806350c358a41161013057806350c358a4146102775780635bb478081461028a5780635d46c2831461029d578063715018a6146102b0578063730b86a9146102b857806375e14cff146102cb57600080fd5b806265939e146101775780631ffbb0641461018c5780632782035e146101b4578063465f5eb8146101c757806346c549cc146101e8578063477068511461026c575b600080fd5b61018a610185366004611767565b6103e4565b005b61019f61019a3660046117c4565b610589565b60405190151581526020015b60405180910390f35b61018a6101c23660046117df565b61059c565b6101da6101d53660046117c4565b610776565b6040519081526020016101ab565b6102396040805160608101825260008082526020820181905291810191909152506040805160608101825260035481526004546001600160a01b039081166020830152600554169181019190915290565b60408051825181526020808401516001600160a01b039081169183019190915292820151909216908201526060016101ab565b60065460ff1661019f565b61019f6102853660046117c4565b6107bd565b61018a6102983660046117c4565b6107db565b61018a6102ab36600461184a565b610854565b61018a6108fd565b61018a6102c6366004611df6565b610911565b61018a6102d9366004611edb565b610987565b61018a6102ec3660046117c4565b610a4f565b61018a6102ff3660046117c4565b610aef565b6002546001600160a01b03165b6040516001600160a01b0390911681526020016101ab565b6000546001600160a01b0316610311565b61018a6103483660046117c4565b610bac565b61018a61035b3660046117c4565b610c4c565b61018a61036e366004611f1c565b610caf565b600254600160a01b900460ff1661019f565b61018a610393366004611f39565b610d60565b61018a6103a6366004611767565b610fab565b61018a6103b9366004611f1c565b61113b565b61018a6103cc3660046117c4565b61120c565b61018a6103df3660046117c4565b611285565b6103ed33610589565b15801561040557506000546001600160a01b03163314155b1561042357604051631859551f60e31b815260040160405180910390fd5b6101f481111561044f57604051632789f90560e11b81526101f460048201526024015b60405180910390fd5b60005b818110156105845761048483838381811061046f5761046f611f92565b905060200201602081019061028591906117c4565b6104d45782828281811061049a5761049a611f92565b90506020020160208101906104af91906117c4565b604051634e02340f60e01b81526001600160a01b039091166004820152602401610446565b600760008484848181106104ea576104ea611f92565b90506020020160208101906104ff91906117c4565b6001600160a01b031681526020810191909152604001600020805460ff1916905582828281811061053257610532611f92565b905060200201602081019061054791906117c4565b6001600160a01b03167ffdb22628e87f888d060acc53d048a6a8400a5024f81f9dcb0606e723f238864a60405160405180910390a2600101610452565b505050565b600061059660018361133e565b92915050565b6105a533610589565b1580156105bd57506000546001600160a01b03163314155b156105db57604051631859551f60e31b815260040160405180910390fd5b6101f483111561060257604051632789f90560e11b81526101f46004820152602401610446565b60005b8381101561076f5761271083838381811061062257610622611f92565b90506020020160208101906106379190611fa8565b61ffff16111561065a5760405163eb2b61a560e01b815260040160405180910390fd5b82828281811061066c5761066c611f92565b90506020020160208101906106819190611fa8565b6008600087878581811061069757610697611f92565b90506020020160208101906106ac91906117c4565b6001600160a01b031681526020810191909152604001600020805461ffff191661ffff929092169190911790558484828181106106eb576106eb611f92565b905060200201602081019061070091906117c4565b6001600160a01b03167fd254de1c4bdaafc52898e46f43ed993ee35724d55a0df75ebcb55f9f6c470dab84848481811061073c5761073c611f92565b90506020020160208101906107519190611fa8565b60405161ffff909116815260200160405180910390a2600101610605565b5050505050565b6003546001600160a01b0382166000908152600860205260408120549091612710916107a6919061ffff16611fd9565b6107b09190611ff0565b6003546105969190612012565b6001600160a01b031660009081526007602052604090205460ff1690565b6107e36113c1565b6001600160a01b03811661080a5760405163d92e233d60e01b815260040160405180910390fd5b600280546001600160a01b0319166001600160a01b0383169081179091556040517f1edf3afd4ac789736e00d216cd88be164ddcef26a6eedcc30cdb0cb62f3741b190600090a250565b61085c6113c1565b6001600160a01b038216158061087957506001600160a01b038116155b156108975760405163d92e233d60e01b815260040160405180910390fd5b6003839055600480546001600160a01b03199081166001600160a01b038581169182179093556005805490921692841692831790915560405185907f62aa79f6e449920637ad5310ea6ef9c67a32aaa6a8b98cd6814452daf11213a390600090a4505050565b6109056113c1565b61090f600061141b565b565b60058251111561093757604051632789f90560e11b815260056004820152602401610446565b60005b82518110156105845761097f83828151811061095857610958611f92565b602002602001015183838151811061097257610972611f92565b6020026020010151610d60565b60010161093a565b61099033610589565b1580156109a857506000546001600160a01b03163314155b156109c657604051631859551f60e31b815260040160405180910390fd5b6127108161ffff1611156109ed5760405163eb2b61a560e01b815260040160405180910390fd5b6001600160a01b038216600081815260086020908152604091829020805461ffff191661ffff861690811790915591519182527fd254de1c4bdaafc52898e46f43ed993ee35724d55a0df75ebcb55f9f6c470dab910160405180910390a25050565b610a576113c1565b6001600160a01b038116610aad5760405162461bcd60e51b815260206004820152601f60248201527f696e76616c696420617267756d656e74202d207a65726f2061646472657373006044820152606401610446565b610ab860018261146b565b6040516001600160a01b038216907ff68e73cec97f2d70aa641fb26e87a4383686e2efacb648f2165aeb02ac562ec590600090a250565b610af833610589565b158015610b1057506000546001600160a01b03163314155b15610b2e57604051631859551f60e31b815260040160405180910390fd5b610b37816107bd565b15610b60576040516375c2ceb960e11b81526001600160a01b0382166004820152602401610446565b6001600160a01b038116600081815260076020526040808220805460ff19166001179055517f861a21548a3ee34d896ccac3668a9d65030aaf2cb7367a2ed13608014016a0329190a250565b610bb46113c1565b6001600160a01b038116610c0a5760405162461bcd60e51b815260206004820152601f60248201527f696e76616c696420617267756d656e74202d207a65726f2061646472657373006044820152606401610446565b610c156001826114e7565b6040516001600160a01b038216907fed9c8ad8d5a0a66898ea49d2956929c93ae2e8bd50281b2ed897c5d1a6737e0b90600090a250565b610c546113c1565b60025460405163f2fde38b60e01b81526001600160a01b0383811660048301529091169063f2fde38b90602401600060405180830381600087803b158015610c9b57600080fd5b505af115801561076f573d6000803e3d6000fd5b610cb76113c1565b60065460ff161515811515148015610cd157506001811515145b15610cef576040516360d38b9560e01b815260040160405180910390fd5b60065460ff161515811515148015610d05575080155b15610d23576040516398e8f30360e01b815260040160405180910390fd5b6006805460ff19168215159081179091556040517f576845931000b1b98d2173829911e0db5a788158585b3da38572ec01552217d590600090a250565b600254600160a01b900460ff16158015610d805750610d7e336107bd565b155b15610d9e57604051632deadb8b60e21b815260040160405180910390fd5b600254600160a01b900460ff1615156001148015610dc6575081516001600160a01b03163314155b8015610dd85750610dd6336107bd565b155b15610df6576040516318f44adb60e01b815260040160405180910390fd5b60065460009060ff161515600103610ec65760035415801590610e2f57503360009081526008602052604090205461271061ffff909116105b15610ec657610e3d33610776565b600480546005546040516323b872dd60e01b815233938101939093526001600160a01b0390811660248401526044830184905292935091909116906323b872dd906064016020604051808303816000875af1158015610ea0573d6000803e3d6000fd5b505050506040513d601f19601f82011682018060405250810190610ec49190612025565b505b6000610ed58460000151611569565b602080860151604051610ee9939201612066565b60408051601f198184030181529082905260025463cf753d3760e01b83529092506001600160a01b03169063cf753d3790610f2c90849088908890600401612225565b600060405180830381600087803b158015610f4657600080fd5b505af1158015610f5a573d6000803e3d6000fd5b50508551604080516001600160a01b039092168252602082018690523393507f3ddb07c2df247d32c71cd94e46f101dd4a4bcd5ce07afc925673aa63ba24960e92500160405180910390a250505050565b610fb433610589565b158015610fcc57506000546001600160a01b03163314155b15610fea57604051631859551f60e31b815260040160405180910390fd5b6101f481111561101157604051632789f90560e11b81526101f46004820152602401610446565b60005b818110156105845761103183838381811061046f5761046f611f92565b156110825782828281811061104857611048611f92565b905060200201602081019061105d91906117c4565b6040516375c2ceb960e11b81526001600160a01b039091166004820152602401610446565b60016007600085858581811061109a5761109a611f92565b90506020020160208101906110af91906117c4565b6001600160a01b031681526020810191909152604001600020805460ff19169115159190911790558282828181106110e9576110e9611f92565b90506020020160208101906110fe91906117c4565b6001600160a01b03167f861a21548a3ee34d896ccac3668a9d65030aaf2cb7367a2ed13608014016a03260405160405180910390a2600101611014565b6111436113c1565b600260149054906101000a900460ff16151581151514801561116757506001811515145b1561118557604051634cc2b9b760e01b815260040160405180910390fd5b600260149054906101000a900460ff1615158115151480156111a5575080155b156111c35760405163593cdd5360e11b815260040160405180910390fd5b6002805460ff60a01b1916600160a01b831515908102919091179091556040517ff8be33baa430c4b62d2c9d79ab319d10cc41755a1fb65f85e64ca0632c29d0a490600090a250565b6112146113c1565b6001600160a01b0381166112795760405162461bcd60e51b815260206004820152602660248201527f4f776e61626c653a206e6577206f776e657220697320746865207a65726f206160448201526564647265737360d01b6064820152608401610446565b6112828161141b565b50565b61128e33610589565b1580156112a657506000546001600160a01b03163314155b156112c457604051631859551f60e31b815260040160405180910390fd5b6112cd816107bd565b6112f557604051634e02340f60e01b81526001600160a01b0382166004820152602401610446565b6001600160a01b038116600081815260076020526040808220805460ff19169055517ffdb22628e87f888d060acc53d048a6a8400a5024f81f9dcb0606e723f238864a9190a250565b60006001600160a01b0382166113a15760405162461bcd60e51b815260206004820152602260248201527f526f6c65733a206163636f756e7420697320746865207a65726f206164647265604482015261737360f01b6064820152608401610446565b506001600160a01b03166000908152602091909152604090205460ff1690565b6000546001600160a01b0316331461090f5760405162461bcd60e51b815260206004820181905260248201527f4f776e61626c653a2063616c6c6572206973206e6f7420746865206f776e65726044820152606401610446565b600080546001600160a01b038381166001600160a01b0319831681178455604051919092169283917f8be0079c531659141344cd1fd0a4f28419497f9722a3daafe3b4186f6b6457e09190a35050565b611475828261133e565b156114c25760405162461bcd60e51b815260206004820152601f60248201527f526f6c65733a206163636f756e7420616c72656164792068617320726f6c65006044820152606401610446565b6001600160a01b0316600090815260209190915260409020805460ff19166001179055565b6114f1828261133e565b6115475760405162461bcd60e51b815260206004820152602160248201527f526f6c65733a206163636f756e7420646f6573206e6f74206861766520726f6c6044820152606560f81b6064820152608401610446565b6001600160a01b0316600090815260209190915260409020805460ff19169055565b60606105966001600160a01b038316601460606000611589836002611fd9565b611594906002612358565b6001600160401b038111156115ab576115ab611886565b6040519080825280601f01601f1916602001820160405280156115d5576020820181803683370190505b509050600360fc1b816000815181106115f0576115f0611f92565b60200101906001600160f81b031916908160001a905350600f60fb1b8160018151811061161f5761161f611f92565b60200101906001600160f81b031916908160001a9053506000611643846002611fd9565b61164e906001612358565b90505b60018111156116c6576f181899199a1a9b1b9c1cb0b131b232b360811b85600f166010811061168257611682611f92565b1a60f81b82828151811061169857611698611f92565b60200101906001600160f81b031916908160001a90535060049490941c936116bf8161236b565b9050611651565b5083156117155760405162461bcd60e51b815260206004820181905260248201527f537472696e67733a20686578206c656e67746820696e73756666696369656e746044820152606401610446565b9392505050565b60008083601f84011261172e57600080fd5b5081356001600160401b0381111561174557600080fd5b6020830191508360208260051b850101111561176057600080fd5b9250929050565b6000806020838503121561177a57600080fd5b82356001600160401b0381111561179057600080fd5b61179c8582860161171c565b90969095509350505050565b80356001600160a01b03811681146117bf57600080fd5b919050565b6000602082840312156117d657600080fd5b611715826117a8565b600080600080604085870312156117f557600080fd5b84356001600160401b038082111561180c57600080fd5b6118188883890161171c565b9096509450602087013591508082111561183157600080fd5b5061183e8782880161171c565b95989497509550505050565b60008060006060848603121561185f57600080fd5b8335925061186f602085016117a8565b915061187d604085016117a8565b90509250925092565b634e487b7160e01b600052604160045260246000fd5b60405161014081016001600160401b03811182821017156118bf576118bf611886565b60405290565b604051606081016001600160401b03811182821017156118bf576118bf611886565b604051601f8201601f191681016001600160401b038111828210171561190f5761190f611886565b604052919050565b60006001600160401b0382111561193057611930611886565b5060051b60200190565b60006001600160401b0383111561195357611953611886565b611966601f8401601f19166020016118e7565b905082815283838301111561197a57600080fd5b828260208301376000602084830101529392505050565b600082601f8301126119a257600080fd5b6117158383356020850161193a565b803560ff811681146117bf57600080fd5b600082601f8301126119d357600080fd5b813560206119e86119e383611917565b6118e7565b8083825260208201915060208460051b870101935086841115611a0a57600080fd5b602086015b84811015611a2d57611a20816117a8565b8352918301918301611a0f565b509695505050505050565b600082601f830112611a4957600080fd5b81356020611a596119e383611917565b82815260059290921b84018101918181019086841115611a7857600080fd5b8286015b84811015611a2d5780356001600160401b03811115611a9b5760008081fd5b8701603f81018913611aad5760008081fd5b611abe89868301356040840161193a565b845250918301918301611a7c565b60006101408284031215611adf57600080fd5b611ae761189c565b9050611af2826117a8565b815260208201356001600160401b0380821115611b0e57600080fd5b611b1a85838601611991565b60208401526040840135915080821115611b3357600080fd5b611b3f85838601611991565b6040840152611b50606085016119b1565b6060840152611b61608085016117a8565b6080840152611b7260a085016117a8565b60a084015260c0840135915080821115611b8b57600080fd5b611b97858386016119c2565b60c084015260e0840135915080821115611bb057600080fd5b611bbc858386016119c2565b60e084015261010091508184013581811115611bd757600080fd5b611be3868287016119c2565b838501525061012091508184013581811115611bfe57600080fd5b611c0a86828701611a38565b8385015250505092915050565b600082601f830112611c2857600080fd5b81356020611c386119e383611917565b8083825260208201915060208460051b870101935086841115611c5a57600080fd5b602086015b84811015611a2d5780358352918301918301611c5f565b600060608284031215611c8857600080fd5b611c906118c5565b905081356001600160401b0380821115611ca957600080fd5b611cb585838601611c17565b8352602091508184013581811115611ccc57600080fd5b611cd8868287016119c2565b8385015250604084013581811115611cef57600080fd5b8401601f81018613611d0057600080fd5b8035611d0e6119e382611917565b81815260059190911b82018401908481019088831115611d2d57600080fd5b8584015b83811015611d6557803586811115611d495760008081fd5b611d578b8983890101611c17565b845250918601918601611d31565b50604087015250939695505050505050565b600082601f830112611d8857600080fd5b81356020611d986119e383611917565b82815260059290921b84018101918181019086841115611db757600080fd5b8286015b84811015611a2d5780356001600160401b03811115611dda5760008081fd5b611de88986838b0101611c76565b845250918301918301611dbb565b60008060408385031215611e0957600080fd5b82356001600160401b0380821115611e2057600080fd5b818501915085601f830112611e3457600080fd5b81356020611e446119e383611917565b82815260059290921b84018101918181019089841115611e6357600080fd5b8286015b84811015611e9b57803586811115611e7f5760008081fd5b611e8d8c86838b0101611acc565b845250918301918301611e67565b5096505086013592505080821115611eb257600080fd5b50611ebf85828601611d77565b9150509250929050565b803561ffff811681146117bf57600080fd5b60008060408385031215611eee57600080fd5b611ef7836117a8565b9150611f0560208401611ec9565b90509250929050565b801515811461128257600080fd5b600060208284031215611f2e57600080fd5b813561171581611f0e565b60008060408385031215611f4c57600080fd5b82356001600160401b0380821115611f6357600080fd5b611f6f86838701611acc565b93506020850135915080821115611f8557600080fd5b50611ebf85828601611c76565b634e487b7160e01b600052603260045260246000fd5b600060208284031215611fba57600080fd5b61171582611ec9565b634e487b7160e01b600052601160045260246000fd5b808202811582820484141761059657610596611fc3565b60008261200d57634e487b7160e01b600052601260045260246000fd5b500490565b8181038181111561059657610596611fc3565b60006020828403121561203757600080fd5b815161171581611f0e565b60005b8381101561205d578181015183820152602001612045565b50506000910152565b60008351612078818460208801612042565b83519083019061208c818360208801612042565b01949350505050565b600081518084526120ad816020860160208601612042565b601f01601f19169290920160200192915050565b60008151808452602080850194506020840160005b838110156120fb5781516001600160a01b0316875295820195908201906001016120d6565b509495945050505050565b60008282518085526020808601955060208260051b8401016020860160005b8481101561215357601f19868403018952612141838351612095565b98840198925090830190600101612125565b5090979650505050505050565b60008151808452602080850194506020840160005b838110156120fb57815187529582019590820190600101612175565b60008151606084526121a66060850182612160565b9050602080840151858303828701526121bf83826120c1565b925050604084015185830360408701528281518085528385019150838160051b860101848401935060005b8281101561221857601f19878303018452612206828651612160565b948601949386019391506001016121ea565b5098975050505050505050565b6060815260006122386060830186612095565b828103602084015284516001600160a01b03168152610140602086015181602084015261226782840182612095565b915050604086015182820360408401526122818282612095565b9150506060860151612298606084018260ff169052565b5060808601516122b360808401826001600160a01b03169052565b5060a08601516122ce60a08401826001600160a01b03169052565b5060c086015182820360c08401526122e682826120c1565b91505060e086015182820360e084015261230082826120c1565b915050610100808701518383038285015261231b83826120c1565b9250505061012080870151838303828501526123378382612106565b9350505050828103604084015261234e8185612191565b9695505050505050565b8082018082111561059657610596611fc3565b60008161237a5761237a611fc3565b50600019019056fea26469706673582212207c3b4b7be778ff1c1e8188737a1b2e3c5fcc26eff941d05a30b2249b07a6470564736f6c63430008180033",
  "linkReferences": {},
  "deployedLinkReferences": {}
}