{
  "_format": "hh-sol-artifact-1",
  "contractName": "TrustedIssuersRegistry",
  "sourceName": "contracts/erc3643/registry/implementation/TrustedIssuersRegistry.sol",
  "abi": [
    {
      "anonymous": false,
      "inputs": [
        {
          "indexed": true,
          "internalType": "contract IClaimIssuer",
          "name": "trustedIssuer",
          "type": "address"
        },
        {
          "indexed": false,
          "internalType": "uint256[]",
          "name": "claimTopics",
          "type": "uint256[]"
        }
      ],
      "name": "ClaimTopicsUpdated",
      "type": "event"
    },
    {
      "anonymous": false,
      "inputs": [
        {
          "indexed": false,
          "internalType": "uint8",
          "name": "version",
          "type": "uint8"
        }
      ],
      "name": "Initialized",
      "type": "event"
    },
    {
      "anonymous": false,
      "inputs": [
        {
          "indexed": true,
          "internalType": "address",
          "name": "previousOwner",
          "type": "address"
        },
        {
          "indexed": true,
          "internalType": "address",
          "name": "newOwner",
          "type": "address"
        }
      ],
      "name": "OwnershipTransferred",
      "type": "event"
    },
    {
      "anonymous": false,
      "inputs": [
        {
          "indexed": true,
          "internalType": "contract IClaimIssuer",
          "name": "trustedIssuer",
          "type": "address"
        },
        {
          "indexed": false,
          "internalType": "uint256[]",
          "name": "claimTopics",
          "type": "uint256[]"
        }
      ],
      "name": "TrustedIssuerAdded",
      "type": "event"
    },
    {
      "anonymous": false,
      "inputs": [
        {
          "indexed": true,
          "internalType": "contract IClaimIssuer",
          "name": "trustedIssuer",
          "type": "address"
        }
      ],
      "name": "TrustedIssuerRemoved",
      "type": "event"
    },
    {
      "inputs": [
        {
          "internalType": "contract IClaimIssuer",
          "name": "_trustedIssuer",
          "type": "address"
        },
        {
          "internalType": "uint256[]",
          "name": "_claimTopics",
          "type": "uint256[]"
        }
      ],
      "name": "addTrustedIssuer",
      "outputs": [],
      "stateMutability": "nonpayable",
      "type": "function"
    },
    {
      "inputs": [
        {
          "internalType": "contract IClaimIssuer",
          "name": "_trustedIssuer",
          "type": "address"
        }
      ],
      "name": "getTrustedIssuerClaimTopics",
      "outputs": [
        {
          "internalType": "uint256[]",
          "name": "",
          "type": "uint256[]"
        }
      ],
      "stateMutability": "view",
      "type": "function"
    },
    {
      "inputs": [],
      "name": "getTrustedIssuers",
      "outputs": [
        {
          "internalType": "contract IClaimIssuer[]",
          "name": "",
          "type": "address[]"
        }
      ],
      "stateMutability": "view",
      "type": "function"
    },
    {
      "inputs": [
        {
          "internalType": "uint256",
          "name": "claimTopic",
          "type": "uint256"
        }
      ],
      "name": "getTrustedIssuersForClaimTopic",
      "outputs": [
        {
          "internalType": "contract IClaimIssuer[]",
          "name": "",
          "type": "address[]"
        }
      ],
      "stateMutability": "view",
      "type": "function"
    },
    {
      "inputs": [
        {
          "internalType": "address",
          "name": "_issuer",
          "type": "address"
        },
        {
          "internalType": "uint256",
          "name": "_claimTopic",
          "type": "uint256"
        }
      ],
      "name": "hasClaimTopic",
      "outputs": [
        {
          "internalType": "bool",
          "name": "",
          "type": "bool"
        }
      ],
      "stateMutability": "view",
      "type": "function"
    },
    {
      "inputs": [],
      "name": "init",
      "outputs": [],
      "stateMutability": "nonpayable",
      "type": "function"
    },
    {
      "inputs": [
        {
          "internalType": "address",
          "name": "_issuer",
          "type": "address"
        }
      ],
      "name": "isTrustedIssuer",
      "outputs": [
        {
          "internalType": "bool",
          "name": "",
          "type": "bool"
        }
      ],
      "stateMutability": "view",
      "type": "function"
    },
    {
      "inputs": [],
      "name": "owner",
      "outputs": [
        {
          "internalType": "address",
          "name": "",
          "type": "address"
        }
      ],
      "stateMutability": "view",
      "type": "function"
    },
    {
      "inputs": [
        {
          "internalType": "contract IClaimIssuer",
          "name": "_trustedIssuer",
          "type": "address"
        }
      ],
      "name": "removeTrustedIssuer",
      "outputs": [],
      "stateMutability": "nonpayable",
      "type": "function"
    },
    {
      "inputs": [],
      "name": "renounceOwnership",
      "outputs": [],
      "stateMutability": "nonpayable",
      "type": "function"
    },
    {
      "inputs": [
        {
          "internalType": "address",
          "name": "newOwner",
          "type": "address"
        }
      ],
      "name": "transferOwnership",
      "outputs": [],
      "stateMutability": "nonpayable",
      "type": "function"
    },
    {
      "inputs": [
        {
          "internalType": "contract IClaimIssuer",
          "name": "_trustedIssuer",
          "type": "address"
        },
        {
          "internalType": "uint256[]",
          "name": "_claimTopics",
          "type": "uint256[]"
        }
      ],
      "name": "updateIssuerClaimTopics",
      "outputs": [],
      "stateMutability": "nonpayable",
      "type": "function"
    }
  ],
  "bytecode": "0x608060405234801561001057600080fd5b506113e2806100206000396000f3fe608060405234801561001057600080fd5b50600436106100b45760003560e01c8063b93d28eb11610071578063b93d28eb1461014c578063c28fb2781461015f578063d9dd24c51461017f578063e1c7392a14610187578063ef2ed1a41461018f578063f2fde38b146101a257600080fd5b806304bc7e84146100b957806334a89987146100ce57806352c111d1146100f6578063715018a6146101165780638da5cb5b1461011e5780639f63ea9814610139575b600080fd5b6100cc6100c73660046110e9565b6101b5565b005b6100e16100dc366004611171565b610534565b60405190151581526020015b60405180910390f35b61010961010436600461119d565b6105ea565b6040516100ed91906111b6565b6100cc610656565b6033546040516001600160a01b0390911681526020016100ed565b6100cc6101473660046110e9565b61066a565b6100cc61015a366004611203565b6108e9565b61017261016d366004611203565b610c6b565b6040516100ed9190611227565b610109610d3d565b6100cc610d9f565b6100e161019d366004611203565b610eb0565b6100cc6101b0366004611203565b610ede565b6101bd610f54565b6001600160a01b0383166101ec5760405162461bcd60e51b81526004016101e39061125f565b60405180910390fd5b6001600160a01b038316600090815260666020526040812054900361024a5760405162461bcd60e51b81526020600482015260146024820152732727aa1030903a393ab9ba32b21034b9b9bab2b960611b60448201526064016101e3565b600f81111561026b5760405162461bcd60e51b81526004016101e390611296565b806102b85760405162461bcd60e51b815260206004820152601c60248201527f636c61696d20746f706963732063616e6e6f7420626520656d7074790000000060448201526064016101e3565b60005b6001600160a01b038416600090815260666020526040902054811015610457576001600160a01b0384166000908152606660205260408120805483908110610305576103056112db565b600091825260208083209091015480835260679091526040822054909250905b8181101561044c57600083815260676020526040902080546001600160a01b038916919083908110610359576103596112db565b6000918252602090912001546001600160a01b03160361044457600083815260676020526040902061038c6001846112f1565b8154811061039c5761039c6112db565b60009182526020808320909101548583526067909152604090912080546001600160a01b0390921691839081106103d5576103d56112db565b600091825260208083209190910180546001600160a01b0319166001600160a01b03949094169390931790925584815260679091526040902080548061041d5761041d611312565b600082815260209020810160001990810180546001600160a01b031916905501905561044c565b600101610325565b5050506001016102bb565b506001600160a01b038316600090815260666020526040902061047b90838361105a565b5060005b818110156104eb576067600084848481811061049d5761049d6112db565b602090810292909201358352508181019290925260400160009081208054600180820183559183529290912090910180546001600160a01b0319166001600160a01b0387161790550161047f565b50826001600160a01b03167fec753cfc52044f61676f18a11e500093a9f2b1cd5e4942bc476f2b0438159bcf8383604051610527929190611328565b60405180910390a2505050565b6001600160a01b038216600090815260666020908152604080832080548251818502810185019093528083529284929190849083018282801561059657602002820191906000526020600020905b815481526020019060010190808311610582575b5050505050905060005b828110156105dc57848282815181106105bb576105bb6112db565b6020026020010151036105d457600193505050506105e4565b6001016105a0565b506000925050505b92915050565b60008181526067602090815260409182902080548351818402810184019094528084526060939283018282801561064a57602002820191906000526020600020905b81546001600160a01b0316815260019091019060200180831161062c575b50505050509050919050565b61065e610f54565b6106686000610fae565b565b610672610f54565b6001600160a01b0383166106985760405162461bcd60e51b81526004016101e39061125f565b6001600160a01b038316600090815260666020526040902054156106fe5760405162461bcd60e51b815260206004820152601d60248201527f747275737465642049737375657220616c72656164792065786973747300000060448201526064016101e3565b806107575760405162461bcd60e51b8152602060048201526024808201527f7472757374656420636c61696d20746f706963732063616e6e6f7420626520656044820152636d70747960e01b60648201526084016101e3565b600f8111156107785760405162461bcd60e51b81526004016101e390611296565b6065546032116107db5760405162461bcd60e51b815260206004820152602860248201527f63616e6e6f742068617665206d6f7265207468616e2035302074727573746564604482015267206973737565727360c01b60648201526084016101e3565b60658054600181019091557f8ff97419363ffd7000167f130ef7168fbea05faf9251824ca5043f113cc6a7c70180546001600160a01b0319166001600160a01b038516908117909155600090815260666020526040902061083d90838361105a565b5060005b818110156108ad576067600084848481811061085f5761085f6112db565b602090810292909201358352508181019290925260400160009081208054600180820183559183529290912090910180546001600160a01b0319166001600160a01b03871617905501610841565b50826001600160a01b03167ffedc33fd34859594822c0ff6f3f4f9fc279cc6d5cae53068f706a088e45008728383604051610527929190611328565b6108f1610f54565b6001600160a01b0381166109175760405162461bcd60e51b81526004016101e39061125f565b6001600160a01b03811660009081526066602052604081205490036109755760405162461bcd60e51b81526020600482015260146024820152732727aa1030903a393ab9ba32b21034b9b9bab2b960611b60448201526064016101e3565b60655460005b81811015610a7157826001600160a01b0316606582815481106109a0576109a06112db565b6000918252602090912001546001600160a01b031603610a695760656109c76001846112f1565b815481106109d7576109d76112db565b600091825260209091200154606580546001600160a01b039092169183908110610a0357610a036112db565b9060005260206000200160006101000a8154816001600160a01b0302191690836001600160a01b031602179055506065805480610a4257610a42611312565b600082815260209020810160001990810180546001600160a01b0319169055019055610a71565b60010161097b565b5060005b6001600160a01b038316600090815260666020526040902054811015610c11576001600160a01b0383166000908152606660205260408120805483908110610abf57610abf6112db565b600091825260208083209091015480835260679091526040822054909250905b81811015610c0657600083815260676020526040902080546001600160a01b038816919083908110610b1357610b136112db565b6000918252602090912001546001600160a01b031603610bfe576000838152606760205260409020610b466001846112f1565b81548110610b5657610b566112db565b60009182526020808320909101548583526067909152604090912080546001600160a01b039092169183908110610b8f57610b8f6112db565b600091825260208083209190910180546001600160a01b0319166001600160a01b039490941693909317909255848152606790915260409020805480610bd757610bd7611312565b600082815260209020810160001990810180546001600160a01b0319169055019055610c06565b600101610adf565b505050600101610a75565b506001600160a01b0382166000908152606660205260408120610c33916110a5565b6040516001600160a01b038316907f2214ded40113cc3fb63fc206cafee88270b0a903dac7245d54efdde30ebb032190600090a25050565b6001600160a01b03811660009081526066602052604081205460609103610cd45760405162461bcd60e51b815260206004820152601c60248201527f747275737465642049737375657220646f65736e27742065786973740000000060448201526064016101e3565b6001600160a01b0382166000908152606660209081526040918290208054835181840281018401909452808452909183018282801561064a57602002820191906000526020600020905b815481526020019060010190808311610d1e5750505050509050919050565b60606065805480602002602001604051908101604052809291908181526020018280548015610d9557602002820191906000526020600020905b81546001600160a01b03168152600190910190602001808311610d77575b5050505050905090565b600054610100900460ff1615808015610dbf5750600054600160ff909116105b80610dd95750303b158015610dd9575060005460ff166001145b610e3c5760405162461bcd60e51b815260206004820152602e60248201527f496e697469616c697a61626c653a20636f6e747261637420697320616c72656160448201526d191e481a5b9a5d1a585b1a5e995960921b60648201526084016101e3565b6000805460ff191660011790558015610e5f576000805461ff0019166101001790555b610e67611000565b8015610ead576000805461ff0019169055604051600181527f7f26b83ff96e1f2b6a682f133852f6798a09c465da95921460cefb38474024989060200160405180910390a15b50565b6001600160a01b03811660009081526066602052604081205415610ed657506001919050565b506000919050565b610ee6610f54565b6001600160a01b038116610f4b5760405162461bcd60e51b815260206004820152602660248201527f4f776e61626c653a206e6577206f776e657220697320746865207a65726f206160448201526564647265737360d01b60648201526084016101e3565b610ead81610fae565b6033546001600160a01b031633146106685760405162461bcd60e51b815260206004820181905260248201527f4f776e61626c653a2063616c6c6572206973206e6f7420746865206f776e657260448201526064016101e3565b603380546001600160a01b038381166001600160a01b0319831681179093556040519116919082907f8be0079c531659141344cd1fd0a4f28419497f9722a3daafe3b4186f6b6457e090600090a35050565b600054610100900460ff166110275760405162461bcd60e51b81526004016101e390611361565b610668600054610100900460ff166110515760405162461bcd60e51b81526004016101e390611361565b61066833610fae565b828054828255906000526020600020908101928215611095579160200282015b8281111561109557823582559160200191906001019061107a565b506110a19291506110bf565b5090565b5080546000825590600052602060002090810190610ead91905b5b808211156110a157600081556001016110c0565b6001600160a01b0381168114610ead57600080fd5b6000806000604084860312156110fe57600080fd5b8335611109816110d4565b9250602084013567ffffffffffffffff8082111561112657600080fd5b818601915086601f83011261113a57600080fd5b81358181111561114957600080fd5b8760208260051b850101111561115e57600080fd5b6020830194508093505050509250925092565b6000806040838503121561118457600080fd5b823561118f816110d4565b946020939093013593505050565b6000602082840312156111af57600080fd5b5035919050565b6020808252825182820181905260009190848201906040850190845b818110156111f75783516001600160a01b0316835292840192918401916001016111d2565b50909695505050505050565b60006020828403121561121557600080fd5b8135611220816110d4565b9392505050565b6020808252825182820181905260009190848201906040850190845b818110156111f757835183529284019291840191600101611243565b6020808252601f908201527f696e76616c696420617267756d656e74202d207a65726f206164647265737300604082015260600190565b60208082526025908201527f63616e6e6f742068617665206d6f7265207468616e20313520636c61696d20746040820152646f7069637360d81b606082015260800190565b634e487b7160e01b600052603260045260246000fd5b818103818111156105e457634e487b7160e01b600052601160045260246000fd5b634e487b7160e01b600052603160045260246000fd5b6020808252810182905260006001600160fb1b0383111561134857600080fd5b8260051b80856040850137919091016040019392505050565b6020808252602b908201527f496e697469616c697a61626c653a20636f6e7472616374206973206e6f74206960408201526a6e697469616c697a696e6760a81b60608201526080019056fea26469706673582212200381389a24fdde96b8082a95e1c870655c817adfbaed4b9b20c304a85b48f1b864736f6c63430008180033",
  "linkReferences": {},
  "deployedLinkReferences": {}
}