{
  "_format": "hh-sol-artifact-1",
  "contractName": "VaultFactory",
  "sourceName": "contracts/erc4626/factory/VaultFactory.sol",
  "abi": [
    {
      "inputs": [
        {
          "internalType": "address",
          "name": "deployer",
          "type": "address"
        }
      ],
      "stateMutability": "nonpayable",
      "type": "constructor"
    },
    {
      "inputs": [],
      "name": "AccessControlBadConfirmation",
      "type": "error"
    },
    {
      "inputs": [
        {
          "internalType": "address",
          "name": "account",
          "type": "address"
        },
        {
          "internalType": "bytes32",
          "name": "neededRole",
          "type": "bytes32"
        }
      ],
      "name": "AccessControlUnauthorizedAccount",
      "type": "error"
    },
    {
      "inputs": [
        {
          "internalType": "address",
          "name": "owner",
          "type": "address"
        }
      ],
      "name": "OwnableInvalidOwner",
      "type": "error"
    },
    {
      "inputs": [
        {
          "internalType": "address",
          "name": "account",
          "type": "address"
        }
      ],
      "name": "OwnableUnauthorizedAccount",
      "type": "error"
    },
    {
      "anonymous": false,
      "inputs": [
        {
          "indexed": true,
          "internalType": "address",
          "name": "previousOwner",
          "type": "address"
        },
        {
          "indexed": true,
          "internalType": "address",
          "name": "newOwner",
          "type": "address"
        }
      ],
      "name": "OwnershipTransferred",
      "type": "event"
    },
    {
      "anonymous": false,
      "inputs": [
        {
          "indexed": true,
          "internalType": "bytes32",
          "name": "role",
          "type": "bytes32"
        },
        {
          "indexed": true,
          "internalType": "bytes32",
          "name": "previousAdminRole",
          "type": "bytes32"
        },
        {
          "indexed": true,
          "internalType": "bytes32",
          "name": "newAdminRole",
          "type": "bytes32"
        }
      ],
      "name": "RoleAdminChanged",
      "type": "event"
    },
    {
      "anonymous": false,
      "inputs": [
        {
          "indexed": true,
          "internalType": "bytes32",
          "name": "role",
          "type": "bytes32"
        },
        {
          "indexed": true,
          "internalType": "address",
          "name": "account",
          "type": "address"
        },
        {
          "indexed": true,
          "internalType": "address",
          "name": "sender",
          "type": "address"
        }
      ],
      "name": "RoleGranted",
      "type": "event"
    },
    {
      "anonymous": false,
      "inputs": [
        {
          "indexed": true,
          "internalType": "bytes32",
          "name": "role",
          "type": "bytes32"
        },
        {
          "indexed": true,
          "internalType": "address",
          "name": "account",
          "type": "address"
        },
        {
          "indexed": true,
          "internalType": "address",
          "name": "sender",
          "type": "address"
        }
      ],
      "name": "RoleRevoked",
      "type": "event"
    },
    {
      "anonymous": false,
      "inputs": [
        {
          "indexed": true,
          "internalType": "address",
          "name": "vault",
          "type": "address"
        },
        {
          "indexed": false,
          "internalType": "string",
          "name": "name",
          "type": "string"
        },
        {
          "indexed": false,
          "internalType": "string",
          "name": "symbol",
          "type": "string"
        }
      ],
      "name": "VaultDeployed",
      "type": "event"
    },
    {
      "inputs": [],
      "name": "DEFAULT_ADMIN_ROLE",
      "outputs": [
        {
          "internalType": "bytes32",
          "name": "",
          "type": "bytes32"
        }
      ],
      "stateMutability": "view",
      "type": "function"
    },
    {
      "inputs": [],
      "name": "DEPLOYER_ROLE",
      "outputs": [
        {
          "internalType": "bytes32",
          "name": "",
          "type": "bytes32"
        }
      ],
      "stateMutability": "view",
      "type": "function"
    },
    {
      "inputs": [
        {
          "internalType": "address",
          "name": "vault",
          "type": "address"
        }
      ],
      "name": "availableVaults",
      "outputs": [
        {
          "internalType": "bool",
          "name": "",
          "type": "bool"
        }
      ],
      "stateMutability": "view",
      "type": "function"
    },
    {
      "inputs": [
        {
          "internalType": "string",
          "name": "salt",
          "type": "string"
        },
        {
          "components": [
            {
              "internalType": "address",
              "name": "stakingToken",
              "type": "address"
            },
            {
              "internalType": "string",
              "name": "shareTokenName",
              "type": "string"
            },
            {
              "internalType": "string",
              "name": "shareTokenSymbol",
              "type": "string"
            },
            {
              "internalType": "address",
              "name": "vaultRewardController",
              "type": "address"
            },
            {
              "internalType": "address",
              "name": "feeConfigController",
              "type": "address"
            }
          ],
          "internalType": "struct IVaultFactory.VaultDetails",
          "name": "vaultDetails",
          "type": "tuple"
        },
        {
          "components": [
            {
              "internalType": "address",
              "name": "receiver",
              "type": "address"
            },
            {
              "internalType": "address",
              "name": "token",
              "type": "address"
            },
            {
              "internalType": "uint256",
              "name": "feePercentage",
              "type": "uint256"
            }
          ],
          "internalType": "struct FeeConfiguration.FeeConfig",
          "name": "feeConfig",
          "type": "tuple"
        }
      ],
      "name": "deployVault",
      "outputs": [
        {
          "internalType": "address",
          "name": "vault",
          "type": "address"
        }
      ],
      "stateMutability": "payable",
      "type": "function"
    },
    {
      "inputs": [
        {
          "internalType": "bytes32",
          "name": "role",
          "type": "bytes32"
        }
      ],
      "name": "getRoleAdmin",
      "outputs": [
        {
          "internalType": "bytes32",
          "name": "",
          "type": "bytes32"
        }
      ],
      "stateMutability": "view",
      "type": "function"
    },
    {
      "inputs": [
        {
          "internalType": "bytes32",
          "name": "role",
          "type": "bytes32"
        },
        {
          "internalType": "address",
          "name": "account",
          "type": "address"
        }
      ],
      "name": "grantRole",
      "outputs": [],
      "stateMutability": "nonpayable",
      "type": "function"
    },
    {
      "inputs": [
        {
          "internalType": "bytes32",
          "name": "role",
          "type": "bytes32"
        },
        {
          "internalType": "address",
          "name": "account",
          "type": "address"
        }
      ],
      "name": "hasRole",
      "outputs": [
        {
          "internalType": "bool",
          "name": "",
          "type": "bool"
        }
      ],
      "stateMutability": "view",
      "type": "function"
    },
    {
      "inputs": [
        {
          "internalType": "address",
          "name": "vault",
          "type": "address"
        }
      ],
      "name": "isVaultAvailable",
      "outputs": [
        {
          "internalType": "bool",
          "name": "",
          "type": "bool"
        }
      ],
      "stateMutability": "view",
      "type": "function"
    },
    {
      "inputs": [],
      "name": "owner",
      "outputs": [
        {
          "internalType": "address",
          "name": "",
          "type": "address"
        }
      ],
      "stateMutability": "view",
      "type": "function"
    },
    {
      "inputs": [],
      "name": "renounceOwnership",
      "outputs": [],
      "stateMutability": "nonpayable",
      "type": "function"
    },
    {
      "inputs": [
        {
          "internalType": "bytes32",
          "name": "role",
          "type": "bytes32"
        },
        {
          "internalType": "address",
          "name": "callerConfirmation",
          "type": "address"
        }
      ],
      "name": "renounceRole",
      "outputs": [],
      "stateMutability": "nonpayable",
      "type": "function"
    },
    {
      "inputs": [
        {
          "internalType": "bytes32",
          "name": "role",
          "type": "bytes32"
        },
        {
          "internalType": "address",
          "name": "account",
          "type": "address"
        }
      ],
      "name": "revokeRole",
      "outputs": [],
      "stateMutability": "nonpayable",
      "type": "function"
    },
    {
      "inputs": [
        {
          "internalType": "bytes4",
          "name": "interfaceId",
          "type": "bytes4"
        }
      ],
      "name": "supportsInterface",
      "outputs": [
        {
          "internalType": "bool",
          "name": "",
          "type": "bool"
        }
      ],
      "stateMutability": "view",
      "type": "function"
    },
    {
      "inputs": [
        {
          "internalType": "address",
          "name": "newOwner",
          "type": "address"
        }
      ],
      "name": "transferOwnership",
      "outputs": [],
      "stateMutability": "nonpayable",
      "type": "function"
    },
    {
      "inputs": [
        {
          "internalType": "string",
          "name": "",
          "type": "string"
        }
      ],
      "name": "vaultDeployed",
      "outputs": [
        {
          "internalType": "address",
          "name": "",
          "type": "address"
        }
      ],
      "stateMutability": "view",
      "type": "function"
    }
  ],
  "bytecode": "0x60806040523480156200001157600080fd5b5060405162005499380380620054998339810160408190526200003491620001dc565b33806200005c57604051631e4fbdf760e01b8152600060048201526024015b60405180910390fd5b6200006781620000f5565b506001600160a01b038116620000b35760405162461bcd60e51b815260206004820152601060248201526f24b73b30b634b2103232b83637bcb2b960811b604482015260640162000053565b620000c060003362000145565b50620000ed7ffc425f2263d0df187444b70e47283d622c70181c5baebb1306a01edba1ce184c8262000145565b50506200020e565b600080546001600160a01b038381166001600160a01b0319831681178455604051919092169283917f8be0079c531659141344cd1fd0a4f28419497f9722a3daafe3b4186f6b6457e09190a35050565b60008281526001602090815260408083206001600160a01b038516845290915281205460ff16620001d25760008381526001602081815260408084206001600160a01b0387168086529252808420805460ff19169093179092559051339286917f2f8788117e7eff1d82e926ec794901d17c78024a50270940304540a733656f0d9190a4506001620001d6565b5060005b92915050565b600060208284031215620001ef57600080fd5b81516001600160a01b03811681146200020757600080fd5b9392505050565b61527b806200021e6000396000f3fe608060405260043610620000fb5760003560e01c80638da5cb5b1162000095578063ecd002611162000060578063ecd0026114620002c7578063f26eb0fd14620002fd578063f2fde38b146200033a578063fe738c83146200035f57600080fd5b80638da5cb5b146200024657806391d148541462000266578063a217fddf146200028b578063d547741f14620002a257600080fd5b80632f2ff15d11620000d65780632f2ff15d14620001b257806336568abe14620001d9578063715018a614620001fe5780637bac419d146200021657600080fd5b806301ffc9a714620001005780630f98d411146200013a578063248a9ca3146200016e575b600080fd5b3480156200010d57600080fd5b50620001256200011f36600462000b3e565b620003a4565b60405190151581526020015b60405180910390f35b3480156200014757600080fd5b50620001256200015936600462000b8e565b60026020526000908152604090205460ff1681565b3480156200017b57600080fd5b50620001a36200018d36600462000bac565b6000908152600160208190526040909120015490565b60405190815260200162000131565b348015620001bf57600080fd5b50620001d7620001d136600462000bc6565b620003d2565b005b348015620001e657600080fd5b50620001d7620001f836600462000bc6565b62000402565b3480156200020b57600080fd5b50620001d76200043d565b6200022d6200022736600462000c0e565b62000455565b6040516001600160a01b03909116815260200162000131565b3480156200025357600080fd5b506000546001600160a01b03166200022d565b3480156200027357600080fd5b50620001256200028536600462000bc6565b6200073c565b3480156200029857600080fd5b50620001a3600081565b348015620002af57600080fd5b50620001d7620002c136600462000bc6565b62000767565b348015620002d457600080fd5b50620001a37ffc425f2263d0df187444b70e47283d622c70181c5baebb1306a01edba1ce184c81565b3480156200030a57600080fd5b50620001256200031c36600462000b8e565b6001600160a01b031660009081526002602052604090205460ff1690565b3480156200034757600080fd5b50620001d76200035936600462000b8e565b62000791565b3480156200036c57600080fd5b506200022d6200037e36600462000cd8565b80516020818301810180516003825292820191909301209152546001600160a01b031681565b60006001600160e01b0319821663044e178b60e51b1480620003cc5750620003cc82620007d5565b92915050565b60008281526001602081905260409091200154620003f0816200080c565b620003fc838362000818565b50505050565b6001600160a01b03811633146200042c5760405163334bd91960e11b815260040160405180910390fd5b62000438828262000896565b505050565b6200044762000907565b62000453600062000936565b565b60007ffc425f2263d0df187444b70e47283d622c70181c5baebb1306a01edba1ce184c62000483816200080c565b60006001600160a01b031660038787604051620004a292919062000d93565b908152604051908190036020019020546001600160a01b031614620005075760405162461bcd60e51b815260206004820152601660248201527515985d5b1d08185b1c9958591e4819195c1b1bde595960521b60448201526064015b60405180910390fd5b600062000518602086018662000b8e565b6001600160a01b031603620005685760405162461bcd60e51b815260206004820152601560248201527424b73b30b634b21039ba30b5b4b733903a37b5b2b760591b6044820152606401620004fe565b60006200057c608086016060870162000b8e565b6001600160a01b031603620005de5760405162461bcd60e51b815260206004820152602160248201527f496e76616c69642072657761726420636f6e74726f6c6c6572206164647265736044820152607360f81b6064820152608401620004fe565b6000620005f260a086016080870162000b8e565b6001600160a01b0316036200064a5760405162461bcd60e51b815260206004820152601e60248201527f496e76616c69642066656520636f6e74726f6c6c6572206164647265737300006044820152606401620004fe565b620006588686868662000986565b6001600160a01b03811660008181526002602052604090819020805460ff191660011790555163f2fde38b60e01b81523360048201529193509063f2fde38b90602401600060405180830381600087803b158015620006b657600080fd5b505af1158015620006cb573d6000803e3d6000fd5b5050506001600160a01b03831690507fd2cdcadeca6ad2e3691c1a25b1067ee469fb437fd70f08d97d607e652c1146d06200070a602087018762000da3565b62000719604089018962000da3565b6040516200072b949392919062000e1d565b60405180910390a250949350505050565b60009182526001602090815260408084206001600160a01b0393909316845291905290205460ff1690565b6000828152600160208190526040909120015462000785816200080c565b620003fc838362000896565b6200079b62000907565b6001600160a01b038116620007c757604051631e4fbdf760e01b815260006004820152602401620004fe565b620007d28162000936565b50565b60006001600160e01b03198216637965db0b60e01b1480620003cc57506301ffc9a760e01b6001600160e01b0319831614620003cc565b620007d2813362000a99565b60006200082683836200073c565b6200088d5760008381526001602081815260408084206001600160a01b0387168086529252808420805460ff19169093179092559051339286917f2f8788117e7eff1d82e926ec794901d17c78024a50270940304540a733656f0d9190a4506001620003cc565b506000620003cc565b6000620008a483836200073c565b156200088d5760008381526001602090815260408083206001600160a01b0386168085529252808320805460ff1916905551339286917ff6391f5c32d9c69d2a47ea670b442974b53935d1edc7fd64eb21e047a839171b9190a4506001620003cc565b6000546001600160a01b03163314620004535760405163118cdaa760e01b8152336004820152602401620004fe565b600080546001600160a01b038381166001600160a01b0319831681178455604051919092169283917f8be0079c531659141344cd1fd0a4f28419497f9722a3daafe3b4186f6b6457e09190a35050565b600080604051806020016200099b9062000b30565b601f1982820381018352601f9091011660405290506000620009c1602086018662000b8e565b620009d0602087018762000da3565b620009df604089018962000da3565b620009ee60208a018a62000b8e565b62000a0060408b0160208c0162000b8e565b60408b013562000a1760808e0160608f0162000b8e565b8d608001602081019062000a2c919062000b8e565b60405160200162000a479a9998979695949392919062000e53565b60405160208183030381529060405290506000828260405160200162000a6f92919062000ef9565b604051602081830303815290604052905062000a8d88888362000ada565b98975050505050505050565b62000aa582826200073c565b62000ad65760405163e2517d3f60e01b81526001600160a01b038216600482015260248101839052604401620004fe565b5050565b600080848460405160200162000af292919062000d93565b604051602081830303815290604052805190602001209050600083602001845183818334f592505050803b62000b2757600080fd5b95945050505050565b61432b8062000f1b83390190565b60006020828403121562000b5157600080fd5b81356001600160e01b03198116811462000b6a57600080fd5b9392505050565b80356001600160a01b038116811462000b8957600080fd5b919050565b60006020828403121562000ba157600080fd5b62000b6a8262000b71565b60006020828403121562000bbf57600080fd5b5035919050565b6000806040838503121562000bda57600080fd5b8235915062000bec6020840162000b71565b90509250929050565b60006060828403121562000c0857600080fd5b50919050565b60008060008060a0858703121562000c2557600080fd5b843567ffffffffffffffff8082111562000c3e57600080fd5b818701915087601f83011262000c5357600080fd5b81358181111562000c6357600080fd5b88602082850101111562000c7657600080fd5b60209283019650945090860135908082111562000c9257600080fd5b50850160a0818803121562000ca657600080fd5b915062000cb7866040870162000bf5565b905092959194509250565b634e487b7160e01b600052604160045260246000fd5b60006020828403121562000ceb57600080fd5b813567ffffffffffffffff8082111562000d0457600080fd5b818401915084601f83011262000d1957600080fd5b81358181111562000d2e5762000d2e62000cc2565b604051601f8201601f19908116603f0116810190838211818310171562000d595762000d5962000cc2565b8160405282815287602084870101111562000d7357600080fd5b826020860160208301376000928101602001929092525095945050505050565b8183823760009101908152919050565b6000808335601e1984360301811262000dbb57600080fd5b83018035915067ffffffffffffffff82111562000dd757600080fd5b60200191503681900382131562000ded57600080fd5b9250929050565b81835281816020850137506000828201602090810191909152601f909101601f19169091010190565b60408152600062000e3360408301868862000df4565b828103602084015262000e4881858762000df4565b979650505050505050565b6001600160a01b038b811682526101006020830181905260009162000e7c8483018d8f62000df4565b9150838203604085015262000e93828b8d62000df4565b98811660608501529687166080840152505060a081019390935290831660c083015290911660e09091015295945050505050565b6000815160005b8181101562000eea576020818501810151868301520162000ece565b50600093019283525090919050565b600062000f1262000f0b838662000ec7565b8462000ec7565b94935050505056fe6101006040526040516200432b3803806200432b833981016040819052620000279162000b71565b338585886001600160a01b031663313ce5676040518163ffffffff1660e01b8152600401602060405180830381865afa15801562000069573d6000803e3d6000fd5b505050506040513d601f19601f820116820180604052508101906200008f919062000c6a565b60006200009d848262000d27565b506001620000ac838262000d27565b5060ff81166080524660a052620000c26200013c565b60c0525050506001600160a01b038116620000f857604051631e4fbdf760e01b8152600060048201526024015b60405180910390fd5b6200010381620001d8565b506001600b55620001168383836200022a565b6001600160a01b03861660e05262000130858588620002b0565b5050505050506200113e565b60007f8b73c3c69bb8fe3d512ecc4cf759cc79239f7b179b0ffacaa9a75d522b39400f600060405162000170919062000df3565b6040805191829003822060208301939093528101919091527fc89efdaa54c0f20c7adf612882df0950f5a951637e0307cdcb4c672f298b8bc660608201524660808201523060a082015260c00160405160208183030381529060405280519060200120905090565b600a80546001600160a01b038381166001600160a01b0319831681179093556040519116919082907f8be0079c531659141344cd1fd0a4f28419497f9722a3daafe3b4186f6b6457e090600090a35050565b8251602084015160408501516200024392919062000553565b620002506000336200067a565b506200027d7f477fc23fb51bb5d5aa814872a393b0e4f35d0916c7503c0fd96584681070d410836200067a565b50620002aa7f74e458455daa935f28c556b43e0cc4ad001a8a090f5feee376681e97d4618f46826200067a565b50505050565b620002bc81306200072d565b6040805160a08082018352600080835260208084018290526060848601819052808501819052306080808701829052875195860188528486528584018590528588018390528583018390528501528551600280825291810190965260109560019594939290919082015b62000330620009f0565b815260200190600190039081620003265790505090506040518060400160405280868152602001848152508160008151811062000371576200037162000e71565b602002602001018190525060405180604001604052808581526020018381525081600181518110620003a757620003a762000e71565b6020026020010181905250620003ec6040518060600160405280600063ffffffff16815260200160006001600160a01b03168152602001600063ffffffff1681525090565b306020820152627a120060408201526200046260408051610120810182526060808252602080830182905260008385018190528284018390526080840181905260a0840181905260c0840181905260e0840183905284519283018552808352908201819052928101929092529061010082015290565b89815260208082018a905230604080840191909152610100830184905260e08301859052805163313ce56760e01b81529051620004ff9284926000926001600160a01b038e169263313ce56792600480820193918290030181865afa158015620004d0573d6000803e3d6000fd5b505050506040513d601f19601f82011682018060405250810190620004f6919062000c6a565b60ff166200085c565b600c80546001600160a01b0319166001600160a01b039290921691821790556040517f7bb17726df1f3adee8aa00ba8e8bc5d6f182af3bbf77604639cb7f008dd3b4ed90600090a250505050505050505050565b6000811180156200056c57506001600160a01b03831615155b620005ba5760405162461bcd60e51b815260206004820152601b60248201527f46433a20496e76616c69642066656520636f6e666967206461746100000000006044820152606401620000ef565b6127108110620005ff5760405162461bcd60e51b815260206004820152600f60248201526e46433a20496e76616c69642066656560881b6044820152606401620000ef565b600780546001600160a01b038581166001600160a01b0319928316811790935560088054918616919092168117909155600983905560408051928352602083019190915281018290527febd34b2df88ea5c9f67c04b13b08e5e63c2d17e269aab73b866fe47a8736a2649060600160405180910390a1505050565b60008281526006602090815260408083206001600160a01b038516845290915281205460ff16620007235760008381526006602090815260408083206001600160a01b03861684529091529020805460ff19166001179055620006da3390565b6001600160a01b0316826001600160a01b0316847f2f8788117e7eff1d82e926ec794901d17c78024a50270940304540a733656f0d60405160405180910390a450600162000727565b5060005b92915050565b604080516001600160a01b038381166024830152841660448083019190915282518083039091018152606490910182526020810180516001600160e01b031663248a35ef60e11b1790529051600091829182916101679162000790919062000e87565b6000604051808303816000865af19150503d8060008114620007cf576040519150601f19603f3d011682016040523d82523d6000602084013e620007d4565b606091505b509150915081620007e7576015620007fd565b80806020019051810190620007fd919062000eb8565b9250600383900b601614620008555760405162461bcd60e51b815260206004820152601f60248201527f536166652073696e676c65206173736f63696174696f6e206661696c656421006044820152606401620000ef565b5050505050565b61010083015151600090849063ffffffff161580156200088957506101008101516040015163ffffffff16155b15620008a0576101008101516276a7006040909101525b60008060006101676001600160a01b031634637812a04b60e01b8a8a8a604051602401620008d19392919062000fd5565b60408051601f198184030181529181526020820180516001600160e01b03166001600160e01b031990941693909317909252905162000911919062000e87565b60006040518083038185875af1925050503d806000811462000950576040519150601f19603f3d011682016040523d82523d6000602084013e62000955565b606091505b5091509150816200096a576015600062000980565b8080602001905181019062000980919062001102565b95509250600383900b601614620009e55760405162461bcd60e51b815260206004820152602260248201527f53616665206372656174652066756e6769626c6520746f6b656e206661696c65604482015261642160f01b6064820152608401620000ef565b505050509392505050565b60405180604001604052806000815260200162000a496040518060a0016040528060001515815260200160006001600160a01b03168152602001606081526020016060815260200160006001600160a01b031681525090565b905290565b6001600160a01b038116811462000a6457600080fd5b50565b634e487b7160e01b600052604160045260246000fd5b604051606081016001600160401b038111828210171562000aa25762000aa262000a67565b60405290565b60005b8381101562000ac557818101518382015260200162000aab565b50506000910152565b600082601f83011262000ae057600080fd5b81516001600160401b038082111562000afd5762000afd62000a67565b604051601f8301601f19908116603f0116810190828211818310171562000b285762000b2862000a67565b8160405283815286602085880101111562000b4257600080fd5b62000b5584602083016020890162000aa8565b9695505050505050565b805162000b6c8162000a4e565b919050565b60008060008060008086880361010081121562000b8d57600080fd5b875162000b9a8162000a4e565b60208901519097506001600160401b038082111562000bb857600080fd5b62000bc68b838c0162000ace565b975060408a015191508082111562000bdd57600080fd5b5062000bec8a828b0162000ace565b9550506060605f198201121562000c0257600080fd5b5062000c0d62000a7d565b606088015162000c1d8162000a4e565b8152608088015162000c2f8162000a4e565b602082015260a08801516040820152925062000c4e60c0880162000b5f565b915062000c5e60e0880162000b5f565b90509295509295509295565b60006020828403121562000c7d57600080fd5b815160ff8116811462000c8f57600080fd5b9392505050565b600181811c9082168062000cab57607f821691505b60208210810362000ccc57634e487b7160e01b600052602260045260246000fd5b50919050565b601f82111562000d22576000816000526020600020601f850160051c8101602086101562000cfd5750805b601f850160051c820191505b8181101562000d1e5782815560010162000d09565b5050505b505050565b81516001600160401b0381111562000d435762000d4362000a67565b62000d5b8162000d54845462000c96565b8462000cd2565b602080601f83116001811462000d93576000841562000d7a5750858301515b600019600386901b1c1916600185901b17855562000d1e565b600085815260208120601f198616915b8281101562000dc45788860151825594840194600190910190840162000da3565b508582101562000de35787850151600019600388901b60f8161c191681555b5050505050600190811b01905550565b600080835462000e038162000c96565b6001828116801562000e1e576001811462000e345762000e65565b60ff198416875282151583028701945062000e65565b8760005260208060002060005b8581101562000e5c5781548a82015290840190820162000e41565b50505082870194505b50929695505050505050565b634e487b7160e01b600052603260045260246000fd5b6000825162000e9b81846020870162000aa8565b9190910192915050565b8051600381900b811462000b6c57600080fd5b60006020828403121562000ecb57600080fd5b62000c8f8262000ea5565b6000815180845262000ef081602086016020860162000aa8565b601f01601f19169290920160200192915050565b600082825180855260208086019550808260051b84010181860160005b8481101562000fc857858303601f1901895281518051845284015160408585018190528151151581860152818601516001600160a01b039081166060808801919091529183015160a0608080890182905291939092909162000f8760e08a018662000ed6565b92860151898403603f1901858b015292945062000fa5858462000ed6565b9501511660c0979097019690965250509884019892509083019060010162000f21565b5090979650505050505050565b606081526000845161016080606085015262000ff66101c085018362000ed6565b91506020870151605f198086850301608087015262001016848362000ed6565b9350604089015191506200103560a08701836001600160a01b03169052565b60608901519150808685030160c087015262001052848362000ed6565b9350608089015191506200106a60e087018315159052565b60a08901519150610100620010868188018463ffffffff169052565b60c08a0151151561012088015260e08a015187860383016101408901529250620010b1858462000f04565b9450808a015192505050620010ee82860182805163ffffffff90811683526020808301516001600160a01b03169084015260409182015116910152565b505060208301949094525060400152919050565b600080604083850312156200111657600080fd5b620011218362000ea5565b91506020830151620011338162000a4e565b809150509250929050565b60805160a05160c05160e05161317b620011b0600039600081816105a301528181610a1801528181610be301528181610ed0015281816111cc015281816112d8015281816115fc015261175801526000610e0901526000610dd90152600081816105130152610daf015261317b6000f3fe6080604052600436106102c95760003560e01c80637ecebe0011610175578063b4f6d613116100dc578063d505accf11610095578063dd62ed3e1161006f578063dd62ed3e14610968578063ef8b30f7146109a0578063efa6f425146109c0578063f2fde38b146109e057600080fd5b8063d505accf146108f2578063d547741f14610912578063d905777e1461093257600080fd5b8063b4f6d61314610827578063ba0876521461085b578063c63d75b6146105dd578063cd9cdfda1461087b578063ce96cb77146108b2578063d2d7231f146108d257600080fd5b80639feb8f501161012e5780639feb8f501461077f578063a217fddf14610792578063a8d5fd65146107a7578063a9059cbb146107c7578063b3d7f6b9146107e7578063b460af941461080757600080fd5b80637ecebe00146106c95780638da5cb5b146106f65780638f12c2f41461071457806391d148541461072a57806394bf804d1461074a57806395d89b411461076a57600080fd5b80632f2ff15d11610234578063402d267d116101ed57806370a08231116101c757806370a082311461063f578063715018a61461066c5780637a07bf3a146106815780637bb7bed1146106a957600080fd5b8063402d267d146105dd5780634cdad506146105ff5780636e553f651461061f57600080fd5b80632f2ff15d146104df578063313ce5671461050157806335d16e17146105475780633644e5151461055c57806336568abe1461057157806338d52e0f1461059157600080fd5b806316ad06721161028657806316ad0672146103bc57806318160ddd146104085780631e5eb1d01461041e57806323b872dd1461046f578063248a9ca31461048f5780632c62fa10146104bf57600080fd5b806301e1d114146102ce57806301ffc9a7146102f657806305fb2a511461032657806306fdde031461035a578063095ea7b31461037c5780630a28a4771461039c575b600080fd5b3480156102da57600080fd5b506102e3610a00565b6040519081526020015b60405180910390f35b34801561030257600080fd5b5061031661031136600461294b565b610a90565b60405190151581526020016102ed565b34801561033257600080fd5b506102e37f74e458455daa935f28c556b43e0cc4ad001a8a090f5feee376681e97d4618f4681565b34801561036657600080fd5b5061036f610ac7565b6040516102ed91906129c5565b34801561038857600080fd5b506103166103973660046129f4565b610b55565b3480156103a857600080fd5b506102e36103b7366004612a1e565b610bc1565b3480156103c857600080fd5b506103f36103d7366004612a37565b600f602052600090815260409020805460029091015460ff1682565b604080519283529015156020830152016102ed565b34801561041457600080fd5b506102e360025481565b34801561042a57600080fd5b50600754600854600954610449926001600160a01b0390811692169083565b604080516001600160a01b039485168152939092166020840152908201526060016102ed565b34801561047b57600080fd5b5061031661048a366004612a52565b610c78565b34801561049b57600080fd5b506102e36104aa366004612a1e565b60009081526006602052604090206001015490565b3480156104cb57600080fd5b506102e36104da366004612a37565b610d58565b3480156104eb57600080fd5b506104ff6104fa366004612a8e565b610d7a565b005b34801561050d57600080fd5b506105357f000000000000000000000000000000000000000000000000000000000000000081565b60405160ff90911681526020016102ed565b34801561055357600080fd5b506102e3610da5565b34801561056857600080fd5b506102e3610dd5565b34801561057d57600080fd5b506104ff61058c366004612a8e565b610e2b565b34801561059d57600080fd5b506105c57f000000000000000000000000000000000000000000000000000000000000000081565b6040516001600160a01b0390911681526020016102ed565b3480156105e957600080fd5b506102e36105f8366004612a37565b5060001990565b34801561060b57600080fd5b506102e361061a366004612a1e565b610e63565b34801561062b57600080fd5b506102e361063a366004612a8e565b610e85565b34801561064b57600080fd5b506102e361065a366004612a37565b60036020526000908152604090205481565b34801561067857600080fd5b506104ff610fc6565b61069461068f366004612a1e565b610fda565b604080519283526020830191909152016102ed565b3480156106b557600080fd5b506105c56106c4366004612a1e565b6110ee565b3480156106d557600080fd5b506102e36106e4366004612a37565b60056020526000908152604090205481565b34801561070257600080fd5b50600a546001600160a01b03166105c5565b34801561072057600080fd5b506102e3600d5481565b34801561073657600080fd5b50610316610745366004612a8e565b611118565b34801561075657600080fd5b506102e3610765366004612a8e565b611143565b34801561077657600080fd5b5061036f6111fd565b6104ff61078d3660046129f4565b61120a565b34801561079e57600080fd5b506102e3600081565b3480156107b357600080fd5b50600c546105c5906001600160a01b031681565b3480156107d357600080fd5b506103166107e23660046129f4565b6114fd565b3480156107f357600080fd5b506102e3610802366004612a1e565b611563565b34801561081357600080fd5b506102e3610822366004612aba565b611585565b34801561083357600080fd5b506102e37f477fc23fb51bb5d5aa814872a393b0e4f35d0916c7503c0fd96584681070d41081565b34801561086757600080fd5b506102e3610876366004612aba565b611683565b34801561088757600080fd5b506103f3610896366004612a37565b6010602052600090815260409020805460019091015460ff1682565b3480156108be57600080fd5b506102e36108cd366004612a37565b611789565b3480156108de57600080fd5b506102e36108ed366004612a1e565b611794565b3480156108fe57600080fd5b506104ff61090d366004612af6565b6117fa565b34801561091e57600080fd5b506104ff61092d366004612a8e565b611a3e565b34801561093e57600080fd5b506102e361094d366004612a37565b6001600160a01b031660009081526003602052604090205490565b34801561097457600080fd5b506102e3610983366004612b69565b600460209081526000928352604080842090915290825290205481565b3480156109ac57600080fd5b506102e36109bb366004612a1e565b611a63565b3480156109cc57600080fd5b506104ff6109db366004612bda565b611a84565b3480156109ec57600080fd5b506104ff6109fb366004612a37565b611ac9565b6040516370a0823160e01b81523060048201526000907f00000000000000000000000000000000000000000000000000000000000000006001600160a01b0316906370a0823190602401602060405180830381865afa158015610a67573d6000803e3d6000fd5b505050506040513d601f19601f82011682018060405250810190610a8b9190612c42565b905090565b60006001600160e01b03198216637965db0b60e01b1480610ac157506301ffc9a760e01b6001600160e01b03198316145b92915050565b60008054610ad490612c5b565b80601f0160208091040260200160405190810160405280929190818152602001828054610b0090612c5b565b8015610b4d5780601f10610b2257610100808354040283529160200191610b4d565b820191906000526020600020905b815481529060010190602001808311610b3057829003601f168201915b505050505081565b3360008181526004602090815260408083206001600160a01b038716808552925280832085905551919290917f8c5be1e5ebec7d5bd14f71427d1e84f3dd0314c0f7b2291e5b200ac8c7c3b92590610bb09086815260200190565b60405180910390a350600192915050565b6040516370a0823160e01b815230600482015260009081906001600160a01b037f000000000000000000000000000000000000000000000000000000000000000016906370a0823190602401602060405180830381865afa158015610c2a573d6000803e3d6000fd5b505050506040513d601f19601f82011682018060405250810190610c4e9190612c42565b90508015610c6f57610c6a81610c62610a00565b859190611b07565b610c71565b825b9392505050565b6001600160a01b03831660009081526004602090815260408083203384529091528120546000198114610cd457610caf8382612cab565b6001600160a01b03861660009081526004602090815260408083203384529091529020555b6001600160a01b03851660009081526003602052604081208054859290610cfc908490612cab565b90915550506001600160a01b038085166000818152600360205260409081902080548701905551909187169060008051602061312683398151915290610d459087815260200190565b60405180910390a3506001949350505050565b6001600160a01b038116600090815260036020526040812054610ac190610e63565b600082815260066020526040902060010154610d9581611b2d565b610d9f8383611b37565b50505050565b6000610a8b61061a7f0000000000000000000000000000000000000000000000000000000000000000600a612da2565b60007f00000000000000000000000000000000000000000000000000000000000000004614610e0657610a8b611bcb565b507f000000000000000000000000000000000000000000000000000000000000000090565b6001600160a01b0381163314610e545760405163334bd91960e11b815260040160405180910390fd5b610e5e8282611c65565b505050565b6002546000908015610c6f57610c6a610e7a610a00565b600254859190611cd2565b6000610e8f611cf0565b610e9883611a63565b905080600003610ec357604051636e3699b760e11b8152600481018490526024015b60405180910390fd5b610ef86001600160a01b037f000000000000000000000000000000000000000000000000000000000000000016333086611d1a565b82600d6000828254610f0a9190612db1565b9091555050600c5460408051600080825260208201909252610f53926001600160a01b031691869190610f4d565b6060815260200190600190039081610f385790505b50611da4565b5050600c54610f6d906001600160a01b0316303386611ee7565b60408051848152602081018390526001600160a01b0384169133917fdcbc1c05240f31ff3ad067ef1ee35ce4997762752e3a095284754544f4c709d7910160405180910390a3610fbc83612020565b610ac16001600b55565b610fce61213d565b610fd8600061216a565b565b600080610fe5611cf0565b600e54835b81811080156110025750610fff85600a612db1565b81105b156110d957600080600e838154811061101d5761101d612dc4565b6000918252602080832090910154338352600f8252604080842080546001600160a01b03909316808652600191820185528286205460109095529190942054909450611074939261106d91612cab565b9190611cd2565b6001600160a01b03821660008181526010602090815260408083205433808552600f84528285209585526001909501909252909120559092506110bb908290309085611ee7565b6110c4826121bc565b505080806110d190612dda565b915050610fea565b5083925090506110e96001600b55565b915091565b600e81815481106110fe57600080fd5b6000918252602090912001546001600160a01b0316905081565b60009182526006602090815260408084206001600160a01b0393909316845291905290205460ff1690565b600061114d611cf0565b6111628261115a85611563565b925082612323565b80600d60008282546111749190612db1565b909155505060408051828152602081018590526001600160a01b0384169133917fdcbc1c05240f31ff3ad067ef1ee35ce4997762752e3a095284754544f4c709d7910160405180910390a36111f46001600160a01b037f000000000000000000000000000000000000000000000000000000000000000016333084611d1a565b610fbc81612020565b60018054610ad490612c5b565b7f477fc23fb51bb5d5aa814872a393b0e4f35d0916c7503c0fd96584681070d41061123481611b2d565b816000036112845760405162461bcd60e51b815260206004820152601b60248201527f5661756c743a20416d6f756e742063616e2774206265207a65726f00000000006044820152606401610eba565b600d546000036112d65760405162461bcd60e51b815260206004820152601a60248201527f5661756c743a204e6f20746f6b656e207374616b6564207965740000000000006044820152606401610eba565b7f00000000000000000000000000000000000000000000000000000000000000006001600160a01b0316836001600160a01b0316141580156113265750600c546001600160a01b03848116911614155b61138a5760405162461bcd60e51b815260206004820152602f60248201527f5661756c743a2052657761726420616e64205374616b696e6720746f6b656e7360448201526e2063616e6e6f742062652073616d6560881b6064820152608401610eba565b600e54600a036113ad57604051637561e0ab60e01b815260040160405180910390fd5b60006113c76001600d5485611cd29092919063ffffffff16565b6001600160a01b038516600090815260106020526040902060018101549192509060ff1661147057600e8054600180820183556000929092527fbb7b4a454dc3493923482f07822329ed19e8244eff582cc204f8554c3620c3fd0180546001600160a01b0319166001600160a01b038816179055818101805460ff19169091179055818155611456853061237d565b61146b6001600160a01b038616333087611d1a565b6114b3565b6001600160a01b03851660009081526010602052604081208054849290611498908490612db1565b909155506114b390506001600160a01b038616333087611d1a565b846001600160a01b03167fac24935fd910bc682b5ccb1a07b718cadf8cf2f6d1404c4f3ddc3662dae40e29856040516114ee91815260200190565b60405180910390a25050505050565b3360009081526003602052604081208054839190839061151e908490612cab565b90915550506001600160a01b0383166000818152600360205260409081902080548501905551339060008051602061312683398151915290610bb09086815260200190565b6002546000908015610c6f57610c6a61157a610a00565b600254859190611b07565b600061158f611cf0565b6115988461249b565b83600d60008282546115aa9190612cab565b9091555050600c546115c7906001600160a01b0316333087611ee7565b600c546040805160008152602081019091526115ee916001600160a01b03169086906124d3565b506116236001600160a01b037f00000000000000000000000000000000000000000000000000000000000000001684866125ff565b826001600160a01b0316826001600160a01b03167ff341246adaac6f497bc2a656f546ab9e182111d630394f0c57c710a59a2cb5678684604051611671929190918252602082015260400190565b60405180910390a3610c716001600b55565b600061168d611cf0565b61169684610e63565b9050806000036116d65760405162461bcd60e51b815260206004820152600b60248201526a5a45524f5f41535345545360a81b6044820152606401610eba565b6116df84610e63565b90506116eb8285612677565b80600d60008282546116fd9190612cab565b909155505060408051828152602081018690526001600160a01b0380861692908516917ff341246adaac6f497bc2a656f546ab9e182111d630394f0c57c710a59a2cb567910160405180910390a361177f6001600160a01b037f00000000000000000000000000000000000000000000000000000000000000001684836125ff565b610c716001600b55565b6000610ac182610d58565b600080600e83815481106117aa576117aa612dc4565b6000918252602080832090910154338352600f8252604080842080546001600160a01b03909316808652600191820185528286205460109095529190942054909450610c71939261106d91612cab565b4284101561184a5760405162461bcd60e51b815260206004820152601760248201527f5045524d49545f444541444c494e455f455850495245440000000000000000006044820152606401610eba565b60006001611856610dd5565b6001600160a01b038a811660008181526005602090815260409182902080546001810190915582517f6e71edae12b1b97f4d1f60370fef10105fa2faae0126114a169c64845d6126c98184015280840194909452938d166060840152608083018c905260a083019390935260c08083018b90528151808403909101815260e08301909152805192019190912061190160f01b6101008301526101028201929092526101228101919091526101420160408051601f198184030181528282528051602091820120600084529083018083525260ff871690820152606081018590526080810184905260a0016020604051602081039080840390855afa158015611962573d6000803e3d6000fd5b5050604051601f1901519150506001600160a01b038116158015906119985750876001600160a01b0316816001600160a01b0316145b6119d55760405162461bcd60e51b815260206004820152600e60248201526d24a72b20a624a22fa9a4a3a722a960911b6044820152606401610eba565b6001600160a01b0390811660009081526004602090815260408083208a8516808552908352928190208990555188815291928a16917f8c5be1e5ebec7d5bd14f71427d1e84f3dd0314c0f7b2291e5b200ac8c7c3b925910160405180910390a350505050505050565b600082815260066020526040902060010154611a5981611b2d565b610d9f8383611c65565b6002546000908015610c6f57610c6a6001611a7c610a00565b859190611cd2565b7f74e458455daa935f28c556b43e0cc4ad001a8a090f5feee376681e97d4618f46611aae81611b2d565b611ac58260000151836020015184604001516126d9565b5050565b611ad161213d565b6001600160a01b038116611afb57604051631e4fbdf760e01b815260006004820152602401610eba565b611b048161216a565b50565b6000826000190484118302158202611b1e57600080fd5b50910281810615159190040190565b611b0481336127fb565b6000611b438383611118565b611bc35760008381526006602090815260408083206001600160a01b03861684529091529020805460ff19166001179055611b7b3390565b6001600160a01b0316826001600160a01b0316847f2f8788117e7eff1d82e926ec794901d17c78024a50270940304540a733656f0d60405160405180910390a4506001610ac1565b506000610ac1565b60007f8b73c3c69bb8fe3d512ecc4cf759cc79239f7b179b0ffacaa9a75d522b39400f6000604051611bfd9190612df3565b6040805191829003822060208301939093528101919091527fc89efdaa54c0f20c7adf612882df0950f5a951637e0307cdcb4c672f298b8bc660608201524660808201523060a082015260c00160405160208183030381529060405280519060200120905090565b6000611c718383611118565b15611bc35760008381526006602090815260408083206001600160a01b0386168085529252808320805460ff1916905551339286917ff6391f5c32d9c69d2a47ea670b442974b53935d1edc7fd64eb21e047a839171b9190a4506001610ac1565b6000826000190484118302158202611ce957600080fd5b5091020490565b6002600b5403611d1357604051633ee5aeb560e01b815260040160405180910390fd5b6002600b55565b60006040516323b872dd60e01b81528460048201528360248201528260448201526020600060648360008a5af13d15601f3d1160016000511416171691505080611d9d5760405162461bcd60e51b81526020600482015260146024820152731514905394d1915497d19493d357d1905253115160621b6044820152606401610eba565b5050505050565b6000606060008060006101676001600160a01b031663278e0b8860e01b898989604051602401611dd693929190612e94565b60408051601f198184030181529181526020820180516001600160e01b03166001600160e01b0319909416939093179092529051611e149190612f19565b6000604051808303816000865af19150503d8060008114611e51576040519150601f19603f3d011682016040523d82523d6000602084013e611e56565b606091505b509150915081611e79576040805160008082526020820190925260159190611e8d565b80806020019051810190611e8d9190612f5f565b90965094509250600383900b601614611edc5760405162461bcd60e51b815260206004820152601160248201527053616665206d696e74206661696c65642160781b6044820152606401610eba565b505050935093915050565b604080516001600160a01b038681166024830152858116604483015284166064820152600783900b6084808301919091528251808303909101815260a490910182526020810180516001600160e01b031663eca3691760e01b17905290516000918291829161016791611f5a9190612f19565b6000604051808303816000865af19150503d8060008114611f97576040519150601f19603f3d011682016040523d82523d6000602084013e611f9c565b606091505b509150915081611fad576015611fc1565b80806020019051810190611fc1919061303b565b9250600383900b6016146120175760405162461bcd60e51b815260206004820152601b60248201527f5361666520746f6b656e207472616e73666572206661696c65642100000000006044820152606401610eba565b50505050505050565b336000908152600f602052604090206002015460ff166120f157600e5460005b818110156120b2576000600e828154811061205d5761205d612dc4565b60009182526020808320909101546001600160a01b03168083526010825260408084205433808652600f85528286208487526001019094529320929092559091506120a990829061237d565b50600101612040565b50336000908152600f60205260408120838155600201805460ff19166001179055600d80548492906120e5908490612db1565b90915550611b04915050565b6120fb6000610fda565b5050336000908152600f60205260408120805483929061211c908490612db1565b9250508190555080600d60008282546121359190612db1565b909155505050565b600a546001600160a01b03163314610fd85760405163118cdaa760e01b8152336004820152602401610eba565b600a80546001600160a01b038381166001600160a01b0319831681179093556040519116919082907f8be0079c531659141344cd1fd0a4f28419497f9722a3daafe3b4186f6b6457e090600090a35050565b6008546009546001600160a01b03909116906000906121dc908490612834565b90506001600160a01b0382166122515780341461223b5760405162461bcd60e51b815260206004820152601e60248201527f46433a204e6f7420656e6f756768204842415220746f207061792066656500006044820152606401610eba565b600754610e5e906001600160a01b0316826128b4565b6040516370a0823160e01b815233600482015281906001600160a01b038416906370a0823190602401602060405180830381865afa158015612297573d6000803e3d6000fd5b505050506040513d601f19601f820116820180604052508101906122bb9190612c42565b10156123095760405162461bcd60e51b815260206004820152601e60248201527f46433a20496e73756666696369656e7420746f6b656e2062616c616e636500006044820152606401610eba565b600754610e5e90839033906001600160a01b031684611ee7565b80600260008282546123359190612db1565b90915550506001600160a01b03821660008181526003602090815260408083208054860190555184815260008051602061312683398151915291015b60405180910390a35050565b604080516001600160a01b038381166024830152841660448083019190915282518083039091018152606490910182526020810180516001600160e01b031663248a35ef60e11b179052905160009182918291610167916123de9190612f19565b6000604051808303816000865af19150503d806000811461241b576040519150601f19603f3d011682016040523d82523d6000602084013e612420565b606091505b509150915081612431576015612445565b80806020019051810190612445919061303b565b9250600383900b601614611d9d5760405162461bcd60e51b815260206004820152601f60248201527f536166652073696e676c65206173736f63696174696f6e206661696c656421006044820152606401610eba565b336000908152600f6020526040812080548392906124ba908490612cab565b9250508190555080600d60008282546121359190612cab565b6000806000806101676001600160a01b031663acb9cff960e01b88888860405160240161250293929190613056565b60408051601f198184030181529181526020820180516001600160e01b03166001600160e01b03199094169390931790925290516125409190612f19565b6000604051808303816000865af19150503d806000811461257d576040519150601f19603f3d011682016040523d82523d6000602084013e612582565b606091505b50915091508161259557601560006125a9565b808060200190518101906125a991906130c2565b94509250600383900b6016146125f55760405162461bcd60e51b815260206004820152601160248201527053616665206275726e206661696c65642160781b6044820152606401610eba565b5050509392505050565b600060405163a9059cbb60e01b8152836004820152826024820152602060006044836000895af13d15601f3d1160016000511416171691505080610d9f5760405162461bcd60e51b815260206004820152600f60248201526e1514905394d1915497d19052531151608a1b6044820152606401610eba565b6001600160a01b0382166000908152600360205260408120805483929061269f908490612cab565b90915550506002805482900390556040518181526000906001600160a01b0384169060008051602061312683398151915290602001612371565b6000811180156126f157506001600160a01b03831615155b61273d5760405162461bcd60e51b815260206004820152601b60248201527f46433a20496e76616c69642066656520636f6e666967206461746100000000006044820152606401610eba565b61271081106127805760405162461bcd60e51b815260206004820152600f60248201526e46433a20496e76616c69642066656560881b6044820152606401610eba565b600780546001600160a01b038581166001600160a01b0319928316811790935560088054918616919092168117909155600983905560408051928352602083019190915281018290527febd34b2df88ea5c9f67c04b13b08e5e63c2d17e269aab73b866fe47a8736a2649060600160405180910390a1505050565b6128058282611118565b611ac55760405163e2517d3f60e01b81526001600160a01b038216600482015260248101839052604401610eba565b600061271061284383856130ec565b101561289d5760405162461bcd60e51b8152602060048201526024808201527f46433a20546f6f20736d616c6c20616d6f756e7420746f20636f6e73696465726044820152632066656560e01b6064820152608401610eba565b6127106128aa83856130ec565b610c719190613103565b804710156128d75760405163cd78605960e01b8152306004820152602401610eba565b6000826001600160a01b03168260405160006040518083038185875af1925050503d8060008114612924576040519150601f19603f3d011682016040523d82523d6000602084013e612929565b606091505b5050905080610e5e57604051630a12f52160e11b815260040160405180910390fd5b60006020828403121561295d57600080fd5b81356001600160e01b031981168114610c7157600080fd5b60005b83811015612990578181015183820152602001612978565b50506000910152565b600081518084526129b1816020860160208601612975565b601f01601f19169290920160200192915050565b602081526000610c716020830184612999565b80356001600160a01b03811681146129ef57600080fd5b919050565b60008060408385031215612a0757600080fd5b612a10836129d8565b946020939093013593505050565b600060208284031215612a3057600080fd5b5035919050565b600060208284031215612a4957600080fd5b610c71826129d8565b600080600060608486031215612a6757600080fd5b612a70846129d8565b9250612a7e602085016129d8565b9150604084013590509250925092565b60008060408385031215612aa157600080fd5b82359150612ab1602084016129d8565b90509250929050565b600080600060608486031215612acf57600080fd5b83359250612adf602085016129d8565b9150612aed604085016129d8565b90509250925092565b600080600080600080600060e0888a031215612b1157600080fd5b612b1a886129d8565b9650612b28602089016129d8565b95506040880135945060608801359350608088013560ff81168114612b4c57600080fd5b9699959850939692959460a0840135945060c09093013592915050565b60008060408385031215612b7c57600080fd5b612b85836129d8565b9150612ab1602084016129d8565b634e487b7160e01b600052604160045260246000fd5b604051601f8201601f1916810167ffffffffffffffff81118282101715612bd257612bd2612b93565b604052919050565b600060608284031215612bec57600080fd5b6040516060810181811067ffffffffffffffff82111715612c0f57612c0f612b93565b604052612c1b836129d8565b8152612c29602084016129d8565b6020820152604083013560408201528091505092915050565b600060208284031215612c5457600080fd5b5051919050565b600181811c90821680612c6f57607f821691505b602082108103612c8f57634e487b7160e01b600052602260045260246000fd5b50919050565b634e487b7160e01b600052601160045260246000fd5b81810381811115610ac157610ac1612c95565b600181815b80851115612cf9578160001904821115612cdf57612cdf612c95565b80851615612cec57918102915b93841c9390800290612cc3565b509250929050565b600082612d1057506001610ac1565b81612d1d57506000610ac1565b8160018114612d335760028114612d3d57612d59565b6001915050610ac1565b60ff841115612d4e57612d4e612c95565b50506001821b610ac1565b5060208310610133831016604e8410600b8410161715612d7c575081810a610ac1565b612d868383612cbe565b8060001904821115612d9a57612d9a612c95565b029392505050565b6000610c7160ff841683612d01565b80820180821115610ac157610ac1612c95565b634e487b7160e01b600052603260045260246000fd5b600060018201612dec57612dec612c95565b5060010190565b60008083548160018260011c91506001831680612e1157607f831692505b60208084108203612e3057634e487b7160e01b86526022600452602486fd5b818015612e445760018114612e5957612e86565b60ff1986168952841515850289019650612e86565b60008a81526020902060005b86811015612e7e5781548b820152908501908301612e65565b505084890196505b509498975050505050505050565b60006060820160018060a01b0386168352602067ffffffffffffffff861660208501526060604085015281855180845260808601915060808160051b87010193506020870160005b82811015612f0a57607f19888703018452612ef8868351612999565b95509284019290840190600101612edc565b50939998505050505050505050565b60008251612f2b818460208701612975565b9190910192915050565b8051600381900b81146129ef57600080fd5b805167ffffffffffffffff811681146129ef57600080fd5b600080600060608486031215612f7457600080fd5b612f7d84612f35565b92506020612f8c818601612f47565b9250604085015167ffffffffffffffff80821115612fa957600080fd5b818701915087601f830112612fbd57600080fd5b815181811115612fcf57612fcf612b93565b8060051b9150612fe0848301612ba9565b818152918301840191848101908a841115612ffa57600080fd5b938501935b8385101561302b57845192508260070b831461301b5760008081fd5b8282529385019390850190612fff565b8096505050505050509250925092565b60006020828403121561304d57600080fd5b610c7182612f35565b6001600160a01b038416815267ffffffffffffffff83166020808301919091526060604083018190528351908301819052600091848101916080850190845b818110156130b457845160070b83529383019391830191600101613095565b509098975050505050505050565b600080604083850312156130d557600080fd5b6130de83612f35565b9150612ab160208401612f47565b8082028115828204841417610ac157610ac1612c95565b60008261312057634e487b7160e01b600052601260045260246000fd5b50049056feddf252ad1be2c89b69c2b068fc378daa952ba7f163c4a11628f55a4df523b3efa264697066735822122038db6f0101b81e67aa690826a6e5c6788e6f1b72661fb754f8bd51a3d741514964736f6c63430008180033a2646970667358221220c538f7635955c970bdcef14e059099e9ba784d661f8aa63f6c94a67d3864e7b364736f6c63430008180033",
  "linkReferences": {},
  "deployedLinkReferences": {}
}