{
  "_format": "hh-sol-artifact-1",
  "contractName": "VaultFactory",
  "sourceName": "contracts/erc4626/factory/VaultFactory.sol",
  "abi": [
    {
      "inputs": [],
      "stateMutability": "nonpayable",
      "type": "constructor"
    },
    {
      "inputs": [
        {
          "internalType": "address",
          "name": "owner",
          "type": "address"
        }
      ],
      "name": "OwnableInvalidOwner",
      "type": "error"
    },
    {
      "inputs": [
        {
          "internalType": "address",
          "name": "account",
          "type": "address"
        }
      ],
      "name": "OwnableUnauthorizedAccount",
      "type": "error"
    },
    {
      "anonymous": false,
      "inputs": [
        {
          "indexed": true,
          "internalType": "address",
          "name": "previousOwner",
          "type": "address"
        },
        {
          "indexed": true,
          "internalType": "address",
          "name": "newOwner",
          "type": "address"
        }
      ],
      "name": "OwnershipTransferred",
      "type": "event"
    },
    {
      "anonymous": false,
      "inputs": [
        {
          "indexed": true,
          "internalType": "address",
          "name": "vault",
          "type": "address"
        },
        {
          "indexed": false,
          "internalType": "string",
          "name": "name",
          "type": "string"
        },
        {
          "indexed": false,
          "internalType": "string",
          "name": "symbol",
          "type": "string"
        }
      ],
      "name": "VaultDeployed",
      "type": "event"
    },
    {
      "inputs": [
        {
          "internalType": "address",
          "name": "vault",
          "type": "address"
        }
      ],
      "name": "availableVaults",
      "outputs": [
        {
          "internalType": "bool",
          "name": "",
          "type": "bool"
        }
      ],
      "stateMutability": "view",
      "type": "function"
    },
    {
      "inputs": [
        {
          "internalType": "string",
          "name": "salt",
          "type": "string"
        },
        {
          "components": [
            {
              "internalType": "address",
              "name": "stakingToken",
              "type": "address"
            },
            {
              "internalType": "string",
              "name": "shareTokenName",
              "type": "string"
            },
            {
              "internalType": "string",
              "name": "shareTokenSymbol",
              "type": "string"
            },
            {
              "internalType": "address",
              "name": "vaultRewardController",
              "type": "address"
            },
            {
              "internalType": "address",
              "name": "feeConfigController",
              "type": "address"
            }
          ],
          "internalType": "struct IVaultFactory.VaultDetails",
          "name": "vaultDetails",
          "type": "tuple"
        },
        {
          "components": [
            {
              "internalType": "address",
              "name": "receiver",
              "type": "address"
            },
            {
              "internalType": "address",
              "name": "token",
              "type": "address"
            },
            {
              "internalType": "uint256",
              "name": "feePercentage",
              "type": "uint256"
            }
          ],
          "internalType": "struct FeeConfiguration.FeeConfig",
          "name": "feeConfig",
          "type": "tuple"
        }
      ],
      "name": "deployVault",
      "outputs": [
        {
          "internalType": "address",
          "name": "vault",
          "type": "address"
        }
      ],
      "stateMutability": "payable",
      "type": "function"
    },
    {
      "inputs": [
        {
          "internalType": "address",
          "name": "vault",
          "type": "address"
        }
      ],
      "name": "isVaultAvailable",
      "outputs": [
        {
          "internalType": "bool",
          "name": "",
          "type": "bool"
        }
      ],
      "stateMutability": "view",
      "type": "function"
    },
    {
      "inputs": [],
      "name": "owner",
      "outputs": [
        {
          "internalType": "address",
          "name": "",
          "type": "address"
        }
      ],
      "stateMutability": "view",
      "type": "function"
    },
    {
      "inputs": [],
      "name": "renounceOwnership",
      "outputs": [],
      "stateMutability": "nonpayable",
      "type": "function"
    },
    {
      "inputs": [
        {
          "internalType": "bytes4",
          "name": "interfaceId",
          "type": "bytes4"
        }
      ],
      "name": "supportsInterface",
      "outputs": [
        {
          "internalType": "bool",
          "name": "",
          "type": "bool"
        }
      ],
      "stateMutability": "view",
      "type": "function"
    },
    {
      "inputs": [
        {
          "internalType": "address",
          "name": "newOwner",
          "type": "address"
        }
      ],
      "name": "transferOwnership",
      "outputs": [],
      "stateMutability": "nonpayable",
      "type": "function"
    },
    {
      "inputs": [
        {
          "internalType": "string",
          "name": "",
          "type": "string"
        }
      ],
      "name": "vaultDeployed",
      "outputs": [
        {
          "internalType": "address",
          "name": "",
          "type": "address"
        }
      ],
      "stateMutability": "view",
      "type": "function"
    }
  ],
  "bytecode": "0x608060405234801561001057600080fd5b50338061003757604051631e4fbdf760e01b81526000600482015260240160405180910390fd5b61004081610046565b50610096565b600080546001600160a01b038381166001600160a01b0319831681178455604051919092169283917f8be0079c531659141344cd1fd0a4f28419497f9722a3daafe3b4186f6b6457e09190a35050565b614f00806100a56000396000f3fe608060405260043610620000855760003560e01c80638da5cb5b11620000545780638da5cb5b1462000142578063f26eb0fd1462000162578063f2fde38b146200019f578063fe738c8314620001c457600080fd5b806301ffc9a7146200008a5780630f98d41114620000c4578063715018a614620000f85780637bac419d1462000112575b600080fd5b3480156200009757600080fd5b50620000af620000a93660046200074e565b62000209565b60405190151581526020015b60405180910390f35b348015620000d157600080fd5b50620000af620000e336600462000781565b60016020526000908152604090205460ff1681565b3480156200010557600080fd5b506200011062000241565b005b6200012962000123366004620007c5565b62000259565b6040516001600160a01b039091168152602001620000bb565b3480156200014f57600080fd5b506000546001600160a01b031662000129565b3480156200016f57600080fd5b50620000af6200018136600462000781565b6001600160a01b031660009081526001602052604090205460ff1690565b348015620001ac57600080fd5b5062000110620001be36600462000781565b62000514565b348015620001d157600080fd5b5062000129620001e33660046200088f565b80516020818301810180516002825292820191909301209152546001600160a01b031681565b60006001600160e01b0319821663044e178b60e51b14806200023b57506301ffc9a760e01b6001600160e01b03198316145b92915050565b6200024b62000558565b62000257600062000587565b565b6000806001600160a01b031660028686604051620002799291906200094a565b908152604051908190036020019020546001600160a01b031614620002de5760405162461bcd60e51b815260206004820152601660248201527515985d5b1d08185b1c9958591e4819195c1b1bde595960521b60448201526064015b60405180910390fd5b6000620002ef602085018562000781565b6001600160a01b0316036200033f5760405162461bcd60e51b815260206004820152601560248201527424b73b30b634b21039ba30b5b4b733903a37b5b2b760591b6044820152606401620002d5565b600062000353608085016060860162000781565b6001600160a01b031603620003b55760405162461bcd60e51b815260206004820152602160248201527f496e76616c69642072657761726420636f6e74726f6c6c6572206164647265736044820152607360f81b6064820152608401620002d5565b6000620003c960a085016080860162000781565b6001600160a01b031603620004215760405162461bcd60e51b815260206004820152601e60248201527f496e76616c69642066656520636f6e74726f6c6c6572206164647265737300006044820152606401620002d5565b6200042f85858585620005d7565b6001600160a01b038116600081815260016020819052604091829020805460ff191690911790555163f2fde38b60e01b81523360048201529192509063f2fde38b90602401600060405180830381600087803b1580156200048f57600080fd5b505af1158015620004a4573d6000803e3d6000fd5b5050506001600160a01b03821690507fd2cdcadeca6ad2e3691c1a25b1067ee469fb437fd70f08d97d607e652c1146d0620004e360208601866200095a565b620004f260408801886200095a565b604051620005049493929190620009d4565b60405180910390a2949350505050565b6200051e62000558565b6001600160a01b0381166200054a57604051631e4fbdf760e01b815260006004820152602401620002d5565b620005558162000587565b50565b6000546001600160a01b03163314620002575760405163118cdaa760e01b8152336004820152602401620002d5565b600080546001600160a01b038381166001600160a01b0319831681178455604051919092169283917f8be0079c531659141344cd1fd0a4f28419497f9722a3daafe3b4186f6b6457e09190a35050565b60008060405180602001620005ec9062000740565b601f1982820381018352601f909101166040529050600062000612602086018662000781565b6200062160208701876200095a565b6200063060408901896200095a565b6200063f60208a018a62000781565b6200065160408b0160208c0162000781565b60408b01356200066860808e0160608f0162000781565b8d60800160208101906200067d919062000781565b604051602001620006989a9998979695949392919062000a0a565b604051602081830303815290604052905060008282604051602001620006c092919062000ab0565b6040516020818303038152906040529050620006de888883620006ea565b98975050505050505050565b6000808484604051602001620007029291906200094a565b604051602081830303815290604052805190602001209050600083602001845183818334f592505050803b6200073757600080fd5b95945050505050565b6143f98062000ad283390190565b6000602082840312156200076157600080fd5b81356001600160e01b0319811681146200077a57600080fd5b9392505050565b6000602082840312156200079457600080fd5b81356001600160a01b03811681146200077a57600080fd5b600060608284031215620007bf57600080fd5b50919050565b60008060008060a08587031215620007dc57600080fd5b843567ffffffffffffffff80821115620007f557600080fd5b818701915087601f8301126200080a57600080fd5b8135818111156200081a57600080fd5b8860208285010111156200082d57600080fd5b6020928301965094509086013590808211156200084957600080fd5b50850160a081880312156200085d57600080fd5b91506200086e8660408701620007ac565b905092959194509250565b634e487b7160e01b600052604160045260246000fd5b600060208284031215620008a257600080fd5b813567ffffffffffffffff80821115620008bb57600080fd5b818401915084601f830112620008d057600080fd5b813581811115620008e557620008e562000879565b604051601f8201601f19908116603f0116810190838211818310171562000910576200091062000879565b816040528281528760208487010111156200092a57600080fd5b826020860160208301376000928101602001929092525095945050505050565b8183823760009101908152919050565b6000808335601e198436030181126200097257600080fd5b83018035915067ffffffffffffffff8211156200098e57600080fd5b602001915036819003821315620009a457600080fd5b9250929050565b81835281816020850137506000828201602090810191909152601f909101601f19169091010190565b604081526000620009ea604083018688620009ab565b8281036020840152620009ff818587620009ab565b979650505050505050565b6001600160a01b038b811682526101006020830181905260009162000a338483018d8f620009ab565b9150838203604085015262000a4a828b8d620009ab565b98811660608501529687166080840152505060a081019390935290831660c083015290911660e09091015295945050505050565b6000815160005b8181101562000aa1576020818501810151868301520162000a85565b50600093019283525090919050565b600062000ac962000ac2838662000a7e565b8462000a7e565b94935050505056fe610100604052604051620043f9380380620043f9833981016040819052620000279162000b0a565b338585886001600160a01b031663313ce5676040518163ffffffff1660e01b8152600401602060405180830381865afa15801562000069573d6000803e3d6000fd5b505050506040513d601f19601f820116820180604052508101906200008f919062000c03565b60006200009d848262000cc0565b506001620000ac838262000cc0565b5060ff81166080524660a052620000c26200013c565b60c0525050506001600160a01b038116620000f857604051631e4fbdf760e01b8152600060048201526024015b60405180910390fd5b6200010381620001d8565b506001600b55620001168383836200022a565b6001600160a01b03861660e05262000130858588620002b0565b505050505050620010d7565b60007f8b73c3c69bb8fe3d512ecc4cf759cc79239f7b179b0ffacaa9a75d522b39400f600060405162000170919062000d8c565b6040805191829003822060208301939093528101919091527fc89efdaa54c0f20c7adf612882df0950f5a951637e0307cdcb4c672f298b8bc660608201524660808201523060a082015260c00160405160208183030381529060405280519060200120905090565b600a80546001600160a01b038381166001600160a01b0319831681179093556040519116919082907f8be0079c531659141344cd1fd0a4f28419497f9722a3daafe3b4186f6b6457e090600090a35050565b8251602084015160408501516200024392919062000553565b6200025060003362000613565b506200027d7f477fc23fb51bb5d5aa814872a393b0e4f35d0916c7503c0fd96584681070d4108362000613565b50620002aa7f74e458455daa935f28c556b43e0cc4ad001a8a090f5feee376681e97d4618f468262000613565b50505050565b620002bc8130620006c6565b6040805160a08082018352600080835260208084018290526060848601819052808501819052306080808701829052875195860188528486528584018590528588018390528583018390528501528551600280825291810190965260109560019594939290919082015b6200033062000989565b815260200190600190039081620003265790505090506040518060400160405280868152602001848152508160008151811062000371576200037162000e0a565b602002602001018190525060405180604001604052808581526020018381525081600181518110620003a757620003a762000e0a565b6020026020010181905250620003ec6040518060600160405280600063ffffffff16815260200160006001600160a01b03168152602001600063ffffffff1681525090565b306020820152627a120060408201526200046260408051610120810182526060808252602080830182905260008385018190528284018390526080840181905260a0840181905260c0840181905260e0840183905284519283018552808352908201819052928101929092529061010082015290565b89815260208082018a905230604080840191909152610100830184905260e08301859052805163313ce56760e01b81529051620004ff9284926000926001600160a01b038e169263313ce56792600480820193918290030181865afa158015620004d0573d6000803e3d6000fd5b505050506040513d601f19601f82011682018060405250810190620004f6919062000c03565b60ff16620007f5565b600c80546001600160a01b0319166001600160a01b039290921691821790556040517f7bb17726df1f3adee8aa00ba8e8bc5d6f182af3bbf77604639cb7f008dd3b4ed90600090a250505050505050505050565b6127108110620005985760405162461bcd60e51b815260206004820152600f60248201526e46433a20496e76616c69642066656560881b6044820152606401620000ef565b600780546001600160a01b038581166001600160a01b0319928316811790935560088054918616919092168117909155600983905560408051928352602083019190915281018290527febd34b2df88ea5c9f67c04b13b08e5e63c2d17e269aab73b866fe47a8736a2649060600160405180910390a1505050565b60008281526006602090815260408083206001600160a01b038516845290915281205460ff16620006bc5760008381526006602090815260408083206001600160a01b03861684529091529020805460ff19166001179055620006733390565b6001600160a01b0316826001600160a01b0316847f2f8788117e7eff1d82e926ec794901d17c78024a50270940304540a733656f0d60405160405180910390a4506001620006c0565b5060005b92915050565b604080516001600160a01b038381166024830152841660448083019190915282518083039091018152606490910182526020810180516001600160e01b031663248a35ef60e11b1790529051600091829182916101679162000729919062000e20565b6000604051808303816000865af19150503d806000811462000768576040519150601f19603f3d011682016040523d82523d6000602084013e6200076d565b606091505b5091509150816200078057601562000796565b8080602001905181019062000796919062000e51565b9250600383900b601614620007ee5760405162461bcd60e51b815260206004820152601f60248201527f536166652073696e676c65206173736f63696174696f6e206661696c656421006044820152606401620000ef565b5050505050565b61010083015151600090849063ffffffff161580156200082257506101008101516040015163ffffffff16155b1562000839576101008101516276a7006040909101525b60008060006101676001600160a01b031634637812a04b60e01b8a8a8a6040516024016200086a9392919062000f6e565b60408051601f198184030181529181526020820180516001600160e01b03166001600160e01b0319909416939093179092529051620008aa919062000e20565b60006040518083038185875af1925050503d8060008114620008e9576040519150601f19603f3d011682016040523d82523d6000602084013e620008ee565b606091505b50915091508162000903576015600062000919565b808060200190518101906200091991906200109b565b95509250600383900b6016146200097e5760405162461bcd60e51b815260206004820152602260248201527f53616665206372656174652066756e6769626c6520746f6b656e206661696c65604482015261642160f01b6064820152608401620000ef565b505050509392505050565b604051806040016040528060008152602001620009e26040518060a0016040528060001515815260200160006001600160a01b03168152602001606081526020016060815260200160006001600160a01b031681525090565b905290565b6001600160a01b0381168114620009fd57600080fd5b50565b634e487b7160e01b600052604160045260246000fd5b604051606081016001600160401b038111828210171562000a3b5762000a3b62000a00565b60405290565b60005b8381101562000a5e57818101518382015260200162000a44565b50506000910152565b600082601f83011262000a7957600080fd5b81516001600160401b038082111562000a965762000a9662000a00565b604051601f8301601f19908116603f0116810190828211818310171562000ac15762000ac162000a00565b8160405283815286602085880101111562000adb57600080fd5b62000aee84602083016020890162000a41565b9695505050505050565b805162000b0581620009e7565b919050565b60008060008060008086880361010081121562000b2657600080fd5b875162000b3381620009e7565b60208901519097506001600160401b038082111562000b5157600080fd5b62000b5f8b838c0162000a67565b975060408a015191508082111562000b7657600080fd5b5062000b858a828b0162000a67565b9550506060605f198201121562000b9b57600080fd5b5062000ba662000a16565b606088015162000bb681620009e7565b8152608088015162000bc881620009e7565b602082015260a08801516040820152925062000be760c0880162000af8565b915062000bf760e0880162000af8565b90509295509295509295565b60006020828403121562000c1657600080fd5b815160ff8116811462000c2857600080fd5b9392505050565b600181811c9082168062000c4457607f821691505b60208210810362000c6557634e487b7160e01b600052602260045260246000fd5b50919050565b601f82111562000cbb576000816000526020600020601f850160051c8101602086101562000c965750805b601f850160051c820191505b8181101562000cb75782815560010162000ca2565b5050505b505050565b81516001600160401b0381111562000cdc5762000cdc62000a00565b62000cf48162000ced845462000c2f565b8462000c6b565b602080601f83116001811462000d2c576000841562000d135750858301515b600019600386901b1c1916600185901b17855562000cb7565b600085815260208120601f198616915b8281101562000d5d5788860151825594840194600190910190840162000d3c565b508582101562000d7c5787850151600019600388901b60f8161c191681555b5050505050600190811b01905550565b600080835462000d9c8162000c2f565b6001828116801562000db7576001811462000dcd5762000dfe565b60ff198416875282151583028701945062000dfe565b8760005260208060002060005b8581101562000df55781548a82015290840190820162000dda565b50505082870194505b50929695505050505050565b634e487b7160e01b600052603260045260246000fd5b6000825162000e3481846020870162000a41565b9190910192915050565b8051600381900b811462000b0557600080fd5b60006020828403121562000e6457600080fd5b62000c288262000e3e565b6000815180845262000e8981602086016020860162000a41565b601f01601f19169290920160200192915050565b600082825180855260208086019550808260051b84010181860160005b8481101562000f6157858303601f1901895281518051845284015160408585018190528151151581860152818601516001600160a01b039081166060808801919091529183015160a0608080890182905291939092909162000f2060e08a018662000e6f565b92860151898403603f1901858b015292945062000f3e858462000e6f565b9501511660c0979097019690965250509884019892509083019060010162000eba565b5090979650505050505050565b606081526000845161016080606085015262000f8f6101c085018362000e6f565b91506020870151605f198086850301608087015262000faf848362000e6f565b93506040890151915062000fce60a08701836001600160a01b03169052565b60608901519150808685030160c087015262000feb848362000e6f565b9350608089015191506200100360e087018315159052565b60a089015191506101006200101f8188018463ffffffff169052565b60c08a0151151561012088015260e08a0151878603830161014089015292506200104a858462000e9d565b9450808a0151925050506200108782860182805163ffffffff90811683526020808301516001600160a01b03169084015260409182015116910152565b505060208301949094525060400152919050565b60008060408385031215620010af57600080fd5b620010ba8362000e3e565b91506020830151620010cc81620009e7565b809150509250929050565b60805160a05160c05160e0516132b0620011496000396000818161061601528181610ac201528181610c8d015281816110780152818161137f0152818161148b015281816117af015261190b01526000610f2001526000610ef00152600081816105590152610e5901526132b06000f3fe6080604052600436106102ff5760003560e01c80637bb7bed111610190578063b4f6d613116100dc578063d505accf11610095578063dd62ed3e1161006f578063dd62ed3e14610a12578063ef8b30f714610a4a578063efa6f42514610a6a578063f2fde38b14610a8a57600080fd5b8063d505accf1461099c578063d547741f146109bc578063d905777e146109dc57600080fd5b8063b4f6d613146108ba578063ba087652146108ee578063c4f59f9b1461090e578063c63d75b614610650578063cd9cdfda14610930578063ce96cb771461097c57600080fd5b806395d89b4111610149578063a8d5fd6511610123578063a8d5fd651461083a578063a9059cbb1461085a578063b3d7f6b91461087a578063b460af941461089a57600080fd5b806395d89b41146107fd5780639feb8f5014610812578063a217fddf1461082557600080fd5b80637bb7bed11461073c5780637ecebe001461075c5780638da5cb5b146107895780638f12c2f4146107a757806391d14854146107bd57806394bf804d146107dd57600080fd5b8063313ce5671161024f578063402d267d116102085780636e553f65116101e25780636e553f65146106b257806370a08231146106d2578063715018a6146106ff5780637a07bf3a1461071457600080fd5b8063402d267d146106505780634cdad506146106725780635ab764ed1461069257600080fd5b8063313ce5671461054757806335d16e171461058d578063362a3fad146105a25780633644e515146105cf57806336568abe146105e457806338d52e0f1461060457600080fd5b806316ad0672116102bc57806323b872dd1161029657806323b872dd146104b5578063248a9ca3146104d55780632c62fa10146105055780632f2ff15d1461052557600080fd5b806316ad0672146103f257806318160ddd1461044e5780631e5eb1d01461046457600080fd5b806301e1d1141461030457806301ffc9a71461032c57806305fb2a511461035c57806306fdde0314610390578063095ea7b3146103b25780630a28a477146103d2575b600080fd5b34801561031057600080fd5b50610319610aaa565b6040519081526020015b60405180910390f35b34801561033857600080fd5b5061034c6103473660046129fb565b610b3a565b6040519015158152602001610323565b34801561036857600080fd5b506103197f74e458455daa935f28c556b43e0cc4ad001a8a090f5feee376681e97d4618f4681565b34801561039c57600080fd5b506103a5610b71565b6040516103239190612a75565b3480156103be57600080fd5b5061034c6103cd366004612aa4565b610bff565b3480156103de57600080fd5b506103196103ed366004612ace565b610c6b565b3480156103fe57600080fd5b5061043161040d366004612ae7565b600f6020526000908152604090208054600182015460039092015490919060ff1683565b604080519384526020840192909252151590820152606001610323565b34801561045a57600080fd5b5061031960025481565b34801561047057600080fd5b5060075460085460095461048f926001600160a01b0390811692169083565b604080516001600160a01b03948516815293909216602084015290820152606001610323565b3480156104c157600080fd5b5061034c6104d0366004612b02565b610d22565b3480156104e157600080fd5b506103196104f0366004612ace565b60009081526006602052604090206001015490565b34801561051157600080fd5b50610319610520366004612ae7565b610e02565b34801561053157600080fd5b50610545610540366004612b3e565b610e24565b005b34801561055357600080fd5b5061057b7f000000000000000000000000000000000000000000000000000000000000000081565b60405160ff9091168152602001610323565b34801561059957600080fd5b50610319610e4f565b3480156105ae57600080fd5b506105c26105bd366004612ae7565b610e7f565b6040516103239190612b6a565b3480156105db57600080fd5b50610319610eec565b3480156105f057600080fd5b506105456105ff366004612b3e565b610f42565b34801561061057600080fd5b506106387f000000000000000000000000000000000000000000000000000000000000000081565b6040516001600160a01b039091168152602001610323565b34801561065c57600080fd5b5061031961066b366004612ae7565b5060001990565b34801561067e57600080fd5b5061031961068d366004612ace565b610f7a565b34801561069e57600080fd5b506103196106ad366004612bae565b610f9c565b3480156106be57600080fd5b506103196106cd366004612b3e565b61102d565b3480156106de57600080fd5b506103196106ed366004612ae7565b60036020526000908152604090205481565b34801561070b57600080fd5b5061054561116e565b610727610722366004612ace565b611182565b60408051928352602083019190915201610323565b34801561074857600080fd5b50610638610757366004612ace565b6112a1565b34801561076857600080fd5b50610319610777366004612ae7565b60056020526000908152604090205481565b34801561079557600080fd5b50600a546001600160a01b0316610638565b3480156107b357600080fd5b50610319600d5481565b3480156107c957600080fd5b5061034c6107d8366004612b3e565b6112cb565b3480156107e957600080fd5b506103196107f8366004612b3e565b6112f6565b34801561080957600080fd5b506103a56113b0565b610545610820366004612aa4565b6113bd565b34801561083157600080fd5b50610319600081565b34801561084657600080fd5b50600c54610638906001600160a01b031681565b34801561086657600080fd5b5061034c610875366004612aa4565b6116b0565b34801561088657600080fd5b50610319610895366004612ace565b611716565b3480156108a657600080fd5b506103196108b5366004612bd8565b611738565b3480156108c657600080fd5b506103197f477fc23fb51bb5d5aa814872a393b0e4f35d0916c7503c0fd96584681070d41081565b3480156108fa57600080fd5b50610319610909366004612bd8565b611836565b34801561091a57600080fd5b5061092361193c565b6040516103239190612c14565b34801561093c57600080fd5b5061096761094b366004612ae7565b6010602052600090815260409020805460019091015460ff1682565b60408051928352901515602083015201610323565b34801561098857600080fd5b50610319610997366004612ae7565b61199e565b3480156109a857600080fd5b506105456109b7366004612c55565b6119a9565b3480156109c857600080fd5b506105456109d7366004612b3e565b611bed565b3480156109e857600080fd5b506103196109f7366004612ae7565b6001600160a01b031660009081526003602052604090205490565b348015610a1e57600080fd5b50610319610a2d366004612bae565b600460209081526000928352604080842090915290825290205481565b348015610a5657600080fd5b50610319610a65366004612ace565b611c12565b348015610a7657600080fd5b50610545610a85366004612d0f565b611c33565b348015610a9657600080fd5b50610545610aa5366004612ae7565b611c78565b6040516370a0823160e01b81523060048201526000907f00000000000000000000000000000000000000000000000000000000000000006001600160a01b0316906370a0823190602401602060405180830381865afa158015610b11573d6000803e3d6000fd5b505050506040513d601f19601f82011682018060405250810190610b359190612d77565b905090565b60006001600160e01b03198216637965db0b60e01b1480610b6b57506301ffc9a760e01b6001600160e01b03198316145b92915050565b60008054610b7e90612d90565b80601f0160208091040260200160405190810160405280929190818152602001828054610baa90612d90565b8015610bf75780601f10610bcc57610100808354040283529160200191610bf7565b820191906000526020600020905b815481529060010190602001808311610bda57829003601f168201915b505050505081565b3360008181526004602090815260408083206001600160a01b038716808552925280832085905551919290917f8c5be1e5ebec7d5bd14f71427d1e84f3dd0314c0f7b2291e5b200ac8c7c3b92590610c5a9086815260200190565b60405180910390a350600192915050565b6040516370a0823160e01b815230600482015260009081906001600160a01b037f000000000000000000000000000000000000000000000000000000000000000016906370a0823190602401602060405180830381865afa158015610cd4573d6000803e3d6000fd5b505050506040513d601f19601f82011682018060405250810190610cf89190612d77565b90508015610d1957610d1481610d0c610aaa565b859190611cb6565b610d1b565b825b9392505050565b6001600160a01b03831660009081526004602090815260408083203384529091528120546000198114610d7e57610d598382612de0565b6001600160a01b03861660009081526004602090815260408083203384529091529020555b6001600160a01b03851660009081526003602052604081208054859290610da6908490612de0565b90915550506001600160a01b038085166000818152600360205260409081902080548701905551909187169060008051602061325b83398151915290610def9087815260200190565b60405180910390a3506001949350505050565b6001600160a01b038116600090815260036020526040812054610b6b90610f7a565b600082815260066020526040902060010154610e3f81611cdc565b610e498383611ce6565b50505050565b6000610b3561068d7f0000000000000000000000000000000000000000000000000000000000000000600a612ed7565b60608060005b600e54811015610ee557610ec084600e8381548110610ea657610ea6612ee6565b6000918252602090912001546001600160a01b0316610f9c565b828281518110610ed257610ed2612ee6565b6020908102919091010152600101610e85565b5092915050565b60007f00000000000000000000000000000000000000000000000000000000000000004614610f1d57610b35611d7a565b507f000000000000000000000000000000000000000000000000000000000000000090565b6001600160a01b0381163314610f6b5760405163334bd91960e11b815260040160405180910390fd5b610f758282611e14565b505050565b6002546000908015610d1957610d14610f91610aaa565b600254859190611e81565b6001600160a01b03808216600081815260106020908152604080832080549588168452600f83528184208054958552600281019093529083205492949093909285610fe78286612de0565b9050610ff581600185611e81565b6009549097501561102157600061101188600760020154611e9f565b905061101d8189612de0565b9750505b50505050505092915050565b6000611037611f1f565b61104083611c12565b90508060000361106b57604051636e3699b760e11b8152600481018490526024015b60405180910390fd5b6110a06001600160a01b037f000000000000000000000000000000000000000000000000000000000000000016333086611f49565b82600d60008282546110b29190612efc565b9091555050600c54604080516000808252602082019092526110fb926001600160a01b0316918691906110f5565b60608152602001906001900390816110e05790505b50611fd3565b5050600c54611115906001600160a01b0316303386612116565b60408051848152602081018390526001600160a01b0384169133917fdcbc1c05240f31ff3ad067ef1ee35ce4997762752e3a095284754544f4c709d7910160405180910390a36111648361224f565b610b6b6001600b55565b6111766123da565b6111806000612407565b565b600e5460085460009182916001600160a01b0316845b82811080156111b057506111ad86600a612efc565b81105b1561129657600080600e83815481106111cb576111cb612ee6565b6000918252602080832090910154338352600f8252604080842080546001600160a01b03909316808652600290910184528185205460109094529320549293506112229260019261121b91612de0565b9190611e81565b6001600160a01b03821660008181526010602090815260408083205433808552600f8452828520958552600290950190925290912055909250611269908290309085612116565b6001600160a01b038416156112815761128182612459565b5050808061128e90612f0f565b915050611198565b509394909350915050565b600e81815481106112b157600080fd5b6000918252602090912001546001600160a01b0316905081565b60009182526006602090815260408084206001600160a01b0393909316845291905290205460ff1690565b6000611300611f1f565b6113158261130d85611716565b92508261254e565b80600d60008282546113279190612efc565b909155505060408051828152602081018590526001600160a01b0384169133917fdcbc1c05240f31ff3ad067ef1ee35ce4997762752e3a095284754544f4c709d7910160405180910390a36113a76001600160a01b037f000000000000000000000000000000000000000000000000000000000000000016333084611f49565b6111648161224f565b60018054610b7e90612d90565b7f477fc23fb51bb5d5aa814872a393b0e4f35d0916c7503c0fd96584681070d4106113e781611cdc565b816000036114375760405162461bcd60e51b815260206004820152601b60248201527f5661756c743a20416d6f756e742063616e2774206265207a65726f00000000006044820152606401611062565b600d546000036114895760405162461bcd60e51b815260206004820152601a60248201527f5661756c743a204e6f20746f6b656e207374616b6564207965740000000000006044820152606401611062565b7f00000000000000000000000000000000000000000000000000000000000000006001600160a01b0316836001600160a01b0316141580156114d95750600c546001600160a01b03848116911614155b61153d5760405162461bcd60e51b815260206004820152602f60248201527f5661756c743a2052657761726420616e64205374616b696e6720746f6b656e7360448201526e2063616e6e6f742062652073616d6560881b6064820152608401611062565b600e54600a0361156057604051637561e0ab60e01b815260040160405180910390fd5b600061157a6001600d5485611e819092919063ffffffff16565b6001600160a01b038516600090815260106020526040902060018101549192509060ff1661162357600e8054600180820183556000929092527fbb7b4a454dc3493923482f07822329ed19e8244eff582cc204f8554c3620c3fd0180546001600160a01b0319166001600160a01b038816179055818101805460ff1916909117905581815561160985306125a8565b61161e6001600160a01b038616333087611f49565b611666565b6001600160a01b0385166000908152601060205260408120805484929061164b908490612efc565b9091555061166690506001600160a01b038616333087611f49565b846001600160a01b03167fac24935fd910bc682b5ccb1a07b718cadf8cf2f6d1404c4f3ddc3662dae40e29856040516116a191815260200190565b60405180910390a25050505050565b336000908152600360205260408120805483919083906116d1908490612de0565b90915550506001600160a01b0383166000818152600360205260409081902080548501905551339060008051602061325b83398151915290610c5a9086815260200190565b6002546000908015610d1957610d1461172d610aaa565b600254859190611cb6565b6000611742611f1f565b61174b846126c6565b83600d600082825461175d9190612de0565b9091555050600c5461177a906001600160a01b0316333087612116565b600c546040805160008152602081019091526117a1916001600160a01b03169086906126fe565b506117d66001600160a01b037f000000000000000000000000000000000000000000000000000000000000000016848661282a565b826001600160a01b0316826001600160a01b03167ff341246adaac6f497bc2a656f546ab9e182111d630394f0c57c710a59a2cb5678684604051611824929190918252602082015260400190565b60405180910390a3610d1b6001600b55565b6000611840611f1f565b61184984610f7a565b9050806000036118895760405162461bcd60e51b815260206004820152600b60248201526a5a45524f5f41535345545360a81b6044820152606401611062565b61189284610f7a565b905061189e82856128a2565b80600d60008282546118b09190612de0565b909155505060408051828152602081018690526001600160a01b0380861692908516917ff341246adaac6f497bc2a656f546ab9e182111d630394f0c57c710a59a2cb567910160405180910390a36119326001600160a01b037f000000000000000000000000000000000000000000000000000000000000000016848361282a565b610d1b6001600b55565b6060600e80548060200260200160405190810160405280929190818152602001828054801561199457602002820191906000526020600020905b81546001600160a01b03168152600190910190602001808311611976575b5050505050905090565b6000610b6b82610e02565b428410156119f95760405162461bcd60e51b815260206004820152601760248201527f5045524d49545f444541444c494e455f455850495245440000000000000000006044820152606401611062565b60006001611a05610eec565b6001600160a01b038a811660008181526005602090815260409182902080546001810190915582517f6e71edae12b1b97f4d1f60370fef10105fa2faae0126114a169c64845d6126c98184015280840194909452938d166060840152608083018c905260a083019390935260c08083018b90528151808403909101815260e08301909152805192019190912061190160f01b6101008301526101028201929092526101228101919091526101420160408051601f198184030181528282528051602091820120600084529083018083525260ff871690820152606081018590526080810184905260a0016020604051602081039080840390855afa158015611b11573d6000803e3d6000fd5b5050604051601f1901519150506001600160a01b03811615801590611b475750876001600160a01b0316816001600160a01b0316145b611b845760405162461bcd60e51b815260206004820152600e60248201526d24a72b20a624a22fa9a4a3a722a960911b6044820152606401611062565b6001600160a01b0390811660009081526004602090815260408083208a8516808552908352928190208990555188815291928a16917f8c5be1e5ebec7d5bd14f71427d1e84f3dd0314c0f7b2291e5b200ac8c7c3b925910160405180910390a350505050505050565b600082815260066020526040902060010154611c0881611cdc565b610e498383611e14565b6002546000908015610d1957610d146001611c2b610aaa565b859190611e81565b7f74e458455daa935f28c556b43e0cc4ad001a8a090f5feee376681e97d4618f46611c5d81611cdc565b611c74826000015183602001518460400151612904565b5050565b611c806123da565b6001600160a01b038116611caa57604051631e4fbdf760e01b815260006004820152602401611062565b611cb381612407565b50565b6000826000190484118302158202611ccd57600080fd5b50910281810615159190040190565b611cb381336129c2565b6000611cf283836112cb565b611d725760008381526006602090815260408083206001600160a01b03861684529091529020805460ff19166001179055611d2a3390565b6001600160a01b0316826001600160a01b0316847f2f8788117e7eff1d82e926ec794901d17c78024a50270940304540a733656f0d60405160405180910390a4506001610b6b565b506000610b6b565b60007f8b73c3c69bb8fe3d512ecc4cf759cc79239f7b179b0ffacaa9a75d522b39400f6000604051611dac9190612f28565b6040805191829003822060208301939093528101919091527fc89efdaa54c0f20c7adf612882df0950f5a951637e0307cdcb4c672f298b8bc660608201524660808201523060a082015260c00160405160208183030381529060405280519060200120905090565b6000611e2083836112cb565b15611d725760008381526006602090815260408083206001600160a01b0386168085529252808320805460ff1916905551339286917ff6391f5c32d9c69d2a47ea670b442974b53935d1edc7fd64eb21e047a839171b9190a4506001610b6b565b6000826000190484118302158202611e9857600080fd5b5091020490565b6000612710611eae8385612fc9565b1015611f085760405162461bcd60e51b8152602060048201526024808201527f46433a20546f6f20736d616c6c20616d6f756e7420746f20636f6e73696465726044820152632066656560e01b6064820152608401611062565b612710611f158385612fc9565b610d1b9190612fe0565b6002600b5403611f4257604051633ee5aeb560e01b815260040160405180910390fd5b6002600b55565b60006040516323b872dd60e01b81528460048201528360248201528260448201526020600060648360008a5af13d15601f3d1160016000511416171691505080611fcc5760405162461bcd60e51b81526020600482015260146024820152731514905394d1915497d19493d357d1905253115160621b6044820152606401611062565b5050505050565b6000606060008060006101676001600160a01b031663278e0b8860e01b89898960405160240161200593929190613002565b60408051601f198184030181529181526020820180516001600160e01b03166001600160e01b03199094169390931790925290516120439190613087565b6000604051808303816000865af19150503d8060008114612080576040519150601f19603f3d011682016040523d82523d6000602084013e612085565b606091505b5091509150816120a85760408051600080825260208201909252601591906120bc565b808060200190518101906120bc91906130cd565b90965094509250600383900b60161461210b5760405162461bcd60e51b815260206004820152601160248201527053616665206d696e74206661696c65642160781b6044820152606401611062565b505050935093915050565b604080516001600160a01b038681166024830152858116604483015284166064820152600783900b6084808301919091528251808303909101815260a490910182526020810180516001600160e01b031663eca3691760e01b179052905160009182918291610167916121899190613087565b6000604051808303816000865af19150503d80600081146121c6576040519150601f19603f3d011682016040523d82523d6000602084013e6121cb565b606091505b5091509150816121dc5760156121f0565b808060200190518101906121f091906131a9565b9250600383900b6016146122465760405162461bcd60e51b815260206004820152601b60248201527f5361666520746f6b656e207472616e73666572206661696c65642100000000006044820152606401611062565b50505050505050565b336000908152600f602052604090206003015460ff1661237a57600e5460005b81811015612333576000600e828154811061228c5761228c612ee6565b60009182526020808320909101546001600160a01b031680835260108252604080842054338552600f8452818520838652600201845281852055805163053aa6f360e11b815290519194508493630a754de693600480840194919391929183900301908290875af1158015612305573d6000803e3d6000fd5b505050506040513d601f19601f820116820180604052508101906123299190612d77565b505060010161226f565b50336000908152600f6020526040812083815560038101805460ff1916600190811790915542910155600d805484929061236e908490612efc565b90915550611cb3915050565b6123846000611182565b5050336000908152600f6020526040812080548392906123a5908490612efc565b9091555050336000908152600f6020526040812042600190910155600d80548392906123d2908490612efc565b909155505050565b600a546001600160a01b031633146111805760405163118cdaa760e01b8152336004820152602401611062565b600a80546001600160a01b038381166001600160a01b0319831681179093556040519116919082907f8be0079c531659141344cd1fd0a4f28419497f9722a3daafe3b4186f6b6457e090600090a35050565b6008546009546001600160a01b0390911690600090612479908490611e9f565b6040516370a0823160e01b815233600482015290915081906001600160a01b038416906370a0823190602401602060405180830381865afa1580156124c2573d6000803e3d6000fd5b505050506040513d601f19601f820116820180604052508101906124e69190612d77565b10156125345760405162461bcd60e51b815260206004820152601e60248201527f46433a20496e73756666696369656e7420746f6b656e2062616c616e636500006044820152606401611062565b600754610f7590839033906001600160a01b031684612116565b80600260008282546125609190612efc565b90915550506001600160a01b03821660008181526003602090815260408083208054860190555184815260008051602061325b83398151915291015b60405180910390a35050565b604080516001600160a01b038381166024830152841660448083019190915282518083039091018152606490910182526020810180516001600160e01b031663248a35ef60e11b179052905160009182918291610167916126099190613087565b6000604051808303816000865af19150503d8060008114612646576040519150601f19603f3d011682016040523d82523d6000602084013e61264b565b606091505b50915091508161265c576015612670565b8080602001905181019061267091906131a9565b9250600383900b601614611fcc5760405162461bcd60e51b815260206004820152601f60248201527f536166652073696e676c65206173736f63696174696f6e206661696c656421006044820152606401611062565b336000908152600f6020526040812080548392906126e5908490612de0565b9250508190555080600d60008282546123d29190612de0565b6000806000806101676001600160a01b031663acb9cff960e01b88888860405160240161272d939291906131c4565b60408051601f198184030181529181526020820180516001600160e01b03166001600160e01b031990941693909317909252905161276b9190613087565b6000604051808303816000865af19150503d80600081146127a8576040519150601f19603f3d011682016040523d82523d6000602084013e6127ad565b606091505b5091509150816127c057601560006127d4565b808060200190518101906127d49190613230565b94509250600383900b6016146128205760405162461bcd60e51b815260206004820152601160248201527053616665206275726e206661696c65642160781b6044820152606401611062565b5050509392505050565b600060405163a9059cbb60e01b8152836004820152826024820152602060006044836000895af13d15601f3d1160016000511416171691505080610e495760405162461bcd60e51b815260206004820152600f60248201526e1514905394d1915497d19052531151608a1b6044820152606401611062565b6001600160a01b038216600090815260036020526040812080548392906128ca908490612de0565b90915550506002805482900390556040518181526000906001600160a01b0384169060008051602061325b8339815191529060200161259c565b61271081106129475760405162461bcd60e51b815260206004820152600f60248201526e46433a20496e76616c69642066656560881b6044820152606401611062565b600780546001600160a01b038581166001600160a01b0319928316811790935560088054918616919092168117909155600983905560408051928352602083019190915281018290527febd34b2df88ea5c9f67c04b13b08e5e63c2d17e269aab73b866fe47a8736a2649060600160405180910390a1505050565b6129cc82826112cb565b611c745760405163e2517d3f60e01b81526001600160a01b038216600482015260248101839052604401611062565b600060208284031215612a0d57600080fd5b81356001600160e01b031981168114610d1b57600080fd5b60005b83811015612a40578181015183820152602001612a28565b50506000910152565b60008151808452612a61816020860160208601612a25565b601f01601f19169290920160200192915050565b602081526000610d1b6020830184612a49565b80356001600160a01b0381168114612a9f57600080fd5b919050565b60008060408385031215612ab757600080fd5b612ac083612a88565b946020939093013593505050565b600060208284031215612ae057600080fd5b5035919050565b600060208284031215612af957600080fd5b610d1b82612a88565b600080600060608486031215612b1757600080fd5b612b2084612a88565b9250612b2e60208501612a88565b9150604084013590509250925092565b60008060408385031215612b5157600080fd5b82359150612b6160208401612a88565b90509250929050565b6020808252825182820181905260009190848201906040850190845b81811015612ba257835183529284019291840191600101612b86565b50909695505050505050565b60008060408385031215612bc157600080fd5b612bca83612a88565b9150612b6160208401612a88565b600080600060608486031215612bed57600080fd5b83359250612bfd60208501612a88565b9150612c0b60408501612a88565b90509250925092565b6020808252825182820181905260009190848201906040850190845b81811015612ba25783516001600160a01b031683529284019291840191600101612c30565b600080600080600080600060e0888a031215612c7057600080fd5b612c7988612a88565b9650612c8760208901612a88565b95506040880135945060608801359350608088013560ff81168114612cab57600080fd5b9699959850939692959460a0840135945060c09093013592915050565b634e487b7160e01b600052604160045260246000fd5b604051601f8201601f1916810167ffffffffffffffff81118282101715612d0757612d07612cc8565b604052919050565b600060608284031215612d2157600080fd5b6040516060810181811067ffffffffffffffff82111715612d4457612d44612cc8565b604052612d5083612a88565b8152612d5e60208401612a88565b6020820152604083013560408201528091505092915050565b600060208284031215612d8957600080fd5b5051919050565b600181811c90821680612da457607f821691505b602082108103612dc457634e487b7160e01b600052602260045260246000fd5b50919050565b634e487b7160e01b600052601160045260246000fd5b81810381811115610b6b57610b6b612dca565b600181815b80851115612e2e578160001904821115612e1457612e14612dca565b80851615612e2157918102915b93841c9390800290612df8565b509250929050565b600082612e4557506001610b6b565b81612e5257506000610b6b565b8160018114612e685760028114612e7257612e8e565b6001915050610b6b565b60ff841115612e8357612e83612dca565b50506001821b610b6b565b5060208310610133831016604e8410600b8410161715612eb1575081810a610b6b565b612ebb8383612df3565b8060001904821115612ecf57612ecf612dca565b029392505050565b6000610d1b60ff841683612e36565b634e487b7160e01b600052603260045260246000fd5b80820180821115610b6b57610b6b612dca565b600060018201612f2157612f21612dca565b5060010190565b60008083548160018260011c91506001831680612f4657607f831692505b60208084108203612f6557634e487b7160e01b86526022600452602486fd5b818015612f795760018114612f8e57612fbb565b60ff1986168952841515850289019650612fbb565b60008a81526020902060005b86811015612fb35781548b820152908501908301612f9a565b505084890196505b509498975050505050505050565b8082028115828204841417610b6b57610b6b612dca565b600082612ffd57634e487b7160e01b600052601260045260246000fd5b500490565b60006060820160018060a01b0386168352602067ffffffffffffffff861660208501526060604085015281855180845260808601915060808160051b87010193506020870160005b8281101561307857607f19888703018452613066868351612a49565b9550928401929084019060010161304a565b50939998505050505050505050565b60008251613099818460208701612a25565b9190910192915050565b8051600381900b8114612a9f57600080fd5b805167ffffffffffffffff81168114612a9f57600080fd5b6000806000606084860312156130e257600080fd5b6130eb846130a3565b925060206130fa8186016130b5565b9250604085015167ffffffffffffffff8082111561311757600080fd5b818701915087601f83011261312b57600080fd5b81518181111561313d5761313d612cc8565b8060051b915061314e848301612cde565b818152918301840191848101908a84111561316857600080fd5b938501935b8385101561319957845192508260070b83146131895760008081fd5b828252938501939085019061316d565b8096505050505050509250925092565b6000602082840312156131bb57600080fd5b610d1b826130a3565b6001600160a01b038416815267ffffffffffffffff83166020808301919091526060604083018190528351908301819052600091848101916080850190845b8181101561322257845160070b83529383019391830191600101613203565b509098975050505050505050565b6000806040838503121561324357600080fd5b61324c836130a3565b9150612b61602084016130b556feddf252ad1be2c89b69c2b068fc378daa952ba7f163c4a11628f55a4df523b3efa26469706673582212203bff2a1f73711effacdf1548fe84ddf15a2c403f8f13ca98cb7d6a5aed6c178464736f6c63430008180033a264697066735822122001bd5c7b187ad4b852240d446928571e6771243d9d43cbfc2595da405792c2d564736f6c63430008180033",
  "linkReferences": {},
  "deployedLinkReferences": {}
}