{
  "_format": "hh-sol-artifact-1",
  "contractName": "VaultFactory",
  "sourceName": "contracts/erc4626/factory/VaultFactory.sol",
  "abi": [
    {
      "inputs": [],
      "stateMutability": "nonpayable",
      "type": "constructor"
    },
    {
      "inputs": [
        {
          "internalType": "address",
          "name": "owner",
          "type": "address"
        }
      ],
      "name": "OwnableInvalidOwner",
      "type": "error"
    },
    {
      "inputs": [
        {
          "internalType": "address",
          "name": "account",
          "type": "address"
        }
      ],
      "name": "OwnableUnauthorizedAccount",
      "type": "error"
    },
    {
      "anonymous": false,
      "inputs": [
        {
          "indexed": true,
          "internalType": "address",
          "name": "previousOwner",
          "type": "address"
        },
        {
          "indexed": true,
          "internalType": "address",
          "name": "newOwner",
          "type": "address"
        }
      ],
      "name": "OwnershipTransferred",
      "type": "event"
    },
    {
      "anonymous": false,
      "inputs": [
        {
          "indexed": true,
          "internalType": "address",
          "name": "vault",
          "type": "address"
        },
        {
          "indexed": false,
          "internalType": "string",
          "name": "name",
          "type": "string"
        },
        {
          "indexed": false,
          "internalType": "string",
          "name": "symbol",
          "type": "string"
        }
      ],
      "name": "VaultDeployed",
      "type": "event"
    },
    {
      "inputs": [
        {
          "internalType": "address",
          "name": "vault",
          "type": "address"
        }
      ],
      "name": "availableVaults",
      "outputs": [
        {
          "internalType": "bool",
          "name": "",
          "type": "bool"
        }
      ],
      "stateMutability": "view",
      "type": "function"
    },
    {
      "inputs": [
        {
          "internalType": "string",
          "name": "salt",
          "type": "string"
        },
        {
          "components": [
            {
              "internalType": "address",
              "name": "stakingToken",
              "type": "address"
            },
            {
              "internalType": "string",
              "name": "shareTokenName",
              "type": "string"
            },
            {
              "internalType": "string",
              "name": "shareTokenSymbol",
              "type": "string"
            },
            {
              "internalType": "address",
              "name": "vaultRewardController",
              "type": "address"
            },
            {
              "internalType": "address",
              "name": "feeConfigController",
              "type": "address"
            }
          ],
          "internalType": "struct IVaultFactory.VaultDetails",
          "name": "vaultDetails",
          "type": "tuple"
        },
        {
          "components": [
            {
              "internalType": "address",
              "name": "receiver",
              "type": "address"
            },
            {
              "internalType": "address",
              "name": "token",
              "type": "address"
            },
            {
              "internalType": "uint256",
              "name": "feePercentage",
              "type": "uint256"
            }
          ],
          "internalType": "struct FeeConfiguration.FeeConfig",
          "name": "feeConfig",
          "type": "tuple"
        }
      ],
      "name": "deployVault",
      "outputs": [
        {
          "internalType": "address",
          "name": "vault",
          "type": "address"
        }
      ],
      "stateMutability": "payable",
      "type": "function"
    },
    {
      "inputs": [
        {
          "internalType": "address",
          "name": "vault",
          "type": "address"
        }
      ],
      "name": "isVaultAvailable",
      "outputs": [
        {
          "internalType": "bool",
          "name": "",
          "type": "bool"
        }
      ],
      "stateMutability": "view",
      "type": "function"
    },
    {
      "inputs": [],
      "name": "owner",
      "outputs": [
        {
          "internalType": "address",
          "name": "",
          "type": "address"
        }
      ],
      "stateMutability": "view",
      "type": "function"
    },
    {
      "inputs": [],
      "name": "renounceOwnership",
      "outputs": [],
      "stateMutability": "nonpayable",
      "type": "function"
    },
    {
      "inputs": [
        {
          "internalType": "bytes4",
          "name": "interfaceId",
          "type": "bytes4"
        }
      ],
      "name": "supportsInterface",
      "outputs": [
        {
          "internalType": "bool",
          "name": "",
          "type": "bool"
        }
      ],
      "stateMutability": "view",
      "type": "function"
    },
    {
      "inputs": [
        {
          "internalType": "address",
          "name": "newOwner",
          "type": "address"
        }
      ],
      "name": "transferOwnership",
      "outputs": [],
      "stateMutability": "nonpayable",
      "type": "function"
    },
    {
      "inputs": [
        {
          "internalType": "string",
          "name": "",
          "type": "string"
        }
      ],
      "name": "vaultDeployed",
      "outputs": [
        {
          "internalType": "address",
          "name": "",
          "type": "address"
        }
      ],
      "stateMutability": "view",
      "type": "function"
    }
  ],
  "bytecode": "0x608060405234801561001057600080fd5b50338061003757604051631e4fbdf760e01b81526000600482015260240160405180910390fd5b61004081610046565b50610096565b600080546001600160a01b038381166001600160a01b0319831681178455604051919092169283917f8be0079c531659141344cd1fd0a4f28419497f9722a3daafe3b4186f6b6457e09190a35050565b6168bc806100a56000396000f3fe608060405260043610620000855760003560e01c80638da5cb5b11620000545780638da5cb5b1462000142578063f26eb0fd1462000162578063f2fde38b146200019f578063fe738c8314620001c457600080fd5b806301ffc9a7146200008a5780630f98d41114620000c4578063715018a614620000f85780637bac419d1462000112575b600080fd5b3480156200009757600080fd5b50620000af620000a93660046200074e565b62000209565b60405190151581526020015b60405180910390f35b348015620000d157600080fd5b50620000af620000e336600462000781565b60016020526000908152604090205460ff1681565b3480156200010557600080fd5b506200011062000241565b005b6200012962000123366004620007c5565b62000259565b6040516001600160a01b039091168152602001620000bb565b3480156200014f57600080fd5b506000546001600160a01b031662000129565b3480156200016f57600080fd5b50620000af6200018136600462000781565b6001600160a01b031660009081526001602052604090205460ff1690565b348015620001ac57600080fd5b5062000110620001be36600462000781565b62000514565b348015620001d157600080fd5b5062000129620001e33660046200088f565b80516020818301810180516002825292820191909301209152546001600160a01b031681565b60006001600160e01b0319821663044e178b60e51b14806200023b57506301ffc9a760e01b6001600160e01b03198316145b92915050565b6200024b62000558565b62000257600062000587565b565b6000806001600160a01b031660028686604051620002799291906200094a565b908152604051908190036020019020546001600160a01b031614620002de5760405162461bcd60e51b815260206004820152601660248201527515985d5b1d08185b1c9958591e4819195c1b1bde595960521b60448201526064015b60405180910390fd5b6000620002ef602085018562000781565b6001600160a01b0316036200033f5760405162461bcd60e51b815260206004820152601560248201527424b73b30b634b21039ba30b5b4b733903a37b5b2b760591b6044820152606401620002d5565b600062000353608085016060860162000781565b6001600160a01b031603620003b55760405162461bcd60e51b815260206004820152602160248201527f496e76616c69642072657761726420636f6e74726f6c6c6572206164647265736044820152607360f81b6064820152608401620002d5565b6000620003c960a085016080860162000781565b6001600160a01b031603620004215760405162461bcd60e51b815260206004820152601e60248201527f496e76616c69642066656520636f6e74726f6c6c6572206164647265737300006044820152606401620002d5565b6200042f85858585620005d7565b6001600160a01b038116600081815260016020819052604091829020805460ff191690911790555163f2fde38b60e01b81523360048201529192509063f2fde38b90602401600060405180830381600087803b1580156200048f57600080fd5b505af1158015620004a4573d6000803e3d6000fd5b5050506001600160a01b03821690507fd2cdcadeca6ad2e3691c1a25b1067ee469fb437fd70f08d97d607e652c1146d0620004e360208601866200095a565b620004f260408801886200095a565b604051620005049493929190620009d4565b60405180910390a2949350505050565b6200051e62000558565b6001600160a01b0381166200054a57604051631e4fbdf760e01b815260006004820152602401620002d5565b620005558162000587565b50565b6000546001600160a01b03163314620002575760405163118cdaa760e01b8152336004820152602401620002d5565b600080546001600160a01b038381166001600160a01b0319831681178455604051919092169283917f8be0079c531659141344cd1fd0a4f28419497f9722a3daafe3b4186f6b6457e09190a35050565b60008060405180602001620005ec9062000740565b601f1982820381018352601f909101166040529050600062000612602086018662000781565b6200062160208701876200095a565b6200063060408901896200095a565b6200063f60208a018a62000781565b6200065160408b0160208c0162000781565b60408b01356200066860808e0160608f0162000781565b8d60800160208101906200067d919062000781565b604051602001620006989a9998979695949392919062000a0a565b604051602081830303815290604052905060008282604051602001620006c092919062000ab0565b6040516020818303038152906040529050620006de888883620006ea565b98975050505050505050565b6000808484604051602001620007029291906200094a565b604051602081830303815290604052805190602001209050600083602001845183818334f592505050803b6200073757600080fd5b95945050505050565b615db58062000ad283390190565b6000602082840312156200076157600080fd5b81356001600160e01b0319811681146200077a57600080fd5b9392505050565b6000602082840312156200079457600080fd5b81356001600160a01b03811681146200077a57600080fd5b600060608284031215620007bf57600080fd5b50919050565b60008060008060a08587031215620007dc57600080fd5b843567ffffffffffffffff80821115620007f557600080fd5b818701915087601f8301126200080a57600080fd5b8135818111156200081a57600080fd5b8860208285010111156200082d57600080fd5b6020928301965094509086013590808211156200084957600080fd5b50850160a081880312156200085d57600080fd5b91506200086e8660408701620007ac565b905092959194509250565b634e487b7160e01b600052604160045260246000fd5b600060208284031215620008a257600080fd5b813567ffffffffffffffff80821115620008bb57600080fd5b818401915084601f830112620008d057600080fd5b813581811115620008e557620008e562000879565b604051601f8201601f19908116603f0116810190838211818310171562000910576200091062000879565b816040528281528760208487010111156200092a57600080fd5b826020860160208301376000928101602001929092525095945050505050565b8183823760009101908152919050565b6000808335601e198436030181126200097257600080fd5b83018035915067ffffffffffffffff8211156200098e57600080fd5b602001915036819003821315620009a457600080fd5b9250929050565b81835281816020850137506000828201602090810191909152601f909101601f19169091010190565b604081526000620009ea604083018688620009ab565b8281036020840152620009ff818587620009ab565b979650505050505050565b6001600160a01b038b811682526101006020830181905260009162000a338483018d8f620009ab565b9150838203604085015262000a4a828b8d620009ab565b98811660608501529687166080840152505060a081019390935290831660c083015290911660e09091015295945050505050565b6000815160005b8181101562000aa1576020818501810151868301520162000a85565b50600093019283525090919050565b600062000ac962000ac2838662000a7e565b8462000a7e565b94935050505056fe61010060405260405162005db538038062005db5833981016040819052620000279162001185565b338a8a8d6001600160a01b031663313ce5676040518163ffffffff1660e01b8152600401602060405180830381865afa15801562000069573d6000803e3d6000fd5b505050506040513d601f19601f820116820180604052508101906200008f9190620012fa565b60006200009d8482620013b7565b506001620000ac8382620013b7565b5060ff81166080524660a052620000c2620001b2565b60c0525050506001600160a01b038116620000f857604051631e4fbdf760e01b8152600060048201526024015b60405180910390fd5b62000103816200024e565b50600160115562000116888888620002a0565b62000125858585858562000326565b6001600160a01b038b1660e05260148054604080516020808402820181019092528281529291908301828280156200018757602002820191906000526020600020905b81546001600160a01b0316815260019091019060200180831162000168575b50505050509250620001a18a8a8d620005b260201b60201c565b505050505050505050505062001a1d565b60007f8b73c3c69bb8fe3d512ecc4cf759cc79239f7b179b0ffacaa9a75d522b39400f6000604051620001e6919062001483565b6040805191829003822060208301939093528101919091527fc89efdaa54c0f20c7adf612882df0950f5a951637e0307cdcb4c672f298b8bc660608201524660808201523060a082015260c00160405160208183030381529060405280519060200120905090565b601080546001600160a01b038381166001600160a01b0319831681179093556040519116919082907f8be0079c531659141344cd1fd0a4f28419497f9722a3daafe3b4186f6b6457e090600090a35050565b825160208401516040850151620002b992919062000855565b620002c660003362000915565b50620002f37f477fc23fb51bb5d5aa814872a393b0e4f35d0916c7503c0fd96584681070d4108362000915565b50620003207f74e458455daa935f28c556b43e0cc4ad001a8a090f5feee376681e97d4618f468262000915565b50505050565b600e80546001600160a01b038087166001600160a01b03199283168117909355600f80549189169190921617905560408051631a0fcb6560e31b815290516000929163d07e5b289160048083019260209291908290030181865afa15801562000393573d6000803e3d6000fd5b505050506040513d601f19601f82011682018060405250810190620003b9919062001501565b845190915060005b81811015620005a857848181518110620003df57620003df62001521565b6020026020010151600a600088848151811062000400576200040062001521565b60200260200101516001600160a01b03166001600160a01b031681526020019081526020016000208190555083818151811062000441576200044162001521565b6020026020010151600b600088848151811062000462576200046262001521565b60200260200101516001600160a01b03166001600160a01b03168152602001908152602001600020819055506040518060400160405280846001600160a01b03166001600160a01b03168152602001878381518110620004c657620004c662001521565b60200260200101516001600160a01b03166001600160a01b0316815250600c6000888481518110620004fc57620004fc62001521565b60200260200101516001600160a01b03166001600160a01b031681526020019081526020016000209060026200053492919062000e15565b50620005628682815181106200054e576200054e62001521565b6020026020010151620009c860201b60201c565b600d60008884815181106200057b576200057b62001521565b6020908102919091018101516001600160a01b0316825281019190915260400160002055600101620003c1565b5050505050505050565b620005be813062000b52565b6040805160a08082018352600080835260208084018290526060848601819052808501819052306080808701829052875195860188528486528584018590528588018390528583018390528501528551600280825291810190965260109560019594939290919082015b6200063262000e7f565b815260200190600190039081620006285790505090506040518060400160405280868152602001848152508160008151811062000673576200067362001521565b602002602001018190525060405180604001604052808581526020018381525081600181518110620006a957620006a962001521565b6020026020010181905250620006ee6040518060600160405280600063ffffffff16815260200160006001600160a01b03168152602001600063ffffffff1681525090565b306020820152627a120060408201526200076460408051610120810182526060808252602080830182905260008385018190528284018390526080840181905260a0840181905260c0840181905260e0840183905284519283018552808352908201819052928101929092529061010082015290565b89815260208082018a905230604080840191909152610100830184905260e08301859052805163313ce56760e01b81529051620008019284926000926001600160a01b038e169263313ce56792600480820193918290030181865afa158015620007d2573d6000803e3d6000fd5b505050506040513d601f19601f82011682018060405250810190620007f89190620012fa565b60ff1662000c81565b601280546001600160a01b0319166001600160a01b039290921691821790556040517f7bb17726df1f3adee8aa00ba8e8bc5d6f182af3bbf77604639cb7f008dd3b4ed90600090a250505050505050505050565b61271081106200089a5760405162461bcd60e51b815260206004820152600f60248201526e46433a20496e76616c69642066656560881b6044820152606401620000ef565b600780546001600160a01b038581166001600160a01b0319928316811790935560088054918616919092168117909155600983905560408051928352602083019190915281018290527febd34b2df88ea5c9f67c04b13b08e5e63c2d17e269aab73b866fe47a8736a2649060600160405180910390a1505050565b60008281526006602090815260408083206001600160a01b038516845290915281205460ff16620009be5760008381526006602090815260408083206001600160a01b03861684529091529020805460ff19166001179055620009753390565b6001600160a01b0316826001600160a01b0316847f2f8788117e7eff1d82e926ec794901d17c78024a50270940304540a733656f0d60405160405180910390a4506001620009c2565b5060005b92915050565b600f546001600160a01b038281166000908152600b60205260408082205490516331d98b3f60e01b81529193849316916331d98b3f9162000a0f9160040190815260200190565b608060405180830381865afa15801562000a2d573d6000803e3d6000fd5b505050506040513d601f19601f8201168201806040525081019062000a5391906200154a565b90506000836001600160a01b031663313ce5676040518163ffffffff1660e01b8152600401602060405180830381865afa15801562000a96573d6000803e3d6000fd5b505050506040513d601f19601f8201168201806040525081019062000abc9190620012fa565b60ff1690506000826040015160001962000ad79190620015f6565b62000ae49060126200171d565b62000af18360126200172e565b845162000b0891906001600160401b03166200173c565b62000b14919062001756565b90508062000b248360126200172e565b62000b318460126200172e565b62000b3d91906200173c565b62000b49919062001756565b95945050505050565b604080516001600160a01b038381166024830152841660448083019190915282518083039091018152606490910182526020810180516001600160e01b031663248a35ef60e11b1790529051600091829182916101679162000bb5919062001779565b6000604051808303816000865af19150503d806000811462000bf4576040519150601f19603f3d011682016040523d82523d6000602084013e62000bf9565b606091505b50915091508162000c0c57601562000c22565b8080602001905181019062000c22919062001797565b9250600383900b60161462000c7a5760405162461bcd60e51b815260206004820152601f60248201527f536166652073696e676c65206173736f63696174696f6e206661696c656421006044820152606401620000ef565b5050505050565b61010083015151600090849063ffffffff1615801562000cae57506101008101516040015163ffffffff16155b1562000cc5576101008101516276a7006040909101525b60008060006101676001600160a01b031634637812a04b60e01b8a8a8a60405160240162000cf693929190620018b4565b60408051601f198184030181529181526020820180516001600160e01b03166001600160e01b031990941693909317909252905162000d36919062001779565b60006040518083038185875af1925050503d806000811462000d75576040519150601f19603f3d011682016040523d82523d6000602084013e62000d7a565b606091505b50915091508162000d8f576015600062000da5565b8080602001905181019062000da59190620019e1565b95509250600383900b60161462000e0a5760405162461bcd60e51b815260206004820152602260248201527f53616665206372656174652066756e6769626c6520746f6b656e206661696c65604482015261642160f01b6064820152608401620000ef565b505050509392505050565b82805482825590600052602060002090810192821562000e6d579160200282015b8281111562000e6d57825182546001600160a01b0319166001600160a01b0390911617825560209092019160019091019062000e36565b5062000e7b92915062000edd565b5090565b60405180604001604052806000815260200162000ed86040518060a0016040528060001515815260200160006001600160a01b03168152602001606081526020016060815260200160006001600160a01b031681525090565b905290565b5b8082111562000e7b576000815560010162000ede565b6001600160a01b038116811462000f0a57600080fd5b50565b805162000f1a8162000ef4565b919050565b634e487b7160e01b600052604160045260246000fd5b604051601f8201601f191681016001600160401b038111828210171562000f605762000f6062000f1f565b604052919050565b60005b8381101562000f8557818101518382015260200162000f6b565b50506000910152565b600082601f83011262000fa057600080fd5b81516001600160401b0381111562000fbc5762000fbc62000f1f565b62000fd1601f8201601f191660200162000f35565b81815284602083860101111562000fe757600080fd5b62000ffa82602083016020870162000f68565b949350505050565b6000606082840312156200101557600080fd5b604051606081016001600160401b03811182821017156200103a576200103a62000f1f565b806040525080915082516200104f8162000ef4565b81526020830151620010618162000ef4565b6020820152604092830151920191909152919050565b60006001600160401b0382111562001093576200109362000f1f565b5060051b60200190565b600082601f830112620010af57600080fd5b81516020620010c8620010c28362001077565b62000f35565b8083825260208201915060208460051b870101935086841115620010eb57600080fd5b602086015b8481101562001114578051620011068162000ef4565b8352918301918301620010f0565b509695505050505050565b600082601f8301126200113157600080fd5b8151602062001144620010c28362001077565b8083825260208201915060208460051b8701019350868411156200116757600080fd5b602086015b848110156200111457805183529183019183016200116c565b60008060008060008060008060008060006101a08c8e031215620011a857600080fd5b620011b38c62000f0d565b60208d0151909b506001600160401b03811115620011d057600080fd5b620011de8e828f0162000f8e565b60408e0151909b5090506001600160401b03811115620011fd57600080fd5b6200120b8e828f0162000f8e565b9950506200121d8d60608e0162001002565b97506200122d60c08d0162000f0d565b96506200123d60e08d0162000f0d565b95506200124e6101008d0162000f0d565b94506200125f6101208d0162000f0d565b6101408d01519094506001600160401b038111156200127d57600080fd5b6200128b8e828f016200109d565b6101608e015190945090506001600160401b03811115620012ab57600080fd5b620012b98e828f016200111f565b6101808e015190935090506001600160401b03811115620012d957600080fd5b620012e78e828f016200111f565b9150509295989b509295989b9093969950565b6000602082840312156200130d57600080fd5b815160ff811681146200131f57600080fd5b9392505050565b600181811c908216806200133b57607f821691505b6020821081036200135c57634e487b7160e01b600052602260045260246000fd5b50919050565b601f821115620013b2576000816000526020600020601f850160051c810160208610156200138d5750805b601f850160051c820191505b81811015620013ae5782815560010162001399565b5050505b505050565b81516001600160401b03811115620013d357620013d362000f1f565b620013eb81620013e4845462001326565b8462001362565b602080601f8311600181146200142357600084156200140a5750858301515b600019600386901b1c1916600185901b178555620013ae565b600085815260208120601f198616915b82811015620014545788860151825594840194600190910190840162001433565b5085821015620014735787850151600019600388901b60f8161c191681555b5050505050600190811b01905550565b6000808354620014938162001326565b60018281168015620014ae5760018114620014c457620014f5565b60ff1984168752821515830287019450620014f5565b8760005260208060002060005b85811015620014ec5781548a820152908401908201620014d1565b50505082870194505b50929695505050505050565b6000602082840312156200151457600080fd5b81516200131f8162000ef4565b634e487b7160e01b600052603260045260246000fd5b8051600381900b811462000f1a57600080fd5b6000608082840312156200155d57600080fd5b604051608081016001600160401b03808211838310171562001583576200158362000f1f565b81604052845191508160070b82146200159b57600080fd5b9082526020840151908082168214620015b357600080fd5b506020820152620015c76040840162001537565b6040820152606083015160608201528091505092915050565b634e487b7160e01b600052601160045260246000fd5b60008260030b8260030b028060030b9150808214620016195762001619620015e0565b5092915050565b600181815b8085111562001661578160001904821115620016455762001645620015e0565b808516156200165357918102915b93841c939080029062001625565b509250929050565b6000826200167a57506001620009c2565b816200168957506000620009c2565b8160018114620016a25760028114620016ad57620016cd565b6001915050620009c2565b60ff841115620016c157620016c1620015e0565b50506001821b620009c2565b5060208310610133831016604e8410600b8410161715620016f2575081810a620009c2565b620016fe838362001620565b8060001904821115620017155762001715620015e0565b029392505050565b60006200131f60ff84168362001669565b60006200131f838362001669565b8082028115828204841417620009c257620009c2620015e0565b6000826200177457634e487b7160e01b600052601260045260246000fd5b500490565b600082516200178d81846020870162000f68565b9190910192915050565b600060208284031215620017aa57600080fd5b6200131f8262001537565b60008151808452620017cf81602086016020860162000f68565b601f01601f19169290920160200192915050565b600082825180855260208086019550808260051b84010181860160005b84811015620018a757858303601f1901895281518051845284015160408585018190528151151581860152818601516001600160a01b039081166060808801919091529183015160a060808089018290529193909290916200186660e08a0186620017b5565b92860151898403603f1901858b0152929450620018848584620017b5565b9501511660c0979097019690965250509884019892509083019060010162001800565b5090979650505050505050565b6060815260008451610160806060850152620018d56101c0850183620017b5565b91506020870151605f1980868503016080870152620018f58483620017b5565b9350604089015191506200191460a08701836001600160a01b03169052565b60608901519150808685030160c0870152620019318483620017b5565b9350608089015191506200194960e087018315159052565b60a08901519150610100620019658188018463ffffffff169052565b60c08a0151151561012088015260e08a015187860383016101408901529250620019908584620017e3565b9450808a015192505050620019cd82860182805163ffffffff90811683526020808301516001600160a01b03169084015260409182015116910152565b505060208301949094525060400152919050565b60008060408385031215620019f557600080fd5b62001a008362001537565b9150602083015162001a128162000ef4565b809150509250929050565b60805160a05160c05160e05161432662001a8f600039600081816106fc01528181610ce801528181610eb3015281816116f2015281816119f901528181611b0501528181611e2901526121c4015260006111460152600061111601526000818161063f015261107f01526143266000f3fe6080604052600436106103b85760003560e01c806388a320fe116101f2578063c4f59f9b1161010d578063db8bb3a1116100a0578063efa6f4251161006f578063efa6f42514610c5d578063f2fde38b14610c7d578063f52a346814610c9d578063f98d06f014610cb057600080fd5b8063db8bb3a114610bc5578063dd62ed3e14610be5578063eb4e159314610c1d578063ef8b30f714610c3d57600080fd5b8063d505accf116100dc578063d505accf14610b22578063d547741f14610b42578063d905777e14610b62578063db7a682814610b9857600080fd5b8063c4f59f9b14610a94578063c63d75b614610736578063cd9cdfda14610ab6578063ce96cb7714610b0257600080fd5b8063a8d5fd6511610185578063b4f6d61311610154578063b4f6d61314610a00578063b5be920d14610a34578063ba08765214610a54578063bea9db6d14610a7457600080fd5b8063a8d5fd6514610980578063a9059cbb146109a0578063b3d7f6b9146109c0578063b460af94146109e057600080fd5b806394bf804d116101c157806394bf804d1461092357806395d89b41146109435780639feb8f5014610958578063a217fddf1461096b57600080fd5b806388a320fe146108af5780638da5cb5b146108cf5780638f12c2f4146108ed57806391d148541461090357600080fd5b806335d16e17116102e25780635ab764ed11610275578063715018a611610244578063715018a6146108255780637a07bf3a1461083a5780637bb7bed1146108625780637ecebe001461088257600080fd5b80635ab764ed14610798578063695135ec146107b85780636e553f65146107d857806370a08231146107f857600080fd5b806338d52e0f116102b157806338d52e0f146106ea578063402d267d14610736578063490a0af9146107585780634cdad5061461077857600080fd5b806335d16e1714610673578063362a3fad146106885780633644e515146106b557806336568abe146106ca57600080fd5b806318160ddd1161035a578063248a9ca311610329578063248a9ca3146105bb5780632c62fa10146105eb5780632f2ff15d1461060b578063313ce5671461062d57600080fd5b806318160ddd146105075780631e5eb1d01461051d578063204120bc1461056e57806323b872dd1461059b57600080fd5b806306fdde031161039657806306fdde0314610449578063095ea7b31461046b5780630a28a4771461048b57806316ad0672146104ab57600080fd5b806301e1d114146103bd57806301ffc9a7146103e557806305fb2a5114610415575b600080fd5b3480156103c957600080fd5b506103d2610cd0565b6040519081526020015b60405180910390f35b3480156103f157600080fd5b5061040561040036600461361a565b610d60565b60405190151581526020016103dc565b34801561042157600080fd5b506103d27f74e458455daa935f28c556b43e0cc4ad001a8a090f5feee376681e97d4618f4681565b34801561045557600080fd5b5061045e610d97565b6040516103dc9190613694565b34801561047757600080fd5b506104056104863660046136c3565b610e25565b34801561049757600080fd5b506103d26104a63660046136ed565b610e91565b3480156104b757600080fd5b506104ea6104c6366004613706565b60156020526000908152604090208054600182015460039092015490919060ff1683565b6040805193845260208401929092521515908201526060016103dc565b34801561051357600080fd5b506103d260025481565b34801561052957600080fd5b50600754600854600954610548926001600160a01b0390811692169083565b604080516001600160a01b039485168152939092166020840152908201526060016103dc565b34801561057a57600080fd5b506103d2610589366004613706565b600d6020526000908152604090205481565b3480156105a757600080fd5b506104056105b6366004613721565b610f48565b3480156105c757600080fd5b506103d26105d63660046136ed565b60009081526006602052604090206001015490565b3480156105f757600080fd5b506103d2610606366004613706565b611028565b34801561061757600080fd5b5061062b61062636600461375d565b61104a565b005b34801561063957600080fd5b506106617f000000000000000000000000000000000000000000000000000000000000000081565b60405160ff90911681526020016103dc565b34801561067f57600080fd5b506103d2611075565b34801561069457600080fd5b506106a86106a3366004613706565b6110a5565b6040516103dc9190613789565b3480156106c157600080fd5b506103d2611112565b3480156106d657600080fd5b5061062b6106e536600461375d565b611168565b3480156106f657600080fd5b5061071e7f000000000000000000000000000000000000000000000000000000000000000081565b6040516001600160a01b0390911681526020016103dc565b34801561074257600080fd5b506103d2610751366004613706565b5060001990565b34801561076457600080fd5b506106a8610773366004613881565b6111a0565b34801561078457600080fd5b506103d26107933660046136ed565b611488565b3480156107a457600080fd5b506103d26107b3366004613943565b6114aa565b3480156107c457600080fd5b506103d26107d3366004613706565b61153b565b3480156107e457600080fd5b506103d26107f336600461375d565b6116ac565b34801561080457600080fd5b506103d2610813366004613706565b60036020526000908152604090205481565b34801561083157600080fd5b5061062b6117e8565b61084d6108483660046136ed565b6117fc565b604080519283526020830191909152016103dc565b34801561086e57600080fd5b5061071e61087d3660046136ed565b61191b565b34801561088e57600080fd5b506103d261089d366004613706565b60056020526000908152604090205481565b3480156108bb57600080fd5b50600e5461071e906001600160a01b031681565b3480156108db57600080fd5b506010546001600160a01b031661071e565b3480156108f957600080fd5b506103d260135481565b34801561090f57600080fd5b5061040561091e36600461375d565b611945565b34801561092f57600080fd5b506103d261093e36600461375d565b611970565b34801561094f57600080fd5b5061045e611a2a565b61062b6109663660046136c3565b611a37565b34801561097757600080fd5b506103d2600081565b34801561098c57600080fd5b5060125461071e906001600160a01b031681565b3480156109ac57600080fd5b506104056109bb3660046136c3565b611d2a565b3480156109cc57600080fd5b506103d26109db3660046136ed565b611d90565b3480156109ec57600080fd5b506103d26109fb36600461396d565b611db2565b348015610a0c57600080fd5b506103d27f477fc23fb51bb5d5aa814872a393b0e4f35d0916c7503c0fd96584681070d41081565b348015610a4057600080fd5b5061062b610a4f3660046139a9565b611eb0565b348015610a6057600080fd5b506103d2610a6f36600461396d565b6120ef565b348015610a8057600080fd5b5061062b610a8f3660046139a9565b6121f5565b348015610aa057600080fd5b50610aa9612391565b6040516103dc91906139ea565b348015610ac257600080fd5b50610aed610ad1366004613706565b6016602052600090815260409020805460019091015460ff1682565b604080519283529015156020830152016103dc565b348015610b0e57600080fd5b506103d2610b1d366004613706565b6123f3565b348015610b2e57600080fd5b5061062b610b3d366004613a3a565b6123fe565b348015610b4e57600080fd5b5061062b610b5d36600461375d565b612642565b348015610b6e57600080fd5b506103d2610b7d366004613706565b6001600160a01b031660009081526003602052604090205490565b348015610ba457600080fd5b506103d2610bb3366004613706565b600b6020526000908152604090205481565b348015610bd157600080fd5b5061071e610be03660046136c3565b612667565b348015610bf157600080fd5b506103d2610c00366004613943565b600460209081526000928352604080842090915290825290205481565b348015610c2957600080fd5b5061062b610c383660046136c3565b61269f565b348015610c4957600080fd5b506103d2610c583660046136ed565b61275a565b348015610c6957600080fd5b5061062b610c78366004613aa7565b61277b565b348015610c8957600080fd5b5061062b610c98366004613706565b6127c0565b61062b610cab3660046139a9565b6127fe565b348015610cbc57600080fd5b50600f5461071e906001600160a01b031681565b6040516370a0823160e01b81523060048201526000907f00000000000000000000000000000000000000000000000000000000000000006001600160a01b0316906370a0823190602401602060405180830381865afa158015610d37573d6000803e3d6000fd5b505050506040513d601f19601f82011682018060405250810190610d5b9190613b0e565b905090565b60006001600160e01b03198216637965db0b60e01b1480610d9157506301ffc9a760e01b6001600160e01b03198316145b92915050565b60008054610da490613b27565b80601f0160208091040260200160405190810160405280929190818152602001828054610dd090613b27565b8015610e1d5780601f10610df257610100808354040283529160200191610e1d565b820191906000526020600020905b815481529060010190602001808311610e0057829003601f168201915b505050505081565b3360008181526004602090815260408083206001600160a01b038716808552925280832085905551919290917f8c5be1e5ebec7d5bd14f71427d1e84f3dd0314c0f7b2291e5b200ac8c7c3b92590610e809086815260200190565b60405180910390a350600192915050565b6040516370a0823160e01b815230600482015260009081906001600160a01b037f000000000000000000000000000000000000000000000000000000000000000016906370a0823190602401602060405180830381865afa158015610efa573d6000803e3d6000fd5b505050506040513d601f19601f82011682018060405250810190610f1e9190613b0e565b90508015610f3f57610f3a81610f32610cd0565b8591906128de565b610f41565b825b9392505050565b6001600160a01b03831660009081526004602090815260408083203384529091528120546000198114610fa457610f7f8382613b77565b6001600160a01b03861660009081526004602090815260408083203384529091529020555b6001600160a01b03851660009081526003602052604081208054859290610fcc908490613b77565b90915550506001600160a01b03808516600081815260036020526040908190208054870190555190918716906000805160206142d1833981519152906110159087815260200190565b60405180910390a3506001949350505050565b6001600160a01b038116600090815260036020526040812054610d9190611488565b60008281526006602052604090206001015461106581612904565b61106f838361290e565b50505050565b6000610d5b6107937f0000000000000000000000000000000000000000000000000000000000000000600a613c6e565b60608060005b60145481101561110b576110e684601483815481106110cc576110cc613c7d565b6000918252602090912001546001600160a01b03166114aa565b8282815181106110f8576110f8613c7d565b60209081029190910101526001016110ab565b5092915050565b60007f0000000000000000000000000000000000000000000000000000000000000000461461114357610d5b6129a2565b507f000000000000000000000000000000000000000000000000000000000000000090565b6001600160a01b03811633146111915760405163334bd91960e11b815260040160405180910390fd5b61119b8282612a3c565b505050565b825160609082146112035760405162461bcd60e51b815260206004820152602260248201527f546f6b656e20707269636573206172726179206c656e677468206d69736d61746044820152610c6d60f31b60648201526084015b60405180910390fd5b600080836001600160401b0381111561121e5761121e6137cd565b604051908082528060200260200182016040528015611247578160200160208202803683370190505b50905060005b848110156113565785858281811061126757611267613c7d565b905060200201602081019061127c9190613706565b6040516370a0823160e01b81523060048201526001600160a01b0391909116906370a0823190602401602060405180830381865afa1580156112c2573d6000803e3d6000fd5b505050506040513d601f19601f820116820180604052508101906112e69190613b0e565b8282815181106112f8576112f8613c7d565b60200260200101818152505086818151811061131657611316613c7d565b602002602001015182828151811061133057611330613c7d565b60200260200101516113429190613c93565b61134c9084613caa565b925060010161124d565b506000846001600160401b03811115611371576113716137cd565b60405190808252806020026020018201604052801561139a578160200160208202803683370190505b50905060005b8581101561147d576000612710600a60008a8a868181106113c3576113c3613c7d565b90506020020160208101906113d89190613706565b6001600160a01b031681526020810191909152604001600020546113fc9087613c93565b6114069190613cbd565b9050600089838151811061141c5761141c613c7d565b60200260200101518261142f9190613cbd565b905084838151811061144357611443613c7d565b6020026020010151816114569190613b77565b84848151811061146857611468613c7d565b602090810291909101015250506001016113a0565b509695505050505050565b6002546000908015610f3f57610f3a61149f610cd0565b600254859190612aa9565b6001600160a01b038082166000818152601660209081526040808320805495881684526015835281842080549585526002810190935290832054929490939092856114f58286613b77565b905061150381600185612aa9565b6009549097501561152f57600061151f88600760020154612ac7565b905061152b8189613b77565b9750505b50505050505092915050565b600f546001600160a01b038281166000908152600b60205260408082205490516331d98b3f60e01b81529193849316916331d98b3f916115819160040190815260200190565b608060405180830381865afa15801561159e573d6000803e3d6000fd5b505050506040513d601f19601f820116820180604052508101906115c29190613d1a565b90506000836001600160a01b031663313ce5676040518163ffffffff1660e01b8152600401602060405180830381865afa158015611604573d6000803e3d6000fd5b505050506040513d601f19601f820116820180604052508101906116289190613d92565b60ff169050600082604001516000196116419190613daf565b61164c906012613c6e565b611657836012613dcf565b845161166c91906001600160401b0316613c93565b6116769190613cbd565b905080611684836012613dcf565b61168f846012613dcf565b6116999190613c93565b6116a39190613cbd565b95945050505050565b60006116b6612b47565b6116bf8361275a565b9050806000036116e557604051636e3699b760e11b8152600481018490526024016111fa565b61171a6001600160a01b037f000000000000000000000000000000000000000000000000000000000000000016333086612b71565b826013600082825461172c9190613caa565b909155505060125460408051600080825260208201909252611775926001600160a01b03169186919061176f565b606081526020019060019003908161175a5790505b50612bfb565b505060125461178f906001600160a01b0316303386612d3e565b60408051848152602081018390526001600160a01b0384169133917fdcbc1c05240f31ff3ad067ef1ee35ce4997762752e3a095284754544f4c709d7910160405180910390a36117de83612e6e565b610d916001601155565b6117f0612ff9565b6117fa6000613026565b565b60145460085460009182916001600160a01b0316845b828110801561182a575061182786600a613caa565b81105b15611910576000806014838154811061184557611845613c7d565b600091825260208083209091015433835260158252604080842080546001600160a01b039093168086526002909101845281852054601690945293205492935061189c9260019261189591613b77565b9190612aa9565b6001600160a01b03821660008181526016602090815260408083205433808552601584528285209585526002909501909252909120559092506118e3908290309085612d3e565b6001600160a01b038416156118fb576118fb82613078565b5050808061190890613ddb565b915050611812565b509394909350915050565b6014818154811061192b57600080fd5b6000918252602090912001546001600160a01b0316905081565b60009182526006602090815260408084206001600160a01b0393909316845291905290205460ff1690565b600061197a612b47565b61198f8261198785611d90565b92508261316d565b80601360008282546119a19190613caa565b909155505060408051828152602081018590526001600160a01b0384169133917fdcbc1c05240f31ff3ad067ef1ee35ce4997762752e3a095284754544f4c709d7910160405180910390a3611a216001600160a01b037f000000000000000000000000000000000000000000000000000000000000000016333084612b71565b6117de81612e6e565b60018054610da490613b27565b7f477fc23fb51bb5d5aa814872a393b0e4f35d0916c7503c0fd96584681070d410611a6181612904565b81600003611ab15760405162461bcd60e51b815260206004820152601b60248201527f5661756c743a20416d6f756e742063616e2774206265207a65726f000000000060448201526064016111fa565b601354600003611b035760405162461bcd60e51b815260206004820152601a60248201527f5661756c743a204e6f20746f6b656e207374616b65642079657400000000000060448201526064016111fa565b7f00000000000000000000000000000000000000000000000000000000000000006001600160a01b0316836001600160a01b031614158015611b5357506012546001600160a01b03848116911614155b611bb75760405162461bcd60e51b815260206004820152602f60248201527f5661756c743a2052657761726420616e64205374616b696e6720746f6b656e7360448201526e2063616e6e6f742062652073616d6560881b60648201526084016111fa565b601454600a03611bda57604051637561e0ab60e01b815260040160405180910390fd5b6000611bf4600160135485612aa99092919063ffffffff16565b6001600160a01b038516600090815260166020526040902060018101549192509060ff16611c9d5760148054600180820183556000929092527fce6d7b5282bd9a3661ae061feed1dbda4e52ab073b1f9285be6e155d9c38d4ec0180546001600160a01b0319166001600160a01b038816179055818101805460ff19169091179055818155611c8385306131c7565b611c986001600160a01b038616333087612b71565b611ce0565b6001600160a01b03851660009081526016602052604081208054849290611cc5908490613caa565b90915550611ce090506001600160a01b038616333087612b71565b846001600160a01b03167fac24935fd910bc682b5ccb1a07b718cadf8cf2f6d1404c4f3ddc3662dae40e2985604051611d1b91815260200190565b60405180910390a25050505050565b33600090815260036020526040812080548391908390611d4b908490613b77565b90915550506001600160a01b038316600081815260036020526040908190208054850190555133906000805160206142d183398151915290610e809086815260200190565b6002546000908015610f3f57610f3a611da7610cd0565b6002548591906128de565b6000611dbc612b47565b611dc5846132e5565b8360136000828254611dd79190613b77565b9091555050601254611df4906001600160a01b0316333087612d3e565b601254604080516000815260208101909152611e1b916001600160a01b031690869061331d565b50611e506001600160a01b037f0000000000000000000000000000000000000000000000000000000000000000168486613449565b826001600160a01b0316826001600160a01b03167ff341246adaac6f497bc2a656f546ab9e182111d630394f0c57c710a59a2cb5678684604051611e9e929190918252602082015260400190565b60405180910390a3610f416001601155565b60005b8181101561119b576000838383818110611ecf57611ecf613c7d565b9050602002016020810190611ee49190613706565b6040516370a0823160e01b81523060048201529091506000906001600160a01b038316906370a0823190602401602060405180830381865afa158015611f2e573d6000803e3d6000fd5b505050506040513d601f19601f82011682018060405250810190611f529190613b0e565b6001600160a01b0383166000908152600d6020526040812054919250611f788284613c93565b6001600160a01b0385166000908152600a60205260408120549192509061271090611fa39084613c93565b611fad9190613cbd565b90506000611fbb8483613cbd565b9050808511156120dd576000611fd18287613b77565b600e5460405163095ea7b360e01b81526001600160a01b0391821660048201526024810183905291925088169063095ea7b3906044016020604051808303816000875af1158015612026573d6000803e3d6000fd5b505050506040513d601f19601f8201168201806040525081019061204a9190613df4565b50600e546001600160a01b038881166000908152600c602052604080822090516318cbafe560e01b815292909316926318cbafe592612093928692909130904290600401613e60565b6000604051808303816000875af11580156120b2573d6000803e3d6000fd5b505050506040513d6000823e601f3d908101601f191682016040526120da9190810190613e9c565b50505b505060019094019350611eb392505050565b60006120f9612b47565b61210284611488565b9050806000036121425760405162461bcd60e51b815260206004820152600b60248201526a5a45524f5f41535345545360a81b60448201526064016111fa565b61214b84611488565b905061215782856134c1565b80601360008282546121699190613b77565b909155505060408051828152602081018690526001600160a01b0380861692908516917ff341246adaac6f497bc2a656f546ab9e182111d630394f0c57c710a59a2cb567910160405180910390a36121eb6001600160a01b037f0000000000000000000000000000000000000000000000000000000000000000168483613449565b610f416001601155565b80606060005b8281101561227457600d600086868481811061221957612219613c7d565b905060200201602081019061222e9190613706565b6001600160a01b03166001600160a01b031681526020019081526020016000205482828151811061226157612261613c7d565b60209081029190910101526001016121fb565b5060006122828286866111a0565b905061228e8585611eb0565b805160005b8181101561238857600e5483516001600160a01b0390911690637ff36ab5908590849081106122c4576122c4613c7d565b6020026020010151600c60008b8b878181106122e2576122e2613c7d565b90506020020160208101906122f79190613706565b6001600160a01b03166001600160a01b0316815260200190815260200160002030426040518563ffffffff1660e01b81526004016123389493929190613f2c565b6000604051808303816000875af1158015612357573d6000803e3d6000fd5b505050506040513d6000823e601f3d908101601f1916820160405261237f9190810190613e9c565b50600101612293565b50505050505050565b606060148054806020026020016040519081016040528092919081815260200182805480156123e957602002820191906000526020600020905b81546001600160a01b031681526001909101906020018083116123cb575b5050505050905090565b6000610d9182611028565b4284101561244e5760405162461bcd60e51b815260206004820152601760248201527f5045524d49545f444541444c494e455f4558504952454400000000000000000060448201526064016111fa565b6000600161245a611112565b6001600160a01b038a811660008181526005602090815260409182902080546001810190915582517f6e71edae12b1b97f4d1f60370fef10105fa2faae0126114a169c64845d6126c98184015280840194909452938d166060840152608083018c905260a083019390935260c08083018b90528151808403909101815260e08301909152805192019190912061190160f01b6101008301526101028201929092526101228101919091526101420160408051601f198184030181528282528051602091820120600084529083018083525260ff871690820152606081018590526080810184905260a0016020604051602081039080840390855afa158015612566573d6000803e3d6000fd5b5050604051601f1901519150506001600160a01b0381161580159061259c5750876001600160a01b0316816001600160a01b0316145b6125d95760405162461bcd60e51b815260206004820152600e60248201526d24a72b20a624a22fa9a4a3a722a960911b60448201526064016111fa565b6001600160a01b0390811660009081526004602090815260408083208a8516808552908352928190208990555188815291928a16917f8c5be1e5ebec7d5bd14f71427d1e84f3dd0314c0f7b2291e5b200ac8c7c3b925910160405180910390a350505050505050565b60008281526006602052604090206001015461265d81612904565b61106f8383612a3c565b600c602052816000526040600020818154811061268357600080fd5b6000918252602090912001546001600160a01b03169150829050565b61271081106126f05760405162461bcd60e51b815260206004820152601760248201527f50657263656e746167652065786365656473203130302500000000000000000060448201526064016111fa565b6001600160a01b03821661273e5760405162461bcd60e51b8152602060048201526015602482015274496e76616c696420746f6b656e206164647265737360581b60448201526064016111fa565b6001600160a01b039091166000908152600a6020526040902055565b6002546000908015610f3f57610f3a6001612773610cd0565b859190612aa9565b7f74e458455daa935f28c556b43e0cc4ad001a8a090f5feee376681e97d4618f466127a581612904565b6127bc826000015183602001518460400151613523565b5050565b6127c8612ff9565b6001600160a01b0381166127f257604051631e4fbdf760e01b8152600060048201526024016111fa565b6127fb81613026565b50565b600f5460405163d47eed4560e01b81526000916001600160a01b03169063d47eed45906128319086908690600401613f8a565b602060405180830381865afa15801561284e573d6000803e3d6000fd5b505050506040513d601f19601f820116820180604052508101906128729190613b0e565b600f54604051631df3cbc560e31b81529192506001600160a01b03169063ef9e5e289083906128a79087908790600401613f8a565b6000604051808303818588803b1580156128c057600080fd5b505af11580156128d4573d6000803e3d6000fd5b5050505050505050565b60008260001904841183021582026128f557600080fd5b50910281810615159190040190565b6127fb81336135e1565b600061291a8383611945565b61299a5760008381526006602090815260408083206001600160a01b03861684529091529020805460ff191660011790556129523390565b6001600160a01b0316826001600160a01b0316847f2f8788117e7eff1d82e926ec794901d17c78024a50270940304540a733656f0d60405160405180910390a4506001610d91565b506000610d91565b60007f8b73c3c69bb8fe3d512ecc4cf759cc79239f7b179b0ffacaa9a75d522b39400f60006040516129d49190614025565b6040805191829003822060208301939093528101919091527fc89efdaa54c0f20c7adf612882df0950f5a951637e0307cdcb4c672f298b8bc660608201524660808201523060a082015260c00160405160208183030381529060405280519060200120905090565b6000612a488383611945565b1561299a5760008381526006602090815260408083206001600160a01b0386168085529252808320805460ff1916905551339286917ff6391f5c32d9c69d2a47ea670b442974b53935d1edc7fd64eb21e047a839171b9190a4506001610d91565b6000826000190484118302158202612ac057600080fd5b5091020490565b6000612710612ad68385613c93565b1015612b305760405162461bcd60e51b8152602060048201526024808201527f46433a20546f6f20736d616c6c20616d6f756e7420746f20636f6e73696465726044820152632066656560e01b60648201526084016111fa565b612710612b3d8385613c93565b610f419190613cbd565b600260115403612b6a57604051633ee5aeb560e01b815260040160405180910390fd5b6002601155565b60006040516323b872dd60e01b81528460048201528360248201528260448201526020600060648360008a5af13d15601f3d1160016000511416171691505080612bf45760405162461bcd60e51b81526020600482015260146024820152731514905394d1915497d19493d357d1905253115160621b60448201526064016111fa565b5050505050565b6000606060008060006101676001600160a01b031663278e0b8860e01b898989604051602401612c2d939291906140c6565b60408051601f198184030181529181526020820180516001600160e01b03166001600160e01b0319909416939093179092529051612c6b919061414a565b6000604051808303816000865af19150503d8060008114612ca8576040519150601f19603f3d011682016040523d82523d6000602084013e612cad565b606091505b509150915081612cd0576040805160008082526020820190925260159190612ce4565b80806020019051810190612ce49190614166565b90965094509250600383900b601614612d335760405162461bcd60e51b815260206004820152601160248201527053616665206d696e74206661696c65642160781b60448201526064016111fa565b505050935093915050565b604080516001600160a01b038681166024830152858116604483015284166064820152600783900b6084808301919091528251808303909101815260a490910182526020810180516001600160e01b031663eca3691760e01b17905290516000918291829161016791612db1919061414a565b6000604051808303816000865af19150503d8060008114612dee576040519150601f19603f3d011682016040523d82523d6000602084013e612df3565b606091505b509150915081612e04576015612e18565b80806020019051810190612e189190614220565b9250600383900b6016146123885760405162461bcd60e51b815260206004820152601b60248201527f5361666520746f6b656e207472616e73666572206661696c656421000000000060448201526064016111fa565b3360009081526015602052604090206003015460ff16612f995760145460005b81811015612f5257600060148281548110612eab57612eab613c7d565b60009182526020808320909101546001600160a01b03168083526016825260408084205433855260158452818520838652600201845281852055805163053aa6f360e11b815290519194508493630a754de693600480840194919391929183900301908290875af1158015612f24573d6000803e3d6000fd5b505050506040513d601f19601f82011682018060405250810190612f489190613b0e565b5050600101612e8e565b5033600090815260156020526040812083815560038101805460ff191660019081179091554291015560138054849290612f8d908490613caa565b909155506127fb915050565b612fa360006117fc565b50503360009081526015602052604081208054839290612fc4908490613caa565b90915550503360009081526015602052604081204260019091015560138054839290612ff1908490613caa565b909155505050565b6010546001600160a01b031633146117fa5760405163118cdaa760e01b81523360048201526024016111fa565b601080546001600160a01b038381166001600160a01b0319831681179093556040519116919082907f8be0079c531659141344cd1fd0a4f28419497f9722a3daafe3b4186f6b6457e090600090a35050565b6008546009546001600160a01b0390911690600090613098908490612ac7565b6040516370a0823160e01b815233600482015290915081906001600160a01b038416906370a0823190602401602060405180830381865afa1580156130e1573d6000803e3d6000fd5b505050506040513d601f19601f820116820180604052508101906131059190613b0e565b10156131535760405162461bcd60e51b815260206004820152601e60248201527f46433a20496e73756666696369656e7420746f6b656e2062616c616e6365000060448201526064016111fa565b60075461119b90839033906001600160a01b031684612d3e565b806002600082825461317f9190613caa565b90915550506001600160a01b0382166000818152600360209081526040808320805486019055518481526000805160206142d183398151915291015b60405180910390a35050565b604080516001600160a01b038381166024830152841660448083019190915282518083039091018152606490910182526020810180516001600160e01b031663248a35ef60e11b17905290516000918291829161016791613228919061414a565b6000604051808303816000865af19150503d8060008114613265576040519150601f19603f3d011682016040523d82523d6000602084013e61326a565b606091505b50915091508161327b57601561328f565b8080602001905181019061328f9190614220565b9250600383900b601614612bf45760405162461bcd60e51b815260206004820152601f60248201527f536166652073696e676c65206173736f63696174696f6e206661696c6564210060448201526064016111fa565b3360009081526015602052604081208054839290613304908490613b77565b925050819055508060136000828254612ff19190613b77565b6000806000806101676001600160a01b031663acb9cff960e01b88888860405160240161334c9392919061423b565b60408051601f198184030181529181526020820180516001600160e01b03166001600160e01b031990941693909317909252905161338a919061414a565b6000604051808303816000865af19150503d80600081146133c7576040519150601f19603f3d011682016040523d82523d6000602084013e6133cc565b606091505b5091509150816133df57601560006133f3565b808060200190518101906133f391906142a6565b94509250600383900b60161461343f5760405162461bcd60e51b815260206004820152601160248201527053616665206275726e206661696c65642160781b60448201526064016111fa565b5050509392505050565b600060405163a9059cbb60e01b8152836004820152826024820152602060006044836000895af13d15601f3d116001600051141617169150508061106f5760405162461bcd60e51b815260206004820152600f60248201526e1514905394d1915497d19052531151608a1b60448201526064016111fa565b6001600160a01b038216600090815260036020526040812080548392906134e9908490613b77565b90915550506002805482900390556040518181526000906001600160a01b038416906000805160206142d1833981519152906020016131bb565b61271081106135665760405162461bcd60e51b815260206004820152600f60248201526e46433a20496e76616c69642066656560881b60448201526064016111fa565b600780546001600160a01b038581166001600160a01b0319928316811790935560088054918616919092168117909155600983905560408051928352602083019190915281018290527febd34b2df88ea5c9f67c04b13b08e5e63c2d17e269aab73b866fe47a8736a2649060600160405180910390a1505050565b6135eb8282611945565b6127bc5760405163e2517d3f60e01b81526001600160a01b0382166004820152602481018390526044016111fa565b60006020828403121561362c57600080fd5b81356001600160e01b031981168114610f4157600080fd5b60005b8381101561365f578181015183820152602001613647565b50506000910152565b60008151808452613680816020860160208601613644565b601f01601f19169290920160200192915050565b602081526000610f416020830184613668565b80356001600160a01b03811681146136be57600080fd5b919050565b600080604083850312156136d657600080fd5b6136df836136a7565b946020939093013593505050565b6000602082840312156136ff57600080fd5b5035919050565b60006020828403121561371857600080fd5b610f41826136a7565b60008060006060848603121561373657600080fd5b61373f846136a7565b925061374d602085016136a7565b9150604084013590509250925092565b6000806040838503121561377057600080fd5b82359150613780602084016136a7565b90509250929050565b6020808252825182820181905260009190848201906040850190845b818110156137c1578351835292840192918401916001016137a5565b50909695505050505050565b634e487b7160e01b600052604160045260246000fd5b604051601f8201601f191681016001600160401b038111828210171561380b5761380b6137cd565b604052919050565b60006001600160401b0382111561382c5761382c6137cd565b5060051b60200190565b60008083601f84011261384857600080fd5b5081356001600160401b0381111561385f57600080fd5b6020830191508360208260051b850101111561387a57600080fd5b9250929050565b60008060006040848603121561389657600080fd5b83356001600160401b03808211156138ad57600080fd5b818601915086601f8301126138c157600080fd5b813560206138d66138d183613813565b6137e3565b82815260059290921b8401810191818101908a8411156138f557600080fd5b948201945b83861015613913578535825294820194908201906138fa565b9750508701359250508082111561392957600080fd5b5061393686828701613836565b9497909650939450505050565b6000806040838503121561395657600080fd5b61395f836136a7565b9150613780602084016136a7565b60008060006060848603121561398257600080fd5b83359250613992602085016136a7565b91506139a0604085016136a7565b90509250925092565b600080602083850312156139bc57600080fd5b82356001600160401b038111156139d257600080fd5b6139de85828601613836565b90969095509350505050565b6020808252825182820181905260009190848201906040850190845b818110156137c15783516001600160a01b031683529284019291840191600101613a06565b60ff811681146127fb57600080fd5b600080600080600080600060e0888a031215613a5557600080fd5b613a5e886136a7565b9650613a6c602089016136a7565b955060408801359450606088013593506080880135613a8a81613a2b565b9699959850939692959460a0840135945060c09093013592915050565b600060608284031215613ab957600080fd5b604051606081018181106001600160401b0382111715613adb57613adb6137cd565b604052613ae7836136a7565b8152613af5602084016136a7565b6020820152604083013560408201528091505092915050565b600060208284031215613b2057600080fd5b5051919050565b600181811c90821680613b3b57607f821691505b602082108103613b5b57634e487b7160e01b600052602260045260246000fd5b50919050565b634e487b7160e01b600052601160045260246000fd5b81810381811115610d9157610d91613b61565b600181815b80851115613bc5578160001904821115613bab57613bab613b61565b80851615613bb857918102915b93841c9390800290613b8f565b509250929050565b600082613bdc57506001610d91565b81613be957506000610d91565b8160018114613bff5760028114613c0957613c25565b6001915050610d91565b60ff841115613c1a57613c1a613b61565b50506001821b610d91565b5060208310610133831016604e8410600b8410161715613c48575081810a610d91565b613c528383613b8a565b8060001904821115613c6657613c66613b61565b029392505050565b6000610f4160ff841683613bcd565b634e487b7160e01b600052603260045260246000fd5b8082028115828204841417610d9157610d91613b61565b80820180821115610d9157610d91613b61565b600082613cda57634e487b7160e01b600052601260045260246000fd5b500490565b8051600781900b81146136be57600080fd5b80516001600160401b03811681146136be57600080fd5b8051600381900b81146136be57600080fd5b600060808284031215613d2c57600080fd5b604051608081018181106001600160401b0382111715613d4e57613d4e6137cd565b604052613d5a83613cdf565b8152613d6860208401613cf1565b6020820152613d7960408401613d08565b6040820152606083015160608201528091505092915050565b600060208284031215613da457600080fd5b8151610f4181613a2b565b60008260030b8260030b028060030b915080821461110b5761110b613b61565b6000610f418383613bcd565b600060018201613ded57613ded613b61565b5060010190565b600060208284031215613e0657600080fd5b81518015158114610f4157600080fd5b600081548084526020808501945083600052602060002060005b83811015613e555781546001600160a01b031687529582019560019182019101613e30565b509495945050505050565b85815284602082015260a060408201526000613e7f60a0830186613e16565b6001600160a01b0394909416606083015250608001529392505050565b60006020808385031215613eaf57600080fd5b82516001600160401b03811115613ec557600080fd5b8301601f81018513613ed657600080fd5b8051613ee46138d182613813565b81815260059190911b82018301908381019087831115613f0357600080fd5b928401925b82841015613f2157835182529284019290840190613f08565b979650505050505050565b848152608060208201526000613f456080830186613e16565b6001600160a01b03949094166040830152506060015292915050565b81835281816020850137506000828201602090810191909152601f909101601f19169091010190565b60208082528181018390526000906040600585901b8401810190840186845b8781101561401857868403603f190183528135368a9003601e19018112613fcf57600080fd5b890185810190356001600160401b03811115613fea57600080fd5b803603821315613ff957600080fd5b614004868284613f61565b955050509184019190840190600101613fa9565b5091979650505050505050565b60008083548160018260011c9150600183168061404357607f831692505b6020808410820361406257634e487b7160e01b86526022600452602486fd5b818015614076576001811461408b576140b8565b60ff19861689528415158502890196506140b8565b60008a81526020902060005b868110156140b05781548b820152908501908301614097565b505084890196505b509498975050505050505050565b60006060820160018060a01b038616835260206001600160401b03861660208501526060604085015281855180845260808601915060808160051b87010193506020870160005b8281101561413b57607f19888703018452614129868351613668565b9550928401929084019060010161410d565b50939998505050505050505050565b6000825161415c818460208701613644565b9190910192915050565b60008060006060848603121561417b57600080fd5b61418484613d08565b92506020614193818601613cf1565b925060408501516001600160401b038111156141ae57600080fd5b8501601f810187136141bf57600080fd5b80516141cd6138d182613813565b81815260059190911b820183019083810190898311156141ec57600080fd5b928401925b828410156142115761420284613cdf565b825292840192908401906141f1565b80955050505050509250925092565b60006020828403121561423257600080fd5b610f4182613d08565b6001600160a01b03841681526001600160401b0383166020808301919091526060604083018190528351908301819052600091848101916080850190845b8181101561429857845160070b83529383019391830191600101614279565b509098975050505050505050565b600080604083850312156142b957600080fd5b6142c283613d08565b915061378060208401613cf156feddf252ad1be2c89b69c2b068fc378daa952ba7f163c4a11628f55a4df523b3efa2646970667358221220deb457cfa8562682998127bb000eac62b83d3b5c008a261a059283fffcdd07eb64736f6c63430008180033a2646970667358221220325243884fdde62262e89888431ab4d28d07257ef556d01f3e155282cac9269764736f6c63430008180033",
  "linkReferences": {},
  "deployedLinkReferences": {}
}