{
  "_format": "hh-sol-artifact-1",
  "contractName": "Verifier",
  "sourceName": "contracts/onchainid/verifiers/Verifier.sol",
  "abi": [
    {
      "anonymous": false,
      "inputs": [
        {
          "indexed": true,
          "internalType": "uint256",
          "name": "claimTopic",
          "type": "uint256"
        }
      ],
      "name": "ClaimTopicAdded",
      "type": "event"
    },
    {
      "anonymous": false,
      "inputs": [
        {
          "indexed": true,
          "internalType": "uint256",
          "name": "claimTopic",
          "type": "uint256"
        }
      ],
      "name": "ClaimTopicRemoved",
      "type": "event"
    },
    {
      "anonymous": false,
      "inputs": [
        {
          "indexed": true,
          "internalType": "contract IClaimIssuer",
          "name": "trustedIssuer",
          "type": "address"
        },
        {
          "indexed": false,
          "internalType": "uint256[]",
          "name": "claimTopics",
          "type": "uint256[]"
        }
      ],
      "name": "ClaimTopicsUpdated",
      "type": "event"
    },
    {
      "anonymous": false,
      "inputs": [
        {
          "indexed": true,
          "internalType": "address",
          "name": "previousOwner",
          "type": "address"
        },
        {
          "indexed": true,
          "internalType": "address",
          "name": "newOwner",
          "type": "address"
        }
      ],
      "name": "OwnershipTransferred",
      "type": "event"
    },
    {
      "anonymous": false,
      "inputs": [
        {
          "indexed": true,
          "internalType": "contract IClaimIssuer",
          "name": "trustedIssuer",
          "type": "address"
        },
        {
          "indexed": false,
          "internalType": "uint256[]",
          "name": "claimTopics",
          "type": "uint256[]"
        }
      ],
      "name": "TrustedIssuerAdded",
      "type": "event"
    },
    {
      "anonymous": false,
      "inputs": [
        {
          "indexed": true,
          "internalType": "contract IClaimIssuer",
          "name": "trustedIssuer",
          "type": "address"
        }
      ],
      "name": "TrustedIssuerRemoved",
      "type": "event"
    },
    {
      "inputs": [
        {
          "internalType": "uint256",
          "name": "claimTopic",
          "type": "uint256"
        }
      ],
      "name": "addClaimTopic",
      "outputs": [],
      "stateMutability": "nonpayable",
      "type": "function"
    },
    {
      "inputs": [
        {
          "internalType": "contract IClaimIssuer",
          "name": "trustedIssuer",
          "type": "address"
        },
        {
          "internalType": "uint256[]",
          "name": "claimTopics",
          "type": "uint256[]"
        }
      ],
      "name": "addTrustedIssuer",
      "outputs": [],
      "stateMutability": "nonpayable",
      "type": "function"
    },
    {
      "inputs": [
        {
          "internalType": "uint256",
          "name": "",
          "type": "uint256"
        },
        {
          "internalType": "uint256",
          "name": "",
          "type": "uint256"
        }
      ],
      "name": "claimTopicsToTrustedIssuers",
      "outputs": [
        {
          "internalType": "contract IClaimIssuer",
          "name": "",
          "type": "address"
        }
      ],
      "stateMutability": "view",
      "type": "function"
    },
    {
      "inputs": [
        {
          "internalType": "contract IClaimIssuer",
          "name": "trustedIssuer",
          "type": "address"
        }
      ],
      "name": "getTrustedIssuerClaimTopics",
      "outputs": [
        {
          "internalType": "uint256[]",
          "name": "",
          "type": "uint256[]"
        }
      ],
      "stateMutability": "view",
      "type": "function"
    },
    {
      "inputs": [],
      "name": "getTrustedIssuers",
      "outputs": [
        {
          "internalType": "contract IClaimIssuer[]",
          "name": "",
          "type": "address[]"
        }
      ],
      "stateMutability": "view",
      "type": "function"
    },
    {
      "inputs": [
        {
          "internalType": "uint256",
          "name": "claimTopic",
          "type": "uint256"
        }
      ],
      "name": "getTrustedIssuersForClaimTopic",
      "outputs": [
        {
          "internalType": "contract IClaimIssuer[]",
          "name": "",
          "type": "address[]"
        }
      ],
      "stateMutability": "view",
      "type": "function"
    },
    {
      "inputs": [
        {
          "internalType": "address",
          "name": "issuer",
          "type": "address"
        },
        {
          "internalType": "uint256",
          "name": "claimTopic",
          "type": "uint256"
        }
      ],
      "name": "hasClaimTopic",
      "outputs": [
        {
          "internalType": "bool",
          "name": "",
          "type": "bool"
        }
      ],
      "stateMutability": "view",
      "type": "function"
    },
    {
      "inputs": [
        {
          "internalType": "uint256",
          "name": "claimTopic",
          "type": "uint256"
        }
      ],
      "name": "isClaimTopicRequired",
      "outputs": [
        {
          "internalType": "bool",
          "name": "",
          "type": "bool"
        }
      ],
      "stateMutability": "view",
      "type": "function"
    },
    {
      "inputs": [
        {
          "internalType": "address",
          "name": "issuer",
          "type": "address"
        }
      ],
      "name": "isTrustedIssuer",
      "outputs": [
        {
          "internalType": "bool",
          "name": "",
          "type": "bool"
        }
      ],
      "stateMutability": "view",
      "type": "function"
    },
    {
      "inputs": [],
      "name": "owner",
      "outputs": [
        {
          "internalType": "address",
          "name": "",
          "type": "address"
        }
      ],
      "stateMutability": "view",
      "type": "function"
    },
    {
      "inputs": [
        {
          "internalType": "uint256",
          "name": "claimTopic",
          "type": "uint256"
        }
      ],
      "name": "removeClaimTopic",
      "outputs": [],
      "stateMutability": "nonpayable",
      "type": "function"
    },
    {
      "inputs": [
        {
          "internalType": "contract IClaimIssuer",
          "name": "trustedIssuer",
          "type": "address"
        }
      ],
      "name": "removeTrustedIssuer",
      "outputs": [],
      "stateMutability": "nonpayable",
      "type": "function"
    },
    {
      "inputs": [],
      "name": "renounceOwnership",
      "outputs": [],
      "stateMutability": "nonpayable",
      "type": "function"
    },
    {
      "inputs": [
        {
          "internalType": "uint256",
          "name": "",
          "type": "uint256"
        }
      ],
      "name": "requiredClaimTopics",
      "outputs": [
        {
          "internalType": "uint256",
          "name": "",
          "type": "uint256"
        }
      ],
      "stateMutability": "view",
      "type": "function"
    },
    {
      "inputs": [
        {
          "internalType": "address",
          "name": "newOwner",
          "type": "address"
        }
      ],
      "name": "transferOwnership",
      "outputs": [],
      "stateMutability": "nonpayable",
      "type": "function"
    },
    {
      "inputs": [
        {
          "internalType": "address",
          "name": "",
          "type": "address"
        },
        {
          "internalType": "uint256",
          "name": "",
          "type": "uint256"
        }
      ],
      "name": "trustedIssuerClaimTopics",
      "outputs": [
        {
          "internalType": "uint256",
          "name": "",
          "type": "uint256"
        }
      ],
      "stateMutability": "view",
      "type": "function"
    },
    {
      "inputs": [
        {
          "internalType": "uint256",
          "name": "",
          "type": "uint256"
        }
      ],
      "name": "trustedIssuers",
      "outputs": [
        {
          "internalType": "contract IClaimIssuer",
          "name": "",
          "type": "address"
        }
      ],
      "stateMutability": "view",
      "type": "function"
    },
    {
      "inputs": [
        {
          "internalType": "contract IClaimIssuer",
          "name": "trustedIssuer",
          "type": "address"
        },
        {
          "internalType": "uint256[]",
          "name": "newClaimTopics",
          "type": "uint256[]"
        }
      ],
      "name": "updateIssuerClaimTopics",
      "outputs": [],
      "stateMutability": "nonpayable",
      "type": "function"
    },
    {
      "inputs": [
        {
          "internalType": "address",
          "name": "identity",
          "type": "address"
        }
      ],
      "name": "verify",
      "outputs": [
        {
          "internalType": "bool",
          "name": "isVerified",
          "type": "bool"
        }
      ],
      "stateMutability": "view",
      "type": "function"
    }
  ],
  "bytecode": "0x608060405234801561001057600080fd5b5061001a3361001f565b61006f565b600080546001600160a01b038381166001600160a01b0319831681178455604051919092169283917f8be0079c531659141344cd1fd0a4f28419497f9722a3daafe3b4186f6b6457e09190a35050565b611d698061007e6000396000f3fe608060405234801561001057600080fd5b50600436106101215760003560e01c8063b5fa8693116100ad578063c7b2255111610071578063c7b2255114610276578063c801dd4014610289578063d9dd24c51461029c578063ef2ed1a4146102a4578063f2fde38b146102b757600080fd5b8063b5fa8693146101fc578063b93d28eb1461021d578063ba64c34114610230578063be36359f14610243578063c28fb2781461025657600080fd5b806363a9c3d7116100f457806363a9c3d714610196578063715018a6146101a95780638da5cb5b146101b157806393e9f801146101d65780639f63ea98146101e957600080fd5b806304bc7e8414610126578063082978461461013b57806334a899871461014e57806352c111d114610176575b600080fd5b610139610134366004611798565b6102ca565b005b610139610149366004611820565b610649565b61016161015c366004611839565b61072f565b60405190151581526020015b60405180910390f35b610189610184366004611820565b6107e4565b60405161016d9190611865565b6101616101a43660046118b2565b610850565b610139610c26565b6000546001600160a01b03165b6040516001600160a01b03909116815260200161016d565b6101be6101e43660046118d6565b610c3a565b6101396101f7366004611798565b610c72565b61020f61020a366004611820565b610ef1565b60405190815260200161016d565b61013961022b3660046118b2565b610f12565b61020f61023e366004611839565b611294565b610161610251366004611820565b6112c5565b6102696102643660046118b2565b611315565b60405161016d91906118f8565b610139610284366004611820565b6113e7565b6101be610297366004611820565b61152c565b610189611556565b6101616102b23660046118b2565b6115b8565b6101396102c53660046118b2565b6115e6565b6102d261165f565b6001600160a01b0383166103015760405162461bcd60e51b81526004016102f890611930565b60405180910390fd5b6001600160a01b038316600090815260036020526040812054900361035f5760405162461bcd60e51b81526020600482015260146024820152732727aa1030903a393ab9ba32b21034b9b9bab2b960611b60448201526064016102f8565b600f8111156103805760405162461bcd60e51b81526004016102f890611967565b806103cd5760405162461bcd60e51b815260206004820152601c60248201527f636c61696d20746f706963732063616e6e6f7420626520656d7074790000000060448201526064016102f8565b60005b6001600160a01b03841660009081526003602052604090205481101561056c576001600160a01b038416600090815260036020526040812080548390811061041a5761041a6119ac565b600091825260208083209091015480835260049091526040822054909250905b8181101561056157600083815260046020526040902080546001600160a01b03891691908390811061046e5761046e6119ac565b6000918252602090912001546001600160a01b0316036105595760008381526004602052604090206104a16001846119d8565b815481106104b1576104b16119ac565b60009182526020808320909101548583526004909152604090912080546001600160a01b0390921691839081106104ea576104ea6119ac565b600091825260208083209190910180546001600160a01b0319166001600160a01b039490941693909317909255848152600490915260409020805480610532576105326119eb565b600082815260209020810160001990810180546001600160a01b0319169055019055610561565b60010161043a565b5050506001016103d0565b506001600160a01b0383166000908152600360205260409020610590908383611709565b5060005b8181101561060057600460008484848181106105b2576105b26119ac565b602090810292909201358352508181019290925260400160009081208054600180820183559183529290912090910180546001600160a01b0319166001600160a01b03871617905501610594565b50826001600160a01b03167fec753cfc52044f61676f18a11e500093a9f2b1cd5e4942bc476f2b0438159bcf838360405161063c929190611a01565b60405180910390a2505050565b61065161165f565b60015460005b8181101561072a578260018281548110610673576106736119ac565b90600052602060002001540361072257600161068f81846119d8565b8154811061069f5761069f6119ac565b9060005260206000200154600182815481106106bd576106bd6119ac565b60009182526020909120015560018054806106da576106da6119eb565b60019003818190600052602060002001600090559055827f0b1381093c776453c1bbe54fd68be1b235c65db61d099cb50d194b2991e0eec560405160405180910390a2505050565b600101610657565b505050565b6001600160a01b03821660009081526003602090815260408083208054825181850281018501909352808352849383018282801561078c57602002820191906000526020600020905b815481526020019060010190808311610778575b505083519394506000925050505b818110156107d657848382815181106107b5576107b56119ac565b6020026020010151036107ce57600193505050506107de565b60010161079a565b506000925050505b92915050565b60008181526004602090815260409182902080548351818402810184019094528084526060939283018282801561084457602002820191906000526020600020905b81546001600160a01b03168152600190910190602001808311610826575b50505050509050919050565b600154600090810361086457506001919050565b600080600060608060005b600154811015610c18576000306001600160a01b03166352c111d16001848154811061089d5761089d6119ac565b90600052602060002001546040518263ffffffff1660e01b81526004016108c691815260200190565b600060405180830381865afa1580156108e3573d6000803e3d6000fd5b505050506040513d6000823e601f3d908101601f1916820160405261090b9190810190611a81565b905080516000036109255750600098975050505050505050565b6000815167ffffffffffffffff81111561094157610941611a3a565b60405190808252806020026020018201604052801561096a578160200160208202803683370190505b50905060005b8251811015610a115782818151811061098b5761098b6119ac565b6020026020010151600185815481106109a6576109a66119ac565b90600052602060002001546040516020016109d69291906001600160a01b03929092168252602082015260400190565b604051602081830303815290604052805190602001208282815181106109fe576109fe6119ac565b6020908102919091010152600101610970565b5060005b8151811015610c0d578a6001600160a01b031663c9100bcb838381518110610a3f57610a3f6119ac565b60200260200101516040518263ffffffff1660e01b8152600401610a6591815260200190565b600060405180830381865afa158015610a82573d6000803e3d6000fd5b505050506040513d6000823e601f3d908101601f19168201604052610aaa9190810190611bc6565b5060018054959e50939c50919a50985096509085908110610acd57610acd6119ac565b90600052602060002001548903610bd657866001600160a01b031663c0969a6e8c60018781548110610b0157610b016119ac565b906000526020600020015489896040518563ffffffff1660e01b8152600401610b2d9493929190611cb4565b602060405180830381865afa925050508015610b66575060408051601f3d908101601f19168201909252610b6391810190611cf8565b60015b610b945760018251610b7891906119d8565b8103610b8f575060009a9950505050505050505050565b610bfb565b8015610b9f57825191505b80158015610bb9575060018351610bb691906119d8565b82145b15610bd0575060009b9a5050505050505050505050565b50610bfb565b60018251610be491906119d8565b8103610bfb575060009a9950505050505050505050565b80610c0581611d1a565b915050610a15565b50505060010161086f565b506001979650505050505050565b610c2e61165f565b610c3860006116b9565b565b60046020528160005260406000208181548110610c5657600080fd5b6000918252602090912001546001600160a01b03169150829050565b610c7a61165f565b6001600160a01b038316610ca05760405162461bcd60e51b81526004016102f890611930565b6001600160a01b03831660009081526003602052604090205415610d065760405162461bcd60e51b815260206004820152601d60248201527f747275737465642049737375657220616c72656164792065786973747300000060448201526064016102f8565b80610d5f5760405162461bcd60e51b8152602060048201526024808201527f7472757374656420636c61696d20746f706963732063616e6e6f7420626520656044820152636d70747960e01b60648201526084016102f8565b600f811115610d805760405162461bcd60e51b81526004016102f890611967565b600254603211610de35760405162461bcd60e51b815260206004820152602860248201527f63616e6e6f742068617665206d6f7265207468616e2035302074727573746564604482015267206973737565727360c01b60648201526084016102f8565b60028054600181019091557f405787fa12a823e0f2b7631cc41b3ba8828b3321ca811111fa75cd3aa3bb5ace0180546001600160a01b0319166001600160a01b0385169081179091556000908152600360205260409020610e45908383611709565b5060005b81811015610eb55760046000848484818110610e6757610e676119ac565b602090810292909201358352508181019290925260400160009081208054600180820183559183529290912090910180546001600160a01b0319166001600160a01b03871617905501610e49565b50826001600160a01b03167ffedc33fd34859594822c0ff6f3f4f9fc279cc6d5cae53068f706a088e4500872838360405161063c929190611a01565b60018181548110610f0157600080fd5b600091825260209091200154905081565b610f1a61165f565b6001600160a01b038116610f405760405162461bcd60e51b81526004016102f890611930565b6001600160a01b0381166000908152600360205260408120549003610f9e5760405162461bcd60e51b81526020600482015260146024820152732727aa1030903a393ab9ba32b21034b9b9bab2b960611b60448201526064016102f8565b60025460005b8181101561109a57826001600160a01b031660028281548110610fc957610fc96119ac565b6000918252602090912001546001600160a01b031603611092576002610ff06001846119d8565b81548110611000576110006119ac565b600091825260209091200154600280546001600160a01b03909216918390811061102c5761102c6119ac565b9060005260206000200160006101000a8154816001600160a01b0302191690836001600160a01b03160217905550600280548061106b5761106b6119eb565b600082815260209020810160001990810180546001600160a01b031916905501905561109a565b600101610fa4565b5060005b6001600160a01b03831660009081526003602052604090205481101561123a576001600160a01b03831660009081526003602052604081208054839081106110e8576110e86119ac565b600091825260208083209091015480835260049091526040822054909250905b8181101561122f57600083815260046020526040902080546001600160a01b03881691908390811061113c5761113c6119ac565b6000918252602090912001546001600160a01b03160361122757600083815260046020526040902061116f6001846119d8565b8154811061117f5761117f6119ac565b60009182526020808320909101548583526004909152604090912080546001600160a01b0390921691839081106111b8576111b86119ac565b600091825260208083209190910180546001600160a01b0319166001600160a01b039490941693909317909255848152600490915260409020805480611200576112006119eb565b600082815260209020810160001990810180546001600160a01b031916905501905561122f565b600101611108565b50505060010161109e565b506001600160a01b038216600090815260036020526040812061125c91611754565b6040516001600160a01b038316907f2214ded40113cc3fb63fc206cafee88270b0a903dac7245d54efdde30ebb032190600090a25050565b600360205281600052604060002081815481106112b057600080fd5b90600052602060002001600091509150505481565b600154600090815b8181101561130b5783600182815481106112e9576112e96119ac565b906000526020600020015403611303575060019392505050565b6001016112cd565b5060009392505050565b6001600160a01b0381166000908152600360205260408120546060910361137e5760405162461bcd60e51b815260206004820152601c60248201527f747275737465642049737375657220646f65736e27742065786973740000000060448201526064016102f8565b6001600160a01b0382166000908152600360209081526040918290208054835181840281018401909452808452909183018282801561084457602002820191906000526020600020905b8154815260200190600101908083116113c85750505050509050919050565b6113ef61165f565b600154600f811061144d5760405162461bcd60e51b815260206004820152602260248201527f63616e6e6f742072657175697265206d6f7265207468616e20313520746f7069604482015261637360f01b60648201526084016102f8565b60005b818110156114cc57826001828154811061146c5761146c6119ac565b9060005260206000200154036114c45760405162461bcd60e51b815260206004820152601960248201527f636c61696d546f70696320616c7265616479206578697374730000000000000060448201526064016102f8565b600101611450565b5060018054808201825560009182527fb10e2d527612073b26eecdfd717e6a320cf44b4afac2b0732d9fcbe2b7fa0cf60183905560405183917f01c928b7f7ade2949e92366aa9454dbef3a416b731cf6ec786ba9595bbd814d691a25050565b6002818154811061153c57600080fd5b6000918252602090912001546001600160a01b0316905081565b606060028054806020026020016040519081016040528092919081815260200182805480156115ae57602002820191906000526020600020905b81546001600160a01b03168152600190910190602001808311611590575b5050505050905090565b6001600160a01b038116600090815260036020526040812054156115de57506001919050565b506000919050565b6115ee61165f565b6001600160a01b0381166116535760405162461bcd60e51b815260206004820152602660248201527f4f776e61626c653a206e6577206f776e657220697320746865207a65726f206160448201526564647265737360d01b60648201526084016102f8565b61165c816116b9565b50565b6000546001600160a01b03163314610c385760405162461bcd60e51b815260206004820181905260248201527f4f776e61626c653a2063616c6c6572206973206e6f7420746865206f776e657260448201526064016102f8565b600080546001600160a01b038381166001600160a01b0319831681178455604051919092169283917f8be0079c531659141344cd1fd0a4f28419497f9722a3daafe3b4186f6b6457e09190a35050565b828054828255906000526020600020908101928215611744579160200282015b82811115611744578235825591602001919060010190611729565b5061175092915061176e565b5090565b508054600082559060005260206000209081019061165c91905b5b80821115611750576000815560010161176f565b6001600160a01b038116811461165c57600080fd5b6000806000604084860312156117ad57600080fd5b83356117b881611783565b9250602084013567ffffffffffffffff808211156117d557600080fd5b818601915086601f8301126117e957600080fd5b8135818111156117f857600080fd5b8760208260051b850101111561180d57600080fd5b6020830194508093505050509250925092565b60006020828403121561183257600080fd5b5035919050565b6000806040838503121561184c57600080fd5b823561185781611783565b946020939093013593505050565b6020808252825182820181905260009190848201906040850190845b818110156118a65783516001600160a01b031683529284019291840191600101611881565b50909695505050505050565b6000602082840312156118c457600080fd5b81356118cf81611783565b9392505050565b600080604083850312156118e957600080fd5b50508035926020909101359150565b6020808252825182820181905260009190848201906040850190845b818110156118a657835183529284019291840191600101611914565b6020808252601f908201527f696e76616c696420617267756d656e74202d207a65726f206164647265737300604082015260600190565b60208082526025908201527f63616e6e6f742068617665206d6f7265207468616e20313520636c61696d20746040820152646f7069637360d81b606082015260800190565b634e487b7160e01b600052603260045260246000fd5b634e487b7160e01b600052601160045260246000fd5b818103818111156107de576107de6119c2565b634e487b7160e01b600052603160045260246000fd5b6020808252810182905260006001600160fb1b03831115611a2157600080fd5b8260051b80856040850137919091016040019392505050565b634e487b7160e01b600052604160045260246000fd5b604051601f8201601f1916810167ffffffffffffffff81118282101715611a7957611a79611a3a565b604052919050565b60006020808385031215611a9457600080fd5b825167ffffffffffffffff80821115611aac57600080fd5b818501915085601f830112611ac057600080fd5b815181811115611ad257611ad2611a3a565b8060051b9150611ae3848301611a50565b8181529183018401918481019088841115611afd57600080fd5b938501935b83851015611b275784519250611b1783611783565b8282529385019390850190611b02565b98975050505050505050565b60005b83811015611b4e578181015183820152602001611b36565b50506000910152565b600067ffffffffffffffff831115611b7157611b71611a3a565b611b84601f8401601f1916602001611a50565b9050828152838383011115611b9857600080fd5b6118cf836020830184611b33565b600082601f830112611bb757600080fd5b6118cf83835160208501611b57565b60008060008060008060c08789031215611bdf57600080fd5b86519550602087015194506040870151611bf881611783565b606088015190945067ffffffffffffffff80821115611c1657600080fd5b611c228a838b01611ba6565b94506080890151915080821115611c3857600080fd5b611c448a838b01611ba6565b935060a0890151915080821115611c5a57600080fd5b508701601f81018913611c6c57600080fd5b611c7b89825160208401611b57565b9150509295509295509295565b60008151808452611ca0816020860160208601611b33565b601f01601f19169290920160200192915050565b60018060a01b0385168152836020820152608060408201526000611cdb6080830185611c88565b8281036060840152611ced8185611c88565b979650505050505050565b600060208284031215611d0a57600080fd5b815180151581146118cf57600080fd5b600060018201611d2c57611d2c6119c2565b506001019056fea2646970667358221220f4000348c9b320bb03f819fb986550b9fae7b2f347666cf29977c74ed9d34b2164736f6c63430008180033",
  "linkReferences": {},
  "deployedLinkReferences": {}
}